{
  "contractName": "CloneFactory",
  "abi": [
    {
      "inputs": [],
      "payable": false,
      "stateMutability": "nonpayable",
      "type": "constructor"
    },
    {
      "anonymous": false,
      "inputs": [
        {
          "indexed": true,
          "name": "target",
          "type": "address"
        },
        {
          "indexed": false,
          "name": "clone",
          "type": "address"
        }
      ],
      "name": "CloneCreated",
      "type": "event"
    },
    {
      "constant": false,
      "inputs": [
        {
          "name": "_owner",
          "type": "address"
        }
      ],
      "name": "setOwner",
      "outputs": [],
      "payable": false,
      "stateMutability": "nonpayable",
      "type": "function"
    }
  ],
  "bytecode": "0x608060405234801561001057600080fd5b50336000806101000a81548173ffffffffffffffffffffffffffffffffffffffff021916908373ffffffffffffffffffffffffffffffffffffffff160217905550610153806100606000396000f300608060405260043610610041576000357c0100000000000000000000000000000000000000000000000000000000900463ffffffff16806313af403514610046575b600080fd5b34801561005257600080fd5b50610087600480360381019080803573ffffffffffffffffffffffffffffffffffffffff169060200190929190505050610089565b005b6000809054906101000a900473ffffffffffffffffffffffffffffffffffffffff1673ffffffffffffffffffffffffffffffffffffffff163373ffffffffffffffffffffffffffffffffffffffff161415156100e457600080fd5b806000806101000a81548173ffffffffffffffffffffffffffffffffffffffff021916908373ffffffffffffffffffffffffffffffffffffffff160217905550505600a165627a7a72305820b1e56007efcc7de1b6328223986d7b34cc453dc70d5f02cf2a0cbd7a7363dfb80029",
  "source": "pragma solidity ^0.4.23;\r\n\r\ncontract CloneFactory {\r\n\r\n    address internal owner;\r\n\r\n    event CloneCreated(address indexed target, address clone);\r\n\r\n    constructor() public{\r\n        owner = msg.sender;\r\n    }\r\n\r\n    /*Modifiers*/\r\n    modifier onlyOwner() {\r\n        require(msg.sender == owner);\r\n        _;\r\n    }\r\n\r\n    /**\r\n    *@dev Allows the owner to set a new owner address\r\n    *@param _owner the new owner address\r\n    */\r\n    function setOwner(address _owner) public onlyOwner(){\r\n        owner = _owner;\r\n    }\r\n\r\n    /**\r\n    *@dev Creates factory clone\r\n    *@param _target is the address being cloned\r\n    */\r\n    function createClone(address target) internal returns (address result) {\r\n        bytes memory clone = hex\"600034603b57603080600f833981f36000368180378080368173bebebebebebebebebebebebebebebebebebebebe5af43d82803e15602c573d90f35b3d90fd\";\r\n        bytes20 targetBytes = bytes20(target);\r\n        for (uint i = 0; i < 20; i++) {\r\n            clone[26 + i] = targetBytes[i];\r\n        }\r\n        assembly {\r\n            let len := mload(clone)\r\n            let data := add(clone, 0x20)\r\n            result := create(0, data, len)\r\n        }\r\n    }\r\n}\r\n",
  "sourcePath": "C:\\company\\code\\drct_standard\\contracts\\CloneFactory.sol",
  "compiler": {
    "name": "solc",
    "version": "0.4.24+commit.e67f0147.Emscripten.clang"
  },
  "schemaVersion": "2.0.0",
  "updatedAt": "2018-06-06T00:18:20.264Z"
}