{
  "contractName": "Deployer",
  "abi": [
    {
      "inputs": [
        {
          "name": "_factory",
          "type": "address"
        }
      ],
      "payable": false,
      "stateMutability": "nonpayable",
      "type": "constructor"
    },
    {
      "constant": false,
      "inputs": [
        {
          "name": "_party",
          "type": "address"
        },
        {
          "name": "user_contract",
          "type": "address"
        },
        {
          "name": "_start_date",
          "type": "uint256"
        }
      ],
      "name": "newContract",
      "outputs": [
        {
          "name": "",
          "type": "address"
        }
      ],
      "payable": false,
      "stateMutability": "nonpayable",
      "type": "function"
    },
    {
      "constant": false,
      "inputs": [
        {
          "name": "_factory",
          "type": "address"
        },
        {
          "name": "_owner",
          "type": "address"
        }
      ],
      "name": "setVars",
      "outputs": [],
      "payable": false,
      "stateMutability": "nonpayable",
      "type": "function"
    }
  ],
  "bytecode": "0x608060405234801561001057600080fd5b50604051602080612da28339810180604052810190808051906020019092919050505080600160006101000a81548173ffffffffffffffffffffffffffffffffffffffff021916908373ffffffffffffffffffffffffffffffffffffffff160217905550336000806101000a81548173ffffffffffffffffffffffffffffffffffffffff021916908373ffffffffffffffffffffffffffffffffffffffff16021790555050612cde806100c46000396000f30060806040526004361061004c576000357c0100000000000000000000000000000000000000000000000000000000900463ffffffff168063548dd51e14610051578063cea9f621146100fe575b600080fd5b34801561005d57600080fd5b506100bc600480360381019080803573ffffffffffffffffffffffffffffffffffffffff169060200190929190803573ffffffffffffffffffffffffffffffffffffffff16906020019092919080359060200190929190505050610161565b604051808273ffffffffffffffffffffffffffffffffffffffff1673ffffffffffffffffffffffffffffffffffffffff16815260200191505060405180910390f35b34801561010a57600080fd5b5061015f600480360381019080803573ffffffffffffffffffffffffffffffffffffffff169060200190929190803573ffffffffffffffffffffffffffffffffffffffff1690602001909291905050506102bb565b005b600080600160009054906101000a900473ffffffffffffffffffffffffffffffffffffffff1673ffffffffffffffffffffffffffffffffffffffff163373ffffffffffffffffffffffffffffffffffffffff161415156101c057600080fd5b600160009054906101000a900473ffffffffffffffffffffffffffffffffffffffff168585856101ee61039b565b808573ffffffffffffffffffffffffffffffffffffffff1673ffffffffffffffffffffffffffffffffffffffff1681526020018473ffffffffffffffffffffffffffffffffffffffff1673ffffffffffffffffffffffffffffffffffffffff1681526020018373ffffffffffffffffffffffffffffffffffffffff1673ffffffffffffffffffffffffffffffffffffffff168152602001828152602001945050505050604051809103906000f0801580156102ad573d6000803e3d6000fd5b509050809150509392505050565b6000809054906101000a900473ffffffffffffffffffffffffffffffffffffffff1673ffffffffffffffffffffffffffffffffffffffff163373ffffffffffffffffffffffffffffffffffffffff1614151561031657600080fd5b81600160006101000a81548173ffffffffffffffffffffffffffffffffffffffff021916908373ffffffffffffffffffffffffffffffffffffffff160217905550806000806101000a81548173ffffffffffffffffffffffffffffffffffffffff021916908373ffffffffffffffffffffffffffffffffffffffff1602179055505050565b604051612907806103ac83390190560060806040523480156200001157600080fd5b5060405160808062002907833981018060405281019080805190602001909291908051906020019092919080519060200190929190805190602001909291905050506200007d848484846000620000876401000000000262002626179094939291906401000000009004565b5050505062000197565b828560030160006101000a81548173ffffffffffffffffffffffffffffffffffffffff021916908373ffffffffffffffffffffffffffffffffffffffff160217905550838560010160006101000a81548173ffffffffffffffffffffffffffffffffffffffff021916908373ffffffffffffffffffffffffffffffffffffffff160217905550818560130160006101000a81548173ffffffffffffffffffffffffffffffffffffffff021916908373ffffffffffffffffffffffffffffffffffffffff160217905550808560060160006007811015156200016457fe5b018190555060008560050160146101000a81548160ff021916908360028111156200018b57fe5b02179055505050505050565b61276080620001a76000396000f30060806040526004361061006d576000357c0100000000000000000000000000000000000000000000000000000000900463ffffffff1680630c3f6acf1461007257806370f9c0211461009d57806379eba0b6146100ec5780637a3d4b1a146101625780638119c065146101af575b600080fd5b34801561007e57600080fd5b506100876103cf565b6040518082815260200191505060405180910390f35b3480156100a957600080fd5b506100d260048036038101908080359060200190929190803590602001909291905050506103e0565b604051808215151515815260200191505060405180910390f35b3480156100f857600080fd5b50610101610411565b6040518087600560200280838360005b8381101561012c578082015181840152602081019050610111565b50505050905001868152602001858152602001848152602001838152602001828152602001965050505050505060405180910390f35b34801561016e57600080fd5b506101ad60048036038101908080359060200190929190803573ffffffffffffffffffffffffffffffffffffffff16906020019092919050505061043f565b005b3480156101bb57600080fd5b506101c4610459565b604051808f73ffffffffffffffffffffffffffffffffffffffff1673ffffffffffffffffffffffffffffffffffffffff1681526020018e73ffffffffffffffffffffffffffffffffffffffff1673ffffffffffffffffffffffffffffffffffffffff1681526020018d73ffffffffffffffffffffffffffffffffffffffff1673ffffffffffffffffffffffffffffffffffffffff1681526020018c73ffffffffffffffffffffffffffffffffffffffff1673ffffffffffffffffffffffffffffffffffffffff1681526020018b73ffffffffffffffffffffffffffffffffffffffff1673ffffffffffffffffffffffffffffffffffffffff1681526020018a73ffffffffffffffffffffffffffffffffffffffff1673ffffffffffffffffffffffffffffffffffffffff16815260200189600281111561030057fe5b60ff1681526020018881526020018781526020018673ffffffffffffffffffffffffffffffffffffffff1673ffffffffffffffffffffffffffffffffffffffff1681526020018573ffffffffffffffffffffffffffffffffffffffff1673ffffffffffffffffffffffffffffffffffffffff1681526020018481526020018381526020018273ffffffffffffffffffffffffffffffffffffffff1673ffffffffffffffffffffffffffffffffffffffff1681526020019e50505050505050505050505050505060405180910390f35b60006103db60006105e0565b905090565b600061040a604080519081016040528085815260200184815250600061060690919063ffffffff16565b5092915050565b610419612603565b600080600080600061042b6000610df6565b955095509550955095509550909192939495565b610455828260006110289092919063ffffffff16565b5050565b60008060000160009054906101000a900473ffffffffffffffffffffffffffffffffffffffff16908060010160009054906101000a900473ffffffffffffffffffffffffffffffffffffffff16908060020160009054906101000a900473ffffffffffffffffffffffffffffffffffffffff16908060030160009054906101000a900473ffffffffffffffffffffffffffffffffffffffff16908060040160009054906101000a900473ffffffffffffffffffffffffffffffffffffffff16908060050160009054906101000a900473ffffffffffffffffffffffffffffffffffffffff16908060050160149054906101000a900460ff169080600d01549080600e01549080600f0160009054906101000a900473ffffffffffffffffffffffffffffffffffffffff16908060100160009054906101000a900473ffffffffffffffffffffffffffffffffffffffff16908060110154908060120154908060130160009054906101000a900473ffffffffffffffffffffffffffffffffffffffff1690508e565b60008160050160149054906101000a900460ff1660028111156105ff57fe5b9050919050565b60008060008060008060008060008060006001600281111561062457fe5b8d60050160149054906101000a900460ff16600281111561064157fe5b14801561066157508c600601600160078110151561065b57fe5b01544210155b151561066c57600080fd5b6106758d61171b565b99508915610de3576106868d611cf6565b8c600f0160009054906101000a900473ffffffffffffffffffffffffffffffffffffffff1698508873ffffffffffffffffffffffffffffffffffffffff16638811a0ae306040518263ffffffff167c0100000000000000000000000000000000000000000000000000000000028152600401808273ffffffffffffffffffffffffffffffffffffffff1673ffffffffffffffffffffffffffffffffffffffff168152602001915050602060405180830381600087803b15801561074857600080fd5b505af115801561075c573d6000803e3d6000fd5b505050506040513d602081101561077257600080fd5b810190808051906020019092919050505097508b600160028110151561079457fe5b602002015188106107b8578b60016002811015156107ae57fe5b60200201516107ba565b875b96506001870395505b8b60006002811015156107d257fe5b6020020151861015156108e9578873ffffffffffffffffffffffffffffffffffffffff1663174dcea887306040518363ffffffff167c0100000000000000000000000000000000000000000000000000000000028152600401808381526020018273ffffffffffffffffffffffffffffffffffffffff1673ffffffffffffffffffffffffffffffffffffffff168152602001925050506040805180830381600087803b15801561088157600080fd5b505af1158015610895573d6000803e3d6000fd5b505050506040513d60408110156108ab57600080fd5b81019080805190602001909291908051906020019092919050505080965081955050506108db8d86866001611edc565b8580600190039650506107c3565b8c60100160009054906101000a900473ffffffffffffffffffffffffffffffffffffffff1698508873ffffffffffffffffffffffffffffffffffffffff16638811a0ae306040518263ffffffff167c0100000000000000000000000000000000000000000000000000000000028152600401808273ffffffffffffffffffffffffffffffffffffffff1673ffffffffffffffffffffffffffffffffffffffff168152602001915050602060405180830381600087803b1580156109ab57600080fd5b505af11580156109bf573d6000803e3d6000fd5b505050506040513d60208110156109d557600080fd5b810190808051906020019092919050505097508b60016002811015156109f757fe5b60200201518810610a1b578b6001600281101515610a1157fe5b6020020151610a1d565b875b96506001870392505b8b6000600281101515610a3557fe5b602002015183101515610b4c578873ffffffffffffffffffffffffffffffffffffffff1663174dcea884306040518363ffffffff167c0100000000000000000000000000000000000000000000000000000000028152600401808381526020018273ffffffffffffffffffffffffffffffffffffffff1673ffffffffffffffffffffffffffffffffffffffff168152602001925050506040805180830381600087803b158015610ae457600080fd5b505af1158015610af8573d6000803e3d6000fd5b505050506040513d6040811015610b0e57600080fd5b8101908080519060200190929190805190602001909291905050508093508192505050610b3e8d83836000611edc565b828060019003935050610a26565b87871415610de2578c60050160009054906101000a900473ffffffffffffffffffffffffffffffffffffffff1673ffffffffffffffffffffffffffffffffffffffff1663a9059cbb8e60010160009054906101000a900473ffffffffffffffffffffffffffffffffffffffff168f60050160009054906101000a900473ffffffffffffffffffffffffffffffffffffffff1673ffffffffffffffffffffffffffffffffffffffff166370a08231306040518263ffffffff167c0100000000000000000000000000000000000000000000000000000000028152600401808273ffffffffffffffffffffffffffffffffffffffff1673ffffffffffffffffffffffffffffffffffffffff168152602001915050602060405180830381600087803b158015610c7857600080fd5b505af1158015610c8c573d6000803e3d6000fd5b505050506040513d6020811015610ca257600080fd5b81019080805190602001909291905050506040518363ffffffff167c0100000000000000000000000000000000000000000000000000000000028152600401808373ffffffffffffffffffffffffffffffffffffffff1673ffffffffffffffffffffffffffffffffffffffff16815260200182815260200192505050602060405180830381600087803b158015610d3857600080fd5b505af1158015610d4c573d6000803e3d6000fd5b505050506040513d6020811015610d6257600080fd5b8101908080519060200190929190505050507fbc6c94b90850c7cd9f35740bb9b9cbce0e00c88e8ddeaace095f1d45bfd740108d600d01548e600e0154604051808381526020018281526020019250505060405180910390a160028d60050160146101000a81548160ff02191690836002811115610ddc57fe5b02179055505b5b899a505050505050505050505092915050565b610dfe612603565b600080600080600060a0604051908101604052808860130160009054906101000a900473ffffffffffffffffffffffffffffffffffffffff1673ffffffffffffffffffffffffffffffffffffffff1673ffffffffffffffffffffffffffffffffffffffff16815260200188600f0160009054906101000a900473ffffffffffffffffffffffffffffffffffffffff1673ffffffffffffffffffffffffffffffffffffffff1673ffffffffffffffffffffffffffffffffffffffff1681526020018860100160009054906101000a900473ffffffffffffffffffffffffffffffffffffffff1673ffffffffffffffffffffffffffffffffffffffff1673ffffffffffffffffffffffffffffffffffffffff1681526020018860000160009054906101000a900473ffffffffffffffffffffffffffffffffffffffff1673ffffffffffffffffffffffffffffffffffffffff1673ffffffffffffffffffffffffffffffffffffffff1681526020018860040160009054906101000a900473ffffffffffffffffffffffffffffffffffffffff1673ffffffffffffffffffffffffffffffffffffffff1673ffffffffffffffffffffffffffffffffffffffff168152508760110154886006016002600781101515610fd557fe5b0154896006016003600781101515610fe957fe5b01548a6006016000600781101515610ffd57fe5b01548b600601600160078110151561101157fe5b015495509550955095509550955091939550919395565b600080600281111561103657fe5b8460050160149054906101000a900460ff16600281111561105357fe5b1480156110af57508360030160009054906101000a900473ffffffffffffffffffffffffffffffffffffffff1673ffffffffffffffffffffffffffffffffffffffff163373ffffffffffffffffffffffffffffffffffffffff16145b80156110bb5750600083115b8061117c57508360130160009054906101000a900473ffffffffffffffffffffffffffffffffffffffff1673ffffffffffffffffffffffffffffffffffffffff163373ffffffffffffffffffffffffffffffffffffffff1614801561116f57508360030160009054906101000a900473ffffffffffffffffffffffffffffffffffffffff1673ffffffffffffffffffffffffffffffffffffffff168273ffffffffffffffffffffffffffffffffffffffff16145b801561117b5750600083115b5b151561118757600080fd5b8360010160009054906101000a900473ffffffffffffffffffffffffffffffffffffffff168460020160006101000a81548173ffffffffffffffffffffffffffffffffffffffff021916908373ffffffffffffffffffffffffffffffffffffffff1602179055506111f78461239a565b6112456112236201518086600601600360078110151561121357fe5b015461256590919063ffffffff16565b85600601600060078110151561123557fe5b015461259890919063ffffffff16565b84600601600160078110151561125757fe5b01819055506224ea0084600601600060078110151561127257fe5b015485600601600160078110151561128657fe5b01540310151561129257fe5b8284601201819055508360040160009054906101000a900473ffffffffffffffffffffffffffffffffffffffff168460050160006101000a81548173ffffffffffffffffffffffffffffffffffffffff021916908373ffffffffffffffffffffffffffffffffffffffff16021790555061130d836002612565565b8460050160009054906101000a900473ffffffffffffffffffffffffffffffffffffffff1673ffffffffffffffffffffffffffffffffffffffff166370a08231306040518263ffffffff167c0100000000000000000000000000000000000000000000000000000000028152600401808273ffffffffffffffffffffffffffffffffffffffff1673ffffffffffffffffffffffffffffffffffffffff168152602001915050602060405180830381600087803b1580156113cc57600080fd5b505af11580156113e0573d6000803e3d6000fd5b505050506040513d60208110156113f657600080fd5b810190808051906020019092919050505014151561141057fe5b600190508360020160009054906101000a900473ffffffffffffffffffffffffffffffffffffffff1673ffffffffffffffffffffffffffffffffffffffff16632a7292d085601201548660030160009054906101000a900473ffffffffffffffffffffffffffffffffffffffff1687600601600060078110151561149057fe5b01546040518463ffffffff167c0100000000000000000000000000000000000000000000000000000000028152600401808481526020018373ffffffffffffffffffffffffffffffffffffffff1673ffffffffffffffffffffffffffffffffffffffff1681526020018281526020019350505050606060405180830381600087803b15801561151e57600080fd5b505af1158015611532573d6000803e3d6000fd5b505050506040513d606081101561154857600080fd5b8101908080519060200190929190805190602001909291908051906020019092919050505086600f0160008860100160008497508591906101000a81548173ffffffffffffffffffffffffffffffffffffffff021916908373ffffffffffffffffffffffffffffffffffffffff1602179055508491906101000a81548173ffffffffffffffffffffffffffffffffffffffff021916908373ffffffffffffffffffffffffffffffffffffffff1602179055505050506116148185601201546125b690919063ffffffff16565b84601101819055506116258461171b565b507f4bd82ea3087db5766e0b0ac766426889c709d48bfa239b6e5de07f5f57f561df8460040160009054906101000a900473ffffffffffffffffffffffffffffffffffffffff1685600601600060078110151561167e57fe5b015486600601600160078110151561169257fe5b01548760120154604051808573ffffffffffffffffffffffffffffffffffffffff1673ffffffffffffffffffffffffffffffffffffffff16815260200184815260200183815260200182815260200194505050505060405180910390a160018460050160146101000a81548160ff0219169083600281111561171057fe5b021790555050505050565b6000806000808460000160009054906101000a900473ffffffffffffffffffffffffffffffffffffffff169250620151804281151561175657fe5b064203915084600601600060078110151561176d57fe5b015482101580156117915750600085600601600460078110151561178d57fe5b0154145b15611a2257600090505b620151808560060160006007811015156117b157fe5b015483038115156117be57fe5b04811015611980578273ffffffffffffffffffffffffffffffffffffffff1663aeb2ffc16201518083028760060160006007811015156117fa57fe5b0154016040518263ffffffff167c010000000000000000000000000000000000000000000000000000000002815260040180828152602001915050602060405180830381600087803b15801561184f57600080fd5b505af1158015611863573d6000803e3d6000fd5b505050506040513d602081101561187957600080fd5b810190808051906020019092919050505015611973578273ffffffffffffffffffffffffffffffffffffffff16635bee29b76201518083028760060160006007811015156118c357fe5b0154016040518263ffffffff167c010000000000000000000000000000000000000000000000000000000002815260040180828152602001915050602060405180830381600087803b15801561191857600080fd5b505af115801561192c573d6000803e3d6000fd5b505050506040513d602081101561194257600080fd5b810190808051906020019092919050505085600601600460078110151561196557fe5b018190555060019350611cee565b808060010191505061179b565b600085600601600460078110151561199457fe5b01541415611a21578273ffffffffffffffffffffffffffffffffffffffff1663c692c0496040518163ffffffff167c0100000000000000000000000000000000000000000000000000000000028152600401600060405180830381600087803b158015611a0057600080fd5b505af1158015611a14573d6000803e3d6000fd5b5050505060009350611cee565b5b846006016001600781101515611a3457fe5b01548210158015611a5857506000856006016005600781101515611a5457fe5b0154145b15611ce957600090505b62015180856006016001600781101515611a7857fe5b01548303811515611a8557fe5b04811015611c47578273ffffffffffffffffffffffffffffffffffffffff1663aeb2ffc1620151808302876006016001600781101515611ac157fe5b0154016040518263ffffffff167c010000000000000000000000000000000000000000000000000000000002815260040180828152602001915050602060405180830381600087803b158015611b1657600080fd5b505af1158015611b2a573d6000803e3d6000fd5b505050506040513d6020811015611b4057600080fd5b810190808051906020019092919050505015611c3a578273ffffffffffffffffffffffffffffffffffffffff16635bee29b7620151808302876006016001600781101515611b8a57fe5b0154016040518263ffffffff167c010000000000000000000000000000000000000000000000000000000002815260040180828152602001915050602060405180830381600087803b158015611bdf57600080fd5b505af1158015611bf3573d6000803e3d6000fd5b505050506040513d6020811015611c0957600080fd5b8101908080519060200190929190505050856006016005600781101515611c2c57fe5b018190555060019350611cee565b8080600101915050611a62565b6000856006016005600781101515611c5b57fe5b01541415611ce8578273ffffffffffffffffffffffffffffffffffffffff1663c692c0496040518163ffffffff167c0100000000000000000000000000000000000000000000000000000000028152600401600060405180830381600087803b158015611cc757600080fd5b505af1158015611cdb573d6000803e3d6000fd5b5050505060009350611cee565b5b600193505b505050919050565b6000611d3a612710611d2c846006016006600781101515611d1357fe5b015461271003856012015461256590919063ffffffff16565b6125b690919063ffffffff16565b82601201819055506000826006016004600781101515611d5657fe5b0154118015611d7857506000826006016005600781101515611d7457fe5b0154115b15611dd257611dcb826006016004600781101515611d9257fe5b0154611dbd620186a0856006016005600781101515611dad57fe5b015461256590919063ffffffff16565b6125b690919063ffffffff16565b9050611e29565b6000826006016005600781101515611de657fe5b01541115611dfb5764174876e8009050611e28565b6000826006016004600781101515611e0f57fe5b01541115611e205760009050611e27565b620186a090505b5b5b611e3662030d40826125d1565b9050611e7a620186a0611e6c8460110154611e5e86601201548661256590919063ffffffff16565b6125b690919063ffffffff16565b6125b690919063ffffffff16565b82600d0181905550611ed0620186a0611ec28460110154611eb48660120154611ea662030d40886125ea565b61256590919063ffffffff16565b6125b690919063ffffffff16565b6125b690919063ffffffff16565b82600e01819055505050565b801561213d57600084600d01541115612138578360050160009054906101000a900473ffffffffffffffffffffffffffffffffffffffff1673ffffffffffffffffffffffffffffffffffffffff1663a9059cbb84611f4787600d01548661256590919063ffffffff16565b6040518363ffffffff167c0100000000000000000000000000000000000000000000000000000000028152600401808373ffffffffffffffffffffffffffffffffffffffff1673ffffffffffffffffffffffffffffffffffffffff16815260200182815260200192505050602060405180830381600087803b158015611fcc57600080fd5b505af1158015611fe0573d6000803e3d6000fd5b505050506040513d6020811015611ff657600080fd5b8101908080519060200190929190505050508360020160009054906101000a900473ffffffffffffffffffffffffffffffffffffffff1673ffffffffffffffffffffffffffffffffffffffff1663ecb145198486600f0160009054906101000a900473ffffffffffffffffffffffffffffffffffffffff166040518363ffffffff167c0100000000000000000000000000000000000000000000000000000000028152600401808373ffffffffffffffffffffffffffffffffffffffff1673ffffffffffffffffffffffffffffffffffffffff1681526020018273ffffffffffffffffffffffffffffffffffffffff1673ffffffffffffffffffffffffffffffffffffffff16815260200192505050600060405180830381600087803b15801561211f57600080fd5b505af1158015612133573d6000803e3d6000fd5b505050505b612394565b600084600e01541115612393578360050160009054906101000a900473ffffffffffffffffffffffffffffffffffffffff1673ffffffffffffffffffffffffffffffffffffffff1663a9059cbb846121a287600e01548661256590919063ffffffff16565b6040518363ffffffff167c0100000000000000000000000000000000000000000000000000000000028152600401808373ffffffffffffffffffffffffffffffffffffffff1673ffffffffffffffffffffffffffffffffffffffff16815260200182815260200192505050602060405180830381600087803b15801561222757600080fd5b505af115801561223b573d6000803e3d6000fd5b505050506040513d602081101561225157600080fd5b8101908080519060200190929190505050508360020160009054906101000a900473ffffffffffffffffffffffffffffffffffffffff1673ffffffffffffffffffffffffffffffffffffffff1663ecb14519848660100160009054906101000a900473ffffffffffffffffffffffffffffffffffffffff166040518363ffffffff167c0100000000000000000000000000000000000000000000000000000000028152600401808373ffffffffffffffffffffffffffffffffffffffff1673ffffffffffffffffffffffffffffffffffffffff1681526020018273ffffffffffffffffffffffffffffffffffffffff1673ffffffffffffffffffffffffffffffffffffffff16815260200192505050600060405180830381600087803b15801561237a57600080fd5b505af115801561238e573d6000803e3d6000fd5b505050505b5b50505050565b8060020160009054906101000a900473ffffffffffffffffffffffffffffffffffffffff1673ffffffffffffffffffffffffffffffffffffffff166394aef0226040518163ffffffff167c010000000000000000000000000000000000000000000000000000000002815260040160a060405180830381600087803b15801561242257600080fd5b505af1158015612436573d6000803e3d6000fd5b505050506040513d60a081101561244c57600080fd5b81019080805190602001909291908051906020019092919080519060200190929190805190602001909291908051906020019092919050505085600001600087600601600360078110151561249d57fe5b0160008960060160026007811015156124b257fe5b0160008b60040160008d60060160066007811015156124cd57fe5b0160008a919050558991906101000a81548173ffffffffffffffffffffffffffffffffffffffff021916908373ffffffffffffffffffffffffffffffffffffffff160217905550889190505587919050558691906101000a81548173ffffffffffffffffffffffffffffffffffffffff021916908373ffffffffffffffffffffffffffffffffffffffff160217905550505050505050565b60008082840290506000841480612586575082848281151561258357fe5b04145b151561258e57fe5b8091505092915050565b60008082840190508381101515156125ac57fe5b8091505092915050565b60008082848115156125c457fe5b0490508091505092915050565b60008183106125e057816125e2565b825b905092915050565b60008282111515156125f857fe5b818303905092915050565b60a060405190810160405280600590602082028038833980820191505090505090565b828560030160006101000a81548173ffffffffffffffffffffffffffffffffffffffff021916908373ffffffffffffffffffffffffffffffffffffffff160217905550838560010160006101000a81548173ffffffffffffffffffffffffffffffffffffffff021916908373ffffffffffffffffffffffffffffffffffffffff160217905550818560130160006101000a81548173ffffffffffffffffffffffffffffffffffffffff021916908373ffffffffffffffffffffffffffffffffffffffff1602179055508085600601600060078110151561270257fe5b018190555060008560050160146101000a81548160ff0219169083600281111561272857fe5b021790555050505050505600a165627a7a72305820083990aaab0d69cac67afa9efbfbab1d3bf13642e5ee6952c66244673a8ff0570029a165627a7a723058203427da37aaad42f910a4da1add295bc6e1f18fe5e57a6c558187097b6fc702fc0029",
  "source": "pragma solidity ^0.4.21;\r\n\r\nimport \"./TokenToTokenSwap.sol\";\r\n\r\n/**Swap Deployer Contract - purpose is to save gas for deployment of Factory contract.\r\n*It also ensures only the factory can create new contracts.\r\n*/\r\ncontract Deployer {\r\n    /*Variables*/\r\n    address internal owner;\r\n    address internal factory;\r\n    \r\n    /*Functions*/\r\n    /**\r\n     *@dev Deploys the factory contract \r\n     *@param _factory is the address of the factory contract\r\n    */    \r\n    function Deployer(address _factory) public {\r\n        factory = _factory;\r\n        owner = msg.sender;\r\n    }\r\n\r\n    /**\r\n    *@notice The function creates a new contract\r\n    *@dev It ensures the new contract can only be created by the factory\r\n    *@param _party address of user creating the contract\r\n    *@param user_contract address of userContract.sol \r\n    *@param _start_date contract start date\r\n    *@return returns the address for the new contract\r\n    */\r\n    function newContract(address _party, address user_contract, uint _start_date) public returns (address) {\r\n        require(msg.sender == factory);\r\n        address new_contract = new TokenToTokenSwap(factory, _party, user_contract, _start_date);\r\n        return new_contract;\r\n    }\r\n\r\n    /**\r\n     *@dev Set variables if the owner is the factory contract\r\n     *@param _factory address\r\n     *@param _owner address\r\n    */\r\n    function setVars(address _factory, address _owner) public {\r\n        require (msg.sender == owner);\r\n        factory = _factory;\r\n        owner = _owner;\r\n    }\r\n}\r\n",
  "sourcePath": "C:\\users\\brenda\\documents\\dapp\\drct_standard\\contracts\\Deployer.sol",
  "compiler": {
    "name": "solc",
    "version": "0.4.23+commit.124ca40d.Emscripten.clang"
  },
  "schemaVersion": "2.0.0",
  "updatedAt": "2018-05-23T19:33:23.244Z"
}