{
  "contractName": "Deployer",
  "abi": [
    {
      "constant": false,
      "inputs": [
        {
          "name": "_owner",
          "type": "address"
        }
      ],
      "name": "setOwner",
      "outputs": [],
      "payable": false,
      "stateMutability": "nonpayable",
      "type": "function"
    },
    {
      "constant": true,
      "inputs": [],
      "name": "swap",
      "outputs": [
        {
          "name": "",
          "type": "address"
        }
      ],
      "payable": false,
      "stateMutability": "view",
      "type": "function"
    },
    {
      "inputs": [
        {
          "name": "_factory",
          "type": "address"
        }
      ],
      "payable": false,
      "stateMutability": "nonpayable",
      "type": "constructor"
    },
    {
      "anonymous": false,
      "inputs": [
        {
          "indexed": true,
          "name": "master",
          "type": "address"
        },
        {
          "indexed": true,
          "name": "clone",
          "type": "address"
        }
      ],
      "name": "Deployed",
      "type": "event"
    },
    {
      "anonymous": false,
      "inputs": [
        {
          "indexed": true,
          "name": "target",
          "type": "address"
        },
        {
          "indexed": false,
          "name": "clone",
          "type": "address"
        }
      ],
      "name": "CloneCreated",
      "type": "event"
    },
    {
      "constant": false,
      "inputs": [
        {
          "name": "_addr",
          "type": "address"
        }
      ],
      "name": "updateSwap",
      "outputs": [],
      "payable": false,
      "stateMutability": "nonpayable",
      "type": "function"
    },
    {
      "constant": false,
      "inputs": [
        {
          "name": "_party",
          "type": "address"
        },
        {
          "name": "_user",
          "type": "address"
        },
        {
          "name": "_start",
          "type": "uint256"
        }
      ],
      "name": "newContract",
      "outputs": [
        {
          "name": "",
          "type": "address"
        }
      ],
      "payable": false,
      "stateMutability": "nonpayable",
      "type": "function"
    },
    {
      "constant": false,
      "inputs": [
        {
          "name": "_factory",
          "type": "address"
        },
        {
          "name": "_owner",
          "type": "address"
        }
      ],
      "name": "setVars",
      "outputs": [],
      "payable": false,
      "stateMutability": "nonpayable",
      "type": "function"
    }
  ],
  "bytecode": "0x608060405234801561001057600080fd5b5060405160208061368183398101806040528101908080519060200190929190505050336000806101000a81548173ffffffffffffffffffffffffffffffffffffffff021916908373ffffffffffffffffffffffffffffffffffffffff16021790555080600160006101000a81548173ffffffffffffffffffffffffffffffffffffffff021916908373ffffffffffffffffffffffffffffffffffffffff160217905550303330426100c06101c6565b808573ffffffffffffffffffffffffffffffffffffffff1673ffffffffffffffffffffffffffffffffffffffff1681526020018473ffffffffffffffffffffffffffffffffffffffff1673ffffffffffffffffffffffffffffffffffffffff1681526020018373ffffffffffffffffffffffffffffffffffffffff1673ffffffffffffffffffffffffffffffffffffffff168152602001828152602001945050505050604051809103906000f08015801561017f573d6000803e3d6000fd5b50600260006101000a81548173ffffffffffffffffffffffffffffffffffffffff021916908373ffffffffffffffffffffffffffffffffffffffff160217905550506101d6565b604051612cb6806109cb83390190565b6107e6806101e56000396000f30060806040526004361061006d576000357c0100000000000000000000000000000000000000000000000000000000900463ffffffff16806313af403514610072578063548dd51e146100b55780638119c0651461016257806394e6fd60146101b9578063cea9f621146101fc575b600080fd5b34801561007e57600080fd5b506100b3600480360381019080803573ffffffffffffffffffffffffffffffffffffffff16906020019092919050505061025f565b005b3480156100c157600080fd5b50610120600480360381019080803573ffffffffffffffffffffffffffffffffffffffff169060200190929190803573ffffffffffffffffffffffffffffffffffffffff169060200190929190803590602001909291905050506102fd565b604051808273ffffffffffffffffffffffffffffffffffffffff1673ffffffffffffffffffffffffffffffffffffffff16815260200191505060405180910390f35b34801561016e57600080fd5b506101776104f9565b604051808273ffffffffffffffffffffffffffffffffffffffff1673ffffffffffffffffffffffffffffffffffffffff16815260200191505060405180910390f35b3480156101c557600080fd5b506101fa600480360381019080803573ffffffffffffffffffffffffffffffffffffffff16906020019092919050505061051f565b005b34801561020857600080fd5b5061025d600480360381019080803573ffffffffffffffffffffffffffffffffffffffff169060200190929190803573ffffffffffffffffffffffffffffffffffffffff1690602001909291905050506105be565b005b6000809054906101000a900473ffffffffffffffffffffffffffffffffffffffff1673ffffffffffffffffffffffffffffffffffffffff163373ffffffffffffffffffffffffffffffffffffffff161415156102ba57600080fd5b806000806101000a81548173ffffffffffffffffffffffffffffffffffffffff021916908373ffffffffffffffffffffffffffffffffffffffff16021790555050565b60008061032b600260009054906101000a900473ffffffffffffffffffffffffffffffffffffffff1661069e565b90508073ffffffffffffffffffffffffffffffffffffffff166346639dba600160009054906101000a900473ffffffffffffffffffffffffffffffffffffffff168787876040518563ffffffff167c0100000000000000000000000000000000000000000000000000000000028152600401808573ffffffffffffffffffffffffffffffffffffffff1673ffffffffffffffffffffffffffffffffffffffff1681526020018473ffffffffffffffffffffffffffffffffffffffff1673ffffffffffffffffffffffffffffffffffffffff1681526020018373ffffffffffffffffffffffffffffffffffffffff1673ffffffffffffffffffffffffffffffffffffffff168152602001828152602001945050505050600060405180830381600087803b15801561045a57600080fd5b505af115801561046e573d6000803e3d6000fd5b505050508073ffffffffffffffffffffffffffffffffffffffff16600260009054906101000a900473ffffffffffffffffffffffffffffffffffffffff1673ffffffffffffffffffffffffffffffffffffffff167f09e48df7857bd0c1e0d31bb8a85d42cf1874817895f171c917f6ee2cea73ec2060405160405180910390a3809150509392505050565b600260009054906101000a900473ffffffffffffffffffffffffffffffffffffffff1681565b6000809054906101000a900473ffffffffffffffffffffffffffffffffffffffff1673ffffffffffffffffffffffffffffffffffffffff163373ffffffffffffffffffffffffffffffffffffffff1614151561057a57600080fd5b80600260006101000a81548173ffffffffffffffffffffffffffffffffffffffff021916908373ffffffffffffffffffffffffffffffffffffffff16021790555050565b6000809054906101000a900473ffffffffffffffffffffffffffffffffffffffff1673ffffffffffffffffffffffffffffffffffffffff163373ffffffffffffffffffffffffffffffffffffffff1614151561061957600080fd5b81600160006101000a81548173ffffffffffffffffffffffffffffffffffffffff021916908373ffffffffffffffffffffffffffffffffffffffff160217905550806000806101000a81548173ffffffffffffffffffffffffffffffffffffffff021916908373ffffffffffffffffffffffffffffffffffffffff1602179055505050565b60006060600080606060405190810160405280603f81526020017f600034603b57603080600f833981f36000368180378080368173bebebebebebe81526020017fbebebebebebebebebebebebebebe5af43d82803e15602c573d90f35b3d90fd008152509250846c01000000000000000000000000029150600090505b60148110156107a357818160148110151561073257fe5b1a7f0100000000000000000000000000000000000000000000000000000000000000028382601a0181518110151561076657fe5b9060200101907effffffffffffffffffffffffffffffffffffffffffffffffffffffffffffff1916908160001a905350808060010191505061071b565b82516020840181816000f0955050505050509190505600a165627a7a72305820691ffce9f29c016c59c0f762df09f644c260a1baaf42e8a81756e206fc579bb4002960806040523480156200001157600080fd5b5060405160808062002cb6833981018060405281019080805190602001909291908051906020019092919080519060200190929190805190602001909291905050506200007d848484846000620000876401000000000262001104179094939291906401000000009004565b5050505062000211565b600073ffffffffffffffffffffffffffffffffffffffff168560030160009054906101000a900473ffffffffffffffffffffffffffffffffffffffff1673ffffffffffffffffffffffffffffffffffffffff16141515620000e757600080fd5b828560030160006101000a81548173ffffffffffffffffffffffffffffffffffffffff021916908373ffffffffffffffffffffffffffffffffffffffff160217905550838560010160006101000a81548173ffffffffffffffffffffffffffffffffffffffff021916908373ffffffffffffffffffffffffffffffffffffffff160217905550818560140160006101000a81548173ffffffffffffffffffffffffffffffffffffffff021916908373ffffffffffffffffffffffffffffffffffffffff16021790555080856006016000600881101515620001c457fe5b018190555060008560050160146101000a81548160ff02191690836002811115620001eb57fe5b021790555060008560060160076008811015156200020557fe5b01819055505050505050565b612a9580620002216000396000f300608060405260043610610078576000357c0100000000000000000000000000000000000000000000000000000000900463ffffffff1680630c3f6acf1461007d5780632e6c7ee0146100a857806346639dba146100ed57806379eba0b61461017a5780637a3d4b1a146101f05780638119c0651461023d575b600080fd5b34801561008957600080fd5b5061009261045d565b6040518082815260200191505060405180910390f35b3480156100b457600080fd5b506100d36004803603810190808035906020019092919050505061046e565b604051808215151515815260200191505060405180910390f35b3480156100f957600080fd5b50610178600480360381019080803573ffffffffffffffffffffffffffffffffffffffff169060200190929190803573ffffffffffffffffffffffffffffffffffffffff169060200190929190803573ffffffffffffffffffffffffffffffffffffffff1690602001909291908035906020019092919050505061048a565b005b34801561018657600080fd5b5061018f6104aa565b6040518087600560200280838360005b838110156101ba57808201518184015260208101905061019f565b50505050905001868152602001858152602001848152602001838152602001828152602001965050505050505060405180910390f35b3480156101fc57600080fd5b5061023b60048036038101908080359060200190929190803573ffffffffffffffffffffffffffffffffffffffff1690602001909291905050506104d8565b005b34801561024957600080fd5b506102526104f2565b604051808f73ffffffffffffffffffffffffffffffffffffffff1673ffffffffffffffffffffffffffffffffffffffff1681526020018e73ffffffffffffffffffffffffffffffffffffffff1673ffffffffffffffffffffffffffffffffffffffff1681526020018d73ffffffffffffffffffffffffffffffffffffffff1673ffffffffffffffffffffffffffffffffffffffff1681526020018c73ffffffffffffffffffffffffffffffffffffffff1673ffffffffffffffffffffffffffffffffffffffff1681526020018b73ffffffffffffffffffffffffffffffffffffffff1673ffffffffffffffffffffffffffffffffffffffff1681526020018a73ffffffffffffffffffffffffffffffffffffffff1673ffffffffffffffffffffffffffffffffffffffff16815260200189600281111561038e57fe5b60ff1681526020018881526020018781526020018673ffffffffffffffffffffffffffffffffffffffff1673ffffffffffffffffffffffffffffffffffffffff1681526020018573ffffffffffffffffffffffffffffffffffffffff1673ffffffffffffffffffffffffffffffffffffffff1681526020018481526020018381526020018273ffffffffffffffffffffffffffffffffffffffff1673ffffffffffffffffffffffffffffffffffffffff1681526020019e50505050505050505050505050505060405180910390f35b60006104696000610679565b905090565b600061048482600061069f90919063ffffffff16565b50919050565b6104a484848484600061110490949392919063ffffffff16565b50505050565b6104b2612a23565b60008060008060006104c4600061128a565b955095509550955095509550909192939495565b6104ee828260006114bc9092919063ffffffff16565b5050565b60008060000160009054906101000a900473ffffffffffffffffffffffffffffffffffffffff16908060010160009054906101000a900473ffffffffffffffffffffffffffffffffffffffff16908060020160009054906101000a900473ffffffffffffffffffffffffffffffffffffffff16908060030160009054906101000a900473ffffffffffffffffffffffffffffffffffffffff16908060040160009054906101000a900473ffffffffffffffffffffffffffffffffffffffff16908060050160009054906101000a900473ffffffffffffffffffffffffffffffffffffffff16908060050160149054906101000a900460ff169080600e01549080600f0154908060100160009054906101000a900473ffffffffffffffffffffffffffffffffffffffff16908060110160009054906101000a900473ffffffffffffffffffffffffffffffffffffffff16908060120154908060130154908060140160009054906101000a900473ffffffffffffffffffffffffffffffffffffffff1690508e565b60008160050160149054906101000a900460ff16600281111561069857fe5b9050919050565b60008060006106ac612a46565b6000806000600160028111156106be57fe5b8960050160149054906101000a900460ff1660028111156106db57fe5b1480156106fb57508860060160016008811015156106f557fe5b01544210155b151561070657600080fd5b61070f89611ba5565b955085156110f55761072089612076565b8860100160009054906101000a900473ffffffffffffffffffffffffffffffffffffffff1694508473ffffffffffffffffffffffffffffffffffffffff16638811a0ae306040518263ffffffff167c0100000000000000000000000000000000000000000000000000000000028152600401808273ffffffffffffffffffffffffffffffffffffffff1673ffffffffffffffffffffffffffffffffffffffff168152602001915050602060405180830381600087803b1580156107e257600080fd5b505af11580156107f6573d6000803e3d6000fd5b505050506040513d602081101561080c57600080fd5b810190808051906020019092919050505084600060068110151561082c57fe5b60200201818152505061085b888a600601600760088110151561084b57fe5b01546122fc90919063ffffffff16565b84600060068110151561086a57fe5b602002015111156108b3576108ae60016108a08a8c600601600760088110151561089057fe5b01546122fc90919063ffffffff16565b6122fc90919063ffffffff16565b6108c8565b8360006006811015156108c257fe5b60200201515b8460016006811015156108d757fe5b6020020181815250508360016006811015156108ef57fe5b602002015189600601600760088110151561090657fe5b01541015610a7557600184600160068110151561091f57fe5b60200201510391505b88600601600760088110151561093a57fe5b0154821115610a74578473ffffffffffffffffffffffffffffffffffffffff1663174dcea883306040518363ffffffff167c0100000000000000000000000000000000000000000000000000000000028152600401808381526020018273ffffffffffffffffffffffffffffffffffffffff1673ffffffffffffffffffffffffffffffffffffffff168152602001925050506040805180830381600087803b1580156109e557600080fd5b505af11580156109f9573d6000803e3d6000fd5b505050506040513d6040811015610a0f57600080fd5b810190808051906020019092919080519060200190929190505050856004600681101515610a3957fe5b60200201819550828152505050610a668984866004600681101515610a5a57fe5b6020020151600161231a565b818060019003925050610928565b5b8860110160009054906101000a900473ffffffffffffffffffffffffffffffffffffffff1694508473ffffffffffffffffffffffffffffffffffffffff16638811a0ae306040518263ffffffff167c0100000000000000000000000000000000000000000000000000000000028152600401808273ffffffffffffffffffffffffffffffffffffffff1673ffffffffffffffffffffffffffffffffffffffff168152602001915050602060405180830381600087803b158015610b3757600080fd5b505af1158015610b4b573d6000803e3d6000fd5b505050506040513d6020811015610b6157600080fd5b8101908080519060200190929190505050846002600681101515610b8157fe5b602002018181525050610bb0888a6006016007600881101515610ba057fe5b01546122fc90919063ffffffff16565b846002600681101515610bbf57fe5b60200201511115610c0857610c036001610bf58a8c6006016007600881101515610be557fe5b01546122fc90919063ffffffff16565b6122fc90919063ffffffff16565b610c1d565b836002600681101515610c1757fe5b60200201515b846003600681101515610c2c57fe5b602002018181525050836003600681101515610c4457fe5b6020020151896006016007600881101515610c5b57fe5b01541015610dca576001846003600681101515610c7457fe5b60200201510390505b886006016007600881101515610c8f57fe5b0154811115610dc9578473ffffffffffffffffffffffffffffffffffffffff1663174dcea882306040518363ffffffff167c0100000000000000000000000000000000000000000000000000000000028152600401808381526020018273ffffffffffffffffffffffffffffffffffffffff1673ffffffffffffffffffffffffffffffffffffffff168152602001925050506040805180830381600087803b158015610d3a57600080fd5b505af1158015610d4e573d6000803e3d6000fd5b505050506040513d6040811015610d6457600080fd5b810190808051906020019092919080519060200190929190505050856005600681101515610d8e57fe5b60200201819550828152505050610dbb8984866005600681101515610daf57fe5b6020020151600061231a565b808060019003915050610c7d565b5b836001600681101515610dd957fe5b6020020151846000600681101515610ded57fe5b6020020151148015610e245750836003600681101515610e0957fe5b6020020151846002600681101515610e1d57fe5b6020020151145b156110b7578860050160009054906101000a900473ffffffffffffffffffffffffffffffffffffffff1673ffffffffffffffffffffffffffffffffffffffff1663a9059cbb8a60010160009054906101000a900473ffffffffffffffffffffffffffffffffffffffff168b60050160009054906101000a900473ffffffffffffffffffffffffffffffffffffffff1673ffffffffffffffffffffffffffffffffffffffff166370a08231306040518263ffffffff167c0100000000000000000000000000000000000000000000000000000000028152600401808273ffffffffffffffffffffffffffffffffffffffff1673ffffffffffffffffffffffffffffffffffffffff168152602001915050602060405180830381600087803b158015610f4d57600080fd5b505af1158015610f61573d6000803e3d6000fd5b505050506040513d6020811015610f7757600080fd5b81019080805190602001909291905050506040518363ffffffff167c0100000000000000000000000000000000000000000000000000000000028152600401808373ffffffffffffffffffffffffffffffffffffffff1673ffffffffffffffffffffffffffffffffffffffff16815260200182815260200192505050602060405180830381600087803b15801561100d57600080fd5b505af1158015611021573d6000803e3d6000fd5b505050506040513d602081101561103757600080fd5b8101908080519060200190929190505050507fbc6c94b90850c7cd9f35740bb9b9cbce0e00c88e8ddeaace095f1d45bfd7401089600e01548a600f0154604051808381526020018281526020019250505060405180910390a160028960050160146101000a81548160ff021916908360028111156110b157fe5b02179055505b6110dd888a60060160076008811015156110cd57fe5b01546122fc90919063ffffffff16565b8960060160076008811015156110ef57fe5b01819055505b85965050505050505092915050565b600073ffffffffffffffffffffffffffffffffffffffff168560030160009054906101000a900473ffffffffffffffffffffffffffffffffffffffff1673ffffffffffffffffffffffffffffffffffffffff1614151561116357600080fd5b828560030160006101000a81548173ffffffffffffffffffffffffffffffffffffffff021916908373ffffffffffffffffffffffffffffffffffffffff160217905550838560010160006101000a81548173ffffffffffffffffffffffffffffffffffffffff021916908373ffffffffffffffffffffffffffffffffffffffff160217905550818560140160006101000a81548173ffffffffffffffffffffffffffffffffffffffff021916908373ffffffffffffffffffffffffffffffffffffffff1602179055508085600601600060088110151561123f57fe5b018190555060008560050160146101000a81548160ff0219169083600281111561126557fe5b0217905550600085600601600760088110151561127e57fe5b01819055505050505050565b611292612a23565b600080600080600060a0604051908101604052808860140160009054906101000a900473ffffffffffffffffffffffffffffffffffffffff1673ffffffffffffffffffffffffffffffffffffffff1673ffffffffffffffffffffffffffffffffffffffff1681526020018860100160009054906101000a900473ffffffffffffffffffffffffffffffffffffffff1673ffffffffffffffffffffffffffffffffffffffff1673ffffffffffffffffffffffffffffffffffffffff1681526020018860110160009054906101000a900473ffffffffffffffffffffffffffffffffffffffff1673ffffffffffffffffffffffffffffffffffffffff1673ffffffffffffffffffffffffffffffffffffffff1681526020018860000160009054906101000a900473ffffffffffffffffffffffffffffffffffffffff1673ffffffffffffffffffffffffffffffffffffffff1673ffffffffffffffffffffffffffffffffffffffff1681526020018860040160009054906101000a900473ffffffffffffffffffffffffffffffffffffffff1673ffffffffffffffffffffffffffffffffffffffff1673ffffffffffffffffffffffffffffffffffffffff16815250876012015488600601600260088110151561146957fe5b015489600601600360088110151561147d57fe5b01548a600601600060088110151561149157fe5b01548b60060160016008811015156114a557fe5b015495509550955095509550955091939550919395565b60008060028111156114ca57fe5b8460050160149054906101000a900460ff1660028111156114e757fe5b14801561154357508360030160009054906101000a900473ffffffffffffffffffffffffffffffffffffffff1673ffffffffffffffffffffffffffffffffffffffff163373ffffffffffffffffffffffffffffffffffffffff16145b801561154f5750600083115b8061161057508360140160009054906101000a900473ffffffffffffffffffffffffffffffffffffffff1673ffffffffffffffffffffffffffffffffffffffff163373ffffffffffffffffffffffffffffffffffffffff1614801561160357508360030160009054906101000a900473ffffffffffffffffffffffffffffffffffffffff1673ffffffffffffffffffffffffffffffffffffffff168273ffffffffffffffffffffffffffffffffffffffff16145b801561160f5750600083115b5b151561161b57600080fd5b8360010160009054906101000a900473ffffffffffffffffffffffffffffffffffffffff168460020160006101000a81548173ffffffffffffffffffffffffffffffffffffffff021916908373ffffffffffffffffffffffffffffffffffffffff16021790555061168b846127d8565b6116d96116b7620151808660060160036008811015156116a757fe5b01546129a390919063ffffffff16565b8560060160006008811015156116c957fe5b01546122fc90919063ffffffff16565b8460060160016008811015156116eb57fe5b01819055506224ea0084600601600060088110151561170657fe5b015485600601600160088110151561171a57fe5b01540310151561172657fe5b8284601301819055508360040160009054906101000a900473ffffffffffffffffffffffffffffffffffffffff168460050160006101000a81548173ffffffffffffffffffffffffffffffffffffffff021916908373ffffffffffffffffffffffffffffffffffffffff1602179055506117a18360026129a3565b8460050160009054906101000a900473ffffffffffffffffffffffffffffffffffffffff1673ffffffffffffffffffffffffffffffffffffffff166370a08231306040518263ffffffff167c0100000000000000000000000000000000000000000000000000000000028152600401808273ffffffffffffffffffffffffffffffffffffffff1673ffffffffffffffffffffffffffffffffffffffff168152602001915050602060405180830381600087803b15801561186057600080fd5b505af1158015611874573d6000803e3d6000fd5b505050506040513d602081101561188a57600080fd5b81019080805190602001909291905050501415156118a457fe5b600190508360020160009054906101000a900473ffffffffffffffffffffffffffffffffffffffff1673ffffffffffffffffffffffffffffffffffffffff16632a7292d085601301548660030160009054906101000a900473ffffffffffffffffffffffffffffffffffffffff1687600601600060088110151561192457fe5b01546040518463ffffffff167c0100000000000000000000000000000000000000000000000000000000028152600401808481526020018373ffffffffffffffffffffffffffffffffffffffff1673ffffffffffffffffffffffffffffffffffffffff1681526020018281526020019350505050606060405180830381600087803b1580156119b257600080fd5b505af11580156119c6573d6000803e3d6000fd5b505050506040513d60608110156119dc57600080fd5b810190808051906020019092919080519060200190929190805190602001909291905050508660100160008860110160008497508591906101000a81548173ffffffffffffffffffffffffffffffffffffffff021916908373ffffffffffffffffffffffffffffffffffffffff1602179055508491906101000a81548173ffffffffffffffffffffffffffffffffffffffff021916908373ffffffffffffffffffffffffffffffffffffffff160217905550505050611aa88185601301546129d690919063ffffffff16565b84601201819055507f4bd82ea3087db5766e0b0ac766426889c709d48bfa239b6e5de07f5f57f561df8460040160009054906101000a900473ffffffffffffffffffffffffffffffffffffffff16856006016000600881101515611b0857fe5b0154866006016001600881101515611b1c57fe5b01548760130154604051808573ffffffffffffffffffffffffffffffffffffffff1673ffffffffffffffffffffffffffffffffffffffff16815260200184815260200183815260200182815260200194505050505060405180910390a160018460050160146101000a81548160ff02191690836002811115611b9a57fe5b021790555050505050565b6000806000808460000160009054906101000a900473ffffffffffffffffffffffffffffffffffffffff1692506201518042811515611be057fe5b064203915060009050846006016000600881101515611bfb57fe5b015482101515611e04575b62015180856006016000600881101515611c1c57fe5b01548303811515611c2957fe5b048111158015611c4c57506000856006016004600881101515611c4857fe5b0154145b15611e03578273ffffffffffffffffffffffffffffffffffffffff1663aeb2ffc1620151808302876006016000600881101515611c8557fe5b0154016040518263ffffffff167c010000000000000000000000000000000000000000000000000000000002815260040180828152602001915050602060405180830381600087803b158015611cda57600080fd5b505af1158015611cee573d6000803e3d6000fd5b505050506040513d6020811015611d0457600080fd5b810190808051906020019092919050505015611df6578273ffffffffffffffffffffffffffffffffffffffff16635bee29b7620151808302876006016000600881101515611d4e57fe5b0154016040518263ffffffff167c010000000000000000000000000000000000000000000000000000000002815260040180828152602001915050602060405180830381600087803b158015611da357600080fd5b505af1158015611db7573d6000803e3d6000fd5b505050506040513d6020811015611dcd57600080fd5b8101908080519060200190929190505050856006016004600881101515611df057fe5b01819055505b8080600101915050611c06565b5b60009050846006016001600881101515611e1a57fe5b015482101515612023575b62015180856006016001600881101515611e3b57fe5b01548303811515611e4857fe5b048111158015611e6b57506000856006016005600881101515611e6757fe5b0154145b15612022578273ffffffffffffffffffffffffffffffffffffffff1663aeb2ffc1620151808302876006016001600881101515611ea457fe5b0154016040518263ffffffff167c010000000000000000000000000000000000000000000000000000000002815260040180828152602001915050602060405180830381600087803b158015611ef957600080fd5b505af1158015611f0d573d6000803e3d6000fd5b505050506040513d6020811015611f2357600080fd5b810190808051906020019092919050505015612015578273ffffffffffffffffffffffffffffffffffffffff16635bee29b7620151808302876006016001600881101515611f6d57fe5b0154016040518263ffffffff167c010000000000000000000000000000000000000000000000000000000002815260040180828152602001915050602060405180830381600087803b158015611fc257600080fd5b505af1158015611fd6573d6000803e3d6000fd5b505050506040513d6020811015611fec57600080fd5b810190808051906020019092919050505085600601600560088110151561200f57fe5b01819055505b8080600101915050611e25565b5b600085600601600460088110151561203757fe5b01541415801561205b5750600085600601600560088110151561205657fe5b015414155b15612069576001935061206e565b600093505b505050919050565b60006120ba6127106120ac84600601600660088110151561209357fe5b01546127100385601301546129a390919063ffffffff16565b6129d690919063ffffffff16565b826013018190555060008260060160046008811015156120d657fe5b01541180156120f8575060008260060160056008811015156120f457fe5b0154115b1561214e5761214b82600601600460088110151561211257fe5b015461213d620186a085600601600560088110151561212d57fe5b01546129a390919063ffffffff16565b6129d690919063ffffffff16565b90505b620186a08111156121a057612199620186a061218b620186a0840385600601600260088110151561217b57fe5b01546129a390919063ffffffff16565b6122fc90919063ffffffff16565b9050612249565b620186a08110156121f1576121e2620186a06121dd83620186a0038560060160026008811015156121cd57fe5b01546129a390919063ffffffff16565b6129f1565b905080620186a0039050612248565b600082600601600560088110151561220557fe5b0154111561221a5764174876e8009050612247565b600082600601600460088110151561222e57fe5b0154111561223f5760009050612246565b620186a090505b5b5b5b61225662030d40826129f1565b905061229a620186a061228c846012015461227e8660130154866129a390919063ffffffff16565b6129d690919063ffffffff16565b6129d690919063ffffffff16565b82600e01819055506122f0620186a06122e284601201546122d486601301546122c662030d4088612a0a565b6129a390919063ffffffff16565b6129d690919063ffffffff16565b6129d690919063ffffffff16565b82600f01819055505050565b600080828401905083811015151561231057fe5b8091505092915050565b801561257b57600084600e01541115612576578360050160009054906101000a900473ffffffffffffffffffffffffffffffffffffffff1673ffffffffffffffffffffffffffffffffffffffff1663a9059cbb8461238587600e0154866129a390919063ffffffff16565b6040518363ffffffff167c0100000000000000000000000000000000000000000000000000000000028152600401808373ffffffffffffffffffffffffffffffffffffffff1673ffffffffffffffffffffffffffffffffffffffff16815260200182815260200192505050602060405180830381600087803b15801561240a57600080fd5b505af115801561241e573d6000803e3d6000fd5b505050506040513d602081101561243457600080fd5b8101908080519060200190929190505050508360020160009054906101000a900473ffffffffffffffffffffffffffffffffffffffff1673ffffffffffffffffffffffffffffffffffffffff1663ecb14519848660100160009054906101000a900473ffffffffffffffffffffffffffffffffffffffff166040518363ffffffff167c0100000000000000000000000000000000000000000000000000000000028152600401808373ffffffffffffffffffffffffffffffffffffffff1673ffffffffffffffffffffffffffffffffffffffff1681526020018273ffffffffffffffffffffffffffffffffffffffff1673ffffffffffffffffffffffffffffffffffffffff16815260200192505050600060405180830381600087803b15801561255d57600080fd5b505af1158015612571573d6000803e3d6000fd5b505050505b6127d2565b600084600f015411156127d1578360050160009054906101000a900473ffffffffffffffffffffffffffffffffffffffff1673ffffffffffffffffffffffffffffffffffffffff1663a9059cbb846125e087600f0154866129a390919063ffffffff16565b6040518363ffffffff167c0100000000000000000000000000000000000000000000000000000000028152600401808373ffffffffffffffffffffffffffffffffffffffff1673ffffffffffffffffffffffffffffffffffffffff16815260200182815260200192505050602060405180830381600087803b15801561266557600080fd5b505af1158015612679573d6000803e3d6000fd5b505050506040513d602081101561268f57600080fd5b8101908080519060200190929190505050508360020160009054906101000a900473ffffffffffffffffffffffffffffffffffffffff1673ffffffffffffffffffffffffffffffffffffffff1663ecb14519848660110160009054906101000a900473ffffffffffffffffffffffffffffffffffffffff166040518363ffffffff167c0100000000000000000000000000000000000000000000000000000000028152600401808373ffffffffffffffffffffffffffffffffffffffff1673ffffffffffffffffffffffffffffffffffffffff1681526020018273ffffffffffffffffffffffffffffffffffffffff1673ffffffffffffffffffffffffffffffffffffffff16815260200192505050600060405180830381600087803b1580156127b857600080fd5b505af11580156127cc573d6000803e3d6000fd5b505050505b5b50505050565b8060020160009054906101000a900473ffffffffffffffffffffffffffffffffffffffff1673ffffffffffffffffffffffffffffffffffffffff166394aef0226040518163ffffffff167c010000000000000000000000000000000000000000000000000000000002815260040160a060405180830381600087803b15801561286057600080fd5b505af1158015612874573d6000803e3d6000fd5b505050506040513d60a081101561288a57600080fd5b8101908080519060200190929190805190602001909291908051906020019092919080519060200190929190805190602001909291905050508560000160008760060160036008811015156128db57fe5b0160008960060160026008811015156128f057fe5b0160008b60040160008d600601600660088110151561290b57fe5b0160008a919050558991906101000a81548173ffffffffffffffffffffffffffffffffffffffff021916908373ffffffffffffffffffffffffffffffffffffffff160217905550889190505587919050558691906101000a81548173ffffffffffffffffffffffffffffffffffffffff021916908373ffffffffffffffffffffffffffffffffffffffff160217905550505050505050565b600080828402905060008414806129c457508284828115156129c157fe5b04145b15156129cc57fe5b8091505092915050565b60008082848115156129e457fe5b0490508091505092915050565b6000818310612a005781612a02565b825b905092915050565b6000828211151515612a1857fe5b818303905092915050565b60a060405190810160405280600590602082028038833980820191505090505090565b60c0604051908101604052806006906020820280388339808201915050905050905600a165627a7a7230582005a0ddcb053fd77178265fc1c4aa11a58046f8234cde5c86770f5ab31c2719ce0029",
  "source": "pragma solidity ^0.4.24;\r\n\r\nimport \"./TokenToTokenSwap.sol\";\r\nimport \"./CloneFactory.sol\";\r\n\r\n/**\r\n*Swap Deployer Contract - purpose is to save gas for deployment of Factory contract.\r\n*It ensures only the factory can create new contracts and uses CloneFactory to clone \r\n*the swap specified.\r\n*/\r\n\r\ncontract Deployer is CloneFactory {\r\n    /*Variables*/\r\n    address internal factory;\r\n    address public swap;\r\n    \r\n    /*Events*/\r\n    event Deployed(address indexed master, address indexed clone);\r\n\r\n    /*Functions*/\r\n    /**\r\n    *@dev Deploys the factory contract and swap address\r\n    *@param _factory is the address of the factory contract\r\n    */    \r\n    constructor(address _factory) public {\r\n        factory = _factory;\r\n        swap = new TokenToTokenSwap(address(this),msg.sender,address(this),now);\r\n    }\r\n\r\n    /**\r\n    *@dev Set swap address to clone\r\n    *@param _addr swap address to clone\r\n    */\r\n    function updateSwap(address _addr) public onlyOwner() {\r\n        swap = _addr;\r\n    }\r\n        \r\n    /**\r\n    *@notice The function creates a new contract\r\n    *@dev It ensures the new contract can only be created by the factory\r\n    *@param _party address of user creating the contract\r\n    *@param user_contract address of userContract.sol \r\n    *@param _start_date contract start date\r\n    *@return returns the address for the new contract\r\n    */\r\n    function newContract(address _party, address _user, uint _start) public returns (address) {\r\n        address new_swap = createClone(swap);\r\n        TokenToTokenSwap(new_swap).init(factory, _party, _user, _start);\r\n        emit Deployed(swap, new_swap);\r\n        return new_swap;\r\n    }\r\n\r\n    /**\r\n    *@dev Set variables if the owner is the factory contract\r\n    *@param _factory address\r\n    *@param _owner address\r\n    */\r\n    function setVars(address _factory, address _owner) public {\r\n        require (msg.sender == owner);\r\n        factory = _factory;\r\n        owner = _owner;\r\n    }\r\n}\r\n",
  "sourcePath": "C:\\company\\code\\drct_standard\\contracts\\Deployer.sol",
  "compiler": {
    "name": "solc",
    "version": "0.4.24+commit.e67f0147.Emscripten.clang"
  },
  "schemaVersion": "2.0.1",
  "updatedAt": "2018-11-07T01:51:07.576Z"
}