{
  "contractName": "Deployer",
  "abi": [
    {
      "constant": false,
      "inputs": [
        {
          "name": "_owner",
          "type": "address"
        }
      ],
      "name": "setOwner",
      "outputs": [],
      "payable": false,
      "stateMutability": "nonpayable",
      "type": "function"
    },
    {
      "constant": true,
      "inputs": [],
      "name": "swap",
      "outputs": [
        {
          "name": "",
          "type": "address"
        }
      ],
      "payable": false,
      "stateMutability": "view",
      "type": "function"
    },
    {
      "inputs": [
        {
          "name": "_factory",
          "type": "address"
        }
      ],
      "payable": false,
      "stateMutability": "nonpayable",
      "type": "constructor"
    },
    {
      "anonymous": false,
      "inputs": [
        {
          "indexed": true,
          "name": "master",
          "type": "address"
        },
        {
          "indexed": true,
          "name": "clone",
          "type": "address"
        }
      ],
      "name": "Deployed",
      "type": "event"
    },
    {
      "anonymous": false,
      "inputs": [
        {
          "indexed": true,
          "name": "target",
          "type": "address"
        },
        {
          "indexed": false,
          "name": "clone",
          "type": "address"
        }
      ],
      "name": "CloneCreated",
      "type": "event"
    },
    {
      "constant": false,
      "inputs": [
        {
          "name": "_addr",
          "type": "address"
        }
      ],
      "name": "updateSwap",
      "outputs": [],
      "payable": false,
      "stateMutability": "nonpayable",
      "type": "function"
    },
    {
      "constant": false,
      "inputs": [
        {
          "name": "_party",
          "type": "address"
        },
        {
          "name": "_user",
          "type": "address"
        },
        {
          "name": "_start",
          "type": "uint256"
        }
      ],
      "name": "newContract",
      "outputs": [
        {
          "name": "",
          "type": "address"
        }
      ],
      "payable": false,
      "stateMutability": "nonpayable",
      "type": "function"
    },
    {
      "constant": false,
      "inputs": [
        {
          "name": "_factory",
          "type": "address"
        },
        {
          "name": "_owner",
          "type": "address"
        }
      ],
      "name": "setVars",
      "outputs": [],
      "payable": false,
      "stateMutability": "nonpayable",
      "type": "function"
    }
  ],
  "bytecode": "0x608060405234801561001057600080fd5b506040516020806134c483398101806040528101908080519060200190929190505050336000806101000a81548173ffffffffffffffffffffffffffffffffffffffff021916908373ffffffffffffffffffffffffffffffffffffffff16021790555080600160006101000a81548173ffffffffffffffffffffffffffffffffffffffff021916908373ffffffffffffffffffffffffffffffffffffffff160217905550303330426100c06101c6565b808573ffffffffffffffffffffffffffffffffffffffff1673ffffffffffffffffffffffffffffffffffffffff1681526020018473ffffffffffffffffffffffffffffffffffffffff1673ffffffffffffffffffffffffffffffffffffffff1681526020018373ffffffffffffffffffffffffffffffffffffffff1673ffffffffffffffffffffffffffffffffffffffff168152602001828152602001945050505050604051809103906000f08015801561017f573d6000803e3d6000fd5b50600260006101000a81548173ffffffffffffffffffffffffffffffffffffffff021916908373ffffffffffffffffffffffffffffffffffffffff160217905550506101d6565b604051612af9806109cb83390190565b6107e6806101e56000396000f30060806040526004361061006d576000357c0100000000000000000000000000000000000000000000000000000000900463ffffffff16806313af403514610072578063548dd51e146100b55780638119c0651461016257806394e6fd60146101b9578063cea9f621146101fc575b600080fd5b34801561007e57600080fd5b506100b3600480360381019080803573ffffffffffffffffffffffffffffffffffffffff16906020019092919050505061025f565b005b3480156100c157600080fd5b50610120600480360381019080803573ffffffffffffffffffffffffffffffffffffffff169060200190929190803573ffffffffffffffffffffffffffffffffffffffff169060200190929190803590602001909291905050506102fd565b604051808273ffffffffffffffffffffffffffffffffffffffff1673ffffffffffffffffffffffffffffffffffffffff16815260200191505060405180910390f35b34801561016e57600080fd5b506101776104f9565b604051808273ffffffffffffffffffffffffffffffffffffffff1673ffffffffffffffffffffffffffffffffffffffff16815260200191505060405180910390f35b3480156101c557600080fd5b506101fa600480360381019080803573ffffffffffffffffffffffffffffffffffffffff16906020019092919050505061051f565b005b34801561020857600080fd5b5061025d600480360381019080803573ffffffffffffffffffffffffffffffffffffffff169060200190929190803573ffffffffffffffffffffffffffffffffffffffff1690602001909291905050506105be565b005b6000809054906101000a900473ffffffffffffffffffffffffffffffffffffffff1673ffffffffffffffffffffffffffffffffffffffff163373ffffffffffffffffffffffffffffffffffffffff161415156102ba57600080fd5b806000806101000a81548173ffffffffffffffffffffffffffffffffffffffff021916908373ffffffffffffffffffffffffffffffffffffffff16021790555050565b60008061032b600260009054906101000a900473ffffffffffffffffffffffffffffffffffffffff1661069e565b90508073ffffffffffffffffffffffffffffffffffffffff166346639dba600160009054906101000a900473ffffffffffffffffffffffffffffffffffffffff168787876040518563ffffffff167c0100000000000000000000000000000000000000000000000000000000028152600401808573ffffffffffffffffffffffffffffffffffffffff1673ffffffffffffffffffffffffffffffffffffffff1681526020018473ffffffffffffffffffffffffffffffffffffffff1673ffffffffffffffffffffffffffffffffffffffff1681526020018373ffffffffffffffffffffffffffffffffffffffff1673ffffffffffffffffffffffffffffffffffffffff168152602001828152602001945050505050600060405180830381600087803b15801561045a57600080fd5b505af115801561046e573d6000803e3d6000fd5b505050508073ffffffffffffffffffffffffffffffffffffffff16600260009054906101000a900473ffffffffffffffffffffffffffffffffffffffff1673ffffffffffffffffffffffffffffffffffffffff167f09e48df7857bd0c1e0d31bb8a85d42cf1874817895f171c917f6ee2cea73ec2060405160405180910390a3809150509392505050565b600260009054906101000a900473ffffffffffffffffffffffffffffffffffffffff1681565b6000809054906101000a900473ffffffffffffffffffffffffffffffffffffffff1673ffffffffffffffffffffffffffffffffffffffff163373ffffffffffffffffffffffffffffffffffffffff1614151561057a57600080fd5b80600260006101000a81548173ffffffffffffffffffffffffffffffffffffffff021916908373ffffffffffffffffffffffffffffffffffffffff16021790555050565b6000809054906101000a900473ffffffffffffffffffffffffffffffffffffffff1673ffffffffffffffffffffffffffffffffffffffff163373ffffffffffffffffffffffffffffffffffffffff1614151561061957600080fd5b81600160006101000a81548173ffffffffffffffffffffffffffffffffffffffff021916908373ffffffffffffffffffffffffffffffffffffffff160217905550806000806101000a81548173ffffffffffffffffffffffffffffffffffffffff021916908373ffffffffffffffffffffffffffffffffffffffff1602179055505050565b60006060600080606060405190810160405280603f81526020017f600034603b57603080600f833981f36000368180378080368173bebebebebebe81526020017fbebebebebebebebebebebebebebe5af43d82803e15602c573d90f35b3d90fd008152509250846c01000000000000000000000000029150600090505b60148110156107a357818160148110151561073257fe5b1a7f0100000000000000000000000000000000000000000000000000000000000000028382601a0181518110151561076657fe5b9060200101907effffffffffffffffffffffffffffffffffffffffffffffffffffffffffffff1916908160001a905350808060010191505061071b565b82516020840181816000f0955050505050509190505600a165627a7a7230582036c76c393d78084d9435c13c03e60a141db67274e47c5fe91aefd4fcf9724d26002960806040523480156200001157600080fd5b5060405160808062002af9833981018060405281019080805190602001909291908051906020019092919080519060200190929190805190602001909291905050506200007d8484848460006200008764010000000002620006be179094939291906401000000009004565b50505050620001f7565b600073ffffffffffffffffffffffffffffffffffffffff168560030160009054906101000a900473ffffffffffffffffffffffffffffffffffffffff1673ffffffffffffffffffffffffffffffffffffffff16141515620000e757600080fd5b828560030160006101000a81548173ffffffffffffffffffffffffffffffffffffffff021916908373ffffffffffffffffffffffffffffffffffffffff160217905550838560010160006101000a81548173ffffffffffffffffffffffffffffffffffffffff021916908373ffffffffffffffffffffffffffffffffffffffff160217905550818560130160006101000a81548173ffffffffffffffffffffffffffffffffffffffff021916908373ffffffffffffffffffffffffffffffffffffffff16021790555080856006016000600781101515620001c457fe5b018190555060008560050160146101000a81548160ff02191690836002811115620001eb57fe5b02179055505050505050565b6128f280620002076000396000f300608060405260043610610078576000357c0100000000000000000000000000000000000000000000000000000000900463ffffffff1680630c3f6acf1461007d57806346639dba146100a857806370f9c0211461013557806379eba0b6146101845780637a3d4b1a146101fa5780638119c06514610247575b600080fd5b34801561008957600080fd5b50610092610467565b6040518082815260200191505060405180910390f35b3480156100b457600080fd5b50610133600480360381019080803573ffffffffffffffffffffffffffffffffffffffff169060200190929190803573ffffffffffffffffffffffffffffffffffffffff169060200190929190803573ffffffffffffffffffffffffffffffffffffffff16906020019092919080359060200190929190505050610478565b005b34801561014157600080fd5b5061016a6004803603810190808035906020019092919080359060200190929190505050610498565b604051808215151515815260200191505060405180910390f35b34801561019057600080fd5b506101996104c9565b6040518087600560200280838360005b838110156101c45780820151818401526020810190506101a9565b50505050905001868152602001858152602001848152602001838152602001828152602001965050505050505060405180910390f35b34801561020657600080fd5b5061024560048036038101908080359060200190929190803573ffffffffffffffffffffffffffffffffffffffff1690602001909291905050506104f7565b005b34801561025357600080fd5b5061025c610511565b604051808f73ffffffffffffffffffffffffffffffffffffffff1673ffffffffffffffffffffffffffffffffffffffff1681526020018e73ffffffffffffffffffffffffffffffffffffffff1673ffffffffffffffffffffffffffffffffffffffff1681526020018d73ffffffffffffffffffffffffffffffffffffffff1673ffffffffffffffffffffffffffffffffffffffff1681526020018c73ffffffffffffffffffffffffffffffffffffffff1673ffffffffffffffffffffffffffffffffffffffff1681526020018b73ffffffffffffffffffffffffffffffffffffffff1673ffffffffffffffffffffffffffffffffffffffff1681526020018a73ffffffffffffffffffffffffffffffffffffffff1673ffffffffffffffffffffffffffffffffffffffff16815260200189600281111561039857fe5b60ff1681526020018881526020018781526020018673ffffffffffffffffffffffffffffffffffffffff1673ffffffffffffffffffffffffffffffffffffffff1681526020018573ffffffffffffffffffffffffffffffffffffffff1673ffffffffffffffffffffffffffffffffffffffff1681526020018481526020018381526020018273ffffffffffffffffffffffffffffffffffffffff1673ffffffffffffffffffffffffffffffffffffffff1681526020019e50505050505050505050505050505060405180910390f35b60006104736000610698565b905090565b6104928484848460006106be90949392919063ffffffff16565b50505050565b60006104c2604080519081016040528085815260200184815250600061082b90919063ffffffff16565b5092915050565b6104d16128a3565b60008060008060006104e3600061101b565b955095509550955095509550909192939495565b61050d8282600061124d9092919063ffffffff16565b5050565b60008060000160009054906101000a900473ffffffffffffffffffffffffffffffffffffffff16908060010160009054906101000a900473ffffffffffffffffffffffffffffffffffffffff16908060020160009054906101000a900473ffffffffffffffffffffffffffffffffffffffff16908060030160009054906101000a900473ffffffffffffffffffffffffffffffffffffffff16908060040160009054906101000a900473ffffffffffffffffffffffffffffffffffffffff16908060050160009054906101000a900473ffffffffffffffffffffffffffffffffffffffff16908060050160149054906101000a900460ff169080600d01549080600e01549080600f0160009054906101000a900473ffffffffffffffffffffffffffffffffffffffff16908060100160009054906101000a900473ffffffffffffffffffffffffffffffffffffffff16908060110154908060120154908060130160009054906101000a900473ffffffffffffffffffffffffffffffffffffffff1690508e565b60008160050160149054906101000a900460ff1660028111156106b757fe5b9050919050565b600073ffffffffffffffffffffffffffffffffffffffff168560030160009054906101000a900473ffffffffffffffffffffffffffffffffffffffff1673ffffffffffffffffffffffffffffffffffffffff1614151561071d57600080fd5b828560030160006101000a81548173ffffffffffffffffffffffffffffffffffffffff021916908373ffffffffffffffffffffffffffffffffffffffff160217905550838560010160006101000a81548173ffffffffffffffffffffffffffffffffffffffff021916908373ffffffffffffffffffffffffffffffffffffffff160217905550818560130160006101000a81548173ffffffffffffffffffffffffffffffffffffffff021916908373ffffffffffffffffffffffffffffffffffffffff160217905550808560060160006007811015156107f957fe5b018190555060008560050160146101000a81548160ff0219169083600281111561081f57fe5b02179055505050505050565b60008060008060008060008060008060006001600281111561084957fe5b8d60050160149054906101000a900460ff16600281111561086657fe5b14801561088657508c600601600160078110151561088057fe5b01544210155b151561089157600080fd5b61089a8d611940565b99508915611008576108ab8d611f1b565b8c600f0160009054906101000a900473ffffffffffffffffffffffffffffffffffffffff1698508873ffffffffffffffffffffffffffffffffffffffff16638811a0ae306040518263ffffffff167c0100000000000000000000000000000000000000000000000000000000028152600401808273ffffffffffffffffffffffffffffffffffffffff1673ffffffffffffffffffffffffffffffffffffffff168152602001915050602060405180830381600087803b15801561096d57600080fd5b505af1158015610981573d6000803e3d6000fd5b505050506040513d602081101561099757600080fd5b810190808051906020019092919050505097508b60016002811015156109b957fe5b602002015188106109dd578b60016002811015156109d357fe5b60200201516109df565b875b96506001870395505b8b60006002811015156109f757fe5b602002015186101515610b0e578873ffffffffffffffffffffffffffffffffffffffff1663174dcea887306040518363ffffffff167c0100000000000000000000000000000000000000000000000000000000028152600401808381526020018273ffffffffffffffffffffffffffffffffffffffff1673ffffffffffffffffffffffffffffffffffffffff168152602001925050506040805180830381600087803b158015610aa657600080fd5b505af1158015610aba573d6000803e3d6000fd5b505050506040513d6040811015610ad057600080fd5b8101908080519060200190929190805190602001909291905050508096508195505050610b008d868660016121a1565b8580600190039650506109e8565b8c60100160009054906101000a900473ffffffffffffffffffffffffffffffffffffffff1698508873ffffffffffffffffffffffffffffffffffffffff16638811a0ae306040518263ffffffff167c0100000000000000000000000000000000000000000000000000000000028152600401808273ffffffffffffffffffffffffffffffffffffffff1673ffffffffffffffffffffffffffffffffffffffff168152602001915050602060405180830381600087803b158015610bd057600080fd5b505af1158015610be4573d6000803e3d6000fd5b505050506040513d6020811015610bfa57600080fd5b810190808051906020019092919050505097508b6001600281101515610c1c57fe5b60200201518810610c40578b6001600281101515610c3657fe5b6020020151610c42565b875b96506001870392505b8b6000600281101515610c5a57fe5b602002015183101515610d71578873ffffffffffffffffffffffffffffffffffffffff1663174dcea884306040518363ffffffff167c0100000000000000000000000000000000000000000000000000000000028152600401808381526020018273ffffffffffffffffffffffffffffffffffffffff1673ffffffffffffffffffffffffffffffffffffffff168152602001925050506040805180830381600087803b158015610d0957600080fd5b505af1158015610d1d573d6000803e3d6000fd5b505050506040513d6040811015610d3357600080fd5b8101908080519060200190929190805190602001909291905050508093508192505050610d638d838360006121a1565b828060019003935050610c4b565b87871415611007578c60050160009054906101000a900473ffffffffffffffffffffffffffffffffffffffff1673ffffffffffffffffffffffffffffffffffffffff1663a9059cbb8e60010160009054906101000a900473ffffffffffffffffffffffffffffffffffffffff168f60050160009054906101000a900473ffffffffffffffffffffffffffffffffffffffff1673ffffffffffffffffffffffffffffffffffffffff166370a08231306040518263ffffffff167c0100000000000000000000000000000000000000000000000000000000028152600401808273ffffffffffffffffffffffffffffffffffffffff1673ffffffffffffffffffffffffffffffffffffffff168152602001915050602060405180830381600087803b158015610e9d57600080fd5b505af1158015610eb1573d6000803e3d6000fd5b505050506040513d6020811015610ec757600080fd5b81019080805190602001909291905050506040518363ffffffff167c0100000000000000000000000000000000000000000000000000000000028152600401808373ffffffffffffffffffffffffffffffffffffffff1673ffffffffffffffffffffffffffffffffffffffff16815260200182815260200192505050602060405180830381600087803b158015610f5d57600080fd5b505af1158015610f71573d6000803e3d6000fd5b505050506040513d6020811015610f8757600080fd5b8101908080519060200190929190505050507fbc6c94b90850c7cd9f35740bb9b9cbce0e00c88e8ddeaace095f1d45bfd740108d600d01548e600e0154604051808381526020018281526020019250505060405180910390a160028d60050160146101000a81548160ff0219169083600281111561100157fe5b02179055505b5b899a505050505050505050505092915050565b6110236128a3565b600080600080600060a0604051908101604052808860130160009054906101000a900473ffffffffffffffffffffffffffffffffffffffff1673ffffffffffffffffffffffffffffffffffffffff1673ffffffffffffffffffffffffffffffffffffffff16815260200188600f0160009054906101000a900473ffffffffffffffffffffffffffffffffffffffff1673ffffffffffffffffffffffffffffffffffffffff1673ffffffffffffffffffffffffffffffffffffffff1681526020018860100160009054906101000a900473ffffffffffffffffffffffffffffffffffffffff1673ffffffffffffffffffffffffffffffffffffffff1673ffffffffffffffffffffffffffffffffffffffff1681526020018860000160009054906101000a900473ffffffffffffffffffffffffffffffffffffffff1673ffffffffffffffffffffffffffffffffffffffff1673ffffffffffffffffffffffffffffffffffffffff1681526020018860040160009054906101000a900473ffffffffffffffffffffffffffffffffffffffff1673ffffffffffffffffffffffffffffffffffffffff1673ffffffffffffffffffffffffffffffffffffffff1681525087601101548860060160026007811015156111fa57fe5b015489600601600360078110151561120e57fe5b01548a600601600060078110151561122257fe5b01548b600601600160078110151561123657fe5b015495509550955095509550955091939550919395565b600080600281111561125b57fe5b8460050160149054906101000a900460ff16600281111561127857fe5b1480156112d457508360030160009054906101000a900473ffffffffffffffffffffffffffffffffffffffff1673ffffffffffffffffffffffffffffffffffffffff163373ffffffffffffffffffffffffffffffffffffffff16145b80156112e05750600083115b806113a157508360130160009054906101000a900473ffffffffffffffffffffffffffffffffffffffff1673ffffffffffffffffffffffffffffffffffffffff163373ffffffffffffffffffffffffffffffffffffffff1614801561139457508360030160009054906101000a900473ffffffffffffffffffffffffffffffffffffffff1673ffffffffffffffffffffffffffffffffffffffff168273ffffffffffffffffffffffffffffffffffffffff16145b80156113a05750600083115b5b15156113ac57600080fd5b8360010160009054906101000a900473ffffffffffffffffffffffffffffffffffffffff168460020160006101000a81548173ffffffffffffffffffffffffffffffffffffffff021916908373ffffffffffffffffffffffffffffffffffffffff16021790555061141c8461265f565b61146a6114486201518086600601600360078110151561143857fe5b015461280590919063ffffffff16565b85600601600060078110151561145a57fe5b015461283890919063ffffffff16565b84600601600160078110151561147c57fe5b01819055506224ea0084600601600060078110151561149757fe5b01548560060160016007811015156114ab57fe5b0154031015156114b757fe5b8284601201819055508360040160009054906101000a900473ffffffffffffffffffffffffffffffffffffffff168460050160006101000a81548173ffffffffffffffffffffffffffffffffffffffff021916908373ffffffffffffffffffffffffffffffffffffffff160217905550611532836002612805565b8460050160009054906101000a900473ffffffffffffffffffffffffffffffffffffffff1673ffffffffffffffffffffffffffffffffffffffff166370a08231306040518263ffffffff167c0100000000000000000000000000000000000000000000000000000000028152600401808273ffffffffffffffffffffffffffffffffffffffff1673ffffffffffffffffffffffffffffffffffffffff168152602001915050602060405180830381600087803b1580156115f157600080fd5b505af1158015611605573d6000803e3d6000fd5b505050506040513d602081101561161b57600080fd5b810190808051906020019092919050505014151561163557fe5b600190508360020160009054906101000a900473ffffffffffffffffffffffffffffffffffffffff1673ffffffffffffffffffffffffffffffffffffffff16632a7292d085601201548660030160009054906101000a900473ffffffffffffffffffffffffffffffffffffffff168760060160006007811015156116b557fe5b01546040518463ffffffff167c0100000000000000000000000000000000000000000000000000000000028152600401808481526020018373ffffffffffffffffffffffffffffffffffffffff1673ffffffffffffffffffffffffffffffffffffffff1681526020018281526020019350505050606060405180830381600087803b15801561174357600080fd5b505af1158015611757573d6000803e3d6000fd5b505050506040513d606081101561176d57600080fd5b8101908080519060200190929190805190602001909291908051906020019092919050505086600f0160008860100160008497508591906101000a81548173ffffffffffffffffffffffffffffffffffffffff021916908373ffffffffffffffffffffffffffffffffffffffff1602179055508491906101000a81548173ffffffffffffffffffffffffffffffffffffffff021916908373ffffffffffffffffffffffffffffffffffffffff16021790555050505061183981856012015461285690919063ffffffff16565b846011018190555061184a84611940565b507f4bd82ea3087db5766e0b0ac766426889c709d48bfa239b6e5de07f5f57f561df8460040160009054906101000a900473ffffffffffffffffffffffffffffffffffffffff168560060160006007811015156118a357fe5b01548660060160016007811015156118b757fe5b01548760120154604051808573ffffffffffffffffffffffffffffffffffffffff1673ffffffffffffffffffffffffffffffffffffffff16815260200184815260200183815260200182815260200194505050505060405180910390a160018460050160146101000a81548160ff0219169083600281111561193557fe5b021790555050505050565b6000806000808460000160009054906101000a900473ffffffffffffffffffffffffffffffffffffffff169250620151804281151561197b57fe5b064203915084600601600060078110151561199257fe5b015482101580156119b6575060008560060160046007811015156119b257fe5b0154145b15611c4757600090505b620151808560060160006007811015156119d657fe5b015483038115156119e357fe5b04811015611ba5578273ffffffffffffffffffffffffffffffffffffffff1663aeb2ffc1620151808302876006016000600781101515611a1f57fe5b0154016040518263ffffffff167c010000000000000000000000000000000000000000000000000000000002815260040180828152602001915050602060405180830381600087803b158015611a7457600080fd5b505af1158015611a88573d6000803e3d6000fd5b505050506040513d6020811015611a9e57600080fd5b810190808051906020019092919050505015611b98578273ffffffffffffffffffffffffffffffffffffffff16635bee29b7620151808302876006016000600781101515611ae857fe5b0154016040518263ffffffff167c010000000000000000000000000000000000000000000000000000000002815260040180828152602001915050602060405180830381600087803b158015611b3d57600080fd5b505af1158015611b51573d6000803e3d6000fd5b505050506040513d6020811015611b6757600080fd5b8101908080519060200190929190505050856006016004600781101515611b8a57fe5b018190555060019350611f13565b80806001019150506119c0565b6000856006016004600781101515611bb957fe5b01541415611c46578273ffffffffffffffffffffffffffffffffffffffff1663c692c0496040518163ffffffff167c0100000000000000000000000000000000000000000000000000000000028152600401600060405180830381600087803b158015611c2557600080fd5b505af1158015611c39573d6000803e3d6000fd5b5050505060009350611f13565b5b846006016001600781101515611c5957fe5b01548210158015611c7d57506000856006016005600781101515611c7957fe5b0154145b15611f0e57600090505b62015180856006016001600781101515611c9d57fe5b01548303811515611caa57fe5b04811015611e6c578273ffffffffffffffffffffffffffffffffffffffff1663aeb2ffc1620151808302876006016001600781101515611ce657fe5b0154016040518263ffffffff167c010000000000000000000000000000000000000000000000000000000002815260040180828152602001915050602060405180830381600087803b158015611d3b57600080fd5b505af1158015611d4f573d6000803e3d6000fd5b505050506040513d6020811015611d6557600080fd5b810190808051906020019092919050505015611e5f578273ffffffffffffffffffffffffffffffffffffffff16635bee29b7620151808302876006016001600781101515611daf57fe5b0154016040518263ffffffff167c010000000000000000000000000000000000000000000000000000000002815260040180828152602001915050602060405180830381600087803b158015611e0457600080fd5b505af1158015611e18573d6000803e3d6000fd5b505050506040513d6020811015611e2e57600080fd5b8101908080519060200190929190505050856006016005600781101515611e5157fe5b018190555060019350611f13565b8080600101915050611c87565b6000856006016005600781101515611e8057fe5b01541415611f0d578273ffffffffffffffffffffffffffffffffffffffff1663c692c0496040518163ffffffff167c0100000000000000000000000000000000000000000000000000000000028152600401600060405180830381600087803b158015611eec57600080fd5b505af1158015611f00573d6000803e3d6000fd5b5050505060009350611f13565b5b600193505b505050919050565b6000611f5f612710611f51846006016006600781101515611f3857fe5b015461271003856012015461280590919063ffffffff16565b61285690919063ffffffff16565b82601201819055506000826006016004600781101515611f7b57fe5b0154118015611f9d57506000826006016005600781101515611f9957fe5b0154115b15611ff357611ff0826006016004600781101515611fb757fe5b0154611fe2620186a0856006016005600781101515611fd257fe5b015461280590919063ffffffff16565b61285690919063ffffffff16565b90505b620186a08111156120455761203e620186a0612030620186a0840385600601600260078110151561202057fe5b015461280590919063ffffffff16565b61283890919063ffffffff16565b90506120ee565b620186a081101561209657612087620186a061208283620186a00385600601600260078110151561207257fe5b015461280590919063ffffffff16565b612871565b905080620186a00390506120ed565b60008260060160056007811015156120aa57fe5b015411156120bf5764174876e80090506120ec565b60008260060160046007811015156120d357fe5b015411156120e457600090506120eb565b620186a090505b5b5b5b6120fb62030d4082612871565b905061213f620186a0612131846011015461212386601201548661280590919063ffffffff16565b61285690919063ffffffff16565b61285690919063ffffffff16565b82600d0181905550612195620186a06121878460110154612179866012015461216b62030d408861288a565b61280590919063ffffffff16565b61285690919063ffffffff16565b61285690919063ffffffff16565b82600e01819055505050565b801561240257600084600d015411156123fd578360050160009054906101000a900473ffffffffffffffffffffffffffffffffffffffff1673ffffffffffffffffffffffffffffffffffffffff1663a9059cbb8461220c87600d01548661280590919063ffffffff16565b6040518363ffffffff167c0100000000000000000000000000000000000000000000000000000000028152600401808373ffffffffffffffffffffffffffffffffffffffff1673ffffffffffffffffffffffffffffffffffffffff16815260200182815260200192505050602060405180830381600087803b15801561229157600080fd5b505af11580156122a5573d6000803e3d6000fd5b505050506040513d60208110156122bb57600080fd5b8101908080519060200190929190505050508360020160009054906101000a900473ffffffffffffffffffffffffffffffffffffffff1673ffffffffffffffffffffffffffffffffffffffff1663ecb145198486600f0160009054906101000a900473ffffffffffffffffffffffffffffffffffffffff166040518363ffffffff167c0100000000000000000000000000000000000000000000000000000000028152600401808373ffffffffffffffffffffffffffffffffffffffff1673ffffffffffffffffffffffffffffffffffffffff1681526020018273ffffffffffffffffffffffffffffffffffffffff1673ffffffffffffffffffffffffffffffffffffffff16815260200192505050600060405180830381600087803b1580156123e457600080fd5b505af11580156123f8573d6000803e3d6000fd5b505050505b612659565b600084600e01541115612658578360050160009054906101000a900473ffffffffffffffffffffffffffffffffffffffff1673ffffffffffffffffffffffffffffffffffffffff1663a9059cbb8461246787600e01548661280590919063ffffffff16565b6040518363ffffffff167c0100000000000000000000000000000000000000000000000000000000028152600401808373ffffffffffffffffffffffffffffffffffffffff1673ffffffffffffffffffffffffffffffffffffffff16815260200182815260200192505050602060405180830381600087803b1580156124ec57600080fd5b505af1158015612500573d6000803e3d6000fd5b505050506040513d602081101561251657600080fd5b8101908080519060200190929190505050508360020160009054906101000a900473ffffffffffffffffffffffffffffffffffffffff1673ffffffffffffffffffffffffffffffffffffffff1663ecb14519848660100160009054906101000a900473ffffffffffffffffffffffffffffffffffffffff166040518363ffffffff167c0100000000000000000000000000000000000000000000000000000000028152600401808373ffffffffffffffffffffffffffffffffffffffff1673ffffffffffffffffffffffffffffffffffffffff1681526020018273ffffffffffffffffffffffffffffffffffffffff1673ffffffffffffffffffffffffffffffffffffffff16815260200192505050600060405180830381600087803b15801561263f57600080fd5b505af1158015612653573d6000803e3d6000fd5b505050505b5b50505050565b8060020160009054906101000a900473ffffffffffffffffffffffffffffffffffffffff1673ffffffffffffffffffffffffffffffffffffffff166394aef0226040518163ffffffff167c0100000000000000000000000000000000000000000000000000000000028152600401608060405180830381600087803b1580156126e757600080fd5b505af11580156126fb573d6000803e3d6000fd5b505050506040513d608081101561271157600080fd5b810190808051906020019092919080519060200190929190805190602001909291908051906020019092919050505084600001600086600601600360078110151561275857fe5b01600088600601600260078110151561276d57fe5b0160008a60040160008891906101000a81548173ffffffffffffffffffffffffffffffffffffffff021916908373ffffffffffffffffffffffffffffffffffffffff160217905550879190505586919050558591906101000a81548173ffffffffffffffffffffffffffffffffffffffff021916908373ffffffffffffffffffffffffffffffffffffffff1602179055505050505050565b60008082840290506000841480612826575082848281151561282357fe5b04145b151561282e57fe5b8091505092915050565b600080828401905083811015151561284c57fe5b8091505092915050565b600080828481151561286457fe5b0490508091505092915050565b60008183106128805781612882565b825b905092915050565b600082821115151561289857fe5b818303905092915050565b60a0604051908101604052806005906020820280388339808201915050905050905600a165627a7a72305820fe138ce522a2834494ba17574d1528aa7a38f1d1c54bbce2329c16d4fcf7c36b0029",
  "source": "pragma solidity ^0.4.23;\r\n\r\nimport \"./TokenToTokenSwap.sol\";\r\nimport \"./CloneFactory.sol\";\r\n\r\n/**Swap Deployer Contract - purpose is to save gas for deployment of Factory contract.\r\n*It also ensures only the factory can create new contracts.\r\n*/\r\n\r\ncontract Deployer is CloneFactory {\r\n    /*Variables*/\r\n    address internal factory;\r\n    address public swap;\r\n    \r\n    /*Events*/\r\n    event Deployed(address indexed master, address indexed clone);\r\n\r\n    /*Functions*/\r\n    /**\r\n     *@dev Deploys the factory contract and swap address\r\n     *@param _factory is the address of the factory contract\r\n    */    \r\n    constructor(address _factory) public {\r\n        factory = _factory;\r\n        swap = new TokenToTokenSwap(address(this),msg.sender,address(this),now);\r\n    }\r\n\r\n    function updateSwap(address _addr) public onlyOwner() {\r\n        swap = _addr;\r\n    }\r\n        \r\n    /**\r\n    *@notice The function creates a new contract\r\n    *@dev It ensures the new contract can only be created by the factory\r\n    *@param _party address of user creating the contract\r\n    *@param user_contract address of userContract.sol \r\n    *@param _start_date contract start date\r\n    *@return returns the address for the new contract\r\n    */\r\n    function newContract(address _party, address _user, uint _start) public returns (address) {\r\n        address new_swap = createClone(swap);\r\n        TokenToTokenSwap(new_swap).init(factory, _party, _user, _start);\r\n        emit Deployed(swap, new_swap);\r\n        return new_swap;\r\n    }\r\n\r\n    /**\r\n     *@dev Set variables if the owner is the factory contract\r\n     *@param _factory address\r\n     *@param _owner address\r\n    */\r\n    function setVars(address _factory, address _owner) public {\r\n        require (msg.sender == owner);\r\n        factory = _factory;\r\n        owner = _owner;\r\n    }\r\n}\r\n",
  "sourcePath": "C:\\company\\code\\drct_standard\\contracts\\Deployer.sol",
  "compiler": {
    "name": "solc",
    "version": "0.4.24+commit.e67f0147.Emscripten.clang"
  },
  "schemaVersion": "2.0.0",
  "updatedAt": "2018-06-06T00:25:54.486Z"
}