{
  "contractName": "DRCT_Token",
  "abi": [
    {
      "constant": true,
      "inputs": [],
      "name": "name",
      "outputs": [
        {
          "name": "",
          "type": "string"
        }
      ],
      "payable": false,
      "stateMutability": "view",
      "type": "function"
    },
    {
      "constant": true,
      "inputs": [],
      "name": "symbol",
      "outputs": [
        {
          "name": "",
          "type": "string"
        }
      ],
      "payable": false,
      "stateMutability": "view",
      "type": "function"
    },
    {
      "constant": true,
      "inputs": [],
      "name": "drct",
      "outputs": [
        {
          "name": "factory_contract",
          "type": "address"
        },
        {
          "name": "total_supply",
          "type": "uint256"
        }
      ],
      "payable": false,
      "stateMutability": "view",
      "type": "function"
    },
    {
      "inputs": [],
      "payable": false,
      "stateMutability": "nonpayable",
      "type": "constructor"
    },
    {
      "constant": false,
      "inputs": [
        {
          "name": "_supply",
          "type": "uint256"
        },
        {
          "name": "_owner",
          "type": "address"
        },
        {
          "name": "_swap",
          "type": "address"
        }
      ],
      "name": "createToken",
      "outputs": [],
      "payable": false,
      "stateMutability": "nonpayable",
      "type": "function"
    },
    {
      "constant": true,
      "inputs": [],
      "name": "getFactoryAddress",
      "outputs": [
        {
          "name": "",
          "type": "address"
        }
      ],
      "payable": false,
      "stateMutability": "view",
      "type": "function"
    },
    {
      "constant": false,
      "inputs": [
        {
          "name": "_party",
          "type": "address"
        },
        {
          "name": "_swap",
          "type": "address"
        }
      ],
      "name": "pay",
      "outputs": [],
      "payable": false,
      "stateMutability": "nonpayable",
      "type": "function"
    },
    {
      "constant": true,
      "inputs": [
        {
          "name": "_owner",
          "type": "address"
        }
      ],
      "name": "balanceOf",
      "outputs": [
        {
          "name": "balance",
          "type": "uint256"
        }
      ],
      "payable": false,
      "stateMutability": "view",
      "type": "function"
    },
    {
      "constant": true,
      "inputs": [],
      "name": "totalSupply",
      "outputs": [
        {
          "name": "_total_supply",
          "type": "uint256"
        }
      ],
      "payable": false,
      "stateMutability": "view",
      "type": "function"
    },
    {
      "constant": false,
      "inputs": [
        {
          "name": "_to",
          "type": "address"
        },
        {
          "name": "_amount",
          "type": "uint256"
        }
      ],
      "name": "transfer",
      "outputs": [
        {
          "name": "",
          "type": "bool"
        }
      ],
      "payable": false,
      "stateMutability": "nonpayable",
      "type": "function"
    },
    {
      "constant": false,
      "inputs": [
        {
          "name": "_from",
          "type": "address"
        },
        {
          "name": "_to",
          "type": "address"
        },
        {
          "name": "_amount",
          "type": "uint256"
        }
      ],
      "name": "transferFrom",
      "outputs": [
        {
          "name": "",
          "type": "bool"
        }
      ],
      "payable": false,
      "stateMutability": "nonpayable",
      "type": "function"
    },
    {
      "constant": false,
      "inputs": [
        {
          "name": "_spender",
          "type": "address"
        },
        {
          "name": "_amount",
          "type": "uint256"
        }
      ],
      "name": "approve",
      "outputs": [
        {
          "name": "",
          "type": "bool"
        }
      ],
      "payable": false,
      "stateMutability": "nonpayable",
      "type": "function"
    },
    {
      "constant": true,
      "inputs": [
        {
          "name": "_swap",
          "type": "address"
        }
      ],
      "name": "addressCount",
      "outputs": [
        {
          "name": "",
          "type": "uint256"
        }
      ],
      "payable": false,
      "stateMutability": "view",
      "type": "function"
    },
    {
      "constant": true,
      "inputs": [
        {
          "name": "_ind",
          "type": "uint256"
        },
        {
          "name": "_swap",
          "type": "address"
        }
      ],
      "name": "getBalanceAndHolderByIndex",
      "outputs": [
        {
          "name": "",
          "type": "uint256"
        },
        {
          "name": "",
          "type": "address"
        }
      ],
      "payable": false,
      "stateMutability": "view",
      "type": "function"
    },
    {
      "constant": true,
      "inputs": [
        {
          "name": "_owner",
          "type": "address"
        },
        {
          "name": "_swap",
          "type": "address"
        }
      ],
      "name": "getIndexByAddress",
      "outputs": [
        {
          "name": "",
          "type": "uint256"
        }
      ],
      "payable": false,
      "stateMutability": "view",
      "type": "function"
    },
    {
      "constant": true,
      "inputs": [
        {
          "name": "_owner",
          "type": "address"
        },
        {
          "name": "_spender",
          "type": "address"
        }
      ],
      "name": "allowance",
      "outputs": [
        {
          "name": "",
          "type": "uint256"
        }
      ],
      "payable": false,
      "stateMutability": "view",
      "type": "function"
    }
  ],
  "bytecode": "0x608060405234801561001057600080fd5b50600073__DRCTLibrary___________________________63ad4848d29091336040518363ffffffff167c0100000000000000000000000000000000000000000000000000000000028152600401808381526020018273ffffffffffffffffffffffffffffffffffffffff1673ffffffffffffffffffffffffffffffffffffffff1681526020019250505060006040518083038186803b1580156100b357600080fd5b505af41580156100c7573d6000803e3d6000fd5b50505050611343806100da6000396000f3006080604052600436106100db576000357c0100000000000000000000000000000000000000000000000000000000900463ffffffff16806306fdde03146100e0578063095ea7b314610170578063174dcea8146101d557806318160ddd1461026957806323b872dd1461029457806370a08231146103195780638811a0ae146103705780638dfda5ae146103c757806395d89b411461043e578063a7c3230a146104ce578063a9059cbb1461052c578063a9c2e36c14610591578063bd0af85d146105e8578063dd62ed3e1461064b578063e6ed51b7146106c2575b600080fd5b3480156100ec57600080fd5b506100f561072f565b6040518080602001828103825283818151815260200191508051906020019080838360005b8381101561013557808201518184015260208101905061011a565b50505050905090810190601f1680156101625780820380516001836020036101000a031916815260200191505b509250505060405180910390f35b34801561017c57600080fd5b506101bb600480360381019080803573ffffffffffffffffffffffffffffffffffffffff16906020019092919080359060200190929190505050610768565b604051808215151515815260200191505060405180910390f35b3480156101e157600080fd5b5061022060048036038101908080359060200190929190803573ffffffffffffffffffffffffffffffffffffffff169060200190929190505050610856565b604051808381526020018273ffffffffffffffffffffffffffffffffffffffff1673ffffffffffffffffffffffffffffffffffffffff1681526020019250505060405180910390f35b34801561027557600080fd5b5061027e610952565b6040518082815260200191505060405180910390f35b3480156102a057600080fd5b506102ff600480360381019080803573ffffffffffffffffffffffffffffffffffffffff169060200190929190803573ffffffffffffffffffffffffffffffffffffffff16906020019092919080359060200190929190505050610a01565b604051808215151515815260200191505060405180910390f35b34801561032557600080fd5b5061035a600480360381019080803573ffffffffffffffffffffffffffffffffffffffff169060200190929190505050610b24565b6040518082815260200191505060405180910390f35b34801561037c57600080fd5b506103b1600480360381019080803573ffffffffffffffffffffffffffffffffffffffff169060200190929190505050610c09565b6040518082815260200191505060405180910390f35b3480156103d357600080fd5b50610428600480360381019080803573ffffffffffffffffffffffffffffffffffffffff169060200190929190803573ffffffffffffffffffffffffffffffffffffffff169060200190929190505050610cee565b6040518082815260200191505060405180910390f35b34801561044a57600080fd5b50610453610e08565b6040518080602001828103825283818151815260200191508051906020019080838360005b83811015610493578082015181840152602081019050610478565b50505050905090810190601f1680156104c05780820380516001836020036101000a031916815260200191505b509250505060405180910390f35b3480156104da57600080fd5b506104e3610e41565b604051808373ffffffffffffffffffffffffffffffffffffffff1673ffffffffffffffffffffffffffffffffffffffff1681526020018281526020019250505060405180910390f35b34801561053857600080fd5b50610577600480360381019080803573ffffffffffffffffffffffffffffffffffffffff16906020019092919080359060200190929190505050610e73565b604051808215151515815260200191505060405180910390f35b34801561059d57600080fd5b506105a6610f61565b604051808273ffffffffffffffffffffffffffffffffffffffff1673ffffffffffffffffffffffffffffffffffffffff16815260200191505060405180910390f35b3480156105f457600080fd5b50610649600480360381019080803573ffffffffffffffffffffffffffffffffffffffff169060200190929190803573ffffffffffffffffffffffffffffffffffffffff169060200190929190505050611010565b005b34801561065757600080fd5b506106ac600480360381019080803573ffffffffffffffffffffffffffffffffffffffff169060200190929190803573ffffffffffffffffffffffffffffffffffffffff169060200190929190505050611102565b6040518082815260200191505060405180910390f35b3480156106ce57600080fd5b5061072d60048036038101908080359060200190929190803573ffffffffffffffffffffffffffffffffffffffff169060200190929190803573ffffffffffffffffffffffffffffffffffffffff16906020019092919050505061121c565b005b6040805190810160405280600a81526020017f4452435420546f6b656e0000000000000000000000000000000000000000000081525081565b60008073__DRCTLibrary___________________________634538d2c6909185856040518463ffffffff167c0100000000000000000000000000000000000000000000000000000000028152600401808481526020018373ffffffffffffffffffffffffffffffffffffffff1673ffffffffffffffffffffffffffffffffffffffff168152602001828152602001935050505060206040518083038186803b15801561081357600080fd5b505af4158015610827573d6000803e3d6000fd5b505050506040513d602081101561083d57600080fd5b8101908080519060200190929190505050905092915050565b600080600073__DRCTLibrary___________________________6334aeb164909186866040518463ffffffff167c0100000000000000000000000000000000000000000000000000000000028152600401808481526020018381526020018273ffffffffffffffffffffffffffffffffffffffff1673ffffffffffffffffffffffffffffffffffffffff1681526020019350505050604080518083038186803b15801561090257600080fd5b505af4158015610916573d6000803e3d6000fd5b505050506040513d604081101561092c57600080fd5b810190808051906020019092919080519060200190929190505050915091509250929050565b60008073__DRCTLibrary___________________________63d973df8690916040518263ffffffff167c01000000000000000000000000000000000000000000000000000000000281526004018082815260200191505060206040518083038186803b1580156109c157600080fd5b505af41580156109d5573d6000803e3d6000fd5b505050506040513d60208110156109eb57600080fd5b8101908080519060200190929190505050905090565b60008073__DRCTLibrary___________________________632eff549c90918686866040518563ffffffff167c0100000000000000000000000000000000000000000000000000000000028152600401808581526020018473ffffffffffffffffffffffffffffffffffffffff1673ffffffffffffffffffffffffffffffffffffffff1681526020018373ffffffffffffffffffffffffffffffffffffffff1673ffffffffffffffffffffffffffffffffffffffff16815260200182815260200194505050505060206040518083038186803b158015610ae057600080fd5b505af4158015610af4573d6000803e3d6000fd5b505050506040513d6020811015610b0a57600080fd5b810190808051906020019092919050505090509392505050565b60008073__DRCTLibrary___________________________63e2d643469091846040518363ffffffff167c0100000000000000000000000000000000000000000000000000000000028152600401808381526020018273ffffffffffffffffffffffffffffffffffffffff1673ffffffffffffffffffffffffffffffffffffffff1681526020019250505060206040518083038186803b158015610bc757600080fd5b505af4158015610bdb573d6000803e3d6000fd5b505050506040513d6020811015610bf157600080fd5b81019080805190602001909291905050509050919050565b60008073__DRCTLibrary___________________________632b545c689091846040518363ffffffff167c0100000000000000000000000000000000000000000000000000000000028152600401808381526020018273ffffffffffffffffffffffffffffffffffffffff1673ffffffffffffffffffffffffffffffffffffffff1681526020019250505060206040518083038186803b158015610cac57600080fd5b505af4158015610cc0573d6000803e3d6000fd5b505050506040513d6020811015610cd657600080fd5b81019080805190602001909291905050509050919050565b60008073__DRCTLibrary___________________________63bf435c37909185856040518463ffffffff167c0100000000000000000000000000000000000000000000000000000000028152600401808481526020018373ffffffffffffffffffffffffffffffffffffffff1673ffffffffffffffffffffffffffffffffffffffff1681526020018273ffffffffffffffffffffffffffffffffffffffff1673ffffffffffffffffffffffffffffffffffffffff168152602001935050505060206040518083038186803b158015610dc557600080fd5b505af4158015610dd9573d6000803e3d6000fd5b505050506040513d6020811015610def57600080fd5b8101908080519060200190929190505050905092915050565b6040805190810160405280600481526020017f445243540000000000000000000000000000000000000000000000000000000081525081565b60008060000160009054906101000a900473ffffffffffffffffffffffffffffffffffffffff16908060010154905082565b60008073__DRCTLibrary___________________________63f2b156db909185856040518463ffffffff167c0100000000000000000000000000000000000000000000000000000000028152600401808481526020018373ffffffffffffffffffffffffffffffffffffffff1673ffffffffffffffffffffffffffffffffffffffff168152602001828152602001935050505060206040518083038186803b158015610f1e57600080fd5b505af4158015610f32573d6000803e3d6000fd5b505050506040513d6020811015610f4857600080fd5b8101908080519060200190929190505050905092915050565b60008073__DRCTLibrary___________________________63a431b53890916040518263ffffffff167c01000000000000000000000000000000000000000000000000000000000281526004018082815260200191505060206040518083038186803b158015610fd057600080fd5b505af4158015610fe4573d6000803e3d6000fd5b505050506040513d6020811015610ffa57600080fd5b8101908080519060200190929190505050905090565b600073__DRCTLibrary___________________________63486e5569909184846040518463ffffffff167c0100000000000000000000000000000000000000000000000000000000028152600401808481526020018373ffffffffffffffffffffffffffffffffffffffff1673ffffffffffffffffffffffffffffffffffffffff1681526020018273ffffffffffffffffffffffffffffffffffffffff1673ffffffffffffffffffffffffffffffffffffffff168152602001935050505060006040518083038186803b1580156110e657600080fd5b505af41580156110fa573d6000803e3d6000fd5b505050505050565b60008073__DRCTLibrary___________________________63b1020f37909185856040518463ffffffff167c0100000000000000000000000000000000000000000000000000000000028152600401808481526020018373ffffffffffffffffffffffffffffffffffffffff1673ffffffffffffffffffffffffffffffffffffffff1681526020018273ffffffffffffffffffffffffffffffffffffffff1673ffffffffffffffffffffffffffffffffffffffff168152602001935050505060206040518083038186803b1580156111d957600080fd5b505af41580156111ed573d6000803e3d6000fd5b505050506040513d602081101561120357600080fd5b8101908080519060200190929190505050905092915050565b600073__DRCTLibrary___________________________6326f0385d90918585856040518563ffffffff167c0100000000000000000000000000000000000000000000000000000000028152600401808581526020018481526020018373ffffffffffffffffffffffffffffffffffffffff1673ffffffffffffffffffffffffffffffffffffffff1681526020018273ffffffffffffffffffffffffffffffffffffffff1673ffffffffffffffffffffffffffffffffffffffff16815260200194505050505060006040518083038186803b1580156112fa57600080fd5b505af415801561130e573d6000803e3d6000fd5b505050505050505600a165627a7a72305820d6aea212f6966aff3d2ac91ce6ff22809b22543c72aa53db73860892d9d4c0d50029",
  "deployedBytecode": "0x6080604052600436106100db576000357c0100000000000000000000000000000000000000000000000000000000900463ffffffff16806306fdde03146100e0578063095ea7b314610170578063174dcea8146101d557806318160ddd1461026957806323b872dd1461029457806370a08231146103195780638811a0ae146103705780638dfda5ae146103c757806395d89b411461043e578063a7c3230a146104ce578063a9059cbb1461052c578063a9c2e36c14610591578063bd0af85d146105e8578063dd62ed3e1461064b578063e6ed51b7146106c2575b600080fd5b3480156100ec57600080fd5b506100f561072f565b6040518080602001828103825283818151815260200191508051906020019080838360005b8381101561013557808201518184015260208101905061011a565b50505050905090810190601f1680156101625780820380516001836020036101000a031916815260200191505b509250505060405180910390f35b34801561017c57600080fd5b506101bb600480360381019080803573ffffffffffffffffffffffffffffffffffffffff16906020019092919080359060200190929190505050610768565b604051808215151515815260200191505060405180910390f35b3480156101e157600080fd5b5061022060048036038101908080359060200190929190803573ffffffffffffffffffffffffffffffffffffffff169060200190929190505050610856565b604051808381526020018273ffffffffffffffffffffffffffffffffffffffff1673ffffffffffffffffffffffffffffffffffffffff1681526020019250505060405180910390f35b34801561027557600080fd5b5061027e610952565b6040518082815260200191505060405180910390f35b3480156102a057600080fd5b506102ff600480360381019080803573ffffffffffffffffffffffffffffffffffffffff169060200190929190803573ffffffffffffffffffffffffffffffffffffffff16906020019092919080359060200190929190505050610a01565b604051808215151515815260200191505060405180910390f35b34801561032557600080fd5b5061035a600480360381019080803573ffffffffffffffffffffffffffffffffffffffff169060200190929190505050610b24565b6040518082815260200191505060405180910390f35b34801561037c57600080fd5b506103b1600480360381019080803573ffffffffffffffffffffffffffffffffffffffff169060200190929190505050610c09565b6040518082815260200191505060405180910390f35b3480156103d357600080fd5b50610428600480360381019080803573ffffffffffffffffffffffffffffffffffffffff169060200190929190803573ffffffffffffffffffffffffffffffffffffffff169060200190929190505050610cee565b6040518082815260200191505060405180910390f35b34801561044a57600080fd5b50610453610e08565b6040518080602001828103825283818151815260200191508051906020019080838360005b83811015610493578082015181840152602081019050610478565b50505050905090810190601f1680156104c05780820380516001836020036101000a031916815260200191505b509250505060405180910390f35b3480156104da57600080fd5b506104e3610e41565b604051808373ffffffffffffffffffffffffffffffffffffffff1673ffffffffffffffffffffffffffffffffffffffff1681526020018281526020019250505060405180910390f35b34801561053857600080fd5b50610577600480360381019080803573ffffffffffffffffffffffffffffffffffffffff16906020019092919080359060200190929190505050610e73565b604051808215151515815260200191505060405180910390f35b34801561059d57600080fd5b506105a6610f61565b604051808273ffffffffffffffffffffffffffffffffffffffff1673ffffffffffffffffffffffffffffffffffffffff16815260200191505060405180910390f35b3480156105f457600080fd5b50610649600480360381019080803573ffffffffffffffffffffffffffffffffffffffff169060200190929190803573ffffffffffffffffffffffffffffffffffffffff169060200190929190505050611010565b005b34801561065757600080fd5b506106ac600480360381019080803573ffffffffffffffffffffffffffffffffffffffff169060200190929190803573ffffffffffffffffffffffffffffffffffffffff169060200190929190505050611102565b6040518082815260200191505060405180910390f35b3480156106ce57600080fd5b5061072d60048036038101908080359060200190929190803573ffffffffffffffffffffffffffffffffffffffff169060200190929190803573ffffffffffffffffffffffffffffffffffffffff16906020019092919050505061121c565b005b6040805190810160405280600a81526020017f4452435420546f6b656e0000000000000000000000000000000000000000000081525081565b60008073__DRCTLibrary___________________________634538d2c6909185856040518463ffffffff167c0100000000000000000000000000000000000000000000000000000000028152600401808481526020018373ffffffffffffffffffffffffffffffffffffffff1673ffffffffffffffffffffffffffffffffffffffff168152602001828152602001935050505060206040518083038186803b15801561081357600080fd5b505af4158015610827573d6000803e3d6000fd5b505050506040513d602081101561083d57600080fd5b8101908080519060200190929190505050905092915050565b600080600073__DRCTLibrary___________________________6334aeb164909186866040518463ffffffff167c0100000000000000000000000000000000000000000000000000000000028152600401808481526020018381526020018273ffffffffffffffffffffffffffffffffffffffff1673ffffffffffffffffffffffffffffffffffffffff1681526020019350505050604080518083038186803b15801561090257600080fd5b505af4158015610916573d6000803e3d6000fd5b505050506040513d604081101561092c57600080fd5b810190808051906020019092919080519060200190929190505050915091509250929050565b60008073__DRCTLibrary___________________________63d973df8690916040518263ffffffff167c01000000000000000000000000000000000000000000000000000000000281526004018082815260200191505060206040518083038186803b1580156109c157600080fd5b505af41580156109d5573d6000803e3d6000fd5b505050506040513d60208110156109eb57600080fd5b8101908080519060200190929190505050905090565b60008073__DRCTLibrary___________________________632eff549c90918686866040518563ffffffff167c0100000000000000000000000000000000000000000000000000000000028152600401808581526020018473ffffffffffffffffffffffffffffffffffffffff1673ffffffffffffffffffffffffffffffffffffffff1681526020018373ffffffffffffffffffffffffffffffffffffffff1673ffffffffffffffffffffffffffffffffffffffff16815260200182815260200194505050505060206040518083038186803b158015610ae057600080fd5b505af4158015610af4573d6000803e3d6000fd5b505050506040513d6020811015610b0a57600080fd5b810190808051906020019092919050505090509392505050565b60008073__DRCTLibrary___________________________63e2d643469091846040518363ffffffff167c0100000000000000000000000000000000000000000000000000000000028152600401808381526020018273ffffffffffffffffffffffffffffffffffffffff1673ffffffffffffffffffffffffffffffffffffffff1681526020019250505060206040518083038186803b158015610bc757600080fd5b505af4158015610bdb573d6000803e3d6000fd5b505050506040513d6020811015610bf157600080fd5b81019080805190602001909291905050509050919050565b60008073__DRCTLibrary___________________________632b545c689091846040518363ffffffff167c0100000000000000000000000000000000000000000000000000000000028152600401808381526020018273ffffffffffffffffffffffffffffffffffffffff1673ffffffffffffffffffffffffffffffffffffffff1681526020019250505060206040518083038186803b158015610cac57600080fd5b505af4158015610cc0573d6000803e3d6000fd5b505050506040513d6020811015610cd657600080fd5b81019080805190602001909291905050509050919050565b60008073__DRCTLibrary___________________________63bf435c37909185856040518463ffffffff167c0100000000000000000000000000000000000000000000000000000000028152600401808481526020018373ffffffffffffffffffffffffffffffffffffffff1673ffffffffffffffffffffffffffffffffffffffff1681526020018273ffffffffffffffffffffffffffffffffffffffff1673ffffffffffffffffffffffffffffffffffffffff168152602001935050505060206040518083038186803b158015610dc557600080fd5b505af4158015610dd9573d6000803e3d6000fd5b505050506040513d6020811015610def57600080fd5b8101908080519060200190929190505050905092915050565b6040805190810160405280600481526020017f445243540000000000000000000000000000000000000000000000000000000081525081565b60008060000160009054906101000a900473ffffffffffffffffffffffffffffffffffffffff16908060010154905082565b60008073__DRCTLibrary___________________________63f2b156db909185856040518463ffffffff167c0100000000000000000000000000000000000000000000000000000000028152600401808481526020018373ffffffffffffffffffffffffffffffffffffffff1673ffffffffffffffffffffffffffffffffffffffff168152602001828152602001935050505060206040518083038186803b158015610f1e57600080fd5b505af4158015610f32573d6000803e3d6000fd5b505050506040513d6020811015610f4857600080fd5b8101908080519060200190929190505050905092915050565b60008073__DRCTLibrary___________________________63a431b53890916040518263ffffffff167c01000000000000000000000000000000000000000000000000000000000281526004018082815260200191505060206040518083038186803b158015610fd057600080fd5b505af4158015610fe4573d6000803e3d6000fd5b505050506040513d6020811015610ffa57600080fd5b8101908080519060200190929190505050905090565b600073__DRCTLibrary___________________________63486e5569909184846040518463ffffffff167c0100000000000000000000000000000000000000000000000000000000028152600401808481526020018373ffffffffffffffffffffffffffffffffffffffff1673ffffffffffffffffffffffffffffffffffffffff1681526020018273ffffffffffffffffffffffffffffffffffffffff1673ffffffffffffffffffffffffffffffffffffffff168152602001935050505060006040518083038186803b1580156110e657600080fd5b505af41580156110fa573d6000803e3d6000fd5b505050505050565b60008073__DRCTLibrary___________________________63b1020f37909185856040518463ffffffff167c0100000000000000000000000000000000000000000000000000000000028152600401808481526020018373ffffffffffffffffffffffffffffffffffffffff1673ffffffffffffffffffffffffffffffffffffffff1681526020018273ffffffffffffffffffffffffffffffffffffffff1673ffffffffffffffffffffffffffffffffffffffff168152602001935050505060206040518083038186803b1580156111d957600080fd5b505af41580156111ed573d6000803e3d6000fd5b505050506040513d602081101561120357600080fd5b8101908080519060200190929190505050905092915050565b600073__DRCTLibrary___________________________6326f0385d90918585856040518563ffffffff167c0100000000000000000000000000000000000000000000000000000000028152600401808581526020018481526020018373ffffffffffffffffffffffffffffffffffffffff1673ffffffffffffffffffffffffffffffffffffffff1681526020018273ffffffffffffffffffffffffffffffffffffffff1673ffffffffffffffffffffffffffffffffffffffff16815260200194505050505060006040518083038186803b1580156112fa57600080fd5b505af415801561130e573d6000803e3d6000fd5b505050505050505600a165627a7a72305820d6aea212f6966aff3d2ac91ce6ff22809b22543c72aa53db73860892d9d4c0d50029",
  "source": "pragma solidity ^0.4.24;\r\n\r\nimport \"./libraries/DRCTLibrary.sol\";\r\n\r\n/**\r\n*The DRCT_Token is an ERC20 compliant token representing the payout of the swap contract\r\n*specified in the Factory contract.\r\n*Each Factory contract is specified one DRCT Token and the token address can contain many\r\n*different swap contracts that are standardized at the Factory level.\r\n*The logic for the functions in this contract is housed in the DRCTLibary.sol.\r\n*/\r\ncontract DRCT_Token {\r\n\r\n    using DRCTLibrary for DRCTLibrary.TokenStorage;\r\n\r\n    /*Variables*/\r\n    DRCTLibrary.TokenStorage public drct;\r\n    string public constant name = \"DRCT Token\";\r\n    string public constant symbol = \"DRCT\";\r\n\r\n    /*Functions*/\r\n    /**\r\n    *@dev Constructor - sets values for token name and token supply, as well as the \r\n    *factory_contract, the swap.\r\n    *@param _factory \r\n    */\r\n    constructor() public {\r\n        drct.startToken(msg.sender);\r\n    }\r\n\r\n    /**\r\n    *@dev Token Creator - This function is called by the factory contract and creates new tokens\r\n    *for the user\r\n    *@param _supply amount of DRCT tokens created by the factory contract for this swap\r\n    *@param _owner address\r\n    *@param _swap address\r\n    */\r\n    function createToken(uint _supply, address _owner, address _swap) public{\r\n        drct.createToken(_supply,_owner,_swap);\r\n    }\r\n\r\n    /**\r\n    *@dev gets the factory address\r\n    */\r\n    function getFactoryAddress() external view returns(address){\r\n        return drct.getFactoryAddress();\r\n    }\r\n\r\n    /**\r\n    *@dev Called by the factory contract, and pays out to a _party\r\n    *@param _party being paid\r\n    *@param _swap address\r\n    */\r\n    function pay(address _party, address _swap) public{\r\n        drct.pay(_party,_swap);\r\n    }\r\n\r\n    /**\r\n    *@dev Returns the users total balance (sum of tokens in all swaps the user has tokens in)\r\n    *@param _owner user address\r\n    *@return user total balance\r\n    */\r\n    function balanceOf(address _owner) public constant returns (uint balance) {\r\n       return drct.balanceOf(_owner);\r\n     }\r\n\r\n    /**\r\n    *@dev Getter for the total_supply of tokens in the contract\r\n    *@return total supply\r\n    */\r\n    function totalSupply() public constant returns (uint _total_supply) {\r\n       return drct.totalSupply();\r\n    }\r\n\r\n    /**\r\n    *ERC20 compliant transfer function\r\n    *@param _to Address to send funds to\r\n    *@param _amount Amount of token to send\r\n    *@return true for successful\r\n    */\r\n    function transfer(address _to, uint _amount) public returns (bool) {\r\n        return drct.transfer(_to,_amount);\r\n    }\r\n\r\n    /**\r\n    *@dev ERC20 compliant transferFrom function\r\n    *@param _from address to send funds from (must be allowed, see approve function)\r\n    *@param _to address to send funds to\r\n    *@param _amount amount of token to send\r\n    *@return true for successful transfer\r\n    */\r\n    function transferFrom(address _from, address _to, uint _amount) public returns (bool) {\r\n        return drct.transferFrom(_from,_to,_amount);\r\n    }\r\n\r\n    /**\r\n    *@dev ERC20 compliant approve function\r\n    *@param _spender party that msg.sender approves for transferring funds\r\n    *@param _amount amount of token to approve for sending\r\n    *@return true for successful\r\n    */\r\n    function approve(address _spender, uint _amount) public returns (bool) {\r\n        return drct.approve(_spender,_amount);\r\n    }\r\n\r\n    /**\r\n    *@dev Counts addresses involved in the swap based on the length of balances array for _swap\r\n    *@param _swap address\r\n    *@return the length of the balances array for the swap\r\n    */\r\n    function addressCount(address _swap) public constant returns (uint) { \r\n        return drct.addressCount(_swap); \r\n    }\r\n\r\n    /**\r\n    *@dev Gets the owner address and amount by specifying the swap address and index\r\n    *@param _ind specified index in the swap\r\n    *@param _swap specified swap address\r\n    *@return the amount to transfer associated with a particular index in a particular swap\r\n    *@return the owner address associated with a particular index in a particular swap\r\n    */\r\n    function getBalanceAndHolderByIndex(uint _ind, address _swap) public constant returns (uint, address) {\r\n        return drct.getBalanceAndHolderByIndex(_ind,_swap);\r\n    }\r\n\r\n    /**\r\n    *@dev Gets the index by specifying the swap and owner addresses\r\n    *@param _owner specifed address\r\n    *@param _swap  specified swap address\r\n    *@return the index associated with the _owner address in a particular swap\r\n    */\r\n    function getIndexByAddress(address _owner, address _swap) public constant returns (uint) {\r\n        return drct.getIndexByAddress(_owner,_swap); \r\n    }\r\n\r\n    /**\r\n    *@dev Look up how much the spender or contract is allowed to spend?\r\n    *@param _owner address\r\n    *@param _spender party approved for transfering funds \r\n    *@return the allowed amount _spender can spend of _owner's balance\r\n    */\r\n    function allowance(address _owner, address _spender) public constant returns (uint) {\r\n        return drct.allowance(_owner,_spender); \r\n    }\r\n}",
  "sourcePath": "C:\\company\\code\\drct_standard\\contracts\\DRCT_Token.sol",
  "compiler": {
    "name": "solc",
    "version": "0.4.24+commit.e67f0147.Emscripten.clang"
  },
  "schemaVersion": "2.0.1",
  "updatedAt": "2018-11-07T01:51:07.568Z"
}