{
  "contractName": "DRCTLibrary",
  "abi": [
    {
      "anonymous": false,
      "inputs": [
        {
          "indexed": true,
          "name": "_from",
          "type": "address"
        },
        {
          "indexed": true,
          "name": "_to",
          "type": "address"
        },
        {
          "indexed": false,
          "name": "_value",
          "type": "uint256"
        }
      ],
      "name": "Transfer",
      "type": "event"
    },
    {
      "anonymous": false,
      "inputs": [
        {
          "indexed": true,
          "name": "_owner",
          "type": "address"
        },
        {
          "indexed": true,
          "name": "_spender",
          "type": "address"
        },
        {
          "indexed": false,
          "name": "_value",
          "type": "uint256"
        }
      ],
      "name": "Approval",
      "type": "event"
    },
    {
      "anonymous": false,
      "inputs": [
        {
          "indexed": false,
          "name": "_from",
          "type": "address"
        },
        {
          "indexed": false,
          "name": "_value",
          "type": "uint256"
        }
      ],
      "name": "CreateToken",
      "type": "event"
    },
    {
      "constant": false,
      "inputs": [
        {
          "name": "self",
          "type": "DRCTLibrary.TokenStorage storage"
        },
        {
          "name": "_factory",
          "type": "address"
        }
      ],
      "name": "startToken",
      "outputs": [],
      "payable": false,
      "stateMutability": "nonpayable",
      "type": "function"
    },
    {
      "constant": false,
      "inputs": [
        {
          "name": "self",
          "type": "DRCTLibrary.TokenStorage storage"
        },
        {
          "name": "_supply",
          "type": "uint256"
        },
        {
          "name": "_owner",
          "type": "address"
        },
        {
          "name": "_swap",
          "type": "address"
        }
      ],
      "name": "createToken",
      "outputs": [],
      "payable": false,
      "stateMutability": "nonpayable",
      "type": "function"
    },
    {
      "constant": false,
      "inputs": [
        {
          "name": "self",
          "type": "DRCTLibrary.TokenStorage storage"
        },
        {
          "name": "_party",
          "type": "address"
        },
        {
          "name": "_swap",
          "type": "address"
        }
      ],
      "name": "pay",
      "outputs": [],
      "payable": false,
      "stateMutability": "nonpayable",
      "type": "function"
    },
    {
      "constant": true,
      "inputs": [
        {
          "name": "self",
          "type": "DRCTLibrary.TokenStorage storage"
        },
        {
          "name": "_owner",
          "type": "address"
        }
      ],
      "name": "balanceOf",
      "outputs": [
        {
          "name": "balance",
          "type": "uint256"
        }
      ],
      "payable": false,
      "stateMutability": "view",
      "type": "function"
    },
    {
      "constant": true,
      "inputs": [
        {
          "name": "self",
          "type": "DRCTLibrary.TokenStorage storage"
        }
      ],
      "name": "totalSupply",
      "outputs": [
        {
          "name": "_total_supply",
          "type": "uint256"
        }
      ],
      "payable": false,
      "stateMutability": "view",
      "type": "function"
    },
    {
      "constant": false,
      "inputs": [
        {
          "name": "self",
          "type": "DRCTLibrary.TokenStorage storage"
        },
        {
          "name": "_to",
          "type": "address"
        },
        {
          "name": "_amount",
          "type": "uint256"
        }
      ],
      "name": "transfer",
      "outputs": [
        {
          "name": "",
          "type": "bool"
        }
      ],
      "payable": false,
      "stateMutability": "nonpayable",
      "type": "function"
    },
    {
      "constant": false,
      "inputs": [
        {
          "name": "self",
          "type": "DRCTLibrary.TokenStorage storage"
        },
        {
          "name": "_from",
          "type": "address"
        },
        {
          "name": "_to",
          "type": "address"
        },
        {
          "name": "_amount",
          "type": "uint256"
        }
      ],
      "name": "transferFrom",
      "outputs": [
        {
          "name": "",
          "type": "bool"
        }
      ],
      "payable": false,
      "stateMutability": "nonpayable",
      "type": "function"
    },
    {
      "constant": false,
      "inputs": [
        {
          "name": "self",
          "type": "DRCTLibrary.TokenStorage storage"
        },
        {
          "name": "_spender",
          "type": "address"
        },
        {
          "name": "_amount",
          "type": "uint256"
        }
      ],
      "name": "approve",
      "outputs": [
        {
          "name": "",
          "type": "bool"
        }
      ],
      "payable": false,
      "stateMutability": "nonpayable",
      "type": "function"
    },
    {
      "constant": true,
      "inputs": [
        {
          "name": "self",
          "type": "DRCTLibrary.TokenStorage storage"
        },
        {
          "name": "_swap",
          "type": "address"
        }
      ],
      "name": "addressCount",
      "outputs": [
        {
          "name": "",
          "type": "uint256"
        }
      ],
      "payable": false,
      "stateMutability": "view",
      "type": "function"
    },
    {
      "constant": true,
      "inputs": [
        {
          "name": "self",
          "type": "DRCTLibrary.TokenStorage storage"
        },
        {
          "name": "_ind",
          "type": "uint256"
        },
        {
          "name": "_swap",
          "type": "address"
        }
      ],
      "name": "getBalanceAndHolderByIndex",
      "outputs": [
        {
          "name": "",
          "type": "uint256"
        },
        {
          "name": "",
          "type": "address"
        }
      ],
      "payable": false,
      "stateMutability": "view",
      "type": "function"
    },
    {
      "constant": true,
      "inputs": [
        {
          "name": "self",
          "type": "DRCTLibrary.TokenStorage storage"
        },
        {
          "name": "_owner",
          "type": "address"
        },
        {
          "name": "_swap",
          "type": "address"
        }
      ],
      "name": "getIndexByAddress",
      "outputs": [
        {
          "name": "",
          "type": "uint256"
        }
      ],
      "payable": false,
      "stateMutability": "view",
      "type": "function"
    },
    {
      "constant": true,
      "inputs": [
        {
          "name": "self",
          "type": "DRCTLibrary.TokenStorage storage"
        },
        {
          "name": "_owner",
          "type": "address"
        },
        {
          "name": "_spender",
          "type": "address"
        }
      ],
      "name": "allowance",
      "outputs": [
        {
          "name": "",
          "type": "uint256"
        }
      ],
      "payable": false,
      "stateMutability": "view",
      "type": "function"
    }
  ],
  "bytecode": "0x6132f9610030600b82828239805160001a6073146000811461002057610022565bfe5b5030600052607381538281f30073000000000000000000000000000000000000000030146060604052600436106100d1576000357c0100000000000000000000000000000000000000000000000000000000900463ffffffff16806326f0385d146100d65780632b545c68146101405780632eff549c1461018b57806334aeb1641461020d5780634538d2c614610294578063486e5569146102f7578063ad4848d214610358578063b1020f371461039a578063bf435c3714610404578063d973df861461046e578063e2d643461461049a578063f2b156db146104e5575b600080fd5b81156100e157600080fd5b61013e600480803590602001909190803590602001909190803573ffffffffffffffffffffffffffffffffffffffff1690602001909190803573ffffffffffffffffffffffffffffffffffffffff16906020019091905050610548565b005b610175600480803590602001909190803573ffffffffffffffffffffffffffffffffffffffff16906020019091905050610b7c565b6040518082815260200191505060405180910390f35b811561019657600080fd5b6101f3600480803590602001909190803573ffffffffffffffffffffffffffffffffffffffff1690602001909190803573ffffffffffffffffffffffffffffffffffffffff16906020019091908035906020019091905050610bcb565b604051808215151515815260200191505060405180910390f35b61024b600480803590602001909190803590602001909190803573ffffffffffffffffffffffffffffffffffffffff16906020019091905050611002565b604051808381526020018273ffffffffffffffffffffffffffffffffffffffff1673ffffffffffffffffffffffffffffffffffffffff1681526020019250505060405180910390f35b811561029f57600080fd5b6102dd600480803590602001909190803573ffffffffffffffffffffffffffffffffffffffff169060200190919080359060200190919050506110f1565b604051808215151515815260200191505060405180910390f35b811561030257600080fd5b610356600480803590602001909190803573ffffffffffffffffffffffffffffffffffffffff1690602001909190803573ffffffffffffffffffffffffffffffffffffffff169060200190919050506111e6565b005b811561036357600080fd5b610398600480803590602001909190803573ffffffffffffffffffffffffffffffffffffffff1690602001909190505061144e565b005b6103ee600480803590602001909190803573ffffffffffffffffffffffffffffffffffffffff1690602001909190803573ffffffffffffffffffffffffffffffffffffffff16906020019091905050611495565b6040518082815260200191505060405180910390f35b610458600480803590602001909190803573ffffffffffffffffffffffffffffffffffffffff1690602001909190803573ffffffffffffffffffffffffffffffffffffffff1690602001909190505061151f565b6040518082815260200191505060405180910390f35b61048460048080359060200190919050506115a9565b6040518082815260200191505060405180910390f35b6104cf600480803590602001909190803573ffffffffffffffffffffffffffffffffffffffff169060200190919050506115b7565b6040518082815260200191505060405180910390f35b81156104f057600080fd5b61052e600480803590602001909190803573ffffffffffffffffffffffffffffffffffffffff16906020019091908035906020019091905050611603565b604051808215151515815260200191505060405180910390f35b8360000160009054906101000a900473ffffffffffffffffffffffffffffffffffffffff1673ffffffffffffffffffffffffffffffffffffffff163373ffffffffffffffffffffffffffffffffffffffff161415156105a657600080fd5b6105bd83856001015461189890919063ffffffff16565b8460010181905550610619838560060160008573ffffffffffffffffffffffffffffffffffffffff1673ffffffffffffffffffffffffffffffffffffffff1681526020019081526020016000205461189890919063ffffffff16565b8460060160008473ffffffffffffffffffffffffffffffffffffffff1673ffffffffffffffffffffffffffffffffffffffff1681526020019081526020016000208190555060008460040160008473ffffffffffffffffffffffffffffffffffffffff1673ffffffffffffffffffffffffffffffffffffffff16815260200190815260200160002080549050141561074e578360040160008373ffffffffffffffffffffffffffffffffffffffff1673ffffffffffffffffffffffffffffffffffffffff16815260200190815260200160002080548060010182816106fe919061315a565b9160005260206000209001600080909190916101000a81548173ffffffffffffffffffffffffffffffffffffffff021916908373ffffffffffffffffffffffffffffffffffffffff160217905550505b8360040160008373ffffffffffffffffffffffffffffffffffffffff1673ffffffffffffffffffffffffffffffffffffffff168152602001908152602001600020805490508460050160008473ffffffffffffffffffffffffffffffffffffffff1673ffffffffffffffffffffffffffffffffffffffff16815260200190815260200160002060008373ffffffffffffffffffffffffffffffffffffffff1673ffffffffffffffffffffffffffffffffffffffff168152602001908152602001600020819055508360040160008373ffffffffffffffffffffffffffffffffffffffff1673ffffffffffffffffffffffffffffffffffffffff1681526020019081526020016000208054806001018281610868919061315a565b9160005260206000209001600083909190916101000a81548173ffffffffffffffffffffffffffffffffffffffff021916908373ffffffffffffffffffffffffffffffffffffffff160217905550508360020160008273ffffffffffffffffffffffffffffffffffffffff1673ffffffffffffffffffffffffffffffffffffffff168152602001908152602001600020805480600101828161090a9190613186565b916000526020600020906002020160006040805190810160405280600073ffffffffffffffffffffffffffffffffffffffff1681526020016000815250909190915060008201518160000160006101000a81548173ffffffffffffffffffffffffffffffffffffffff021916908373ffffffffffffffffffffffffffffffffffffffff1602179055506020820151816001015550505060018460030160008373ffffffffffffffffffffffffffffffffffffffff1673ffffffffffffffffffffffffffffffffffffffff16815260200190815260200160002060008473ffffffffffffffffffffffffffffffffffffffff1673ffffffffffffffffffffffffffffffffffffffff168152602001908152602001600020819055508360020160008273ffffffffffffffffffffffffffffffffffffffff1673ffffffffffffffffffffffffffffffffffffffff1681526020019081526020016000208054806001018281610a779190613186565b9160005260206000209060020201600060408051908101604052808673ffffffffffffffffffffffffffffffffffffffff16815260200187815250909190915060008201518160000160006101000a81548173ffffffffffffffffffffffffffffffffffffffff021916908373ffffffffffffffffffffffffffffffffffffffff160217905550602082015181600101555050507fb378e89b40ac5bbe0e2241b596fbe1adc3cf1fb7c982aa1b4560165cf264ee938284604051808373ffffffffffffffffffffffffffffffffffffffff1673ffffffffffffffffffffffffffffffffffffffff1681526020018281526020019250505060405180910390a150505050565b60008260020160008373ffffffffffffffffffffffffffffffffffffffff1673ffffffffffffffffffffffffffffffffffffffff16815260200190815260200160002080549050905092915050565b6000806000610bda87866118b6565b1515610be557600080fd5b8660060160008773ffffffffffffffffffffffffffffffffffffffff1673ffffffffffffffffffffffffffffffffffffffff1681526020019081526020016000205491508660070160008773ffffffffffffffffffffffffffffffffffffffff1673ffffffffffffffffffffffffffffffffffffffff16815260200190815260200160002060003373ffffffffffffffffffffffffffffffffffffffff1673ffffffffffffffffffffffffffffffffffffffff1681526020019081526020016000205490508573ffffffffffffffffffffffffffffffffffffffff168573ffffffffffffffffffffffffffffffffffffffff161480610d105750600073ffffffffffffffffffffffffffffffffffffffff168573ffffffffffffffffffffffffffffffffffffffff16145b80610d1b5750600084145b80610d2557508382105b80610d2f57508381105b15610d3d5760009250610ff8565b610d498787878761199a565b610d9d848860060160008973ffffffffffffffffffffffffffffffffffffffff1673ffffffffffffffffffffffffffffffffffffffff16815260200190815260200160002054612ccb90919063ffffffff16565b8760060160008873ffffffffffffffffffffffffffffffffffffffff1673ffffffffffffffffffffffffffffffffffffffff16815260200190815260200160002081905550610e36848860060160008873ffffffffffffffffffffffffffffffffffffffff1673ffffffffffffffffffffffffffffffffffffffff1681526020019081526020016000205461189890919063ffffffff16565b8760060160008773ffffffffffffffffffffffffffffffffffffffff1673ffffffffffffffffffffffffffffffffffffffff16815260200190815260200160002081905550610f0c848860070160008973ffffffffffffffffffffffffffffffffffffffff1673ffffffffffffffffffffffffffffffffffffffff16815260200190815260200160002060003373ffffffffffffffffffffffffffffffffffffffff1673ffffffffffffffffffffffffffffffffffffffff16815260200190815260200160002054612ccb90919063ffffffff16565b8760070160008873ffffffffffffffffffffffffffffffffffffffff1673ffffffffffffffffffffffffffffffffffffffff16815260200190815260200160002060003373ffffffffffffffffffffffffffffffffffffffff1673ffffffffffffffffffffffffffffffffffffffff168152602001908152602001600020819055508473ffffffffffffffffffffffffffffffffffffffff168673ffffffffffffffffffffffffffffffffffffffff167fddf252ad1be2c89b69c2b068fc378daa952ba7f163c4a11628f55a4df523b3ef866040518082815260200191505060405180910390a3600192505b5050949350505050565b6000808460020160008473ffffffffffffffffffffffffffffffffffffffff1673ffffffffffffffffffffffffffffffffffffffff1681526020019081526020016000208481548110151561105357fe5b9060005260206000209060020201600101548560020160008573ffffffffffffffffffffffffffffffffffffffff1673ffffffffffffffffffffffffffffffffffffffff168152602001908152602001600020858154811015156110b357fe5b906000526020600020906002020160000160009054906101000a900473ffffffffffffffffffffffffffffffffffffffff1691509150935093915050565b6000818460070160003373ffffffffffffffffffffffffffffffffffffffff1673ffffffffffffffffffffffffffffffffffffffff16815260200190815260200160002060008573ffffffffffffffffffffffffffffffffffffffff1673ffffffffffffffffffffffffffffffffffffffff168152602001908152602001600020819055508273ffffffffffffffffffffffffffffffffffffffff163373ffffffffffffffffffffffffffffffffffffffff167f8c5be1e5ebec7d5bd14f71427d1e84f3dd0314c0f7b2291e5b200ac8c7c3b925846040518082815260200191505060405180910390a3600190509392505050565b6000808460000160009054906101000a900473ffffffffffffffffffffffffffffffffffffffff1673ffffffffffffffffffffffffffffffffffffffff163373ffffffffffffffffffffffffffffffffffffffff1614151561124757600080fd5b8460030160008473ffffffffffffffffffffffffffffffffffffffff1673ffffffffffffffffffffffffffffffffffffffff16815260200190815260200160002060008573ffffffffffffffffffffffffffffffffffffffff1673ffffffffffffffffffffffffffffffffffffffff1681526020019081526020016000205491508460020160008473ffffffffffffffffffffffffffffffffffffffff1673ffffffffffffffffffffffffffffffffffffffff1681526020019081526020016000208281548110151561131657fe5b906000526020600020906002020160010154905061137e818660060160008773ffffffffffffffffffffffffffffffffffffffff1673ffffffffffffffffffffffffffffffffffffffff16815260200190815260200160002054612ccb90919063ffffffff16565b8560060160008673ffffffffffffffffffffffffffffffffffffffff1673ffffffffffffffffffffffffffffffffffffffff168152602001908152602001600020819055506113da818660010154612ccb90919063ffffffff16565b856001018190555060008560020160008573ffffffffffffffffffffffffffffffffffffffff1673ffffffffffffffffffffffffffffffffffffffff1681526020019081526020016000208381548110151561143257fe5b9060005260206000209060020201600101819055505050505050565b808260000160006101000a81548173ffffffffffffffffffffffffffffffffffffffff021916908373ffffffffffffffffffffffffffffffffffffffff1602179055505050565b60008360070160008473ffffffffffffffffffffffffffffffffffffffff1673ffffffffffffffffffffffffffffffffffffffff16815260200190815260200160002060008373ffffffffffffffffffffffffffffffffffffffff1673ffffffffffffffffffffffffffffffffffffffff1681526020019081526020016000205490509392505050565b60008360030160008373ffffffffffffffffffffffffffffffffffffffff1673ffffffffffffffffffffffffffffffffffffffff16815260200190815260200160002060008473ffffffffffffffffffffffffffffffffffffffff1673ffffffffffffffffffffffffffffffffffffffff1681526020019081526020016000205490509392505050565b600081600101549050919050565b60008260060160008373ffffffffffffffffffffffffffffffffffffffff1673ffffffffffffffffffffffffffffffffffffffff16815260200190815260200160002054905092915050565b60008061161085856118b6565b151561161b57600080fd5b8460060160003373ffffffffffffffffffffffffffffffffffffffff1673ffffffffffffffffffffffffffffffffffffffff1681526020019081526020016000205490503373ffffffffffffffffffffffffffffffffffffffff168473ffffffffffffffffffffffffffffffffffffffff1614806116c55750600073ffffffffffffffffffffffffffffffffffffffff168473ffffffffffffffffffffffffffffffffffffffff16145b806116d05750600083145b806116da57508281105b156116e85760009150611890565b6116f48533868661199a565b611748838660060160003373ffffffffffffffffffffffffffffffffffffffff1673ffffffffffffffffffffffffffffffffffffffff16815260200190815260200160002054612ccb90919063ffffffff16565b8560060160003373ffffffffffffffffffffffffffffffffffffffff1673ffffffffffffffffffffffffffffffffffffffff168152602001908152602001600020819055506117e1838660060160008773ffffffffffffffffffffffffffffffffffffffff1673ffffffffffffffffffffffffffffffffffffffff1681526020019081526020016000205461189890919063ffffffff16565b8560060160008673ffffffffffffffffffffffffffffffffffffffff1673ffffffffffffffffffffffffffffffffffffffff168152602001908152602001600020819055508373ffffffffffffffffffffffffffffffffffffffff163373ffffffffffffffffffffffffffffffffffffffff167fddf252ad1be2c89b69c2b068fc378daa952ba7f163c4a11628f55a4df523b3ef856040518082815260200191505060405180910390a3600191505b509392505050565b60008082840190508381101515156118ac57fe5b8091505092915050565b6000808360000160009054906101000a900473ffffffffffffffffffffffffffffffffffffffff1690508073ffffffffffffffffffffffffffffffffffffffff16633af32abf846040518263ffffffff167c0100000000000000000000000000000000000000000000000000000000028152600401808273ffffffffffffffffffffffffffffffffffffffff1673ffffffffffffffffffffffffffffffffffffffff168152602001915050602060405180830381600087803b151561197a57600080fd5b5af1151561198757600080fd5b5050506040518051905091505092915050565b6119a26131b8565b6000806119ad6131cc565b6000808960040160008a73ffffffffffffffffffffffffffffffffffffffff1673ffffffffffffffffffffffffffffffffffffffff168152602001908152602001600020805480602002602001604051908101604052809291908181526020018280548015611a7157602002820191906000526020600020905b8160009054906101000a900473ffffffffffffffffffffffffffffffffffffffff1673ffffffffffffffffffffffffffffffffffffffff1681526020019060010190808311611a27575b50505050509550611a8d60018751612ccb90919063ffffffff16565b94505b6000851115612cbf578960030160008787815181101515611aad57fe5b9060200190602002015173ffffffffffffffffffffffffffffffffffffffff1673ffffffffffffffffffffffffffffffffffffffff16815260200190815260200160002060008a73ffffffffffffffffffffffffffffffffffffffff1673ffffffffffffffffffffffffffffffffffffffff1681526020019081526020016000205493508960020160008787815181101515611b4557fe5b9060200190602002015173ffffffffffffffffffffffffffffffffffffffff1673ffffffffffffffffffffffffffffffffffffffff16815260200190815260200160002084815481101515611b9657fe5b90600052602060002090600202016040805190810160405290816000820160009054906101000a900473ffffffffffffffffffffffffffffffffffffffff1673ffffffffffffffffffffffffffffffffffffffff1673ffffffffffffffffffffffffffffffffffffffff16815260200160018201548152505092508260200151871015156124ef57826020015187039650611c7f60018b60040160008c73ffffffffffffffffffffffffffffffffffffffff1673ffffffffffffffffffffffffffffffffffffffff16815260200190815260200160002080549050612ccb90919063ffffffff16565b8a60040160008b73ffffffffffffffffffffffffffffffffffffffff1673ffffffffffffffffffffffffffffffffffffffff16815260200190815260200160002081611ccb91906131fc565b508960050160008a73ffffffffffffffffffffffffffffffffffffffff1673ffffffffffffffffffffffffffffffffffffffff16815260200190815260200160002060008787815181101515611d1d57fe5b9060200190602002015173ffffffffffffffffffffffffffffffffffffffff1673ffffffffffffffffffffffffffffffffffffffff1681526020019081526020016000206000905560008a60050160008a73ffffffffffffffffffffffffffffffffffffffff1673ffffffffffffffffffffffffffffffffffffffff16815260200190815260200160002060008888815181101515611db857fe5b9060200190602002015173ffffffffffffffffffffffffffffffffffffffff1673ffffffffffffffffffffffffffffffffffffffff16815260200190815260200160002054141515611fd7578960030160008787815181101515611e1857fe5b9060200190602002015173ffffffffffffffffffffffffffffffffffffffff1673ffffffffffffffffffffffffffffffffffffffff16815260200190815260200160002060008973ffffffffffffffffffffffffffffffffffffffff1673ffffffffffffffffffffffffffffffffffffffff16815260200190815260200160002054915060008214151515611ea957fe5b611f3683602001518b60020160008989815181101515611ec557fe5b9060200190602002015173ffffffffffffffffffffffffffffffffffffffff1673ffffffffffffffffffffffffffffffffffffffff16815260200190815260200160002084815481101515611f1657fe5b90600052602060002090600202016001015461189890919063ffffffff16565b8a60020160008888815181101515611f4a57fe5b9060200190602002015173ffffffffffffffffffffffffffffffffffffffff1673ffffffffffffffffffffffffffffffffffffffff16815260200190815260200160002083815481101515611f9b57fe5b906000526020600020906002020160010181905550611fd28a8a8888815181101515611fc357fe5b90602001906020020151612ce4565b6124dc565b60008a60040160008a73ffffffffffffffffffffffffffffffffffffffff1673ffffffffffffffffffffffffffffffffffffffff1681526020019081526020016000208054905014156120c7578960040160008973ffffffffffffffffffffffffffffffffffffffff1673ffffffffffffffffffffffffffffffffffffffff1681526020019081526020016000208054806001018281612077919061315a565b9160005260206000209001600080909190916101000a81548173ffffffffffffffffffffffffffffffffffffffff021916908373ffffffffffffffffffffffffffffffffffffffff160217905550505b8960040160008973ffffffffffffffffffffffffffffffffffffffff1673ffffffffffffffffffffffffffffffffffffffff168152602001908152602001600020805490508a60050160008a73ffffffffffffffffffffffffffffffffffffffff1673ffffffffffffffffffffffffffffffffffffffff1681526020019081526020016000206000888881518110151561215d57fe5b9060200190602002015173ffffffffffffffffffffffffffffffffffffffff1673ffffffffffffffffffffffffffffffffffffffff168152602001908152602001600020819055508960040160008973ffffffffffffffffffffffffffffffffffffffff1673ffffffffffffffffffffffffffffffffffffffff16815260200190815260200160002080548060010182816121f8919061315a565b91600052602060002090016000888881518110151561221357fe5b90602001906020020151909190916101000a81548173ffffffffffffffffffffffffffffffffffffffff021916908373ffffffffffffffffffffffffffffffffffffffff16021790555050878a6002016000888881518110151561227357fe5b9060200190602002015173ffffffffffffffffffffffffffffffffffffffff1673ffffffffffffffffffffffffffffffffffffffff168152602001908152602001600020858154811015156122c457fe5b906000526020600020906002020160000160006101000a81548173ffffffffffffffffffffffffffffffffffffffff021916908373ffffffffffffffffffffffffffffffffffffffff160217905550896003016000878781518110151561232757fe5b9060200190602002015173ffffffffffffffffffffffffffffffffffffffff1673ffffffffffffffffffffffffffffffffffffffff16815260200190815260200160002060008a73ffffffffffffffffffffffffffffffffffffffff1673ffffffffffffffffffffffffffffffffffffffff168152602001908152602001600020548a600301600088888151811015156123bd57fe5b9060200190602002015173ffffffffffffffffffffffffffffffffffffffff1673ffffffffffffffffffffffffffffffffffffffff16815260200190815260200160002060008a73ffffffffffffffffffffffffffffffffffffffff1673ffffffffffffffffffffffffffffffffffffffff16815260200190815260200160002081905550896003016000878781518110151561245657fe5b9060200190602002015173ffffffffffffffffffffffffffffffffffffffff1673ffffffffffffffffffffffffffffffffffffffff16815260200190815260200160002060008a73ffffffffffffffffffffffffffffffffffffffff1673ffffffffffffffffffffffffffffffffffffffff168152602001908152602001600020600090555b60008714156124ea57612cbf565b612cb1565b896003016000878781518110151561250357fe5b9060200190602002015173ffffffffffffffffffffffffffffffffffffffff1673ffffffffffffffffffffffffffffffffffffffff16815260200190815260200160002060008973ffffffffffffffffffffffffffffffffffffffff1673ffffffffffffffffffffffffffffffffffffffff16815260200190815260200160002054905060008a60050160008a73ffffffffffffffffffffffffffffffffffffffff1673ffffffffffffffffffffffffffffffffffffffff168152602001908152602001600020600088888151811015156125da57fe5b9060200190602002015173ffffffffffffffffffffffffffffffffffffffff1673ffffffffffffffffffffffffffffffffffffffff1681526020019081526020016000205414151561272e576126af878b6002016000898981518110151561263e57fe5b9060200190602002015173ffffffffffffffffffffffffffffffffffffffff1673ffffffffffffffffffffffffffffffffffffffff1681526020019081526020016000208381548110151561268f57fe5b90600052602060002090600202016001015461189890919063ffffffff16565b8a600201600088888151811015156126c357fe5b9060200190602002015173ffffffffffffffffffffffffffffffffffffffff1673ffffffffffffffffffffffffffffffffffffffff1681526020019081526020016000208281548110151561271457fe5b906000526020600020906002020160010181905550612ba9565b60008a60040160008a73ffffffffffffffffffffffffffffffffffffffff1673ffffffffffffffffffffffffffffffffffffffff16815260200190815260200160002080549050141561281e578960040160008973ffffffffffffffffffffffffffffffffffffffff1673ffffffffffffffffffffffffffffffffffffffff16815260200190815260200160002080548060010182816127ce919061315a565b9160005260206000209001600080909190916101000a81548173ffffffffffffffffffffffffffffffffffffffff021916908373ffffffffffffffffffffffffffffffffffffffff160217905550505b8960040160008973ffffffffffffffffffffffffffffffffffffffff1673ffffffffffffffffffffffffffffffffffffffff168152602001908152602001600020805490508a60050160008a73ffffffffffffffffffffffffffffffffffffffff1673ffffffffffffffffffffffffffffffffffffffff168152602001908152602001600020600088888151811015156128b457fe5b9060200190602002015173ffffffffffffffffffffffffffffffffffffffff1673ffffffffffffffffffffffffffffffffffffffff168152602001908152602001600020819055508960040160008973ffffffffffffffffffffffffffffffffffffffff1673ffffffffffffffffffffffffffffffffffffffff168152602001908152602001600020805480600101828161294f919061315a565b91600052602060002090016000888881518110151561296a57fe5b90602001906020020151909190916101000a81548173ffffffffffffffffffffffffffffffffffffffff021916908373ffffffffffffffffffffffffffffffffffffffff1602179055505089600201600087878151811015156129c957fe5b9060200190602002015173ffffffffffffffffffffffffffffffffffffffff1673ffffffffffffffffffffffffffffffffffffffff168152602001908152602001600020805490508a60030160008888815181101515612a2557fe5b9060200190602002015173ffffffffffffffffffffffffffffffffffffffff1673ffffffffffffffffffffffffffffffffffffffff16815260200190815260200160002060008a73ffffffffffffffffffffffffffffffffffffffff1673ffffffffffffffffffffffffffffffffffffffff168152602001908152602001600020819055508960020160008787815181101515612abe57fe5b9060200190602002015173ffffffffffffffffffffffffffffffffffffffff1673ffffffffffffffffffffffffffffffffffffffff1681526020019081526020016000208054806001018281612b149190613186565b9160005260206000209060020201600060408051908101604052808c73ffffffffffffffffffffffffffffffffffffffff1681526020018b815250909190915060008201518160000160006101000a81548173ffffffffffffffffffffffffffffffffffffffff021916908373ffffffffffffffffffffffffffffffffffffffff160217905550602082015181600101555050505b612c32878b60020160008989815181101515612bc157fe5b9060200190602002015173ffffffffffffffffffffffffffffffffffffffff1673ffffffffffffffffffffffffffffffffffffffff16815260200190815260200160002086815481101515612c1257fe5b906000526020600020906002020160010154612ccb90919063ffffffff16565b8a60020160008888815181101515612c4657fe5b9060200190602002015173ffffffffffffffffffffffffffffffffffffffff1673ffffffffffffffffffffffffffffffffffffffff16815260200190815260200160002085815481101515612c9757fe5b906000526020600020906002020160010181905550612cbf565b848060019003955050611a90565b50505050505050505050565b6000828211151515612cd957fe5b818303905092915050565b6000806000612d4160018760020160008773ffffffffffffffffffffffffffffffffffffffff1673ffffffffffffffffffffffffffffffffffffffff16815260200190815260200160002080549050612ccb90919063ffffffff16565b92508560020160008573ffffffffffffffffffffffffffffffffffffffff1673ffffffffffffffffffffffffffffffffffffffff16815260200190815260200160002083815481101515612d9157fe5b906000526020600020906002020160000160009054906101000a900473ffffffffffffffffffffffffffffffffffffffff1691508473ffffffffffffffffffffffffffffffffffffffff168273ffffffffffffffffffffffffffffffffffffffff1614151561302b578560030160008573ffffffffffffffffffffffffffffffffffffffff1673ffffffffffffffffffffffffffffffffffffffff16815260200190815260200160002060008673ffffffffffffffffffffffffffffffffffffffff1673ffffffffffffffffffffffffffffffffffffffff168152602001908152602001600020549050808660030160008673ffffffffffffffffffffffffffffffffffffffff1673ffffffffffffffffffffffffffffffffffffffff16815260200190815260200160002060008473ffffffffffffffffffffffffffffffffffffffff1673ffffffffffffffffffffffffffffffffffffffff168152602001908152602001600020819055508560020160008573ffffffffffffffffffffffffffffffffffffffff1673ffffffffffffffffffffffffffffffffffffffff16815260200190815260200160002083815481101515612f4c57fe5b90600052602060002090600202018660020160008673ffffffffffffffffffffffffffffffffffffffff1673ffffffffffffffffffffffffffffffffffffffff16815260200190815260200160002082815481101515612fa857fe5b90600052602060002090600202016000820160009054906101000a900473ffffffffffffffffffffffffffffffffffffffff168160000160006101000a81548173ffffffffffffffffffffffffffffffffffffffff021916908373ffffffffffffffffffffffffffffffffffffffff160217905550600182015481600101559050505b8560030160008573ffffffffffffffffffffffffffffffffffffffff1673ffffffffffffffffffffffffffffffffffffffff16815260200190815260200160002060008673ffffffffffffffffffffffffffffffffffffffff1673ffffffffffffffffffffffffffffffffffffffff1681526020019081526020016000206000905561310560018760020160008773ffffffffffffffffffffffffffffffffffffffff1673ffffffffffffffffffffffffffffffffffffffff16815260200190815260200160002080549050612ccb90919063ffffffff16565b8660020160008673ffffffffffffffffffffffffffffffffffffffff1673ffffffffffffffffffffffffffffffffffffffff168152602001908152602001600020816131519190613228565b50505050505050565b81548183558181151161318157818360005260206000209182019101613180919061325a565b5b505050565b8154818355818115116131b3576002028160020283600052602060002091820191016131b2919061327f565b5b505050565b602060405190810160405280600081525090565b6040805190810160405280600073ffffffffffffffffffffffffffffffffffffffff168152602001600081525090565b81548183558181151161322357818360005260206000209182019101613222919061325a565b5b505050565b81548183558181151161325557600202816002028360005260206000209182019101613254919061327f565b5b505050565b61327c91905b80821115613278576000816000905550600101613260565b5090565b90565b6132ca91905b808211156132c657600080820160006101000a81549073ffffffffffffffffffffffffffffffffffffffff0219169055600182016000905550600201613285565b5090565b905600a165627a7a723058202dec781eceb08c5313165f8ed83b99bb01a9e2ae1dcf6d05c8f35e9e143dad080029",
  "source": "pragma solidity ^0.4.21;\r\n\r\nimport \"./SafeMath.sol\";\r\nimport \"../interfaces/Factory_Interface.sol\";\r\n\r\n/**\r\n*The DRCT_Token is an ERC20 compliant token representing the payout of the swap contract\r\n*specified in the Factory contract.\r\n*Each Factory contract is specified one DRCT Token and the token address can contain many\r\n*different swap contracts that are standardized at the Factory level.\r\n*/\r\nlibrary DRCTLibrary{\r\n\r\n    using SafeMath for uint256;\r\n\r\n    /*Structs*/\r\n    /**\r\n    *@dev Keeps track of balance amounts in the balances array\r\n    */\r\n    struct Balance {\r\n        address owner;\r\n        uint amount;\r\n        }\r\n\r\n    struct TokenStorage{\r\n        //This is the factory contract that the token is standardized at\r\n        address master_contract;\r\n        //Total supply of outstanding tokens in the contract\r\n        uint total_supply;\r\n        //Mapping from: swap address -> user balance struct (index for a particular user's balance can be found in swap_balances_index)\r\n        mapping(address => Balance[]) swap_balances;\r\n        //Mapping from: swap address -> user -> swap_balances index\r\n        mapping(address => mapping(address => uint)) swap_balances_index;\r\n        //Mapping from: user -> dynamic array of swap addresses (index for a particular swap can be found in user_swaps_index)\r\n        mapping(address => address[]) user_swaps;\r\n        //Mapping from: user -> swap address -> user_swaps index\r\n        mapping(address => mapping(address => uint)) user_swaps_index;\r\n        //Mapping from: user -> total balance accross all entered swaps\r\n        mapping(address => uint) user_total_balances;\r\n        //Mapping from: owner -> spender -> amount allowed\r\n        mapping(address => mapping(address => uint)) allowed;\r\n    }   \r\n\r\n    /*Events*/\r\n    /**\r\n    *@dev events for transfer and approvals\r\n    */\r\n    event Transfer(address indexed _from, address indexed _to, uint _value);\r\n    event Approval(address indexed _owner, address indexed _spender, uint _value);\r\n    event CreateToken(address _from, uint _value);\r\n    \r\n    /*Functions*/\r\n    /**\r\n    *@dev Constructor - sets values for token name and token supply, as well as the \r\n    *master_contract, the swap.\r\n    *@param _factory \r\n    */\r\n    function startToken(TokenStorage storage self,address _factory) public {\r\n        self.master_contract = _factory;\r\n    }\r\n\r\n    function isWhitelisted(TokenStorage storage self,address _member) internal view returns(bool){\r\n        Factory_Interface _factory = Factory_Interface(self.master_contract);\r\n        return _factory.isWhitelisted(_member);\r\n    }\r\n\r\n  /**\r\n    *@dev Token Creator - This function is called by the factory contract and creates new tokens\r\n    *for the user\r\n    *@param _supply amount of DRCT tokens created by the factory contract for this swap\r\n    *@param _owner\r\n    *@param _swap\r\n  */\r\n  function createToken(TokenStorage storage self,uint _supply, address _owner, address _swap) public{\r\n    require(msg.sender == self.master_contract);\r\n        //Update total supply of DRCT Tokens\r\n        self.total_supply = self.total_supply.add(_supply);\r\n        //Update the total balance of the owner\r\n        self.user_total_balances[_owner] = self.user_total_balances[_owner].add(_supply);\r\n        //If the user has not entered any swaps already, push a zeroed address to their user_swaps mapping to prevent default value conflicts in user_swaps_index\r\n        if (self.user_swaps[_owner].length == 0)\r\n            self.user_swaps[_owner].push(address(0x0));\r\n        //Add a new swap index for the owner\r\n        self.user_swaps_index[_owner][_swap] = self.user_swaps[_owner].length;\r\n        //Push a new swap address to the owner's swaps\r\n        self.user_swaps[_owner].push(_swap);\r\n        //Push a zeroed Balance struct to the swap balances mapping to prevent default value conflicts in swap_balances_index\r\n        self.swap_balances[_swap].push(Balance({\r\n            owner: 0,\r\n            amount: 0\r\n        }));\r\n        //Add a new owner balance index for the swap\r\n        self.swap_balances_index[_swap][_owner] = 1;\r\n        //Push the owner's balance to the swap\r\n        self.swap_balances[_swap].push(Balance({\r\n            owner: _owner,\r\n            amount: _supply\r\n        }));\r\n        emit CreateToken(_owner,_supply);\r\n    }\r\n\r\n    /**\r\n    *@dev Called by the factory contract, and pays out to a _party\r\n    *@param _party being paid\r\n    *@param _swap\r\n    */\r\n    function pay(TokenStorage storage self,address _party, address _swap) public{\r\n        require(msg.sender == self.master_contract);\r\n        uint party_balance_index = self.swap_balances_index[_swap][_party];\r\n        uint party_swap_balance = self.swap_balances[_swap][party_balance_index].amount;\r\n        //reduces the users totals balance by the amount in that swap\r\n        self.user_total_balances[_party] = self.user_total_balances[_party].sub(party_swap_balance);\r\n        //reduces the total supply by the amount of that users in that swap\r\n        self.total_supply = self.total_supply.sub(party_swap_balance);\r\n        //sets the partys balance to zero for that specific swaps party balances\r\n        self.swap_balances[_swap][party_balance_index].amount = 0;\r\n    }\r\n\r\n    /**\r\n    *@dev Returns the users total balance (sum of tokens in all swaps the user has tokens in)\r\n    *@param _owner user address\r\n    *@return user total balance\r\n    */\r\n    function balanceOf(TokenStorage storage self,address _owner) public constant returns (uint balance) {\r\n       return self.user_total_balances[_owner]; \r\n     }\r\n\r\n    /**\r\n    *@dev Getter for the total_supply of tokens in the contract\r\n    *@return total supply\r\n    */\r\n    function totalSupply(TokenStorage storage self) public constant returns (uint _total_supply) {\r\n       return self.total_supply;\r\n    }\r\n\r\n    /**\r\n    *@dev Removes the address from the swap balances for a swap, and moves the last address in the\r\n    *swap into their place\r\n    *@param _remove address of prevous owner\r\n    *@param _swap address used to get last addrss of the swap to replace the removed address\r\n    */\r\n    function removeFromSwapBalances(TokenStorage storage self,address _remove, address _swap) internal {\r\n        uint last_address_index = self.swap_balances[_swap].length.sub(1);\r\n        address last_address = self.swap_balances[_swap][last_address_index].owner;\r\n        //If the address we want to remove is the final address in the swap\r\n        if (last_address != _remove) {\r\n            uint remove_index = self.swap_balances_index[_swap][_remove];\r\n            //Update the swap's balance index of the last address to that of the removed address index\r\n            self.swap_balances_index[_swap][last_address] = remove_index;\r\n            //Set the swap's Balance struct at the removed index to the Balance struct of the last address\r\n            self.swap_balances[_swap][remove_index] = self.swap_balances[_swap][last_address_index];\r\n        }\r\n        //Remove the swap_balances index for this address\r\n        delete self.swap_balances_index[_swap][_remove];\r\n        //Finally, decrement the swap balances length\r\n        self.swap_balances[_swap].length = self.swap_balances[_swap].length.sub(1);\r\n    }\r\n\r\n    /**\r\n    *@dev This is the main function to update the mappings when a transfer happens\r\n    *@param _from address to send funds from\r\n    *@param _to address to send funds to\r\n    *@param _amount amount of token to send\r\n    */\r\n    function transferHelper(TokenStorage storage self,address _from, address _to, uint _amount) internal {\r\n        //Get memory copies of the swap arrays for the sender and reciever\r\n        address[] memory from_swaps = self.user_swaps[_from];\r\n        //Iterate over sender's swaps in reverse order until enough tokens have been transferred\r\n        for (uint i = from_swaps.length.sub(1); i > 0; i--) {\r\n            //Get the index of the sender's balance for the current swap\r\n            uint from_swap_user_index = self.swap_balances_index[from_swaps[i]][_from];\r\n            Balance memory from_user_bal = self.swap_balances[from_swaps[i]][from_swap_user_index];\r\n            //If the current swap will be entirely depleted - we remove all references to it for the sender\r\n            if (_amount >= from_user_bal.amount) {\r\n                _amount -= from_user_bal.amount;\r\n                //If this swap is to be removed, we know it is the (current) last swap in the user's user_swaps list, so we can simply decrement the length to remove it\r\n                self.user_swaps[_from].length = self.user_swaps[_from].length.sub(1);\r\n                //Remove the user swap index for this swap\r\n                delete self.user_swaps_index[_from][from_swaps[i]];\r\n                //If the _to address already holds tokens from this swap\r\n                if (self.user_swaps_index[_to][from_swaps[i]] != 0) {\r\n                    //Get the index of the _to balance in this swap\r\n                    uint to_balance_index = self.swap_balances_index[from_swaps[i]][_to];\r\n                    assert(to_balance_index != 0);\r\n                    //Add the _from tokens to _to\r\n                    self.swap_balances[from_swaps[i]][to_balance_index].amount = self.swap_balances[from_swaps[i]][to_balance_index].amount.add(from_user_bal.amount);\r\n                    //Remove the _from address from this swap's balance array\r\n                    removeFromSwapBalances(self,_from, from_swaps[i]);\r\n                } else {\r\n                    //Prepare to add a new swap by assigning the swap an index for _to\r\n                    if (self.user_swaps[_to].length == 0){\r\n                        self.user_swaps[_to].push(address(0x0));\r\n                    }\r\n                self.user_swaps_index[_to][from_swaps[i]] = self.user_swaps[_to].length;\r\n                //Add the new swap to _to\r\n                self.user_swaps[_to].push(from_swaps[i]);\r\n                //Give the reciever the sender's balance for this swap\r\n                self.swap_balances[from_swaps[i]][from_swap_user_index].owner = _to;\r\n                //Give the reciever the sender's swap balance index for this swap\r\n                self.swap_balances_index[from_swaps[i]][_to] = self.swap_balances_index[from_swaps[i]][_from];\r\n                //Remove the swap balance index from the sending party\r\n                delete self.swap_balances_index[from_swaps[i]][_from];\r\n            }\r\n            //If there is no more remaining to be removed, we break out of the loop\r\n            if (_amount == 0)\r\n                break;\r\n            } else {\r\n                //The amount in this swap is more than the amount we still need to transfer\r\n                uint to_swap_balance_index = self.swap_balances_index[from_swaps[i]][_to];\r\n                //If the _to address already holds tokens from this swap\r\n                if (self.user_swaps_index[_to][from_swaps[i]] != 0) {\r\n                    //Because both addresses are in this swap, and neither will be removed, we simply update both swap balances\r\n                    self.swap_balances[from_swaps[i]][to_swap_balance_index].amount = self.swap_balances[from_swaps[i]][to_swap_balance_index].amount.add(_amount);\r\n                } else {\r\n                    //Prepare to add a new swap by assigning the swap an index for _to\r\n                    if (self.user_swaps[_to].length == 0){\r\n                        self.user_swaps[_to].push(address(0x0));\r\n                    }\r\n                    self.user_swaps_index[_to][from_swaps[i]] = self.user_swaps[_to].length;\r\n                    //And push the new swap\r\n                    self.user_swaps[_to].push(from_swaps[i]);\r\n                    //_to is not in this swap, so we give this swap a new balance index for _to\r\n                    self.swap_balances_index[from_swaps[i]][_to] = self.swap_balances[from_swaps[i]].length;\r\n                    //And push a new balance for _to\r\n                    self.swap_balances[from_swaps[i]].push(Balance({\r\n                        owner: _to,\r\n                        amount: _amount\r\n                    }));\r\n                }\r\n                //Finally, update the _from user's swap balance\r\n                self.swap_balances[from_swaps[i]][from_swap_user_index].amount = self.swap_balances[from_swaps[i]][from_swap_user_index].amount.sub(_amount);\r\n                //Because we have transferred the last of the amount to the reciever, we break;\r\n                break;\r\n            }\r\n        }\r\n    }\r\n\r\n\r\n    /**\r\n    *ERC20 compliant transfer function\r\n    *@param _to Address to send funds to\r\n    *@param _amount Amount of token to send\r\n    *@return true for successful\r\n    */\r\n    function transfer(TokenStorage storage self, address _to, uint _amount) public returns (bool) {\r\n        require(isWhitelisted(self,_to));\r\n        uint balance_owner = self.user_total_balances[msg.sender];\r\n        if (\r\n            _to == msg.sender ||\r\n            _to == address(0) ||\r\n            _amount == 0 ||\r\n            balance_owner < _amount\r\n        ) return false;\r\n        transferHelper(self,msg.sender, _to, _amount);\r\n        self.user_total_balances[msg.sender] = self.user_total_balances[msg.sender].sub(_amount);\r\n        self.user_total_balances[_to] = self.user_total_balances[_to].add(_amount);\r\n        emit Transfer(msg.sender, _to, _amount);\r\n        return true;\r\n    }\r\n    /**\r\n    *@dev ERC20 compliant transferFrom function\r\n    *@param _from address to send funds from (must be allowed, see approve function)\r\n    *@param _to address to send funds to\r\n    *@param _amount amount of token to send\r\n    *@return true for successful\r\n    */\r\n    function transferFrom(TokenStorage storage self, address _from, address _to, uint _amount) public returns (bool) {\r\n        require(isWhitelisted(self,_to));\r\n        uint balance_owner = self.user_total_balances[_from];\r\n        uint sender_allowed = self.allowed[_from][msg.sender];\r\n        if (\r\n            _to == _from ||\r\n            _to == address(0) ||\r\n            _amount == 0 ||\r\n            balance_owner < _amount ||\r\n            sender_allowed < _amount\r\n        ) return false;\r\n        transferHelper(self,_from, _to, _amount);\r\n        self.user_total_balances[_from] = self.user_total_balances[_from].sub(_amount);\r\n        self.user_total_balances[_to] = self.user_total_balances[_to].add(_amount);\r\n        self.allowed[_from][msg.sender] = self.allowed[_from][msg.sender].sub(_amount);\r\n        emit Transfer(_from, _to, _amount);\r\n        return true;\r\n    }\r\n\r\n    /**\r\n    *@dev ERC20 compliant approve function\r\n    *@param _spender party that msg.sender approves for transferring funds\r\n    *@param _amount amount of token to approve for sending\r\n    *@return true for successful\r\n    */\r\n    function approve(TokenStorage storage self, address _spender, uint _amount) public returns (bool) {\r\n        self.allowed[msg.sender][_spender] = _amount;\r\n        emit Approval(msg.sender, _spender, _amount);\r\n        return true;\r\n    }\r\n\r\n    /**\r\n    *@dev Counts addresses involved in the swap based on the length of balances array for _swap\r\n    *@param _swap address\r\n    *@return the length of the balances array for the swap\r\n    */\r\n    function addressCount(TokenStorage storage self, address _swap) public constant returns (uint) { \r\n        return self.swap_balances[_swap].length; \r\n    }\r\n\r\n    /**\r\n    *@dev Gets the owner address and amount by specifying the swap address and index\r\n    *@param _ind specified index in the swap\r\n    *@param _swap specified swap address\r\n    *@return the owner address associated with a particular index in a particular swap\r\n    *@return the amount to transfer associated with a particular index in a particular swap\r\n    */\r\n    function getBalanceAndHolderByIndex(TokenStorage storage self, uint _ind, address _swap) public constant returns (uint, address) {\r\n        return (self.swap_balances[_swap][_ind].amount, self.swap_balances[_swap][_ind].owner);\r\n    }\r\n\r\n    /**\r\n    *@dev Gets the index by specifying the swap and owner addresses\r\n    *@param _owner specifed address\r\n    *@param _swap  specified swap address\r\n    *@return the index associated with the _owner address in a particular swap\r\n    */\r\n    function getIndexByAddress(TokenStorage storage self, address _owner, address _swap) public constant returns (uint) {\r\n        return self.swap_balances_index[_swap][_owner]; \r\n    }\r\n\r\n    /**\r\n    *@dev Look up how much the spender or contract is allowed to spend?\r\n    *@param _owner \r\n    *@param _spender party or contract? approved for transfering funds \r\n    *@return the allowed amount _spender can spend of _owner's balance\r\n    */\r\n    function allowance(TokenStorage storage self, address _owner, address _spender) public constant returns (uint) {\r\n        return self.allowed[_owner][_spender]; \r\n    }\r\n}",
  "sourcePath": "C:\\company\\code\\drct_standard\\contracts\\libraries\\DRCTLibrary.sol",
  "compiler": {
    "name": "solc",
    "version": "0.4.21+commit.dfe3193c.Emscripten.clang"
  },
  "schemaVersion": "2.0.0",
  "updatedAt": "2018-05-11T20:21:06.720Z"
}