{
  "contractName": "DRCTLibrary",
  "abi": [
    {
      "anonymous": false,
      "inputs": [
        {
          "indexed": true,
          "name": "_from",
          "type": "address"
        },
        {
          "indexed": true,
          "name": "_to",
          "type": "address"
        },
        {
          "indexed": false,
          "name": "_value",
          "type": "uint256"
        }
      ],
      "name": "Transfer",
      "type": "event"
    },
    {
      "anonymous": false,
      "inputs": [
        {
          "indexed": true,
          "name": "_owner",
          "type": "address"
        },
        {
          "indexed": true,
          "name": "_spender",
          "type": "address"
        },
        {
          "indexed": false,
          "name": "_value",
          "type": "uint256"
        }
      ],
      "name": "Approval",
      "type": "event"
    },
    {
      "anonymous": false,
      "inputs": [
        {
          "indexed": false,
          "name": "_from",
          "type": "address"
        },
        {
          "indexed": false,
          "name": "_value",
          "type": "uint256"
        }
      ],
      "name": "CreateToken",
      "type": "event"
    },
    {
      "constant": false,
      "inputs": [
        {
          "name": "self",
          "type": "DRCTLibrary.TokenStorage storage"
        },
        {
          "name": "_factory",
          "type": "address"
        }
      ],
      "name": "startToken",
      "outputs": [],
      "payable": false,
      "stateMutability": "nonpayable",
      "type": "function"
    },
    {
      "constant": false,
      "inputs": [
        {
          "name": "self",
          "type": "DRCTLibrary.TokenStorage storage"
        },
        {
          "name": "_supply",
          "type": "uint256"
        },
        {
          "name": "_owner",
          "type": "address"
        },
        {
          "name": "_swap",
          "type": "address"
        }
      ],
      "name": "createToken",
      "outputs": [],
      "payable": false,
      "stateMutability": "nonpayable",
      "type": "function"
    },
    {
      "constant": false,
      "inputs": [
        {
          "name": "self",
          "type": "DRCTLibrary.TokenStorage storage"
        },
        {
          "name": "_party",
          "type": "address"
        },
        {
          "name": "_swap",
          "type": "address"
        }
      ],
      "name": "pay",
      "outputs": [],
      "payable": false,
      "stateMutability": "nonpayable",
      "type": "function"
    },
    {
      "constant": true,
      "inputs": [
        {
          "name": "self",
          "type": "DRCTLibrary.TokenStorage storage"
        },
        {
          "name": "_owner",
          "type": "address"
        }
      ],
      "name": "balanceOf",
      "outputs": [
        {
          "name": "balance",
          "type": "uint256"
        }
      ],
      "payable": false,
      "stateMutability": "view",
      "type": "function"
    },
    {
      "constant": true,
      "inputs": [
        {
          "name": "self",
          "type": "DRCTLibrary.TokenStorage storage"
        }
      ],
      "name": "totalSupply",
      "outputs": [
        {
          "name": "_total_supply",
          "type": "uint256"
        }
      ],
      "payable": false,
      "stateMutability": "view",
      "type": "function"
    },
    {
      "constant": false,
      "inputs": [
        {
          "name": "self",
          "type": "DRCTLibrary.TokenStorage storage"
        },
        {
          "name": "_to",
          "type": "address"
        },
        {
          "name": "_amount",
          "type": "uint256"
        }
      ],
      "name": "transfer",
      "outputs": [
        {
          "name": "",
          "type": "bool"
        }
      ],
      "payable": false,
      "stateMutability": "nonpayable",
      "type": "function"
    },
    {
      "constant": false,
      "inputs": [
        {
          "name": "self",
          "type": "DRCTLibrary.TokenStorage storage"
        },
        {
          "name": "_from",
          "type": "address"
        },
        {
          "name": "_to",
          "type": "address"
        },
        {
          "name": "_amount",
          "type": "uint256"
        }
      ],
      "name": "transferFrom",
      "outputs": [
        {
          "name": "",
          "type": "bool"
        }
      ],
      "payable": false,
      "stateMutability": "nonpayable",
      "type": "function"
    },
    {
      "constant": false,
      "inputs": [
        {
          "name": "self",
          "type": "DRCTLibrary.TokenStorage storage"
        },
        {
          "name": "_spender",
          "type": "address"
        },
        {
          "name": "_amount",
          "type": "uint256"
        }
      ],
      "name": "approve",
      "outputs": [
        {
          "name": "",
          "type": "bool"
        }
      ],
      "payable": false,
      "stateMutability": "nonpayable",
      "type": "function"
    },
    {
      "constant": true,
      "inputs": [
        {
          "name": "self",
          "type": "DRCTLibrary.TokenStorage storage"
        },
        {
          "name": "_swap",
          "type": "address"
        }
      ],
      "name": "addressCount",
      "outputs": [
        {
          "name": "",
          "type": "uint256"
        }
      ],
      "payable": false,
      "stateMutability": "view",
      "type": "function"
    },
    {
      "constant": true,
      "inputs": [
        {
          "name": "self",
          "type": "DRCTLibrary.TokenStorage storage"
        },
        {
          "name": "_ind",
          "type": "uint256"
        },
        {
          "name": "_swap",
          "type": "address"
        }
      ],
      "name": "getBalanceAndHolderByIndex",
      "outputs": [
        {
          "name": "",
          "type": "uint256"
        },
        {
          "name": "",
          "type": "address"
        }
      ],
      "payable": false,
      "stateMutability": "view",
      "type": "function"
    },
    {
      "constant": true,
      "inputs": [
        {
          "name": "self",
          "type": "DRCTLibrary.TokenStorage storage"
        },
        {
          "name": "_owner",
          "type": "address"
        },
        {
          "name": "_swap",
          "type": "address"
        }
      ],
      "name": "getIndexByAddress",
      "outputs": [
        {
          "name": "",
          "type": "uint256"
        }
      ],
      "payable": false,
      "stateMutability": "view",
      "type": "function"
    },
    {
      "constant": true,
      "inputs": [
        {
          "name": "self",
          "type": "DRCTLibrary.TokenStorage storage"
        },
        {
          "name": "_owner",
          "type": "address"
        },
        {
          "name": "_spender",
          "type": "address"
        }
      ],
      "name": "allowance",
      "outputs": [
        {
          "name": "",
          "type": "uint256"
        }
      ],
      "payable": false,
      "stateMutability": "view",
      "type": "function"
    }
  ],
  "bytecode": "0x613348610030600b82828239805160001a6073146000811461002057610022565bfe5b5030600052607381538281f30073000000000000000000000000000000000000000030146080604052600436106100d1576000357c0100000000000000000000000000000000000000000000000000000000900463ffffffff16806326f0385d146100d65780632b545c681461014d5780632eff549c146101a157806334aeb164146102305780634538d2c6146102c1578063486e556914610330578063ad4848d21461039d578063b1020f37146103ea578063bf435c371461045e578063d973df86146104d2578063e2d6434614610506578063f2b156db1461055a575b600080fd5b8180156100e257600080fd5b5061014b6004803603810190808035906020019092919080359060200190929190803573ffffffffffffffffffffffffffffffffffffffff169060200190929190803573ffffffffffffffffffffffffffffffffffffffff1690602001909291905050506105c9565b005b61018b60048036038101908080359060200190929190803573ffffffffffffffffffffffffffffffffffffffff169060200190929190505050610c0c565b6040518082815260200191505060405180910390f35b8180156101ad57600080fd5b5061021660048036038101908080359060200190929190803573ffffffffffffffffffffffffffffffffffffffff169060200190929190803573ffffffffffffffffffffffffffffffffffffffff16906020019092919080359060200190929190505050610c5b565b604051808215151515815260200191505060405180910390f35b6102786004803603810190808035906020019092919080359060200190929190803573ffffffffffffffffffffffffffffffffffffffff169060200190929190505050611092565b604051808381526020018273ffffffffffffffffffffffffffffffffffffffff1673ffffffffffffffffffffffffffffffffffffffff1681526020019250505060405180910390f35b8180156102cd57600080fd5b5061031660048036038101908080359060200190929190803573ffffffffffffffffffffffffffffffffffffffff16906020019092919080359060200190929190505050611181565b604051808215151515815260200191505060405180910390f35b81801561033c57600080fd5b5061039b60048036038101908080359060200190929190803573ffffffffffffffffffffffffffffffffffffffff169060200190929190803573ffffffffffffffffffffffffffffffffffffffff169060200190929190505050611276565b005b8180156103a957600080fd5b506103e860048036038101908080359060200190929190803573ffffffffffffffffffffffffffffffffffffffff1690602001909291905050506114de565b005b61044860048036038101908080359060200190929190803573ffffffffffffffffffffffffffffffffffffffff169060200190929190803573ffffffffffffffffffffffffffffffffffffffff169060200190929190505050611525565b6040518082815260200191505060405180910390f35b6104bc60048036038101908080359060200190929190803573ffffffffffffffffffffffffffffffffffffffff169060200190929190803573ffffffffffffffffffffffffffffffffffffffff1690602001909291905050506115af565b6040518082815260200191505060405180910390f35b6104f060048036038101908080359060200190929190505050611639565b6040518082815260200191505060405180910390f35b61054460048036038101908080359060200190929190803573ffffffffffffffffffffffffffffffffffffffff169060200190929190505050611647565b6040518082815260200191505060405180910390f35b81801561056657600080fd5b506105af60048036038101908080359060200190929190803573ffffffffffffffffffffffffffffffffffffffff16906020019092919080359060200190929190505050611693565b604051808215151515815260200191505060405180910390f35b8360000160009054906101000a900473ffffffffffffffffffffffffffffffffffffffff1673ffffffffffffffffffffffffffffffffffffffff163373ffffffffffffffffffffffffffffffffffffffff1614151561062757600080fd5b61063e83856001015461192890919063ffffffff16565b846001018190555061069a838560060160008573ffffffffffffffffffffffffffffffffffffffff1673ffffffffffffffffffffffffffffffffffffffff1681526020019081526020016000205461192890919063ffffffff16565b8460060160008473ffffffffffffffffffffffffffffffffffffffff1673ffffffffffffffffffffffffffffffffffffffff1681526020019081526020016000208190555060008460040160008473ffffffffffffffffffffffffffffffffffffffff1673ffffffffffffffffffffffffffffffffffffffff1681526020019081526020016000208054905014156107d3578360040160008373ffffffffffffffffffffffffffffffffffffffff1673ffffffffffffffffffffffffffffffffffffffff168152602001908152602001600020600090806001815401808255809150509060018203906000526020600020016000909192909190916101000a81548173ffffffffffffffffffffffffffffffffffffffff021916908373ffffffffffffffffffffffffffffffffffffffff160217905550505b8360040160008373ffffffffffffffffffffffffffffffffffffffff1673ffffffffffffffffffffffffffffffffffffffff168152602001908152602001600020805490508460050160008473ffffffffffffffffffffffffffffffffffffffff1673ffffffffffffffffffffffffffffffffffffffff16815260200190815260200160002060008373ffffffffffffffffffffffffffffffffffffffff1673ffffffffffffffffffffffffffffffffffffffff168152602001908152602001600020819055508360040160008373ffffffffffffffffffffffffffffffffffffffff1673ffffffffffffffffffffffffffffffffffffffff1681526020019081526020016000208190806001815401808255809150509060018203906000526020600020016000909192909190916101000a81548173ffffffffffffffffffffffffffffffffffffffff021916908373ffffffffffffffffffffffffffffffffffffffff160217905550508360020160008273ffffffffffffffffffffffffffffffffffffffff1673ffffffffffffffffffffffffffffffffffffffff1681526020019081526020016000206040805190810160405280600073ffffffffffffffffffffffffffffffffffffffff16815260200160008152509080600181540180825580915050906001820390600052602060002090600202016000909192909190915060008201518160000160006101000a81548173ffffffffffffffffffffffffffffffffffffffff021916908373ffffffffffffffffffffffffffffffffffffffff1602179055506020820151816001015550505060018460030160008373ffffffffffffffffffffffffffffffffffffffff1673ffffffffffffffffffffffffffffffffffffffff16815260200190815260200160002060008473ffffffffffffffffffffffffffffffffffffffff1673ffffffffffffffffffffffffffffffffffffffff168152602001908152602001600020819055508360020160008273ffffffffffffffffffffffffffffffffffffffff1673ffffffffffffffffffffffffffffffffffffffff16815260200190815260200160002060408051908101604052808473ffffffffffffffffffffffffffffffffffffffff168152602001858152509080600181540180825580915050906001820390600052602060002090600202016000909192909190915060008201518160000160006101000a81548173ffffffffffffffffffffffffffffffffffffffff021916908373ffffffffffffffffffffffffffffffffffffffff160217905550602082015181600101555050507fb378e89b40ac5bbe0e2241b596fbe1adc3cf1fb7c982aa1b4560165cf264ee938284604051808373ffffffffffffffffffffffffffffffffffffffff1673ffffffffffffffffffffffffffffffffffffffff1681526020018281526020019250505060405180910390a150505050565b60008260020160008373ffffffffffffffffffffffffffffffffffffffff1673ffffffffffffffffffffffffffffffffffffffff16815260200190815260200160002080549050905092915050565b6000806000610c6a8786611946565b1515610c7557600080fd5b8660060160008773ffffffffffffffffffffffffffffffffffffffff1673ffffffffffffffffffffffffffffffffffffffff1681526020019081526020016000205491508660070160008773ffffffffffffffffffffffffffffffffffffffff1673ffffffffffffffffffffffffffffffffffffffff16815260200190815260200160002060003373ffffffffffffffffffffffffffffffffffffffff1673ffffffffffffffffffffffffffffffffffffffff1681526020019081526020016000205490508573ffffffffffffffffffffffffffffffffffffffff168573ffffffffffffffffffffffffffffffffffffffff161480610da05750600073ffffffffffffffffffffffffffffffffffffffff168573ffffffffffffffffffffffffffffffffffffffff16145b80610dab5750600084145b80610db557508382105b80610dbf57508381105b15610dcd5760009250611088565b610dd987878787611a4f565b610e2d848860060160008973ffffffffffffffffffffffffffffffffffffffff1673ffffffffffffffffffffffffffffffffffffffff16815260200190815260200160002054612d8c90919063ffffffff16565b8760060160008873ffffffffffffffffffffffffffffffffffffffff1673ffffffffffffffffffffffffffffffffffffffff16815260200190815260200160002081905550610ec6848860060160008873ffffffffffffffffffffffffffffffffffffffff1673ffffffffffffffffffffffffffffffffffffffff1681526020019081526020016000205461192890919063ffffffff16565b8760060160008773ffffffffffffffffffffffffffffffffffffffff1673ffffffffffffffffffffffffffffffffffffffff16815260200190815260200160002081905550610f9c848860070160008973ffffffffffffffffffffffffffffffffffffffff1673ffffffffffffffffffffffffffffffffffffffff16815260200190815260200160002060003373ffffffffffffffffffffffffffffffffffffffff1673ffffffffffffffffffffffffffffffffffffffff16815260200190815260200160002054612d8c90919063ffffffff16565b8760070160008873ffffffffffffffffffffffffffffffffffffffff1673ffffffffffffffffffffffffffffffffffffffff16815260200190815260200160002060003373ffffffffffffffffffffffffffffffffffffffff1673ffffffffffffffffffffffffffffffffffffffff168152602001908152602001600020819055508473ffffffffffffffffffffffffffffffffffffffff168673ffffffffffffffffffffffffffffffffffffffff167fddf252ad1be2c89b69c2b068fc378daa952ba7f163c4a11628f55a4df523b3ef866040518082815260200191505060405180910390a3600192505b5050949350505050565b6000808460020160008473ffffffffffffffffffffffffffffffffffffffff1673ffffffffffffffffffffffffffffffffffffffff168152602001908152602001600020848154811015156110e357fe5b9060005260206000209060020201600101548560020160008573ffffffffffffffffffffffffffffffffffffffff1673ffffffffffffffffffffffffffffffffffffffff1681526020019081526020016000208581548110151561114357fe5b906000526020600020906002020160000160009054906101000a900473ffffffffffffffffffffffffffffffffffffffff1691509150935093915050565b6000818460070160003373ffffffffffffffffffffffffffffffffffffffff1673ffffffffffffffffffffffffffffffffffffffff16815260200190815260200160002060008573ffffffffffffffffffffffffffffffffffffffff1673ffffffffffffffffffffffffffffffffffffffff168152602001908152602001600020819055508273ffffffffffffffffffffffffffffffffffffffff163373ffffffffffffffffffffffffffffffffffffffff167f8c5be1e5ebec7d5bd14f71427d1e84f3dd0314c0f7b2291e5b200ac8c7c3b925846040518082815260200191505060405180910390a3600190509392505050565b6000808460000160009054906101000a900473ffffffffffffffffffffffffffffffffffffffff1673ffffffffffffffffffffffffffffffffffffffff163373ffffffffffffffffffffffffffffffffffffffff161415156112d757600080fd5b8460030160008473ffffffffffffffffffffffffffffffffffffffff1673ffffffffffffffffffffffffffffffffffffffff16815260200190815260200160002060008573ffffffffffffffffffffffffffffffffffffffff1673ffffffffffffffffffffffffffffffffffffffff1681526020019081526020016000205491508460020160008473ffffffffffffffffffffffffffffffffffffffff1673ffffffffffffffffffffffffffffffffffffffff168152602001908152602001600020828154811015156113a657fe5b906000526020600020906002020160010154905061140e818660060160008773ffffffffffffffffffffffffffffffffffffffff1673ffffffffffffffffffffffffffffffffffffffff16815260200190815260200160002054612d8c90919063ffffffff16565b8560060160008673ffffffffffffffffffffffffffffffffffffffff1673ffffffffffffffffffffffffffffffffffffffff1681526020019081526020016000208190555061146a818660010154612d8c90919063ffffffff16565b856001018190555060008560020160008573ffffffffffffffffffffffffffffffffffffffff1673ffffffffffffffffffffffffffffffffffffffff168152602001908152602001600020838154811015156114c257fe5b9060005260206000209060020201600101819055505050505050565b808260000160006101000a81548173ffffffffffffffffffffffffffffffffffffffff021916908373ffffffffffffffffffffffffffffffffffffffff1602179055505050565b60008360070160008473ffffffffffffffffffffffffffffffffffffffff1673ffffffffffffffffffffffffffffffffffffffff16815260200190815260200160002060008373ffffffffffffffffffffffffffffffffffffffff1673ffffffffffffffffffffffffffffffffffffffff1681526020019081526020016000205490509392505050565b60008360030160008373ffffffffffffffffffffffffffffffffffffffff1673ffffffffffffffffffffffffffffffffffffffff16815260200190815260200160002060008473ffffffffffffffffffffffffffffffffffffffff1673ffffffffffffffffffffffffffffffffffffffff1681526020019081526020016000205490509392505050565b600081600101549050919050565b60008260060160008373ffffffffffffffffffffffffffffffffffffffff1673ffffffffffffffffffffffffffffffffffffffff16815260200190815260200160002054905092915050565b6000806116a08585611946565b15156116ab57600080fd5b8460060160003373ffffffffffffffffffffffffffffffffffffffff1673ffffffffffffffffffffffffffffffffffffffff1681526020019081526020016000205490503373ffffffffffffffffffffffffffffffffffffffff168473ffffffffffffffffffffffffffffffffffffffff1614806117555750600073ffffffffffffffffffffffffffffffffffffffff168473ffffffffffffffffffffffffffffffffffffffff16145b806117605750600083145b8061176a57508281105b156117785760009150611920565b61178485338686611a4f565b6117d8838660060160003373ffffffffffffffffffffffffffffffffffffffff1673ffffffffffffffffffffffffffffffffffffffff16815260200190815260200160002054612d8c90919063ffffffff16565b8560060160003373ffffffffffffffffffffffffffffffffffffffff1673ffffffffffffffffffffffffffffffffffffffff16815260200190815260200160002081905550611871838660060160008773ffffffffffffffffffffffffffffffffffffffff1673ffffffffffffffffffffffffffffffffffffffff1681526020019081526020016000205461192890919063ffffffff16565b8560060160008673ffffffffffffffffffffffffffffffffffffffff1673ffffffffffffffffffffffffffffffffffffffff168152602001908152602001600020819055508373ffffffffffffffffffffffffffffffffffffffff163373ffffffffffffffffffffffffffffffffffffffff167fddf252ad1be2c89b69c2b068fc378daa952ba7f163c4a11628f55a4df523b3ef856040518082815260200191505060405180910390a3600191505b509392505050565b600080828401905083811015151561193c57fe5b8091505092915050565b6000808360000160009054906101000a900473ffffffffffffffffffffffffffffffffffffffff1690508073ffffffffffffffffffffffffffffffffffffffff16633af32abf846040518263ffffffff167c0100000000000000000000000000000000000000000000000000000000028152600401808273ffffffffffffffffffffffffffffffffffffffff1673ffffffffffffffffffffffffffffffffffffffff168152602001915050602060405180830381600087803b158015611a0b57600080fd5b505af1158015611a1f573d6000803e3d6000fd5b505050506040513d6020811015611a3557600080fd5b810190808051906020019092919050505091505092915050565b6060600080611a5c61321b565b6000808960040160008a73ffffffffffffffffffffffffffffffffffffffff1673ffffffffffffffffffffffffffffffffffffffff168152602001908152602001600020805480602002602001604051908101604052809291908181526020018280548015611b2057602002820191906000526020600020905b8160009054906101000a900473ffffffffffffffffffffffffffffffffffffffff1673ffffffffffffffffffffffffffffffffffffffff1681526020019060010190808311611ad6575b50505050509550611b3c60018751612d8c90919063ffffffff16565b94505b6000851115612d80578960030160008787815181101515611b5c57fe5b9060200190602002015173ffffffffffffffffffffffffffffffffffffffff1673ffffffffffffffffffffffffffffffffffffffff16815260200190815260200160002060008a73ffffffffffffffffffffffffffffffffffffffff1673ffffffffffffffffffffffffffffffffffffffff1681526020019081526020016000205493508960020160008787815181101515611bf457fe5b9060200190602002015173ffffffffffffffffffffffffffffffffffffffff1673ffffffffffffffffffffffffffffffffffffffff16815260200190815260200160002084815481101515611c4557fe5b90600052602060002090600202016040805190810160405290816000820160009054906101000a900473ffffffffffffffffffffffffffffffffffffffff1673ffffffffffffffffffffffffffffffffffffffff1673ffffffffffffffffffffffffffffffffffffffff16815260200160018201548152505092508260200151871015156125a557826020015187039650611d2e60018b60040160008c73ffffffffffffffffffffffffffffffffffffffff1673ffffffffffffffffffffffffffffffffffffffff16815260200190815260200160002080549050612d8c90919063ffffffff16565b8a60040160008b73ffffffffffffffffffffffffffffffffffffffff1673ffffffffffffffffffffffffffffffffffffffff16815260200190815260200160002081611d7a919061324b565b508960050160008a73ffffffffffffffffffffffffffffffffffffffff1673ffffffffffffffffffffffffffffffffffffffff16815260200190815260200160002060008787815181101515611dcc57fe5b9060200190602002015173ffffffffffffffffffffffffffffffffffffffff1673ffffffffffffffffffffffffffffffffffffffff1681526020019081526020016000206000905560008a60050160008a73ffffffffffffffffffffffffffffffffffffffff1673ffffffffffffffffffffffffffffffffffffffff16815260200190815260200160002060008888815181101515611e6757fe5b9060200190602002015173ffffffffffffffffffffffffffffffffffffffff1673ffffffffffffffffffffffffffffffffffffffff16815260200190815260200160002054141515612086578960030160008787815181101515611ec757fe5b9060200190602002015173ffffffffffffffffffffffffffffffffffffffff1673ffffffffffffffffffffffffffffffffffffffff16815260200190815260200160002060008973ffffffffffffffffffffffffffffffffffffffff1673ffffffffffffffffffffffffffffffffffffffff16815260200190815260200160002054915060008214151515611f5857fe5b611fe583602001518b60020160008989815181101515611f7457fe5b9060200190602002015173ffffffffffffffffffffffffffffffffffffffff1673ffffffffffffffffffffffffffffffffffffffff16815260200190815260200160002084815481101515611fc557fe5b90600052602060002090600202016001015461192890919063ffffffff16565b8a60020160008888815181101515611ff957fe5b9060200190602002015173ffffffffffffffffffffffffffffffffffffffff1673ffffffffffffffffffffffffffffffffffffffff1681526020019081526020016000208381548110151561204a57fe5b9060005260206000209060020201600101819055506120818a8a888881518110151561207257fe5b90602001906020020151612da5565b612592565b60008a60040160008a73ffffffffffffffffffffffffffffffffffffffff1673ffffffffffffffffffffffffffffffffffffffff16815260200190815260200160002080549050141561217a578960040160008973ffffffffffffffffffffffffffffffffffffffff1673ffffffffffffffffffffffffffffffffffffffff168152602001908152602001600020600090806001815401808255809150509060018203906000526020600020016000909192909190916101000a81548173ffffffffffffffffffffffffffffffffffffffff021916908373ffffffffffffffffffffffffffffffffffffffff160217905550505b8960040160008973ffffffffffffffffffffffffffffffffffffffff1673ffffffffffffffffffffffffffffffffffffffff168152602001908152602001600020805490508a60050160008a73ffffffffffffffffffffffffffffffffffffffff1673ffffffffffffffffffffffffffffffffffffffff1681526020019081526020016000206000888881518110151561221057fe5b9060200190602002015173ffffffffffffffffffffffffffffffffffffffff1673ffffffffffffffffffffffffffffffffffffffff168152602001908152602001600020819055508960040160008973ffffffffffffffffffffffffffffffffffffffff1673ffffffffffffffffffffffffffffffffffffffff16815260200190815260200160002086868151811015156122a757fe5b9060200190602002015190806001815401808255809150509060018203906000526020600020016000909192909190916101000a81548173ffffffffffffffffffffffffffffffffffffffff021916908373ffffffffffffffffffffffffffffffffffffffff16021790555050878a6002016000888881518110151561232957fe5b9060200190602002015173ffffffffffffffffffffffffffffffffffffffff1673ffffffffffffffffffffffffffffffffffffffff1681526020019081526020016000208581548110151561237a57fe5b906000526020600020906002020160000160006101000a81548173ffffffffffffffffffffffffffffffffffffffff021916908373ffffffffffffffffffffffffffffffffffffffff16021790555089600301600087878151811015156123dd57fe5b9060200190602002015173ffffffffffffffffffffffffffffffffffffffff1673ffffffffffffffffffffffffffffffffffffffff16815260200190815260200160002060008a73ffffffffffffffffffffffffffffffffffffffff1673ffffffffffffffffffffffffffffffffffffffff168152602001908152602001600020548a6003016000888881518110151561247357fe5b9060200190602002015173ffffffffffffffffffffffffffffffffffffffff1673ffffffffffffffffffffffffffffffffffffffff16815260200190815260200160002060008a73ffffffffffffffffffffffffffffffffffffffff1673ffffffffffffffffffffffffffffffffffffffff16815260200190815260200160002081905550896003016000878781518110151561250c57fe5b9060200190602002015173ffffffffffffffffffffffffffffffffffffffff1673ffffffffffffffffffffffffffffffffffffffff16815260200190815260200160002060008a73ffffffffffffffffffffffffffffffffffffffff1673ffffffffffffffffffffffffffffffffffffffff168152602001908152602001600020600090555b60008714156125a057612d80565b612d72565b89600301600087878151811015156125b957fe5b9060200190602002015173ffffffffffffffffffffffffffffffffffffffff1673ffffffffffffffffffffffffffffffffffffffff16815260200190815260200160002060008973ffffffffffffffffffffffffffffffffffffffff1673ffffffffffffffffffffffffffffffffffffffff16815260200190815260200160002054905060008a60050160008a73ffffffffffffffffffffffffffffffffffffffff1673ffffffffffffffffffffffffffffffffffffffff1681526020019081526020016000206000888881518110151561269057fe5b9060200190602002015173ffffffffffffffffffffffffffffffffffffffff1673ffffffffffffffffffffffffffffffffffffffff168152602001908152602001600020541415156127e457612765878b600201600089898151811015156126f457fe5b9060200190602002015173ffffffffffffffffffffffffffffffffffffffff1673ffffffffffffffffffffffffffffffffffffffff1681526020019081526020016000208381548110151561274557fe5b90600052602060002090600202016001015461192890919063ffffffff16565b8a6002016000888881518110151561277957fe5b9060200190602002015173ffffffffffffffffffffffffffffffffffffffff1673ffffffffffffffffffffffffffffffffffffffff168152602001908152602001600020828154811015156127ca57fe5b906000526020600020906002020160010181905550612c6a565b60008a60040160008a73ffffffffffffffffffffffffffffffffffffffff1673ffffffffffffffffffffffffffffffffffffffff1681526020019081526020016000208054905014156128d8578960040160008973ffffffffffffffffffffffffffffffffffffffff1673ffffffffffffffffffffffffffffffffffffffff168152602001908152602001600020600090806001815401808255809150509060018203906000526020600020016000909192909190916101000a81548173ffffffffffffffffffffffffffffffffffffffff021916908373ffffffffffffffffffffffffffffffffffffffff160217905550505b8960040160008973ffffffffffffffffffffffffffffffffffffffff1673ffffffffffffffffffffffffffffffffffffffff168152602001908152602001600020805490508a60050160008a73ffffffffffffffffffffffffffffffffffffffff1673ffffffffffffffffffffffffffffffffffffffff1681526020019081526020016000206000888881518110151561296e57fe5b9060200190602002015173ffffffffffffffffffffffffffffffffffffffff1673ffffffffffffffffffffffffffffffffffffffff168152602001908152602001600020819055508960040160008973ffffffffffffffffffffffffffffffffffffffff1673ffffffffffffffffffffffffffffffffffffffff1681526020019081526020016000208686815181101515612a0557fe5b9060200190602002015190806001815401808255809150509060018203906000526020600020016000909192909190916101000a81548173ffffffffffffffffffffffffffffffffffffffff021916908373ffffffffffffffffffffffffffffffffffffffff160217905550508960020160008787815181101515612a8657fe5b9060200190602002015173ffffffffffffffffffffffffffffffffffffffff1673ffffffffffffffffffffffffffffffffffffffff168152602001908152602001600020805490508a60030160008888815181101515612ae257fe5b9060200190602002015173ffffffffffffffffffffffffffffffffffffffff1673ffffffffffffffffffffffffffffffffffffffff16815260200190815260200160002060008a73ffffffffffffffffffffffffffffffffffffffff1673ffffffffffffffffffffffffffffffffffffffff168152602001908152602001600020819055508960020160008787815181101515612b7b57fe5b9060200190602002015173ffffffffffffffffffffffffffffffffffffffff1673ffffffffffffffffffffffffffffffffffffffff16815260200190815260200160002060408051908101604052808a73ffffffffffffffffffffffffffffffffffffffff168152602001898152509080600181540180825580915050906001820390600052602060002090600202016000909192909190915060008201518160000160006101000a81548173ffffffffffffffffffffffffffffffffffffffff021916908373ffffffffffffffffffffffffffffffffffffffff160217905550602082015181600101555050505b612cf3878b60020160008989815181101515612c8257fe5b9060200190602002015173ffffffffffffffffffffffffffffffffffffffff1673ffffffffffffffffffffffffffffffffffffffff16815260200190815260200160002086815481101515612cd357fe5b906000526020600020906002020160010154612d8c90919063ffffffff16565b8a60020160008888815181101515612d0757fe5b9060200190602002015173ffffffffffffffffffffffffffffffffffffffff1673ffffffffffffffffffffffffffffffffffffffff16815260200190815260200160002085815481101515612d5857fe5b906000526020600020906002020160010181905550612d80565b848060019003955050611b3f565b50505050505050505050565b6000828211151515612d9a57fe5b818303905092915050565b6000806000612e0260018760020160008773ffffffffffffffffffffffffffffffffffffffff1673ffffffffffffffffffffffffffffffffffffffff16815260200190815260200160002080549050612d8c90919063ffffffff16565b92508560020160008573ffffffffffffffffffffffffffffffffffffffff1673ffffffffffffffffffffffffffffffffffffffff16815260200190815260200160002083815481101515612e5257fe5b906000526020600020906002020160000160009054906101000a900473ffffffffffffffffffffffffffffffffffffffff1691508473ffffffffffffffffffffffffffffffffffffffff168273ffffffffffffffffffffffffffffffffffffffff161415156130ec578560030160008573ffffffffffffffffffffffffffffffffffffffff1673ffffffffffffffffffffffffffffffffffffffff16815260200190815260200160002060008673ffffffffffffffffffffffffffffffffffffffff1673ffffffffffffffffffffffffffffffffffffffff168152602001908152602001600020549050808660030160008673ffffffffffffffffffffffffffffffffffffffff1673ffffffffffffffffffffffffffffffffffffffff16815260200190815260200160002060008473ffffffffffffffffffffffffffffffffffffffff1673ffffffffffffffffffffffffffffffffffffffff168152602001908152602001600020819055508560020160008573ffffffffffffffffffffffffffffffffffffffff1673ffffffffffffffffffffffffffffffffffffffff1681526020019081526020016000208381548110151561300d57fe5b90600052602060002090600202018660020160008673ffffffffffffffffffffffffffffffffffffffff1673ffffffffffffffffffffffffffffffffffffffff1681526020019081526020016000208281548110151561306957fe5b90600052602060002090600202016000820160009054906101000a900473ffffffffffffffffffffffffffffffffffffffff168160000160006101000a81548173ffffffffffffffffffffffffffffffffffffffff021916908373ffffffffffffffffffffffffffffffffffffffff160217905550600182015481600101559050505b8560030160008573ffffffffffffffffffffffffffffffffffffffff1673ffffffffffffffffffffffffffffffffffffffff16815260200190815260200160002060008673ffffffffffffffffffffffffffffffffffffffff1673ffffffffffffffffffffffffffffffffffffffff168152602001908152602001600020600090556131c660018760020160008773ffffffffffffffffffffffffffffffffffffffff1673ffffffffffffffffffffffffffffffffffffffff16815260200190815260200160002080549050612d8c90919063ffffffff16565b8660020160008673ffffffffffffffffffffffffffffffffffffffff1673ffffffffffffffffffffffffffffffffffffffff168152602001908152602001600020816132129190613277565b50505050505050565b6040805190810160405280600073ffffffffffffffffffffffffffffffffffffffff168152602001600081525090565b8154818355818111156132725781836000526020600020918201910161327191906132a9565b5b505050565b8154818355818111156132a4576002028160020283600052602060002091820191016132a391906132ce565b5b505050565b6132cb91905b808211156132c75760008160009055506001016132af565b5090565b90565b61331991905b8082111561331557600080820160006101000a81549073ffffffffffffffffffffffffffffffffffffffff02191690556001820160009055506002016132d4565b5090565b905600a165627a7a723058202f7f474a621f3b98e3a1ab9207cc51f50bd3dca259d9acdaa955096c339094210029",
  "source": "pragma solidity ^0.4.21;\r\n\r\nimport \"./SafeMath.sol\";\r\nimport \"../interfaces/Factory_Interface.sol\";\r\n\r\n/**\r\n*The DRCT_Token is an ERC20 compliant token representing the payout of the swap contract\r\n*specified in the Factory contract.\r\n*Each Factory contract is specified one DRCT Token and the token address can contain many\r\n*different swap contracts that are standardized at the Factory level.\r\n*/\r\nlibrary DRCTLibrary{\r\n\r\n    using SafeMath for uint256;\r\n\r\n    /*Structs*/\r\n    /**\r\n    *@dev Keeps track of balance amounts in the balances array\r\n    */\r\n    struct Balance {\r\n        address owner;\r\n        uint amount;\r\n        }\r\n\r\n    struct TokenStorage{\r\n        //This is the factory contract that the token is standardized at\r\n        address master_contract;\r\n        //Total supply of outstanding tokens in the contract\r\n        uint total_supply;\r\n        //Mapping from: swap address -> user balance struct (index for a particular user's balance can be found in swap_balances_index)\r\n        mapping(address => Balance[]) swap_balances;\r\n        //Mapping from: swap address -> user -> swap_balances index\r\n        mapping(address => mapping(address => uint)) swap_balances_index;\r\n        //Mapping from: user -> dynamic array of swap addresses (index for a particular swap can be found in user_swaps_index)\r\n        mapping(address => address[]) user_swaps;\r\n        //Mapping from: user -> swap address -> user_swaps index\r\n        mapping(address => mapping(address => uint)) user_swaps_index;\r\n        //Mapping from: user -> total balance accross all entered swaps\r\n        mapping(address => uint) user_total_balances;\r\n        //Mapping from: owner -> spender -> amount allowed\r\n        mapping(address => mapping(address => uint)) allowed;\r\n    }   \r\n\r\n    /*Events*/\r\n    /**\r\n    *@dev events for transfer and approvals\r\n    */\r\n    event Transfer(address indexed _from, address indexed _to, uint _value);\r\n    event Approval(address indexed _owner, address indexed _spender, uint _value);\r\n    event CreateToken(address _from, uint _value);\r\n    \r\n    /*Functions*/\r\n    /**\r\n    *@dev Constructor - sets values for token name and token supply, as well as the \r\n    *master_contract, the swap.\r\n    *@param _factory \r\n    */\r\n    function startToken(TokenStorage storage self,address _factory) public {\r\n        self.master_contract = _factory;\r\n    }\r\n\r\n    function isWhitelisted(TokenStorage storage self,address _member) internal view returns(bool){\r\n        Factory_Interface _factory = Factory_Interface(self.master_contract);\r\n        return _factory.isWhitelisted(_member);\r\n    }\r\n\r\n  /**\r\n    *@dev Token Creator - This function is called by the factory contract and creates new tokens\r\n    *for the user\r\n    *@param _supply amount of DRCT tokens created by the factory contract for this swap\r\n    *@param _owner\r\n    *@param _swap\r\n  */\r\n  function createToken(TokenStorage storage self,uint _supply, address _owner, address _swap) public{\r\n    require(msg.sender == self.master_contract);\r\n        //Update total supply of DRCT Tokens\r\n        self.total_supply = self.total_supply.add(_supply);\r\n        //Update the total balance of the owner\r\n        self.user_total_balances[_owner] = self.user_total_balances[_owner].add(_supply);\r\n        //If the user has not entered any swaps already, push a zeroed address to their user_swaps mapping to prevent default value conflicts in user_swaps_index\r\n        if (self.user_swaps[_owner].length == 0)\r\n            self.user_swaps[_owner].push(address(0x0));\r\n        //Add a new swap index for the owner\r\n        self.user_swaps_index[_owner][_swap] = self.user_swaps[_owner].length;\r\n        //Push a new swap address to the owner's swaps\r\n        self.user_swaps[_owner].push(_swap);\r\n        //Push a zeroed Balance struct to the swap balances mapping to prevent default value conflicts in swap_balances_index\r\n        self.swap_balances[_swap].push(Balance({\r\n            owner: 0,\r\n            amount: 0\r\n        }));\r\n        //Add a new owner balance index for the swap\r\n        self.swap_balances_index[_swap][_owner] = 1;\r\n        //Push the owner's balance to the swap\r\n        self.swap_balances[_swap].push(Balance({\r\n            owner: _owner,\r\n            amount: _supply\r\n        }));\r\n        emit CreateToken(_owner,_supply);\r\n    }\r\n\r\n    /**\r\n    *@dev Called by the factory contract, and pays out to a _party\r\n    *@param _party being paid\r\n    *@param _swap\r\n    */\r\n    function pay(TokenStorage storage self,address _party, address _swap) public{\r\n        require(msg.sender == self.master_contract);\r\n        uint party_balance_index = self.swap_balances_index[_swap][_party];\r\n        uint party_swap_balance = self.swap_balances[_swap][party_balance_index].amount;\r\n        //reduces the users totals balance by the amount in that swap\r\n        self.user_total_balances[_party] = self.user_total_balances[_party].sub(party_swap_balance);\r\n        //reduces the total supply by the amount of that users in that swap\r\n        self.total_supply = self.total_supply.sub(party_swap_balance);\r\n        //sets the partys balance to zero for that specific swaps party balances\r\n        self.swap_balances[_swap][party_balance_index].amount = 0;\r\n    }\r\n\r\n    /**\r\n    *@dev Returns the users total balance (sum of tokens in all swaps the user has tokens in)\r\n    *@param _owner user address\r\n    *@return user total balance\r\n    */\r\n    function balanceOf(TokenStorage storage self,address _owner) public constant returns (uint balance) {\r\n       return self.user_total_balances[_owner]; \r\n     }\r\n\r\n    /**\r\n    *@dev Getter for the total_supply of tokens in the contract\r\n    *@return total supply\r\n    */\r\n    function totalSupply(TokenStorage storage self) public constant returns (uint _total_supply) {\r\n       return self.total_supply;\r\n    }\r\n\r\n    /**\r\n    *@dev Removes the address from the swap balances for a swap, and moves the last address in the\r\n    *swap into their place\r\n    *@param _remove address of prevous owner\r\n    *@param _swap address used to get last addrss of the swap to replace the removed address\r\n    */\r\n    function removeFromSwapBalances(TokenStorage storage self,address _remove, address _swap) internal {\r\n        uint last_address_index = self.swap_balances[_swap].length.sub(1);\r\n        address last_address = self.swap_balances[_swap][last_address_index].owner;\r\n        //If the address we want to remove is the final address in the swap\r\n        if (last_address != _remove) {\r\n            uint remove_index = self.swap_balances_index[_swap][_remove];\r\n            //Update the swap's balance index of the last address to that of the removed address index\r\n            self.swap_balances_index[_swap][last_address] = remove_index;\r\n            //Set the swap's Balance struct at the removed index to the Balance struct of the last address\r\n            self.swap_balances[_swap][remove_index] = self.swap_balances[_swap][last_address_index];\r\n        }\r\n        //Remove the swap_balances index for this address\r\n        delete self.swap_balances_index[_swap][_remove];\r\n        //Finally, decrement the swap balances length\r\n        self.swap_balances[_swap].length = self.swap_balances[_swap].length.sub(1);\r\n    }\r\n\r\n    /**\r\n    *@dev This is the main function to update the mappings when a transfer happens\r\n    *@param _from address to send funds from\r\n    *@param _to address to send funds to\r\n    *@param _amount amount of token to send\r\n    */\r\n    function transferHelper(TokenStorage storage self,address _from, address _to, uint _amount) internal {\r\n        //Get memory copies of the swap arrays for the sender and reciever\r\n        address[] memory from_swaps = self.user_swaps[_from];\r\n        //Iterate over sender's swaps in reverse order until enough tokens have been transferred\r\n        for (uint i = from_swaps.length.sub(1); i > 0; i--) {\r\n            //Get the index of the sender's balance for the current swap\r\n            uint from_swap_user_index = self.swap_balances_index[from_swaps[i]][_from];\r\n            Balance memory from_user_bal = self.swap_balances[from_swaps[i]][from_swap_user_index];\r\n            //If the current swap will be entirely depleted - we remove all references to it for the sender\r\n            if (_amount >= from_user_bal.amount) {\r\n                _amount -= from_user_bal.amount;\r\n                //If this swap is to be removed, we know it is the (current) last swap in the user's user_swaps list, so we can simply decrement the length to remove it\r\n                self.user_swaps[_from].length = self.user_swaps[_from].length.sub(1);\r\n                //Remove the user swap index for this swap\r\n                delete self.user_swaps_index[_from][from_swaps[i]];\r\n                //If the _to address already holds tokens from this swap\r\n                if (self.user_swaps_index[_to][from_swaps[i]] != 0) {\r\n                    //Get the index of the _to balance in this swap\r\n                    uint to_balance_index = self.swap_balances_index[from_swaps[i]][_to];\r\n                    assert(to_balance_index != 0);\r\n                    //Add the _from tokens to _to\r\n                    self.swap_balances[from_swaps[i]][to_balance_index].amount = self.swap_balances[from_swaps[i]][to_balance_index].amount.add(from_user_bal.amount);\r\n                    //Remove the _from address from this swap's balance array\r\n                    removeFromSwapBalances(self,_from, from_swaps[i]);\r\n                } else {\r\n                    //Prepare to add a new swap by assigning the swap an index for _to\r\n                    if (self.user_swaps[_to].length == 0){\r\n                        self.user_swaps[_to].push(address(0x0));\r\n                    }\r\n                self.user_swaps_index[_to][from_swaps[i]] = self.user_swaps[_to].length;\r\n                //Add the new swap to _to\r\n                self.user_swaps[_to].push(from_swaps[i]);\r\n                //Give the reciever the sender's balance for this swap\r\n                self.swap_balances[from_swaps[i]][from_swap_user_index].owner = _to;\r\n                //Give the reciever the sender's swap balance index for this swap\r\n                self.swap_balances_index[from_swaps[i]][_to] = self.swap_balances_index[from_swaps[i]][_from];\r\n                //Remove the swap balance index from the sending party\r\n                delete self.swap_balances_index[from_swaps[i]][_from];\r\n            }\r\n            //If there is no more remaining to be removed, we break out of the loop\r\n            if (_amount == 0)\r\n                break;\r\n            } else {\r\n                //The amount in this swap is more than the amount we still need to transfer\r\n                uint to_swap_balance_index = self.swap_balances_index[from_swaps[i]][_to];\r\n                //If the _to address already holds tokens from this swap\r\n                if (self.user_swaps_index[_to][from_swaps[i]] != 0) {\r\n                    //Because both addresses are in this swap, and neither will be removed, we simply update both swap balances\r\n                    self.swap_balances[from_swaps[i]][to_swap_balance_index].amount = self.swap_balances[from_swaps[i]][to_swap_balance_index].amount.add(_amount);\r\n                } else {\r\n                    //Prepare to add a new swap by assigning the swap an index for _to\r\n                    if (self.user_swaps[_to].length == 0){\r\n                        self.user_swaps[_to].push(address(0x0));\r\n                    }\r\n                    self.user_swaps_index[_to][from_swaps[i]] = self.user_swaps[_to].length;\r\n                    //And push the new swap\r\n                    self.user_swaps[_to].push(from_swaps[i]);\r\n                    //_to is not in this swap, so we give this swap a new balance index for _to\r\n                    self.swap_balances_index[from_swaps[i]][_to] = self.swap_balances[from_swaps[i]].length;\r\n                    //And push a new balance for _to\r\n                    self.swap_balances[from_swaps[i]].push(Balance({\r\n                        owner: _to,\r\n                        amount: _amount\r\n                    }));\r\n                }\r\n                //Finally, update the _from user's swap balance\r\n                self.swap_balances[from_swaps[i]][from_swap_user_index].amount = self.swap_balances[from_swaps[i]][from_swap_user_index].amount.sub(_amount);\r\n                //Because we have transferred the last of the amount to the reciever, we break;\r\n                break;\r\n            }\r\n        }\r\n    }\r\n\r\n\r\n    /**\r\n    *ERC20 compliant transfer function\r\n    *@param _to Address to send funds to\r\n    *@param _amount Amount of token to send\r\n    *@return true for successful\r\n    */\r\n    function transfer(TokenStorage storage self, address _to, uint _amount) public returns (bool) {\r\n        require(isWhitelisted(self,_to));\r\n        uint balance_owner = self.user_total_balances[msg.sender];\r\n        if (\r\n            _to == msg.sender ||\r\n            _to == address(0) ||\r\n            _amount == 0 ||\r\n            balance_owner < _amount\r\n        ) return false;\r\n        transferHelper(self,msg.sender, _to, _amount);\r\n        self.user_total_balances[msg.sender] = self.user_total_balances[msg.sender].sub(_amount);\r\n        self.user_total_balances[_to] = self.user_total_balances[_to].add(_amount);\r\n        emit Transfer(msg.sender, _to, _amount);\r\n        return true;\r\n    }\r\n    /**\r\n    *@dev ERC20 compliant transferFrom function\r\n    *@param _from address to send funds from (must be allowed, see approve function)\r\n    *@param _to address to send funds to\r\n    *@param _amount amount of token to send\r\n    *@return true for successful\r\n    */\r\n    function transferFrom(TokenStorage storage self, address _from, address _to, uint _amount) public returns (bool) {\r\n        require(isWhitelisted(self,_to));\r\n        uint balance_owner = self.user_total_balances[_from];\r\n        uint sender_allowed = self.allowed[_from][msg.sender];\r\n        if (\r\n            _to == _from ||\r\n            _to == address(0) ||\r\n            _amount == 0 ||\r\n            balance_owner < _amount ||\r\n            sender_allowed < _amount\r\n        ) return false;\r\n        transferHelper(self,_from, _to, _amount);\r\n        self.user_total_balances[_from] = self.user_total_balances[_from].sub(_amount);\r\n        self.user_total_balances[_to] = self.user_total_balances[_to].add(_amount);\r\n        self.allowed[_from][msg.sender] = self.allowed[_from][msg.sender].sub(_amount);\r\n        emit Transfer(_from, _to, _amount);\r\n        return true;\r\n    }\r\n\r\n    /**\r\n    *@dev ERC20 compliant approve function\r\n    *@param _spender party that msg.sender approves for transferring funds\r\n    *@param _amount amount of token to approve for sending\r\n    *@return true for successful\r\n    */\r\n    function approve(TokenStorage storage self, address _spender, uint _amount) public returns (bool) {\r\n        self.allowed[msg.sender][_spender] = _amount;\r\n        emit Approval(msg.sender, _spender, _amount);\r\n        return true;\r\n    }\r\n\r\n    /**\r\n    *@dev Counts addresses involved in the swap based on the length of balances array for _swap\r\n    *@param _swap address\r\n    *@return the length of the balances array for the swap\r\n    */\r\n    function addressCount(TokenStorage storage self, address _swap) public constant returns (uint) { \r\n        return self.swap_balances[_swap].length; \r\n    }\r\n\r\n    /**\r\n    *@dev Gets the owner address and amount by specifying the swap address and index\r\n    *@param _ind specified index in the swap\r\n    *@param _swap specified swap address\r\n    *@return the owner address associated with a particular index in a particular swap\r\n    *@return the amount to transfer associated with a particular index in a particular swap\r\n    */\r\n    function getBalanceAndHolderByIndex(TokenStorage storage self, uint _ind, address _swap) public constant returns (uint, address) {\r\n        return (self.swap_balances[_swap][_ind].amount, self.swap_balances[_swap][_ind].owner);\r\n    }\r\n\r\n    /**\r\n    *@dev Gets the index by specifying the swap and owner addresses\r\n    *@param _owner specifed address\r\n    *@param _swap  specified swap address\r\n    *@return the index associated with the _owner address in a particular swap\r\n    */\r\n    function getIndexByAddress(TokenStorage storage self, address _owner, address _swap) public constant returns (uint) {\r\n        return self.swap_balances_index[_swap][_owner]; \r\n    }\r\n\r\n    /**\r\n    *@dev Look up how much the spender or contract is allowed to spend?\r\n    *@param _owner \r\n    *@param _spender party or contract? approved for transfering funds \r\n    *@return the allowed amount _spender can spend of _owner's balance\r\n    */\r\n    function allowance(TokenStorage storage self, address _owner, address _spender) public constant returns (uint) {\r\n        return self.allowed[_owner][_spender]; \r\n    }\r\n}",
  "sourcePath": "C:\\company\\code\\drct_standard\\contracts\\libraries\\DRCTLibrary.sol",
  "compiler": {
    "name": "solc",
    "version": "0.4.24+commit.e67f0147.Emscripten.clang"
  },
  "schemaVersion": "2.0.0",
  "updatedAt": "2018-06-05T17:04:24.531Z"
}