{
  "contractName": "DRCT_Token",
  "abi": [
    {
      "constant": true,
      "inputs": [],
      "name": "master_contract",
      "outputs": [
        {
          "name": "",
          "type": "address"
        }
      ],
      "payable": false,
      "stateMutability": "view",
      "type": "function"
    },
    {
      "constant": true,
      "inputs": [],
      "name": "total_supply",
      "outputs": [
        {
          "name": "",
          "type": "uint256"
        }
      ],
      "payable": false,
      "stateMutability": "view",
      "type": "function"
    },
    {
      "inputs": [
        {
          "name": "_factory",
          "type": "address"
        }
      ],
      "payable": false,
      "stateMutability": "nonpayable",
      "type": "constructor"
    },
    {
      "anonymous": false,
      "inputs": [
        {
          "indexed": true,
          "name": "_from",
          "type": "address"
        },
        {
          "indexed": true,
          "name": "_to",
          "type": "address"
        },
        {
          "indexed": false,
          "name": "_value",
          "type": "uint256"
        }
      ],
      "name": "Transfer",
      "type": "event"
    },
    {
      "anonymous": false,
      "inputs": [
        {
          "indexed": true,
          "name": "_owner",
          "type": "address"
        },
        {
          "indexed": true,
          "name": "_spender",
          "type": "address"
        },
        {
          "indexed": false,
          "name": "_value",
          "type": "uint256"
        }
      ],
      "name": "Approval",
      "type": "event"
    },
    {
      "anonymous": false,
      "inputs": [
        {
          "indexed": false,
          "name": "_from",
          "type": "address"
        },
        {
          "indexed": false,
          "name": "_value",
          "type": "uint256"
        }
      ],
      "name": "CreateToken",
      "type": "event"
    },
    {
      "constant": false,
      "inputs": [
        {
          "name": "_supply",
          "type": "uint256"
        },
        {
          "name": "_owner",
          "type": "address"
        },
        {
          "name": "_swap",
          "type": "address"
        }
      ],
      "name": "createToken",
      "outputs": [],
      "payable": false,
      "stateMutability": "nonpayable",
      "type": "function"
    },
    {
      "constant": false,
      "inputs": [
        {
          "name": "_party",
          "type": "address"
        },
        {
          "name": "_swap",
          "type": "address"
        }
      ],
      "name": "pay",
      "outputs": [],
      "payable": false,
      "stateMutability": "nonpayable",
      "type": "function"
    },
    {
      "constant": true,
      "inputs": [
        {
          "name": "_owner",
          "type": "address"
        }
      ],
      "name": "balanceOf",
      "outputs": [
        {
          "name": "balance",
          "type": "uint256"
        }
      ],
      "payable": false,
      "stateMutability": "view",
      "type": "function"
    },
    {
      "constant": true,
      "inputs": [],
      "name": "totalSupply",
      "outputs": [
        {
          "name": "_total_supply",
          "type": "uint256"
        }
      ],
      "payable": false,
      "stateMutability": "view",
      "type": "function"
    },
    {
      "constant": false,
      "inputs": [
        {
          "name": "_to",
          "type": "address"
        },
        {
          "name": "_amount",
          "type": "uint256"
        }
      ],
      "name": "transfer",
      "outputs": [
        {
          "name": "",
          "type": "bool"
        }
      ],
      "payable": false,
      "stateMutability": "nonpayable",
      "type": "function"
    },
    {
      "constant": false,
      "inputs": [
        {
          "name": "_from",
          "type": "address"
        },
        {
          "name": "_to",
          "type": "address"
        },
        {
          "name": "_amount",
          "type": "uint256"
        }
      ],
      "name": "transferFrom",
      "outputs": [
        {
          "name": "",
          "type": "bool"
        }
      ],
      "payable": false,
      "stateMutability": "nonpayable",
      "type": "function"
    },
    {
      "constant": false,
      "inputs": [
        {
          "name": "_spender",
          "type": "address"
        },
        {
          "name": "_amount",
          "type": "uint256"
        }
      ],
      "name": "approve",
      "outputs": [
        {
          "name": "",
          "type": "bool"
        }
      ],
      "payable": false,
      "stateMutability": "nonpayable",
      "type": "function"
    },
    {
      "constant": true,
      "inputs": [
        {
          "name": "_swap",
          "type": "address"
        }
      ],
      "name": "addressCount",
      "outputs": [
        {
          "name": "",
          "type": "uint256"
        }
      ],
      "payable": false,
      "stateMutability": "view",
      "type": "function"
    },
    {
      "constant": true,
      "inputs": [
        {
          "name": "_ind",
          "type": "uint256"
        },
        {
          "name": "_swap",
          "type": "address"
        }
      ],
      "name": "getHolderByIndex",
      "outputs": [
        {
          "name": "",
          "type": "address"
        }
      ],
      "payable": false,
      "stateMutability": "view",
      "type": "function"
    },
    {
      "constant": true,
      "inputs": [
        {
          "name": "_ind",
          "type": "uint256"
        },
        {
          "name": "_swap",
          "type": "address"
        }
      ],
      "name": "getBalanceByIndex",
      "outputs": [
        {
          "name": "",
          "type": "uint256"
        }
      ],
      "payable": false,
      "stateMutability": "view",
      "type": "function"
    },
    {
      "constant": true,
      "inputs": [
        {
          "name": "_owner",
          "type": "address"
        },
        {
          "name": "_swap",
          "type": "address"
        }
      ],
      "name": "getIndexByAddress",
      "outputs": [
        {
          "name": "",
          "type": "uint256"
        }
      ],
      "payable": false,
      "stateMutability": "view",
      "type": "function"
    },
    {
      "constant": true,
      "inputs": [
        {
          "name": "_owner",
          "type": "address"
        },
        {
          "name": "_spender",
          "type": "address"
        }
      ],
      "name": "allowance",
      "outputs": [
        {
          "name": "",
          "type": "uint256"
        }
      ],
      "payable": false,
      "stateMutability": "view",
      "type": "function"
    }
  ],
  "bytecode": "0x6060604052341561000f57600080fd5b6040516020806131f983398101604052808051906020019091905050806000806101000a81548173ffffffffffffffffffffffffffffffffffffffff021916908373ffffffffffffffffffffffffffffffffffffffff1602179055505061317e8061007b6000396000f3006060604052600436106100d0576000357c0100000000000000000000000000000000000000000000000000000000900463ffffffff168063095ea7b3146100d5578063149eead51461012f57806318160ddd1461018457806323b872dd146101ad5780633940e9ee14610226578063637dda3f1461024f57806370a08231146102a55780638811a0ae146102f25780638dfda5ae1461033f578063a9059cbb146103ab578063b85ed17d14610405578063bd0af85d14610487578063dd62ed3e146104df578063e6ed51b71461054b575b600080fd5b34156100e057600080fd5b610115600480803573ffffffffffffffffffffffffffffffffffffffff169060200190919080359060200190919050506105ac565b604051808215151515815260200191505060405180910390f35b341561013a57600080fd5b61014261069e565b604051808273ffffffffffffffffffffffffffffffffffffffff1673ffffffffffffffffffffffffffffffffffffffff16815260200191505060405180910390f35b341561018f57600080fd5b6101976106c3565b6040518082815260200191505060405180910390f35b34156101b857600080fd5b61020c600480803573ffffffffffffffffffffffffffffffffffffffff1690602001909190803573ffffffffffffffffffffffffffffffffffffffff169060200190919080359060200190919050506106cd565b604051808215151515815260200191505060405180910390f35b341561023157600080fd5b610239610add565b6040518082815260200191505060405180910390f35b341561025a57600080fd5b61028f600480803590602001909190803573ffffffffffffffffffffffffffffffffffffffff16906020019091905050610ae3565b6040518082815260200191505060405180910390f35b34156102b057600080fd5b6102dc600480803573ffffffffffffffffffffffffffffffffffffffff16906020019091905050610b4b565b6040518082815260200191505060405180910390f35b34156102fd57600080fd5b610329600480803573ffffffffffffffffffffffffffffffffffffffff16906020019091905050610b94565b6040518082815260200191505060405180910390f35b341561034a57600080fd5b610395600480803573ffffffffffffffffffffffffffffffffffffffff1690602001909190803573ffffffffffffffffffffffffffffffffffffffff16906020019091905050610be0565b6040518082815260200191505060405180910390f35b34156103b657600080fd5b6103eb600480803573ffffffffffffffffffffffffffffffffffffffff16906020019091908035906020019091905050610c67565b604051808215151515815260200191505060405180910390f35b341561041057600080fd5b610445600480803590602001909190803573ffffffffffffffffffffffffffffffffffffffff16906020019091905050610edb565b604051808273ffffffffffffffffffffffffffffffffffffffff1673ffffffffffffffffffffffffffffffffffffffff16815260200191505060405180910390f35b341561049257600080fd5b6104dd600480803573ffffffffffffffffffffffffffffffffffffffff1690602001909190803573ffffffffffffffffffffffffffffffffffffffff16906020019091905050610f63565b005b34156104ea57600080fd5b610535600480803573ffffffffffffffffffffffffffffffffffffffff1690602001909190803573ffffffffffffffffffffffffffffffffffffffff169060200190919050506111b9565b6040518082815260200191505060405180910390f35b341561055657600080fd5b6105aa600480803590602001909190803573ffffffffffffffffffffffffffffffffffffffff1690602001909190803573ffffffffffffffffffffffffffffffffffffffff16906020019091905050611240565b005b600081600760003373ffffffffffffffffffffffffffffffffffffffff1673ffffffffffffffffffffffffffffffffffffffff16815260200190815260200160002060008573ffffffffffffffffffffffffffffffffffffffff1673ffffffffffffffffffffffffffffffffffffffff168152602001908152602001600020819055508273ffffffffffffffffffffffffffffffffffffffff163373ffffffffffffffffffffffffffffffffffffffff167f8c5be1e5ebec7d5bd14f71427d1e84f3dd0314c0f7b2291e5b200ac8c7c3b925846040518082815260200191505060405180910390a36001905092915050565b6000809054906101000a900473ffffffffffffffffffffffffffffffffffffffff1681565b6000600154905090565b6000806000600660008773ffffffffffffffffffffffffffffffffffffffff1673ffffffffffffffffffffffffffffffffffffffff168152602001908152602001600020549150600760008773ffffffffffffffffffffffffffffffffffffffff1673ffffffffffffffffffffffffffffffffffffffff16815260200190815260200160002060003373ffffffffffffffffffffffffffffffffffffffff1673ffffffffffffffffffffffffffffffffffffffff1681526020019081526020016000205490508573ffffffffffffffffffffffffffffffffffffffff168573ffffffffffffffffffffffffffffffffffffffff1614806107f95750600073ffffffffffffffffffffffffffffffffffffffff168573ffffffffffffffffffffffffffffffffffffffff16145b806108045750600084145b8061080e57508382105b8061081857508381105b156108265760009250610ad4565b610831868686611858565b61088384600660008973ffffffffffffffffffffffffffffffffffffffff1673ffffffffffffffffffffffffffffffffffffffff16815260200190815260200160002054612b4590919063ffffffff16565b600660008873ffffffffffffffffffffffffffffffffffffffff1673ffffffffffffffffffffffffffffffffffffffff1681526020019081526020016000208190555061091884600660008873ffffffffffffffffffffffffffffffffffffffff1673ffffffffffffffffffffffffffffffffffffffff16815260200190815260200160002054612b5e90919063ffffffff16565b600660008773ffffffffffffffffffffffffffffffffffffffff1673ffffffffffffffffffffffffffffffffffffffff168152602001908152602001600020819055506109ea84600760008973ffffffffffffffffffffffffffffffffffffffff1673ffffffffffffffffffffffffffffffffffffffff16815260200190815260200160002060003373ffffffffffffffffffffffffffffffffffffffff1673ffffffffffffffffffffffffffffffffffffffff16815260200190815260200160002054612b4590919063ffffffff16565b600760008873ffffffffffffffffffffffffffffffffffffffff1673ffffffffffffffffffffffffffffffffffffffff16815260200190815260200160002060003373ffffffffffffffffffffffffffffffffffffffff1673ffffffffffffffffffffffffffffffffffffffff168152602001908152602001600020819055508473ffffffffffffffffffffffffffffffffffffffff168673ffffffffffffffffffffffffffffffffffffffff167fddf252ad1be2c89b69c2b068fc378daa952ba7f163c4a11628f55a4df523b3ef866040518082815260200191505060405180910390a3600192505b50509392505050565b60015481565b6000600260008373ffffffffffffffffffffffffffffffffffffffff1673ffffffffffffffffffffffffffffffffffffffff16815260200190815260200160002083815481101515610b3157fe5b906000526020600020906002020160010154905092915050565b6000600660008373ffffffffffffffffffffffffffffffffffffffff1673ffffffffffffffffffffffffffffffffffffffff168152602001908152602001600020549050919050565b6000600260008373ffffffffffffffffffffffffffffffffffffffff1673ffffffffffffffffffffffffffffffffffffffff168152602001908152602001600020805490509050919050565b6000600360008373ffffffffffffffffffffffffffffffffffffffff1673ffffffffffffffffffffffffffffffffffffffff16815260200190815260200160002060008473ffffffffffffffffffffffffffffffffffffffff1673ffffffffffffffffffffffffffffffffffffffff16815260200190815260200160002054905092915050565b600080600660003373ffffffffffffffffffffffffffffffffffffffff1673ffffffffffffffffffffffffffffffffffffffff1681526020019081526020016000205490503373ffffffffffffffffffffffffffffffffffffffff168473ffffffffffffffffffffffffffffffffffffffff161480610d125750600073ffffffffffffffffffffffffffffffffffffffff168473ffffffffffffffffffffffffffffffffffffffff16145b80610d1d5750600083145b80610d2757508281105b15610d355760009150610ed4565b610d40338585611858565b610d9283600660003373ffffffffffffffffffffffffffffffffffffffff1673ffffffffffffffffffffffffffffffffffffffff16815260200190815260200160002054612b4590919063ffffffff16565b600660003373ffffffffffffffffffffffffffffffffffffffff1673ffffffffffffffffffffffffffffffffffffffff16815260200190815260200160002081905550610e2783600660008773ffffffffffffffffffffffffffffffffffffffff1673ffffffffffffffffffffffffffffffffffffffff16815260200190815260200160002054612b5e90919063ffffffff16565b600660008673ffffffffffffffffffffffffffffffffffffffff1673ffffffffffffffffffffffffffffffffffffffff168152602001908152602001600020819055508373ffffffffffffffffffffffffffffffffffffffff163373ffffffffffffffffffffffffffffffffffffffff167fddf252ad1be2c89b69c2b068fc378daa952ba7f163c4a11628f55a4df523b3ef856040518082815260200191505060405180910390a3600191505b5092915050565b6000600260008373ffffffffffffffffffffffffffffffffffffffff1673ffffffffffffffffffffffffffffffffffffffff16815260200190815260200160002083815481101515610f2957fe5b906000526020600020906002020160000160009054906101000a900473ffffffffffffffffffffffffffffffffffffffff16905092915050565b6000806000809054906101000a900473ffffffffffffffffffffffffffffffffffffffff1673ffffffffffffffffffffffffffffffffffffffff163373ffffffffffffffffffffffffffffffffffffffff16141515610fc157600080fd5b600360008473ffffffffffffffffffffffffffffffffffffffff1673ffffffffffffffffffffffffffffffffffffffff16815260200190815260200160002060008573ffffffffffffffffffffffffffffffffffffffff1673ffffffffffffffffffffffffffffffffffffffff168152602001908152602001600020549150600260008473ffffffffffffffffffffffffffffffffffffffff1673ffffffffffffffffffffffffffffffffffffffff1681526020019081526020016000208281548110151561108c57fe5b90600052602060002090600202016001015490506110f281600660008773ffffffffffffffffffffffffffffffffffffffff1673ffffffffffffffffffffffffffffffffffffffff16815260200190815260200160002054612b4590919063ffffffff16565b600660008673ffffffffffffffffffffffffffffffffffffffff1673ffffffffffffffffffffffffffffffffffffffff1681526020019081526020016000208190555061114a81600154612b4590919063ffffffff16565b6001819055506000600260008573ffffffffffffffffffffffffffffffffffffffff1673ffffffffffffffffffffffffffffffffffffffff1681526020019081526020016000208381548110151561119e57fe5b90600052602060002090600202016001018190555050505050565b6000600760008473ffffffffffffffffffffffffffffffffffffffff1673ffffffffffffffffffffffffffffffffffffffff16815260200190815260200160002060008373ffffffffffffffffffffffffffffffffffffffff1673ffffffffffffffffffffffffffffffffffffffff16815260200190815260200160002054905092915050565b6000809054906101000a900473ffffffffffffffffffffffffffffffffffffffff1673ffffffffffffffffffffffffffffffffffffffff163373ffffffffffffffffffffffffffffffffffffffff1614151561129b57600080fd5b6112b083600154612b5e90919063ffffffff16565b60018190555061130883600660008573ffffffffffffffffffffffffffffffffffffffff1673ffffffffffffffffffffffffffffffffffffffff16815260200190815260200160002054612b5e90919063ffffffff16565b600660008473ffffffffffffffffffffffffffffffffffffffff1673ffffffffffffffffffffffffffffffffffffffff168152602001908152602001600020819055506000600460008473ffffffffffffffffffffffffffffffffffffffff1673ffffffffffffffffffffffffffffffffffffffff16815260200190815260200160002080549050141561143757600460008373ffffffffffffffffffffffffffffffffffffffff1673ffffffffffffffffffffffffffffffffffffffff16815260200190815260200160002080548060010182816113e79190612fdf565b9160005260206000209001600080909190916101000a81548173ffffffffffffffffffffffffffffffffffffffff021916908373ffffffffffffffffffffffffffffffffffffffff160217905550505b600460008373ffffffffffffffffffffffffffffffffffffffff1673ffffffffffffffffffffffffffffffffffffffff16815260200190815260200160002080549050600560008473ffffffffffffffffffffffffffffffffffffffff1673ffffffffffffffffffffffffffffffffffffffff16815260200190815260200160002060008373ffffffffffffffffffffffffffffffffffffffff1673ffffffffffffffffffffffffffffffffffffffff16815260200190815260200160002081905550600460008373ffffffffffffffffffffffffffffffffffffffff1673ffffffffffffffffffffffffffffffffffffffff168152602001908152602001600020805480600101828161154b9190612fdf565b9160005260206000209001600083909190916101000a81548173ffffffffffffffffffffffffffffffffffffffff021916908373ffffffffffffffffffffffffffffffffffffffff16021790555050600260008273ffffffffffffffffffffffffffffffffffffffff1673ffffffffffffffffffffffffffffffffffffffff16815260200190815260200160002080548060010182816115eb919061300b565b916000526020600020906002020160006040805190810160405280600073ffffffffffffffffffffffffffffffffffffffff1681526020016000815250909190915060008201518160000160006101000a81548173ffffffffffffffffffffffffffffffffffffffff021916908373ffffffffffffffffffffffffffffffffffffffff160217905550602082015181600101555050506001600360008373ffffffffffffffffffffffffffffffffffffffff1673ffffffffffffffffffffffffffffffffffffffff16815260200190815260200160002060008473ffffffffffffffffffffffffffffffffffffffff1673ffffffffffffffffffffffffffffffffffffffff16815260200190815260200160002081905550600260008273ffffffffffffffffffffffffffffffffffffffff1673ffffffffffffffffffffffffffffffffffffffff1681526020019081526020016000208054806001018281611754919061300b565b9160005260206000209060020201600060408051908101604052808673ffffffffffffffffffffffffffffffffffffffff16815260200187815250909190915060008201518160000160006101000a81548173ffffffffffffffffffffffffffffffffffffffff021916908373ffffffffffffffffffffffffffffffffffffffff160217905550602082015181600101555050507fb378e89b40ac5bbe0e2241b596fbe1adc3cf1fb7c982aa1b4560165cf264ee938284604051808373ffffffffffffffffffffffffffffffffffffffff1673ffffffffffffffffffffffffffffffffffffffff1681526020018281526020019250505060405180910390a1505050565b61186061303d565b60008061186b613051565b600080600460008a73ffffffffffffffffffffffffffffffffffffffff1673ffffffffffffffffffffffffffffffffffffffff16815260200190815260200160002080548060200260200160405190810160405280929190818152602001828054801561192d57602002820191906000526020600020905b8160009054906101000a900473ffffffffffffffffffffffffffffffffffffffff1673ffffffffffffffffffffffffffffffffffffffff16815260200190600101908083116118e3575b5050505050955061194960018751612b4590919063ffffffff16565b94505b6000851115612b3a5760036000878781518110151561196757fe5b9060200190602002015173ffffffffffffffffffffffffffffffffffffffff1673ffffffffffffffffffffffffffffffffffffffff16815260200190815260200160002060008a73ffffffffffffffffffffffffffffffffffffffff1673ffffffffffffffffffffffffffffffffffffffff1681526020019081526020016000205493506002600087878151811015156119fd57fe5b9060200190602002015173ffffffffffffffffffffffffffffffffffffffff1673ffffffffffffffffffffffffffffffffffffffff16815260200190815260200160002084815481101515611a4e57fe5b90600052602060002090600202016040805190810160405290816000820160009054906101000a900473ffffffffffffffffffffffffffffffffffffffff1673ffffffffffffffffffffffffffffffffffffffff1673ffffffffffffffffffffffffffffffffffffffff168152602001600182015481525050925082602001518710151561238657826020015187039650611b356001600460008c73ffffffffffffffffffffffffffffffffffffffff1673ffffffffffffffffffffffffffffffffffffffff16815260200190815260200160002080549050612b4590919063ffffffff16565b600460008b73ffffffffffffffffffffffffffffffffffffffff1673ffffffffffffffffffffffffffffffffffffffff16815260200190815260200160002081611b7f9190613081565b50600560008a73ffffffffffffffffffffffffffffffffffffffff1673ffffffffffffffffffffffffffffffffffffffff16815260200190815260200160002060008787815181101515611bcf57fe5b9060200190602002015173ffffffffffffffffffffffffffffffffffffffff1673ffffffffffffffffffffffffffffffffffffffff168152602001908152602001600020600090556000600560008a73ffffffffffffffffffffffffffffffffffffffff1673ffffffffffffffffffffffffffffffffffffffff16815260200190815260200160002060008888815181101515611c6857fe5b9060200190602002015173ffffffffffffffffffffffffffffffffffffffff1673ffffffffffffffffffffffffffffffffffffffff16815260200190815260200160002054141515611e8057600360008787815181101515611cc657fe5b9060200190602002015173ffffffffffffffffffffffffffffffffffffffff1673ffffffffffffffffffffffffffffffffffffffff16815260200190815260200160002060008973ffffffffffffffffffffffffffffffffffffffff1673ffffffffffffffffffffffffffffffffffffffff16815260200190815260200160002054915060008214151515611d5757fe5b611de28360200151600260008989815181101515611d7157fe5b9060200190602002015173ffffffffffffffffffffffffffffffffffffffff1673ffffffffffffffffffffffffffffffffffffffff16815260200190815260200160002084815481101515611dc257fe5b906000526020600020906002020160010154612b5e90919063ffffffff16565b600260008888815181101515611df457fe5b9060200190602002015173ffffffffffffffffffffffffffffffffffffffff1673ffffffffffffffffffffffffffffffffffffffff16815260200190815260200160002083815481101515611e4557fe5b906000526020600020906002020160010181905550611e7b898787815181101515611e6c57fe5b90602001906020020151612b7c565b612373565b6000600460008a73ffffffffffffffffffffffffffffffffffffffff1673ffffffffffffffffffffffffffffffffffffffff168152602001908152602001600020805490501415611f6c57600460008973ffffffffffffffffffffffffffffffffffffffff1673ffffffffffffffffffffffffffffffffffffffff1681526020019081526020016000208054806001018281611f1c9190612fdf565b9160005260206000209001600080909190916101000a81548173ffffffffffffffffffffffffffffffffffffffff021916908373ffffffffffffffffffffffffffffffffffffffff160217905550505b600460008973ffffffffffffffffffffffffffffffffffffffff1673ffffffffffffffffffffffffffffffffffffffff16815260200190815260200160002080549050600560008a73ffffffffffffffffffffffffffffffffffffffff1673ffffffffffffffffffffffffffffffffffffffff16815260200190815260200160002060008888815181101515611ffe57fe5b9060200190602002015173ffffffffffffffffffffffffffffffffffffffff1673ffffffffffffffffffffffffffffffffffffffff16815260200190815260200160002081905550600460008973ffffffffffffffffffffffffffffffffffffffff1673ffffffffffffffffffffffffffffffffffffffff16815260200190815260200160002080548060010182816120979190612fdf565b9160005260206000209001600088888151811015156120b257fe5b90602001906020020151909190916101000a81548173ffffffffffffffffffffffffffffffffffffffff021916908373ffffffffffffffffffffffffffffffffffffffff160217905550508760026000888881518110151561211057fe5b9060200190602002015173ffffffffffffffffffffffffffffffffffffffff1673ffffffffffffffffffffffffffffffffffffffff1681526020019081526020016000208581548110151561216157fe5b906000526020600020906002020160000160006101000a81548173ffffffffffffffffffffffffffffffffffffffff021916908373ffffffffffffffffffffffffffffffffffffffff1602179055506003600087878151811015156121c257fe5b9060200190602002015173ffffffffffffffffffffffffffffffffffffffff1673ffffffffffffffffffffffffffffffffffffffff16815260200190815260200160002060008a73ffffffffffffffffffffffffffffffffffffffff1673ffffffffffffffffffffffffffffffffffffffff1681526020019081526020016000205460036000888881518110151561225657fe5b9060200190602002015173ffffffffffffffffffffffffffffffffffffffff1673ffffffffffffffffffffffffffffffffffffffff16815260200190815260200160002060008a73ffffffffffffffffffffffffffffffffffffffff1673ffffffffffffffffffffffffffffffffffffffff168152602001908152602001600020819055506003600087878151811015156122ed57fe5b9060200190602002015173ffffffffffffffffffffffffffffffffffffffff1673ffffffffffffffffffffffffffffffffffffffff16815260200190815260200160002060008a73ffffffffffffffffffffffffffffffffffffffff1673ffffffffffffffffffffffffffffffffffffffff168152602001908152602001600020600090555b600087141561238157612b3a565b612b2c565b60036000878781518110151561239857fe5b9060200190602002015173ffffffffffffffffffffffffffffffffffffffff1673ffffffffffffffffffffffffffffffffffffffff16815260200190815260200160002060008973ffffffffffffffffffffffffffffffffffffffff1673ffffffffffffffffffffffffffffffffffffffff1681526020019081526020016000205490506000600560008a73ffffffffffffffffffffffffffffffffffffffff1673ffffffffffffffffffffffffffffffffffffffff1681526020019081526020016000206000888881518110151561246d57fe5b9060200190602002015173ffffffffffffffffffffffffffffffffffffffff1673ffffffffffffffffffffffffffffffffffffffff168152602001908152602001600020541415156125bd57612540876002600089898151811015156124cf57fe5b9060200190602002015173ffffffffffffffffffffffffffffffffffffffff1673ffffffffffffffffffffffffffffffffffffffff1681526020019081526020016000208381548110151561252057fe5b906000526020600020906002020160010154612b5e90919063ffffffff16565b60026000888881518110151561255257fe5b9060200190602002015173ffffffffffffffffffffffffffffffffffffffff1673ffffffffffffffffffffffffffffffffffffffff168152602001908152602001600020828154811015156125a357fe5b906000526020600020906002020160010181905550612a28565b6000600460008a73ffffffffffffffffffffffffffffffffffffffff1673ffffffffffffffffffffffffffffffffffffffff1681526020019081526020016000208054905014156126a957600460008973ffffffffffffffffffffffffffffffffffffffff1673ffffffffffffffffffffffffffffffffffffffff16815260200190815260200160002080548060010182816126599190612fdf565b9160005260206000209001600080909190916101000a81548173ffffffffffffffffffffffffffffffffffffffff021916908373ffffffffffffffffffffffffffffffffffffffff160217905550505b600460008973ffffffffffffffffffffffffffffffffffffffff1673ffffffffffffffffffffffffffffffffffffffff16815260200190815260200160002080549050600560008a73ffffffffffffffffffffffffffffffffffffffff1673ffffffffffffffffffffffffffffffffffffffff1681526020019081526020016000206000888881518110151561273b57fe5b9060200190602002015173ffffffffffffffffffffffffffffffffffffffff1673ffffffffffffffffffffffffffffffffffffffff16815260200190815260200160002081905550600460008973ffffffffffffffffffffffffffffffffffffffff1673ffffffffffffffffffffffffffffffffffffffff16815260200190815260200160002080548060010182816127d49190612fdf565b9160005260206000209001600088888151811015156127ef57fe5b90602001906020020151909190916101000a81548173ffffffffffffffffffffffffffffffffffffffff021916908373ffffffffffffffffffffffffffffffffffffffff1602179055505060026000878781518110151561284c57fe5b9060200190602002015173ffffffffffffffffffffffffffffffffffffffff1673ffffffffffffffffffffffffffffffffffffffff168152602001908152602001600020805490506003600088888151811015156128a657fe5b9060200190602002015173ffffffffffffffffffffffffffffffffffffffff1673ffffffffffffffffffffffffffffffffffffffff16815260200190815260200160002060008a73ffffffffffffffffffffffffffffffffffffffff1673ffffffffffffffffffffffffffffffffffffffff1681526020019081526020016000208190555060026000878781518110151561293d57fe5b9060200190602002015173ffffffffffffffffffffffffffffffffffffffff1673ffffffffffffffffffffffffffffffffffffffff1681526020019081526020016000208054806001018281612993919061300b565b9160005260206000209060020201600060408051908101604052808c73ffffffffffffffffffffffffffffffffffffffff1681526020018b815250909190915060008201518160000160006101000a81548173ffffffffffffffffffffffffffffffffffffffff021916908373ffffffffffffffffffffffffffffffffffffffff160217905550602082015181600101555050505b612aaf87600260008989815181101515612a3e57fe5b9060200190602002015173ffffffffffffffffffffffffffffffffffffffff1673ffffffffffffffffffffffffffffffffffffffff16815260200190815260200160002086815481101515612a8f57fe5b906000526020600020906002020160010154612b4590919063ffffffff16565b600260008888815181101515612ac157fe5b9060200190602002015173ffffffffffffffffffffffffffffffffffffffff1673ffffffffffffffffffffffffffffffffffffffff16815260200190815260200160002085815481101515612b1257fe5b906000526020600020906002020160010181905550612b3a565b84806001900395505061194c565b505050505050505050565b6000828211151515612b5357fe5b818303905092915050565b6000808284019050838110151515612b7257fe5b8091505092915050565b6000806000612bd76001600260008773ffffffffffffffffffffffffffffffffffffffff1673ffffffffffffffffffffffffffffffffffffffff16815260200190815260200160002080549050612b4590919063ffffffff16565b9250600260008573ffffffffffffffffffffffffffffffffffffffff1673ffffffffffffffffffffffffffffffffffffffff16815260200190815260200160002083815481101515612c2557fe5b906000526020600020906002020160000160009054906101000a900473ffffffffffffffffffffffffffffffffffffffff1691508473ffffffffffffffffffffffffffffffffffffffff168273ffffffffffffffffffffffffffffffffffffffff16141515612eb757600360008573ffffffffffffffffffffffffffffffffffffffff1673ffffffffffffffffffffffffffffffffffffffff16815260200190815260200160002060008673ffffffffffffffffffffffffffffffffffffffff1673ffffffffffffffffffffffffffffffffffffffff16815260200190815260200160002054905080600360008673ffffffffffffffffffffffffffffffffffffffff1673ffffffffffffffffffffffffffffffffffffffff16815260200190815260200160002060008473ffffffffffffffffffffffffffffffffffffffff1673ffffffffffffffffffffffffffffffffffffffff16815260200190815260200160002081905550600260008573ffffffffffffffffffffffffffffffffffffffff1673ffffffffffffffffffffffffffffffffffffffff16815260200190815260200160002083815481101515612dda57fe5b9060005260206000209060020201600260008673ffffffffffffffffffffffffffffffffffffffff1673ffffffffffffffffffffffffffffffffffffffff16815260200190815260200160002082815481101515612e3457fe5b90600052602060002090600202016000820160009054906101000a900473ffffffffffffffffffffffffffffffffffffffff168160000160006101000a81548173ffffffffffffffffffffffffffffffffffffffff021916908373ffffffffffffffffffffffffffffffffffffffff160217905550600182015481600101559050505b600360008573ffffffffffffffffffffffffffffffffffffffff1673ffffffffffffffffffffffffffffffffffffffff16815260200190815260200160002060008673ffffffffffffffffffffffffffffffffffffffff1673ffffffffffffffffffffffffffffffffffffffff16815260200190815260200160002060009055612f8d6001600260008773ffffffffffffffffffffffffffffffffffffffff1673ffffffffffffffffffffffffffffffffffffffff16815260200190815260200160002080549050612b4590919063ffffffff16565b600260008673ffffffffffffffffffffffffffffffffffffffff1673ffffffffffffffffffffffffffffffffffffffff16815260200190815260200160002081612fd791906130ad565b505050505050565b8154818355818115116130065781836000526020600020918201910161300591906130df565b5b505050565b815481835581811511613038576002028160020283600052602060002091820191016130379190613104565b5b505050565b602060405190810160405280600081525090565b6040805190810160405280600073ffffffffffffffffffffffffffffffffffffffff168152602001600081525090565b8154818355818115116130a8578183600052602060002091820191016130a791906130df565b5b505050565b8154818355818115116130da576002028160020283600052602060002091820191016130d99190613104565b5b505050565b61310191905b808211156130fd5760008160009055506001016130e5565b5090565b90565b61314f91905b8082111561314b57600080820160006101000a81549073ffffffffffffffffffffffffffffffffffffffff021916905560018201600090555060020161310a565b5090565b905600a165627a7a723058200eff4e55c7b59531075e03712c7f8582b04f5a199d4d3864a4a1bb10cec151d10029",
  "source": "pragma solidity ^0.4.17;\n\nimport \"./libraries/SafeMath.sol\";\n\n/**\n*The DRCT_Token is an ERC20 compliant token representing the payout of the swap contract\n*specified in the Factory contract.\n*Each Factory contract is specified one DRCT Token and the token address can contain many\n*different swap contracts that are standardized at the Factory level.\n*/\ncontract DRCT_Token {\n\n    using SafeMath for uint256;\n\n    /*Structs*/\n    /**\n    *@dev Keeps track of balance amounts in the balances array\n    */\n    struct Balance {\n        address owner;\n        uint amount;\n    }\n\n    /*Variables*/\n    //This is the factory contract that the token is standardized at\n    address public master_contract;\n    //Total supply of outstanding tokens in the contract\n    uint public total_supply;\n    //Mapping from: swap address -> user balance struct (index for a particular user's balance can be found in swap_balances_index)\n    mapping(address => Balance[]) swap_balances;\n    //Mapping from: swap address -> user -> swap_balances index\n    mapping(address => mapping(address => uint)) swap_balances_index;\n    //Mapping from: user -> dynamic array of swap addresses (index for a particular swap can be found in user_swaps_index)\n    mapping(address => address[]) user_swaps;\n    //Mapping from: user -> swap address -> user_swaps index\n    mapping(address => mapping(address => uint)) user_swaps_index;\n    //Mapping from: user -> total balance accross all entered swaps\n    mapping(address => uint) user_total_balances;\n    //Mapping from: owner -> spender -> amount allowed\n    mapping(address => mapping(address => uint)) allowed;\n\n    /*Events*/\n    /**\n    *@dev events for transfer and approvals\n    */\n    event Transfer(address indexed _from, address indexed _to, uint _value);\n    event Approval(address indexed _owner, address indexed _spender, uint _value);\n    event CreateToken(address _from, uint _value);\n    \n    /*Modifiers*/\n    modifier onlyMaster() {\n        require(msg.sender == master_contract);\n        _;\n    }\n\n    /*Functions*/\n    /**\n    *@dev Constructor - sets values for token name and token supply, as well as the \n    *master_contract, the swap.\n    *@param _factory \n    */\n    function DRCT_Token(address _factory) public {\n        master_contract = _factory;\n    }\n\n  /**\n    *@dev Token Creator - This function is called by the factory contract and creates new tokens\n    *for the user\n    *@param _supply amount of DRCT tokens created by the factory contract for this swap\n    *@param _owner\n    *@param _swap\n  */\n  function createToken(uint _supply, address _owner, address _swap) public onlyMaster() {\n        //Update total supply of DRCT Tokens\n        total_supply = total_supply.add(_supply);\n        //Update the total balance of the owner\n        user_total_balances[_owner] = user_total_balances[_owner].add(_supply);\n        //If the user has not entered any swaps already, push a zeroed address to their user_swaps mapping to prevent default value conflicts in user_swaps_index\n        if (user_swaps[_owner].length == 0)\n            user_swaps[_owner].push(address(0x0));\n        //Add a new swap index for the owner\n        user_swaps_index[_owner][_swap] = user_swaps[_owner].length;\n        //Push a new swap address to the owner's swaps\n        user_swaps[_owner].push(_swap);\n        //Push a zeroed Balance struct to the swap balances mapping to prevent default value conflicts in swap_balances_index\n        swap_balances[_swap].push(Balance({\n            owner: 0,\n            amount: 0\n        }));\n        //Add a new owner balance index for the swap\n        swap_balances_index[_swap][_owner] = 1;\n        //Push the owner's balance to the swap\n        swap_balances[_swap].push(Balance({\n            owner: _owner,\n            amount: _supply\n        }));\n        emit CreateToken(_owner,_supply);\n    }\n\n    /**\n    *@dev Called by the factory contract, and pays out to a _party\n    *@param _party being paid\n    *@param _swap\n    */\n    function pay(address _party, address _swap) public onlyMaster() {\n        uint party_balance_index = swap_balances_index[_swap][_party];\n        uint party_swap_balance = swap_balances[_swap][party_balance_index].amount;\n        //reduces the users totals balance by the amount in that swap\n        user_total_balances[_party] = user_total_balances[_party].sub(party_swap_balance);\n        //reduces the total supply by the amount of that users in that swap\n        total_supply = total_supply.sub(party_swap_balance);\n        //sets the partys balance to zero for that specific swaps party balances\n        swap_balances[_swap][party_balance_index].amount = 0;\n    }\n\n    /**\n    *@dev Returns the users total balance (sum of tokens in all swaps the user has tokens in)\n    *@param _owner user address\n    *@return user total balance\n    */\n    function balanceOf(address _owner) public constant returns (uint balance) {\n       return user_total_balances[_owner]; \n     }\n\n    /**\n    *@dev Getter for the total_supply of tokens in the contract\n    *@return total supply\n    */\n    function totalSupply() public constant returns (uint _total_supply) {\n       return total_supply;\n    }\n\n    /**\n    *@dev Removes the address from the swap balances for a swap, and moves the last address in the\n    *swap into their place\n    *@param _remove address of prevous owner\n    *@param _swap address used to get last addrss of the swap to replace the removed address\n    */\n    function removeFromSwapBalances(address _remove, address _swap) internal {\n        uint last_address_index = swap_balances[_swap].length.sub(1);\n        address last_address = swap_balances[_swap][last_address_index].owner;\n        //If the address we want to remove is the final address in the swap\n        if (last_address != _remove) {\n            uint remove_index = swap_balances_index[_swap][_remove];\n            //Update the swap's balance index of the last address to that of the removed address index\n            swap_balances_index[_swap][last_address] = remove_index;\n            //Set the swap's Balance struct at the removed index to the Balance struct of the last address\n            swap_balances[_swap][remove_index] = swap_balances[_swap][last_address_index];\n        }\n        //Remove the swap_balances index for this address\n        delete swap_balances_index[_swap][_remove];\n        //Finally, decrement the swap balances length\n        swap_balances[_swap].length = swap_balances[_swap].length.sub(1);\n    }\n\n    /**\n    *@dev This is the main function to update the mappings when a transfer happens\n    *@param _from address to send funds from\n    *@param _to address to send funds to\n    *@param _amount amount of token to send\n    */\n    function transferHelper(address _from, address _to, uint _amount) internal {\n        //Get memory copies of the swap arrays for the sender and reciever\n        address[] memory from_swaps = user_swaps[_from];\n        //Iterate over sender's swaps in reverse order until enough tokens have been transferred\n        for (uint i = from_swaps.length.sub(1); i > 0; i--) {\n            //Get the index of the sender's balance for the current swap\n            uint from_swap_user_index = swap_balances_index[from_swaps[i]][_from];\n            Balance memory from_user_bal = swap_balances[from_swaps[i]][from_swap_user_index];\n            //If the current swap will be entirely depleted - we remove all references to it for the sender\n            if (_amount >= from_user_bal.amount) {\n                _amount -= from_user_bal.amount;\n                //If this swap is to be removed, we know it is the (current) last swap in the user's user_swaps list, so we can simply decrement the length to remove it\n                user_swaps[_from].length = user_swaps[_from].length.sub(1);\n                //Remove the user swap index for this swap\n                delete user_swaps_index[_from][from_swaps[i]];\n                //If the _to address already holds tokens from this swap\n                if (user_swaps_index[_to][from_swaps[i]] != 0) {\n                    //Get the index of the _to balance in this swap\n                    uint to_balance_index = swap_balances_index[from_swaps[i]][_to];\n                    assert(to_balance_index != 0);\n                    //Add the _from tokens to _to\n                    swap_balances[from_swaps[i]][to_balance_index].amount = swap_balances[from_swaps[i]][to_balance_index].amount.add(from_user_bal.amount);\n                    //Remove the _from address from this swap's balance array\n                    removeFromSwapBalances(_from, from_swaps[i]);\n                } else {\n                    //Prepare to add a new swap by assigning the swap an index for _to\n                    if (user_swaps[_to].length == 0){\n                        user_swaps[_to].push(address(0x0));\n                    }\n                user_swaps_index[_to][from_swaps[i]] = user_swaps[_to].length;\n                //Add the new swap to _to\n                user_swaps[_to].push(from_swaps[i]);\n                //Give the reciever the sender's balance for this swap\n                swap_balances[from_swaps[i]][from_swap_user_index].owner = _to;\n                //Give the reciever the sender's swap balance index for this swap\n                swap_balances_index[from_swaps[i]][_to] = swap_balances_index[from_swaps[i]][_from];\n                //Remove the swap balance index from the sending party\n                delete swap_balances_index[from_swaps[i]][_from];\n            }\n            //If there is no more remaining to be removed, we break out of the loop\n            if (_amount == 0)\n                break;\n            } else {\n                //The amount in this swap is more than the amount we still need to transfer\n                uint to_swap_balance_index = swap_balances_index[from_swaps[i]][_to];\n                //If the _to address already holds tokens from this swap\n                if (user_swaps_index[_to][from_swaps[i]] != 0) {\n                    //Because both addresses are in this swap, and neither will be removed, we simply update both swap balances\n                    swap_balances[from_swaps[i]][to_swap_balance_index].amount = swap_balances[from_swaps[i]][to_swap_balance_index].amount.add(_amount);\n                } else {\n                    //Prepare to add a new swap by assigning the swap an index for _to\n                    if (user_swaps[_to].length == 0){\n                        user_swaps[_to].push(address(0x0));\n                    }\n                    user_swaps_index[_to][from_swaps[i]] = user_swaps[_to].length;\n                    //And push the new swap\n                    user_swaps[_to].push(from_swaps[i]);\n                    //_to is not in this swap, so we give this swap a new balance index for _to\n                    swap_balances_index[from_swaps[i]][_to] = swap_balances[from_swaps[i]].length;\n                    //And push a new balance for _to\n                    swap_balances[from_swaps[i]].push(Balance({\n                        owner: _to,\n                        amount: _amount\n                    }));\n                }\n                //Finally, update the _from user's swap balance\n                swap_balances[from_swaps[i]][from_swap_user_index].amount = swap_balances[from_swaps[i]][from_swap_user_index].amount.sub(_amount);\n                //Because we have transferred the last of the amount to the reciever, we break;\n                break;\n            }\n        }\n    }\n\n    /**\n    *ERC20 compliant transfer function\n    *@param _to Address to send funds to\n    *@param _amount Amount of token to send\n    *@return true for successful\n    */\n    function transfer(address _to, uint _amount) public returns (bool) {\n        uint balance_owner = user_total_balances[msg.sender];\n        if (\n            _to == msg.sender ||\n            _to == address(0) ||\n            _amount == 0 ||\n            balance_owner < _amount\n        ) return false;\n        transferHelper(msg.sender, _to, _amount);\n        user_total_balances[msg.sender] = user_total_balances[msg.sender].sub(_amount);\n        user_total_balances[_to] = user_total_balances[_to].add(_amount);\n        emit Transfer(msg.sender, _to, _amount);\n        return true;\n    }\n\n    /**\n    *@dev ERC20 compliant transferFrom function\n    *@param _from address to send funds from (must be allowed, see approve function)\n    *@param _to address to send funds to\n    *@param _amount amount of token to send\n    *@return true for successful\n    */\n    function transferFrom(address _from, address _to, uint _amount) public returns (bool) {\n        uint balance_owner = user_total_balances[_from];\n        uint sender_allowed = allowed[_from][msg.sender];\n        if (\n            _to == _from ||\n            _to == address(0) ||\n            _amount == 0 ||\n            balance_owner < _amount ||\n            sender_allowed < _amount\n        ) return false;\n        transferHelper(_from, _to, _amount);\n        user_total_balances[_from] = user_total_balances[_from].sub(_amount);\n        user_total_balances[_to] = user_total_balances[_to].add(_amount);\n        allowed[_from][msg.sender] = allowed[_from][msg.sender].sub(_amount);\n        emit Transfer(_from, _to, _amount);\n        return true;\n    }\n\n    /**\n    *@dev ERC20 compliant approve function\n    *@param _spender party that msg.sender approves for transferring funds\n    *@param _amount amount of token to approve for sending\n    *@return true for successful\n    */\n    function approve(address _spender, uint _amount) public returns (bool) {\n        allowed[msg.sender][_spender] = _amount;\n        emit Approval(msg.sender, _spender, _amount);\n        return true;\n    }\n\n    /**\n    *@dev Counts addresses involved in the swap based on the length of balances array for _swap\n    *@param _swap address\n    *@return the length of the balances array for the swap\n    */\n    function addressCount(address _swap) public constant returns (uint) { \n        return swap_balances[_swap].length; \n    }\n\n    /**\n    *@dev Gets the owner address by specifying the swap address and index\n    *@param _ind specified index in the swap\n    *@param _swap specified swap address\n    *@return the owner address associated with a particular index in a particular swap\n    */\n    function getHolderByIndex(uint _ind, address _swap) public constant returns (address) {\n        return swap_balances[_swap][_ind].owner; \n    }\n\n    /**\n    *@dev Gets the balance by specifying the swap address and index\n    *@param _ind specified index in the swap\n    *@param _swap specified swap address\n    *@return the balance associated with a particular index in a particular swap\n    */\n    function getBalanceByIndex(uint _ind, address _swap) public constant returns (uint) {\n        return swap_balances[_swap][_ind].amount; \n    }\n\n    /**\n    *@dev Gets the index by specifying the swap and owner addresses\n    *@param _owner specifed address\n    *@param _swap  specified swap address\n    *@return the index associated with the _owner address in a particular swap\n    */\n    function getIndexByAddress(address _owner, address _swap) public constant returns (uint) {\n        return swap_balances_index[_swap][_owner]; \n    }\n\n    /**\n    *@dev Look up how much the spender or contract is allowed to spend?\n    *@param _owner \n    *@param _spender party or contract? approved for transfering funds \n    *@return the allowed amount _spender can spend of _owner's balance\n    */\n    function allowance(address _owner, address _spender) public constant returns (uint) {\n        return allowed[_owner][_spender]; \n    }\n}",
  "sourcePath": "/Users/daniel/Desktop/drct/DRCT_standard/contracts/DRCT_Token.sol",
  "compiler": {
    "name": "solc",
    "version": "0.4.21+commit.dfe3193c.Emscripten.clang"
  },
  "schemaVersion": "2.0.0",
  "updatedAt": "2018-04-30T01:35:49.091Z"
}