{
  "contractName": "Exchange",
  "abi": [
    {
      "constant": true,
      "inputs": [
        {
          "name": "",
          "type": "uint256"
        }
      ],
      "name": "openBooks",
      "outputs": [
        {
          "name": "",
          "type": "address"
        }
      ],
      "payable": false,
      "stateMutability": "view",
      "type": "function"
    },
    {
      "constant": true,
      "inputs": [
        {
          "name": "",
          "type": "address"
        },
        {
          "name": "",
          "type": "uint256"
        }
      ],
      "name": "userOrders",
      "outputs": [
        {
          "name": "",
          "type": "uint256"
        }
      ],
      "payable": false,
      "stateMutability": "view",
      "type": "function"
    },
    {
      "constant": true,
      "inputs": [],
      "name": "owner",
      "outputs": [
        {
          "name": "",
          "type": "address"
        }
      ],
      "payable": false,
      "stateMutability": "view",
      "type": "function"
    },
    {
      "constant": true,
      "inputs": [
        {
          "name": "",
          "type": "uint256"
        }
      ],
      "name": "orders",
      "outputs": [
        {
          "name": "maker",
          "type": "address"
        },
        {
          "name": "price",
          "type": "uint256"
        },
        {
          "name": "amount",
          "type": "uint256"
        },
        {
          "name": "asset",
          "type": "address"
        }
      ],
      "payable": false,
      "stateMutability": "view",
      "type": "function"
    },
    {
      "constant": true,
      "inputs": [
        {
          "name": "",
          "type": "address"
        },
        {
          "name": "",
          "type": "uint256"
        }
      ],
      "name": "forSale",
      "outputs": [
        {
          "name": "",
          "type": "uint256"
        }
      ],
      "payable": false,
      "stateMutability": "view",
      "type": "function"
    },
    {
      "inputs": [],
      "payable": false,
      "stateMutability": "nonpayable",
      "type": "constructor"
    },
    {
      "anonymous": false,
      "inputs": [
        {
          "indexed": false,
          "name": "_sender",
          "type": "address"
        },
        {
          "indexed": false,
          "name": "_token",
          "type": "address"
        },
        {
          "indexed": false,
          "name": "_amount",
          "type": "uint256"
        },
        {
          "indexed": false,
          "name": "_price",
          "type": "uint256"
        }
      ],
      "name": "OrderPlaced",
      "type": "event"
    },
    {
      "anonymous": false,
      "inputs": [
        {
          "indexed": false,
          "name": "_sender",
          "type": "address"
        },
        {
          "indexed": false,
          "name": "_token",
          "type": "address"
        },
        {
          "indexed": false,
          "name": "_amount",
          "type": "uint256"
        },
        {
          "indexed": false,
          "name": "_price",
          "type": "uint256"
        }
      ],
      "name": "Sale",
      "type": "event"
    },
    {
      "anonymous": false,
      "inputs": [
        {
          "indexed": false,
          "name": "_sender",
          "type": "address"
        },
        {
          "indexed": false,
          "name": "_token",
          "type": "address"
        },
        {
          "indexed": false,
          "name": "_amount",
          "type": "uint256"
        },
        {
          "indexed": false,
          "name": "_price",
          "type": "uint256"
        }
      ],
      "name": "OrderRemoved",
      "type": "event"
    },
    {
      "constant": false,
      "inputs": [
        {
          "name": "_tokenadd",
          "type": "address"
        },
        {
          "name": "_amount",
          "type": "uint256"
        },
        {
          "name": "_price",
          "type": "uint256"
        }
      ],
      "name": "list",
      "outputs": [],
      "payable": false,
      "stateMutability": "nonpayable",
      "type": "function"
    },
    {
      "constant": false,
      "inputs": [
        {
          "name": "_orderId",
          "type": "uint256"
        }
      ],
      "name": "unlist",
      "outputs": [],
      "payable": false,
      "stateMutability": "nonpayable",
      "type": "function"
    },
    {
      "constant": false,
      "inputs": [
        {
          "name": "_orderId",
          "type": "uint256"
        }
      ],
      "name": "buy",
      "outputs": [],
      "payable": true,
      "stateMutability": "payable",
      "type": "function"
    },
    {
      "constant": true,
      "inputs": [
        {
          "name": "_orderId",
          "type": "uint256"
        }
      ],
      "name": "getOrder",
      "outputs": [
        {
          "name": "",
          "type": "address"
        },
        {
          "name": "",
          "type": "uint256"
        },
        {
          "name": "",
          "type": "uint256"
        },
        {
          "name": "",
          "type": "address"
        }
      ],
      "payable": false,
      "stateMutability": "view",
      "type": "function"
    },
    {
      "constant": false,
      "inputs": [
        {
          "name": "_owner",
          "type": "address"
        }
      ],
      "name": "setOwner",
      "outputs": [],
      "payable": false,
      "stateMutability": "nonpayable",
      "type": "function"
    },
    {
      "constant": false,
      "inputs": [
        {
          "name": "_address",
          "type": "address"
        },
        {
          "name": "_motion",
          "type": "bool"
        }
      ],
      "name": "blacklistParty",
      "outputs": [],
      "payable": false,
      "stateMutability": "nonpayable",
      "type": "function"
    },
    {
      "constant": true,
      "inputs": [
        {
          "name": "_address",
          "type": "address"
        }
      ],
      "name": "isBlacklist",
      "outputs": [
        {
          "name": "",
          "type": "bool"
        }
      ],
      "payable": false,
      "stateMutability": "view",
      "type": "function"
    },
    {
      "constant": true,
      "inputs": [
        {
          "name": "_token",
          "type": "address"
        }
      ],
      "name": "getOrderCount",
      "outputs": [
        {
          "name": "",
          "type": "uint256"
        }
      ],
      "payable": false,
      "stateMutability": "view",
      "type": "function"
    },
    {
      "constant": true,
      "inputs": [],
      "name": "getBookCount",
      "outputs": [
        {
          "name": "",
          "type": "uint256"
        }
      ],
      "payable": false,
      "stateMutability": "view",
      "type": "function"
    },
    {
      "constant": true,
      "inputs": [
        {
          "name": "_token",
          "type": "address"
        }
      ],
      "name": "getOrders",
      "outputs": [
        {
          "name": "",
          "type": "uint256[]"
        }
      ],
      "payable": false,
      "stateMutability": "view",
      "type": "function"
    },
    {
      "constant": true,
      "inputs": [
        {
          "name": "_user",
          "type": "address"
        }
      ],
      "name": "getUserOrders",
      "outputs": [
        {
          "name": "",
          "type": "uint256[]"
        }
      ],
      "payable": false,
      "stateMutability": "view",
      "type": "function"
    }
  ],
  "bytecode": "0x608060405234801561001057600080fd5b50336000806101000a81548173ffffffffffffffffffffffffffffffffffffffff021916908373ffffffffffffffffffffffffffffffffffffffff1602179055506004600090806001815401808255809150509060018203906000526020600020016000909192909190916101000a81548173ffffffffffffffffffffffffffffffffffffffff021916908373ffffffffffffffffffffffffffffffffffffffff160217905550506001600981905550612172806100cf6000396000f3006080604052600436106100e6576000357c0100000000000000000000000000000000000000000000000000000000900463ffffffff168063093376fe146100eb57806313af403514610183578063333e99db146101c65780634c3b6760146102215780635ac5ba711461028e57806363c69f08146102dd578063856652e9146103755780638da5cb5b146103d6578063a85c38ef1461042d578063bf5a4dd3146104db578063d09ef24114610508578063d73e0c89146105b6578063d8b86753146105e1578063d96a094a14610638578063dda342bb14610658578063eb3056e0146106af575b600080fd5b3480156100f757600080fd5b5061012c600480360381019080803573ffffffffffffffffffffffffffffffffffffffff169060200190929190505050610710565b6040518080602001828103825283818151815260200191508051906020019060200280838360005b8381101561016f578082015181840152602081019050610154565b505050509050019250505060405180910390f35b34801561018f57600080fd5b506101c4600480360381019080803573ffffffffffffffffffffffffffffffffffffffff1690602001909291905050506107a7565b005b3480156101d257600080fd5b50610207600480360381019080803573ffffffffffffffffffffffffffffffffffffffff169060200190929190505050610845565b604051808215151515815260200191505060405180910390f35b34801561022d57600080fd5b5061024c6004803603810190808035906020019092919050505061089b565b604051808273ffffffffffffffffffffffffffffffffffffffff1673ffffffffffffffffffffffffffffffffffffffff16815260200191505060405180910390f35b34801561029a57600080fd5b506102db600480360381019080803573ffffffffffffffffffffffffffffffffffffffff1690602001909291908035151590602001909291905050506108d9565b005b3480156102e957600080fd5b5061031e600480360381019080803573ffffffffffffffffffffffffffffffffffffffff16906020019092919050505061098f565b6040518080602001828103825283818151815260200191508051906020019060200280838360005b83811015610361578082015181840152602081019050610346565b505050509050019250505060405180910390f35b34801561038157600080fd5b506103c0600480360381019080803573ffffffffffffffffffffffffffffffffffffffff16906020019092919080359060200190929190505050610a26565b6040518082815260200191505060405180910390f35b3480156103e257600080fd5b506103eb610a56565b604051808273ffffffffffffffffffffffffffffffffffffffff1673ffffffffffffffffffffffffffffffffffffffff16815260200191505060405180910390f35b34801561043957600080fd5b5061045860048036038101908080359060200190929190505050610a7b565b604051808573ffffffffffffffffffffffffffffffffffffffff1673ffffffffffffffffffffffffffffffffffffffff1681526020018481526020018381526020018273ffffffffffffffffffffffffffffffffffffffff1673ffffffffffffffffffffffffffffffffffffffff16815260200194505050505060405180910390f35b3480156104e757600080fd5b5061050660048036038101908080359060200190929190505050610aeb565b005b34801561051457600080fd5b5061053360048036038101908080359060200190929190505050610d4c565b604051808573ffffffffffffffffffffffffffffffffffffffff1673ffffffffffffffffffffffffffffffffffffffff1681526020018481526020018381526020018273ffffffffffffffffffffffffffffffffffffffff1673ffffffffffffffffffffffffffffffffffffffff16815260200194505050505060405180910390f35b3480156105c257600080fd5b506105cb610dcd565b6040518082815260200191505060405180910390f35b3480156105ed57600080fd5b50610622600480360381019080803573ffffffffffffffffffffffffffffffffffffffff169060200190929190505050610dda565b6040518082815260200191505060405180910390f35b61065660048036038101908080359060200190929190505050610e26565b005b34801561066457600080fd5b506106ad600480360381019080803573ffffffffffffffffffffffffffffffffffffffff16906020019092919080359060200190929190803590602001909291905050506112dc565b005b3480156106bb57600080fd5b506106fa600480360381019080803573ffffffffffffffffffffffffffffffffffffffff16906020019092919080359060200190929190505050611968565b6040518082815260200191505060405180910390f35b6060600260008373ffffffffffffffffffffffffffffffffffffffff1673ffffffffffffffffffffffffffffffffffffffff16815260200190815260200160002080548060200260200160405190810160405280929190818152602001828054801561079b57602002820191906000526020600020905b815481526020019060010190808311610787575b50505050509050919050565b6000809054906101000a900473ffffffffffffffffffffffffffffffffffffffff1673ffffffffffffffffffffffffffffffffffffffff163373ffffffffffffffffffffffffffffffffffffffff1614151561080257600080fd5b806000806101000a81548173ffffffffffffffffffffffffffffffffffffffff021916908373ffffffffffffffffffffffffffffffffffffffff16021790555050565b6000600860008373ffffffffffffffffffffffffffffffffffffffff1673ffffffffffffffffffffffffffffffffffffffff16815260200190815260200160002060009054906101000a900460ff169050919050565b6004818154811015156108aa57fe5b906000526020600020016000915054906101000a900473ffffffffffffffffffffffffffffffffffffffff1681565b6000809054906101000a900473ffffffffffffffffffffffffffffffffffffffff1673ffffffffffffffffffffffffffffffffffffffff163373ffffffffffffffffffffffffffffffffffffffff1614151561093457600080fd5b80600860008473ffffffffffffffffffffffffffffffffffffffff1673ffffffffffffffffffffffffffffffffffffffff16815260200190815260200160002060006101000a81548160ff0219169083151502179055505050565b6060600660008373ffffffffffffffffffffffffffffffffffffffff1673ffffffffffffffffffffffffffffffffffffffff168152602001908152602001600020805480602002602001604051908101604052809291908181526020018280548015610a1a57602002820191906000526020600020905b815481526020019060010190808311610a06575b50505050509050919050565b600660205281600052604060002081815481101515610a4157fe5b90600052602060002001600091509150505481565b6000809054906101000a900473ffffffffffffffffffffffffffffffffffffffff1681565b60016020528060005260406000206000915090508060000160009054906101000a900473ffffffffffffffffffffffffffffffffffffffff16908060010154908060020154908060030160009054906101000a900473ffffffffffffffffffffffffffffffffffffffff16905084565b610af3612074565b60006003600084815260200190815260200160002054111515610b1557600080fd5b60016000838152602001908152602001600020608060405190810160405290816000820160009054906101000a900473ffffffffffffffffffffffffffffffffffffffff1673ffffffffffffffffffffffffffffffffffffffff1673ffffffffffffffffffffffffffffffffffffffff16815260200160018201548152602001600282015481526020016003820160009054906101000a900473ffffffffffffffffffffffffffffffffffffffff1673ffffffffffffffffffffffffffffffffffffffff1673ffffffffffffffffffffffffffffffffffffffff16815250509050806000015173ffffffffffffffffffffffffffffffffffffffff163373ffffffffffffffffffffffffffffffffffffffff161480610c8057506000809054906101000a900473ffffffffffffffffffffffffffffffffffffffff1673ffffffffffffffffffffffffffffffffffffffff163373ffffffffffffffffffffffffffffffffffffffff16145b1515610c8b57600080fd5b610c958282611998565b7f2ad9f28701ed86594a018e3331c1aa8fb3a1a39b7a6ef782eda2fc652bcb728f33826060015183604001518460200151604051808573ffffffffffffffffffffffffffffffffffffffff1673ffffffffffffffffffffffffffffffffffffffff1681526020018473ffffffffffffffffffffffffffffffffffffffff1673ffffffffffffffffffffffffffffffffffffffff16815260200183815260200182815260200194505050505060405180910390a15050565b60008060008060006001600087815260200190815260200160002090508060000160009054906101000a900473ffffffffffffffffffffffffffffffffffffffff16816001015482600201548360030160009054906101000a900473ffffffffffffffffffffffffffffffffffffffff169450945094509450509193509193565b6000600480549050905090565b6000600260008373ffffffffffffffffffffffffffffffffffffffff1673ffffffffffffffffffffffffffffffffffffffff168152602001908152602001600020805490509050919050565b610e2e612074565b60008060016000858152602001908152602001600020608060405190810160405290816000820160009054906101000a900473ffffffffffffffffffffffffffffffffffffffff1673ffffffffffffffffffffffffffffffffffffffff1673ffffffffffffffffffffffffffffffffffffffff16815260200160018201548152602001600282015481526020016003820160009054906101000a900473ffffffffffffffffffffffffffffffffffffffff1673ffffffffffffffffffffffffffffffffffffffff1673ffffffffffffffffffffffffffffffffffffffff16815250509250826020015134141515610f2457600080fd5b60001515600860003373ffffffffffffffffffffffffffffffffffffffff1673ffffffffffffffffffffffffffffffffffffffff16815260200190815260200160002060009054906101000a900460ff161515141515610f8357600080fd5b826000015191508260600151905082604001518173ffffffffffffffffffffffffffffffffffffffff1663dd62ed3e8560000151306040518363ffffffff167c0100000000000000000000000000000000000000000000000000000000028152600401808373ffffffffffffffffffffffffffffffffffffffff1673ffffffffffffffffffffffffffffffffffffffff1681526020018273ffffffffffffffffffffffffffffffffffffffff1673ffffffffffffffffffffffffffffffffffffffff16815260200192505050602060405180830381600087803b15801561106957600080fd5b505af115801561107d573d6000803e3d6000fd5b505050506040513d602081101561109357600080fd5b8101908080519060200190929190505050101515611219578073ffffffffffffffffffffffffffffffffffffffff166323b872dd84600001513386604001516040518463ffffffff167c0100000000000000000000000000000000000000000000000000000000028152600401808473ffffffffffffffffffffffffffffffffffffffff1673ffffffffffffffffffffffffffffffffffffffff1681526020018373ffffffffffffffffffffffffffffffffffffffff1673ffffffffffffffffffffffffffffffffffffffff1681526020018281526020019350505050602060405180830381600087803b15801561118a57600080fd5b505af115801561119e573d6000803e3d6000fd5b505050506040513d60208110156111b457600080fd5b810190808051906020019092919050505015156111cd57fe5b8173ffffffffffffffffffffffffffffffffffffffff166108fc84602001519081150290604051600060405180830381858888f19350505050158015611217573d6000803e3d6000fd5b505b6112238484611998565b7f681ddc67ea8796d2489979f5fc2ea2eb0f2d44ff3f11f061a191928a1f3d9a0633846060015185604001518660200151604051808573ffffffffffffffffffffffffffffffffffffffff1673ffffffffffffffffffffffffffffffffffffffff1681526020018473ffffffffffffffffffffffffffffffffffffffff1673ffffffffffffffffffffffffffffffffffffffff16815260200183815260200182815260200194505050505060405180910390a150505050565b6000801515600860003373ffffffffffffffffffffffffffffffffffffffff1673ffffffffffffffffffffffffffffffffffffffff16815260200190815260200160002060009054906101000a900460ff16151514151561133c57600080fd5b60008211151561134b57600080fd5b839050828173ffffffffffffffffffffffffffffffffffffffff1663dd62ed3e33306040518363ffffffff167c0100000000000000000000000000000000000000000000000000000000028152600401808373ffffffffffffffffffffffffffffffffffffffff1673ffffffffffffffffffffffffffffffffffffffff1681526020018273ffffffffffffffffffffffffffffffffffffffff1673ffffffffffffffffffffffffffffffffffffffff16815260200192505050602060405180830381600087803b15801561141e57600080fd5b505af1158015611432573d6000803e3d6000fd5b505050506040513d602081101561144857600080fd5b81019080805190602001909291905050501015151561146657600080fd5b6000600260008673ffffffffffffffffffffffffffffffffffffffff1673ffffffffffffffffffffffffffffffffffffffff16815260200190815260200160002080549050141561151c57600260008573ffffffffffffffffffffffffffffffffffffffff1673ffffffffffffffffffffffffffffffffffffffff168152602001908152602001600020600090806001815401808255809150509060018203906000526020600020016000909192909190915055505b600260008573ffffffffffffffffffffffffffffffffffffffff1673ffffffffffffffffffffffffffffffffffffffff1681526020019081526020016000208054905060036000600954815260200190815260200160002081905550600260008573ffffffffffffffffffffffffffffffffffffffff1673ffffffffffffffffffffffffffffffffffffffff16815260200190815260200160002060095490806001815401808255809150509060018203906000526020600020016000909192909190915055506080604051908101604052803373ffffffffffffffffffffffffffffffffffffffff1681526020018381526020018481526020018573ffffffffffffffffffffffffffffffffffffffff1681525060016000600954815260200190815260200160002060008201518160000160006101000a81548173ffffffffffffffffffffffffffffffffffffffff021916908373ffffffffffffffffffffffffffffffffffffffff160217905550602082015181600101556040820151816002015560608201518160030160006101000a81548173ffffffffffffffffffffffffffffffffffffffff021916908373ffffffffffffffffffffffffffffffffffffffff1602179055509050507f2470206de0d597332cec41e79165bf24fb8e706aca788e7c1aea6ebc5abb2d3833858585604051808573ffffffffffffffffffffffffffffffffffffffff1673ffffffffffffffffffffffffffffffffffffffff1681526020018473ffffffffffffffffffffffffffffffffffffffff1673ffffffffffffffffffffffffffffffffffffffff16815260200183815260200182815260200194505050505060405180910390a16000600560008673ffffffffffffffffffffffffffffffffffffffff1673ffffffffffffffffffffffffffffffffffffffff16815260200190815260200160002054141561188a57600480549050600560008673ffffffffffffffffffffffffffffffffffffffff1673ffffffffffffffffffffffffffffffffffffffff1681526020019081526020016000208190555060048490806001815401808255809150509060018203906000526020600020016000909192909190916101000a81548173ffffffffffffffffffffffffffffffffffffffff021916908373ffffffffffffffffffffffffffffffffffffffff160217905550505b600660003373ffffffffffffffffffffffffffffffffffffffff1673ffffffffffffffffffffffffffffffffffffffff1681526020019081526020016000208054905060076000600954815260200190815260200160002081905550600660003373ffffffffffffffffffffffffffffffffffffffff1673ffffffffffffffffffffffffffffffffffffffff1681526020019081526020016000206009549080600181540180825580915050906001820390600052602060002001600090919290919091505550600160096000828254019250508190555050505050565b60026020528160005260406000208181548110151561198357fe5b90600052602060002001600091509150505481565b60008060008060036000878152602001908152602001600020549350611a0e600160026000886060015173ffffffffffffffffffffffffffffffffffffffff1673ffffffffffffffffffffffffffffffffffffffff1681526020019081526020016000208054905061205b90919063ffffffff16565b925060026000866060015173ffffffffffffffffffffffffffffffffffffffff1673ffffffffffffffffffffffffffffffffffffffff16815260200190815260200160002083815481101515611a6057fe5b906000526020600020015491508160026000876060015173ffffffffffffffffffffffffffffffffffffffff1673ffffffffffffffffffffffffffffffffffffffff16815260200190815260200160002085815481101515611abe57fe5b906000526020600020018190555083600360008481526020019081526020016000208190555060026000866060015173ffffffffffffffffffffffffffffffffffffffff1673ffffffffffffffffffffffffffffffffffffffff168152602001908152602001600020805480919060019003611b3a91906120c9565b5060006003600088815260200190815260200160002081905550608060405190810160405280600073ffffffffffffffffffffffffffffffffffffffff1681526020016000815260200160008152602001600073ffffffffffffffffffffffffffffffffffffffff168152506001600088815260200190815260200160002060008201518160000160006101000a81548173ffffffffffffffffffffffffffffffffffffffff021916908373ffffffffffffffffffffffffffffffffffffffff160217905550602082015181600101556040820151816002015560608201518160030160006101000a81548173ffffffffffffffffffffffffffffffffffffffff021916908373ffffffffffffffffffffffffffffffffffffffff160217905550905050600160026000876060015173ffffffffffffffffffffffffffffffffffffffff1673ffffffffffffffffffffffffffffffffffffffff168152602001908152602001600020805490501415611e9d5760056000866060015173ffffffffffffffffffffffffffffffffffffffff1673ffffffffffffffffffffffffffffffffffffffff168152602001908152602001600020549350611d0c600160048054905061205b90919063ffffffff16565b9250600483815481101515611d1d57fe5b9060005260206000200160009054906101000a900473ffffffffffffffffffffffffffffffffffffffff16905080600485815481101515611d5a57fe5b9060005260206000200160006101000a81548173ffffffffffffffffffffffffffffffffffffffff021916908373ffffffffffffffffffffffffffffffffffffffff16021790555083600560008373ffffffffffffffffffffffffffffffffffffffff1673ffffffffffffffffffffffffffffffffffffffff168152602001908152602001600020819055506004805480919060019003611dfb91906120f5565b50600060056000876060015173ffffffffffffffffffffffffffffffffffffffff1673ffffffffffffffffffffffffffffffffffffffff1681526020019081526020016000208190555060026000866060015173ffffffffffffffffffffffffffffffffffffffff1673ffffffffffffffffffffffffffffffffffffffff168152602001908152602001600020805480919060019003611e9b91906120c9565b505b60076000878152602001908152602001600020549350611f0d600160066000886000015173ffffffffffffffffffffffffffffffffffffffff1673ffffffffffffffffffffffffffffffffffffffff1681526020019081526020016000208054905061205b90919063ffffffff16565b925060066000866000015173ffffffffffffffffffffffffffffffffffffffff1673ffffffffffffffffffffffffffffffffffffffff16815260200190815260200160002083815481101515611f5f57fe5b906000526020600020015491508160066000876000015173ffffffffffffffffffffffffffffffffffffffff1673ffffffffffffffffffffffffffffffffffffffff16815260200190815260200160002085815481101515611fbd57fe5b906000526020600020018190555083600760008481526020019081526020016000208190555060066000866000015173ffffffffffffffffffffffffffffffffffffffff1673ffffffffffffffffffffffffffffffffffffffff16815260200190815260200160002080548091906001900361203991906120c9565b5060006007600088815260200190815260200160002081905550505050505050565b600082821115151561206957fe5b818303905092915050565b608060405190810160405280600073ffffffffffffffffffffffffffffffffffffffff1681526020016000815260200160008152602001600073ffffffffffffffffffffffffffffffffffffffff1681525090565b8154818355818111156120f0578183600052602060002091820191016120ef9190612121565b5b505050565b81548183558181111561211c5781836000526020600020918201910161211b9190612121565b5b505050565b61214391905b8082111561213f576000816000905550600101612127565b5090565b905600a165627a7a723058207cbc607d8b0805309527b594ec557c195cd510e49e0c78dac743f98bc47337bc0029",
  "source": "pragma solidity ^0.4.23;\r\n\r\n import \"./libraries/SafeMath.sol\";\r\n import \"./interfaces/ERC20_Interface.sol\";\r\n\r\n/**\r\n*Exchange creates an exchange for the swaps.\r\n*@To do:\r\n*Allow partial fills\r\n*/\r\ncontract Exchange{ \r\n    using SafeMath for uint256;\r\n\r\n    /*VARIABLES*/\r\n    address public owner; //The owner of the market contract\r\n    \r\n    //This is the base data structure for an order (the maker of the order and the price)\r\n    struct Order {\r\n        address maker;// the placer of the order\r\n        uint price;// The price in wei\r\n        uint amount;\r\n        address asset;\r\n    }\r\n\r\n    //Maps an OrderID to the list of orders\r\n    mapping(uint256 => Order) public orders;\r\n    //An mapping of a token address to the orderID's\r\n    mapping(address =>  uint256[]) public forSale;\r\n    //Index telling where a specific tokenId is in the forSale array\r\n    mapping(uint256 => uint256) internal forSaleIndex;\r\n    //Index telling where a specific tokenId is in the forSale array\r\n    address[] public openBooks;\r\n    //mapping of address to position in openBooks\r\n    mapping (address => uint) internal openBookIndex;\r\n    //mapping of user to their orders\r\n    mapping(address => uint[]) public userOrders;\r\n    //mapping from orderId to userOrder position\r\n    mapping(uint => uint) internal userOrderIndex;\r\n    //A list of the blacklisted addresses\r\n    mapping(address => bool) internal blacklist;\r\n    //order_nonce;\r\n    uint internal order_nonce;\r\n\r\n    /*Modifiers*/\r\n    /// @dev Access modifier for Owner functionality\r\n    modifier onlyOwner() {\r\n        require(msg.sender == owner);\r\n        _;\r\n    }\r\n\r\n    /*Events*/\r\n    event OrderPlaced(address _sender,address _token, uint256 _amount, uint256 _price);\r\n    event Sale(address _sender,address _token, uint256 _amount, uint256 _price);\r\n    event OrderRemoved(address _sender,address _token, uint256 _amount, uint256 _price);\r\n\r\n    /*Functions*/\r\n    /*\r\n    *@dev the constructor argument to set the owner and initialize the array.\r\n    */\r\n    constructor() public{\r\n        owner = msg.sender;\r\n        openBooks.push(address(0));\r\n        order_nonce = 1;\r\n    }\r\n\r\n    /*\r\n    *@dev list allows a party to place an order on the orderbook\r\n    *@param _tokenadd address of the drct tokens\r\n    *@param _amount number of DRCT tokens\r\n    *@param _price uint256 price of all tokens in wei\r\n    */\r\n    function list(address _tokenadd, uint256 _amount, uint256 _price) external {\r\n        require(blacklist[msg.sender] == false);\r\n        require(_price > 0);\r\n        ERC20_Interface token = ERC20_Interface(_tokenadd);\r\n        require(token.allowance(msg.sender,address(this)) >= _amount);\r\n        if(forSale[_tokenadd].length == 0){\r\n            forSale[_tokenadd].push(0);\r\n            }\r\n        forSaleIndex[order_nonce] = forSale[_tokenadd].length;\r\n        forSale[_tokenadd].push(order_nonce);\r\n        orders[order_nonce] = Order({\r\n            maker: msg.sender,\r\n            asset: _tokenadd,\r\n            price: _price,\r\n            amount:_amount\r\n        });\r\n        emit OrderPlaced(msg.sender,_tokenadd,_amount,_price);\r\n        if(openBookIndex[_tokenadd] == 0 ){    \r\n            openBookIndex[_tokenadd] = openBooks.length;\r\n            openBooks.push(_tokenadd);\r\n        }\r\n        userOrderIndex[order_nonce] = userOrders[msg.sender].length;\r\n        userOrders[msg.sender].push(order_nonce);\r\n        order_nonce += 1;\r\n    }\r\n    /**\r\n    *@dev unlist allows a party to remove their order from the orderbook\r\n    *@param _orderId is the uint256 ID of order\r\n    */\r\n    function unlist(uint256 _orderId) external{\r\n        require(forSaleIndex[_orderId] > 0);\r\n        Order memory _order = orders[_orderId];\r\n        require(msg.sender== _order.maker || msg.sender == owner);\r\n        unLister(_orderId,_order);\r\n        emit OrderRemoved(msg.sender,_order.asset,_order.amount,_order.price);\r\n    }\r\n\r\n    /**\r\n    *@dev buy allows a party to fill an order\r\n    *@param _orderId is the uint256 ID of order\r\n    */\r\n    function buy(uint256 _orderId) external payable {\r\n        Order memory _order = orders[_orderId];\r\n        require(msg.value == _order.price);\r\n        require(blacklist[msg.sender] == false);\r\n        address maker = _order.maker;\r\n        ERC20_Interface token = ERC20_Interface(_order.asset);\r\n        if(token.allowance(_order.maker,address(this)) >= _order.amount){\r\n            assert(token.transferFrom(_order.maker,msg.sender, _order.amount));\r\n            maker.transfer(_order.price);\r\n        }\r\n        unLister(_orderId,_order);\r\n        emit Sale(msg.sender,_order.asset,_order.amount,_order.price);\r\n    }\r\n\r\n    /*\r\n    *@dev getOrder lists the price,amount, and maker of a specific token for a sale\r\n    *@param _orderId uint256 ID of order\r\n    *@return address of the party selling\r\n    *@return uint of the price of the sale (in wei)\r\n    *@return uint of the order amount of the sale\r\n    *@return address of the token\r\n    */\r\n    function getOrder(uint256 _orderId) external view returns(address,uint,uint,address){\r\n        Order storage _order = orders[_orderId];\r\n        return (_order.maker,_order.price,_order.amount,_order.asset);\r\n    }\r\n\r\n    /*\r\n    *@dev allows the owner to change who the owner is\r\n    *@param _owner is the address of the new owner\r\n    */\r\n    function setOwner(address _owner) public onlyOwner() {\r\n        owner = _owner;\r\n    }\r\n\r\n    /*\r\n    *@notice This allows the owner to stop a malicious party from spamming the orderbook\r\n    *@dev Allows the owner to blacklist addresses from using this exchange\r\n    *@param _address the address of the party to blacklist\r\n    *@param _motion true or false depending on if blacklisting or not\r\n\r\n    */\r\n    function blacklistParty(address _address, bool _motion) public onlyOwner() {\r\n        blacklist[_address] = _motion;\r\n    }\r\n\r\n    /*\r\n    *@dev Allows parties to see if one is blacklisted\r\n    *@param _address the address of the party to blacklist\r\n    *@return bool true for is blacklisted\r\n    */\r\n    function isBlacklist(address _address) public view returns(bool) {\r\n        return blacklist[_address];\r\n    }\r\n\r\n    /*\r\n    *@dev getOrderCount allows parties to query how many orders are on the book\r\n    *@param _token address used to count the number of orders?\r\n    *@return _uint of the number of orders in the orderbook\r\n    */\r\n    function getOrderCount(address _token) public constant returns(uint) {\r\n        return forSale[_token].length;\r\n    }\r\n\r\n    /*\r\n    *@dev Gets number of open orderbooks\r\n    *@return _uint of the number of tokens with open orders\r\n    */\r\n    function getBookCount() public constant returns(uint) {\r\n        return openBooks.length;\r\n    }\r\n\r\n    /*\r\n    *@dev getOrders allows parties to get an array of all orderId's open for a given token\r\n    *@param _token address of the drct token\r\n    *@return _uint[] an array of the orders in the orderbook\r\n    */\r\n    function getOrders(address _token) public constant returns(uint[]) {\r\n        return forSale[_token];\r\n    }\r\n\r\n    /*\r\n    *@dev getUserOrders allows parties to get an array of all orderId's open for a given user\r\n    *@param _token address of the user\r\n    *@return _uint[] an array of the orders in the orderbook for the user\r\n    */\r\n    function getUserOrders(address _user) public constant returns(uint[]) {\r\n        return userOrders[_user];\r\n    }\r\n\r\n    /*\r\n    *@dev An internal function to update mappings when an order is removed from the book\r\n    *@param _orderId is the uint256 ID of order\r\n    *@param _order is the struct containing the details of the order\r\n    */\r\n    function unLister(uint256 _orderId, Order _order) internal{\r\n        uint256 tokenIndex = forSaleIndex[_orderId];\r\n        uint256 lastTokenIndex = forSale[_order.asset].length.sub(1);\r\n        uint256 lastToken = forSale[_order.asset][lastTokenIndex];\r\n        forSale[_order.asset][tokenIndex] = lastToken;\r\n        forSaleIndex[lastToken] = tokenIndex;\r\n        forSale[_order.asset].length--;\r\n        forSaleIndex[_orderId] = 0;\r\n        orders[_orderId] = Order({\r\n            maker: address(0),\r\n            price: 0,\r\n            amount:0,\r\n            asset: address(0)\r\n        });\r\n        if(forSale[_order.asset].length == 1){\r\n            tokenIndex = openBookIndex[_order.asset];\r\n            lastTokenIndex = openBooks.length.sub(1);\r\n            address lastAdd = openBooks[lastTokenIndex];\r\n            openBooks[tokenIndex] = lastAdd;\r\n            openBookIndex[lastAdd] = tokenIndex;\r\n            openBooks.length--;\r\n            openBookIndex[_order.asset] = 0;\r\n            forSale[_order.asset].length--;\r\n        }\r\n        tokenIndex = userOrderIndex[_orderId];\r\n        lastTokenIndex = userOrders[_order.maker].length.sub(1);\r\n        lastToken = userOrders[_order.maker][lastTokenIndex];\r\n        userOrders[_order.maker][tokenIndex] = lastToken;\r\n        userOrderIndex[lastToken] = tokenIndex;\r\n        userOrders[_order.maker].length--;\r\n        userOrderIndex[_orderId] = 0;\r\n    }\r\n}",
  "sourcePath": "C:\\company\\code\\drct_standard\\contracts\\Exchange.sol",
  "compiler": {
    "name": "solc",
    "version": "0.4.24+commit.e67f0147.Emscripten.clang"
  },
  "schemaVersion": "2.0.0",
  "updatedAt": "2018-06-05T19:14:54.059Z"
}