{
  "contractName": "Exchange",
  "abi": [
    {
      "constant": true,
      "inputs": [
        {
          "name": "",
          "type": "uint256"
        }
      ],
      "name": "openBooks",
      "outputs": [
        {
          "name": "",
          "type": "address"
        }
      ],
      "payable": false,
      "stateMutability": "view",
      "type": "function"
    },
    {
      "constant": true,
      "inputs": [],
      "name": "owner",
      "outputs": [
        {
          "name": "",
          "type": "address"
        }
      ],
      "payable": false,
      "stateMutability": "view",
      "type": "function"
    },
    {
      "constant": true,
      "inputs": [
        {
          "name": "",
          "type": "uint256"
        }
      ],
      "name": "orders",
      "outputs": [
        {
          "name": "maker",
          "type": "address"
        },
        {
          "name": "price",
          "type": "uint256"
        },
        {
          "name": "amount",
          "type": "uint256"
        },
        {
          "name": "asset",
          "type": "address"
        }
      ],
      "payable": false,
      "stateMutability": "view",
      "type": "function"
    },
    {
      "constant": true,
      "inputs": [
        {
          "name": "",
          "type": "address"
        },
        {
          "name": "",
          "type": "uint256"
        }
      ],
      "name": "forSale",
      "outputs": [
        {
          "name": "",
          "type": "uint256"
        }
      ],
      "payable": false,
      "stateMutability": "view",
      "type": "function"
    },
    {
      "inputs": [],
      "payable": false,
      "stateMutability": "nonpayable",
      "type": "constructor"
    },
    {
      "anonymous": false,
      "inputs": [
        {
          "indexed": false,
          "name": "_token",
          "type": "address"
        },
        {
          "indexed": false,
          "name": "_amount",
          "type": "uint256"
        },
        {
          "indexed": false,
          "name": "_price",
          "type": "uint256"
        }
      ],
      "name": "OrderPlaced",
      "type": "event"
    },
    {
      "anonymous": false,
      "inputs": [
        {
          "indexed": false,
          "name": "_token",
          "type": "address"
        },
        {
          "indexed": false,
          "name": "_amount",
          "type": "uint256"
        },
        {
          "indexed": false,
          "name": "_price",
          "type": "uint256"
        }
      ],
      "name": "Sale",
      "type": "event"
    },
    {
      "anonymous": false,
      "inputs": [
        {
          "indexed": false,
          "name": "_token",
          "type": "address"
        },
        {
          "indexed": false,
          "name": "_amount",
          "type": "uint256"
        },
        {
          "indexed": false,
          "name": "_price",
          "type": "uint256"
        }
      ],
      "name": "OrderRemoved",
      "type": "event"
    },
    {
      "constant": false,
      "inputs": [
        {
          "name": "_tokenadd",
          "type": "address"
        },
        {
          "name": "_amount",
          "type": "uint256"
        },
        {
          "name": "_price",
          "type": "uint256"
        }
      ],
      "name": "list",
      "outputs": [],
      "payable": false,
      "stateMutability": "nonpayable",
      "type": "function"
    },
    {
      "constant": false,
      "inputs": [
        {
          "name": "_orderId",
          "type": "uint256"
        }
      ],
      "name": "unlist",
      "outputs": [],
      "payable": false,
      "stateMutability": "nonpayable",
      "type": "function"
    },
    {
      "constant": false,
      "inputs": [
        {
          "name": "_orderId",
          "type": "uint256"
        }
      ],
      "name": "buy",
      "outputs": [],
      "payable": true,
      "stateMutability": "payable",
      "type": "function"
    },
    {
      "constant": true,
      "inputs": [
        {
          "name": "_orderId",
          "type": "uint256"
        }
      ],
      "name": "getOrder",
      "outputs": [
        {
          "name": "",
          "type": "address"
        },
        {
          "name": "",
          "type": "uint256"
        },
        {
          "name": "",
          "type": "uint256"
        },
        {
          "name": "",
          "type": "address"
        }
      ],
      "payable": false,
      "stateMutability": "view",
      "type": "function"
    },
    {
      "constant": false,
      "inputs": [
        {
          "name": "_owner",
          "type": "address"
        }
      ],
      "name": "setOwner",
      "outputs": [],
      "payable": false,
      "stateMutability": "nonpayable",
      "type": "function"
    },
    {
      "constant": false,
      "inputs": [
        {
          "name": "_address",
          "type": "address"
        },
        {
          "name": "_motion",
          "type": "bool"
        }
      ],
      "name": "blacklistParty",
      "outputs": [],
      "payable": false,
      "stateMutability": "nonpayable",
      "type": "function"
    },
    {
      "constant": true,
      "inputs": [
        {
          "name": "_address",
          "type": "address"
        }
      ],
      "name": "isBlacklist",
      "outputs": [
        {
          "name": "",
          "type": "bool"
        }
      ],
      "payable": false,
      "stateMutability": "view",
      "type": "function"
    },
    {
      "constant": true,
      "inputs": [
        {
          "name": "_token",
          "type": "address"
        }
      ],
      "name": "getOrderCount",
      "outputs": [
        {
          "name": "",
          "type": "uint256"
        }
      ],
      "payable": false,
      "stateMutability": "view",
      "type": "function"
    },
    {
      "constant": true,
      "inputs": [],
      "name": "getBookCount",
      "outputs": [
        {
          "name": "",
          "type": "uint256"
        }
      ],
      "payable": false,
      "stateMutability": "view",
      "type": "function"
    },
    {
      "constant": true,
      "inputs": [
        {
          "name": "_token",
          "type": "address"
        }
      ],
      "name": "getOrders",
      "outputs": [
        {
          "name": "",
          "type": "uint256[]"
        }
      ],
      "payable": false,
      "stateMutability": "view",
      "type": "function"
    }
  ],
  "bytecode": "0x606060405234156200001057600080fd5b336000806101000a81548173ffffffffffffffffffffffffffffffffffffffff021916908373ffffffffffffffffffffffffffffffffffffffff16021790555060048054806001018281620000669190620000c3565b9160005260206000209001600080909190916101000a81548173ffffffffffffffffffffffffffffffffffffffff021916908373ffffffffffffffffffffffffffffffffffffffff1602179055505060016009819055506200011a565b815481835581811511620000ed57818360005260206000209182019101620000ec9190620000f2565b5b505050565b6200011791905b8082111562000113576000816000905550600101620000f9565b5090565b90565b611f05806200012a6000396000f3006060604052600436106100d0576000357c0100000000000000000000000000000000000000000000000000000000900463ffffffff168063093376fe146100d557806313af403514610163578063333e99db1461019c5780634c3b6760146101ed5780635ac5ba71146102505780638da5cb5b14610294578063a85c38ef146102e9578063bf5a4dd31461038d578063d09ef241146103b0578063d73e0c8914610454578063d8b867531461047d578063d96a094a146104ca578063dda342bb146104e2578063eb3056e01461052d575b600080fd5b34156100e057600080fd5b61010c600480803573ffffffffffffffffffffffffffffffffffffffff16906020019091905050610583565b6040518080602001828103825283818151815260200191508051906020019060200280838360005b8381101561014f578082015181840152602081019050610134565b505050509050019250505060405180910390f35b341561016e57600080fd5b61019a600480803573ffffffffffffffffffffffffffffffffffffffff16906020019091905050610620565b005b34156101a757600080fd5b6101d3600480803573ffffffffffffffffffffffffffffffffffffffff169060200190919050506106be565b604051808215151515815260200191505060405180910390f35b34156101f857600080fd5b61020e6004808035906020019091905050610714565b604051808273ffffffffffffffffffffffffffffffffffffffff1673ffffffffffffffffffffffffffffffffffffffff16815260200191505060405180910390f35b341561025b57600080fd5b610292600480803573ffffffffffffffffffffffffffffffffffffffff169060200190919080351515906020019091905050610753565b005b341561029f57600080fd5b6102a7610809565b604051808273ffffffffffffffffffffffffffffffffffffffff1673ffffffffffffffffffffffffffffffffffffffff16815260200191505060405180910390f35b34156102f457600080fd5b61030a600480803590602001909190505061082e565b604051808573ffffffffffffffffffffffffffffffffffffffff1673ffffffffffffffffffffffffffffffffffffffff1681526020018481526020018381526020018273ffffffffffffffffffffffffffffffffffffffff1673ffffffffffffffffffffffffffffffffffffffff16815260200194505050505060405180910390f35b341561039857600080fd5b6103ae600480803590602001909190505061089e565b005b34156103bb57600080fd5b6103d16004808035906020019091905050610b98565b604051808573ffffffffffffffffffffffffffffffffffffffff1673ffffffffffffffffffffffffffffffffffffffff1681526020018481526020018381526020018273ffffffffffffffffffffffffffffffffffffffff1673ffffffffffffffffffffffffffffffffffffffff16815260200194505050505060405180910390f35b341561045f57600080fd5b610467610c19565b6040518082815260200191505060405180910390f35b341561048857600080fd5b6104b4600480803573ffffffffffffffffffffffffffffffffffffffff16906020019091905050610c26565b6040518082815260200191505060405180910390f35b6104e06004808035906020019091905050610c72565b005b34156104ed57600080fd5b61052b600480803573ffffffffffffffffffffffffffffffffffffffff16906020019091908035906020019091908035906020019091905050610f74565b005b341561053857600080fd5b61056d600480803573ffffffffffffffffffffffffffffffffffffffff1690602001909190803590602001909190505061159f565b6040518082815260200191505060405180910390f35b61058b611d9b565b600260008373ffffffffffffffffffffffffffffffffffffffff1673ffffffffffffffffffffffffffffffffffffffff16815260200190815260200160002080548060200260200160405190810160405280929190818152602001828054801561061457602002820191906000526020600020905b815481526020019060010190808311610600575b50505050509050919050565b6000809054906101000a900473ffffffffffffffffffffffffffffffffffffffff1673ffffffffffffffffffffffffffffffffffffffff163373ffffffffffffffffffffffffffffffffffffffff1614151561067b57600080fd5b806000806101000a81548173ffffffffffffffffffffffffffffffffffffffff021916908373ffffffffffffffffffffffffffffffffffffffff16021790555050565b6000600860008373ffffffffffffffffffffffffffffffffffffffff1673ffffffffffffffffffffffffffffffffffffffff16815260200190815260200160002060009054906101000a900460ff169050919050565b60048181548110151561072357fe5b90600052602060002090016000915054906101000a900473ffffffffffffffffffffffffffffffffffffffff1681565b6000809054906101000a900473ffffffffffffffffffffffffffffffffffffffff1673ffffffffffffffffffffffffffffffffffffffff163373ffffffffffffffffffffffffffffffffffffffff161415156107ae57600080fd5b80600860008473ffffffffffffffffffffffffffffffffffffffff1673ffffffffffffffffffffffffffffffffffffffff16815260200190815260200160002060006101000a81548160ff0219169083151502179055505050565b6000809054906101000a900473ffffffffffffffffffffffffffffffffffffffff1681565b60016020528060005260406000206000915090508060000160009054906101000a900473ffffffffffffffffffffffffffffffffffffffff16908060010154908060020154908060030160009054906101000a900473ffffffffffffffffffffffffffffffffffffffff16905084565b6108a6611daf565b60008060036000858152602001908152602001600020541115156108c957600080fd5b60016000848152602001908152602001600020608060405190810160405290816000820160009054906101000a900473ffffffffffffffffffffffffffffffffffffffff1673ffffffffffffffffffffffffffffffffffffffff1673ffffffffffffffffffffffffffffffffffffffff16815260200160018201548152602001600282015481526020016003820160009054906101000a900473ffffffffffffffffffffffffffffffffffffffff1673ffffffffffffffffffffffffffffffffffffffff1673ffffffffffffffffffffffffffffffffffffffff16815250509150816000015173ffffffffffffffffffffffffffffffffffffffff163373ffffffffffffffffffffffffffffffffffffffff161480610a3457506000809054906101000a900473ffffffffffffffffffffffffffffffffffffffff1673ffffffffffffffffffffffffffffffffffffffff163373ffffffffffffffffffffffffffffffffffffffff16145b1515610a3f57600080fd5b610a48836115d0565b816060015190508073ffffffffffffffffffffffffffffffffffffffff1663a9059cbb3384604001516040518363ffffffff167c0100000000000000000000000000000000000000000000000000000000028152600401808373ffffffffffffffffffffffffffffffffffffffff1673ffffffffffffffffffffffffffffffffffffffff16815260200182815260200192505050602060405180830381600087803b1515610af557600080fd5b5af11515610b0257600080fd5b505050604051805190501515610b1457fe5b7fd6a299bc1e8bed34430b109db9f16b0f9d75b8c9a36393225f6cd2b3aab54b79826060015183604001518460200151604051808473ffffffffffffffffffffffffffffffffffffffff1673ffffffffffffffffffffffffffffffffffffffff168152602001838152602001828152602001935050505060405180910390a1505050565b60008060008060006001600087815260200190815260200160002090508060000160009054906101000a900473ffffffffffffffffffffffffffffffffffffffff16816001015482600201548360030160009054906101000a900473ffffffffffffffffffffffffffffffffffffffff169450945094509450509193509193565b6000600480549050905090565b6000600260008373ffffffffffffffffffffffffffffffffffffffff1673ffffffffffffffffffffffffffffffffffffffff168152602001908152602001600020805490509050919050565b610c7a611daf565b60008060016000858152602001908152602001600020608060405190810160405290816000820160009054906101000a900473ffffffffffffffffffffffffffffffffffffffff1673ffffffffffffffffffffffffffffffffffffffff1673ffffffffffffffffffffffffffffffffffffffff16815260200160018201548152602001600282015481526020016003820160009054906101000a900473ffffffffffffffffffffffffffffffffffffffff1673ffffffffffffffffffffffffffffffffffffffff1673ffffffffffffffffffffffffffffffffffffffff16815250509250826020015134141515610d7057600080fd5b60001515600860003373ffffffffffffffffffffffffffffffffffffffff1673ffffffffffffffffffffffffffffffffffffffff16815260200190815260200160002060009054906101000a900460ff161515141515610dcf57600080fd5b82600001519150826060015190508073ffffffffffffffffffffffffffffffffffffffff1663a9059cbb3385604001516040518363ffffffff167c0100000000000000000000000000000000000000000000000000000000028152600401808373ffffffffffffffffffffffffffffffffffffffff1673ffffffffffffffffffffffffffffffffffffffff16815260200182815260200192505050602060405180830381600087803b1515610e8357600080fd5b5af11515610e9057600080fd5b505050604051805190501515610ea257fe5b610eab846115d0565b8173ffffffffffffffffffffffffffffffffffffffff166108fc84602001519081150290604051600060405180830381858888f193505050501515610eef57600080fd5b7f0f4a9c70987615d71a1085cae3c6fb0c2855f81a5ec62cb7ee3136d5407e357c836060015184604001518560200151604051808473ffffffffffffffffffffffffffffffffffffffff1673ffffffffffffffffffffffffffffffffffffffff168152602001838152602001828152602001935050505060405180910390a150505050565b6000801515600860003373ffffffffffffffffffffffffffffffffffffffff1673ffffffffffffffffffffffffffffffffffffffff16815260200190815260200160002060009054906101000a900460ff161515141515610fd457600080fd5b600082111515610fe357600080fd5b8390508073ffffffffffffffffffffffffffffffffffffffff166323b872dd3330866040518463ffffffff167c0100000000000000000000000000000000000000000000000000000000028152600401808473ffffffffffffffffffffffffffffffffffffffff1673ffffffffffffffffffffffffffffffffffffffff1681526020018373ffffffffffffffffffffffffffffffffffffffff1673ffffffffffffffffffffffffffffffffffffffff1681526020018281526020019350505050602060405180830381600087803b15156110bc57600080fd5b5af115156110c957600080fd5b5050506040518051905015156110de57600080fd5b6000600260008673ffffffffffffffffffffffffffffffffffffffff1673ffffffffffffffffffffffffffffffffffffffff16815260200190815260200160002080549050141561119057600260008573ffffffffffffffffffffffffffffffffffffffff1673ffffffffffffffffffffffffffffffffffffffff168152602001908152602001600020805480600101828161117a9190611e04565b9160005260206000209001600080909190915055505b600260008573ffffffffffffffffffffffffffffffffffffffff1673ffffffffffffffffffffffffffffffffffffffff1681526020019081526020016000208054905060036000600954815260200190815260200160002081905550600260008573ffffffffffffffffffffffffffffffffffffffff1673ffffffffffffffffffffffffffffffffffffffff168152602001908152602001600020805480600101828161123d9190611e04565b91600052602060002090016000600954909190915055506080604051908101604052803373ffffffffffffffffffffffffffffffffffffffff1681526020018381526020018481526020018573ffffffffffffffffffffffffffffffffffffffff1681525060016000600954815260200190815260200160002060008201518160000160006101000a81548173ffffffffffffffffffffffffffffffffffffffff021916908373ffffffffffffffffffffffffffffffffffffffff160217905550602082015181600101556040820151816002015560608201518160030160006101000a81548173ffffffffffffffffffffffffffffffffffffffff021916908373ffffffffffffffffffffffffffffffffffffffff1602179055509050507f03f23a9b67af957c8605376a4f515b53f102d4ad7f4da099bd1aff8e3ee13fec848484604051808473ffffffffffffffffffffffffffffffffffffffff1673ffffffffffffffffffffffffffffffffffffffff168152602001838152602001828152602001935050505060405180910390a16000600560008673ffffffffffffffffffffffffffffffffffffffff1673ffffffffffffffffffffffffffffffffffffffff1681526020019081526020016000205414156114c457600480549050600560008673ffffffffffffffffffffffffffffffffffffffff1673ffffffffffffffffffffffffffffffffffffffff16815260200190815260200160002081905550600480548060010182816114749190611e30565b9160005260206000209001600086909190916101000a81548173ffffffffffffffffffffffffffffffffffffffff021916908373ffffffffffffffffffffffffffffffffffffffff160217905550505b600660003373ffffffffffffffffffffffffffffffffffffffff1673ffffffffffffffffffffffffffffffffffffffff1681526020019081526020016000208054905060076000600954815260200190815260200160002081905550600660003373ffffffffffffffffffffffffffffffffffffffff1673ffffffffffffffffffffffffffffffffffffffff16815260200190815260200160002080548060010182816115719190611e04565b9160005260206000209001600060095490919091505550600160096000828254019250508190555050505050565b6002602052816000526040600020818154811015156115ba57fe5b9060005260206000209001600091509150505481565b6115d8611daf565b60008060008060016000878152602001908152602001600020608060405190810160405290816000820160009054906101000a900473ffffffffffffffffffffffffffffffffffffffff1673ffffffffffffffffffffffffffffffffffffffff1673ffffffffffffffffffffffffffffffffffffffff16815260200160018201548152602001600282015481526020016003820160009054906101000a900473ffffffffffffffffffffffffffffffffffffffff1673ffffffffffffffffffffffffffffffffffffffff1673ffffffffffffffffffffffffffffffffffffffff168152505094506003600087815260200190815260200160002054935061172f600160026000886060015173ffffffffffffffffffffffffffffffffffffffff1673ffffffffffffffffffffffffffffffffffffffff16815260200190815260200160002080549050611d8290919063ffffffff16565b925060026000866060015173ffffffffffffffffffffffffffffffffffffffff1673ffffffffffffffffffffffffffffffffffffffff1681526020019081526020016000208381548110151561178157fe5b90600052602060002090015491508160026000876060015173ffffffffffffffffffffffffffffffffffffffff1673ffffffffffffffffffffffffffffffffffffffff168152602001908152602001600020858154811015156117e057fe5b90600052602060002090018190555083600360008481526020019081526020016000208190555060026000866060015173ffffffffffffffffffffffffffffffffffffffff1673ffffffffffffffffffffffffffffffffffffffff16815260200190815260200160002080548091906001900361185d9190611e5c565b5060006003600088815260200190815260200160002081905550608060405190810160405280600073ffffffffffffffffffffffffffffffffffffffff1681526020016000815260200160008152602001600073ffffffffffffffffffffffffffffffffffffffff168152506001600088815260200190815260200160002060008201518160000160006101000a81548173ffffffffffffffffffffffffffffffffffffffff021916908373ffffffffffffffffffffffffffffffffffffffff160217905550602082015181600101556040820151816002015560608201518160030160006101000a81548173ffffffffffffffffffffffffffffffffffffffff021916908373ffffffffffffffffffffffffffffffffffffffff160217905550905050600160026000876060015173ffffffffffffffffffffffffffffffffffffffff1673ffffffffffffffffffffffffffffffffffffffff168152602001908152602001600020805490501415611bc25760056000866060015173ffffffffffffffffffffffffffffffffffffffff1673ffffffffffffffffffffffffffffffffffffffff168152602001908152602001600020549350611a2f6001600480549050611d8290919063ffffffff16565b9250600483815481101515611a4057fe5b906000526020600020900160009054906101000a900473ffffffffffffffffffffffffffffffffffffffff16905080600485815481101515611a7e57fe5b906000526020600020900160006101000a81548173ffffffffffffffffffffffffffffffffffffffff021916908373ffffffffffffffffffffffffffffffffffffffff16021790555083600560008373ffffffffffffffffffffffffffffffffffffffff1673ffffffffffffffffffffffffffffffffffffffff168152602001908152602001600020819055506004805480919060019003611b209190611e88565b50600060056000876060015173ffffffffffffffffffffffffffffffffffffffff1673ffffffffffffffffffffffffffffffffffffffff1681526020019081526020016000208190555060026000866060015173ffffffffffffffffffffffffffffffffffffffff1673ffffffffffffffffffffffffffffffffffffffff168152602001908152602001600020805480919060019003611bc09190611e5c565b505b60076000878152602001908152602001600020549350611c32600160066000886000015173ffffffffffffffffffffffffffffffffffffffff1673ffffffffffffffffffffffffffffffffffffffff16815260200190815260200160002080549050611d8290919063ffffffff16565b925060066000866000015173ffffffffffffffffffffffffffffffffffffffff1673ffffffffffffffffffffffffffffffffffffffff16815260200190815260200160002083815481101515611c8457fe5b90600052602060002090015491508160066000876000015173ffffffffffffffffffffffffffffffffffffffff1673ffffffffffffffffffffffffffffffffffffffff16815260200190815260200160002085815481101515611ce357fe5b90600052602060002090018190555083600760008481526020019081526020016000208190555060066000866000015173ffffffffffffffffffffffffffffffffffffffff1673ffffffffffffffffffffffffffffffffffffffff168152602001908152602001600020805480919060019003611d609190611e5c565b5060006007600088815260200190815260200160002081905550505050505050565b6000828211151515611d9057fe5b818303905092915050565b602060405190810160405280600081525090565b608060405190810160405280600073ffffffffffffffffffffffffffffffffffffffff1681526020016000815260200160008152602001600073ffffffffffffffffffffffffffffffffffffffff1681525090565b815481835581811511611e2b57818360005260206000209182019101611e2a9190611eb4565b5b505050565b815481835581811511611e5757818360005260206000209182019101611e569190611eb4565b5b505050565b815481835581811511611e8357818360005260206000209182019101611e829190611eb4565b5b505050565b815481835581811511611eaf57818360005260206000209182019101611eae9190611eb4565b5b505050565b611ed691905b80821115611ed2576000816000905550600101611eba565b5090565b905600a165627a7a723058208f159aae9497efc14b4a1087cb165fa2f12214a0f504b12aecf69fe4ce9b04280029",
  "source": "pragma solidity ^0.4.19;\n\n import \"./libraries/SafeMath.sol\";\n import \"./interfaces/ERC20_Interface.sol\";\n\n/**\n*@To do:\nAllow partial fills\n*/\ncontract Exchange{\n    using SafeMath for uint256;\n\n    /***VARIABLES***/\n    address public owner; //The owner of the market contract\n    \n    /***DATA***/\n    //This is the base data structure for an order (the maker of the order and the price)\n    struct Order {\n        address maker;// the placer of the order\n        uint price;// The price in wei\n        uint amount;\n        address asset;\n    }\n\n    //Maps an OrderID to the list of orders\n    mapping(uint256 => Order) public orders;\n    //An mapping of a token address to the orderID's\n    mapping(address =>  uint256[]) public forSale;\n    //Index telling where a specific tokenId is in the forSale array\n    mapping(uint256 => uint256) forSaleIndex;\n    //Index telling where a specific tokenId is in the forSale array\n    address[] public openBooks;\n    //mapping of address to position in openBooks\n    mapping (address => uint) openBookIndex;\n    //mapping of user to their orders\n    mapping(address => uint[]) userOrders;\n    //mapping from orderId to userOrder position\n    mapping(uint => uint) userOrderIndex;\n    //A list of the blacklisted addresses\n    mapping(address => bool) blacklist;\n    //order_nonce;\n    uint order_nonce;\n\n    /***MODIFIERS***/\n    /// @dev Access modifier for Owner functionality\n    modifier onlyOwner() {\n        require(msg.sender == owner);\n        _;\n    }\n\n\n    /***EVENTS***/\n    event OrderPlaced(address _token, uint256 _amount, uint256 _price);\n    event Sale(address _token, uint256 _amount, uint256 _price);\n    event OrderRemoved(address _token, uint256 _amount, uint256 _price);\n\n    /***FUNCTIONS***/\n    /*\n    *@dev the constructor argument to set the owner and initialize the array.\n    */\n    function Exchange() public{\n        owner = msg.sender;\n        openBooks.push(address(0));\n        order_nonce = 1;\n    }\n\n    /*\n    *@dev list allows a party to place an order on the orderbook\n    *@param _tokenadd address of the drct tokens\n    *@param _amount number of DRCT tokens\n    *@param _price uint256 price of all tokens in wei\n    */\n    function list(address _tokenadd, uint256 _amount, uint256 _price) external {\n        require(blacklist[msg.sender] == false);\n        require(_price > 0);\n        ERC20_Interface token = ERC20_Interface(_tokenadd);\n        require(token.transferFrom(msg.sender,address(this),_amount));\n        if(forSale[_tokenadd].length == 0){\n            forSale[_tokenadd].push(0);\n            }\n        forSaleIndex[order_nonce] = forSale[_tokenadd].length;\n        forSale[_tokenadd].push(order_nonce);\n        orders[order_nonce] = Order({\n            maker: msg.sender,\n            asset: _tokenadd,\n            price: _price,\n            amount:_amount\n        });\n        emit OrderPlaced(_tokenadd,_amount,_price);\n        if(openBookIndex[_tokenadd] == 0 ){    \n            openBookIndex[_tokenadd] = openBooks.length;\n            openBooks.push(_tokenadd);\n        }\n        userOrderIndex[order_nonce] = userOrders[msg.sender].length;\n        userOrders[msg.sender].push(order_nonce);\n        order_nonce += 1;\n    }\n    /**\n    *@dev unlist allows a party to remove their order from the orderbook\n    *@param _tokenId uint256 ID of order\n    */\n    function unlist(uint256 _orderId) external{\n        require(forSaleIndex[_orderId] > 0);\n        Order memory _order = orders[_orderId];\n        require(msg.sender== _order.maker || msg.sender == owner);\n        unLister(_orderId);\n        ERC20_Interface token = ERC20_Interface(_order.asset);\n        assert(token.transfer(msg.sender,_order.amount));\n        emit OrderRemoved(_order.asset,_order.amount,_order.price);\n    }\n\n    /**\n    *@dev buy allows a party to fill an order\n    *@param _tokenId uint256 ID of order\n    */\n    function buy(uint256 _orderId) external payable {\n        Order memory _order = orders[_orderId];\n        require(msg.value == _order.price);\n        require(blacklist[msg.sender] == false);\n        address maker = _order.maker;\n        ERC20_Interface token = ERC20_Interface(_order.asset);\n        assert(token.transfer(msg.sender, _order.amount));\n        unLister(_orderId);\n        maker.transfer(_order.price);\n        emit Sale(_order.asset,_order.amount,_order.price);\n    }\n\n    /*\n    *@dev getOrder lists the price,amount, and maker of a specific token for a sale\n    *@param _tokenId uint256 ID of order\n    *@return address of the party selling\n    *@return uint of the price of the sale (in wei)\n    *@return address of the token\n    */\n    function getOrder(uint256 _orderId) external view returns(address,uint,uint,address){\n        Order storage _order = orders[_orderId];\n        return (_order.maker,_order.price,_order.amount,_order.asset);\n    }\n\n    /*\n    *@dev allows the owner to change who the owner is\n    *@param _owner is the address of the new owner\n    */\n    function setOwner(address _owner) public onlyOwner() {\n        owner = _owner;\n    }\n\n    /*\n    *@dev Allows the owner to blacklist addresses from using this exchange\n    *@param _address the address of the party to blacklist\n    *@param _motion true or false depending on if blacklisting or not\n    *@Note - This allows the owner to stop a malicious party from spamming the orderbook\n    */\n    function blacklistParty(address _address, bool _motion) public onlyOwner() {\n        blacklist[_address] = _motion;\n    }\n\n    /*\n    *@dev Allows parties to see if one is blacklisted\n    *@param _address the address of the party to blacklist\n    *@return bool, true for is blacklisted\n    */\n    function isBlacklist(address _address) public view returns(bool) {\n        return blacklist[_address];\n    }\n\n    /*\n    *@dev getOrderCount allows parties to query how many orders are on the book\n    *@return _uint of the number of orders in the orderbook\n    */\n    function getOrderCount(address _token) public constant returns(uint) {\n        return forSale[_token].length;\n    }\n\n\n    /*\n    *@dev Gets number of open orderbooks\n    *@return _uint of the number of tokens with open orders\n    */\n    function getBookCount() public constant returns(uint) {\n        return openBooks.length;\n    }\n\n        /*\n    *@dev getOrderCount allows parties to query how many orders are on the book\n    *@return _uint of the number of orders in the orderbook\n    */\n    function getOrders(address _token) public constant returns(uint[]) {\n        return forSale[_token];\n    }\n\n\n    /***INTERNAL FUNCTIONS***/\n    /*\n    *@dev An internal function to update mappings when an order is removed from the book\n    *@param _tokenId uint256 ID of order\n    */\n    function unLister(uint256 _orderId) internal{\n        Order memory _order = orders[_orderId];\n\n        uint256 tokenIndex = forSaleIndex[_orderId];\n        uint256 lastTokenIndex = forSale[_order.asset].length.sub(1);\n        uint256 lastToken = forSale[_order.asset][lastTokenIndex];\n        forSale[_order.asset][tokenIndex] = lastToken;\n        forSaleIndex[lastToken] = tokenIndex;\n        forSale[_order.asset].length--;\n        forSaleIndex[_orderId] = 0;\n        orders[_orderId] = Order({\n            maker: address(0),\n            price: 0,\n            amount:0,\n            asset: address(0)\n        });\n        if(forSale[_order.asset].length == 1){\n            tokenIndex = openBookIndex[_order.asset];\n            lastTokenIndex = openBooks.length.sub(1);\n            address lastAdd = openBooks[lastTokenIndex];\n            openBooks[tokenIndex] = lastAdd;\n            openBookIndex[lastAdd] = tokenIndex;\n            openBooks.length--;\n            openBookIndex[_order.asset] = 0;\n            forSale[_order.asset].length--;\n        }\n        tokenIndex = userOrderIndex[_orderId];\n        lastTokenIndex = userOrders[_order.maker].length.sub(1);\n        lastToken = userOrders[_order.maker][lastTokenIndex];\n        userOrders[_order.maker][tokenIndex] = lastToken;\n        userOrderIndex[lastToken] = tokenIndex;\n        userOrders[_order.maker].length--;\n        userOrderIndex[_orderId] = 0;\n    }\n}",
  "sourcePath": "/Users/daniel/Desktop/drct/DRCT_standard/contracts/Exchange.sol",
  "compiler": {
    "name": "solc",
    "version": "0.4.21+commit.dfe3193c.Emscripten.clang"
  },
  "schemaVersion": "2.0.0",
  "updatedAt": "2018-04-30T22:33:36.421Z"
}