{
  "contractName": "Exchange",
  "abi": [
    {
      "constant": true,
      "inputs": [
        {
          "name": "",
          "type": "uint256"
        }
      ],
      "name": "openBooks",
      "outputs": [
        {
          "name": "",
          "type": "address"
        }
      ],
      "payable": false,
      "stateMutability": "view",
      "type": "function"
    },
    {
      "constant": true,
      "inputs": [],
      "name": "owner",
      "outputs": [
        {
          "name": "",
          "type": "address"
        }
      ],
      "payable": false,
      "stateMutability": "view",
      "type": "function"
    },
    {
      "constant": true,
      "inputs": [
        {
          "name": "",
          "type": "uint256"
        }
      ],
      "name": "orders",
      "outputs": [
        {
          "name": "maker",
          "type": "address"
        },
        {
          "name": "price",
          "type": "uint256"
        },
        {
          "name": "amount",
          "type": "uint256"
        },
        {
          "name": "asset",
          "type": "address"
        }
      ],
      "payable": false,
      "stateMutability": "view",
      "type": "function"
    },
    {
      "constant": true,
      "inputs": [
        {
          "name": "",
          "type": "address"
        },
        {
          "name": "",
          "type": "uint256"
        }
      ],
      "name": "forSale",
      "outputs": [
        {
          "name": "",
          "type": "uint256"
        }
      ],
      "payable": false,
      "stateMutability": "view",
      "type": "function"
    },
    {
      "inputs": [],
      "payable": false,
      "stateMutability": "nonpayable",
      "type": "constructor"
    },
    {
      "anonymous": false,
      "inputs": [
        {
          "indexed": false,
          "name": "_sender",
          "type": "address"
        },
        {
          "indexed": false,
          "name": "_token",
          "type": "address"
        },
        {
          "indexed": false,
          "name": "_amount",
          "type": "uint256"
        },
        {
          "indexed": false,
          "name": "_price",
          "type": "uint256"
        }
      ],
      "name": "OrderPlaced",
      "type": "event"
    },
    {
      "anonymous": false,
      "inputs": [
        {
          "indexed": false,
          "name": "_sender",
          "type": "address"
        },
        {
          "indexed": false,
          "name": "_token",
          "type": "address"
        },
        {
          "indexed": false,
          "name": "_amount",
          "type": "uint256"
        },
        {
          "indexed": false,
          "name": "_price",
          "type": "uint256"
        }
      ],
      "name": "Sale",
      "type": "event"
    },
    {
      "anonymous": false,
      "inputs": [
        {
          "indexed": false,
          "name": "_sender",
          "type": "address"
        },
        {
          "indexed": false,
          "name": "_token",
          "type": "address"
        },
        {
          "indexed": false,
          "name": "_amount",
          "type": "uint256"
        },
        {
          "indexed": false,
          "name": "_price",
          "type": "uint256"
        }
      ],
      "name": "OrderRemoved",
      "type": "event"
    },
    {
      "constant": false,
      "inputs": [
        {
          "name": "_tokenadd",
          "type": "address"
        },
        {
          "name": "_amount",
          "type": "uint256"
        },
        {
          "name": "_price",
          "type": "uint256"
        }
      ],
      "name": "list",
      "outputs": [],
      "payable": false,
      "stateMutability": "nonpayable",
      "type": "function"
    },
    {
      "constant": false,
      "inputs": [
        {
          "name": "_orderId",
          "type": "uint256"
        }
      ],
      "name": "unlist",
      "outputs": [],
      "payable": false,
      "stateMutability": "nonpayable",
      "type": "function"
    },
    {
      "constant": false,
      "inputs": [
        {
          "name": "_orderId",
          "type": "uint256"
        }
      ],
      "name": "buy",
      "outputs": [],
      "payable": true,
      "stateMutability": "payable",
      "type": "function"
    },
    {
      "constant": true,
      "inputs": [
        {
          "name": "_orderId",
          "type": "uint256"
        }
      ],
      "name": "getOrder",
      "outputs": [
        {
          "name": "",
          "type": "address"
        },
        {
          "name": "",
          "type": "uint256"
        },
        {
          "name": "",
          "type": "uint256"
        },
        {
          "name": "",
          "type": "address"
        }
      ],
      "payable": false,
      "stateMutability": "view",
      "type": "function"
    },
    {
      "constant": false,
      "inputs": [
        {
          "name": "_owner",
          "type": "address"
        }
      ],
      "name": "setOwner",
      "outputs": [],
      "payable": false,
      "stateMutability": "nonpayable",
      "type": "function"
    },
    {
      "constant": false,
      "inputs": [
        {
          "name": "_address",
          "type": "address"
        },
        {
          "name": "_motion",
          "type": "bool"
        }
      ],
      "name": "blacklistParty",
      "outputs": [],
      "payable": false,
      "stateMutability": "nonpayable",
      "type": "function"
    },
    {
      "constant": true,
      "inputs": [
        {
          "name": "_address",
          "type": "address"
        }
      ],
      "name": "isBlacklist",
      "outputs": [
        {
          "name": "",
          "type": "bool"
        }
      ],
      "payable": false,
      "stateMutability": "view",
      "type": "function"
    },
    {
      "constant": true,
      "inputs": [
        {
          "name": "_token",
          "type": "address"
        }
      ],
      "name": "getOrderCount",
      "outputs": [
        {
          "name": "",
          "type": "uint256"
        }
      ],
      "payable": false,
      "stateMutability": "view",
      "type": "function"
    },
    {
      "constant": true,
      "inputs": [],
      "name": "getBookCount",
      "outputs": [
        {
          "name": "",
          "type": "uint256"
        }
      ],
      "payable": false,
      "stateMutability": "view",
      "type": "function"
    },
    {
      "constant": true,
      "inputs": [
        {
          "name": "_token",
          "type": "address"
        }
      ],
      "name": "getOrders",
      "outputs": [
        {
          "name": "",
          "type": "uint256[]"
        }
      ],
      "payable": false,
      "stateMutability": "view",
      "type": "function"
    }
  ],
  "bytecode": "0x606060405234156200001057600080fd5b336000806101000a81548173ffffffffffffffffffffffffffffffffffffffff021916908373ffffffffffffffffffffffffffffffffffffffff16021790555060048054806001018281620000669190620000c3565b9160005260206000209001600080909190916101000a81548173ffffffffffffffffffffffffffffffffffffffff021916908373ffffffffffffffffffffffffffffffffffffffff1602179055505060016009819055506200011a565b815481835581811511620000ed57818360005260206000209182019101620000ec9190620000f2565b5b505050565b6200011791905b8082111562000113576000816000905550600101620000f9565b5090565b90565b611f15806200012a6000396000f3006060604052600436106100d0576000357c0100000000000000000000000000000000000000000000000000000000900463ffffffff168063093376fe146100d557806313af403514610163578063333e99db1461019c5780634c3b6760146101ed5780635ac5ba71146102505780638da5cb5b14610294578063a85c38ef146102e9578063bf5a4dd31461038d578063d09ef241146103b0578063d73e0c8914610454578063d8b867531461047d578063d96a094a146104ca578063dda342bb146104e2578063eb3056e01461052d575b600080fd5b34156100e057600080fd5b61010c600480803573ffffffffffffffffffffffffffffffffffffffff16906020019091905050610583565b6040518080602001828103825283818151815260200191508051906020019060200280838360005b8381101561014f578082015181840152602081019050610134565b505050509050019250505060405180910390f35b341561016e57600080fd5b61019a600480803573ffffffffffffffffffffffffffffffffffffffff16906020019091905050610620565b005b34156101a757600080fd5b6101d3600480803573ffffffffffffffffffffffffffffffffffffffff169060200190919050506106be565b604051808215151515815260200191505060405180910390f35b34156101f857600080fd5b61020e6004808035906020019091905050610714565b604051808273ffffffffffffffffffffffffffffffffffffffff1673ffffffffffffffffffffffffffffffffffffffff16815260200191505060405180910390f35b341561025b57600080fd5b610292600480803573ffffffffffffffffffffffffffffffffffffffff169060200190919080351515906020019091905050610753565b005b341561029f57600080fd5b6102a7610809565b604051808273ffffffffffffffffffffffffffffffffffffffff1673ffffffffffffffffffffffffffffffffffffffff16815260200191505060405180910390f35b34156102f457600080fd5b61030a600480803590602001909190505061082e565b604051808573ffffffffffffffffffffffffffffffffffffffff1673ffffffffffffffffffffffffffffffffffffffff1681526020018481526020018381526020018273ffffffffffffffffffffffffffffffffffffffff1673ffffffffffffffffffffffffffffffffffffffff16815260200194505050505060405180910390f35b341561039857600080fd5b6103ae600480803590602001909190505061089e565b005b34156103bb57600080fd5b6103d16004808035906020019091905050610aff565b604051808573ffffffffffffffffffffffffffffffffffffffff1673ffffffffffffffffffffffffffffffffffffffff1681526020018481526020018381526020018273ffffffffffffffffffffffffffffffffffffffff1673ffffffffffffffffffffffffffffffffffffffff16815260200194505050505060405180910390f35b341561045f57600080fd5b610467610b80565b6040518082815260200191505060405180910390f35b341561048857600080fd5b6104b4600480803573ffffffffffffffffffffffffffffffffffffffff16906020019091905050610b8d565b6040518082815260200191505060405180910390f35b6104e06004808035906020019091905050610bd9565b005b34156104ed57600080fd5b61052b600480803573ffffffffffffffffffffffffffffffffffffffff1690602001909190803590602001909190803590602001909190505061103e565b005b341561053857600080fd5b61056d600480803573ffffffffffffffffffffffffffffffffffffffff16906020019091908035906020019091905050611698565b6040518082815260200191505060405180910390f35b61058b611dab565b600260008373ffffffffffffffffffffffffffffffffffffffff1673ffffffffffffffffffffffffffffffffffffffff16815260200190815260200160002080548060200260200160405190810160405280929190818152602001828054801561061457602002820191906000526020600020905b815481526020019060010190808311610600575b50505050509050919050565b6000809054906101000a900473ffffffffffffffffffffffffffffffffffffffff1673ffffffffffffffffffffffffffffffffffffffff163373ffffffffffffffffffffffffffffffffffffffff1614151561067b57600080fd5b806000806101000a81548173ffffffffffffffffffffffffffffffffffffffff021916908373ffffffffffffffffffffffffffffffffffffffff16021790555050565b6000600860008373ffffffffffffffffffffffffffffffffffffffff1673ffffffffffffffffffffffffffffffffffffffff16815260200190815260200160002060009054906101000a900460ff169050919050565b60048181548110151561072357fe5b90600052602060002090016000915054906101000a900473ffffffffffffffffffffffffffffffffffffffff1681565b6000809054906101000a900473ffffffffffffffffffffffffffffffffffffffff1673ffffffffffffffffffffffffffffffffffffffff163373ffffffffffffffffffffffffffffffffffffffff161415156107ae57600080fd5b80600860008473ffffffffffffffffffffffffffffffffffffffff1673ffffffffffffffffffffffffffffffffffffffff16815260200190815260200160002060006101000a81548160ff0219169083151502179055505050565b6000809054906101000a900473ffffffffffffffffffffffffffffffffffffffff1681565b60016020528060005260406000206000915090508060000160009054906101000a900473ffffffffffffffffffffffffffffffffffffffff16908060010154908060020154908060030160009054906101000a900473ffffffffffffffffffffffffffffffffffffffff16905084565b6108a6611dbf565b600060036000848152602001908152602001600020541115156108c857600080fd5b60016000838152602001908152602001600020608060405190810160405290816000820160009054906101000a900473ffffffffffffffffffffffffffffffffffffffff1673ffffffffffffffffffffffffffffffffffffffff1673ffffffffffffffffffffffffffffffffffffffff16815260200160018201548152602001600282015481526020016003820160009054906101000a900473ffffffffffffffffffffffffffffffffffffffff1673ffffffffffffffffffffffffffffffffffffffff1673ffffffffffffffffffffffffffffffffffffffff16815250509050806000015173ffffffffffffffffffffffffffffffffffffffff163373ffffffffffffffffffffffffffffffffffffffff161480610a3357506000809054906101000a900473ffffffffffffffffffffffffffffffffffffffff1673ffffffffffffffffffffffffffffffffffffffff163373ffffffffffffffffffffffffffffffffffffffff16145b1515610a3e57600080fd5b610a4882826116c9565b7f2ad9f28701ed86594a018e3331c1aa8fb3a1a39b7a6ef782eda2fc652bcb728f33826060015183604001518460200151604051808573ffffffffffffffffffffffffffffffffffffffff1673ffffffffffffffffffffffffffffffffffffffff1681526020018473ffffffffffffffffffffffffffffffffffffffff1673ffffffffffffffffffffffffffffffffffffffff16815260200183815260200182815260200194505050505060405180910390a15050565b60008060008060006001600087815260200190815260200160002090508060000160009054906101000a900473ffffffffffffffffffffffffffffffffffffffff16816001015482600201548360030160009054906101000a900473ffffffffffffffffffffffffffffffffffffffff169450945094509450509193509193565b6000600480549050905090565b6000600260008373ffffffffffffffffffffffffffffffffffffffff1673ffffffffffffffffffffffffffffffffffffffff168152602001908152602001600020805490509050919050565b610be1611dbf565b60008060016000858152602001908152602001600020608060405190810160405290816000820160009054906101000a900473ffffffffffffffffffffffffffffffffffffffff1673ffffffffffffffffffffffffffffffffffffffff1673ffffffffffffffffffffffffffffffffffffffff16815260200160018201548152602001600282015481526020016003820160009054906101000a900473ffffffffffffffffffffffffffffffffffffffff1673ffffffffffffffffffffffffffffffffffffffff1673ffffffffffffffffffffffffffffffffffffffff16815250509250826020015134141515610cd757600080fd5b60001515600860003373ffffffffffffffffffffffffffffffffffffffff1673ffffffffffffffffffffffffffffffffffffffff16815260200190815260200160002060009054906101000a900460ff161515141515610d3657600080fd5b826000015191508260600151905082604001518173ffffffffffffffffffffffffffffffffffffffff1663dd62ed3e8560000151306040518363ffffffff167c0100000000000000000000000000000000000000000000000000000000028152600401808373ffffffffffffffffffffffffffffffffffffffff1673ffffffffffffffffffffffffffffffffffffffff1681526020018273ffffffffffffffffffffffffffffffffffffffff1673ffffffffffffffffffffffffffffffffffffffff16815260200192505050602060405180830381600087803b1515610e1b57600080fd5b5af11515610e2857600080fd5b50505060405180519050101515610f7b578073ffffffffffffffffffffffffffffffffffffffff166323b872dd84600001513386604001516040518463ffffffff167c0100000000000000000000000000000000000000000000000000000000028152600401808473ffffffffffffffffffffffffffffffffffffffff1673ffffffffffffffffffffffffffffffffffffffff1681526020018373ffffffffffffffffffffffffffffffffffffffff1673ffffffffffffffffffffffffffffffffffffffff1681526020018281526020019350505050602060405180830381600087803b1515610f1757600080fd5b5af11515610f2457600080fd5b505050604051805190501515610f3657fe5b8173ffffffffffffffffffffffffffffffffffffffff166108fc84602001519081150290604051600060405180830381858888f193505050501515610f7a57600080fd5b5b610f8584846116c9565b7f681ddc67ea8796d2489979f5fc2ea2eb0f2d44ff3f11f061a191928a1f3d9a0633846060015185604001518660200151604051808573ffffffffffffffffffffffffffffffffffffffff1673ffffffffffffffffffffffffffffffffffffffff1681526020018473ffffffffffffffffffffffffffffffffffffffff1673ffffffffffffffffffffffffffffffffffffffff16815260200183815260200182815260200194505050505060405180910390a150505050565b6000801515600860003373ffffffffffffffffffffffffffffffffffffffff1673ffffffffffffffffffffffffffffffffffffffff16815260200190815260200160002060009054906101000a900460ff16151514151561109e57600080fd5b6000821115156110ad57600080fd5b839050828173ffffffffffffffffffffffffffffffffffffffff1663dd62ed3e33306040518363ffffffff167c0100000000000000000000000000000000000000000000000000000000028152600401808373ffffffffffffffffffffffffffffffffffffffff1673ffffffffffffffffffffffffffffffffffffffff1681526020018273ffffffffffffffffffffffffffffffffffffffff1673ffffffffffffffffffffffffffffffffffffffff16815260200192505050602060405180830381600087803b151561117f57600080fd5b5af1151561118c57600080fd5b50505060405180519050101515156111a357600080fd5b6000600260008673ffffffffffffffffffffffffffffffffffffffff1673ffffffffffffffffffffffffffffffffffffffff16815260200190815260200160002080549050141561125557600260008573ffffffffffffffffffffffffffffffffffffffff1673ffffffffffffffffffffffffffffffffffffffff168152602001908152602001600020805480600101828161123f9190611e14565b9160005260206000209001600080909190915055505b600260008573ffffffffffffffffffffffffffffffffffffffff1673ffffffffffffffffffffffffffffffffffffffff1681526020019081526020016000208054905060036000600954815260200190815260200160002081905550600260008573ffffffffffffffffffffffffffffffffffffffff1673ffffffffffffffffffffffffffffffffffffffff16815260200190815260200160002080548060010182816113029190611e14565b91600052602060002090016000600954909190915055506080604051908101604052803373ffffffffffffffffffffffffffffffffffffffff1681526020018381526020018481526020018573ffffffffffffffffffffffffffffffffffffffff1681525060016000600954815260200190815260200160002060008201518160000160006101000a81548173ffffffffffffffffffffffffffffffffffffffff021916908373ffffffffffffffffffffffffffffffffffffffff160217905550602082015181600101556040820151816002015560608201518160030160006101000a81548173ffffffffffffffffffffffffffffffffffffffff021916908373ffffffffffffffffffffffffffffffffffffffff1602179055509050507f2470206de0d597332cec41e79165bf24fb8e706aca788e7c1aea6ebc5abb2d3833858585604051808573ffffffffffffffffffffffffffffffffffffffff1673ffffffffffffffffffffffffffffffffffffffff1681526020018473ffffffffffffffffffffffffffffffffffffffff1673ffffffffffffffffffffffffffffffffffffffff16815260200183815260200182815260200194505050505060405180910390a16000600560008673ffffffffffffffffffffffffffffffffffffffff1673ffffffffffffffffffffffffffffffffffffffff1681526020019081526020016000205414156115bd57600480549050600560008673ffffffffffffffffffffffffffffffffffffffff1673ffffffffffffffffffffffffffffffffffffffff168152602001908152602001600020819055506004805480600101828161156d9190611e40565b9160005260206000209001600086909190916101000a81548173ffffffffffffffffffffffffffffffffffffffff021916908373ffffffffffffffffffffffffffffffffffffffff160217905550505b600660003373ffffffffffffffffffffffffffffffffffffffff1673ffffffffffffffffffffffffffffffffffffffff1681526020019081526020016000208054905060076000600954815260200190815260200160002081905550600660003373ffffffffffffffffffffffffffffffffffffffff1673ffffffffffffffffffffffffffffffffffffffff168152602001908152602001600020805480600101828161166a9190611e14565b9160005260206000209001600060095490919091505550600160096000828254019250508190555050505050565b6002602052816000526040600020818154811015156116b357fe5b9060005260206000209001600091509150505481565b6000806000806003600087815260200190815260200160002054935061173f600160026000886060015173ffffffffffffffffffffffffffffffffffffffff1673ffffffffffffffffffffffffffffffffffffffff16815260200190815260200160002080549050611d9290919063ffffffff16565b925060026000866060015173ffffffffffffffffffffffffffffffffffffffff1673ffffffffffffffffffffffffffffffffffffffff1681526020019081526020016000208381548110151561179157fe5b90600052602060002090015491508160026000876060015173ffffffffffffffffffffffffffffffffffffffff1673ffffffffffffffffffffffffffffffffffffffff168152602001908152602001600020858154811015156117f057fe5b90600052602060002090018190555083600360008481526020019081526020016000208190555060026000866060015173ffffffffffffffffffffffffffffffffffffffff1673ffffffffffffffffffffffffffffffffffffffff16815260200190815260200160002080548091906001900361186d9190611e6c565b5060006003600088815260200190815260200160002081905550608060405190810160405280600073ffffffffffffffffffffffffffffffffffffffff1681526020016000815260200160008152602001600073ffffffffffffffffffffffffffffffffffffffff168152506001600088815260200190815260200160002060008201518160000160006101000a81548173ffffffffffffffffffffffffffffffffffffffff021916908373ffffffffffffffffffffffffffffffffffffffff160217905550602082015181600101556040820151816002015560608201518160030160006101000a81548173ffffffffffffffffffffffffffffffffffffffff021916908373ffffffffffffffffffffffffffffffffffffffff160217905550905050600160026000876060015173ffffffffffffffffffffffffffffffffffffffff1673ffffffffffffffffffffffffffffffffffffffff168152602001908152602001600020805490501415611bd25760056000866060015173ffffffffffffffffffffffffffffffffffffffff1673ffffffffffffffffffffffffffffffffffffffff168152602001908152602001600020549350611a3f6001600480549050611d9290919063ffffffff16565b9250600483815481101515611a5057fe5b906000526020600020900160009054906101000a900473ffffffffffffffffffffffffffffffffffffffff16905080600485815481101515611a8e57fe5b906000526020600020900160006101000a81548173ffffffffffffffffffffffffffffffffffffffff021916908373ffffffffffffffffffffffffffffffffffffffff16021790555083600560008373ffffffffffffffffffffffffffffffffffffffff1673ffffffffffffffffffffffffffffffffffffffff168152602001908152602001600020819055506004805480919060019003611b309190611e98565b50600060056000876060015173ffffffffffffffffffffffffffffffffffffffff1673ffffffffffffffffffffffffffffffffffffffff1681526020019081526020016000208190555060026000866060015173ffffffffffffffffffffffffffffffffffffffff1673ffffffffffffffffffffffffffffffffffffffff168152602001908152602001600020805480919060019003611bd09190611e6c565b505b60076000878152602001908152602001600020549350611c42600160066000886000015173ffffffffffffffffffffffffffffffffffffffff1673ffffffffffffffffffffffffffffffffffffffff16815260200190815260200160002080549050611d9290919063ffffffff16565b925060066000866000015173ffffffffffffffffffffffffffffffffffffffff1673ffffffffffffffffffffffffffffffffffffffff16815260200190815260200160002083815481101515611c9457fe5b90600052602060002090015491508160066000876000015173ffffffffffffffffffffffffffffffffffffffff1673ffffffffffffffffffffffffffffffffffffffff16815260200190815260200160002085815481101515611cf357fe5b90600052602060002090018190555083600760008481526020019081526020016000208190555060066000866000015173ffffffffffffffffffffffffffffffffffffffff1673ffffffffffffffffffffffffffffffffffffffff168152602001908152602001600020805480919060019003611d709190611e6c565b5060006007600088815260200190815260200160002081905550505050505050565b6000828211151515611da057fe5b818303905092915050565b602060405190810160405280600081525090565b608060405190810160405280600073ffffffffffffffffffffffffffffffffffffffff1681526020016000815260200160008152602001600073ffffffffffffffffffffffffffffffffffffffff1681525090565b815481835581811511611e3b57818360005260206000209182019101611e3a9190611ec4565b5b505050565b815481835581811511611e6757818360005260206000209182019101611e669190611ec4565b5b505050565b815481835581811511611e9357818360005260206000209182019101611e929190611ec4565b5b505050565b815481835581811511611ebf57818360005260206000209182019101611ebe9190611ec4565b5b505050565b611ee691905b80821115611ee2576000816000905550600101611eca565b5090565b905600a165627a7a72305820e6ac08297167805f6a140f11158b8094bc2382266a55fcfa08b65a341ab2aa610029",
  "source": "pragma solidity ^0.4.21;\r\n\r\n import \"./libraries/SafeMath.sol\";\r\n import \"./interfaces/ERC20_Interface.sol\";\r\n\r\n/**\r\n*Exchange creates an exchange for the swaps.\r\n*@To do:\r\n*Allow partial fills\r\n*/\r\ncontract Exchange{ \r\n    using SafeMath for uint256;\r\n\r\n    /*VARIABLES*/\r\n    address public owner; //The owner of the market contract\r\n    \r\n    //This is the base data structure for an order (the maker of the order and the price)\r\n    struct Order {\r\n        address maker;// the placer of the order\r\n        uint price;// The price in wei\r\n        uint amount;\r\n        address asset;\r\n    }\r\n\r\n    //Maps an OrderID to the list of orders\r\n    mapping(uint256 => Order) public orders;\r\n    //An mapping of a token address to the orderID's\r\n    mapping(address =>  uint256[]) public forSale;\r\n    //Index telling where a specific tokenId is in the forSale array\r\n    mapping(uint256 => uint256) internal forSaleIndex;\r\n    //Index telling where a specific tokenId is in the forSale array\r\n    address[] public openBooks;\r\n    //mapping of address to position in openBooks\r\n    mapping (address => uint) internal openBookIndex;\r\n    //mapping of user to their orders\r\n    mapping(address => uint[]) internal userOrders;\r\n    //mapping from orderId to userOrder position\r\n    mapping(uint => uint) internal userOrderIndex;\r\n    //A list of the blacklisted addresses\r\n    mapping(address => bool) internal blacklist;\r\n    //order_nonce;\r\n    uint internal order_nonce;\r\n\r\n    /*Modifiers*/\r\n    /// @dev Access modifier for Owner functionality\r\n    modifier onlyOwner() {\r\n        require(msg.sender == owner);\r\n        _;\r\n    }\r\n\r\n    /*Events*/\r\n    event OrderPlaced(address _sender,address _token, uint256 _amount, uint256 _price);\r\n    event Sale(address _sender,address _token, uint256 _amount, uint256 _price);\r\n    event OrderRemoved(address _sender,address _token, uint256 _amount, uint256 _price);\r\n\r\n    /*Functions*/\r\n    /*\r\n    *@dev the constructor argument to set the owner and initialize the array.\r\n    */\r\n    function Exchange() public{\r\n        owner = msg.sender;\r\n        openBooks.push(address(0));\r\n        order_nonce = 1;\r\n    }\r\n\r\n    /*\r\n    *@dev list allows a party to place an order on the orderbook\r\n    *@param _tokenadd address of the drct tokens\r\n    *@param _amount number of DRCT tokens\r\n    *@param _price uint256 price of all tokens in wei\r\n    */\r\n    function list(address _tokenadd, uint256 _amount, uint256 _price) external {\r\n        require(blacklist[msg.sender] == false);\r\n        require(_price > 0);\r\n        ERC20_Interface token = ERC20_Interface(_tokenadd);\r\n        require(token.allowance(msg.sender,address(this)) >= _amount);\r\n        if(forSale[_tokenadd].length == 0){\r\n            forSale[_tokenadd].push(0);\r\n            }\r\n        forSaleIndex[order_nonce] = forSale[_tokenadd].length;\r\n        forSale[_tokenadd].push(order_nonce);\r\n        orders[order_nonce] = Order({\r\n            maker: msg.sender,\r\n            asset: _tokenadd,\r\n            price: _price,\r\n            amount:_amount\r\n        });\r\n        emit OrderPlaced(msg.sender,_tokenadd,_amount,_price);\r\n        if(openBookIndex[_tokenadd] == 0 ){    \r\n            openBookIndex[_tokenadd] = openBooks.length;\r\n            openBooks.push(_tokenadd);\r\n        }\r\n        userOrderIndex[order_nonce] = userOrders[msg.sender].length;\r\n        userOrders[msg.sender].push(order_nonce);\r\n        order_nonce += 1;\r\n    }\r\n    /**\r\n    *@dev unlist allows a party to remove their order from the orderbook\r\n    *@param _orderId is the uint256 ID of order\r\n    */\r\n    function unlist(uint256 _orderId) external{\r\n        require(forSaleIndex[_orderId] > 0);\r\n        Order memory _order = orders[_orderId];\r\n        require(msg.sender== _order.maker || msg.sender == owner);\r\n        unLister(_orderId,_order);\r\n        emit OrderRemoved(msg.sender,_order.asset,_order.amount,_order.price);\r\n    }\r\n\r\n    /**\r\n    *@dev buy allows a party to fill an order\r\n    *@param _orderId is the uint256 ID of order\r\n    */\r\n    function buy(uint256 _orderId) external payable {\r\n        Order memory _order = orders[_orderId];\r\n        require(msg.value == _order.price);\r\n        require(blacklist[msg.sender] == false);\r\n        address maker = _order.maker;\r\n        ERC20_Interface token = ERC20_Interface(_order.asset);\r\n        if(token.allowance(_order.maker,address(this)) >= _order.amount){\r\n            assert(token.transferFrom(_order.maker,msg.sender, _order.amount));\r\n            maker.transfer(_order.price);\r\n        }\r\n        unLister(_orderId,_order);\r\n        emit Sale(msg.sender,_order.asset,_order.amount,_order.price);\r\n    }\r\n\r\n    /*\r\n    *@dev getOrder lists the price,amount, and maker of a specific token for a sale\r\n    *@param _orderId uint256 ID of order\r\n    *@return address of the party selling\r\n    *@return uint of the price of the sale (in wei)\r\n    *@return uint of the order amount of the sale\r\n    *@return address of the token\r\n    */\r\n    function getOrder(uint256 _orderId) external view returns(address,uint,uint,address){\r\n        Order storage _order = orders[_orderId];\r\n        return (_order.maker,_order.price,_order.amount,_order.asset);\r\n    }\r\n\r\n    /*\r\n    *@dev allows the owner to change who the owner is\r\n    *@param _owner is the address of the new owner\r\n    */\r\n    function setOwner(address _owner) public onlyOwner() {\r\n        owner = _owner;\r\n    }\r\n\r\n    /*\r\n    *@notice This allows the owner to stop a malicious party from spamming the orderbook\r\n    *@dev Allows the owner to blacklist addresses from using this exchange\r\n    *@param _address the address of the party to blacklist\r\n    *@param _motion true or false depending on if blacklisting or not\r\n\r\n    */\r\n    function blacklistParty(address _address, bool _motion) public onlyOwner() {\r\n        blacklist[_address] = _motion;\r\n    }\r\n\r\n    /*\r\n    *@dev Allows parties to see if one is blacklisted\r\n    *@param _address the address of the party to blacklist\r\n    *@return bool true for is blacklisted\r\n    */\r\n    function isBlacklist(address _address) public view returns(bool) {\r\n        return blacklist[_address];\r\n    }\r\n\r\n    /*\r\n    *@dev getOrderCount allows parties to query how many orders are on the book\r\n    *@param _token address used to count the number of orders?\r\n    *@return _uint of the number of orders in the orderbook\r\n    */\r\n    function getOrderCount(address _token) public constant returns(uint) {\r\n        return forSale[_token].length;\r\n    }\r\n\r\n    /*\r\n    *@dev Gets number of open orderbooks\r\n    *@return _uint of the number of tokens with open orders\r\n    */\r\n    function getBookCount() public constant returns(uint) {\r\n        return openBooks.length;\r\n    }\r\n\r\n    /*\r\n    *@dev getOrderCount allows parties to query how many orders are on the book\r\n    *@param _token address used to count the number of orders?\r\n    *@return _uint of the number of orders in the orderbook\r\n    */\r\n    function getOrders(address _token) public constant returns(uint[]) {\r\n        return forSale[_token];\r\n    }\r\n\r\n    /*\r\n    *@dev An internal function to update mappings when an order is removed from the book\r\n    *@param _orderId is the uint256 ID of order\r\n    @param _order is the struct containing the details of the order\r\n    */\r\n    function unLister(uint256 _orderId, Order _order) internal{\r\n        uint256 tokenIndex = forSaleIndex[_orderId];\r\n        uint256 lastTokenIndex = forSale[_order.asset].length.sub(1);\r\n        uint256 lastToken = forSale[_order.asset][lastTokenIndex];\r\n        forSale[_order.asset][tokenIndex] = lastToken;\r\n        forSaleIndex[lastToken] = tokenIndex;\r\n        forSale[_order.asset].length--;\r\n        forSaleIndex[_orderId] = 0;\r\n        orders[_orderId] = Order({\r\n            maker: address(0),\r\n            price: 0,\r\n            amount:0,\r\n            asset: address(0)\r\n        });\r\n        if(forSale[_order.asset].length == 1){\r\n            tokenIndex = openBookIndex[_order.asset];\r\n            lastTokenIndex = openBooks.length.sub(1);\r\n            address lastAdd = openBooks[lastTokenIndex];\r\n            openBooks[tokenIndex] = lastAdd;\r\n            openBookIndex[lastAdd] = tokenIndex;\r\n            openBooks.length--;\r\n            openBookIndex[_order.asset] = 0;\r\n            forSale[_order.asset].length--;\r\n        }\r\n        tokenIndex = userOrderIndex[_orderId];\r\n        lastTokenIndex = userOrders[_order.maker].length.sub(1);\r\n        lastToken = userOrders[_order.maker][lastTokenIndex];\r\n        userOrders[_order.maker][tokenIndex] = lastToken;\r\n        userOrderIndex[lastToken] = tokenIndex;\r\n        userOrders[_order.maker].length--;\r\n        userOrderIndex[_orderId] = 0;\r\n    }\r\n}",
  "sourcePath": "C:\\company\\code\\drct_standard\\contracts\\Exchange.sol",
  "compiler": {
    "name": "solc",
    "version": "0.4.21+commit.dfe3193c.Emscripten.clang"
  },
  "schemaVersion": "2.0.0",
  "updatedAt": "2018-05-11T20:22:14.308Z"
}