{
  "contractName": "Exchange",
  "abi": [
    {
      "constant": true,
      "inputs": [
        {
          "name": "",
          "type": "address"
        },
        {
          "name": "",
          "type": "address"
        }
      ],
      "name": "totalListed",
      "outputs": [
        {
          "name": "",
          "type": "uint256"
        }
      ],
      "payable": false,
      "stateMutability": "view",
      "type": "function"
    },
    {
      "constant": true,
      "inputs": [
        {
          "name": "",
          "type": "uint256"
        }
      ],
      "name": "openBooks",
      "outputs": [
        {
          "name": "",
          "type": "address"
        }
      ],
      "payable": false,
      "stateMutability": "view",
      "type": "function"
    },
    {
      "constant": true,
      "inputs": [
        {
          "name": "",
          "type": "address"
        },
        {
          "name": "",
          "type": "uint256"
        }
      ],
      "name": "userOrders",
      "outputs": [
        {
          "name": "",
          "type": "uint256"
        }
      ],
      "payable": false,
      "stateMutability": "view",
      "type": "function"
    },
    {
      "constant": true,
      "inputs": [],
      "name": "owner",
      "outputs": [
        {
          "name": "",
          "type": "address"
        }
      ],
      "payable": false,
      "stateMutability": "view",
      "type": "function"
    },
    {
      "constant": true,
      "inputs": [
        {
          "name": "",
          "type": "address"
        }
      ],
      "name": "openDdaListIndex",
      "outputs": [
        {
          "name": "",
          "type": "uint256"
        }
      ],
      "payable": false,
      "stateMutability": "view",
      "type": "function"
    },
    {
      "constant": true,
      "inputs": [
        {
          "name": "",
          "type": "uint256"
        }
      ],
      "name": "orders",
      "outputs": [
        {
          "name": "maker",
          "type": "address"
        },
        {
          "name": "price",
          "type": "uint256"
        },
        {
          "name": "amount",
          "type": "uint256"
        },
        {
          "name": "asset",
          "type": "address"
        }
      ],
      "payable": false,
      "stateMutability": "view",
      "type": "function"
    },
    {
      "constant": true,
      "inputs": [
        {
          "name": "",
          "type": "address"
        }
      ],
      "name": "listOfAssets",
      "outputs": [
        {
          "name": "price",
          "type": "uint256"
        },
        {
          "name": "amount",
          "type": "uint256"
        },
        {
          "name": "isLong",
          "type": "bool"
        }
      ],
      "payable": false,
      "stateMutability": "view",
      "type": "function"
    },
    {
      "constant": true,
      "inputs": [
        {
          "name": "",
          "type": "uint256"
        }
      ],
      "name": "openDdaListAssets",
      "outputs": [
        {
          "name": "",
          "type": "address"
        }
      ],
      "payable": false,
      "stateMutability": "view",
      "type": "function"
    },
    {
      "constant": true,
      "inputs": [
        {
          "name": "",
          "type": "address"
        },
        {
          "name": "",
          "type": "uint256"
        }
      ],
      "name": "forSale",
      "outputs": [
        {
          "name": "",
          "type": "uint256"
        }
      ],
      "payable": false,
      "stateMutability": "view",
      "type": "function"
    },
    {
      "inputs": [],
      "payable": false,
      "stateMutability": "nonpayable",
      "type": "constructor"
    },
    {
      "anonymous": false,
      "inputs": [
        {
          "indexed": false,
          "name": "_token",
          "type": "address"
        },
        {
          "indexed": false,
          "name": "_amount",
          "type": "uint256"
        },
        {
          "indexed": false,
          "name": "_price",
          "type": "uint256"
        },
        {
          "indexed": false,
          "name": "_isLong",
          "type": "bool"
        }
      ],
      "name": "ListDDA",
      "type": "event"
    },
    {
      "anonymous": false,
      "inputs": [
        {
          "indexed": false,
          "name": "_token",
          "type": "address"
        },
        {
          "indexed": false,
          "name": "_sender",
          "type": "address"
        },
        {
          "indexed": false,
          "name": "_amount",
          "type": "uint256"
        },
        {
          "indexed": false,
          "name": "_price",
          "type": "uint256"
        }
      ],
      "name": "BuyDDA",
      "type": "event"
    },
    {
      "anonymous": false,
      "inputs": [
        {
          "indexed": false,
          "name": "_token",
          "type": "address"
        }
      ],
      "name": "UnlistDDA",
      "type": "event"
    },
    {
      "anonymous": false,
      "inputs": [
        {
          "indexed": false,
          "name": "_orderID",
          "type": "uint256"
        },
        {
          "indexed": false,
          "name": "_sender",
          "type": "address"
        },
        {
          "indexed": false,
          "name": "_token",
          "type": "address"
        },
        {
          "indexed": false,
          "name": "_amount",
          "type": "uint256"
        },
        {
          "indexed": false,
          "name": "_price",
          "type": "uint256"
        }
      ],
      "name": "OrderPlaced",
      "type": "event"
    },
    {
      "anonymous": false,
      "inputs": [
        {
          "indexed": false,
          "name": "_orderID",
          "type": "uint256"
        },
        {
          "indexed": false,
          "name": "_sender",
          "type": "address"
        },
        {
          "indexed": false,
          "name": "_token",
          "type": "address"
        },
        {
          "indexed": false,
          "name": "_amount",
          "type": "uint256"
        },
        {
          "indexed": false,
          "name": "_price",
          "type": "uint256"
        }
      ],
      "name": "Sale",
      "type": "event"
    },
    {
      "anonymous": false,
      "inputs": [
        {
          "indexed": false,
          "name": "_orderID",
          "type": "uint256"
        },
        {
          "indexed": false,
          "name": "_sender",
          "type": "address"
        },
        {
          "indexed": false,
          "name": "_token",
          "type": "address"
        },
        {
          "indexed": false,
          "name": "_amount",
          "type": "uint256"
        },
        {
          "indexed": false,
          "name": "_price",
          "type": "uint256"
        }
      ],
      "name": "OrderRemoved",
      "type": "event"
    },
    {
      "constant": false,
      "inputs": [
        {
          "name": "_tokenadd",
          "type": "address"
        },
        {
          "name": "_amount",
          "type": "uint256"
        },
        {
          "name": "_price",
          "type": "uint256"
        }
      ],
      "name": "list",
      "outputs": [],
      "payable": false,
      "stateMutability": "nonpayable",
      "type": "function"
    },
    {
      "constant": false,
      "inputs": [
        {
          "name": "_asset",
          "type": "address"
        },
        {
          "name": "_amount",
          "type": "uint256"
        },
        {
          "name": "_price",
          "type": "uint256"
        },
        {
          "name": "_isLong",
          "type": "bool"
        }
      ],
      "name": "listDda",
      "outputs": [],
      "payable": false,
      "stateMutability": "nonpayable",
      "type": "function"
    },
    {
      "constant": false,
      "inputs": [
        {
          "name": "_asset",
          "type": "address"
        }
      ],
      "name": "unlistDda",
      "outputs": [],
      "payable": false,
      "stateMutability": "nonpayable",
      "type": "function"
    },
    {
      "constant": false,
      "inputs": [
        {
          "name": "_asset",
          "type": "address"
        },
        {
          "name": "_amount",
          "type": "uint256"
        }
      ],
      "name": "buyPerUnit",
      "outputs": [],
      "payable": true,
      "stateMutability": "payable",
      "type": "function"
    },
    {
      "constant": false,
      "inputs": [
        {
          "name": "_orderId",
          "type": "uint256"
        }
      ],
      "name": "unlist",
      "outputs": [],
      "payable": false,
      "stateMutability": "nonpayable",
      "type": "function"
    },
    {
      "constant": false,
      "inputs": [
        {
          "name": "_orderId",
          "type": "uint256"
        }
      ],
      "name": "buy",
      "outputs": [],
      "payable": true,
      "stateMutability": "payable",
      "type": "function"
    },
    {
      "constant": true,
      "inputs": [
        {
          "name": "_orderId",
          "type": "uint256"
        }
      ],
      "name": "getOrder",
      "outputs": [
        {
          "name": "",
          "type": "address"
        },
        {
          "name": "",
          "type": "uint256"
        },
        {
          "name": "",
          "type": "uint256"
        },
        {
          "name": "",
          "type": "address"
        }
      ],
      "payable": false,
      "stateMutability": "view",
      "type": "function"
    },
    {
      "constant": false,
      "inputs": [
        {
          "name": "_owner",
          "type": "address"
        }
      ],
      "name": "setOwner",
      "outputs": [],
      "payable": false,
      "stateMutability": "nonpayable",
      "type": "function"
    },
    {
      "constant": false,
      "inputs": [
        {
          "name": "_address",
          "type": "address"
        },
        {
          "name": "_motion",
          "type": "bool"
        }
      ],
      "name": "blacklistParty",
      "outputs": [],
      "payable": false,
      "stateMutability": "nonpayable",
      "type": "function"
    },
    {
      "constant": true,
      "inputs": [
        {
          "name": "_address",
          "type": "address"
        }
      ],
      "name": "isBlacklist",
      "outputs": [
        {
          "name": "",
          "type": "bool"
        }
      ],
      "payable": false,
      "stateMutability": "view",
      "type": "function"
    },
    {
      "constant": true,
      "inputs": [
        {
          "name": "_token",
          "type": "address"
        }
      ],
      "name": "getOrderCount",
      "outputs": [
        {
          "name": "",
          "type": "uint256"
        }
      ],
      "payable": false,
      "stateMutability": "view",
      "type": "function"
    },
    {
      "constant": true,
      "inputs": [],
      "name": "getBookCount",
      "outputs": [
        {
          "name": "",
          "type": "uint256"
        }
      ],
      "payable": false,
      "stateMutability": "view",
      "type": "function"
    },
    {
      "constant": true,
      "inputs": [
        {
          "name": "_token",
          "type": "address"
        }
      ],
      "name": "getOrders",
      "outputs": [
        {
          "name": "",
          "type": "uint256[]"
        }
      ],
      "payable": false,
      "stateMutability": "view",
      "type": "function"
    },
    {
      "constant": true,
      "inputs": [
        {
          "name": "_user",
          "type": "address"
        }
      ],
      "name": "getUserOrders",
      "outputs": [
        {
          "name": "",
          "type": "uint256[]"
        }
      ],
      "payable": false,
      "stateMutability": "view",
      "type": "function"
    },
    {
      "constant": true,
      "inputs": [],
      "name": "getopenDdaListAssets",
      "outputs": [
        {
          "name": "",
          "type": "address[]"
        }
      ],
      "payable": false,
      "stateMutability": "view",
      "type": "function"
    },
    {
      "constant": true,
      "inputs": [
        {
          "name": "_assetAddress",
          "type": "address"
        }
      ],
      "name": "getDdaListAssetInfo",
      "outputs": [
        {
          "name": "",
          "type": "uint256"
        },
        {
          "name": "",
          "type": "uint256"
        },
        {
          "name": "",
          "type": "bool"
        }
      ],
      "payable": false,
      "stateMutability": "view",
      "type": "function"
    },
    {
      "constant": true,
      "inputs": [
        {
          "name": "_owner",
          "type": "address"
        },
        {
          "name": "_asset",
          "type": "address"
        }
      ],
      "name": "getTotalListed",
      "outputs": [
        {
          "name": "",
          "type": "uint256"
        }
      ],
      "payable": false,
      "stateMutability": "view",
      "type": "function"
    }
  ],
  "bytecode": "0x608060405234801561001057600080fd5b5033600160006101000a81548173ffffffffffffffffffffffffffffffffffffffff021916908373ffffffffffffffffffffffffffffffffffffffff1602179055506003600090806001815401808255809150509060018203906000526020600020016000909192909190916101000a81548173ffffffffffffffffffffffffffffffffffffffff021916908373ffffffffffffffffffffffffffffffffffffffff16021790555050600160008190555061355d806100d06000396000f300608060405260043610610153576000357c0100000000000000000000000000000000000000000000000000000000900463ffffffff1680621236bf14610158578063093376fe146101c1578063127a60361461025957806313af4035146102d0578063333e99db146103135780633a5433721461036e5780634c3b6760146103e557806356416147146104525780635ac5ba71146104be57806363c69f081461050d57806369902ffb146105a5578063856652e9146105e55780638da5cb5b146106465780638e0ffafc1461069d578063a85c38ef146106f4578063b96f24fa146107a2578063bf5a4dd31461080b578063d09ef24114610838578063d49e0cdd146108e6578063d73e0c8914610929578063d8b8675314610954578063d96a094a146109ab578063dda342bb146109cb578063de0f674e14610a22578063eb3056e014610a8f578063f34bc28214610af0575b600080fd5b34801561016457600080fd5b50610199600480360381019080803573ffffffffffffffffffffffffffffffffffffffff169060200190929190505050610b53565b6040518084815260200183815260200182151515158152602001935050505060405180910390f35b3480156101cd57600080fd5b50610202600480360381019080803573ffffffffffffffffffffffffffffffffffffffff169060200190929190505050610c3b565b6040518080602001828103825283818151815260200191508051906020019060200280838360005b8381101561024557808201518184015260208101905061022a565b505050509050019250505060405180910390f35b34801561026557600080fd5b506102ba600480360381019080803573ffffffffffffffffffffffffffffffffffffffff169060200190929190803573ffffffffffffffffffffffffffffffffffffffff169060200190929190505050610cd2565b6040518082815260200191505060405180910390f35b3480156102dc57600080fd5b50610311600480360381019080803573ffffffffffffffffffffffffffffffffffffffff169060200190929190505050610cf7565b005b34801561031f57600080fd5b50610354600480360381019080803573ffffffffffffffffffffffffffffffffffffffff169060200190929190505050610d97565b604051808215151515815260200191505060405180910390f35b34801561037a57600080fd5b506103cf600480360381019080803573ffffffffffffffffffffffffffffffffffffffff169060200190929190803573ffffffffffffffffffffffffffffffffffffffff169060200190929190505050610ded565b6040518082815260200191505060405180910390f35b3480156103f157600080fd5b5061041060048036038101908080359060200190929190505050610e74565b604051808273ffffffffffffffffffffffffffffffffffffffff1673ffffffffffffffffffffffffffffffffffffffff16815260200191505060405180910390f35b34801561045e57600080fd5b50610467610eb2565b6040518080602001828103825283818151815260200191508051906020019060200280838360005b838110156104aa57808201518184015260208101905061048f565b505050509050019250505060405180910390f35b3480156104ca57600080fd5b5061050b600480360381019080803573ffffffffffffffffffffffffffffffffffffffff169060200190929190803515159060200190929190505050610f40565b005b34801561051957600080fd5b5061054e600480360381019080803573ffffffffffffffffffffffffffffffffffffffff169060200190929190505050610ff7565b6040518080602001828103825283818151815260200191508051906020019060200280838360005b83811015610591578082015181840152602081019050610576565b505050509050019250505060405180910390f35b6105e3600480360381019080803573ffffffffffffffffffffffffffffffffffffffff1690602001909291908035906020019092919050505061108e565b005b3480156105f157600080fd5b50610630600480360381019080803573ffffffffffffffffffffffffffffffffffffffff16906020019092919080359060200190929190505050611516565b6040518082815260200191505060405180910390f35b34801561065257600080fd5b5061065b611546565b604051808273ffffffffffffffffffffffffffffffffffffffff1673ffffffffffffffffffffffffffffffffffffffff16815260200191505060405180910390f35b3480156106a957600080fd5b506106de600480360381019080803573ffffffffffffffffffffffffffffffffffffffff16906020019092919050505061156c565b6040518082815260200191505060405180910390f35b34801561070057600080fd5b5061071f60048036038101908080359060200190929190505050611584565b604051808573ffffffffffffffffffffffffffffffffffffffff1673ffffffffffffffffffffffffffffffffffffffff1681526020018481526020018381526020018273ffffffffffffffffffffffffffffffffffffffff1673ffffffffffffffffffffffffffffffffffffffff16815260200194505050505060405180910390f35b3480156107ae57600080fd5b506107e3600480360381019080803573ffffffffffffffffffffffffffffffffffffffff1690602001909291905050506115f4565b6040518084815260200183815260200182151515158152602001935050505060405180910390f35b34801561081757600080fd5b506108366004803603810190808035906020019092919050505061162b565b005b34801561084457600080fd5b5061086360048036038101908080359060200190929190505050611895565b604051808573ffffffffffffffffffffffffffffffffffffffff1673ffffffffffffffffffffffffffffffffffffffff1681526020018481526020018381526020018273ffffffffffffffffffffffffffffffffffffffff1673ffffffffffffffffffffffffffffffffffffffff16815260200194505050505060405180910390f35b3480156108f257600080fd5b50610927600480360381019080803573ffffffffffffffffffffffffffffffffffffffff169060200190929190505050611916565b005b34801561093557600080fd5b5061093e611c43565b6040518082815260200191505060405180910390f35b34801561096057600080fd5b50610995600480360381019080803573ffffffffffffffffffffffffffffffffffffffff169060200190929190505050611c50565b6040518082815260200191505060405180910390f35b6109c960048036038101908080359060200190929190505050611c9c565b005b3480156109d757600080fd5b50610a20600480360381019080803573ffffffffffffffffffffffffffffffffffffffff16906020019092919080359060200190929190803590602001909291905050506121f9565b005b348015610a2e57600080fd5b50610a4d60048036038101908080359060200190929190505050612993565b604051808273ffffffffffffffffffffffffffffffffffffffff1673ffffffffffffffffffffffffffffffffffffffff16815260200191505060405180910390f35b348015610a9b57600080fd5b50610ada600480360381019080803573ffffffffffffffffffffffffffffffffffffffff169060200190929190803590602001909291905050506129d1565b6040518082815260200191505060405180910390f35b348015610afc57600080fd5b50610b51600480360381019080803573ffffffffffffffffffffffffffffffffffffffff1690602001909291908035906020019092919080359060200190929190803515159060200190929190505050612a01565b005b6000806000600660008573ffffffffffffffffffffffffffffffffffffffff1673ffffffffffffffffffffffffffffffffffffffff16815260200190815260200160002060000154600660008673ffffffffffffffffffffffffffffffffffffffff1673ffffffffffffffffffffffffffffffffffffffff16815260200190815260200160002060010154600660008773ffffffffffffffffffffffffffffffffffffffff1673ffffffffffffffffffffffffffffffffffffffff16815260200190815260200160002060020160009054906101000a900460ff169250925092509193909250565b6060600860008373ffffffffffffffffffffffffffffffffffffffff1673ffffffffffffffffffffffffffffffffffffffff168152602001908152602001600020805480602002602001604051908101604052809291908181526020018280548015610cc657602002820191906000526020600020905b815481526020019060010190808311610cb2575b50505050509050919050565b6005602052816000526040600020602052806000526040600020600091509150505481565b600160009054906101000a900473ffffffffffffffffffffffffffffffffffffffff1673ffffffffffffffffffffffffffffffffffffffff163373ffffffffffffffffffffffffffffffffffffffff16141515610d5357600080fd5b80600160006101000a81548173ffffffffffffffffffffffffffffffffffffffff021916908373ffffffffffffffffffffffffffffffffffffffff16021790555050565b6000600d60008373ffffffffffffffffffffffffffffffffffffffff1673ffffffffffffffffffffffffffffffffffffffff16815260200190815260200160002060009054906101000a900460ff169050919050565b6000600560008473ffffffffffffffffffffffffffffffffffffffff1673ffffffffffffffffffffffffffffffffffffffff16815260200190815260200160002060008373ffffffffffffffffffffffffffffffffffffffff1673ffffffffffffffffffffffffffffffffffffffff16815260200190815260200160002054905092915050565b600381815481101515610e8357fe5b906000526020600020016000915054906101000a900473ffffffffffffffffffffffffffffffffffffffff1681565b60606002805480602002602001604051908101604052809291908181526020018280548015610f3657602002820191906000526020600020905b8160009054906101000a900473ffffffffffffffffffffffffffffffffffffffff1673ffffffffffffffffffffffffffffffffffffffff1681526020019060010190808311610eec575b5050505050905090565b600160009054906101000a900473ffffffffffffffffffffffffffffffffffffffff1673ffffffffffffffffffffffffffffffffffffffff163373ffffffffffffffffffffffffffffffffffffffff16141515610f9c57600080fd5b80600d60008473ffffffffffffffffffffffffffffffffffffffff1673ffffffffffffffffffffffffffffffffffffffff16815260200190815260200160002060006101000a81548160ff0219169083151502179055505050565b6060600b60008373ffffffffffffffffffffffffffffffffffffffff1673ffffffffffffffffffffffffffffffffffffffff16815260200190815260200160002080548060200260200160405190810160405280929190818152602001828054801561108257602002820191906000526020600020905b81548152602001906001019080831161106e575b50505050509050919050565b6000806000801515600d60003373ffffffffffffffffffffffffffffffffffffffff1673ffffffffffffffffffffffffffffffffffffffff16815260200190815260200160002060009054906101000a900460ff1615151415156110f157600080fd5b600660008673ffffffffffffffffffffffffffffffffffffffff1673ffffffffffffffffffffffffffffffffffffffff16815260200190815260200160002092508260010154841115151561114557600080fd5b61115c836000015485612c6290919063ffffffff16565b9150813414151561116c57600080fd5b849050838173ffffffffffffffffffffffffffffffffffffffff1663dd62ed3e600160009054906101000a900473ffffffffffffffffffffffffffffffffffffffff16306040518363ffffffff167c0100000000000000000000000000000000000000000000000000000000028152600401808373ffffffffffffffffffffffffffffffffffffffff1673ffffffffffffffffffffffffffffffffffffffff1681526020018273ffffffffffffffffffffffffffffffffffffffff1673ffffffffffffffffffffffffffffffffffffffff16815260200192505050602060405180830381600087803b15801561126157600080fd5b505af1158015611275573d6000803e3d6000fd5b505050506040513d602081101561128b57600080fd5b8101908080519060200190929190505050101515611468578073ffffffffffffffffffffffffffffffffffffffff166323b872dd600160009054906101000a900473ffffffffffffffffffffffffffffffffffffffff1633876040518463ffffffff167c0100000000000000000000000000000000000000000000000000000000028152600401808473ffffffffffffffffffffffffffffffffffffffff1673ffffffffffffffffffffffffffffffffffffffff1681526020018373ffffffffffffffffffffffffffffffffffffffff1673ffffffffffffffffffffffffffffffffffffffff1681526020018281526020019350505050602060405180830381600087803b15801561139c57600080fd5b505af11580156113b0573d6000803e3d6000fd5b505050506040513d60208110156113c657600080fd5b810190808051906020019092919050505015156113df57fe5b600160009054906101000a900473ffffffffffffffffffffffffffffffffffffffff1673ffffffffffffffffffffffffffffffffffffffff166108fc839081150290604051600060405180830381858888f19350505050158015611447573d6000803e3d6000fd5b5061145f848460010154612c9590919063ffffffff16565b83600101819055505b7fa71ab141d774fbb2dc7ed1a00198126e0b154d89f5915095cf7bdfb0a2ebaaaf85338685604051808573ffffffffffffffffffffffffffffffffffffffff1673ffffffffffffffffffffffffffffffffffffffff1681526020018473ffffffffffffffffffffffffffffffffffffffff1673ffffffffffffffffffffffffffffffffffffffff16815260200183815260200182815260200194505050505060405180910390a15050505050565b600b6020528160005260406000208181548110151561153157fe5b90600052602060002001600091509150505481565b600160009054906101000a900473ffffffffffffffffffffffffffffffffffffffff1681565b60046020528060005260406000206000915090505481565b60076020528060005260406000206000915090508060000160009054906101000a900473ffffffffffffffffffffffffffffffffffffffff16908060010154908060020154908060030160009054906101000a900473ffffffffffffffffffffffffffffffffffffffff16905084565b60066020528060005260406000206000915090508060000154908060010154908060020160009054906101000a900460ff16905083565b61163361345f565b6000600960008481526020019081526020016000205411151561165557600080fd5b60076000838152602001908152602001600020608060405190810160405290816000820160009054906101000a900473ffffffffffffffffffffffffffffffffffffffff1673ffffffffffffffffffffffffffffffffffffffff1673ffffffffffffffffffffffffffffffffffffffff16815260200160018201548152602001600282015481526020016003820160009054906101000a900473ffffffffffffffffffffffffffffffffffffffff1673ffffffffffffffffffffffffffffffffffffffff1673ffffffffffffffffffffffffffffffffffffffff16815250509050806000015173ffffffffffffffffffffffffffffffffffffffff163373ffffffffffffffffffffffffffffffffffffffff1614806117c15750600160009054906101000a900473ffffffffffffffffffffffffffffffffffffffff1673ffffffffffffffffffffffffffffffffffffffff163373ffffffffffffffffffffffffffffffffffffffff16145b15156117cc57600080fd5b6117d68282612cae565b7f4b0429d7249fb951e96f36467eae77628556a9bfc53b7eb7982f3a5ea6a26ef08233836060015184604001518560200151604051808681526020018573ffffffffffffffffffffffffffffffffffffffff1673ffffffffffffffffffffffffffffffffffffffff1681526020018473ffffffffffffffffffffffffffffffffffffffff1673ffffffffffffffffffffffffffffffffffffffff1681526020018381526020018281526020019550505050505060405180910390a15050565b60008060008060006007600087815260200190815260200160002090508060000160009054906101000a900473ffffffffffffffffffffffffffffffffffffffff16816001015482600201548360030160009054906101000a900473ffffffffffffffffffffffffffffffffffffffff169450945094509450509193509193565b600080600080600160009054906101000a900473ffffffffffffffffffffffffffffffffffffffff1673ffffffffffffffffffffffffffffffffffffffff163373ffffffffffffffffffffffffffffffffffffffff1614151561197857600080fd5b60001515600d60003373ffffffffffffffffffffffffffffffffffffffff1673ffffffffffffffffffffffffffffffffffffffff16815260200190815260200160002060009054906101000a900460ff1615151415156119d757600080fd5b600660008673ffffffffffffffffffffffffffffffffffffffff1673ffffffffffffffffffffffffffffffffffffffff1681526020019081526020016000209050600081600001819055506000816001018190555060008160020160006101000a81548160ff021916908315150217905550600460008673ffffffffffffffffffffffffffffffffffffffff1673ffffffffffffffffffffffffffffffffffffffff168152602001908152602001600020549350611aa46001600280549050612c9590919063ffffffff16565b9250600283815481101515611ab557fe5b9060005260206000200160009054906101000a900473ffffffffffffffffffffffffffffffffffffffff16915081600285815481101515611af257fe5b9060005260206000200160006101000a81548173ffffffffffffffffffffffffffffffffffffffff021916908373ffffffffffffffffffffffffffffffffffffffff16021790555083600460008473ffffffffffffffffffffffffffffffffffffffff1673ffffffffffffffffffffffffffffffffffffffff168152602001908152602001600020819055506002805480919060019003611b9391906134b4565b506000600460008773ffffffffffffffffffffffffffffffffffffffff1673ffffffffffffffffffffffffffffffffffffffff168152602001908152602001600020819055507ff0e7b333023d805442c4c9966b8f571b7b2329fc772581e19de3dcd15ca68b5485604051808273ffffffffffffffffffffffffffffffffffffffff1673ffffffffffffffffffffffffffffffffffffffff16815260200191505060405180910390a15050505050565b6000600380549050905090565b6000600860008373ffffffffffffffffffffffffffffffffffffffff1673ffffffffffffffffffffffffffffffffffffffff168152602001908152602001600020805490509050919050565b611ca461345f565b60008060076000858152602001908152602001600020608060405190810160405290816000820160009054906101000a900473ffffffffffffffffffffffffffffffffffffffff1673ffffffffffffffffffffffffffffffffffffffff1673ffffffffffffffffffffffffffffffffffffffff16815260200160018201548152602001600282015481526020016003820160009054906101000a900473ffffffffffffffffffffffffffffffffffffffff1673ffffffffffffffffffffffffffffffffffffffff1673ffffffffffffffffffffffffffffffffffffffff168152505092506000836020015114158015611dce5750600073ffffffffffffffffffffffffffffffffffffffff16836000015173ffffffffffffffffffffffffffffffffffffffff1614155b8015611e0b5750600073ffffffffffffffffffffffffffffffffffffffff16836060015173ffffffffffffffffffffffffffffffffffffffff1614155b8015611e1c57506000836040015114155b1515611e2757600080fd5b826020015134141515611e3957600080fd5b60001515600d60003373ffffffffffffffffffffffffffffffffffffffff1673ffffffffffffffffffffffffffffffffffffffff16815260200190815260200160002060009054906101000a900460ff161515141515611e9857600080fd5b826000015191508260600151905082604001518173ffffffffffffffffffffffffffffffffffffffff1663dd62ed3e8560000151306040518363ffffffff167c0100000000000000000000000000000000000000000000000000000000028152600401808373ffffffffffffffffffffffffffffffffffffffff1673ffffffffffffffffffffffffffffffffffffffff1681526020018273ffffffffffffffffffffffffffffffffffffffff1673ffffffffffffffffffffffffffffffffffffffff16815260200192505050602060405180830381600087803b158015611f7e57600080fd5b505af1158015611f92573d6000803e3d6000fd5b505050506040513d6020811015611fa857600080fd5b810190808051906020019092919050505010151561212e578073ffffffffffffffffffffffffffffffffffffffff166323b872dd84600001513386604001516040518463ffffffff167c0100000000000000000000000000000000000000000000000000000000028152600401808473ffffffffffffffffffffffffffffffffffffffff1673ffffffffffffffffffffffffffffffffffffffff1681526020018373ffffffffffffffffffffffffffffffffffffffff1673ffffffffffffffffffffffffffffffffffffffff1681526020018281526020019350505050602060405180830381600087803b15801561209f57600080fd5b505af11580156120b3573d6000803e3d6000fd5b505050506040513d60208110156120c957600080fd5b810190808051906020019092919050505015156120e257fe5b8173ffffffffffffffffffffffffffffffffffffffff166108fc84602001519081150290604051600060405180830381858888f1935050505015801561212c573d6000803e3d6000fd5b505b6121388484612cae565b7ff3debaf22196a6ddf52a60fa71058cd7edf5e25bb98f4e96c994a5d4a9b0dd3e8433856060015186604001518760200151604051808681526020018573ffffffffffffffffffffffffffffffffffffffff1673ffffffffffffffffffffffffffffffffffffffff1681526020018473ffffffffffffffffffffffffffffffffffffffff1673ffffffffffffffffffffffffffffffffffffffff1681526020018381526020018281526020019550505050505060405180910390a150505050565b6000801515600d60003373ffffffffffffffffffffffffffffffffffffffff1673ffffffffffffffffffffffffffffffffffffffff16815260200190815260200160002060009054906101000a900460ff16151514151561225957600080fd5b60008211151561226857600080fd5b8390508073ffffffffffffffffffffffffffffffffffffffff1663dd62ed3e33306040518363ffffffff167c0100000000000000000000000000000000000000000000000000000000028152600401808373ffffffffffffffffffffffffffffffffffffffff1673ffffffffffffffffffffffffffffffffffffffff1681526020018273ffffffffffffffffffffffffffffffffffffffff1673ffffffffffffffffffffffffffffffffffffffff16815260200192505050602060405180830381600087803b15801561233a57600080fd5b505af115801561234e573d6000803e3d6000fd5b505050506040513d602081101561236457600080fd5b810190808051906020019092919050505083600560003373ffffffffffffffffffffffffffffffffffffffff1673ffffffffffffffffffffffffffffffffffffffff16815260200190815260200160002060008773ffffffffffffffffffffffffffffffffffffffff1673ffffffffffffffffffffffffffffffffffffffff16815260200190815260200160002054011115151561240157600080fd5b6000600860008673ffffffffffffffffffffffffffffffffffffffff1673ffffffffffffffffffffffffffffffffffffffff1681526020019081526020016000208054905014156124b757600860008573ffffffffffffffffffffffffffffffffffffffff1673ffffffffffffffffffffffffffffffffffffffff168152602001908152602001600020600090806001815401808255809150509060018203906000526020600020016000909192909190915055505b600860008573ffffffffffffffffffffffffffffffffffffffff1673ffffffffffffffffffffffffffffffffffffffff16815260200190815260200160002080549050600960008054815260200190815260200160002081905550600860008573ffffffffffffffffffffffffffffffffffffffff1673ffffffffffffffffffffffffffffffffffffffff16815260200190815260200160002060005490806001815401808255809150509060018203906000526020600020016000909192909190915055506080604051908101604052803373ffffffffffffffffffffffffffffffffffffffff1681526020018381526020018481526020018573ffffffffffffffffffffffffffffffffffffffff16815250600760008054815260200190815260200160002060008201518160000160006101000a81548173ffffffffffffffffffffffffffffffffffffffff021916908373ffffffffffffffffffffffffffffffffffffffff160217905550602082015181600101556040820151816002015560608201518160030160006101000a81548173ffffffffffffffffffffffffffffffffffffffff021916908373ffffffffffffffffffffffffffffffffffffffff1602179055509050507f842740ca241c8cea19809d2824591efdd38a7e8e546b25122b975df6598e52c160005433868686604051808681526020018573ffffffffffffffffffffffffffffffffffffffff1673ffffffffffffffffffffffffffffffffffffffff1681526020018473ffffffffffffffffffffffffffffffffffffffff1673ffffffffffffffffffffffffffffffffffffffff1681526020018381526020018281526020019550505050505060405180910390a16000600a60008673ffffffffffffffffffffffffffffffffffffffff1673ffffffffffffffffffffffffffffffffffffffff16815260200190815260200160002054141561282d57600380549050600a60008673ffffffffffffffffffffffffffffffffffffffff1673ffffffffffffffffffffffffffffffffffffffff1681526020019081526020016000208190555060038490806001815401808255809150509060018203906000526020600020016000909192909190916101000a81548173ffffffffffffffffffffffffffffffffffffffff021916908373ffffffffffffffffffffffffffffffffffffffff160217905550505b600b60003373ffffffffffffffffffffffffffffffffffffffff1673ffffffffffffffffffffffffffffffffffffffff16815260200190815260200160002080549050600c60008054815260200190815260200160002081905550600b60003373ffffffffffffffffffffffffffffffffffffffff1673ffffffffffffffffffffffffffffffffffffffff168152602001908152602001600020600054908060018154018082558091505090600182039060005260206000200160009091929091909150555082600560003373ffffffffffffffffffffffffffffffffffffffff1673ffffffffffffffffffffffffffffffffffffffff16815260200190815260200160002060008673ffffffffffffffffffffffffffffffffffffffff1673ffffffffffffffffffffffffffffffffffffffff168152602001908152602001600020600082825401925050819055506001600080828254019250508190555050505050565b6002818154811015156129a257fe5b906000526020600020016000915054906101000a900473ffffffffffffffffffffffffffffffffffffffff1681565b6008602052816000526040600020818154811015156129ec57fe5b90600052602060002001600091509150505481565b6000600160009054906101000a900473ffffffffffffffffffffffffffffffffffffffff1673ffffffffffffffffffffffffffffffffffffffff163373ffffffffffffffffffffffffffffffffffffffff16141515612a5f57600080fd5b60001515600d60003373ffffffffffffffffffffffffffffffffffffffff1673ffffffffffffffffffffffffffffffffffffffff16815260200190815260200160002060009054906101000a900460ff161515141515612abe57600080fd5b600660008673ffffffffffffffffffffffffffffffffffffffff1673ffffffffffffffffffffffffffffffffffffffff1681526020019081526020016000209050828160000181905550838160010181905550818160020160006101000a81548160ff021916908315150217905550600280549050600460008773ffffffffffffffffffffffffffffffffffffffff1673ffffffffffffffffffffffffffffffffffffffff1681526020019081526020016000208190555060028590806001815401808255809150509060018203906000526020600020016000909192909190916101000a81548173ffffffffffffffffffffffffffffffffffffffff021916908373ffffffffffffffffffffffffffffffffffffffff160217905550507ffa43ef2c853e236dba31781a554ff14e6e0a8761b50fd08f50ca004530e9b89385858585604051808573ffffffffffffffffffffffffffffffffffffffff1673ffffffffffffffffffffffffffffffffffffffff1681526020018481526020018381526020018215151515815260200194505050505060405180910390a15050505050565b60008082840290506000841480612c835750828482811515612c8057fe5b04145b1515612c8b57fe5b8091505092915050565b6000828211151515612ca357fe5b818303905092915050565b600080600080846040015160056000876000015173ffffffffffffffffffffffffffffffffffffffff1673ffffffffffffffffffffffffffffffffffffffff1681526020019081526020016000206000876060015173ffffffffffffffffffffffffffffffffffffffff1673ffffffffffffffffffffffffffffffffffffffff16815260200190815260200160002060008282540392505081905550600260086000876060015173ffffffffffffffffffffffffffffffffffffffff1673ffffffffffffffffffffffffffffffffffffffff168152602001908152602001600020805490501415612f9057600a6000866060015173ffffffffffffffffffffffffffffffffffffffff1673ffffffffffffffffffffffffffffffffffffffff168152602001908152602001600020549350612df86001600380549050612c9590919063ffffffff16565b9250600383815481101515612e0957fe5b9060005260206000200160009054906101000a900473ffffffffffffffffffffffffffffffffffffffff16915081600385815481101515612e4657fe5b9060005260206000200160006101000a81548173ffffffffffffffffffffffffffffffffffffffff021916908373ffffffffffffffffffffffffffffffffffffffff16021790555083600a60008473ffffffffffffffffffffffffffffffffffffffff1673ffffffffffffffffffffffffffffffffffffffff168152602001908152602001600020819055506003805480919060019003612ee791906134b4565b506000600a6000876060015173ffffffffffffffffffffffffffffffffffffffff1673ffffffffffffffffffffffffffffffffffffffff16815260200190815260200160002081905550600260086000876060015173ffffffffffffffffffffffffffffffffffffffff1673ffffffffffffffffffffffffffffffffffffffff16815260200190815260200160002081818054905003915081612f8a91906134e0565b5061312e565b60096000878152602001908152602001600020549350613000600160086000886060015173ffffffffffffffffffffffffffffffffffffffff1673ffffffffffffffffffffffffffffffffffffffff16815260200190815260200160002080549050612c9590919063ffffffff16565b925060086000866060015173ffffffffffffffffffffffffffffffffffffffff1673ffffffffffffffffffffffffffffffffffffffff1681526020019081526020016000208381548110151561305257fe5b906000526020600020015490508060086000876060015173ffffffffffffffffffffffffffffffffffffffff1673ffffffffffffffffffffffffffffffffffffffff168152602001908152602001600020858154811015156130b057fe5b906000526020600020018190555083600960008381526020019081526020016000208190555060086000866060015173ffffffffffffffffffffffffffffffffffffffff1673ffffffffffffffffffffffffffffffffffffffff16815260200190815260200160002080548091906001900361312c91906134e0565b505b60006009600088815260200190815260200160002081905550608060405190810160405280600073ffffffffffffffffffffffffffffffffffffffff1681526020016000815260200160008152602001600073ffffffffffffffffffffffffffffffffffffffff168152506007600088815260200190815260200160002060008201518160000160006101000a81548173ffffffffffffffffffffffffffffffffffffffff021916908373ffffffffffffffffffffffffffffffffffffffff160217905550602082015181600101556040820151816002015560608201518160030160006101000a81548173ffffffffffffffffffffffffffffffffffffffff021916908373ffffffffffffffffffffffffffffffffffffffff1602179055509050506001600b6000876000015173ffffffffffffffffffffffffffffffffffffffff1673ffffffffffffffffffffffffffffffffffffffff1681526020019081526020016000208054905011156133e757600c60008781526020019081526020016000205493506133106001600b6000886000015173ffffffffffffffffffffffffffffffffffffffff1673ffffffffffffffffffffffffffffffffffffffff16815260200190815260200160002080549050612c9590919063ffffffff16565b9250600b6000866000015173ffffffffffffffffffffffffffffffffffffffff1673ffffffffffffffffffffffffffffffffffffffff1681526020019081526020016000208381548110151561336257fe5b9060005260206000200154905080600b6000876000015173ffffffffffffffffffffffffffffffffffffffff1673ffffffffffffffffffffffffffffffffffffffff168152602001908152602001600020858154811015156133c057fe5b906000526020600020018190555083600c6000838152602001908152602001600020819055505b600b6000866000015173ffffffffffffffffffffffffffffffffffffffff1673ffffffffffffffffffffffffffffffffffffffff16815260200190815260200160002080548091906001900361343d91906134e0565b506000600c600088815260200190815260200160002081905550505050505050565b608060405190810160405280600073ffffffffffffffffffffffffffffffffffffffff1681526020016000815260200160008152602001600073ffffffffffffffffffffffffffffffffffffffff1681525090565b8154818355818111156134db578183600052602060002091820191016134da919061350c565b5b505050565b81548183558181111561350757818360005260206000209182019101613506919061350c565b5b505050565b61352e91905b8082111561352a576000816000905550600101613512565b5090565b905600a165627a7a723058208cbab9cb462c4aef0d239c0a7e6acedf453a59551e38fc19221ee1de5d5a36470029",
  "source": "pragma solidity ^0.4.24;\r\n\r\n import \"./libraries/SafeMath.sol\";\r\n import \"./interfaces/ERC20_Interface.sol\";\r\n\r\n/**\r\n*Exchange creates an exchange for the swaps.\r\n*/\r\ncontract Exchange{ \r\n    using SafeMath for uint256;\r\n\r\n    /*Variables*/\r\n\r\n    \r\n    /*Structs*/\r\n    //This is the base data structure for an order (the maker of the order and the price)\r\n    struct Order {\r\n        address maker;// the placer of the order\r\n        uint price;// The price in wei\r\n        uint amount;\r\n        address asset;\r\n    }\r\n\r\n    struct ListAsset {\r\n        uint price;\r\n        uint amount;\r\n        bool isLong;  \r\n    }\r\n\r\n    //order_nonce;\r\n    uint internal order_nonce;\r\n    address public owner; //The owner of the market contract\r\n    address[] public openDdaListAssets;\r\n    //Index telling where a specific tokenId is in the forSale array\r\n    address[] public openBooks;\r\n    mapping (address => uint) public openDdaListIndex;\r\n    mapping(address => mapping (address => uint)) public totalListed;//user to tokenamounts\r\n    mapping(address => ListAsset) public listOfAssets;\r\n    //Maps an OrderID to the list of orders\r\n    mapping(uint256 => Order) public orders;\r\n    //An mapping of a token address to the orderID's\r\n    mapping(address =>  uint256[]) public forSale;\r\n    //Index telling where a specific tokenId is in the forSale array\r\n    mapping(uint256 => uint256) internal forSaleIndex;\r\n    \r\n    //mapping of address to position in openBooks\r\n    mapping (address => uint) internal openBookIndex;\r\n    //mapping of user to their orders\r\n    mapping(address => uint[]) public userOrders;\r\n    //mapping from orderId to userOrder position\r\n    mapping(uint => uint) internal userOrderIndex;\r\n    //A list of the blacklisted addresses\r\n    mapping(address => bool) internal blacklist;\r\n    \r\n\r\n    /*Events*/\r\n    event ListDDA(address _token, uint256 _amount, uint256 _price,bool _isLong);\r\n    event BuyDDA(address _token,address _sender, uint256 _amount, uint256 _price);\r\n    event UnlistDDA(address _token);\r\n    event OrderPlaced(uint _orderID, address _sender,address _token, uint256 _amount, uint256 _price);\r\n    event Sale(uint _orderID,address _sender,address _token, uint256 _amount, uint256 _price);\r\n    event OrderRemoved(uint _orderID,address _sender,address _token, uint256 _amount, uint256 _price);\r\n\r\n    /*Modifiers*/\r\n    /**\r\n    *@dev Access modifier for Owner functionality\r\n    */\r\n    modifier onlyOwner() {\r\n        require(msg.sender == owner);\r\n        _;\r\n    }\r\n\r\n    /*Functions*/\r\n    /**\r\n    *@dev the constructor argument to set the owner and initialize the array.\r\n    */\r\n    constructor() public{\r\n        owner = msg.sender;\r\n        openBooks.push(address(0));\r\n        order_nonce = 1;\r\n    }\r\n\r\n    /**\r\n    *@dev list allows a party to place an order on the orderbook\r\n    *@param _tokenadd address of the drct tokens\r\n    *@param _amount number of DRCT tokens\r\n    *@param _price uint256 price of all tokens in wei\r\n    */\r\n    function list(address _tokenadd, uint256 _amount, uint256 _price) external {\r\n        require(blacklist[msg.sender] == false);\r\n        require(_price > 0);\r\n        ERC20_Interface token = ERC20_Interface(_tokenadd);\r\n        require(totalListed[msg.sender][_tokenadd] + _amount <= token.allowance(msg.sender,address(this)));\r\n        if(forSale[_tokenadd].length == 0){\r\n            forSale[_tokenadd].push(0);\r\n            }\r\n        forSaleIndex[order_nonce] = forSale[_tokenadd].length;\r\n        forSale[_tokenadd].push(order_nonce);\r\n        orders[order_nonce] = Order({\r\n            maker: msg.sender,\r\n            asset: _tokenadd,\r\n            price: _price,\r\n            amount:_amount\r\n        });\r\n        emit OrderPlaced(order_nonce,msg.sender,_tokenadd,_amount,_price);\r\n        if(openBookIndex[_tokenadd] == 0 ){    \r\n            openBookIndex[_tokenadd] = openBooks.length;\r\n            openBooks.push(_tokenadd);\r\n        }\r\n        userOrderIndex[order_nonce] = userOrders[msg.sender].length;\r\n        userOrders[msg.sender].push(order_nonce);\r\n        totalListed[msg.sender][_tokenadd] += _amount;\r\n        order_nonce += 1;\r\n    }\r\n\r\n    /**\r\n    *@dev list allows DDA to list an order \r\n    *@param _asset address \r\n    *@param _amount of asset\r\n    *@param _price uint256 price per unit in wei\r\n    *@param _isLong true if it is long\r\n    */\r\n    //Then you would have a mapping from an asset to its price/ quantity when you list it.\r\n    function listDda(address _asset, uint256 _amount, uint256 _price, bool _isLong) public onlyOwner() {\r\n        require(blacklist[msg.sender] == false);\r\n        ListAsset storage listing = listOfAssets[_asset];\r\n        listing.price = _price;\r\n        listing.amount= _amount;\r\n        listing.isLong= _isLong;\r\n        openDdaListIndex[_asset] = openDdaListAssets.length;\r\n        openDdaListAssets.push(_asset);\r\n        emit ListDDA(_asset,_amount,_price,_isLong);\r\n        \r\n    }\r\n\r\n    /**\r\n    *@dev list allows a DDA to remove asset \r\n    *@param _asset address \r\n    */\r\n    function unlistDda(address _asset) public onlyOwner() {\r\n        require(blacklist[msg.sender] == false);\r\n        uint256 indexToDelete;\r\n        uint256 lastAcctIndex;\r\n        address lastAdd;\r\n        ListAsset storage listing = listOfAssets[_asset];\r\n        listing.price = 0;\r\n        listing.amount= 0;\r\n        listing.isLong= false;\r\n        indexToDelete = openDdaListIndex[_asset];\r\n        lastAcctIndex = openDdaListAssets.length.sub(1);\r\n        lastAdd = openDdaListAssets[lastAcctIndex];\r\n        openDdaListAssets[indexToDelete]=lastAdd;\r\n        openDdaListIndex[lastAdd]= indexToDelete;\r\n        openDdaListAssets.length--;\r\n        openDdaListIndex[_asset] = 0;\r\n        emit UnlistDDA(_asset);\r\n    }\r\n\r\n    /**\r\n    *@dev buy allows a party to partially fill an order\r\n    *@param _asset is the address of the assset listed\r\n    *@param _amount is the amount of tokens to buy\r\n    */\r\n    function buyPerUnit(address _asset, uint256 _amount) external payable {\r\n        require(blacklist[msg.sender] == false);\r\n        ListAsset storage listing = listOfAssets[_asset];\r\n        require(_amount <= listing.amount);\r\n        uint totalPrice = _amount.mul(listing.price);\r\n        require(msg.value == totalPrice);\r\n        ERC20_Interface token = ERC20_Interface(_asset);\r\n        if(token.allowance(owner,address(this)) >= _amount){\r\n            assert(token.transferFrom(owner,msg.sender, _amount));\r\n            owner.transfer(totalPrice);\r\n            listing.amount= listing.amount.sub(_amount);\r\n        }\r\n        emit BuyDDA(_asset,msg.sender,_amount,totalPrice);\r\n    }\r\n\r\n    /**\r\n    *@dev unlist allows a party to remove their order from the orderbook\r\n    *@param _orderId is the uint256 ID of order\r\n    */\r\n    function unlist(uint256 _orderId) external{\r\n        require(forSaleIndex[_orderId] > 0);\r\n        Order memory _order = orders[_orderId];\r\n        require(msg.sender== _order.maker || msg.sender == owner);\r\n        unLister(_orderId,_order);\r\n        emit OrderRemoved(_orderId,msg.sender,_order.asset,_order.amount,_order.price);\r\n    }\r\n\r\n    /**\r\n    *@dev buy allows a party to fill an order\r\n    *@param _orderId is the uint256 ID of order\r\n    */\r\n    function buy(uint256 _orderId) external payable {\r\n        Order memory _order = orders[_orderId];\r\n        require(_order.price != 0 && _order.maker != address(0) && _order.asset != address(0) && _order.amount != 0);\r\n        require(msg.value == _order.price);\r\n        require(blacklist[msg.sender] == false);\r\n        address maker = _order.maker;\r\n        ERC20_Interface token = ERC20_Interface(_order.asset);\r\n        if(token.allowance(_order.maker,address(this)) >= _order.amount){\r\n            assert(token.transferFrom(_order.maker,msg.sender, _order.amount));\r\n            maker.transfer(_order.price);\r\n        }\r\n        unLister(_orderId,_order);\r\n        emit Sale(_orderId,msg.sender,_order.asset,_order.amount,_order.price);\r\n    }\r\n\r\n    /**\r\n    *@dev getOrder lists the price,amount, and maker of a specific token for a sale\r\n    *@param _orderId uint256 ID of order\r\n    *@return address of the party selling\r\n    *@return uint of the price of the sale (in wei)\r\n    *@return uint of the order amount of the sale\r\n    *@return address of the token\r\n    */\r\n    function getOrder(uint256 _orderId) external view returns(address,uint,uint,address){\r\n        Order storage _order = orders[_orderId];\r\n        return (_order.maker,_order.price,_order.amount,_order.asset);\r\n    }\r\n\r\n    /**\r\n    *@dev allows the owner to change who the owner is\r\n    *@param _owner is the address of the new owner\r\n    */\r\n    function setOwner(address _owner) public onlyOwner() {\r\n        owner = _owner;\r\n    }\r\n\r\n    /**\r\n    *@notice This allows the owner to stop a malicious party from spamming the orderbook\r\n    *@dev Allows the owner to blacklist addresses from using this exchange\r\n    *@param _address the address of the party to blacklist\r\n    *@param _motion true or false depending on if blacklisting or not\r\n    */\r\n    function blacklistParty(address _address, bool _motion) public onlyOwner() {\r\n        blacklist[_address] = _motion;\r\n    }\r\n\r\n    /**\r\n    *@dev Allows parties to see if one is blacklisted\r\n    *@param _address the address of the party to blacklist\r\n    *@return bool true for is blacklisted\r\n    */\r\n    function isBlacklist(address _address) public view returns(bool) {\r\n        return blacklist[_address];\r\n    }\r\n\r\n    /**\r\n    *@dev getOrderCount allows parties to query how many orders are on the book\r\n    *@param _token address used to count the number of orders\r\n    *@return _uint of the number of orders in the orderbook\r\n    */\r\n    function getOrderCount(address _token) public constant returns(uint) {\r\n        return forSale[_token].length;\r\n    }\r\n\r\n    /**\r\n    *@dev Gets number of open orderbooks\r\n    *@return _uint of the number of tokens with open orders\r\n    */\r\n    function getBookCount() public constant returns(uint) {\r\n        return openBooks.length;\r\n    }\r\n\r\n    /**\r\n    *@dev getOrders allows parties to get an array of all orderId's open for a given token\r\n    *@param _token address of the drct token\r\n    *@return _uint[] an array of the orders in the orderbook\r\n    */\r\n    function getOrders(address _token) public constant returns(uint[]) {\r\n        return forSale[_token];\r\n    }\r\n\r\n    /**\r\n    *@dev getUserOrders allows parties to get an array of all orderId's open for a given user\r\n    *@param _user address \r\n    *@return _uint[] an array of the orders in the orderbook for the user\r\n    */\r\n    function getUserOrders(address _user) public constant returns(uint[]) {\r\n        return userOrders[_user];\r\n    }\r\n\r\n    /**\r\n    *@dev getter function to get all openDdaListAssets\r\n    */\r\n    function getopenDdaListAssets() view public returns (address[]){\r\n        return openDdaListAssets;\r\n    }\r\n    /**\r\n    *@dev Gets the DDA List Asset information for the specifed \r\n    *asset address\r\n    *@param _assetAddress for DDA list\r\n    *@return price, amount and true if isLong\r\n    */\r\n    function getDdaListAssetInfo(address _assetAddress) public view returns(uint, uint, bool){\r\n        return(listOfAssets[_assetAddress].price,listOfAssets[_assetAddress].amount,listOfAssets[_assetAddress].isLong);\r\n    }\r\n\r\n    /**\r\n    *@param _owner address\r\n    *@param _asset address\r\n    *@return Returns the total listed the owner has listed for the specified asset\r\n    */\r\n    function getTotalListed(address _owner, address _asset) public view returns (uint) {\r\n       return totalListed[_owner][_asset]; \r\n    }\r\n\r\n    /**\r\n    *@dev An internal function to update mappings when an order is removed from the book\r\n    *@param _orderId is the uint256 ID of order\r\n    *@param _order is the struct containing the details of the order\r\n    */\r\n    function unLister(uint256 _orderId, Order _order) internal{\r\n            uint256 tokenIndex;\r\n            uint256 lastTokenIndex;\r\n            address lastAdd;\r\n            uint256  lastToken;\r\n        totalListed[_order.maker][_order.asset] -= _order.amount;\r\n        if(forSale[_order.asset].length == 2){\r\n            tokenIndex = openBookIndex[_order.asset];\r\n            lastTokenIndex = openBooks.length.sub(1);\r\n            lastAdd = openBooks[lastTokenIndex];\r\n            openBooks[tokenIndex] = lastAdd;\r\n            openBookIndex[lastAdd] = tokenIndex;\r\n            openBooks.length--;\r\n            openBookIndex[_order.asset] = 0;\r\n            forSale[_order.asset].length -= 2;\r\n        }\r\n        else{\r\n            tokenIndex = forSaleIndex[_orderId];\r\n            lastTokenIndex = forSale[_order.asset].length.sub(1);\r\n            lastToken = forSale[_order.asset][lastTokenIndex];\r\n            forSale[_order.asset][tokenIndex] = lastToken;\r\n            forSaleIndex[lastToken] = tokenIndex;\r\n            forSale[_order.asset].length--;\r\n        }\r\n        forSaleIndex[_orderId] = 0;\r\n        orders[_orderId] = Order({\r\n            maker: address(0),\r\n            price: 0,\r\n            amount:0,\r\n            asset: address(0)\r\n        });\r\n        if(userOrders[_order.maker].length > 1){\r\n            tokenIndex = userOrderIndex[_orderId];\r\n            lastTokenIndex = userOrders[_order.maker].length.sub(1);\r\n            lastToken = userOrders[_order.maker][lastTokenIndex];\r\n            userOrders[_order.maker][tokenIndex] = lastToken;\r\n            userOrderIndex[lastToken] = tokenIndex;\r\n        }\r\n        userOrders[_order.maker].length--;\r\n        userOrderIndex[_orderId] = 0;\r\n    }\r\n}\r\n",
  "sourcePath": "C:\\company\\code\\drct_standard\\contracts\\Exchange.sol",
  "compiler": {
    "name": "solc",
    "version": "0.4.24+commit.e67f0147.Emscripten.clang"
  },
  "schemaVersion": "2.0.1",
  "updatedAt": "2018-11-16T01:55:21.332Z"
}