{
  "contractName": "Exchange",
  "abi": [
    {
      "constant": true,
      "inputs": [
        {
          "name": "",
          "type": "uint256"
        }
      ],
      "name": "openBooks",
      "outputs": [
        {
          "name": "",
          "type": "address"
        }
      ],
      "payable": false,
      "stateMutability": "view",
      "type": "function"
    },
    {
      "constant": true,
      "inputs": [
        {
          "name": "",
          "type": "address"
        },
        {
          "name": "",
          "type": "uint256"
        }
      ],
      "name": "userOrders",
      "outputs": [
        {
          "name": "",
          "type": "uint256"
        }
      ],
      "payable": false,
      "stateMutability": "view",
      "type": "function"
    },
    {
      "constant": true,
      "inputs": [],
      "name": "owner",
      "outputs": [
        {
          "name": "",
          "type": "address"
        }
      ],
      "payable": false,
      "stateMutability": "view",
      "type": "function"
    },
    {
      "constant": true,
      "inputs": [
        {
          "name": "",
          "type": "address"
        }
      ],
      "name": "openDdaListIndex",
      "outputs": [
        {
          "name": "",
          "type": "uint256"
        }
      ],
      "payable": false,
      "stateMutability": "view",
      "type": "function"
    },
    {
      "constant": true,
      "inputs": [
        {
          "name": "",
          "type": "uint256"
        }
      ],
      "name": "orders",
      "outputs": [
        {
          "name": "maker",
          "type": "address"
        },
        {
          "name": "price",
          "type": "uint256"
        },
        {
          "name": "amount",
          "type": "uint256"
        },
        {
          "name": "asset",
          "type": "address"
        }
      ],
      "payable": false,
      "stateMutability": "view",
      "type": "function"
    },
    {
      "constant": true,
      "inputs": [
        {
          "name": "",
          "type": "address"
        }
      ],
      "name": "listOfAssets",
      "outputs": [
        {
          "name": "price",
          "type": "uint256"
        },
        {
          "name": "amount",
          "type": "uint256"
        },
        {
          "name": "isLong",
          "type": "bool"
        }
      ],
      "payable": false,
      "stateMutability": "view",
      "type": "function"
    },
    {
      "constant": true,
      "inputs": [
        {
          "name": "",
          "type": "uint256"
        }
      ],
      "name": "openDdaListAssets",
      "outputs": [
        {
          "name": "",
          "type": "address"
        }
      ],
      "payable": false,
      "stateMutability": "view",
      "type": "function"
    },
    {
      "constant": true,
      "inputs": [
        {
          "name": "",
          "type": "address"
        },
        {
          "name": "",
          "type": "uint256"
        }
      ],
      "name": "forSale",
      "outputs": [
        {
          "name": "",
          "type": "uint256"
        }
      ],
      "payable": false,
      "stateMutability": "view",
      "type": "function"
    },
    {
      "inputs": [],
      "payable": false,
      "stateMutability": "nonpayable",
      "type": "constructor"
    },
    {
      "anonymous": false,
      "inputs": [
        {
          "indexed": false,
          "name": "_sender",
          "type": "address"
        },
        {
          "indexed": false,
          "name": "_token",
          "type": "address"
        },
        {
          "indexed": false,
          "name": "_amount",
          "type": "uint256"
        },
        {
          "indexed": false,
          "name": "_price",
          "type": "uint256"
        }
      ],
      "name": "OrderPlaced",
      "type": "event"
    },
    {
      "anonymous": false,
      "inputs": [
        {
          "indexed": false,
          "name": "_sender",
          "type": "address"
        },
        {
          "indexed": false,
          "name": "_token",
          "type": "address"
        },
        {
          "indexed": false,
          "name": "_amount",
          "type": "uint256"
        },
        {
          "indexed": false,
          "name": "_price",
          "type": "uint256"
        }
      ],
      "name": "Sale",
      "type": "event"
    },
    {
      "anonymous": false,
      "inputs": [
        {
          "indexed": false,
          "name": "_sender",
          "type": "address"
        },
        {
          "indexed": false,
          "name": "_token",
          "type": "address"
        },
        {
          "indexed": false,
          "name": "_amount",
          "type": "uint256"
        },
        {
          "indexed": false,
          "name": "_price",
          "type": "uint256"
        }
      ],
      "name": "OrderRemoved",
      "type": "event"
    },
    {
      "constant": false,
      "inputs": [
        {
          "name": "_tokenadd",
          "type": "address"
        },
        {
          "name": "_amount",
          "type": "uint256"
        },
        {
          "name": "_price",
          "type": "uint256"
        }
      ],
      "name": "list",
      "outputs": [],
      "payable": false,
      "stateMutability": "nonpayable",
      "type": "function"
    },
    {
      "constant": false,
      "inputs": [
        {
          "name": "_asset",
          "type": "address"
        },
        {
          "name": "_amount",
          "type": "uint256"
        },
        {
          "name": "_price",
          "type": "uint256"
        },
        {
          "name": "_isLong",
          "type": "bool"
        }
      ],
      "name": "listDda",
      "outputs": [],
      "payable": false,
      "stateMutability": "nonpayable",
      "type": "function"
    },
    {
      "constant": false,
      "inputs": [
        {
          "name": "_asset",
          "type": "address"
        }
      ],
      "name": "unlistDda",
      "outputs": [],
      "payable": false,
      "stateMutability": "nonpayable",
      "type": "function"
    },
    {
      "constant": false,
      "inputs": [
        {
          "name": "_asset",
          "type": "address"
        },
        {
          "name": "_amount",
          "type": "uint256"
        }
      ],
      "name": "buyPerUnit",
      "outputs": [],
      "payable": true,
      "stateMutability": "payable",
      "type": "function"
    },
    {
      "constant": false,
      "inputs": [
        {
          "name": "_orderId",
          "type": "uint256"
        }
      ],
      "name": "unlist",
      "outputs": [],
      "payable": false,
      "stateMutability": "nonpayable",
      "type": "function"
    },
    {
      "constant": false,
      "inputs": [
        {
          "name": "_orderId",
          "type": "uint256"
        }
      ],
      "name": "buy",
      "outputs": [],
      "payable": true,
      "stateMutability": "payable",
      "type": "function"
    },
    {
      "constant": true,
      "inputs": [
        {
          "name": "_orderId",
          "type": "uint256"
        }
      ],
      "name": "getOrder",
      "outputs": [
        {
          "name": "",
          "type": "address"
        },
        {
          "name": "",
          "type": "uint256"
        },
        {
          "name": "",
          "type": "uint256"
        },
        {
          "name": "",
          "type": "address"
        }
      ],
      "payable": false,
      "stateMutability": "view",
      "type": "function"
    },
    {
      "constant": false,
      "inputs": [
        {
          "name": "_owner",
          "type": "address"
        }
      ],
      "name": "setOwner",
      "outputs": [],
      "payable": false,
      "stateMutability": "nonpayable",
      "type": "function"
    },
    {
      "constant": false,
      "inputs": [
        {
          "name": "_address",
          "type": "address"
        },
        {
          "name": "_motion",
          "type": "bool"
        }
      ],
      "name": "blacklistParty",
      "outputs": [],
      "payable": false,
      "stateMutability": "nonpayable",
      "type": "function"
    },
    {
      "constant": true,
      "inputs": [
        {
          "name": "_address",
          "type": "address"
        }
      ],
      "name": "isBlacklist",
      "outputs": [
        {
          "name": "",
          "type": "bool"
        }
      ],
      "payable": false,
      "stateMutability": "view",
      "type": "function"
    },
    {
      "constant": true,
      "inputs": [
        {
          "name": "_token",
          "type": "address"
        }
      ],
      "name": "getOrderCount",
      "outputs": [
        {
          "name": "",
          "type": "uint256"
        }
      ],
      "payable": false,
      "stateMutability": "view",
      "type": "function"
    },
    {
      "constant": true,
      "inputs": [],
      "name": "getBookCount",
      "outputs": [
        {
          "name": "",
          "type": "uint256"
        }
      ],
      "payable": false,
      "stateMutability": "view",
      "type": "function"
    },
    {
      "constant": true,
      "inputs": [
        {
          "name": "_token",
          "type": "address"
        }
      ],
      "name": "getOrders",
      "outputs": [
        {
          "name": "",
          "type": "uint256[]"
        }
      ],
      "payable": false,
      "stateMutability": "view",
      "type": "function"
    },
    {
      "constant": true,
      "inputs": [
        {
          "name": "_user",
          "type": "address"
        }
      ],
      "name": "getUserOrders",
      "outputs": [
        {
          "name": "",
          "type": "uint256[]"
        }
      ],
      "payable": false,
      "stateMutability": "view",
      "type": "function"
    },
    {
      "constant": true,
      "inputs": [],
      "name": "getopenDdaListAssets",
      "outputs": [
        {
          "name": "",
          "type": "address[]"
        }
      ],
      "payable": false,
      "stateMutability": "view",
      "type": "function"
    },
    {
      "constant": true,
      "inputs": [
        {
          "name": "_assetAddress",
          "type": "address"
        }
      ],
      "name": "getDdaListAssetInfo",
      "outputs": [
        {
          "name": "",
          "type": "uint256"
        },
        {
          "name": "",
          "type": "uint256"
        },
        {
          "name": "",
          "type": "bool"
        }
      ],
      "payable": false,
      "stateMutability": "view",
      "type": "function"
    }
  ],
  "bytecode": "0x608060405234801561001057600080fd5b5033600160006101000a81548173ffffffffffffffffffffffffffffffffffffffff021916908373ffffffffffffffffffffffffffffffffffffffff1602179055506003600090806001815401808255809150509060018203906000526020600020016000909192909190916101000a81548173ffffffffffffffffffffffffffffffffffffffff021916908373ffffffffffffffffffffffffffffffffffffffff16021790555050600160008190555061306c806100d06000396000f30060806040526004361061013d576000357c0100000000000000000000000000000000000000000000000000000000900463ffffffff1680621236bf14610142578063093376fe146101ab57806313af403514610243578063333e99db146102865780634c3b6760146102e1578063564161471461034e5780635ac5ba71146103ba57806363c69f081461040957806369902ffb146104a1578063856652e9146104e15780638da5cb5b146105425780638e0ffafc14610599578063a85c38ef146105f0578063b96f24fa1461069e578063bf5a4dd314610707578063d09ef24114610734578063d49e0cdd146107e2578063d73e0c8914610825578063d8b8675314610850578063d96a094a146108a7578063dda342bb146108c7578063de0f674e1461091e578063eb3056e01461098b578063f34bc282146109ec575b600080fd5b34801561014e57600080fd5b50610183600480360381019080803573ffffffffffffffffffffffffffffffffffffffff169060200190929190505050610a4f565b6040518084815260200183815260200182151515158152602001935050505060405180910390f35b3480156101b757600080fd5b506101ec600480360381019080803573ffffffffffffffffffffffffffffffffffffffff169060200190929190505050610b37565b6040518080602001828103825283818151815260200191508051906020019060200280838360005b8381101561022f578082015181840152602081019050610214565b505050509050019250505060405180910390f35b34801561024f57600080fd5b50610284600480360381019080803573ffffffffffffffffffffffffffffffffffffffff169060200190929190505050610bce565b005b34801561029257600080fd5b506102c7600480360381019080803573ffffffffffffffffffffffffffffffffffffffff169060200190929190505050610c6e565b604051808215151515815260200191505060405180910390f35b3480156102ed57600080fd5b5061030c60048036038101908080359060200190929190505050610cc4565b604051808273ffffffffffffffffffffffffffffffffffffffff1673ffffffffffffffffffffffffffffffffffffffff16815260200191505060405180910390f35b34801561035a57600080fd5b50610363610d02565b6040518080602001828103825283818151815260200191508051906020019060200280838360005b838110156103a657808201518184015260208101905061038b565b505050509050019250505060405180910390f35b3480156103c657600080fd5b50610407600480360381019080803573ffffffffffffffffffffffffffffffffffffffff169060200190929190803515159060200190929190505050610d90565b005b34801561041557600080fd5b5061044a600480360381019080803573ffffffffffffffffffffffffffffffffffffffff169060200190929190505050610e47565b6040518080602001828103825283818151815260200191508051906020019060200280838360005b8381101561048d578082015181840152602081019050610472565b505050509050019250505060405180910390f35b6104df600480360381019080803573ffffffffffffffffffffffffffffffffffffffff16906020019092919080359060200190929190505050610ede565b005b3480156104ed57600080fd5b5061052c600480360381019080803573ffffffffffffffffffffffffffffffffffffffff169060200190929190803590602001909291905050506112bf565b6040518082815260200191505060405180910390f35b34801561054e57600080fd5b506105576112ef565b604051808273ffffffffffffffffffffffffffffffffffffffff1673ffffffffffffffffffffffffffffffffffffffff16815260200191505060405180910390f35b3480156105a557600080fd5b506105da600480360381019080803573ffffffffffffffffffffffffffffffffffffffff169060200190929190505050611315565b6040518082815260200191505060405180910390f35b3480156105fc57600080fd5b5061061b6004803603810190808035906020019092919050505061132d565b604051808573ffffffffffffffffffffffffffffffffffffffff1673ffffffffffffffffffffffffffffffffffffffff1681526020018481526020018381526020018273ffffffffffffffffffffffffffffffffffffffff1673ffffffffffffffffffffffffffffffffffffffff16815260200194505050505060405180910390f35b3480156106aa57600080fd5b506106df600480360381019080803573ffffffffffffffffffffffffffffffffffffffff16906020019092919050505061139d565b6040518084815260200183815260200182151515158152602001935050505060405180910390f35b34801561071357600080fd5b50610732600480360381019080803590602001909291905050506113d4565b005b34801561074057600080fd5b5061075f60048036038101908080359060200190929190505050611636565b604051808573ffffffffffffffffffffffffffffffffffffffff1673ffffffffffffffffffffffffffffffffffffffff1681526020018481526020018381526020018273ffffffffffffffffffffffffffffffffffffffff1673ffffffffffffffffffffffffffffffffffffffff16815260200194505050505060405180910390f35b3480156107ee57600080fd5b50610823600480360381019080803573ffffffffffffffffffffffffffffffffffffffff1690602001909291905050506116b7565b005b34801561083157600080fd5b5061083a611981565b6040518082815260200191505060405180910390f35b34801561085c57600080fd5b50610891600480360381019080803573ffffffffffffffffffffffffffffffffffffffff16906020019092919050505061198e565b6040518082815260200191505060405180910390f35b6108c5600480360381019080803590602001909291905050506119da565b005b3480156108d357600080fd5b5061091c600480360381019080803573ffffffffffffffffffffffffffffffffffffffff1690602001909291908035906020019092919080359060200190929190505050611f2f565b005b34801561092a57600080fd5b50610949600480360381019080803590602001909291905050506125b7565b604051808273ffffffffffffffffffffffffffffffffffffffff1673ffffffffffffffffffffffffffffffffffffffff16815260200191505060405180910390f35b34801561099757600080fd5b506109d6600480360381019080803573ffffffffffffffffffffffffffffffffffffffff169060200190929190803590602001909291905050506125f5565b6040518082815260200191505060405180910390f35b3480156109f857600080fd5b50610a4d600480360381019080803573ffffffffffffffffffffffffffffffffffffffff1690602001909291908035906020019092919080359060200190929190803515159060200190929190505050612625565b005b6000806000600560008573ffffffffffffffffffffffffffffffffffffffff1673ffffffffffffffffffffffffffffffffffffffff16815260200190815260200160002060000154600560008673ffffffffffffffffffffffffffffffffffffffff1673ffffffffffffffffffffffffffffffffffffffff16815260200190815260200160002060010154600560008773ffffffffffffffffffffffffffffffffffffffff1673ffffffffffffffffffffffffffffffffffffffff16815260200190815260200160002060020160009054906101000a900460ff169250925092509193909250565b6060600760008373ffffffffffffffffffffffffffffffffffffffff1673ffffffffffffffffffffffffffffffffffffffff168152602001908152602001600020805480602002602001604051908101604052809291908181526020018280548015610bc257602002820191906000526020600020905b815481526020019060010190808311610bae575b50505050509050919050565b600160009054906101000a900473ffffffffffffffffffffffffffffffffffffffff1673ffffffffffffffffffffffffffffffffffffffff163373ffffffffffffffffffffffffffffffffffffffff16141515610c2a57600080fd5b80600160006101000a81548173ffffffffffffffffffffffffffffffffffffffff021916908373ffffffffffffffffffffffffffffffffffffffff16021790555050565b6000600c60008373ffffffffffffffffffffffffffffffffffffffff1673ffffffffffffffffffffffffffffffffffffffff16815260200190815260200160002060009054906101000a900460ff169050919050565b600381815481101515610cd357fe5b906000526020600020016000915054906101000a900473ffffffffffffffffffffffffffffffffffffffff1681565b60606002805480602002602001604051908101604052809291908181526020018280548015610d8657602002820191906000526020600020905b8160009054906101000a900473ffffffffffffffffffffffffffffffffffffffff1673ffffffffffffffffffffffffffffffffffffffff1681526020019060010190808311610d3c575b5050505050905090565b600160009054906101000a900473ffffffffffffffffffffffffffffffffffffffff1673ffffffffffffffffffffffffffffffffffffffff163373ffffffffffffffffffffffffffffffffffffffff16141515610dec57600080fd5b80600c60008473ffffffffffffffffffffffffffffffffffffffff1673ffffffffffffffffffffffffffffffffffffffff16815260200190815260200160002060006101000a81548160ff0219169083151502179055505050565b6060600a60008373ffffffffffffffffffffffffffffffffffffffff1673ffffffffffffffffffffffffffffffffffffffff168152602001908152602001600020805480602002602001604051908101604052809291908181526020018280548015610ed257602002820191906000526020600020905b815481526020019060010190808311610ebe575b50505050509050919050565b6000806000801515600c60003373ffffffffffffffffffffffffffffffffffffffff1673ffffffffffffffffffffffffffffffffffffffff16815260200190815260200160002060009054906101000a900460ff161515141515610f4157600080fd5b600560008673ffffffffffffffffffffffffffffffffffffffff1673ffffffffffffffffffffffffffffffffffffffff168152602001908152602001600020925082600101548411151515610f9557600080fd5b610fac83600001548561280790919063ffffffff16565b91508134141515610fbc57600080fd5b849050838173ffffffffffffffffffffffffffffffffffffffff1663dd62ed3e600160009054906101000a900473ffffffffffffffffffffffffffffffffffffffff16306040518363ffffffff167c0100000000000000000000000000000000000000000000000000000000028152600401808373ffffffffffffffffffffffffffffffffffffffff1673ffffffffffffffffffffffffffffffffffffffff1681526020018273ffffffffffffffffffffffffffffffffffffffff1673ffffffffffffffffffffffffffffffffffffffff16815260200192505050602060405180830381600087803b1580156110b157600080fd5b505af11580156110c5573d6000803e3d6000fd5b505050506040513d60208110156110db57600080fd5b81019080805190602001909291905050501015156112b8578073ffffffffffffffffffffffffffffffffffffffff166323b872dd600160009054906101000a900473ffffffffffffffffffffffffffffffffffffffff1633876040518463ffffffff167c0100000000000000000000000000000000000000000000000000000000028152600401808473ffffffffffffffffffffffffffffffffffffffff1673ffffffffffffffffffffffffffffffffffffffff1681526020018373ffffffffffffffffffffffffffffffffffffffff1673ffffffffffffffffffffffffffffffffffffffff1681526020018281526020019350505050602060405180830381600087803b1580156111ec57600080fd5b505af1158015611200573d6000803e3d6000fd5b505050506040513d602081101561121657600080fd5b8101908080519060200190929190505050151561122f57fe5b600160009054906101000a900473ffffffffffffffffffffffffffffffffffffffff1673ffffffffffffffffffffffffffffffffffffffff166108fc839081150290604051600060405180830381858888f19350505050158015611297573d6000803e3d6000fd5b506112af84846001015461283a90919063ffffffff16565b83600101819055505b5050505050565b600a602052816000526040600020818154811015156112da57fe5b90600052602060002001600091509150505481565b600160009054906101000a900473ffffffffffffffffffffffffffffffffffffffff1681565b60046020528060005260406000206000915090505481565b60066020528060005260406000206000915090508060000160009054906101000a900473ffffffffffffffffffffffffffffffffffffffff16908060010154908060020154908060030160009054906101000a900473ffffffffffffffffffffffffffffffffffffffff16905084565b60056020528060005260406000206000915090508060000154908060010154908060020160009054906101000a900460ff16905083565b6113dc612f6e565b600060086000848152602001908152602001600020541115156113fe57600080fd5b60066000838152602001908152602001600020608060405190810160405290816000820160009054906101000a900473ffffffffffffffffffffffffffffffffffffffff1673ffffffffffffffffffffffffffffffffffffffff1673ffffffffffffffffffffffffffffffffffffffff16815260200160018201548152602001600282015481526020016003820160009054906101000a900473ffffffffffffffffffffffffffffffffffffffff1673ffffffffffffffffffffffffffffffffffffffff1673ffffffffffffffffffffffffffffffffffffffff16815250509050806000015173ffffffffffffffffffffffffffffffffffffffff163373ffffffffffffffffffffffffffffffffffffffff16148061156a5750600160009054906101000a900473ffffffffffffffffffffffffffffffffffffffff1673ffffffffffffffffffffffffffffffffffffffff163373ffffffffffffffffffffffffffffffffffffffff16145b151561157557600080fd5b61157f8282612853565b7f2ad9f28701ed86594a018e3331c1aa8fb3a1a39b7a6ef782eda2fc652bcb728f33826060015183604001518460200151604051808573ffffffffffffffffffffffffffffffffffffffff1673ffffffffffffffffffffffffffffffffffffffff1681526020018473ffffffffffffffffffffffffffffffffffffffff1673ffffffffffffffffffffffffffffffffffffffff16815260200183815260200182815260200194505050505060405180910390a15050565b60008060008060006006600087815260200190815260200160002090508060000160009054906101000a900473ffffffffffffffffffffffffffffffffffffffff16816001015482600201548360030160009054906101000a900473ffffffffffffffffffffffffffffffffffffffff169450945094509450509193509193565b600080600080600160009054906101000a900473ffffffffffffffffffffffffffffffffffffffff1673ffffffffffffffffffffffffffffffffffffffff163373ffffffffffffffffffffffffffffffffffffffff1614151561171957600080fd5b60001515600c60003373ffffffffffffffffffffffffffffffffffffffff1673ffffffffffffffffffffffffffffffffffffffff16815260200190815260200160002060009054906101000a900460ff16151514151561177857600080fd5b600560008673ffffffffffffffffffffffffffffffffffffffff1673ffffffffffffffffffffffffffffffffffffffff1681526020019081526020016000209050600081600001819055506000816001018190555060008160020160006101000a81548160ff021916908315150217905550600460008673ffffffffffffffffffffffffffffffffffffffff1673ffffffffffffffffffffffffffffffffffffffff168152602001908152602001600020549350611845600160028054905061283a90919063ffffffff16565b925060028381548110151561185657fe5b9060005260206000200160009054906101000a900473ffffffffffffffffffffffffffffffffffffffff1691508160028581548110151561189357fe5b9060005260206000200160006101000a81548173ffffffffffffffffffffffffffffffffffffffff021916908373ffffffffffffffffffffffffffffffffffffffff16021790555083600460008473ffffffffffffffffffffffffffffffffffffffff1673ffffffffffffffffffffffffffffffffffffffff1681526020019081526020016000208190555060028054809190600190036119349190612fc3565b506000600460008773ffffffffffffffffffffffffffffffffffffffff1673ffffffffffffffffffffffffffffffffffffffff168152602001908152602001600020819055505050505050565b6000600380549050905090565b6000600760008373ffffffffffffffffffffffffffffffffffffffff1673ffffffffffffffffffffffffffffffffffffffff168152602001908152602001600020805490509050919050565b6119e2612f6e565b60008060066000858152602001908152602001600020608060405190810160405290816000820160009054906101000a900473ffffffffffffffffffffffffffffffffffffffff1673ffffffffffffffffffffffffffffffffffffffff1673ffffffffffffffffffffffffffffffffffffffff16815260200160018201548152602001600282015481526020016003820160009054906101000a900473ffffffffffffffffffffffffffffffffffffffff1673ffffffffffffffffffffffffffffffffffffffff1673ffffffffffffffffffffffffffffffffffffffff168152505092506000836020015114158015611b0c5750600073ffffffffffffffffffffffffffffffffffffffff16836000015173ffffffffffffffffffffffffffffffffffffffff1614155b8015611b495750600073ffffffffffffffffffffffffffffffffffffffff16836060015173ffffffffffffffffffffffffffffffffffffffff1614155b8015611b5a57506000836040015114155b1515611b6557600080fd5b826020015134141515611b7757600080fd5b60001515600c60003373ffffffffffffffffffffffffffffffffffffffff1673ffffffffffffffffffffffffffffffffffffffff16815260200190815260200160002060009054906101000a900460ff161515141515611bd657600080fd5b826000015191508260600151905082604001518173ffffffffffffffffffffffffffffffffffffffff1663dd62ed3e8560000151306040518363ffffffff167c0100000000000000000000000000000000000000000000000000000000028152600401808373ffffffffffffffffffffffffffffffffffffffff1673ffffffffffffffffffffffffffffffffffffffff1681526020018273ffffffffffffffffffffffffffffffffffffffff1673ffffffffffffffffffffffffffffffffffffffff16815260200192505050602060405180830381600087803b158015611cbc57600080fd5b505af1158015611cd0573d6000803e3d6000fd5b505050506040513d6020811015611ce657600080fd5b8101908080519060200190929190505050101515611e6c578073ffffffffffffffffffffffffffffffffffffffff166323b872dd84600001513386604001516040518463ffffffff167c0100000000000000000000000000000000000000000000000000000000028152600401808473ffffffffffffffffffffffffffffffffffffffff1673ffffffffffffffffffffffffffffffffffffffff1681526020018373ffffffffffffffffffffffffffffffffffffffff1673ffffffffffffffffffffffffffffffffffffffff1681526020018281526020019350505050602060405180830381600087803b158015611ddd57600080fd5b505af1158015611df1573d6000803e3d6000fd5b505050506040513d6020811015611e0757600080fd5b81019080805190602001909291905050501515611e2057fe5b8173ffffffffffffffffffffffffffffffffffffffff166108fc84602001519081150290604051600060405180830381858888f19350505050158015611e6a573d6000803e3d6000fd5b505b611e768484612853565b7f681ddc67ea8796d2489979f5fc2ea2eb0f2d44ff3f11f061a191928a1f3d9a0633846060015185604001518660200151604051808573ffffffffffffffffffffffffffffffffffffffff1673ffffffffffffffffffffffffffffffffffffffff1681526020018473ffffffffffffffffffffffffffffffffffffffff1673ffffffffffffffffffffffffffffffffffffffff16815260200183815260200182815260200194505050505060405180910390a150505050565b6000801515600c60003373ffffffffffffffffffffffffffffffffffffffff1673ffffffffffffffffffffffffffffffffffffffff16815260200190815260200160002060009054906101000a900460ff161515141515611f8f57600080fd5b600082111515611f9e57600080fd5b839050828173ffffffffffffffffffffffffffffffffffffffff1663dd62ed3e33306040518363ffffffff167c0100000000000000000000000000000000000000000000000000000000028152600401808373ffffffffffffffffffffffffffffffffffffffff1673ffffffffffffffffffffffffffffffffffffffff1681526020018273ffffffffffffffffffffffffffffffffffffffff1673ffffffffffffffffffffffffffffffffffffffff16815260200192505050602060405180830381600087803b15801561207157600080fd5b505af1158015612085573d6000803e3d6000fd5b505050506040513d602081101561209b57600080fd5b8101908080519060200190929190505050101515156120b957600080fd5b6000600760008673ffffffffffffffffffffffffffffffffffffffff1673ffffffffffffffffffffffffffffffffffffffff16815260200190815260200160002080549050141561216f57600760008573ffffffffffffffffffffffffffffffffffffffff1673ffffffffffffffffffffffffffffffffffffffff168152602001908152602001600020600090806001815401808255809150509060018203906000526020600020016000909192909190915055505b600760008573ffffffffffffffffffffffffffffffffffffffff1673ffffffffffffffffffffffffffffffffffffffff16815260200190815260200160002080549050600860008054815260200190815260200160002081905550600760008573ffffffffffffffffffffffffffffffffffffffff1673ffffffffffffffffffffffffffffffffffffffff16815260200190815260200160002060005490806001815401808255809150509060018203906000526020600020016000909192909190915055506080604051908101604052803373ffffffffffffffffffffffffffffffffffffffff1681526020018381526020018481526020018573ffffffffffffffffffffffffffffffffffffffff16815250600660008054815260200190815260200160002060008201518160000160006101000a81548173ffffffffffffffffffffffffffffffffffffffff021916908373ffffffffffffffffffffffffffffffffffffffff160217905550602082015181600101556040820151816002015560608201518160030160006101000a81548173ffffffffffffffffffffffffffffffffffffffff021916908373ffffffffffffffffffffffffffffffffffffffff1602179055509050507f2470206de0d597332cec41e79165bf24fb8e706aca788e7c1aea6ebc5abb2d3833858585604051808573ffffffffffffffffffffffffffffffffffffffff1673ffffffffffffffffffffffffffffffffffffffff1681526020018473ffffffffffffffffffffffffffffffffffffffff1673ffffffffffffffffffffffffffffffffffffffff16815260200183815260200182815260200194505050505060405180910390a16000600960008673ffffffffffffffffffffffffffffffffffffffff1673ffffffffffffffffffffffffffffffffffffffff1681526020019081526020016000205414156124db57600380549050600960008673ffffffffffffffffffffffffffffffffffffffff1673ffffffffffffffffffffffffffffffffffffffff1681526020019081526020016000208190555060038490806001815401808255809150509060018203906000526020600020016000909192909190916101000a81548173ffffffffffffffffffffffffffffffffffffffff021916908373ffffffffffffffffffffffffffffffffffffffff160217905550505b600a60003373ffffffffffffffffffffffffffffffffffffffff1673ffffffffffffffffffffffffffffffffffffffff16815260200190815260200160002080549050600b60008054815260200190815260200160002081905550600a60003373ffffffffffffffffffffffffffffffffffffffff1673ffffffffffffffffffffffffffffffffffffffff16815260200190815260200160002060005490806001815401808255809150509060018203906000526020600020016000909192909190915055506001600080828254019250508190555050505050565b6002818154811015156125c657fe5b906000526020600020016000915054906101000a900473ffffffffffffffffffffffffffffffffffffffff1681565b60076020528160005260406000208181548110151561261057fe5b90600052602060002001600091509150505481565b6000600160009054906101000a900473ffffffffffffffffffffffffffffffffffffffff1673ffffffffffffffffffffffffffffffffffffffff163373ffffffffffffffffffffffffffffffffffffffff1614151561268357600080fd5b60001515600c60003373ffffffffffffffffffffffffffffffffffffffff1673ffffffffffffffffffffffffffffffffffffffff16815260200190815260200160002060009054906101000a900460ff1615151415156126e257600080fd5b600560008673ffffffffffffffffffffffffffffffffffffffff1673ffffffffffffffffffffffffffffffffffffffff1681526020019081526020016000209050828160000181905550838160010181905550818160020160006101000a81548160ff021916908315150217905550600280549050600460008773ffffffffffffffffffffffffffffffffffffffff1673ffffffffffffffffffffffffffffffffffffffff1681526020019081526020016000208190555060028590806001815401808255809150509060018203906000526020600020016000909192909190916101000a81548173ffffffffffffffffffffffffffffffffffffffff021916908373ffffffffffffffffffffffffffffffffffffffff160217905550505050505050565b60008082840290506000841480612828575082848281151561282557fe5b04145b151561283057fe5b8091505092915050565b600082821115151561284857fe5b818303905092915050565b600080600080600260076000876060015173ffffffffffffffffffffffffffffffffffffffff1673ffffffffffffffffffffffffffffffffffffffff168152602001908152602001600020805490501415612a9f5760096000866060015173ffffffffffffffffffffffffffffffffffffffff1673ffffffffffffffffffffffffffffffffffffffff168152602001908152602001600020549350612907600160038054905061283a90919063ffffffff16565b925060038381548110151561291857fe5b9060005260206000200160009054906101000a900473ffffffffffffffffffffffffffffffffffffffff1691508160038581548110151561295557fe5b9060005260206000200160006101000a81548173ffffffffffffffffffffffffffffffffffffffff021916908373ffffffffffffffffffffffffffffffffffffffff16021790555083600960008473ffffffffffffffffffffffffffffffffffffffff1673ffffffffffffffffffffffffffffffffffffffff1681526020019081526020016000208190555060038054809190600190036129f69190612fc3565b50600060096000876060015173ffffffffffffffffffffffffffffffffffffffff1673ffffffffffffffffffffffffffffffffffffffff16815260200190815260200160002081905550600260076000876060015173ffffffffffffffffffffffffffffffffffffffff1673ffffffffffffffffffffffffffffffffffffffff16815260200190815260200160002081818054905003915081612a999190612fef565b50612c3d565b60086000878152602001908152602001600020549350612b0f600160076000886060015173ffffffffffffffffffffffffffffffffffffffff1673ffffffffffffffffffffffffffffffffffffffff1681526020019081526020016000208054905061283a90919063ffffffff16565b925060076000866060015173ffffffffffffffffffffffffffffffffffffffff1673ffffffffffffffffffffffffffffffffffffffff16815260200190815260200160002083815481101515612b6157fe5b906000526020600020015490508060076000876060015173ffffffffffffffffffffffffffffffffffffffff1673ffffffffffffffffffffffffffffffffffffffff16815260200190815260200160002085815481101515612bbf57fe5b906000526020600020018190555083600860008381526020019081526020016000208190555060076000866060015173ffffffffffffffffffffffffffffffffffffffff1673ffffffffffffffffffffffffffffffffffffffff168152602001908152602001600020805480919060019003612c3b9190612fef565b505b60006008600088815260200190815260200160002081905550608060405190810160405280600073ffffffffffffffffffffffffffffffffffffffff1681526020016000815260200160008152602001600073ffffffffffffffffffffffffffffffffffffffff168152506006600088815260200190815260200160002060008201518160000160006101000a81548173ffffffffffffffffffffffffffffffffffffffff021916908373ffffffffffffffffffffffffffffffffffffffff160217905550602082015181600101556040820151816002015560608201518160030160006101000a81548173ffffffffffffffffffffffffffffffffffffffff021916908373ffffffffffffffffffffffffffffffffffffffff1602179055509050506001600a6000876000015173ffffffffffffffffffffffffffffffffffffffff1673ffffffffffffffffffffffffffffffffffffffff168152602001908152602001600020805490501115612ef657600b6000878152602001908152602001600020549350612e1f6001600a6000886000015173ffffffffffffffffffffffffffffffffffffffff1673ffffffffffffffffffffffffffffffffffffffff1681526020019081526020016000208054905061283a90919063ffffffff16565b9250600a6000866000015173ffffffffffffffffffffffffffffffffffffffff1673ffffffffffffffffffffffffffffffffffffffff16815260200190815260200160002083815481101515612e7157fe5b9060005260206000200154905080600a6000876000015173ffffffffffffffffffffffffffffffffffffffff1673ffffffffffffffffffffffffffffffffffffffff16815260200190815260200160002085815481101515612ecf57fe5b906000526020600020018190555083600b6000838152602001908152602001600020819055505b600a6000866000015173ffffffffffffffffffffffffffffffffffffffff1673ffffffffffffffffffffffffffffffffffffffff168152602001908152602001600020805480919060019003612f4c9190612fef565b506000600b600088815260200190815260200160002081905550505050505050565b608060405190810160405280600073ffffffffffffffffffffffffffffffffffffffff1681526020016000815260200160008152602001600073ffffffffffffffffffffffffffffffffffffffff1681525090565b815481835581811115612fea57818360005260206000209182019101612fe9919061301b565b5b505050565b81548183558181111561301657818360005260206000209182019101613015919061301b565b5b505050565b61303d91905b80821115613039576000816000905550600101613021565b5090565b905600a165627a7a72305820dd283756637e762c63fcf3c519d623811d741cc7ffa6e07d0f7452d542dfec670029",
  "source": "pragma solidity ^0.4.24;\r\n\r\n import \"./libraries/SafeMath.sol\";\r\n import \"./interfaces/ERC20_Interface.sol\";\r\n\r\n/**\r\n*Exchange creates an exchange for the swaps.\r\n*/\r\ncontract Exchange{ \r\n    using SafeMath for uint256;\r\n\r\n    /*Variables*/\r\n\r\n    \r\n    /*Structs*/\r\n    //This is the base data structure for an order (the maker of the order and the price)\r\n    struct Order {\r\n        address maker;// the placer of the order\r\n        uint price;// The price in wei\r\n        uint amount;\r\n        address asset;\r\n    }\r\n\r\n    struct ListAsset {\r\n        uint price;\r\n        uint amount;\r\n        bool isLong;  \r\n    }\r\n\r\n    //order_nonce;\r\n    uint internal order_nonce;\r\n    address public owner; //The owner of the market contract\r\n    address[] public openDdaListAssets;\r\n    //Index telling where a specific tokenId is in the forSale array\r\n    address[] public openBooks;\r\n    mapping (address => uint) public openDdaListIndex;\r\n    mapping(address => ListAsset) public listOfAssets;\r\n    //Maps an OrderID to the list of orders\r\n    mapping(uint256 => Order) public orders;\r\n    //An mapping of a token address to the orderID's\r\n    mapping(address =>  uint256[]) public forSale;\r\n    //Index telling where a specific tokenId is in the forSale array\r\n    mapping(uint256 => uint256) internal forSaleIndex;\r\n    \r\n    //mapping of address to position in openBooks\r\n    mapping (address => uint) internal openBookIndex;\r\n    //mapping of user to their orders\r\n    mapping(address => uint[]) public userOrders;\r\n    //mapping from orderId to userOrder position\r\n    mapping(uint => uint) internal userOrderIndex;\r\n    //A list of the blacklisted addresses\r\n    mapping(address => bool) internal blacklist;\r\n    \r\n\r\n    /*Events*/\r\n    event OrderPlaced(address _sender,address _token, uint256 _amount, uint256 _price);\r\n    event Sale(address _sender,address _token, uint256 _amount, uint256 _price);\r\n    event OrderRemoved(address _sender,address _token, uint256 _amount, uint256 _price);\r\n\r\n    /*Modifiers*/\r\n    /**\r\n    *@dev Access modifier for Owner functionality\r\n    */\r\n    modifier onlyOwner() {\r\n        require(msg.sender == owner);\r\n        _;\r\n    }\r\n\r\n    /*Functions*/\r\n    /**\r\n    *@dev the constructor argument to set the owner and initialize the array.\r\n    */\r\n    constructor() public{\r\n        owner = msg.sender;\r\n        openBooks.push(address(0));\r\n        order_nonce = 1;\r\n    }\r\n\r\n    /**\r\n    *@dev list allows a party to place an order on the orderbook\r\n    *@param _tokenadd address of the drct tokens\r\n    *@param _amount number of DRCT tokens\r\n    *@param _price uint256 price of all tokens in wei\r\n    */\r\n    function list(address _tokenadd, uint256 _amount, uint256 _price) external {\r\n        require(blacklist[msg.sender] == false);\r\n        require(_price > 0);\r\n        ERC20_Interface token = ERC20_Interface(_tokenadd);\r\n        require(token.allowance(msg.sender,address(this)) >= _amount);\r\n        if(forSale[_tokenadd].length == 0){\r\n            forSale[_tokenadd].push(0);\r\n            }\r\n        forSaleIndex[order_nonce] = forSale[_tokenadd].length;\r\n        forSale[_tokenadd].push(order_nonce);\r\n        orders[order_nonce] = Order({\r\n            maker: msg.sender,\r\n            asset: _tokenadd,\r\n            price: _price,\r\n            amount:_amount\r\n        });\r\n        emit OrderPlaced(msg.sender,_tokenadd,_amount,_price);\r\n        if(openBookIndex[_tokenadd] == 0 ){    \r\n            openBookIndex[_tokenadd] = openBooks.length;\r\n            openBooks.push(_tokenadd);\r\n        }\r\n        userOrderIndex[order_nonce] = userOrders[msg.sender].length;\r\n        userOrders[msg.sender].push(order_nonce);\r\n        order_nonce += 1;\r\n    }\r\n\r\n    /**\r\n    *@dev list allows DDA to list an order \r\n    *@param _asset address \r\n    *@param _amount of asset\r\n    *@param _price uint256 price per unit in wei\r\n    *@param _isLong true if it is long\r\n    */\r\n    //Then you would have a mapping from an asset to its price/ quantity when you list it.\r\n    function listDda(address _asset, uint256 _amount, uint256 _price, bool _isLong) public onlyOwner() {\r\n        require(blacklist[msg.sender] == false);\r\n        ListAsset storage listing = listOfAssets[_asset];\r\n        listing.price = _price;\r\n        listing.amount= _amount;\r\n        listing.isLong= _isLong;\r\n        openDdaListIndex[_asset] = openDdaListAssets.length;\r\n        openDdaListAssets.push(_asset);\r\n        \r\n    }\r\n\r\n    /**\r\n    *@dev list allows a DDA to remove asset \r\n    *@param _asset address \r\n    */\r\n    function unlistDda(address _asset) public onlyOwner() {\r\n        require(blacklist[msg.sender] == false);\r\n        uint256 indexToDelete;\r\n        uint256 lastAcctIndex;\r\n        address lastAdd;\r\n        ListAsset storage listing = listOfAssets[_asset];\r\n        listing.price = 0;\r\n        listing.amount= 0;\r\n        listing.isLong= false;\r\n        indexToDelete = openDdaListIndex[_asset];\r\n        lastAcctIndex = openDdaListAssets.length.sub(1);\r\n        lastAdd = openDdaListAssets[lastAcctIndex];\r\n        openDdaListAssets[indexToDelete]=lastAdd;\r\n        openDdaListIndex[lastAdd]= indexToDelete;\r\n        openDdaListAssets.length--;\r\n        openDdaListIndex[_asset] = 0;\r\n    }\r\n\r\n    /**\r\n    *@dev buy allows a party to partially fill an order\r\n    *@param _asset is the address of the assset listed\r\n    *@param _amount is the amount of tokens to buy\r\n    */\r\n    function buyPerUnit(address _asset, uint256 _amount) external payable {\r\n        require(blacklist[msg.sender] == false);\r\n        ListAsset storage listing = listOfAssets[_asset];\r\n        require(_amount <= listing.amount);\r\n        uint totalPrice = _amount.mul(listing.price);\r\n        require(msg.value == totalPrice);\r\n        ERC20_Interface token = ERC20_Interface(_asset);\r\n        if(token.allowance(owner,address(this)) >= _amount){\r\n            assert(token.transferFrom(owner,msg.sender, _amount));\r\n            owner.transfer(totalPrice);\r\n            listing.amount= listing.amount.sub(_amount);\r\n        }\r\n    }\r\n\r\n    /**\r\n    *@dev unlist allows a party to remove their order from the orderbook\r\n    *@param _orderId is the uint256 ID of order\r\n    */\r\n    function unlist(uint256 _orderId) external{\r\n        require(forSaleIndex[_orderId] > 0);\r\n        Order memory _order = orders[_orderId];\r\n        require(msg.sender== _order.maker || msg.sender == owner);\r\n        unLister(_orderId,_order);\r\n        emit OrderRemoved(msg.sender,_order.asset,_order.amount,_order.price);\r\n    }\r\n\r\n    /**\r\n    *@dev buy allows a party to fill an order\r\n    *@param _orderId is the uint256 ID of order\r\n    */\r\n    function buy(uint256 _orderId) external payable {\r\n        Order memory _order = orders[_orderId];\r\n        require(_order.price != 0 && _order.maker != address(0) && _order.asset != address(0) && _order.amount != 0);\r\n        require(msg.value == _order.price);\r\n        require(blacklist[msg.sender] == false);\r\n        address maker = _order.maker;\r\n        ERC20_Interface token = ERC20_Interface(_order.asset);\r\n        if(token.allowance(_order.maker,address(this)) >= _order.amount){\r\n            assert(token.transferFrom(_order.maker,msg.sender, _order.amount));\r\n            maker.transfer(_order.price);\r\n        }\r\n        unLister(_orderId,_order);\r\n        emit Sale(msg.sender,_order.asset,_order.amount,_order.price);\r\n    }\r\n\r\n    /**\r\n    *@dev getOrder lists the price,amount, and maker of a specific token for a sale\r\n    *@param _orderId uint256 ID of order\r\n    *@return address of the party selling\r\n    *@return uint of the price of the sale (in wei)\r\n    *@return uint of the order amount of the sale\r\n    *@return address of the token\r\n    */\r\n    function getOrder(uint256 _orderId) external view returns(address,uint,uint,address){\r\n        Order storage _order = orders[_orderId];\r\n        return (_order.maker,_order.price,_order.amount,_order.asset);\r\n    }\r\n\r\n    /**\r\n    *@dev allows the owner to change who the owner is\r\n    *@param _owner is the address of the new owner\r\n    */\r\n    function setOwner(address _owner) public onlyOwner() {\r\n        owner = _owner;\r\n    }\r\n\r\n    /**\r\n    *@notice This allows the owner to stop a malicious party from spamming the orderbook\r\n    *@dev Allows the owner to blacklist addresses from using this exchange\r\n    *@param _address the address of the party to blacklist\r\n    *@param _motion true or false depending on if blacklisting or not\r\n    */\r\n    function blacklistParty(address _address, bool _motion) public onlyOwner() {\r\n        blacklist[_address] = _motion;\r\n    }\r\n\r\n    /**\r\n    *@dev Allows parties to see if one is blacklisted\r\n    *@param _address the address of the party to blacklist\r\n    *@return bool true for is blacklisted\r\n    */\r\n    function isBlacklist(address _address) public view returns(bool) {\r\n        return blacklist[_address];\r\n    }\r\n\r\n    /**\r\n    *@dev getOrderCount allows parties to query how many orders are on the book\r\n    *@param _token address used to count the number of orders\r\n    *@return _uint of the number of orders in the orderbook\r\n    */\r\n    function getOrderCount(address _token) public constant returns(uint) {\r\n        return forSale[_token].length;\r\n    }\r\n\r\n    /**\r\n    *@dev Gets number of open orderbooks\r\n    *@return _uint of the number of tokens with open orders\r\n    */\r\n    function getBookCount() public constant returns(uint) {\r\n        return openBooks.length;\r\n    }\r\n\r\n    /**\r\n    *@dev getOrders allows parties to get an array of all orderId's open for a given token\r\n    *@param _token address of the drct token\r\n    *@return _uint[] an array of the orders in the orderbook\r\n    */\r\n    function getOrders(address _token) public constant returns(uint[]) {\r\n        return forSale[_token];\r\n    }\r\n\r\n    /**\r\n    *@dev getUserOrders allows parties to get an array of all orderId's open for a given user\r\n    *@param _user address \r\n    *@return _uint[] an array of the orders in the orderbook for the user\r\n    */\r\n    function getUserOrders(address _user) public constant returns(uint[]) {\r\n        return userOrders[_user];\r\n    }\r\n\r\n    /**\r\n    *@dev getter function to get all openDdaListAssets\r\n    */\r\n    function getopenDdaListAssets() view public returns (address[]){\r\n        return openDdaListAssets;\r\n    }\r\n    /**\r\n    *@dev Gets the DDA List Asset information for the specifed \r\n    *asset address\r\n    *@param _assetAddress for DDA list\r\n    *@return price, amount and true if isLong\r\n    */\r\n    function getDdaListAssetInfo(address _assetAddress) public view returns(uint, uint, bool){\r\n        return(listOfAssets[_assetAddress].price,listOfAssets[_assetAddress].amount,listOfAssets[_assetAddress].isLong);\r\n    }\r\n    /**\r\n    *@dev An internal function to update mappings when an order is removed from the book\r\n    *@param _orderId is the uint256 ID of order\r\n    *@param _order is the struct containing the details of the order\r\n    */\r\n    function unLister(uint256 _orderId, Order _order) internal{\r\n            uint256 tokenIndex;\r\n            uint256 lastTokenIndex;\r\n            address lastAdd;\r\n            uint256  lastToken;\r\n        if(forSale[_order.asset].length == 2){\r\n            tokenIndex = openBookIndex[_order.asset];\r\n            lastTokenIndex = openBooks.length.sub(1);\r\n            lastAdd = openBooks[lastTokenIndex];\r\n            openBooks[tokenIndex] = lastAdd;\r\n            openBookIndex[lastAdd] = tokenIndex;\r\n            openBooks.length--;\r\n            openBookIndex[_order.asset] = 0;\r\n            forSale[_order.asset].length -= 2;\r\n        }\r\n        else{\r\n            tokenIndex = forSaleIndex[_orderId];\r\n            lastTokenIndex = forSale[_order.asset].length.sub(1);\r\n            lastToken = forSale[_order.asset][lastTokenIndex];\r\n            forSale[_order.asset][tokenIndex] = lastToken;\r\n            forSaleIndex[lastToken] = tokenIndex;\r\n            forSale[_order.asset].length--;\r\n        }\r\n        forSaleIndex[_orderId] = 0;\r\n        orders[_orderId] = Order({\r\n            maker: address(0),\r\n            price: 0,\r\n            amount:0,\r\n            asset: address(0)\r\n        });\r\n        if(userOrders[_order.maker].length > 1){\r\n            tokenIndex = userOrderIndex[_orderId];\r\n            lastTokenIndex = userOrders[_order.maker].length.sub(1);\r\n            lastToken = userOrders[_order.maker][lastTokenIndex];\r\n            userOrders[_order.maker][tokenIndex] = lastToken;\r\n            userOrderIndex[lastToken] = tokenIndex;\r\n        }\r\n        userOrders[_order.maker].length--;\r\n        userOrderIndex[_orderId] = 0;\r\n    }\r\n}\r\n",
  "sourcePath": "C:\\company\\code\\drct_standard\\contracts\\Exchange.sol",
  "compiler": {
    "name": "solc",
    "version": "0.4.24+commit.e67f0147.Emscripten.clang"
  },
  "schemaVersion": "2.0.1",
  "updatedAt": "2018-11-07T01:51:07.576Z"
}