{
  "contractName": "Factory",
  "abi": [
    {
      "constant": true,
      "inputs": [],
      "name": "duration",
      "outputs": [
        {
          "name": "",
          "type": "uint256"
        }
      ],
      "payable": false,
      "stateMutability": "view",
      "type": "function"
    },
    {
      "constant": true,
      "inputs": [],
      "name": "multiplier",
      "outputs": [
        {
          "name": "",
          "type": "uint256"
        }
      ],
      "payable": false,
      "stateMutability": "view",
      "type": "function"
    },
    {
      "constant": true,
      "inputs": [
        {
          "name": "",
          "type": "uint256"
        }
      ],
      "name": "short_tokens",
      "outputs": [
        {
          "name": "",
          "type": "address"
        }
      ],
      "payable": false,
      "stateMutability": "view",
      "type": "function"
    },
    {
      "constant": true,
      "inputs": [
        {
          "name": "",
          "type": "uint256"
        }
      ],
      "name": "contracts",
      "outputs": [
        {
          "name": "",
          "type": "address"
        }
      ],
      "payable": false,
      "stateMutability": "view",
      "type": "function"
    },
    {
      "constant": true,
      "inputs": [
        {
          "name": "",
          "type": "address"
        }
      ],
      "name": "created_contracts",
      "outputs": [
        {
          "name": "",
          "type": "uint256"
        }
      ],
      "payable": false,
      "stateMutability": "view",
      "type": "function"
    },
    {
      "constant": true,
      "inputs": [
        {
          "name": "",
          "type": "address"
        }
      ],
      "name": "token_type",
      "outputs": [
        {
          "name": "",
          "type": "uint256"
        }
      ],
      "payable": false,
      "stateMutability": "view",
      "type": "function"
    },
    {
      "constant": true,
      "inputs": [],
      "name": "swapFee",
      "outputs": [
        {
          "name": "",
          "type": "uint256"
        }
      ],
      "payable": false,
      "stateMutability": "view",
      "type": "function"
    },
    {
      "constant": true,
      "inputs": [],
      "name": "token_ratio",
      "outputs": [
        {
          "name": "",
          "type": "uint256"
        }
      ],
      "payable": false,
      "stateMutability": "view",
      "type": "function"
    },
    {
      "constant": true,
      "inputs": [],
      "name": "oracle_address",
      "outputs": [
        {
          "name": "",
          "type": "address"
        }
      ],
      "payable": false,
      "stateMutability": "view",
      "type": "function"
    },
    {
      "constant": true,
      "inputs": [],
      "name": "owner",
      "outputs": [
        {
          "name": "",
          "type": "address"
        }
      ],
      "payable": false,
      "stateMutability": "view",
      "type": "function"
    },
    {
      "constant": true,
      "inputs": [
        {
          "name": "",
          "type": "uint256"
        }
      ],
      "name": "startDates",
      "outputs": [
        {
          "name": "",
          "type": "uint256"
        }
      ],
      "payable": false,
      "stateMutability": "view",
      "type": "function"
    },
    {
      "constant": true,
      "inputs": [],
      "name": "memberContract",
      "outputs": [
        {
          "name": "",
          "type": "address"
        }
      ],
      "payable": false,
      "stateMutability": "view",
      "type": "function"
    },
    {
      "constant": true,
      "inputs": [
        {
          "name": "",
          "type": "address"
        }
      ],
      "name": "token_dates",
      "outputs": [
        {
          "name": "",
          "type": "uint256"
        }
      ],
      "payable": false,
      "stateMutability": "view",
      "type": "function"
    },
    {
      "constant": true,
      "inputs": [],
      "name": "user_contract",
      "outputs": [
        {
          "name": "",
          "type": "address"
        }
      ],
      "payable": false,
      "stateMutability": "view",
      "type": "function"
    },
    {
      "constant": true,
      "inputs": [
        {
          "name": "",
          "type": "uint256"
        }
      ],
      "name": "long_tokens",
      "outputs": [
        {
          "name": "",
          "type": "address"
        }
      ],
      "payable": false,
      "stateMutability": "view",
      "type": "function"
    },
    {
      "constant": true,
      "inputs": [],
      "name": "fee",
      "outputs": [
        {
          "name": "",
          "type": "uint256"
        }
      ],
      "payable": false,
      "stateMutability": "view",
      "type": "function"
    },
    {
      "constant": true,
      "inputs": [],
      "name": "token",
      "outputs": [
        {
          "name": "",
          "type": "address"
        }
      ],
      "payable": false,
      "stateMutability": "view",
      "type": "function"
    },
    {
      "inputs": [],
      "payable": false,
      "stateMutability": "nonpayable",
      "type": "constructor"
    },
    {
      "payable": true,
      "stateMutability": "payable",
      "type": "fallback"
    },
    {
      "anonymous": false,
      "inputs": [
        {
          "indexed": false,
          "name": "_sender",
          "type": "address"
        },
        {
          "indexed": false,
          "name": "_created",
          "type": "address"
        }
      ],
      "name": "ContractCreation",
      "type": "event"
    },
    {
      "constant": false,
      "inputs": [
        {
          "name": "_owner",
          "type": "address"
        }
      ],
      "name": "init",
      "outputs": [],
      "payable": false,
      "stateMutability": "nonpayable",
      "type": "function"
    },
    {
      "constant": false,
      "inputs": [
        {
          "name": "_memberContract",
          "type": "address"
        }
      ],
      "name": "setMemberContract",
      "outputs": [],
      "payable": false,
      "stateMutability": "nonpayable",
      "type": "function"
    },
    {
      "constant": false,
      "inputs": [
        {
          "name": "_memberTypes",
          "type": "uint256[]"
        }
      ],
      "name": "setWhitelistedMemberTypes",
      "outputs": [],
      "payable": false,
      "stateMutability": "nonpayable",
      "type": "function"
    },
    {
      "constant": true,
      "inputs": [
        {
          "name": "_member",
          "type": "address"
        }
      ],
      "name": "isWhitelisted",
      "outputs": [
        {
          "name": "",
          "type": "bool"
        }
      ],
      "payable": false,
      "stateMutability": "view",
      "type": "function"
    },
    {
      "constant": true,
      "inputs": [
        {
          "name": "_date",
          "type": "uint256"
        }
      ],
      "name": "getTokens",
      "outputs": [
        {
          "name": "",
          "type": "address"
        },
        {
          "name": "",
          "type": "address"
        }
      ],
      "payable": false,
      "stateMutability": "view",
      "type": "function"
    },
    {
      "constant": false,
      "inputs": [
        {
          "name": "_fee",
          "type": "uint256"
        }
      ],
      "name": "setFee",
      "outputs": [],
      "payable": false,
      "stateMutability": "nonpayable",
      "type": "function"
    },
    {
      "constant": false,
      "inputs": [
        {
          "name": "_swapFee",
          "type": "uint256"
        }
      ],
      "name": "setSwapFee",
      "outputs": [],
      "payable": false,
      "stateMutability": "nonpayable",
      "type": "function"
    },
    {
      "constant": false,
      "inputs": [
        {
          "name": "_deployer",
          "type": "address"
        }
      ],
      "name": "setDeployer",
      "outputs": [],
      "payable": false,
      "stateMutability": "nonpayable",
      "type": "function"
    },
    {
      "constant": false,
      "inputs": [
        {
          "name": "_userContract",
          "type": "address"
        }
      ],
      "name": "setUserContract",
      "outputs": [],
      "payable": false,
      "stateMutability": "nonpayable",
      "type": "function"
    },
    {
      "constant": false,
      "inputs": [
        {
          "name": "_token_ratio",
          "type": "uint256"
        },
        {
          "name": "_duration",
          "type": "uint256"
        },
        {
          "name": "_multiplier",
          "type": "uint256"
        },
        {
          "name": "_swapFee",
          "type": "uint256"
        }
      ],
      "name": "setVariables",
      "outputs": [],
      "payable": false,
      "stateMutability": "nonpayable",
      "type": "function"
    },
    {
      "constant": false,
      "inputs": [
        {
          "name": "_token",
          "type": "address"
        }
      ],
      "name": "setBaseToken",
      "outputs": [],
      "payable": false,
      "stateMutability": "nonpayable",
      "type": "function"
    },
    {
      "constant": false,
      "inputs": [
        {
          "name": "_start_date",
          "type": "uint256"
        }
      ],
      "name": "deployContract",
      "outputs": [
        {
          "name": "",
          "type": "address"
        }
      ],
      "payable": true,
      "stateMutability": "payable",
      "type": "function"
    },
    {
      "constant": false,
      "inputs": [
        {
          "name": "_start_date",
          "type": "uint256"
        }
      ],
      "name": "deployTokenContract",
      "outputs": [],
      "payable": false,
      "stateMutability": "nonpayable",
      "type": "function"
    },
    {
      "constant": false,
      "inputs": [
        {
          "name": "_supply",
          "type": "uint256"
        },
        {
          "name": "_party",
          "type": "address"
        },
        {
          "name": "_start_date",
          "type": "uint256"
        }
      ],
      "name": "createToken",
      "outputs": [
        {
          "name": "",
          "type": "address"
        },
        {
          "name": "",
          "type": "address"
        },
        {
          "name": "",
          "type": "uint256"
        }
      ],
      "payable": false,
      "stateMutability": "nonpayable",
      "type": "function"
    },
    {
      "constant": false,
      "inputs": [
        {
          "name": "_new_oracle_address",
          "type": "address"
        }
      ],
      "name": "setOracleAddress",
      "outputs": [],
      "payable": false,
      "stateMutability": "nonpayable",
      "type": "function"
    },
    {
      "constant": false,
      "inputs": [
        {
          "name": "_new_owner",
          "type": "address"
        }
      ],
      "name": "setOwner",
      "outputs": [],
      "payable": false,
      "stateMutability": "nonpayable",
      "type": "function"
    },
    {
      "constant": false,
      "inputs": [],
      "name": "withdrawFees",
      "outputs": [],
      "payable": false,
      "stateMutability": "nonpayable",
      "type": "function"
    },
    {
      "constant": true,
      "inputs": [],
      "name": "getVariables",
      "outputs": [
        {
          "name": "",
          "type": "address"
        },
        {
          "name": "",
          "type": "uint256"
        },
        {
          "name": "",
          "type": "uint256"
        },
        {
          "name": "",
          "type": "address"
        },
        {
          "name": "",
          "type": "uint256"
        }
      ],
      "payable": false,
      "stateMutability": "view",
      "type": "function"
    },
    {
      "constant": false,
      "inputs": [
        {
          "name": "_party",
          "type": "address"
        },
        {
          "name": "_token_add",
          "type": "address"
        }
      ],
      "name": "payToken",
      "outputs": [],
      "payable": false,
      "stateMutability": "nonpayable",
      "type": "function"
    },
    {
      "constant": true,
      "inputs": [],
      "name": "getCount",
      "outputs": [
        {
          "name": "",
          "type": "uint256"
        }
      ],
      "payable": false,
      "stateMutability": "view",
      "type": "function"
    },
    {
      "constant": true,
      "inputs": [],
      "name": "getDateCount",
      "outputs": [
        {
          "name": "",
          "type": "uint256"
        }
      ],
      "payable": false,
      "stateMutability": "view",
      "type": "function"
    }
  ],
  "bytecode": "0x608060405234801561001057600080fd5b50336000806101000a81548173ffffffffffffffffffffffffffffffffffffffff021916908373ffffffffffffffffffffffffffffffffffffffff1602179055506138ec806100606000396000f3006080604052600436106101d8576000357c0100000000000000000000000000000000000000000000000000000000900463ffffffff1680630e2b75cc146101da5780630f90b83a146102405780630fb5a6b41461026d57806313af40351461029857806316bb6c13146102db57806319ab453c1461031e5780631b3ed722146103615780631cf41a811461038c5780632a7292d0146103ec578063316b13b4146104bd57806331fa76db1461050057806334e199071461056d5780633af32abf1461059a578063474da79a146105f5578063476343ee146106625780634c69c00f146106795780634efb04ff146106bc57806351abf0de1461071357806354cf2aeb1461076a5780635c5991d41461079557806369fe0e2d146107c05780637e0c1792146107ed5780638da5cb5b1461084457806394aef0221461089b578063962147351461093a578063a1206d4e1461097d578063a55e9370146109c0578063a87d942c146109eb578063b266c66114610a16578063c40cf4eb14610a57578063c88b721914610aae578063d3749a1514610b05578063d3c9cc2614610b5c578063dc54d91914610bfc578063ddca3f4314610c69578063ecb1451914610c94578063f497463a14610cf7578063fc0c546a14610d42575b005b3480156101e657600080fd5b5061023e60048036038101908080359060200190820180359060200190808060200260200160405190810160405280939291908181526020018383602002808284378201915050505050509192919290505050610d99565b005b34801561024c57600080fd5b5061026b60048036038101908080359060200190929190505050610e84565b005b34801561027957600080fd5b50610282611193565b6040518082815260200191505060405180910390f35b3480156102a457600080fd5b506102d9600480360381019080803573ffffffffffffffffffffffffffffffffffffffff169060200190929190505050611199565b005b3480156102e757600080fd5b5061031c600480360381019080803573ffffffffffffffffffffffffffffffffffffffff169060200190929190505050611237565b005b34801561032a57600080fd5b5061035f600480360381019080803573ffffffffffffffffffffffffffffffffffffffff1690602001909291905050506112d6565b005b34801561036d57600080fd5b50610376611375565b6040518082815260200191505060405180910390f35b6103aa6004803603810190808035906020019092919050505061137b565b604051808273ffffffffffffffffffffffffffffffffffffffff1673ffffffffffffffffffffffffffffffffffffffff16815260200191505060405180910390f35b3480156103f857600080fd5b5061044160048036038101908080359060200190929190803573ffffffffffffffffffffffffffffffffffffffff1690602001909291908035906020019092919050505061165f565b604051808473ffffffffffffffffffffffffffffffffffffffff1673ffffffffffffffffffffffffffffffffffffffff1681526020018373ffffffffffffffffffffffffffffffffffffffff1673ffffffffffffffffffffffffffffffffffffffff168152602001828152602001935050505060405180910390f35b3480156104c957600080fd5b506104fe600480360381019080803573ffffffffffffffffffffffffffffffffffffffff169060200190929190505050611a43565b005b34801561050c57600080fd5b5061052b60048036038101908080359060200190929190505050611ae2565b604051808273ffffffffffffffffffffffffffffffffffffffff1673ffffffffffffffffffffffffffffffffffffffff16815260200191505060405180910390f35b34801561057957600080fd5b5061059860048036038101908080359060200190929190505050611b15565b005b3480156105a657600080fd5b506105db600480360381019080803573ffffffffffffffffffffffffffffffffffffffff169060200190929190505050611b7a565b604051808215151515815260200191505060405180910390f35b34801561060157600080fd5b5061062060048036038101908080359060200190929190505050611ca0565b604051808273ffffffffffffffffffffffffffffffffffffffff1673ffffffffffffffffffffffffffffffffffffffff16815260200191505060405180910390f35b34801561066e57600080fd5b50610677611cde565b005b34801561068557600080fd5b506106ba600480360381019080803573ffffffffffffffffffffffffffffffffffffffff169060200190929190505050611f4d565b005b3480156106c857600080fd5b506106fd600480360381019080803573ffffffffffffffffffffffffffffffffffffffff169060200190929190505050611fec565b6040518082815260200191505060405180910390f35b34801561071f57600080fd5b50610754600480360381019080803573ffffffffffffffffffffffffffffffffffffffff169060200190929190505050612004565b6040518082815260200191505060405180910390f35b34801561077657600080fd5b5061077f61201c565b6040518082815260200191505060405180910390f35b3480156107a157600080fd5b506107aa612022565b6040518082815260200191505060405180910390f35b3480156107cc57600080fd5b506107eb60048036038101908080359060200190929190505050612028565b005b3480156107f957600080fd5b5061080261208d565b604051808273ffffffffffffffffffffffffffffffffffffffff1673ffffffffffffffffffffffffffffffffffffffff16815260200191505060405180910390f35b34801561085057600080fd5b506108596120b3565b604051808273ffffffffffffffffffffffffffffffffffffffff1673ffffffffffffffffffffffffffffffffffffffff16815260200191505060405180910390f35b3480156108a757600080fd5b506108b06120d8565b604051808673ffffffffffffffffffffffffffffffffffffffff1673ffffffffffffffffffffffffffffffffffffffff1681526020018581526020018481526020018373ffffffffffffffffffffffffffffffffffffffff1673ffffffffffffffffffffffffffffffffffffffff1681526020018281526020019550505050505060405180910390f35b34801561094657600080fd5b5061097b600480360381019080803573ffffffffffffffffffffffffffffffffffffffff169060200190929190505050612140565b005b34801561098957600080fd5b506109be600480360381019080803573ffffffffffffffffffffffffffffffffffffffff169060200190929190505050612220565b005b3480156109cc57600080fd5b506109d56122bf565b6040518082815260200191505060405180910390f35b3480156109f757600080fd5b50610a006122cc565b6040518082815260200191505060405180910390f35b348015610a2257600080fd5b50610a41600480360381019080803590602001909291905050506122d9565b6040518082815260200191505060405180910390f35b348015610a6357600080fd5b50610a6c6122fc565b604051808273ffffffffffffffffffffffffffffffffffffffff1673ffffffffffffffffffffffffffffffffffffffff16815260200191505060405180910390f35b348015610aba57600080fd5b50610aef600480360381019080803573ffffffffffffffffffffffffffffffffffffffff169060200190929190505050612322565b6040518082815260200191505060405180910390f35b348015610b1157600080fd5b50610b1a61233a565b604051808273ffffffffffffffffffffffffffffffffffffffff1673ffffffffffffffffffffffffffffffffffffffff16815260200191505060405180910390f35b348015610b6857600080fd5b50610b8760048036038101908080359060200190929190505050612360565b604051808373ffffffffffffffffffffffffffffffffffffffff1673ffffffffffffffffffffffffffffffffffffffff1681526020018273ffffffffffffffffffffffffffffffffffffffff1673ffffffffffffffffffffffffffffffffffffffff1681526020019250505060405180910390f35b348015610c0857600080fd5b50610c27600480360381019080803590602001909291905050506123d4565b604051808273ffffffffffffffffffffffffffffffffffffffff1673ffffffffffffffffffffffffffffffffffffffff16815260200191505060405180910390f35b348015610c7557600080fd5b50610c7e612407565b6040518082815260200191505060405180910390f35b348015610ca057600080fd5b50610cf5600480360381019080803573ffffffffffffffffffffffffffffffffffffffff169060200190929190803573ffffffffffffffffffffffffffffffffffffffff16906020019092919050505061240d565b005b348015610d0357600080fd5b50610d406004803603810190808035906020019092919080359060200190929190803590602001909291908035906020019092919050505061254b565b005b348015610d4e57600080fd5b50610d576125d8565b604051808273ffffffffffffffffffffffffffffffffffffffff1673ffffffffffffffffffffffffffffffffffffffff16815260200191505060405180910390f35b60008060009054906101000a900473ffffffffffffffffffffffffffffffffffffffff1673ffffffffffffffffffffffffffffffffffffffff163373ffffffffffffffffffffffffffffffffffffffff16141515610df657600080fd5b6000600e600080815260200190815260200160002060006101000a81548160ff021916908315150217905550600090505b8151811015610e80576001600e60008484815181101515610e4457fe5b90602001906020020151815260200190815260200160002060006101000a81548160ff0219169083151502179055508080600101915050610e27565b5050565b6000806201518083811515610e9557fe5b06141515610ea257600080fd5b600073ffffffffffffffffffffffffffffffffffffffff166011600084815260200190815260200160002060009054906101000a900473ffffffffffffffffffffffffffffffffffffffff1673ffffffffffffffffffffffffffffffffffffffff16148015610f705750600073ffffffffffffffffffffffffffffffffffffffff166012600084815260200190815260200160002060009054906101000a900473ffffffffffffffffffffffffffffffffffffffff1673ffffffffffffffffffffffffffffffffffffffff16145b1515610f7b57600080fd5b30610f84612619565b808273ffffffffffffffffffffffffffffffffffffffff1673ffffffffffffffffffffffffffffffffffffffff168152602001915050604051809103906000f080158015610fd6573d6000803e3d6000fd5b50905081601060008373ffffffffffffffffffffffffffffffffffffffff1673ffffffffffffffffffffffffffffffffffffffff16815260200190815260200160002081905550806011600084815260200190815260200160002060006101000a81548173ffffffffffffffffffffffffffffffffffffffff021916908373ffffffffffffffffffffffffffffffffffffffff16021790555030611078612619565b808273ffffffffffffffffffffffffffffffffffffffff1673ffffffffffffffffffffffffffffffffffffffff168152602001915050604051809103906000f0801580156110ca573d6000803e3d6000fd5b509050806012600084815260200190815260200160002060006101000a81548173ffffffffffffffffffffffffffffffffffffffff021916908373ffffffffffffffffffffffffffffffffffffffff16021790555081601060008373ffffffffffffffffffffffffffffffffffffffff1673ffffffffffffffffffffffffffffffffffffffff16815260200190815260200160002081905550600c8290806001815401808255809150509060018203906000526020600020016000909192909190915055505050565b60085481565b6000809054906101000a900473ffffffffffffffffffffffffffffffffffffffff1673ffffffffffffffffffffffffffffffffffffffff163373ffffffffffffffffffffffffffffffffffffffff161415156111f457600080fd5b806000806101000a81548173ffffffffffffffffffffffffffffffffffffffff021916908373ffffffffffffffffffffffffffffffffffffffff16021790555050565b6000809054906101000a900473ffffffffffffffffffffffffffffffffffffffff1673ffffffffffffffffffffffffffffffffffffffff163373ffffffffffffffffffffffffffffffffffffffff1614151561129257600080fd5b80600560006101000a81548173ffffffffffffffffffffffffffffffffffffffff021916908373ffffffffffffffffffffffffffffffffffffffff16021790555050565b600073ffffffffffffffffffffffffffffffffffffffff166000809054906101000a900473ffffffffffffffffffffffffffffffffffffffff1673ffffffffffffffffffffffffffffffffffffffff1614151561133257600080fd5b806000806101000a81548173ffffffffffffffffffffffffffffffffffffffff021916908373ffffffffffffffffffffffffffffffffffffffff16021790555050565b60095481565b6000806006543410158015611395575061139433611b7a565b5b15156113a057600080fd5b600062015180848115156113b057fe5b061415156113bd57600080fd5b600460009054906101000a900473ffffffffffffffffffffffffffffffffffffffff1673ffffffffffffffffffffffffffffffffffffffff1663548dd51e33600260009054906101000a900473ffffffffffffffffffffffffffffffffffffffff16866040518463ffffffff167c0100000000000000000000000000000000000000000000000000000000028152600401808473ffffffffffffffffffffffffffffffffffffffff1673ffffffffffffffffffffffffffffffffffffffff1681526020018373ffffffffffffffffffffffffffffffffffffffff1673ffffffffffffffffffffffffffffffffffffffff1681526020018281526020019350505050602060405180830381600087803b1580156114d857600080fd5b505af11580156114ec573d6000803e3d6000fd5b505050506040513d602081101561150257600080fd5b81019080805190602001909291905050509050600b8190806001815401808255809150509060018203906000526020600020016000909192909190916101000a81548173ffffffffffffffffffffffffffffffffffffffff021916908373ffffffffffffffffffffffffffffffffffffffff1602179055505082600f60008373ffffffffffffffffffffffffffffffffffffffff1673ffffffffffffffffffffffffffffffffffffffff168152602001908152602001600020819055507fb6c9f70724e4ce6b9bca2eace320dd3164063f0a0b229f8c4705ef05be829c253382604051808373ffffffffffffffffffffffffffffffffffffffff1673ffffffffffffffffffffffffffffffffffffffff1681526020018273ffffffffffffffffffffffffffffffffffffffff1673ffffffffffffffffffffffffffffffffffffffff1681526020019250505060405180910390a180915050919050565b60008060008060008086600f60003373ffffffffffffffffffffffffffffffffffffffff1673ffffffffffffffffffffffffffffffffffffffff168152602001908152602001600020541415156116b557600080fd5b6011600088815260200190815260200160002060009054906101000a900473ffffffffffffffffffffffffffffffffffffffff1692506002601360008573ffffffffffffffffffffffffffffffffffffffff1673ffffffffffffffffffffffffffffffffffffffff168152602001908152602001600020819055506012600088815260200190815260200160002060009054906101000a900473ffffffffffffffffffffffffffffffffffffffff1691506001601360008473ffffffffffffffffffffffffffffffffffffffff1673ffffffffffffffffffffffffffffffffffffffff16815260200190815260200160002081905550600073ffffffffffffffffffffffffffffffffffffffff168373ffffffffffffffffffffffffffffffffffffffff16141580156118155750600073ffffffffffffffffffffffffffffffffffffffff168273ffffffffffffffffffffffffffffffffffffffff1614155b151561182057600080fd5b8290508073ffffffffffffffffffffffffffffffffffffffff1663e6ed51b7611854600a548c6125fe90919063ffffffff16565b8a336040518463ffffffff167c0100000000000000000000000000000000000000000000000000000000028152600401808481526020018373ffffffffffffffffffffffffffffffffffffffff1673ffffffffffffffffffffffffffffffffffffffff1681526020018273ffffffffffffffffffffffffffffffffffffffff1673ffffffffffffffffffffffffffffffffffffffff1681526020019350505050600060405180830381600087803b15801561190e57600080fd5b505af1158015611922573d6000803e3d6000fd5b505050508190508073ffffffffffffffffffffffffffffffffffffffff1663e6ed51b761195a600a548c6125fe90919063ffffffff16565b8a336040518463ffffffff167c0100000000000000000000000000000000000000000000000000000000028152600401808481526020018373ffffffffffffffffffffffffffffffffffffffff1673ffffffffffffffffffffffffffffffffffffffff1681526020018273ffffffffffffffffffffffffffffffffffffffff1673ffffffffffffffffffffffffffffffffffffffff1681526020019350505050600060405180830381600087803b158015611a1457600080fd5b505af1158015611a28573d6000803e3d6000fd5b505050508282600a5495509550955050505093509350939050565b6000809054906101000a900473ffffffffffffffffffffffffffffffffffffffff1673ffffffffffffffffffffffffffffffffffffffff163373ffffffffffffffffffffffffffffffffffffffff16141515611a9e57600080fd5b80600d60006101000a81548173ffffffffffffffffffffffffffffffffffffffff021916908373ffffffffffffffffffffffffffffffffffffffff16021790555050565b60126020528060005260406000206000915054906101000a900473ffffffffffffffffffffffffffffffffffffffff1681565b6000809054906101000a900473ffffffffffffffffffffffffffffffffffffffff1673ffffffffffffffffffffffffffffffffffffffff163373ffffffffffffffffffffffffffffffffffffffff16141515611b7057600080fd5b8060078190555050565b600080600d60009054906101000a900473ffffffffffffffffffffffffffffffffffffffff169050600e60008273ffffffffffffffffffffffffffffffffffffffff1663b5b7916b866040518263ffffffff167c0100000000000000000000000000000000000000000000000000000000028152600401808273ffffffffffffffffffffffffffffffffffffffff1673ffffffffffffffffffffffffffffffffffffffff168152602001915050602060405180830381600087803b158015611c4157600080fd5b505af1158015611c55573d6000803e3d6000fd5b505050506040513d6020811015611c6b57600080fd5b8101908080519060200190929190505050815260200190815260200160002060009054906101000a900460ff16915050919050565b600b81815481101515611caf57fe5b906000526020600020016000915054906101000a900473ffffffffffffffffffffffffffffffffffffffff1681565b6000806000809054906101000a900473ffffffffffffffffffffffffffffffffffffffff1673ffffffffffffffffffffffffffffffffffffffff163373ffffffffffffffffffffffffffffffffffffffff16141515611d3c57600080fd5b600560009054906101000a900473ffffffffffffffffffffffffffffffffffffffff1691508173ffffffffffffffffffffffffffffffffffffffff166370a08231306040518263ffffffff167c0100000000000000000000000000000000000000000000000000000000028152600401808273ffffffffffffffffffffffffffffffffffffffff1673ffffffffffffffffffffffffffffffffffffffff168152602001915050602060405180830381600087803b158015611dfc57600080fd5b505af1158015611e10573d6000803e3d6000fd5b505050506040513d6020811015611e2657600080fd5b810190808051906020019092919050505090506000811115611eca578173ffffffffffffffffffffffffffffffffffffffff16632e1a7d4d826040518263ffffffff167c010000000000000000000000000000000000000000000000000000000002815260040180828152602001915050600060405180830381600087803b158015611eb157600080fd5b505af1158015611ec5573d6000803e3d6000fd5b505050505b6000809054906101000a900473ffffffffffffffffffffffffffffffffffffffff1673ffffffffffffffffffffffffffffffffffffffff166108fc3073ffffffffffffffffffffffffffffffffffffffff16319081150290604051600060405180830381858888f19350505050158015611f48573d6000803e3d6000fd5b505050565b6000809054906101000a900473ffffffffffffffffffffffffffffffffffffffff1673ffffffffffffffffffffffffffffffffffffffff163373ffffffffffffffffffffffffffffffffffffffff16141515611fa857600080fd5b80600160006101000a81548173ffffffffffffffffffffffffffffffffffffffff021916908373ffffffffffffffffffffffffffffffffffffffff16021790555050565b600f6020528060005260406000206000915090505481565b60136020528060005260406000206000915090505481565b60075481565b600a5481565b6000809054906101000a900473ffffffffffffffffffffffffffffffffffffffff1673ffffffffffffffffffffffffffffffffffffffff163373ffffffffffffffffffffffffffffffffffffffff1614151561208357600080fd5b8060068190555050565b600160009054906101000a900473ffffffffffffffffffffffffffffffffffffffff1681565b6000809054906101000a900473ffffffffffffffffffffffffffffffffffffffff1681565b6000806000806000600160009054906101000a900473ffffffffffffffffffffffffffffffffffffffff16600854600954600560009054906101000a900473ffffffffffffffffffffffffffffffffffffffff16600754945094509450945094509091929394565b6000809054906101000a900473ffffffffffffffffffffffffffffffffffffffff1673ffffffffffffffffffffffffffffffffffffffff163373ffffffffffffffffffffffffffffffffffffffff1614151561219b57600080fd5b80600360006101000a81548173ffffffffffffffffffffffffffffffffffffffff021916908373ffffffffffffffffffffffffffffffffffffffff16021790555080600460006101000a81548173ffffffffffffffffffffffffffffffffffffffff021916908373ffffffffffffffffffffffffffffffffffffffff16021790555050565b6000809054906101000a900473ffffffffffffffffffffffffffffffffffffffff1673ffffffffffffffffffffffffffffffffffffffff163373ffffffffffffffffffffffffffffffffffffffff1614151561227b57600080fd5b80600260006101000a81548173ffffffffffffffffffffffffffffffffffffffff021916908373ffffffffffffffffffffffffffffffffffffffff16021790555050565b6000600c80549050905090565b6000600b80549050905090565b600c818154811015156122e857fe5b906000526020600020016000915090505481565b600d60009054906101000a900473ffffffffffffffffffffffffffffffffffffffff1681565b60106020528060005260406000206000915090505481565b600260009054906101000a900473ffffffffffffffffffffffffffffffffffffffff1681565b6000806011600084815260200190815260200160002060009054906101000a900473ffffffffffffffffffffffffffffffffffffffff166012600085815260200190815260200160002060009054906101000a900473ffffffffffffffffffffffffffffffffffffffff1691509150915091565b60116020528060005260406000206000915054906101000a900473ffffffffffffffffffffffffffffffffffffffff1681565b60065481565b600080600f60003373ffffffffffffffffffffffffffffffffffffffff1673ffffffffffffffffffffffffffffffffffffffff1681526020019081526020016000205411151561245c57600080fd5b8190508073ffffffffffffffffffffffffffffffffffffffff1663bd0af85d84336040518363ffffffff167c0100000000000000000000000000000000000000000000000000000000028152600401808373ffffffffffffffffffffffffffffffffffffffff1673ffffffffffffffffffffffffffffffffffffffff1681526020018273ffffffffffffffffffffffffffffffffffffffff1673ffffffffffffffffffffffffffffffffffffffff16815260200192505050600060405180830381600087803b15801561252e57600080fd5b505af1158015612542573d6000803e3d6000fd5b50505050505050565b6000809054906101000a900473ffffffffffffffffffffffffffffffffffffffff1673ffffffffffffffffffffffffffffffffffffffff163373ffffffffffffffffffffffffffffffffffffffff161415156125a657600080fd5b612710811015156125b657600080fd5b83600a8190555082600881905550816009819055508060078190555050505050565b600560009054906101000a900473ffffffffffffffffffffffffffffffffffffffff1681565b600080828481151561260c57fe5b0490508091505092915050565b6040516112978061262a833901905600608060405234801561001057600080fd5b5060405160208061129783398101806040528101908080519060200190929190505050600073__DRCTLibrary___________________________63ad4848d29091836040518363ffffffff167c0100000000000000000000000000000000000000000000000000000000028152600401808381526020018273ffffffffffffffffffffffffffffffffffffffff1673ffffffffffffffffffffffffffffffffffffffff1681526020019250505060006040518083038186803b1580156100d557600080fd5b505af41580156100e9573d6000803e3d6000fd5b505050505061119a806100fd6000396000f3006080604052600436106100c5576000357c0100000000000000000000000000000000000000000000000000000000900463ffffffff168063095ea7b3146100ca578063174dcea81461012f57806318160ddd146101c357806323b872dd146101ee57806370a08231146102735780638811a0ae146102ca5780638dfda5ae14610321578063a7c3230a14610398578063a9059cbb146103f6578063a9c2e36c1461045b578063bd0af85d146104b2578063dd62ed3e14610515578063e6ed51b71461058c575b600080fd5b3480156100d657600080fd5b50610115600480360381019080803573ffffffffffffffffffffffffffffffffffffffff169060200190929190803590602001909291905050506105f9565b604051808215151515815260200191505060405180910390f35b34801561013b57600080fd5b5061017a60048036038101908080359060200190929190803573ffffffffffffffffffffffffffffffffffffffff1690602001909291905050506106e7565b604051808381526020018273ffffffffffffffffffffffffffffffffffffffff1673ffffffffffffffffffffffffffffffffffffffff1681526020019250505060405180910390f35b3480156101cf57600080fd5b506101d86107e3565b6040518082815260200191505060405180910390f35b3480156101fa57600080fd5b50610259600480360381019080803573ffffffffffffffffffffffffffffffffffffffff169060200190929190803573ffffffffffffffffffffffffffffffffffffffff16906020019092919080359060200190929190505050610892565b604051808215151515815260200191505060405180910390f35b34801561027f57600080fd5b506102b4600480360381019080803573ffffffffffffffffffffffffffffffffffffffff1690602001909291905050506109b5565b6040518082815260200191505060405180910390f35b3480156102d657600080fd5b5061030b600480360381019080803573ffffffffffffffffffffffffffffffffffffffff169060200190929190505050610a9a565b6040518082815260200191505060405180910390f35b34801561032d57600080fd5b50610382600480360381019080803573ffffffffffffffffffffffffffffffffffffffff169060200190929190803573ffffffffffffffffffffffffffffffffffffffff169060200190929190505050610b7f565b6040518082815260200191505060405180910390f35b3480156103a457600080fd5b506103ad610c99565b604051808373ffffffffffffffffffffffffffffffffffffffff1673ffffffffffffffffffffffffffffffffffffffff1681526020018281526020019250505060405180910390f35b34801561040257600080fd5b50610441600480360381019080803573ffffffffffffffffffffffffffffffffffffffff16906020019092919080359060200190929190505050610ccb565b604051808215151515815260200191505060405180910390f35b34801561046757600080fd5b50610470610db9565b604051808273ffffffffffffffffffffffffffffffffffffffff1673ffffffffffffffffffffffffffffffffffffffff16815260200191505060405180910390f35b3480156104be57600080fd5b50610513600480360381019080803573ffffffffffffffffffffffffffffffffffffffff169060200190929190803573ffffffffffffffffffffffffffffffffffffffff169060200190929190505050610e67565b005b34801561052157600080fd5b50610576600480360381019080803573ffffffffffffffffffffffffffffffffffffffff169060200190929190803573ffffffffffffffffffffffffffffffffffffffff169060200190929190505050610f59565b6040518082815260200191505060405180910390f35b34801561059857600080fd5b506105f760048036038101908080359060200190929190803573ffffffffffffffffffffffffffffffffffffffff169060200190929190803573ffffffffffffffffffffffffffffffffffffffff169060200190929190505050611073565b005b60008073__DRCTLibrary___________________________634538d2c6909185856040518463ffffffff167c0100000000000000000000000000000000000000000000000000000000028152600401808481526020018373ffffffffffffffffffffffffffffffffffffffff1673ffffffffffffffffffffffffffffffffffffffff168152602001828152602001935050505060206040518083038186803b1580156106a457600080fd5b505af41580156106b8573d6000803e3d6000fd5b505050506040513d60208110156106ce57600080fd5b8101908080519060200190929190505050905092915050565b600080600073__DRCTLibrary___________________________6334aeb164909186866040518463ffffffff167c0100000000000000000000000000000000000000000000000000000000028152600401808481526020018381526020018273ffffffffffffffffffffffffffffffffffffffff1673ffffffffffffffffffffffffffffffffffffffff1681526020019350505050604080518083038186803b15801561079357600080fd5b505af41580156107a7573d6000803e3d6000fd5b505050506040513d60408110156107bd57600080fd5b810190808051906020019092919080519060200190929190505050915091509250929050565b60008073__DRCTLibrary___________________________63d973df8690916040518263ffffffff167c01000000000000000000000000000000000000000000000000000000000281526004018082815260200191505060206040518083038186803b15801561085257600080fd5b505af4158015610866573d6000803e3d6000fd5b505050506040513d602081101561087c57600080fd5b8101908080519060200190929190505050905090565b60008073__DRCTLibrary___________________________632eff549c90918686866040518563ffffffff167c0100000000000000000000000000000000000000000000000000000000028152600401808581526020018473ffffffffffffffffffffffffffffffffffffffff1673ffffffffffffffffffffffffffffffffffffffff1681526020018373ffffffffffffffffffffffffffffffffffffffff1673ffffffffffffffffffffffffffffffffffffffff16815260200182815260200194505050505060206040518083038186803b15801561097157600080fd5b505af4158015610985573d6000803e3d6000fd5b505050506040513d602081101561099b57600080fd5b810190808051906020019092919050505090509392505050565b60008073__DRCTLibrary___________________________63e2d643469091846040518363ffffffff167c0100000000000000000000000000000000000000000000000000000000028152600401808381526020018273ffffffffffffffffffffffffffffffffffffffff1673ffffffffffffffffffffffffffffffffffffffff1681526020019250505060206040518083038186803b158015610a5857600080fd5b505af4158015610a6c573d6000803e3d6000fd5b505050506040513d6020811015610a8257600080fd5b81019080805190602001909291905050509050919050565b60008073__DRCTLibrary___________________________632b545c689091846040518363ffffffff167c0100000000000000000000000000000000000000000000000000000000028152600401808381526020018273ffffffffffffffffffffffffffffffffffffffff1673ffffffffffffffffffffffffffffffffffffffff1681526020019250505060206040518083038186803b158015610b3d57600080fd5b505af4158015610b51573d6000803e3d6000fd5b505050506040513d6020811015610b6757600080fd5b81019080805190602001909291905050509050919050565b60008073__DRCTLibrary___________________________63bf435c37909185856040518463ffffffff167c0100000000000000000000000000000000000000000000000000000000028152600401808481526020018373ffffffffffffffffffffffffffffffffffffffff1673ffffffffffffffffffffffffffffffffffffffff1681526020018273ffffffffffffffffffffffffffffffffffffffff1673ffffffffffffffffffffffffffffffffffffffff168152602001935050505060206040518083038186803b158015610c5657600080fd5b505af4158015610c6a573d6000803e3d6000fd5b505050506040513d6020811015610c8057600080fd5b8101908080519060200190929190505050905092915050565b60008060000160009054906101000a900473ffffffffffffffffffffffffffffffffffffffff16908060010154905082565b60008073__DRCTLibrary___________________________63f2b156db909185856040518463ffffffff167c0100000000000000000000000000000000000000000000000000000000028152600401808481526020018373ffffffffffffffffffffffffffffffffffffffff1673ffffffffffffffffffffffffffffffffffffffff168152602001828152602001935050505060206040518083038186803b158015610d7657600080fd5b505af4158015610d8a573d6000803e3d6000fd5b505050506040513d6020811015610da057600080fd5b8101908080519060200190929190505050905092915050565b60008073__DRCTLibrary___________________________63a431b53890916040518263ffffffff167c01000000000000000000000000000000000000000000000000000000000281526004018082815260200191505060206040518083038186803b158015610e2857600080fd5b505af4158015610e3c573d6000803e3d6000fd5b505050506040513d6020811015610e5257600080fd5b81019080805190602001909291905050505090565b600073__DRCTLibrary___________________________63486e5569909184846040518463ffffffff167c0100000000000000000000000000000000000000000000000000000000028152600401808481526020018373ffffffffffffffffffffffffffffffffffffffff1673ffffffffffffffffffffffffffffffffffffffff1681526020018273ffffffffffffffffffffffffffffffffffffffff1673ffffffffffffffffffffffffffffffffffffffff168152602001935050505060006040518083038186803b158015610f3d57600080fd5b505af4158015610f51573d6000803e3d6000fd5b505050505050565b60008073__DRCTLibrary___________________________63b1020f37909185856040518463ffffffff167c0100000000000000000000000000000000000000000000000000000000028152600401808481526020018373ffffffffffffffffffffffffffffffffffffffff1673ffffffffffffffffffffffffffffffffffffffff1681526020018273ffffffffffffffffffffffffffffffffffffffff1673ffffffffffffffffffffffffffffffffffffffff168152602001935050505060206040518083038186803b15801561103057600080fd5b505af4158015611044573d6000803e3d6000fd5b505050506040513d602081101561105a57600080fd5b8101908080519060200190929190505050905092915050565b600073__DRCTLibrary___________________________6326f0385d90918585856040518563ffffffff167c0100000000000000000000000000000000000000000000000000000000028152600401808581526020018481526020018373ffffffffffffffffffffffffffffffffffffffff1673ffffffffffffffffffffffffffffffffffffffff1681526020018273ffffffffffffffffffffffffffffffffffffffff1673ffffffffffffffffffffffffffffffffffffffff16815260200194505050505060006040518083038186803b15801561115157600080fd5b505af4158015611165573d6000803e3d6000fd5b505050505050505600a165627a7a723058208979cbc10243365c10daa3e2b9ca160510d70b7358c946244e556f9df59665930029a165627a7a72305820e96f2d8b0ad91b48ab7b284d1c84ad39076d829092db3ce44c9bb147084c3e030029",
  "source": "pragma solidity ^0.4.24;\r\n\r\nimport \"./interfaces/Deployer_Interface.sol\";\r\nimport \"./DRCT_Token.sol\";\r\nimport \"./libraries/SafeMath.sol\";\r\nimport \"./interfaces/Wrapped_Ether_Interface.sol\";\r\nimport \"./interfaces/Membership_Interface.sol\";\r\n\r\n\r\n/**\r\n*The Factory contract sets the standardized variables and also deploys new contracts based on\r\n*these variables for the user.  \r\n*/\r\ncontract Factory {\r\n    using SafeMath for uint256;\r\n    \r\n    /*Variables*/\r\n    //Addresses of the Factory owner and oracle. For oracle information, \r\n    //check www.github.com/DecentralizedDerivatives/Oracles\r\n    address public owner;\r\n    address public oracle_address;\r\n    //Address of the user contract\r\n    address public user_contract;\r\n    //Address of the deployer contract\r\n    address internal deployer_address;\r\n    Deployer_Interface internal deployer;\r\n    address public token;\r\n    //A fee for creating a swap in wei.  Plan is for this to be zero, however can be raised to prevent spam\r\n    uint public fee;\r\n    //swap fee\r\n    uint public swapFee;\r\n    //Duration of swap contract in days\r\n    uint public duration;\r\n    //Multiplier of reference rate.  2x refers to a 50% move generating a 100% move in the contract payout values\r\n    uint public multiplier;\r\n    //Token_ratio refers to the number of DRCT Tokens a party will get based on the number of base tokens.  As an example, 1e15 indicates that a party will get 1000 DRCT Tokens based upon 1 ether of wrapped wei. \r\n    uint public token_ratio;\r\n    //Array of deployed contracts\r\n    address[] public contracts;\r\n    uint[] public startDates;\r\n    address public memberContract;\r\n    mapping(uint => bool) whitelistedTypes;\r\n    mapping(address => uint) public created_contracts;\r\n    mapping(address => uint) public token_dates;\r\n    mapping(uint => address) public long_tokens;\r\n    mapping(uint => address) public short_tokens;\r\n    mapping(address => uint) public token_type; //1=short 2=long\r\n\r\n    /*Events*/\r\n    //Emitted when a Swap is created\r\n    event ContractCreation(address _sender, address _created);\r\n\r\n    /*Modifiers*/\r\n    modifier onlyOwner() {\r\n        require(msg.sender == owner);\r\n        _;\r\n    }\r\n\r\n    /*Functions*/\r\n    /**\r\n    *@dev Constructor - Sets owner\r\n    */\r\n     constructor() public {\r\n        owner = msg.sender;\r\n    }\r\n\r\n    /**\r\n    *@dev constructor function for cloned factory\r\n    */\r\n    function init(address _owner) public{\r\n        require(owner == address(0));\r\n        owner = _owner;\r\n    }\r\n\r\n    /**\r\n    *@dev Sets the Membership contract address\r\n    *@param _memberContract The new membership address\r\n    */\r\n    function setMemberContract(address _memberContract) public onlyOwner() {\r\n        memberContract = _memberContract;\r\n    }\r\n\r\n    /**\r\n    *@dev Sets the member types/permissions for those whitelisted\r\n    *@param _memberTypes is the list of member types\r\n    */\r\n    function setWhitelistedMemberTypes(uint[] _memberTypes) public onlyOwner(){\r\n        whitelistedTypes[0] = false;\r\n        for(uint i = 0; i<_memberTypes.length;i++){\r\n            whitelistedTypes[_memberTypes[i]] = true;\r\n        }\r\n    }\r\n\r\n    /**\r\n    *@dev Checks the membership type/permissions for whitelisted members\r\n    *@param _member address to get membership type from\r\n    */\r\n    function isWhitelisted(address _member) public view returns (bool){\r\n        Membership_Interface Member = Membership_Interface(memberContract);\r\n        return whitelistedTypes[Member.getMembershipType(_member)];\r\n    }\r\n \r\n    /**\r\n    *@dev Gets long and short token addresses based on specified date\r\n    *@param _date \r\n    *@return short and long tokens' addresses\r\n    */\r\n    function getTokens(uint _date) public view returns(address, address){\r\n        return(long_tokens[_date],short_tokens[_date]);\r\n    }\r\n\r\n    /**\r\n    *@dev Updates the fee amount\r\n    *@param _fee is the new fee amount\r\n    */\r\n    function setFee(uint _fee) public onlyOwner() {\r\n        fee = _fee;\r\n    }\r\n\r\n    /**\r\n    *@dev Updates the swap fee amount\r\n    *@param _swapFee is the new swap fee amount\r\n    */\r\n    function setSwapFee(uint _swapFee) public onlyOwner() {\r\n        swapFee = _swapFee;\r\n    }   \r\n\r\n    /**\r\n    *@dev Sets the deployer address\r\n    *@param _deployer is the new deployer address\r\n    */\r\n    function setDeployer(address _deployer) public onlyOwner() {\r\n        deployer_address = _deployer;\r\n        deployer = Deployer_Interface(_deployer);\r\n    }\r\n\r\n    /**\r\n    *@dev Sets the user_contract address\r\n    *@param _userContract is the new userContract address\r\n    */\r\n    function setUserContract(address _userContract) public onlyOwner() {\r\n        user_contract = _userContract;\r\n    }\r\n\r\n    /**\r\n    *@dev Sets token ratio, swap duration, and multiplier variables for a swap.\r\n    *@param _token_ratio the ratio of the tokens\r\n    *@param _duration the duration of the swap, in days\r\n    *@param _multiplier the multiplier used for the swap\r\n    *@param _swapFee the swap fee\r\n    */\r\n    function setVariables(uint _token_ratio, uint _duration, uint _multiplier, uint _swapFee) public onlyOwner() {\r\n        require(_swapFee < 10000);\r\n        token_ratio = _token_ratio;\r\n        duration = _duration;\r\n        multiplier = _multiplier;\r\n        swapFee = _swapFee;\r\n    }\r\n\r\n    /**\r\n    *@dev Sets the address of the base tokens used for the swap\r\n    *@param _token The address of a token to be used  as collateral\r\n    */\r\n    function setBaseToken(address _token) public onlyOwner() {\r\n        token = _token;\r\n    }\r\n\r\n    /**\r\n    *@dev Allows a user to deploy a new swap contract, if they pay the fee\r\n    *@param _start_date the contract start date \r\n    *@return new_contract address for he newly created swap address and calls \r\n    *event 'ContractCreation'\r\n    */\r\n    function deployContract(uint _start_date) public payable returns (address) {\r\n        require(msg.value >= fee && isWhitelisted(msg.sender));\r\n        require(_start_date % 86400 == 0);\r\n        address new_contract = deployer.newContract(msg.sender, user_contract, _start_date);\r\n        contracts.push(new_contract);\r\n        created_contracts[new_contract] = _start_date;\r\n        emit ContractCreation(msg.sender,new_contract);\r\n        return new_contract;\r\n    }\r\n\r\n    /**\r\n    *@dev Deploys DRCT tokens for given start date\r\n    *@param _start_date of contract\r\n    */\r\n    function deployTokenContract(uint _start_date) public{\r\n        address _token;\r\n        require(_start_date % 86400 == 0);\r\n        require(long_tokens[_start_date] == address(0) && short_tokens[_start_date] == address(0));\r\n        _token = new DRCT_Token(address(this));\r\n        token_dates[_token] = _start_date;\r\n        long_tokens[_start_date] = _token;\r\n        _token = new DRCT_Token(address(this));\r\n        short_tokens[_start_date] = _token;\r\n        token_dates[_token] = _start_date;\r\n        startDates.push(_start_date);\r\n    }\r\n\r\n    /**\r\n    *@dev Deploys new tokens on a DRCT_Token contract -- called from within a swap\r\n    *@param _supply The number of tokens to create\r\n    *@param _party the address to send the tokens to\r\n    *@param _start_date the start date of the contract      \r\n    *@returns ltoken the address of the created DRCT long tokens\r\n    *@returns stoken the address of the created DRCT short tokens\r\n    *@returns token_ratio The ratio of the created DRCT token\r\n    */\r\n    function createToken(uint _supply, address _party, uint _start_date) public returns (address, address, uint) {\r\n        require(created_contracts[msg.sender] == _start_date);\r\n        address ltoken = long_tokens[_start_date];\r\n        token_type[ltoken]=2;\r\n        address stoken = short_tokens[_start_date];\r\n        token_type[stoken]=1;\r\n        require(ltoken != address(0) && stoken != address(0));\r\n            DRCT_Token drct_interface = DRCT_Token(ltoken);\r\n            drct_interface.createToken(_supply.div(token_ratio), _party,msg.sender);\r\n            drct_interface = DRCT_Token(stoken);\r\n            drct_interface.createToken(_supply.div(token_ratio), _party,msg.sender);\r\n        return (ltoken, stoken, token_ratio);\r\n    }\r\n  \r\n    /**\r\n    *@dev Allows the owner to set a new oracle address\r\n    *@param _new_oracle_address \r\n    */\r\n    function setOracleAddress(address _new_oracle_address) public onlyOwner() {\r\n        oracle_address = _new_oracle_address; \r\n    }\r\n\r\n    /**\r\n    *@dev Allows the owner to set a new owner address\r\n    *@param _new_owner the new owner address\r\n    */\r\n    function setOwner(address _new_owner) public onlyOwner() { \r\n        owner = _new_owner; \r\n    }\r\n\r\n    /**\r\n    *@dev Allows the owner to pull contract creation fees\r\n    *@return the withdrawal fee _val and the balance where is the return function?\r\n    */\r\n    function withdrawFees() public onlyOwner(){\r\n        Wrapped_Ether_Interface token_interface = Wrapped_Ether_Interface(token);\r\n        uint _val = token_interface.balanceOf(address(this));\r\n        if(_val > 0){\r\n            token_interface.withdraw(_val);\r\n        }\r\n        owner.transfer(address(this).balance);\r\n     }\r\n\r\n    /**\r\n    *@dev fallback function\r\n    */ \r\n    function() public payable {\r\n    }\r\n\r\n    /**\r\n    *@dev Returns a tuple of many private variables.\r\n    *The variables from this function are pass through to the TokenLibrary.getVariables function\r\n    *@returns oracle_adress is the address of the oracle\r\n    *@returns duration is the duration of the swap\r\n    *@returns multiplier is the multiplier for the swap\r\n    *@returns token is the address of token\r\n    *@returns _swapFee is the swap fee \r\n    */\r\n    function getVariables() public view returns (address, uint, uint, address,uint){\r\n        return (oracle_address,duration, multiplier, token,swapFee);\r\n    }\r\n\r\n    /**\r\n    *@dev Pays out to a DRCT token\r\n    *@param _party is the address being paid\r\n    *@param _token_add token to pay out\r\n    */\r\n    function payToken(address _party, address _token_add) public {\r\n        require(created_contracts[msg.sender] > 0);\r\n        DRCT_Token drct_interface = DRCT_Token(_token_add);\r\n        drct_interface.pay(_party, msg.sender);\r\n    }\r\n\r\n    /**\r\n    *@dev Counts number of contacts created by this factory\r\n    *@return the number of contracts\r\n    */\r\n    function getCount() public constant returns(uint) {\r\n        return contracts.length;\r\n    }\r\n\r\n    /**\r\n    *@dev Counts number of start dates in this factory\r\n    *@return the number of active start dates\r\n    */\r\n    function getDateCount() public constant returns(uint) {\r\n        return startDates.length;\r\n    }\r\n}\r\n",
  "sourcePath": "C:\\company\\code\\drct_standard\\contracts\\Factory.sol",
  "compiler": {
    "name": "solc",
    "version": "0.4.24+commit.e67f0147.Emscripten.clang"
  },
  "schemaVersion": "2.0.0",
  "updatedAt": "2018-07-16T15:23:59.127Z"
}