{
  "contractName": "Factory",
  "abi": [
    {
      "constant": true,
      "inputs": [],
      "name": "duration",
      "outputs": [
        {
          "name": "",
          "type": "uint256"
        }
      ],
      "payable": false,
      "stateMutability": "view",
      "type": "function"
    },
    {
      "constant": true,
      "inputs": [],
      "name": "multiplier",
      "outputs": [
        {
          "name": "",
          "type": "uint256"
        }
      ],
      "payable": false,
      "stateMutability": "view",
      "type": "function"
    },
    {
      "constant": true,
      "inputs": [
        {
          "name": "",
          "type": "uint256"
        }
      ],
      "name": "short_tokens",
      "outputs": [
        {
          "name": "",
          "type": "address"
        }
      ],
      "payable": false,
      "stateMutability": "view",
      "type": "function"
    },
    {
      "constant": true,
      "inputs": [
        {
          "name": "",
          "type": "uint256"
        }
      ],
      "name": "contracts",
      "outputs": [
        {
          "name": "",
          "type": "address"
        }
      ],
      "payable": false,
      "stateMutability": "view",
      "type": "function"
    },
    {
      "constant": true,
      "inputs": [
        {
          "name": "",
          "type": "address"
        }
      ],
      "name": "created_contracts",
      "outputs": [
        {
          "name": "",
          "type": "uint256"
        }
      ],
      "payable": false,
      "stateMutability": "view",
      "type": "function"
    },
    {
      "constant": true,
      "inputs": [],
      "name": "token_ratio",
      "outputs": [
        {
          "name": "",
          "type": "uint256"
        }
      ],
      "payable": false,
      "stateMutability": "view",
      "type": "function"
    },
    {
      "constant": true,
      "inputs": [],
      "name": "oracle_address",
      "outputs": [
        {
          "name": "",
          "type": "address"
        }
      ],
      "payable": false,
      "stateMutability": "view",
      "type": "function"
    },
    {
      "constant": true,
      "inputs": [],
      "name": "owner",
      "outputs": [
        {
          "name": "",
          "type": "address"
        }
      ],
      "payable": false,
      "stateMutability": "view",
      "type": "function"
    },
    {
      "constant": true,
      "inputs": [
        {
          "name": "",
          "type": "uint256"
        }
      ],
      "name": "startDates",
      "outputs": [
        {
          "name": "",
          "type": "uint256"
        }
      ],
      "payable": false,
      "stateMutability": "view",
      "type": "function"
    },
    {
      "constant": true,
      "inputs": [],
      "name": "memberContract",
      "outputs": [
        {
          "name": "",
          "type": "address"
        }
      ],
      "payable": false,
      "stateMutability": "view",
      "type": "function"
    },
    {
      "constant": true,
      "inputs": [
        {
          "name": "",
          "type": "address"
        }
      ],
      "name": "token_dates",
      "outputs": [
        {
          "name": "",
          "type": "uint256"
        }
      ],
      "payable": false,
      "stateMutability": "view",
      "type": "function"
    },
    {
      "constant": true,
      "inputs": [],
      "name": "user_contract",
      "outputs": [
        {
          "name": "",
          "type": "address"
        }
      ],
      "payable": false,
      "stateMutability": "view",
      "type": "function"
    },
    {
      "constant": true,
      "inputs": [
        {
          "name": "",
          "type": "uint256"
        }
      ],
      "name": "long_tokens",
      "outputs": [
        {
          "name": "",
          "type": "address"
        }
      ],
      "payable": false,
      "stateMutability": "view",
      "type": "function"
    },
    {
      "constant": true,
      "inputs": [],
      "name": "fee",
      "outputs": [
        {
          "name": "",
          "type": "uint256"
        }
      ],
      "payable": false,
      "stateMutability": "view",
      "type": "function"
    },
    {
      "constant": true,
      "inputs": [],
      "name": "token",
      "outputs": [
        {
          "name": "",
          "type": "address"
        }
      ],
      "payable": false,
      "stateMutability": "view",
      "type": "function"
    },
    {
      "inputs": [],
      "payable": false,
      "stateMutability": "nonpayable",
      "type": "constructor"
    },
    {
      "payable": true,
      "stateMutability": "payable",
      "type": "fallback"
    },
    {
      "anonymous": false,
      "inputs": [
        {
          "indexed": false,
          "name": "_sender",
          "type": "address"
        },
        {
          "indexed": false,
          "name": "_created",
          "type": "address"
        }
      ],
      "name": "ContractCreation",
      "type": "event"
    },
    {
      "constant": false,
      "inputs": [
        {
          "name": "_memberContract",
          "type": "address"
        }
      ],
      "name": "setMemberContract",
      "outputs": [],
      "payable": false,
      "stateMutability": "nonpayable",
      "type": "function"
    },
    {
      "constant": false,
      "inputs": [
        {
          "name": "_memberTypes",
          "type": "uint256[]"
        }
      ],
      "name": "setWhitelistedMemberTypes",
      "outputs": [],
      "payable": false,
      "stateMutability": "nonpayable",
      "type": "function"
    },
    {
      "constant": true,
      "inputs": [
        {
          "name": "_member",
          "type": "address"
        }
      ],
      "name": "isWhitelisted",
      "outputs": [
        {
          "name": "",
          "type": "bool"
        }
      ],
      "payable": false,
      "stateMutability": "view",
      "type": "function"
    },
    {
      "constant": true,
      "inputs": [
        {
          "name": "_date",
          "type": "uint256"
        }
      ],
      "name": "getTokens",
      "outputs": [
        {
          "name": "",
          "type": "address"
        },
        {
          "name": "",
          "type": "address"
        }
      ],
      "payable": false,
      "stateMutability": "view",
      "type": "function"
    },
    {
      "constant": false,
      "inputs": [
        {
          "name": "_fee",
          "type": "uint256"
        }
      ],
      "name": "setFee",
      "outputs": [],
      "payable": false,
      "stateMutability": "nonpayable",
      "type": "function"
    },
    {
      "constant": false,
      "inputs": [
        {
          "name": "_deployer",
          "type": "address"
        }
      ],
      "name": "setDeployer",
      "outputs": [],
      "payable": false,
      "stateMutability": "nonpayable",
      "type": "function"
    },
    {
      "constant": false,
      "inputs": [
        {
          "name": "_userContract",
          "type": "address"
        }
      ],
      "name": "setUserContract",
      "outputs": [],
      "payable": false,
      "stateMutability": "nonpayable",
      "type": "function"
    },
    {
      "constant": false,
      "inputs": [
        {
          "name": "_token_ratio",
          "type": "uint256"
        },
        {
          "name": "_duration",
          "type": "uint256"
        },
        {
          "name": "_multiplier",
          "type": "uint256"
        }
      ],
      "name": "setVariables",
      "outputs": [],
      "payable": false,
      "stateMutability": "nonpayable",
      "type": "function"
    },
    {
      "constant": false,
      "inputs": [
        {
          "name": "_token",
          "type": "address"
        }
      ],
      "name": "setBaseToken",
      "outputs": [],
      "payable": false,
      "stateMutability": "nonpayable",
      "type": "function"
    },
    {
      "constant": false,
      "inputs": [
        {
          "name": "_start_date",
          "type": "uint256"
        }
      ],
      "name": "deployContract",
      "outputs": [
        {
          "name": "",
          "type": "address"
        }
      ],
      "payable": true,
      "stateMutability": "payable",
      "type": "function"
    },
    {
      "constant": false,
      "inputs": [
        {
          "name": "_start_date",
          "type": "uint256"
        }
      ],
      "name": "deployTokenContract",
      "outputs": [],
      "payable": false,
      "stateMutability": "nonpayable",
      "type": "function"
    },
    {
      "constant": false,
      "inputs": [
        {
          "name": "_supply",
          "type": "uint256"
        },
        {
          "name": "_party",
          "type": "address"
        },
        {
          "name": "_start_date",
          "type": "uint256"
        }
      ],
      "name": "createToken",
      "outputs": [
        {
          "name": "",
          "type": "address"
        },
        {
          "name": "",
          "type": "address"
        },
        {
          "name": "",
          "type": "uint256"
        }
      ],
      "payable": false,
      "stateMutability": "nonpayable",
      "type": "function"
    },
    {
      "constant": false,
      "inputs": [
        {
          "name": "_new_oracle_address",
          "type": "address"
        }
      ],
      "name": "setOracleAddress",
      "outputs": [],
      "payable": false,
      "stateMutability": "nonpayable",
      "type": "function"
    },
    {
      "constant": false,
      "inputs": [
        {
          "name": "_new_owner",
          "type": "address"
        }
      ],
      "name": "setOwner",
      "outputs": [],
      "payable": false,
      "stateMutability": "nonpayable",
      "type": "function"
    },
    {
      "constant": false,
      "inputs": [],
      "name": "withdrawFees",
      "outputs": [],
      "payable": false,
      "stateMutability": "nonpayable",
      "type": "function"
    },
    {
      "constant": true,
      "inputs": [],
      "name": "getVariables",
      "outputs": [
        {
          "name": "",
          "type": "address"
        },
        {
          "name": "",
          "type": "uint256"
        },
        {
          "name": "",
          "type": "uint256"
        },
        {
          "name": "",
          "type": "address"
        }
      ],
      "payable": false,
      "stateMutability": "view",
      "type": "function"
    },
    {
      "constant": false,
      "inputs": [
        {
          "name": "_party",
          "type": "address"
        },
        {
          "name": "_token_add",
          "type": "address"
        }
      ],
      "name": "payToken",
      "outputs": [],
      "payable": false,
      "stateMutability": "nonpayable",
      "type": "function"
    },
    {
      "constant": true,
      "inputs": [],
      "name": "getCount",
      "outputs": [
        {
          "name": "",
          "type": "uint256"
        }
      ],
      "payable": false,
      "stateMutability": "view",
      "type": "function"
    },
    {
      "constant": true,
      "inputs": [],
      "name": "getDateCount",
      "outputs": [
        {
          "name": "",
          "type": "uint256"
        }
      ],
      "payable": false,
      "stateMutability": "view",
      "type": "function"
    }
  ],
  "bytecode": "0x6060604052341561000f57600080fd5b336000806101000a81548173ffffffffffffffffffffffffffffffffffffffff021916908373ffffffffffffffffffffffffffffffffffffffff1602179055506131db8061005e6000396000f3006060604052600436106101ac576000357c0100000000000000000000000000000000000000000000000000000000900463ffffffff1680630e2b75cc146101ae5780630f90b83a146102085780630fb5a6b41461022b57806313af40351461025457806316bb6c131461028d5780631b3ed722146102c65780631cf41a81146102ef5780632a7292d014610347578063316b13b41461040c57806331fa76db146104455780633af32abf146104a8578063474da79a146104f9578063476343ee1461055c5780634c69c00f146105715780634efb04ff146105aa5780635c5991d4146105f757806362628e661461062057806369fe0e2d146106555780637e0c1792146106785780638da5cb5b146106cd57806394aef0221461072257806396214735146107b8578063a1206d4e146107f1578063a55e93701461082a578063a87d942c14610853578063b266c6611461087c578063c40cf4eb146108b3578063c88b721914610908578063d3749a1514610955578063d3c9cc26146109aa578063dc54d91914610a40578063ddca3f4314610aa3578063ecb1451914610acc578063fc0c546a14610b24575b005b34156101b957600080fd5b610206600480803590602001908201803590602001908080602002602001604051908101604052809392919081815260200183836020028082843782019150505050505091905050610b79565b005b341561021357600080fd5b6102296004808035906020019091905050610c64565b005b341561023657600080fd5b61023e610f62565b6040518082815260200191505060405180910390f35b341561025f57600080fd5b61028b600480803573ffffffffffffffffffffffffffffffffffffffff16906020019091905050610f68565b005b341561029857600080fd5b6102c4600480803573ffffffffffffffffffffffffffffffffffffffff16906020019091905050611006565b005b34156102d157600080fd5b6102d96110a5565b6040518082815260200191505060405180910390f35b61030560048080359060200190919050506110ab565b604051808273ffffffffffffffffffffffffffffffffffffffff1673ffffffffffffffffffffffffffffffffffffffff16815260200191505060405180910390f35b341561035257600080fd5b610390600480803590602001909190803573ffffffffffffffffffffffffffffffffffffffff16906020019091908035906020019091905050611367565b604051808473ffffffffffffffffffffffffffffffffffffffff1673ffffffffffffffffffffffffffffffffffffffff1681526020018373ffffffffffffffffffffffffffffffffffffffff1673ffffffffffffffffffffffffffffffffffffffff168152602001828152602001935050505060405180910390f35b341561041757600080fd5b610443600480803573ffffffffffffffffffffffffffffffffffffffff169060200190919050506116af565b005b341561045057600080fd5b610466600480803590602001909190505061174e565b604051808273ffffffffffffffffffffffffffffffffffffffff1673ffffffffffffffffffffffffffffffffffffffff16815260200191505060405180910390f35b34156104b357600080fd5b6104df600480803573ffffffffffffffffffffffffffffffffffffffff16906020019091905050611781565b604051808215151515815260200191505060405180910390f35b341561050457600080fd5b61051a6004808035906020019091905050611882565b604051808273ffffffffffffffffffffffffffffffffffffffff1673ffffffffffffffffffffffffffffffffffffffff16815260200191505060405180910390f35b341561056757600080fd5b61056f6118c1565b005b341561057c57600080fd5b6105a8600480803573ffffffffffffffffffffffffffffffffffffffff16906020019091905050611afb565b005b34156105b557600080fd5b6105e1600480803573ffffffffffffffffffffffffffffffffffffffff16906020019091905050611b9a565b6040518082815260200191505060405180910390f35b341561060257600080fd5b61060a611bb2565b6040518082815260200191505060405180910390f35b341561062b57600080fd5b6106536004808035906020019091908035906020019091908035906020019091905050611bb8565b005b341561066057600080fd5b6106766004808035906020019091905050611c2d565b005b341561068357600080fd5b61068b611c92565b604051808273ffffffffffffffffffffffffffffffffffffffff1673ffffffffffffffffffffffffffffffffffffffff16815260200191505060405180910390f35b34156106d857600080fd5b6106e0611cb8565b604051808273ffffffffffffffffffffffffffffffffffffffff1673ffffffffffffffffffffffffffffffffffffffff16815260200191505060405180910390f35b341561072d57600080fd5b610735611cdd565b604051808573ffffffffffffffffffffffffffffffffffffffff1673ffffffffffffffffffffffffffffffffffffffff1681526020018481526020018381526020018273ffffffffffffffffffffffffffffffffffffffff1673ffffffffffffffffffffffffffffffffffffffff16815260200194505050505060405180910390f35b34156107c357600080fd5b6107ef600480803573ffffffffffffffffffffffffffffffffffffffff16906020019091905050611d3d565b005b34156107fc57600080fd5b610828600480803573ffffffffffffffffffffffffffffffffffffffff16906020019091905050611e1d565b005b341561083557600080fd5b61083d611ebc565b6040518082815260200191505060405180910390f35b341561085e57600080fd5b610866611ec9565b6040518082815260200191505060405180910390f35b341561088757600080fd5b61089d6004808035906020019091905050611ed6565b6040518082815260200191505060405180910390f35b34156108be57600080fd5b6108c6611efa565b604051808273ffffffffffffffffffffffffffffffffffffffff1673ffffffffffffffffffffffffffffffffffffffff16815260200191505060405180910390f35b341561091357600080fd5b61093f600480803573ffffffffffffffffffffffffffffffffffffffff16906020019091905050611f20565b6040518082815260200191505060405180910390f35b341561096057600080fd5b610968611f38565b604051808273ffffffffffffffffffffffffffffffffffffffff1673ffffffffffffffffffffffffffffffffffffffff16815260200191505060405180910390f35b34156109b557600080fd5b6109cb6004808035906020019091905050611f5e565b604051808373ffffffffffffffffffffffffffffffffffffffff1673ffffffffffffffffffffffffffffffffffffffff1681526020018273ffffffffffffffffffffffffffffffffffffffff1673ffffffffffffffffffffffffffffffffffffffff1681526020019250505060405180910390f35b3415610a4b57600080fd5b610a616004808035906020019091905050611fd2565b604051808273ffffffffffffffffffffffffffffffffffffffff1673ffffffffffffffffffffffffffffffffffffffff16815260200191505060405180910390f35b3415610aae57600080fd5b610ab6612005565b6040518082815260200191505060405180910390f35b3415610ad757600080fd5b610b22600480803573ffffffffffffffffffffffffffffffffffffffff1690602001909190803573ffffffffffffffffffffffffffffffffffffffff1690602001909190505061200b565b005b3415610b2f57600080fd5b610b37612140565b604051808273ffffffffffffffffffffffffffffffffffffffff1673ffffffffffffffffffffffffffffffffffffffff16815260200191505060405180910390f35b60008060009054906101000a900473ffffffffffffffffffffffffffffffffffffffff1673ffffffffffffffffffffffffffffffffffffffff163373ffffffffffffffffffffffffffffffffffffffff16141515610bd657600080fd5b6000600d600080815260200190815260200160002060006101000a81548160ff021916908315150217905550600090505b8151811015610c60576001600d60008484815181101515610c2457fe5b90602001906020020151815260200190815260200160002060006101000a81548160ff0219169083151502179055508080600101915050610c07565b5050565b6000806201518083811515610c7557fe5b06141515610c8257600080fd5b600073ffffffffffffffffffffffffffffffffffffffff166010600084815260200190815260200160002060009054906101000a900473ffffffffffffffffffffffffffffffffffffffff1673ffffffffffffffffffffffffffffffffffffffff16148015610d505750600073ffffffffffffffffffffffffffffffffffffffff166011600084815260200190815260200160002060009054906101000a900473ffffffffffffffffffffffffffffffffffffffff1673ffffffffffffffffffffffffffffffffffffffff16145b1515610d5b57600080fd5b30610d64612181565b808273ffffffffffffffffffffffffffffffffffffffff1673ffffffffffffffffffffffffffffffffffffffff168152602001915050604051809103906000f0801515610db057600080fd5b905081600f60008373ffffffffffffffffffffffffffffffffffffffff1673ffffffffffffffffffffffffffffffffffffffff16815260200190815260200160002081905550806010600084815260200190815260200160002060006101000a81548173ffffffffffffffffffffffffffffffffffffffff021916908373ffffffffffffffffffffffffffffffffffffffff16021790555030610e51612181565b808273ffffffffffffffffffffffffffffffffffffffff1673ffffffffffffffffffffffffffffffffffffffff168152602001915050604051809103906000f0801515610e9d57600080fd5b9050806011600084815260200190815260200160002060006101000a81548173ffffffffffffffffffffffffffffffffffffffff021916908373ffffffffffffffffffffffffffffffffffffffff16021790555081600f60008373ffffffffffffffffffffffffffffffffffffffff1673ffffffffffffffffffffffffffffffffffffffff16815260200190815260200160002081905550600b8054806001018281610f499190612191565b9160005260206000209001600084909190915055505050565b60075481565b6000809054906101000a900473ffffffffffffffffffffffffffffffffffffffff1673ffffffffffffffffffffffffffffffffffffffff163373ffffffffffffffffffffffffffffffffffffffff16141515610fc357600080fd5b806000806101000a81548173ffffffffffffffffffffffffffffffffffffffff021916908373ffffffffffffffffffffffffffffffffffffffff16021790555050565b6000809054906101000a900473ffffffffffffffffffffffffffffffffffffffff1673ffffffffffffffffffffffffffffffffffffffff163373ffffffffffffffffffffffffffffffffffffffff1614151561106157600080fd5b80600560006101000a81548173ffffffffffffffffffffffffffffffffffffffff021916908373ffffffffffffffffffffffffffffffffffffffff16021790555050565b60085481565b60008060065434101580156110c557506110c433611781565b5b15156110d057600080fd5b600062015180848115156110e057fe5b061415156110ed57600080fd5b600460009054906101000a900473ffffffffffffffffffffffffffffffffffffffff1673ffffffffffffffffffffffffffffffffffffffff1663548dd51e33600260009054906101000a900473ffffffffffffffffffffffffffffffffffffffff16866040518463ffffffff167c0100000000000000000000000000000000000000000000000000000000028152600401808473ffffffffffffffffffffffffffffffffffffffff1673ffffffffffffffffffffffffffffffffffffffff1681526020018373ffffffffffffffffffffffffffffffffffffffff1673ffffffffffffffffffffffffffffffffffffffff1681526020018281526020019350505050602060405180830381600087803b151561120757600080fd5b5af1151561121457600080fd5b505050604051805190509050600a805480600101828161123491906121bd565b9160005260206000209001600083909190916101000a81548173ffffffffffffffffffffffffffffffffffffffff021916908373ffffffffffffffffffffffffffffffffffffffff1602179055505082600e60008373ffffffffffffffffffffffffffffffffffffffff1673ffffffffffffffffffffffffffffffffffffffff168152602001908152602001600020819055507fb6c9f70724e4ce6b9bca2eace320dd3164063f0a0b229f8c4705ef05be829c253382604051808373ffffffffffffffffffffffffffffffffffffffff1673ffffffffffffffffffffffffffffffffffffffff1681526020018273ffffffffffffffffffffffffffffffffffffffff1673ffffffffffffffffffffffffffffffffffffffff1681526020019250505060405180910390a180915050919050565b60008060008060008086600e60003373ffffffffffffffffffffffffffffffffffffffff1673ffffffffffffffffffffffffffffffffffffffff168152602001908152602001600020541415156113bd57600080fd5b6010600088815260200190815260200160002060009054906101000a900473ffffffffffffffffffffffffffffffffffffffff1692506011600088815260200190815260200160002060009054906101000a900473ffffffffffffffffffffffffffffffffffffffff169150600073ffffffffffffffffffffffffffffffffffffffff168373ffffffffffffffffffffffffffffffffffffffff16141580156114935750600073ffffffffffffffffffffffffffffffffffffffff168273ffffffffffffffffffffffffffffffffffffffff1614155b151561149e57600080fd5b8290508073ffffffffffffffffffffffffffffffffffffffff1663e6ed51b76114d26009548c61216690919063ffffffff16565b8a336040518463ffffffff167c0100000000000000000000000000000000000000000000000000000000028152600401808481526020018373ffffffffffffffffffffffffffffffffffffffff1673ffffffffffffffffffffffffffffffffffffffff1681526020018273ffffffffffffffffffffffffffffffffffffffff1673ffffffffffffffffffffffffffffffffffffffff1681526020019350505050600060405180830381600087803b151561158b57600080fd5b5af1151561159857600080fd5b5050508190508073ffffffffffffffffffffffffffffffffffffffff1663e6ed51b76115cf6009548c61216690919063ffffffff16565b8a336040518463ffffffff167c0100000000000000000000000000000000000000000000000000000000028152600401808481526020018373ffffffffffffffffffffffffffffffffffffffff1673ffffffffffffffffffffffffffffffffffffffff1681526020018273ffffffffffffffffffffffffffffffffffffffff1673ffffffffffffffffffffffffffffffffffffffff1681526020019350505050600060405180830381600087803b151561168857600080fd5b5af1151561169557600080fd5b505050828260095495509550955050505093509350939050565b6000809054906101000a900473ffffffffffffffffffffffffffffffffffffffff1673ffffffffffffffffffffffffffffffffffffffff163373ffffffffffffffffffffffffffffffffffffffff1614151561170a57600080fd5b80600c60006101000a81548173ffffffffffffffffffffffffffffffffffffffff021916908373ffffffffffffffffffffffffffffffffffffffff16021790555050565b60116020528060005260406000206000915054906101000a900473ffffffffffffffffffffffffffffffffffffffff1681565b600080600c60009054906101000a900473ffffffffffffffffffffffffffffffffffffffff169050600d60008273ffffffffffffffffffffffffffffffffffffffff16630f381fdd866040518263ffffffff167c0100000000000000000000000000000000000000000000000000000000028152600401808273ffffffffffffffffffffffffffffffffffffffff1673ffffffffffffffffffffffffffffffffffffffff168152602001915050602060405180830381600087803b151561184757600080fd5b5af1151561185457600080fd5b50505060405180519050815260200190815260200160002060009054906101000a900460ff16915050919050565b600a8181548110151561189157fe5b90600052602060002090016000915054906101000a900473ffffffffffffffffffffffffffffffffffffffff1681565b6000806000809054906101000a900473ffffffffffffffffffffffffffffffffffffffff1673ffffffffffffffffffffffffffffffffffffffff163373ffffffffffffffffffffffffffffffffffffffff1614151561191f57600080fd5b600560009054906101000a900473ffffffffffffffffffffffffffffffffffffffff1691508173ffffffffffffffffffffffffffffffffffffffff166370a08231306040518263ffffffff167c0100000000000000000000000000000000000000000000000000000000028152600401808273ffffffffffffffffffffffffffffffffffffffff1673ffffffffffffffffffffffffffffffffffffffff168152602001915050602060405180830381600087803b15156119de57600080fd5b5af115156119eb57600080fd5b5050506040518051905090506000811115611a7f578173ffffffffffffffffffffffffffffffffffffffff16632e1a7d4d826040518263ffffffff167c010000000000000000000000000000000000000000000000000000000002815260040180828152602001915050600060405180830381600087803b1515611a6e57600080fd5b5af11515611a7b57600080fd5b5050505b6000809054906101000a900473ffffffffffffffffffffffffffffffffffffffff1673ffffffffffffffffffffffffffffffffffffffff166108fc3073ffffffffffffffffffffffffffffffffffffffff16319081150290604051600060405180830381858888f193505050501515611af757600080fd5b5050565b6000809054906101000a900473ffffffffffffffffffffffffffffffffffffffff1673ffffffffffffffffffffffffffffffffffffffff163373ffffffffffffffffffffffffffffffffffffffff16141515611b5657600080fd5b80600160006101000a81548173ffffffffffffffffffffffffffffffffffffffff021916908373ffffffffffffffffffffffffffffffffffffffff16021790555050565b600e6020528060005260406000206000915090505481565b60095481565b6000809054906101000a900473ffffffffffffffffffffffffffffffffffffffff1673ffffffffffffffffffffffffffffffffffffffff163373ffffffffffffffffffffffffffffffffffffffff16141515611c1357600080fd5b826009819055508160078190555080600881905550505050565b6000809054906101000a900473ffffffffffffffffffffffffffffffffffffffff1673ffffffffffffffffffffffffffffffffffffffff163373ffffffffffffffffffffffffffffffffffffffff16141515611c8857600080fd5b8060068190555050565b600160009054906101000a900473ffffffffffffffffffffffffffffffffffffffff1681565b6000809054906101000a900473ffffffffffffffffffffffffffffffffffffffff1681565b600080600080600160009054906101000a900473ffffffffffffffffffffffffffffffffffffffff16600754600854600560009054906101000a900473ffffffffffffffffffffffffffffffffffffffff16935093509350935090919293565b6000809054906101000a900473ffffffffffffffffffffffffffffffffffffffff1673ffffffffffffffffffffffffffffffffffffffff163373ffffffffffffffffffffffffffffffffffffffff16141515611d9857600080fd5b80600360006101000a81548173ffffffffffffffffffffffffffffffffffffffff021916908373ffffffffffffffffffffffffffffffffffffffff16021790555080600460006101000a81548173ffffffffffffffffffffffffffffffffffffffff021916908373ffffffffffffffffffffffffffffffffffffffff16021790555050565b6000809054906101000a900473ffffffffffffffffffffffffffffffffffffffff1673ffffffffffffffffffffffffffffffffffffffff163373ffffffffffffffffffffffffffffffffffffffff16141515611e7857600080fd5b80600260006101000a81548173ffffffffffffffffffffffffffffffffffffffff021916908373ffffffffffffffffffffffffffffffffffffffff16021790555050565b6000600b80549050905090565b6000600a80549050905090565b600b81815481101515611ee557fe5b90600052602060002090016000915090505481565b600c60009054906101000a900473ffffffffffffffffffffffffffffffffffffffff1681565b600f6020528060005260406000206000915090505481565b600260009054906101000a900473ffffffffffffffffffffffffffffffffffffffff1681565b6000806010600084815260200190815260200160002060009054906101000a900473ffffffffffffffffffffffffffffffffffffffff166011600085815260200190815260200160002060009054906101000a900473ffffffffffffffffffffffffffffffffffffffff1691509150915091565b60106020528060005260406000206000915054906101000a900473ffffffffffffffffffffffffffffffffffffffff1681565b60065481565b600080600e60003373ffffffffffffffffffffffffffffffffffffffff1673ffffffffffffffffffffffffffffffffffffffff1681526020019081526020016000205411151561205a57600080fd5b8190508073ffffffffffffffffffffffffffffffffffffffff1663bd0af85d84336040518363ffffffff167c0100000000000000000000000000000000000000000000000000000000028152600401808373ffffffffffffffffffffffffffffffffffffffff1673ffffffffffffffffffffffffffffffffffffffff1681526020018273ffffffffffffffffffffffffffffffffffffffff1673ffffffffffffffffffffffffffffffffffffffff16815260200192505050600060405180830381600087803b151561212b57600080fd5b5af1151561213857600080fd5b505050505050565b600560009054906101000a900473ffffffffffffffffffffffffffffffffffffffff1681565b600080828481151561217457fe5b0490508091505092915050565b604051610fa18061220f83390190565b8154818355818115116121b8578183600052602060002091820191016121b791906121e9565b5b505050565b8154818355818115116121e4578183600052602060002091820191016121e391906121e9565b5b505050565b61220b91905b808211156122075760008160009055506001016121ef565b5090565b9056006060604052341561000f57600080fd5b604051602080610fa183398101604052808051906020019091905050600073__DRCTLibrary___________________________63ad4848d29091836040518363ffffffff167c0100000000000000000000000000000000000000000000000000000000028152600401808381526020018273ffffffffffffffffffffffffffffffffffffffff1673ffffffffffffffffffffffffffffffffffffffff1681526020019250505060006040518083038186803b15156100cc57600080fd5b5af415156100d957600080fd5b50505050610eb5806100ec6000396000f3006060604052600436106100ba576000357c0100000000000000000000000000000000000000000000000000000000900463ffffffff168063095ea7b3146100bf578063174dcea81461011957806318160ddd146101a257806323b872dd146101cb57806370a08231146102445780638811a0ae146102915780638dfda5ae146102de578063a7c3230a1461034a578063a9059cbb146103a6578063bd0af85d14610400578063dd62ed3e14610458578063e6ed51b7146104c4575b600080fd5b34156100ca57600080fd5b6100ff600480803573ffffffffffffffffffffffffffffffffffffffff16906020019091908035906020019091905050610525565b604051808215151515815260200191505060405180910390f35b341561012457600080fd5b610159600480803590602001909190803573ffffffffffffffffffffffffffffffffffffffff169060200190919050506105ee565b604051808381526020018273ffffffffffffffffffffffffffffffffffffffff1673ffffffffffffffffffffffffffffffffffffffff1681526020019250505060405180910390f35b34156101ad57600080fd5b6101b56106c1565b6040518082815260200191505060405180910390f35b34156101d657600080fd5b61022a600480803573ffffffffffffffffffffffffffffffffffffffff1690602001909190803573ffffffffffffffffffffffffffffffffffffffff1690602001909190803590602001909190505061074b565b604051808215151515815260200191505060405180910390f35b341561024f57600080fd5b61027b600480803573ffffffffffffffffffffffffffffffffffffffff16906020019091905050610849565b6040518082815260200191505060405180910390f35b341561029c57600080fd5b6102c8600480803573ffffffffffffffffffffffffffffffffffffffff16906020019091905050610909565b6040518082815260200191505060405180910390f35b34156102e957600080fd5b610334600480803573ffffffffffffffffffffffffffffffffffffffff1690602001909190803573ffffffffffffffffffffffffffffffffffffffff169060200190919050506109c9565b6040518082815260200191505060405180910390f35b341561035557600080fd5b61035d610abe565b604051808373ffffffffffffffffffffffffffffffffffffffff1673ffffffffffffffffffffffffffffffffffffffff1681526020018281526020019250505060405180910390f35b34156103b157600080fd5b6103e6600480803573ffffffffffffffffffffffffffffffffffffffff16906020019091908035906020019091905050610af0565b604051808215151515815260200191505060405180910390f35b341561040b57600080fd5b610456600480803573ffffffffffffffffffffffffffffffffffffffff1690602001909190803573ffffffffffffffffffffffffffffffffffffffff16906020019091905050610bb9565b005b341561046357600080fd5b6104ae600480803573ffffffffffffffffffffffffffffffffffffffff1690602001909190803573ffffffffffffffffffffffffffffffffffffffff16906020019091905050610ca2565b6040518082815260200191505060405180910390f35b34156104cf57600080fd5b610523600480803590602001909190803573ffffffffffffffffffffffffffffffffffffffff1690602001909190803573ffffffffffffffffffffffffffffffffffffffff16906020019091905050610d97565b005b60008073__DRCTLibrary___________________________634538d2c6909185856040518463ffffffff167c0100000000000000000000000000000000000000000000000000000000028152600401808481526020018373ffffffffffffffffffffffffffffffffffffffff1673ffffffffffffffffffffffffffffffffffffffff168152602001828152602001935050505060206040518083038186803b15156105cf57600080fd5b5af415156105dc57600080fd5b50505060405180519050905092915050565b600080600073__DRCTLibrary___________________________6334aeb164909186866040518463ffffffff167c0100000000000000000000000000000000000000000000000000000000028152600401808481526020018381526020018273ffffffffffffffffffffffffffffffffffffffff1673ffffffffffffffffffffffffffffffffffffffff1681526020019350505050604080518083038186803b151561069957600080fd5b5af415156106a657600080fd5b50505060405180519060200180519050915091509250929050565b60008073__DRCTLibrary___________________________63d973df8690916040518263ffffffff167c01000000000000000000000000000000000000000000000000000000000281526004018082815260200191505060206040518083038186803b151561072f57600080fd5b5af4151561073c57600080fd5b50505060405180519050905090565b60008073__DRCTLibrary___________________________632eff549c90918686866040518563ffffffff167c0100000000000000000000000000000000000000000000000000000000028152600401808581526020018473ffffffffffffffffffffffffffffffffffffffff1673ffffffffffffffffffffffffffffffffffffffff1681526020018373ffffffffffffffffffffffffffffffffffffffff1673ffffffffffffffffffffffffffffffffffffffff16815260200182815260200194505050505060206040518083038186803b151561082957600080fd5b5af4151561083657600080fd5b5050506040518051905090509392505050565b60008073__DRCTLibrary___________________________63e2d643469091846040518363ffffffff167c0100000000000000000000000000000000000000000000000000000000028152600401808381526020018273ffffffffffffffffffffffffffffffffffffffff1673ffffffffffffffffffffffffffffffffffffffff1681526020019250505060206040518083038186803b15156108eb57600080fd5b5af415156108f857600080fd5b505050604051805190509050919050565b60008073__DRCTLibrary___________________________632b545c689091846040518363ffffffff167c0100000000000000000000000000000000000000000000000000000000028152600401808381526020018273ffffffffffffffffffffffffffffffffffffffff1673ffffffffffffffffffffffffffffffffffffffff1681526020019250505060206040518083038186803b15156109ab57600080fd5b5af415156109b857600080fd5b505050604051805190509050919050565b60008073__DRCTLibrary___________________________63bf435c37909185856040518463ffffffff167c0100000000000000000000000000000000000000000000000000000000028152600401808481526020018373ffffffffffffffffffffffffffffffffffffffff1673ffffffffffffffffffffffffffffffffffffffff1681526020018273ffffffffffffffffffffffffffffffffffffffff1673ffffffffffffffffffffffffffffffffffffffff168152602001935050505060206040518083038186803b1515610a9f57600080fd5b5af41515610aac57600080fd5b50505060405180519050905092915050565b60008060000160009054906101000a900473ffffffffffffffffffffffffffffffffffffffff16908060010154905082565b60008073__DRCTLibrary___________________________63f2b156db909185856040518463ffffffff167c0100000000000000000000000000000000000000000000000000000000028152600401808481526020018373ffffffffffffffffffffffffffffffffffffffff1673ffffffffffffffffffffffffffffffffffffffff168152602001828152602001935050505060206040518083038186803b1515610b9a57600080fd5b5af41515610ba757600080fd5b50505060405180519050905092915050565b600073__DRCTLibrary___________________________63486e5569909184846040518463ffffffff167c0100000000000000000000000000000000000000000000000000000000028152600401808481526020018373ffffffffffffffffffffffffffffffffffffffff1673ffffffffffffffffffffffffffffffffffffffff1681526020018273ffffffffffffffffffffffffffffffffffffffff1673ffffffffffffffffffffffffffffffffffffffff168152602001935050505060006040518083038186803b1515610c8e57600080fd5b5af41515610c9b57600080fd5b5050505050565b60008073__DRCTLibrary___________________________63b1020f37909185856040518463ffffffff167c0100000000000000000000000000000000000000000000000000000000028152600401808481526020018373ffffffffffffffffffffffffffffffffffffffff1673ffffffffffffffffffffffffffffffffffffffff1681526020018273ffffffffffffffffffffffffffffffffffffffff1673ffffffffffffffffffffffffffffffffffffffff168152602001935050505060206040518083038186803b1515610d7857600080fd5b5af41515610d8557600080fd5b50505060405180519050905092915050565b600073__DRCTLibrary___________________________6326f0385d90918585856040518563ffffffff167c0100000000000000000000000000000000000000000000000000000000028152600401808581526020018481526020018373ffffffffffffffffffffffffffffffffffffffff1673ffffffffffffffffffffffffffffffffffffffff1681526020018273ffffffffffffffffffffffffffffffffffffffff1673ffffffffffffffffffffffffffffffffffffffff16815260200194505050505060006040518083038186803b1515610e7457600080fd5b5af41515610e8157600080fd5b5050505050505600a165627a7a7230582028ffff6029c86a4e19a04aa34edbebecdc8f3828f94412c89a64b8ac23d5bf1f0029a165627a7a723058209acf4ce0d0d19035684c8d847f9c58d66a17ac6e69d211a8c89d0e1ab32e22fe0029",
  "source": "pragma solidity ^0.4.21;\r\n\r\nimport \"./interfaces/Deployer_Interface.sol\";\r\nimport \"./DRCT_Token.sol\";\r\nimport \"./libraries/SafeMath.sol\";\r\nimport \"./interfaces/Wrapped_Ether_Interface.sol\";\r\nimport \"./interfaces/MemberCoin_Interface.sol\";\r\n\r\n\r\n/**\r\n*The Factory contract sets the standardized variables and also deploys new contracts based on\r\n*these variables for the user.  \r\n*/\r\ncontract Factory {\r\n    using SafeMath for uint256;\r\n    /*Variables*/\r\n    //Addresses of the Factory owner and oracle. For oracle information, \r\n    //check www.github.com/DecentralizedDerivatives/Oracles\r\n    address public owner;\r\n    address public oracle_address;\r\n    //Address of the user contract\r\n    address public user_contract;\r\n    //Address of the deployer contract\r\n    address internal deployer_address;\r\n    Deployer_Interface internal deployer;\r\n    address public token;\r\n    //A fee for creating a swap in wei.  Plan is for this to be zero, however can be raised to prevent spam\r\n    uint public fee;\r\n    //Duration of swap contract in days\r\n    uint public duration;\r\n    //Multiplier of reference rate.  2x refers to a 50% move generating a 100% move in the contract payout values\r\n    uint public multiplier;\r\n    //Token_ratio refers to the number of DRCT Tokens a party will get based on the number of base tokens.  As an example, 1e15 indicates that a party will get 1000 DRCT Tokens based upon 1 ether of wrapped wei. \r\n    uint public token_ratio;\r\n    //Array of deployed contracts\r\n    address[] public contracts;\r\n    uint[] public startDates;\r\n    address public memberContract;\r\n    mapping(uint => bool) whitelistedTypes;\r\n    mapping(address => uint) public created_contracts;\r\n    mapping(address => uint) public token_dates;\r\n    mapping(uint => address) public long_tokens;\r\n    mapping(uint => address) public short_tokens;\r\n\r\n    /*Events*/\r\n    //Emitted when a Swap is created\r\n    event ContractCreation(address _sender, address _created);\r\n\r\n    /*Modifiers*/\r\n    modifier onlyOwner() {\r\n        require(msg.sender == owner);\r\n        _;\r\n    }\r\n\r\n    /*Functions*/\r\n    /**\r\n    *@dev Constructor - Sets owner\r\n    */\r\n    function Factory() public {\r\n        owner = msg.sender;\r\n    }\r\n\r\n    function setMemberContract(address _memberContract) public onlyOwner() {\r\n        memberContract = _memberContract;\r\n    }\r\n\r\n    function setWhitelistedMemberTypes(uint[] _memberTypes) public onlyOwner(){\r\n        whitelistedTypes[0] = false;\r\n        for(uint i = 0; i<_memberTypes.length;i++){\r\n            whitelistedTypes[_memberTypes[i]] = true;\r\n        }\r\n    }\r\n\r\n    function isWhitelisted(address _member) public view returns (bool){\r\n        MemberCoin_Interface Member = MemberCoin_Interface(memberContract);\r\n        return whitelistedTypes[Member.getMemberType(_member)];\r\n    }\r\n    \r\n\r\n    /**\r\n    *@dev Gets long and short token addresses based on specified date\r\n    *@param uint_date\r\n    *@return short and long tokens' addresses\r\n    */\r\n    function getTokens(uint _date) public view returns(address, address){\r\n        return(long_tokens[_date],short_tokens[_date]);\r\n    }\r\n\r\n    /*\r\n    * Updates the fee amount\r\n    * @param \"_fee\": The new fee amount\r\n    */\r\n    function setFee(uint _fee) public onlyOwner() {\r\n        fee = _fee;\r\n    }\r\n\r\n    /*\r\n    * Sets the deployer address\r\n    * @param \"_deployer\": The new deployer address\r\n    */\r\n    function setDeployer(address _deployer) public onlyOwner() {\r\n        deployer_address = _deployer;\r\n        deployer = Deployer_Interface(_deployer);\r\n    }\r\n\r\n    /*\r\n    * Sets the user_contract address\r\n    * @param \"_userContract\": The new userContract address\r\n    */\r\n    function setUserContract(address _userContract) public onlyOwner() {\r\n        user_contract = _userContract;\r\n    }\r\n\r\n    /*\r\n    *@dev Sets token ratio, swap duration, and multiplier variables for a swap\r\n    *@param _token_ratio the ratio of the tokens\r\n    *@param _duration the duration of the swap, in days\r\n    *@param _multiplier the multiplier used for the swap\r\n    */\r\n    function setVariables(uint _token_ratio, uint _duration, uint _multiplier) public onlyOwner() {\r\n        token_ratio = _token_ratio;\r\n        duration = _duration;\r\n        multiplier = _multiplier;\r\n    }\r\n\r\n    /*\r\n    *@dev Sets the addresses of the tokens used for the swap\r\n    *@param _token The address of a token to be used  as collateral\r\n    */\r\n    function setBaseToken(address _token) public onlyOwner() {\r\n        token = _token;\r\n    }\r\n\r\n    /**\r\n    *@dev Allows a user to deploy a new swap contract, if they pay the fee\r\n    *@param _start_date the contract start date or date contract was created?\r\n    *@return returns the newly created swap address and calls event 'ContractCreation'\r\n    */\r\n    function deployContract(uint _start_date) public payable returns (address) {\r\n        require(msg.value >= fee && isWhitelisted(msg.sender));\r\n        require(_start_date % 86400 == 0);\r\n        address new_contract = deployer.newContract(msg.sender, user_contract, _start_date);\r\n        contracts.push(new_contract);\r\n        created_contracts[new_contract] = _start_date;\r\n        emit ContractCreation(msg.sender,new_contract);\r\n        return new_contract;\r\n    }\r\n\r\n    /**\r\n    *@dev Deploys DRCT tokens for given start date\r\n    *@param _start_date of contract\r\n    *@param long if true\r\n    *@return returns token address of deployed contract\r\n    */\r\n    function deployTokenContract(uint _start_date) public{\r\n        address _token;\r\n        require(_start_date % 86400 == 0);\r\n        require(long_tokens[_start_date] == address(0) && short_tokens[_start_date] == address(0));\r\n        _token = new DRCT_Token(address(this));\r\n        token_dates[_token] = _start_date;\r\n        long_tokens[_start_date] = _token;\r\n        _token = new DRCT_Token(address(this));\r\n        short_tokens[_start_date] = _token;\r\n        token_dates[_token] = _start_date;\r\n        startDates.push(_start_date);\r\n    }\r\n\r\n    /*\r\n    *@dev Deploys new tokens on a DRCT_Token contract -- called from within a swap\r\n    *@param _supply The number of tokens to create\r\n    *@param _party the address to send the tokens to\r\n    *@param _start_date the start date of the contract?       \r\n    *@returns ltoken the address of the created DRCT long tokens?\r\n    *@returns stoken the address of the created DRCT short tokens?\r\n    *@returns token_ratio The ratio of the created DRCT token\r\n    */\r\n    function createToken(uint _supply, address _party, uint _start_date) public returns (address, address, uint) {\r\n        require(created_contracts[msg.sender] == _start_date);\r\n        address ltoken = long_tokens[_start_date];\r\n        address stoken = short_tokens[_start_date];\r\n        require(ltoken != address(0) && stoken != address(0));\r\n            DRCT_Token drct_interface = DRCT_Token(ltoken);\r\n            drct_interface.createToken(_supply.div(token_ratio), _party,msg.sender);\r\n            drct_interface = DRCT_Token(stoken);\r\n            drct_interface.createToken(_supply.div(token_ratio), _party,msg.sender);\r\n        return (ltoken, stoken, token_ratio);\r\n    }\r\n  \r\n    /**\r\n    *@dev Allows the owner to set a new oracle address\r\n    *@param _new_oracle_address \r\n    */\r\n    function setOracleAddress(address _new_oracle_address) public onlyOwner() {\r\n        oracle_address = _new_oracle_address; \r\n    }\r\n\r\n    /**\r\n    *@dev Allows the owner to set a new owner address\r\n    *@param _new_owner the new owner address\r\n    */\r\n    function setOwner(address _new_owner) public onlyOwner() { \r\n        owner = _new_owner; \r\n    }\r\n\r\n    /**\r\n    *@dev Allows the owner to pull contract creation fees\r\n    *@return the withdrawal fee _val and the balance where is the return function?\r\n    */\r\n    function withdrawFees() public onlyOwner(){\r\n        Wrapped_Ether_Interface token_interface = Wrapped_Ether_Interface(token);\r\n        uint _val = token_interface.balanceOf(address(this));\r\n        if(_val > 0){\r\n            token_interface.withdraw(_val);\r\n        }\r\n        owner.transfer(address(this).balance);\r\n     }\r\n\r\n    /**\r\n    *@dev fallback function\r\n    */ \r\n    function() public payable {\r\n    }\r\n\r\n    /*\r\n    *@dev Returns a tuple of many private variables\r\n    *@returns oracle_adress\": The address of the oracle\r\n    *@returns duration The duration of the swap\r\n    *@returns multiplier The multiplier for the swap\r\n    *@returns token The address of token \r\n    */\r\n    function getVariables() public view returns (address, uint, uint, address){\r\n        return (oracle_address,duration, multiplier, token);\r\n    }\r\n\r\n    /*\r\n    * Pays out to a DRCT token\r\n    * @param \"_party\": The address being paid\r\n    * @param \"_long\": Whether the _party is long or not\r\n    */\r\n    function payToken(address _party, address _token_add) public {\r\n        require(created_contracts[msg.sender] > 0);\r\n        DRCT_Token drct_interface = DRCT_Token(_token_add);\r\n        drct_interface.pay(_party, msg.sender);\r\n    }\r\n\r\n    /**\r\n    *@dev Counts number of contacts created by this factory\r\n    *@return the number of contracts\r\n    */\r\n    function getCount() public constant returns(uint) {\r\n        return contracts.length;\r\n    }\r\n\r\n    /**\r\n    *@dev Counts number of start dates in this factory\r\n    *@return the number of active start dates\r\n    */\r\n    function getDateCount() public constant returns(uint) {\r\n        return startDates.length;\r\n    }\r\n}\r\n",
  "sourcePath": "C:\\Company\\code\\drct_standard\\contracts\\Factory.sol",
  "compiler": {
    "name": "solc",
    "version": "0.4.21+commit.dfe3193c.Emscripten.clang"
  },
  "schemaVersion": "2.0.0",
  "updatedAt": "2018-05-19T19:40:30.109Z"
}