{
  "contractName": "Factory",
  "abi": [
    {
      "constant": true,
      "inputs": [],
      "name": "duration",
      "outputs": [
        {
          "name": "",
          "type": "uint256"
        }
      ],
      "payable": false,
      "stateMutability": "view",
      "type": "function"
    },
    {
      "constant": true,
      "inputs": [],
      "name": "multiplier",
      "outputs": [
        {
          "name": "",
          "type": "uint256"
        }
      ],
      "payable": false,
      "stateMutability": "view",
      "type": "function"
    },
    {
      "constant": true,
      "inputs": [
        {
          "name": "",
          "type": "uint256"
        }
      ],
      "name": "short_tokens",
      "outputs": [
        {
          "name": "",
          "type": "address"
        }
      ],
      "payable": false,
      "stateMutability": "view",
      "type": "function"
    },
    {
      "constant": true,
      "inputs": [
        {
          "name": "",
          "type": "uint256"
        }
      ],
      "name": "contracts",
      "outputs": [
        {
          "name": "",
          "type": "address"
        }
      ],
      "payable": false,
      "stateMutability": "view",
      "type": "function"
    },
    {
      "constant": true,
      "inputs": [
        {
          "name": "",
          "type": "address"
        }
      ],
      "name": "created_contracts",
      "outputs": [
        {
          "name": "",
          "type": "uint256"
        }
      ],
      "payable": false,
      "stateMutability": "view",
      "type": "function"
    },
    {
      "constant": true,
      "inputs": [],
      "name": "token_ratio",
      "outputs": [
        {
          "name": "",
          "type": "uint256"
        }
      ],
      "payable": false,
      "stateMutability": "view",
      "type": "function"
    },
    {
      "constant": true,
      "inputs": [],
      "name": "oracle_address",
      "outputs": [
        {
          "name": "",
          "type": "address"
        }
      ],
      "payable": false,
      "stateMutability": "view",
      "type": "function"
    },
    {
      "constant": true,
      "inputs": [],
      "name": "owner",
      "outputs": [
        {
          "name": "",
          "type": "address"
        }
      ],
      "payable": false,
      "stateMutability": "view",
      "type": "function"
    },
    {
      "constant": true,
      "inputs": [
        {
          "name": "",
          "type": "uint256"
        }
      ],
      "name": "startDates",
      "outputs": [
        {
          "name": "",
          "type": "uint256"
        }
      ],
      "payable": false,
      "stateMutability": "view",
      "type": "function"
    },
    {
      "constant": true,
      "inputs": [],
      "name": "memberContract",
      "outputs": [
        {
          "name": "",
          "type": "address"
        }
      ],
      "payable": false,
      "stateMutability": "view",
      "type": "function"
    },
    {
      "constant": true,
      "inputs": [
        {
          "name": "",
          "type": "address"
        }
      ],
      "name": "token_dates",
      "outputs": [
        {
          "name": "",
          "type": "uint256"
        }
      ],
      "payable": false,
      "stateMutability": "view",
      "type": "function"
    },
    {
      "constant": true,
      "inputs": [],
      "name": "user_contract",
      "outputs": [
        {
          "name": "",
          "type": "address"
        }
      ],
      "payable": false,
      "stateMutability": "view",
      "type": "function"
    },
    {
      "constant": true,
      "inputs": [
        {
          "name": "",
          "type": "uint256"
        }
      ],
      "name": "long_tokens",
      "outputs": [
        {
          "name": "",
          "type": "address"
        }
      ],
      "payable": false,
      "stateMutability": "view",
      "type": "function"
    },
    {
      "constant": true,
      "inputs": [],
      "name": "fee",
      "outputs": [
        {
          "name": "",
          "type": "uint256"
        }
      ],
      "payable": false,
      "stateMutability": "view",
      "type": "function"
    },
    {
      "constant": true,
      "inputs": [],
      "name": "token",
      "outputs": [
        {
          "name": "",
          "type": "address"
        }
      ],
      "payable": false,
      "stateMutability": "view",
      "type": "function"
    },
    {
      "inputs": [],
      "payable": false,
      "stateMutability": "nonpayable",
      "type": "constructor"
    },
    {
      "payable": true,
      "stateMutability": "payable",
      "type": "fallback"
    },
    {
      "anonymous": false,
      "inputs": [
        {
          "indexed": false,
          "name": "_sender",
          "type": "address"
        },
        {
          "indexed": false,
          "name": "_created",
          "type": "address"
        }
      ],
      "name": "ContractCreation",
      "type": "event"
    },
    {
      "constant": false,
      "inputs": [
        {
          "name": "_owner",
          "type": "address"
        }
      ],
      "name": "init",
      "outputs": [],
      "payable": false,
      "stateMutability": "nonpayable",
      "type": "function"
    },
    {
      "constant": false,
      "inputs": [
        {
          "name": "_memberContract",
          "type": "address"
        }
      ],
      "name": "setMemberContract",
      "outputs": [],
      "payable": false,
      "stateMutability": "nonpayable",
      "type": "function"
    },
    {
      "constant": false,
      "inputs": [
        {
          "name": "_memberTypes",
          "type": "uint256[]"
        }
      ],
      "name": "setWhitelistedMemberTypes",
      "outputs": [],
      "payable": false,
      "stateMutability": "nonpayable",
      "type": "function"
    },
    {
      "constant": true,
      "inputs": [
        {
          "name": "_member",
          "type": "address"
        }
      ],
      "name": "isWhitelisted",
      "outputs": [
        {
          "name": "",
          "type": "bool"
        }
      ],
      "payable": false,
      "stateMutability": "view",
      "type": "function"
    },
    {
      "constant": true,
      "inputs": [
        {
          "name": "_date",
          "type": "uint256"
        }
      ],
      "name": "getTokens",
      "outputs": [
        {
          "name": "",
          "type": "address"
        },
        {
          "name": "",
          "type": "address"
        }
      ],
      "payable": false,
      "stateMutability": "view",
      "type": "function"
    },
    {
      "constant": false,
      "inputs": [
        {
          "name": "_fee",
          "type": "uint256"
        }
      ],
      "name": "setFee",
      "outputs": [],
      "payable": false,
      "stateMutability": "nonpayable",
      "type": "function"
    },
    {
      "constant": false,
      "inputs": [
        {
          "name": "_deployer",
          "type": "address"
        }
      ],
      "name": "setDeployer",
      "outputs": [],
      "payable": false,
      "stateMutability": "nonpayable",
      "type": "function"
    },
    {
      "constant": false,
      "inputs": [
        {
          "name": "_userContract",
          "type": "address"
        }
      ],
      "name": "setUserContract",
      "outputs": [],
      "payable": false,
      "stateMutability": "nonpayable",
      "type": "function"
    },
    {
      "constant": false,
      "inputs": [
        {
          "name": "_token_ratio",
          "type": "uint256"
        },
        {
          "name": "_duration",
          "type": "uint256"
        },
        {
          "name": "_multiplier",
          "type": "uint256"
        }
      ],
      "name": "setVariables",
      "outputs": [],
      "payable": false,
      "stateMutability": "nonpayable",
      "type": "function"
    },
    {
      "constant": false,
      "inputs": [
        {
          "name": "_token",
          "type": "address"
        }
      ],
      "name": "setBaseToken",
      "outputs": [],
      "payable": false,
      "stateMutability": "nonpayable",
      "type": "function"
    },
    {
      "constant": false,
      "inputs": [
        {
          "name": "_start_date",
          "type": "uint256"
        }
      ],
      "name": "deployContract",
      "outputs": [
        {
          "name": "",
          "type": "address"
        }
      ],
      "payable": true,
      "stateMutability": "payable",
      "type": "function"
    },
    {
      "constant": false,
      "inputs": [
        {
          "name": "_start_date",
          "type": "uint256"
        }
      ],
      "name": "deployTokenContract",
      "outputs": [],
      "payable": false,
      "stateMutability": "nonpayable",
      "type": "function"
    },
    {
      "constant": false,
      "inputs": [
        {
          "name": "_supply",
          "type": "uint256"
        },
        {
          "name": "_party",
          "type": "address"
        },
        {
          "name": "_start_date",
          "type": "uint256"
        }
      ],
      "name": "createToken",
      "outputs": [
        {
          "name": "",
          "type": "address"
        },
        {
          "name": "",
          "type": "address"
        },
        {
          "name": "",
          "type": "uint256"
        }
      ],
      "payable": false,
      "stateMutability": "nonpayable",
      "type": "function"
    },
    {
      "constant": false,
      "inputs": [
        {
          "name": "_new_oracle_address",
          "type": "address"
        }
      ],
      "name": "setOracleAddress",
      "outputs": [],
      "payable": false,
      "stateMutability": "nonpayable",
      "type": "function"
    },
    {
      "constant": false,
      "inputs": [
        {
          "name": "_new_owner",
          "type": "address"
        }
      ],
      "name": "setOwner",
      "outputs": [],
      "payable": false,
      "stateMutability": "nonpayable",
      "type": "function"
    },
    {
      "constant": false,
      "inputs": [],
      "name": "withdrawFees",
      "outputs": [],
      "payable": false,
      "stateMutability": "nonpayable",
      "type": "function"
    },
    {
      "constant": true,
      "inputs": [],
      "name": "getVariables",
      "outputs": [
        {
          "name": "",
          "type": "address"
        },
        {
          "name": "",
          "type": "uint256"
        },
        {
          "name": "",
          "type": "uint256"
        },
        {
          "name": "",
          "type": "address"
        }
      ],
      "payable": false,
      "stateMutability": "view",
      "type": "function"
    },
    {
      "constant": false,
      "inputs": [
        {
          "name": "_party",
          "type": "address"
        },
        {
          "name": "_token_add",
          "type": "address"
        }
      ],
      "name": "payToken",
      "outputs": [],
      "payable": false,
      "stateMutability": "nonpayable",
      "type": "function"
    },
    {
      "constant": true,
      "inputs": [],
      "name": "getCount",
      "outputs": [
        {
          "name": "",
          "type": "uint256"
        }
      ],
      "payable": false,
      "stateMutability": "view",
      "type": "function"
    },
    {
      "constant": true,
      "inputs": [],
      "name": "getDateCount",
      "outputs": [
        {
          "name": "",
          "type": "uint256"
        }
      ],
      "payable": false,
      "stateMutability": "view",
      "type": "function"
    }
  ],
  "bytecode": "0x608060405234801561001057600080fd5b50336000806101000a81548173ffffffffffffffffffffffffffffffffffffffff021916908373ffffffffffffffffffffffffffffffffffffffff1602179055506135ce806100606000396000f3006080604052600436106101b7576000357c0100000000000000000000000000000000000000000000000000000000900463ffffffff1680630e2b75cc146101b95780630f90b83a1461021f5780630fb5a6b41461024c57806313af40351461027757806316bb6c13146102ba57806319ab453c146102fd5780631b3ed722146103405780631cf41a811461036b5780632a7292d0146103cb578063316b13b41461049c57806331fa76db146104df5780633af32abf1461054c578063474da79a146105a7578063476343ee146106145780634c69c00f1461062b5780634efb04ff1461066e5780635c5991d4146106c557806362628e66146106f057806369fe0e2d146107315780637e0c17921461075e5780638da5cb5b146107b557806394aef0221461080c57806396214735146108a4578063a1206d4e146108e7578063a55e93701461092a578063a87d942c14610955578063b266c66114610980578063c40cf4eb146109c1578063c88b721914610a18578063d3749a1514610a6f578063d3c9cc2614610ac6578063dc54d91914610b66578063ddca3f4314610bd3578063ecb1451914610bfe578063fc0c546a14610c61575b005b3480156101c557600080fd5b5061021d60048036038101908080359060200190820180359060200190808060200260200160405190810160405280939291908181526020018383602002808284378201915050505050509192919290505050610cb8565b005b34801561022b57600080fd5b5061024a60048036038101908080359060200190929190505050610da3565b005b34801561025857600080fd5b506102616110b2565b6040518082815260200191505060405180910390f35b34801561028357600080fd5b506102b8600480360381019080803573ffffffffffffffffffffffffffffffffffffffff1690602001909291905050506110b8565b005b3480156102c657600080fd5b506102fb600480360381019080803573ffffffffffffffffffffffffffffffffffffffff169060200190929190505050611156565b005b34801561030957600080fd5b5061033e600480360381019080803573ffffffffffffffffffffffffffffffffffffffff1690602001909291905050506111f5565b005b34801561034c57600080fd5b50610355611294565b6040518082815260200191505060405180910390f35b6103896004803603810190808035906020019092919050505061129a565b604051808273ffffffffffffffffffffffffffffffffffffffff1673ffffffffffffffffffffffffffffffffffffffff16815260200191505060405180910390f35b3480156103d757600080fd5b5061042060048036038101908080359060200190929190803573ffffffffffffffffffffffffffffffffffffffff1690602001909291908035906020019092919050505061157e565b604051808473ffffffffffffffffffffffffffffffffffffffff1673ffffffffffffffffffffffffffffffffffffffff1681526020018373ffffffffffffffffffffffffffffffffffffffff1673ffffffffffffffffffffffffffffffffffffffff168152602001828152602001935050505060405180910390f35b3480156104a857600080fd5b506104dd600480360381019080803573ffffffffffffffffffffffffffffffffffffffff1690602001909291905050506118d8565b005b3480156104eb57600080fd5b5061050a60048036038101908080359060200190929190505050611977565b604051808273ffffffffffffffffffffffffffffffffffffffff1673ffffffffffffffffffffffffffffffffffffffff16815260200191505060405180910390f35b34801561055857600080fd5b5061058d600480360381019080803573ffffffffffffffffffffffffffffffffffffffff1690602001909291905050506119aa565b604051808215151515815260200191505060405180910390f35b3480156105b357600080fd5b506105d260048036038101908080359060200190929190505050611ad0565b604051808273ffffffffffffffffffffffffffffffffffffffff1673ffffffffffffffffffffffffffffffffffffffff16815260200191505060405180910390f35b34801561062057600080fd5b50610629611b0e565b005b34801561063757600080fd5b5061066c600480360381019080803573ffffffffffffffffffffffffffffffffffffffff169060200190929190505050611d7d565b005b34801561067a57600080fd5b506106af600480360381019080803573ffffffffffffffffffffffffffffffffffffffff169060200190929190505050611e1c565b6040518082815260200191505060405180910390f35b3480156106d157600080fd5b506106da611e34565b6040518082815260200191505060405180910390f35b3480156106fc57600080fd5b5061072f600480360381019080803590602001909291908035906020019092919080359060200190929190505050611e3a565b005b34801561073d57600080fd5b5061075c60048036038101908080359060200190929190505050611eaf565b005b34801561076a57600080fd5b50610773611f14565b604051808273ffffffffffffffffffffffffffffffffffffffff1673ffffffffffffffffffffffffffffffffffffffff16815260200191505060405180910390f35b3480156107c157600080fd5b506107ca611f3a565b604051808273ffffffffffffffffffffffffffffffffffffffff1673ffffffffffffffffffffffffffffffffffffffff16815260200191505060405180910390f35b34801561081857600080fd5b50610821611f5f565b604051808573ffffffffffffffffffffffffffffffffffffffff1673ffffffffffffffffffffffffffffffffffffffff1681526020018481526020018381526020018273ffffffffffffffffffffffffffffffffffffffff1673ffffffffffffffffffffffffffffffffffffffff16815260200194505050505060405180910390f35b3480156108b057600080fd5b506108e5600480360381019080803573ffffffffffffffffffffffffffffffffffffffff169060200190929190505050611fbf565b005b3480156108f357600080fd5b50610928600480360381019080803573ffffffffffffffffffffffffffffffffffffffff16906020019092919050505061209f565b005b34801561093657600080fd5b5061093f61213e565b6040518082815260200191505060405180910390f35b34801561096157600080fd5b5061096a61214b565b6040518082815260200191505060405180910390f35b34801561098c57600080fd5b506109ab60048036038101908080359060200190929190505050612158565b6040518082815260200191505060405180910390f35b3480156109cd57600080fd5b506109d661217b565b604051808273ffffffffffffffffffffffffffffffffffffffff1673ffffffffffffffffffffffffffffffffffffffff16815260200191505060405180910390f35b348015610a2457600080fd5b50610a59600480360381019080803573ffffffffffffffffffffffffffffffffffffffff1690602001909291905050506121a1565b6040518082815260200191505060405180910390f35b348015610a7b57600080fd5b50610a846121b9565b604051808273ffffffffffffffffffffffffffffffffffffffff1673ffffffffffffffffffffffffffffffffffffffff16815260200191505060405180910390f35b348015610ad257600080fd5b50610af1600480360381019080803590602001909291905050506121df565b604051808373ffffffffffffffffffffffffffffffffffffffff1673ffffffffffffffffffffffffffffffffffffffff1681526020018273ffffffffffffffffffffffffffffffffffffffff1673ffffffffffffffffffffffffffffffffffffffff1681526020019250505060405180910390f35b348015610b7257600080fd5b50610b9160048036038101908080359060200190929190505050612253565b604051808273ffffffffffffffffffffffffffffffffffffffff1673ffffffffffffffffffffffffffffffffffffffff16815260200191505060405180910390f35b348015610bdf57600080fd5b50610be8612286565b6040518082815260200191505060405180910390f35b348015610c0a57600080fd5b50610c5f600480360381019080803573ffffffffffffffffffffffffffffffffffffffff169060200190929190803573ffffffffffffffffffffffffffffffffffffffff16906020019092919050505061228c565b005b348015610c6d57600080fd5b50610c766123ca565b604051808273ffffffffffffffffffffffffffffffffffffffff1673ffffffffffffffffffffffffffffffffffffffff16815260200191505060405180910390f35b60008060009054906101000a900473ffffffffffffffffffffffffffffffffffffffff1673ffffffffffffffffffffffffffffffffffffffff163373ffffffffffffffffffffffffffffffffffffffff16141515610d1557600080fd5b6000600d600080815260200190815260200160002060006101000a81548160ff021916908315150217905550600090505b8151811015610d9f576001600d60008484815181101515610d6357fe5b90602001906020020151815260200190815260200160002060006101000a81548160ff0219169083151502179055508080600101915050610d46565b5050565b6000806201518083811515610db457fe5b06141515610dc157600080fd5b600073ffffffffffffffffffffffffffffffffffffffff166010600084815260200190815260200160002060009054906101000a900473ffffffffffffffffffffffffffffffffffffffff1673ffffffffffffffffffffffffffffffffffffffff16148015610e8f5750600073ffffffffffffffffffffffffffffffffffffffff166011600084815260200190815260200160002060009054906101000a900473ffffffffffffffffffffffffffffffffffffffff1673ffffffffffffffffffffffffffffffffffffffff16145b1515610e9a57600080fd5b30610ea361240b565b808273ffffffffffffffffffffffffffffffffffffffff1673ffffffffffffffffffffffffffffffffffffffff168152602001915050604051809103906000f080158015610ef5573d6000803e3d6000fd5b50905081600f60008373ffffffffffffffffffffffffffffffffffffffff1673ffffffffffffffffffffffffffffffffffffffff16815260200190815260200160002081905550806010600084815260200190815260200160002060006101000a81548173ffffffffffffffffffffffffffffffffffffffff021916908373ffffffffffffffffffffffffffffffffffffffff16021790555030610f9761240b565b808273ffffffffffffffffffffffffffffffffffffffff1673ffffffffffffffffffffffffffffffffffffffff168152602001915050604051809103906000f080158015610fe9573d6000803e3d6000fd5b509050806011600084815260200190815260200160002060006101000a81548173ffffffffffffffffffffffffffffffffffffffff021916908373ffffffffffffffffffffffffffffffffffffffff16021790555081600f60008373ffffffffffffffffffffffffffffffffffffffff1673ffffffffffffffffffffffffffffffffffffffff16815260200190815260200160002081905550600b8290806001815401808255809150509060018203906000526020600020016000909192909190915055505050565b60075481565b6000809054906101000a900473ffffffffffffffffffffffffffffffffffffffff1673ffffffffffffffffffffffffffffffffffffffff163373ffffffffffffffffffffffffffffffffffffffff1614151561111357600080fd5b806000806101000a81548173ffffffffffffffffffffffffffffffffffffffff021916908373ffffffffffffffffffffffffffffffffffffffff16021790555050565b6000809054906101000a900473ffffffffffffffffffffffffffffffffffffffff1673ffffffffffffffffffffffffffffffffffffffff163373ffffffffffffffffffffffffffffffffffffffff161415156111b157600080fd5b80600560006101000a81548173ffffffffffffffffffffffffffffffffffffffff021916908373ffffffffffffffffffffffffffffffffffffffff16021790555050565b600073ffffffffffffffffffffffffffffffffffffffff166000809054906101000a900473ffffffffffffffffffffffffffffffffffffffff1673ffffffffffffffffffffffffffffffffffffffff1614151561125157600080fd5b806000806101000a81548173ffffffffffffffffffffffffffffffffffffffff021916908373ffffffffffffffffffffffffffffffffffffffff16021790555050565b60085481565b60008060065434101580156112b457506112b3336119aa565b5b15156112bf57600080fd5b600062015180848115156112cf57fe5b061415156112dc57600080fd5b600460009054906101000a900473ffffffffffffffffffffffffffffffffffffffff1673ffffffffffffffffffffffffffffffffffffffff1663548dd51e33600260009054906101000a900473ffffffffffffffffffffffffffffffffffffffff16866040518463ffffffff167c0100000000000000000000000000000000000000000000000000000000028152600401808473ffffffffffffffffffffffffffffffffffffffff1673ffffffffffffffffffffffffffffffffffffffff1681526020018373ffffffffffffffffffffffffffffffffffffffff1673ffffffffffffffffffffffffffffffffffffffff1681526020018281526020019350505050602060405180830381600087803b1580156113f757600080fd5b505af115801561140b573d6000803e3d6000fd5b505050506040513d602081101561142157600080fd5b81019080805190602001909291905050509050600a8190806001815401808255809150509060018203906000526020600020016000909192909190916101000a81548173ffffffffffffffffffffffffffffffffffffffff021916908373ffffffffffffffffffffffffffffffffffffffff1602179055505082600e60008373ffffffffffffffffffffffffffffffffffffffff1673ffffffffffffffffffffffffffffffffffffffff168152602001908152602001600020819055507fb6c9f70724e4ce6b9bca2eace320dd3164063f0a0b229f8c4705ef05be829c253382604051808373ffffffffffffffffffffffffffffffffffffffff1673ffffffffffffffffffffffffffffffffffffffff1681526020018273ffffffffffffffffffffffffffffffffffffffff1673ffffffffffffffffffffffffffffffffffffffff1681526020019250505060405180910390a180915050919050565b60008060008060008086600e60003373ffffffffffffffffffffffffffffffffffffffff1673ffffffffffffffffffffffffffffffffffffffff168152602001908152602001600020541415156115d457600080fd5b6010600088815260200190815260200160002060009054906101000a900473ffffffffffffffffffffffffffffffffffffffff1692506011600088815260200190815260200160002060009054906101000a900473ffffffffffffffffffffffffffffffffffffffff169150600073ffffffffffffffffffffffffffffffffffffffff168373ffffffffffffffffffffffffffffffffffffffff16141580156116aa5750600073ffffffffffffffffffffffffffffffffffffffff168273ffffffffffffffffffffffffffffffffffffffff1614155b15156116b557600080fd5b8290508073ffffffffffffffffffffffffffffffffffffffff1663e6ed51b76116e96009548c6123f090919063ffffffff16565b8a336040518463ffffffff167c0100000000000000000000000000000000000000000000000000000000028152600401808481526020018373ffffffffffffffffffffffffffffffffffffffff1673ffffffffffffffffffffffffffffffffffffffff1681526020018273ffffffffffffffffffffffffffffffffffffffff1673ffffffffffffffffffffffffffffffffffffffff1681526020019350505050600060405180830381600087803b1580156117a357600080fd5b505af11580156117b7573d6000803e3d6000fd5b505050508190508073ffffffffffffffffffffffffffffffffffffffff1663e6ed51b76117ef6009548c6123f090919063ffffffff16565b8a336040518463ffffffff167c0100000000000000000000000000000000000000000000000000000000028152600401808481526020018373ffffffffffffffffffffffffffffffffffffffff1673ffffffffffffffffffffffffffffffffffffffff1681526020018273ffffffffffffffffffffffffffffffffffffffff1673ffffffffffffffffffffffffffffffffffffffff1681526020019350505050600060405180830381600087803b1580156118a957600080fd5b505af11580156118bd573d6000803e3d6000fd5b50505050828260095495509550955050505093509350939050565b6000809054906101000a900473ffffffffffffffffffffffffffffffffffffffff1673ffffffffffffffffffffffffffffffffffffffff163373ffffffffffffffffffffffffffffffffffffffff1614151561193357600080fd5b80600c60006101000a81548173ffffffffffffffffffffffffffffffffffffffff021916908373ffffffffffffffffffffffffffffffffffffffff16021790555050565b60116020528060005260406000206000915054906101000a900473ffffffffffffffffffffffffffffffffffffffff1681565b600080600c60009054906101000a900473ffffffffffffffffffffffffffffffffffffffff169050600d60008273ffffffffffffffffffffffffffffffffffffffff1663b5b7916b866040518263ffffffff167c0100000000000000000000000000000000000000000000000000000000028152600401808273ffffffffffffffffffffffffffffffffffffffff1673ffffffffffffffffffffffffffffffffffffffff168152602001915050602060405180830381600087803b158015611a7157600080fd5b505af1158015611a85573d6000803e3d6000fd5b505050506040513d6020811015611a9b57600080fd5b8101908080519060200190929190505050815260200190815260200160002060009054906101000a900460ff16915050919050565b600a81815481101515611adf57fe5b906000526020600020016000915054906101000a900473ffffffffffffffffffffffffffffffffffffffff1681565b6000806000809054906101000a900473ffffffffffffffffffffffffffffffffffffffff1673ffffffffffffffffffffffffffffffffffffffff163373ffffffffffffffffffffffffffffffffffffffff16141515611b6c57600080fd5b600560009054906101000a900473ffffffffffffffffffffffffffffffffffffffff1691508173ffffffffffffffffffffffffffffffffffffffff166370a08231306040518263ffffffff167c0100000000000000000000000000000000000000000000000000000000028152600401808273ffffffffffffffffffffffffffffffffffffffff1673ffffffffffffffffffffffffffffffffffffffff168152602001915050602060405180830381600087803b158015611c2c57600080fd5b505af1158015611c40573d6000803e3d6000fd5b505050506040513d6020811015611c5657600080fd5b810190808051906020019092919050505090506000811115611cfa578173ffffffffffffffffffffffffffffffffffffffff16632e1a7d4d826040518263ffffffff167c010000000000000000000000000000000000000000000000000000000002815260040180828152602001915050600060405180830381600087803b158015611ce157600080fd5b505af1158015611cf5573d6000803e3d6000fd5b505050505b6000809054906101000a900473ffffffffffffffffffffffffffffffffffffffff1673ffffffffffffffffffffffffffffffffffffffff166108fc3073ffffffffffffffffffffffffffffffffffffffff16319081150290604051600060405180830381858888f19350505050158015611d78573d6000803e3d6000fd5b505050565b6000809054906101000a900473ffffffffffffffffffffffffffffffffffffffff1673ffffffffffffffffffffffffffffffffffffffff163373ffffffffffffffffffffffffffffffffffffffff16141515611dd857600080fd5b80600160006101000a81548173ffffffffffffffffffffffffffffffffffffffff021916908373ffffffffffffffffffffffffffffffffffffffff16021790555050565b600e6020528060005260406000206000915090505481565b60095481565b6000809054906101000a900473ffffffffffffffffffffffffffffffffffffffff1673ffffffffffffffffffffffffffffffffffffffff163373ffffffffffffffffffffffffffffffffffffffff16141515611e9557600080fd5b826009819055508160078190555080600881905550505050565b6000809054906101000a900473ffffffffffffffffffffffffffffffffffffffff1673ffffffffffffffffffffffffffffffffffffffff163373ffffffffffffffffffffffffffffffffffffffff16141515611f0a57600080fd5b8060068190555050565b600160009054906101000a900473ffffffffffffffffffffffffffffffffffffffff1681565b6000809054906101000a900473ffffffffffffffffffffffffffffffffffffffff1681565b600080600080600160009054906101000a900473ffffffffffffffffffffffffffffffffffffffff16600754600854600560009054906101000a900473ffffffffffffffffffffffffffffffffffffffff16935093509350935090919293565b6000809054906101000a900473ffffffffffffffffffffffffffffffffffffffff1673ffffffffffffffffffffffffffffffffffffffff163373ffffffffffffffffffffffffffffffffffffffff1614151561201a57600080fd5b80600360006101000a81548173ffffffffffffffffffffffffffffffffffffffff021916908373ffffffffffffffffffffffffffffffffffffffff16021790555080600460006101000a81548173ffffffffffffffffffffffffffffffffffffffff021916908373ffffffffffffffffffffffffffffffffffffffff16021790555050565b6000809054906101000a900473ffffffffffffffffffffffffffffffffffffffff1673ffffffffffffffffffffffffffffffffffffffff163373ffffffffffffffffffffffffffffffffffffffff161415156120fa57600080fd5b80600260006101000a81548173ffffffffffffffffffffffffffffffffffffffff021916908373ffffffffffffffffffffffffffffffffffffffff16021790555050565b6000600b80549050905090565b6000600a80549050905090565b600b8181548110151561216757fe5b906000526020600020016000915090505481565b600c60009054906101000a900473ffffffffffffffffffffffffffffffffffffffff1681565b600f6020528060005260406000206000915090505481565b600260009054906101000a900473ffffffffffffffffffffffffffffffffffffffff1681565b6000806010600084815260200190815260200160002060009054906101000a900473ffffffffffffffffffffffffffffffffffffffff166011600085815260200190815260200160002060009054906101000a900473ffffffffffffffffffffffffffffffffffffffff1691509150915091565b60106020528060005260406000206000915054906101000a900473ffffffffffffffffffffffffffffffffffffffff1681565b60065481565b600080600e60003373ffffffffffffffffffffffffffffffffffffffff1673ffffffffffffffffffffffffffffffffffffffff168152602001908152602001600020541115156122db57600080fd5b8190508073ffffffffffffffffffffffffffffffffffffffff1663bd0af85d84336040518363ffffffff167c0100000000000000000000000000000000000000000000000000000000028152600401808373ffffffffffffffffffffffffffffffffffffffff1673ffffffffffffffffffffffffffffffffffffffff1681526020018273ffffffffffffffffffffffffffffffffffffffff1673ffffffffffffffffffffffffffffffffffffffff16815260200192505050600060405180830381600087803b1580156123ad57600080fd5b505af11580156123c1573d6000803e3d6000fd5b50505050505050565b600560009054906101000a900473ffffffffffffffffffffffffffffffffffffffff1681565b60008082848115156123fe57fe5b0490508091505092915050565b6040516111878061241c833901905600608060405234801561001057600080fd5b5060405160208061118783398101806040528101908080519060200190929190505050600073__DRCTLibrary___________________________63ad4848d29091836040518363ffffffff167c0100000000000000000000000000000000000000000000000000000000028152600401808381526020018273ffffffffffffffffffffffffffffffffffffffff1673ffffffffffffffffffffffffffffffffffffffff1681526020019250505060006040518083038186803b1580156100d557600080fd5b505af41580156100e9573d6000803e3d6000fd5b505050505061108a806100fd6000396000f3006080604052600436106100ba576000357c0100000000000000000000000000000000000000000000000000000000900463ffffffff168063095ea7b3146100bf578063174dcea81461012457806318160ddd146101b857806323b872dd146101e357806370a08231146102685780638811a0ae146102bf5780638dfda5ae14610316578063a7c3230a1461038d578063a9059cbb146103eb578063bd0af85d14610450578063dd62ed3e146104b3578063e6ed51b71461052a575b600080fd5b3480156100cb57600080fd5b5061010a600480360381019080803573ffffffffffffffffffffffffffffffffffffffff16906020019092919080359060200190929190505050610597565b604051808215151515815260200191505060405180910390f35b34801561013057600080fd5b5061016f60048036038101908080359060200190929190803573ffffffffffffffffffffffffffffffffffffffff169060200190929190505050610685565b604051808381526020018273ffffffffffffffffffffffffffffffffffffffff1673ffffffffffffffffffffffffffffffffffffffff1681526020019250505060405180910390f35b3480156101c457600080fd5b506101cd610781565b6040518082815260200191505060405180910390f35b3480156101ef57600080fd5b5061024e600480360381019080803573ffffffffffffffffffffffffffffffffffffffff169060200190929190803573ffffffffffffffffffffffffffffffffffffffff16906020019092919080359060200190929190505050610830565b604051808215151515815260200191505060405180910390f35b34801561027457600080fd5b506102a9600480360381019080803573ffffffffffffffffffffffffffffffffffffffff169060200190929190505050610953565b6040518082815260200191505060405180910390f35b3480156102cb57600080fd5b50610300600480360381019080803573ffffffffffffffffffffffffffffffffffffffff169060200190929190505050610a38565b6040518082815260200191505060405180910390f35b34801561032257600080fd5b50610377600480360381019080803573ffffffffffffffffffffffffffffffffffffffff169060200190929190803573ffffffffffffffffffffffffffffffffffffffff169060200190929190505050610b1d565b6040518082815260200191505060405180910390f35b34801561039957600080fd5b506103a2610c37565b604051808373ffffffffffffffffffffffffffffffffffffffff1673ffffffffffffffffffffffffffffffffffffffff1681526020018281526020019250505060405180910390f35b3480156103f757600080fd5b50610436600480360381019080803573ffffffffffffffffffffffffffffffffffffffff16906020019092919080359060200190929190505050610c69565b604051808215151515815260200191505060405180910390f35b34801561045c57600080fd5b506104b1600480360381019080803573ffffffffffffffffffffffffffffffffffffffff169060200190929190803573ffffffffffffffffffffffffffffffffffffffff169060200190929190505050610d57565b005b3480156104bf57600080fd5b50610514600480360381019080803573ffffffffffffffffffffffffffffffffffffffff169060200190929190803573ffffffffffffffffffffffffffffffffffffffff169060200190929190505050610e49565b6040518082815260200191505060405180910390f35b34801561053657600080fd5b5061059560048036038101908080359060200190929190803573ffffffffffffffffffffffffffffffffffffffff169060200190929190803573ffffffffffffffffffffffffffffffffffffffff169060200190929190505050610f63565b005b60008073__DRCTLibrary___________________________634538d2c6909185856040518463ffffffff167c0100000000000000000000000000000000000000000000000000000000028152600401808481526020018373ffffffffffffffffffffffffffffffffffffffff1673ffffffffffffffffffffffffffffffffffffffff168152602001828152602001935050505060206040518083038186803b15801561064257600080fd5b505af4158015610656573d6000803e3d6000fd5b505050506040513d602081101561066c57600080fd5b8101908080519060200190929190505050905092915050565b600080600073__DRCTLibrary___________________________6334aeb164909186866040518463ffffffff167c0100000000000000000000000000000000000000000000000000000000028152600401808481526020018381526020018273ffffffffffffffffffffffffffffffffffffffff1673ffffffffffffffffffffffffffffffffffffffff1681526020019350505050604080518083038186803b15801561073157600080fd5b505af4158015610745573d6000803e3d6000fd5b505050506040513d604081101561075b57600080fd5b810190808051906020019092919080519060200190929190505050915091509250929050565b60008073__DRCTLibrary___________________________63d973df8690916040518263ffffffff167c01000000000000000000000000000000000000000000000000000000000281526004018082815260200191505060206040518083038186803b1580156107f057600080fd5b505af4158015610804573d6000803e3d6000fd5b505050506040513d602081101561081a57600080fd5b8101908080519060200190929190505050905090565b60008073__DRCTLibrary___________________________632eff549c90918686866040518563ffffffff167c0100000000000000000000000000000000000000000000000000000000028152600401808581526020018473ffffffffffffffffffffffffffffffffffffffff1673ffffffffffffffffffffffffffffffffffffffff1681526020018373ffffffffffffffffffffffffffffffffffffffff1673ffffffffffffffffffffffffffffffffffffffff16815260200182815260200194505050505060206040518083038186803b15801561090f57600080fd5b505af4158015610923573d6000803e3d6000fd5b505050506040513d602081101561093957600080fd5b810190808051906020019092919050505090509392505050565b60008073__DRCTLibrary___________________________63e2d643469091846040518363ffffffff167c0100000000000000000000000000000000000000000000000000000000028152600401808381526020018273ffffffffffffffffffffffffffffffffffffffff1673ffffffffffffffffffffffffffffffffffffffff1681526020019250505060206040518083038186803b1580156109f657600080fd5b505af4158015610a0a573d6000803e3d6000fd5b505050506040513d6020811015610a2057600080fd5b81019080805190602001909291905050509050919050565b60008073__DRCTLibrary___________________________632b545c689091846040518363ffffffff167c0100000000000000000000000000000000000000000000000000000000028152600401808381526020018273ffffffffffffffffffffffffffffffffffffffff1673ffffffffffffffffffffffffffffffffffffffff1681526020019250505060206040518083038186803b158015610adb57600080fd5b505af4158015610aef573d6000803e3d6000fd5b505050506040513d6020811015610b0557600080fd5b81019080805190602001909291905050509050919050565b60008073__DRCTLibrary___________________________63bf435c37909185856040518463ffffffff167c0100000000000000000000000000000000000000000000000000000000028152600401808481526020018373ffffffffffffffffffffffffffffffffffffffff1673ffffffffffffffffffffffffffffffffffffffff1681526020018273ffffffffffffffffffffffffffffffffffffffff1673ffffffffffffffffffffffffffffffffffffffff168152602001935050505060206040518083038186803b158015610bf457600080fd5b505af4158015610c08573d6000803e3d6000fd5b505050506040513d6020811015610c1e57600080fd5b8101908080519060200190929190505050905092915050565b60008060000160009054906101000a900473ffffffffffffffffffffffffffffffffffffffff16908060010154905082565b60008073__DRCTLibrary___________________________63f2b156db909185856040518463ffffffff167c0100000000000000000000000000000000000000000000000000000000028152600401808481526020018373ffffffffffffffffffffffffffffffffffffffff1673ffffffffffffffffffffffffffffffffffffffff168152602001828152602001935050505060206040518083038186803b158015610d1457600080fd5b505af4158015610d28573d6000803e3d6000fd5b505050506040513d6020811015610d3e57600080fd5b8101908080519060200190929190505050905092915050565b600073__DRCTLibrary___________________________63486e5569909184846040518463ffffffff167c0100000000000000000000000000000000000000000000000000000000028152600401808481526020018373ffffffffffffffffffffffffffffffffffffffff1673ffffffffffffffffffffffffffffffffffffffff1681526020018273ffffffffffffffffffffffffffffffffffffffff1673ffffffffffffffffffffffffffffffffffffffff168152602001935050505060006040518083038186803b158015610e2d57600080fd5b505af4158015610e41573d6000803e3d6000fd5b505050505050565b60008073__DRCTLibrary___________________________63b1020f37909185856040518463ffffffff167c0100000000000000000000000000000000000000000000000000000000028152600401808481526020018373ffffffffffffffffffffffffffffffffffffffff1673ffffffffffffffffffffffffffffffffffffffff1681526020018273ffffffffffffffffffffffffffffffffffffffff1673ffffffffffffffffffffffffffffffffffffffff168152602001935050505060206040518083038186803b158015610f2057600080fd5b505af4158015610f34573d6000803e3d6000fd5b505050506040513d6020811015610f4a57600080fd5b8101908080519060200190929190505050905092915050565b600073__DRCTLibrary___________________________6326f0385d90918585856040518563ffffffff167c0100000000000000000000000000000000000000000000000000000000028152600401808581526020018481526020018373ffffffffffffffffffffffffffffffffffffffff1673ffffffffffffffffffffffffffffffffffffffff1681526020018273ffffffffffffffffffffffffffffffffffffffff1673ffffffffffffffffffffffffffffffffffffffff16815260200194505050505060006040518083038186803b15801561104157600080fd5b505af4158015611055573d6000803e3d6000fd5b505050505050505600a165627a7a7230582090e355748196ea9c31153e5223c5eb987e3d11e5fb1c83f878d9b1dc091ecf0f0029a165627a7a72305820661556005a63aa76a48437ef84bc74f764a0009f739d06301dd6889847296f390029",
  "source": "pragma solidity ^0.4.21;\r\n\r\nimport \"./interfaces/Deployer_Interface.sol\";\r\nimport \"./DRCT_Token.sol\";\r\nimport \"./libraries/SafeMath.sol\";\r\nimport \"./interfaces/Wrapped_Ether_Interface.sol\";\r\nimport \"./interfaces/Membership_Interface.sol\";\r\n\r\n\r\n/**\r\n*The Factory contract sets the standardized variables and also deploys new contracts based on\r\n*these variables for the user.  \r\n*/\r\ncontract Factory {\r\n    using SafeMath for uint256;\r\n    /*Variables*/\r\n    //Addresses of the Factory owner and oracle. For oracle information, \r\n    //check www.github.com/DecentralizedDerivatives/Oracles\r\n    address public owner;\r\n    address public oracle_address;\r\n    //Address of the user contract\r\n    address public user_contract;\r\n    //Address of the deployer contract\r\n    address internal deployer_address;\r\n    Deployer_Interface internal deployer;\r\n    address public token;\r\n    //A fee for creating a swap in wei.  Plan is for this to be zero, however can be raised to prevent spam\r\n    uint public fee;\r\n    //Duration of swap contract in days\r\n    uint public duration;\r\n    //Multiplier of reference rate.  2x refers to a 50% move generating a 100% move in the contract payout values\r\n    uint public multiplier;\r\n    //Token_ratio refers to the number of DRCT Tokens a party will get based on the number of base tokens.  As an example, 1e15 indicates that a party will get 1000 DRCT Tokens based upon 1 ether of wrapped wei. \r\n    uint public token_ratio;\r\n    //Array of deployed contracts\r\n    address[] public contracts;\r\n    uint[] public startDates;\r\n    address public memberContract;\r\n    mapping(uint => bool) whitelistedTypes;\r\n    mapping(address => uint) public created_contracts;\r\n    mapping(address => uint) public token_dates;\r\n    mapping(uint => address) public long_tokens;\r\n    mapping(uint => address) public short_tokens;\r\n\r\n    /*Events*/\r\n    //Emitted when a Swap is created\r\n    event ContractCreation(address _sender, address _created);\r\n\r\n    /*Modifiers*/\r\n    modifier onlyOwner() {\r\n        require(msg.sender == owner);\r\n        _;\r\n    }\r\n\r\n    /*Functions*/\r\n    /**\r\n    *@dev Constructor - Sets owner\r\n    */\r\n     constructor() public {\r\n        owner = msg.sender;\r\n    }\r\n\r\n    /*How do we prevent someone else from starting this?*/\r\n    function init(address _owner) public{\r\n        require(owner == address(0));\r\n        owner = _owner;\r\n    }\r\n\r\n    function setMemberContract(address _memberContract) public onlyOwner() {\r\n        memberContract = _memberContract;\r\n    }\r\n\r\n    function setWhitelistedMemberTypes(uint[] _memberTypes) public onlyOwner(){\r\n        whitelistedTypes[0] = false;\r\n        for(uint i = 0; i<_memberTypes.length;i++){\r\n            whitelistedTypes[_memberTypes[i]] = true;\r\n        }\r\n    }\r\n\r\n    function isWhitelisted(address _member) public view returns (bool){\r\n        Membership_Interface Member = Membership_Interface(memberContract);\r\n        return whitelistedTypes[Member.getMembershipType(_member)];\r\n    }\r\n    \r\n\r\n    /**\r\n    *@dev Gets long and short token addresses based on specified date\r\n    *@param uint_date\r\n    *@return short and long tokens' addresses\r\n    */\r\n    function getTokens(uint _date) public view returns(address, address){\r\n        return(long_tokens[_date],short_tokens[_date]);\r\n    }\r\n\r\n    /*\r\n    * Updates the fee amount\r\n    * @param \"_fee\": The new fee amount\r\n    */\r\n    function setFee(uint _fee) public onlyOwner() {\r\n        fee = _fee;\r\n    }\r\n\r\n    /*\r\n    * Sets the deployer address\r\n    * @param \"_deployer\": The new deployer address\r\n    */\r\n    function setDeployer(address _deployer) public onlyOwner() {\r\n        deployer_address = _deployer;\r\n        deployer = Deployer_Interface(_deployer);\r\n    }\r\n\r\n    /*\r\n    * Sets the user_contract address\r\n    * @param \"_userContract\": The new userContract address\r\n    */\r\n    function setUserContract(address _userContract) public onlyOwner() {\r\n        user_contract = _userContract;\r\n    }\r\n\r\n    /*\r\n    *@dev Sets token ratio, swap duration, and multiplier variables for a swap\r\n    *@param _token_ratio the ratio of the tokens\r\n    *@param _duration the duration of the swap, in days\r\n    *@param _multiplier the multiplier used for the swap\r\n    */\r\n    function setVariables(uint _token_ratio, uint _duration, uint _multiplier) public onlyOwner() {\r\n        token_ratio = _token_ratio;\r\n        duration = _duration;\r\n        multiplier = _multiplier;\r\n    }\r\n\r\n    /*\r\n    *@dev Sets the addresses of the tokens used for the swap\r\n    *@param _token The address of a token to be used  as collateral\r\n    */\r\n    function setBaseToken(address _token) public onlyOwner() {\r\n        token = _token;\r\n    }\r\n\r\n    /**\r\n    *@dev Allows a user to deploy a new swap contract, if they pay the fee\r\n    *@param _start_date the contract start date \r\n    *@return returns the newly created swap address and calls event 'ContractCreation'\r\n    */\r\n    function deployContract(uint _start_date) public payable returns (address) {\r\n        require(msg.value >= fee && isWhitelisted(msg.sender));\r\n        require(_start_date % 86400 == 0);\r\n        address new_contract = deployer.newContract(msg.sender, user_contract, _start_date);\r\n        contracts.push(new_contract);\r\n        created_contracts[new_contract] = _start_date;\r\n        emit ContractCreation(msg.sender,new_contract);\r\n        return new_contract;\r\n    }\r\n\r\n    /**\r\n    *@dev Deploys DRCT tokens for given start date\r\n    *@param _start_date of contract\r\n    *@param long if true\r\n    *@return returns token address of deployed contract\r\n    */\r\n    function deployTokenContract(uint _start_date) public{\r\n        address _token;\r\n        require(_start_date % 86400 == 0);\r\n        require(long_tokens[_start_date] == address(0) && short_tokens[_start_date] == address(0));\r\n        _token = new DRCT_Token(address(this));\r\n        token_dates[_token] = _start_date;\r\n        long_tokens[_start_date] = _token;\r\n        _token = new DRCT_Token(address(this));\r\n        short_tokens[_start_date] = _token;\r\n        token_dates[_token] = _start_date;\r\n        startDates.push(_start_date);\r\n    }\r\n\r\n    /*\r\n    *@dev Deploys new tokens on a DRCT_Token contract -- called from within a swap\r\n    *@param _supply The number of tokens to create\r\n    *@param _party the address to send the tokens to\r\n    *@param _start_date the start date of the contract      \r\n    *@returns ltoken the address of the created DRCT long tokens\r\n    *@returns stoken the address of the created DRCT short tokens\r\n    *@returns token_ratio The ratio of the created DRCT token\r\n    */\r\n    function createToken(uint _supply, address _party, uint _start_date) public returns (address, address, uint) {\r\n        require(created_contracts[msg.sender] == _start_date);\r\n        address ltoken = long_tokens[_start_date];\r\n        address stoken = short_tokens[_start_date];\r\n        require(ltoken != address(0) && stoken != address(0));\r\n            DRCT_Token drct_interface = DRCT_Token(ltoken);\r\n            drct_interface.createToken(_supply.div(token_ratio), _party,msg.sender);\r\n            drct_interface = DRCT_Token(stoken);\r\n            drct_interface.createToken(_supply.div(token_ratio), _party,msg.sender);\r\n        return (ltoken, stoken, token_ratio);\r\n    }\r\n  \r\n    /**\r\n    *@dev Allows the owner to set a new oracle address\r\n    *@param _new_oracle_address \r\n    */\r\n    function setOracleAddress(address _new_oracle_address) public onlyOwner() {\r\n        oracle_address = _new_oracle_address; \r\n    }\r\n\r\n    /**\r\n    *@dev Allows the owner to set a new owner address\r\n    *@param _new_owner the new owner address\r\n    */\r\n    function setOwner(address _new_owner) public onlyOwner() { \r\n        owner = _new_owner; \r\n    }\r\n\r\n    /**\r\n    *@dev Allows the owner to pull contract creation fees\r\n    *@return the withdrawal fee _val and the balance where is the return function?\r\n    */\r\n    function withdrawFees() public onlyOwner(){\r\n        Wrapped_Ether_Interface token_interface = Wrapped_Ether_Interface(token);\r\n        uint _val = token_interface.balanceOf(address(this));\r\n        if(_val > 0){\r\n            token_interface.withdraw(_val);\r\n        }\r\n        owner.transfer(address(this).balance);\r\n     }\r\n\r\n    /**\r\n    *@dev fallback function\r\n    */ \r\n    function() public payable {\r\n    }\r\n\r\n    /*\r\n    *@dev Returns a tuple of many private variables\r\n    *@returns oracle_adress\": The address of the oracle\r\n    *@returns duration The duration of the swap\r\n    *@returns multiplier The multiplier for the swap\r\n    *@returns token The address of token \r\n    */\r\n    function getVariables() public view returns (address, uint, uint, address){\r\n        return (oracle_address,duration, multiplier, token);\r\n    }\r\n\r\n    /*\r\n    *Pays out to a DRCT token\r\n    *@param _party The address being paid\r\n    *@param _token_add \r\n    */\r\n    function payToken(address _party, address _token_add) public {\r\n        require(created_contracts[msg.sender] > 0);\r\n        DRCT_Token drct_interface = DRCT_Token(_token_add);\r\n        drct_interface.pay(_party, msg.sender);\r\n    }\r\n\r\n    /**\r\n    *@dev Counts number of contacts created by this factory\r\n    *@return the number of contracts\r\n    */\r\n    function getCount() public constant returns(uint) {\r\n        return contracts.length;\r\n    }\r\n\r\n    /**\r\n    *@dev Counts number of start dates in this factory\r\n    *@return the number of active start dates\r\n    */\r\n    function getDateCount() public constant returns(uint) {\r\n        return startDates.length;\r\n    }\r\n}\r\n",
  "sourcePath": "C:\\company\\code\\drct_standard\\contracts\\Factory.sol",
  "compiler": {
    "name": "solc",
    "version": "0.4.24+commit.e67f0147.Emscripten.clang"
  },
  "schemaVersion": "2.0.0",
  "updatedAt": "2018-06-06T00:25:54.497Z"
}