{
  "contractName": "Factory",
  "abi": [
    {
      "constant": true,
      "inputs": [],
      "name": "duration",
      "outputs": [
        {
          "name": "",
          "type": "uint256"
        }
      ],
      "payable": false,
      "stateMutability": "view",
      "type": "function"
    },
    {
      "constant": true,
      "inputs": [],
      "name": "multiplier",
      "outputs": [
        {
          "name": "",
          "type": "uint256"
        }
      ],
      "payable": false,
      "stateMutability": "view",
      "type": "function"
    },
    {
      "constant": true,
      "inputs": [
        {
          "name": "",
          "type": "uint256"
        }
      ],
      "name": "short_tokens",
      "outputs": [
        {
          "name": "",
          "type": "address"
        }
      ],
      "payable": false,
      "stateMutability": "view",
      "type": "function"
    },
    {
      "constant": true,
      "inputs": [
        {
          "name": "",
          "type": "uint256"
        }
      ],
      "name": "contracts",
      "outputs": [
        {
          "name": "",
          "type": "address"
        }
      ],
      "payable": false,
      "stateMutability": "view",
      "type": "function"
    },
    {
      "constant": true,
      "inputs": [
        {
          "name": "",
          "type": "address"
        }
      ],
      "name": "created_contracts",
      "outputs": [
        {
          "name": "",
          "type": "uint256"
        }
      ],
      "payable": false,
      "stateMutability": "view",
      "type": "function"
    },
    {
      "constant": true,
      "inputs": [
        {
          "name": "",
          "type": "address"
        }
      ],
      "name": "token_type",
      "outputs": [
        {
          "name": "",
          "type": "uint256"
        }
      ],
      "payable": false,
      "stateMutability": "view",
      "type": "function"
    },
    {
      "constant": true,
      "inputs": [],
      "name": "swapFee",
      "outputs": [
        {
          "name": "",
          "type": "uint256"
        }
      ],
      "payable": false,
      "stateMutability": "view",
      "type": "function"
    },
    {
      "constant": true,
      "inputs": [],
      "name": "token_ratio",
      "outputs": [
        {
          "name": "",
          "type": "uint256"
        }
      ],
      "payable": false,
      "stateMutability": "view",
      "type": "function"
    },
    {
      "constant": true,
      "inputs": [],
      "name": "oracle_address",
      "outputs": [
        {
          "name": "",
          "type": "address"
        }
      ],
      "payable": false,
      "stateMutability": "view",
      "type": "function"
    },
    {
      "constant": true,
      "inputs": [],
      "name": "owner",
      "outputs": [
        {
          "name": "",
          "type": "address"
        }
      ],
      "payable": false,
      "stateMutability": "view",
      "type": "function"
    },
    {
      "constant": true,
      "inputs": [
        {
          "name": "",
          "type": "uint256"
        }
      ],
      "name": "startDates",
      "outputs": [
        {
          "name": "",
          "type": "uint256"
        }
      ],
      "payable": false,
      "stateMutability": "view",
      "type": "function"
    },
    {
      "constant": true,
      "inputs": [],
      "name": "memberContract",
      "outputs": [
        {
          "name": "",
          "type": "address"
        }
      ],
      "payable": false,
      "stateMutability": "view",
      "type": "function"
    },
    {
      "constant": true,
      "inputs": [
        {
          "name": "",
          "type": "address"
        }
      ],
      "name": "token_dates",
      "outputs": [
        {
          "name": "",
          "type": "uint256"
        }
      ],
      "payable": false,
      "stateMutability": "view",
      "type": "function"
    },
    {
      "constant": true,
      "inputs": [],
      "name": "user_contract",
      "outputs": [
        {
          "name": "",
          "type": "address"
        }
      ],
      "payable": false,
      "stateMutability": "view",
      "type": "function"
    },
    {
      "constant": true,
      "inputs": [
        {
          "name": "",
          "type": "uint256"
        }
      ],
      "name": "long_tokens",
      "outputs": [
        {
          "name": "",
          "type": "address"
        }
      ],
      "payable": false,
      "stateMutability": "view",
      "type": "function"
    },
    {
      "constant": true,
      "inputs": [],
      "name": "fee",
      "outputs": [
        {
          "name": "",
          "type": "uint256"
        }
      ],
      "payable": false,
      "stateMutability": "view",
      "type": "function"
    },
    {
      "constant": true,
      "inputs": [],
      "name": "token",
      "outputs": [
        {
          "name": "",
          "type": "address"
        }
      ],
      "payable": false,
      "stateMutability": "view",
      "type": "function"
    },
    {
      "inputs": [
        {
          "name": "_memberTypes",
          "type": "uint256"
        }
      ],
      "payable": false,
      "stateMutability": "nonpayable",
      "type": "constructor"
    },
    {
      "payable": true,
      "stateMutability": "payable",
      "type": "fallback"
    },
    {
      "anonymous": false,
      "inputs": [
        {
          "indexed": false,
          "name": "_sender",
          "type": "address"
        },
        {
          "indexed": false,
          "name": "_created",
          "type": "address"
        }
      ],
      "name": "ContractCreation",
      "type": "event"
    },
    {
      "constant": false,
      "inputs": [
        {
          "name": "_owner",
          "type": "address"
        },
        {
          "name": "_memberTypes",
          "type": "uint256"
        }
      ],
      "name": "init",
      "outputs": [],
      "payable": false,
      "stateMutability": "nonpayable",
      "type": "function"
    },
    {
      "constant": false,
      "inputs": [
        {
          "name": "_memberContract",
          "type": "address"
        }
      ],
      "name": "setMemberContract",
      "outputs": [],
      "payable": false,
      "stateMutability": "nonpayable",
      "type": "function"
    },
    {
      "constant": true,
      "inputs": [
        {
          "name": "_member",
          "type": "address"
        }
      ],
      "name": "isWhitelisted",
      "outputs": [
        {
          "name": "",
          "type": "bool"
        }
      ],
      "payable": false,
      "stateMutability": "view",
      "type": "function"
    },
    {
      "constant": true,
      "inputs": [
        {
          "name": "_date",
          "type": "uint256"
        }
      ],
      "name": "getTokens",
      "outputs": [
        {
          "name": "",
          "type": "address"
        },
        {
          "name": "",
          "type": "address"
        }
      ],
      "payable": false,
      "stateMutability": "view",
      "type": "function"
    },
    {
      "constant": true,
      "inputs": [
        {
          "name": "_token",
          "type": "address"
        }
      ],
      "name": "getTokenType",
      "outputs": [
        {
          "name": "",
          "type": "uint256"
        }
      ],
      "payable": false,
      "stateMutability": "view",
      "type": "function"
    },
    {
      "constant": false,
      "inputs": [
        {
          "name": "_fee",
          "type": "uint256"
        }
      ],
      "name": "setFee",
      "outputs": [],
      "payable": false,
      "stateMutability": "nonpayable",
      "type": "function"
    },
    {
      "constant": false,
      "inputs": [
        {
          "name": "_swapFee",
          "type": "uint256"
        }
      ],
      "name": "setSwapFee",
      "outputs": [],
      "payable": false,
      "stateMutability": "nonpayable",
      "type": "function"
    },
    {
      "constant": false,
      "inputs": [
        {
          "name": "_deployer",
          "type": "address"
        }
      ],
      "name": "setDeployer",
      "outputs": [],
      "payable": false,
      "stateMutability": "nonpayable",
      "type": "function"
    },
    {
      "constant": false,
      "inputs": [
        {
          "name": "_userContract",
          "type": "address"
        }
      ],
      "name": "setUserContract",
      "outputs": [],
      "payable": false,
      "stateMutability": "nonpayable",
      "type": "function"
    },
    {
      "constant": false,
      "inputs": [
        {
          "name": "_token_ratio",
          "type": "uint256"
        },
        {
          "name": "_duration",
          "type": "uint256"
        },
        {
          "name": "_multiplier",
          "type": "uint256"
        },
        {
          "name": "_swapFee",
          "type": "uint256"
        }
      ],
      "name": "setVariables",
      "outputs": [],
      "payable": false,
      "stateMutability": "nonpayable",
      "type": "function"
    },
    {
      "constant": false,
      "inputs": [
        {
          "name": "_token",
          "type": "address"
        }
      ],
      "name": "setBaseToken",
      "outputs": [],
      "payable": false,
      "stateMutability": "nonpayable",
      "type": "function"
    },
    {
      "constant": false,
      "inputs": [
        {
          "name": "_start_date",
          "type": "uint256"
        },
        {
          "name": "_user",
          "type": "address"
        }
      ],
      "name": "deployContract",
      "outputs": [
        {
          "name": "",
          "type": "address"
        }
      ],
      "payable": true,
      "stateMutability": "payable",
      "type": "function"
    },
    {
      "constant": false,
      "inputs": [
        {
          "name": "_start_date",
          "type": "uint256"
        }
      ],
      "name": "deployTokenContract",
      "outputs": [],
      "payable": false,
      "stateMutability": "nonpayable",
      "type": "function"
    },
    {
      "constant": false,
      "inputs": [
        {
          "name": "_supply",
          "type": "uint256"
        },
        {
          "name": "_party",
          "type": "address"
        },
        {
          "name": "_start_date",
          "type": "uint256"
        }
      ],
      "name": "createToken",
      "outputs": [
        {
          "name": "",
          "type": "address"
        },
        {
          "name": "",
          "type": "address"
        },
        {
          "name": "",
          "type": "uint256"
        }
      ],
      "payable": false,
      "stateMutability": "nonpayable",
      "type": "function"
    },
    {
      "constant": false,
      "inputs": [
        {
          "name": "_new_oracle_address",
          "type": "address"
        }
      ],
      "name": "setOracleAddress",
      "outputs": [],
      "payable": false,
      "stateMutability": "nonpayable",
      "type": "function"
    },
    {
      "constant": false,
      "inputs": [
        {
          "name": "_new_owner",
          "type": "address"
        }
      ],
      "name": "setOwner",
      "outputs": [],
      "payable": false,
      "stateMutability": "nonpayable",
      "type": "function"
    },
    {
      "constant": false,
      "inputs": [],
      "name": "withdrawFees",
      "outputs": [],
      "payable": false,
      "stateMutability": "nonpayable",
      "type": "function"
    },
    {
      "constant": true,
      "inputs": [],
      "name": "getVariables",
      "outputs": [
        {
          "name": "",
          "type": "address"
        },
        {
          "name": "",
          "type": "uint256"
        },
        {
          "name": "",
          "type": "uint256"
        },
        {
          "name": "",
          "type": "address"
        },
        {
          "name": "",
          "type": "uint256"
        }
      ],
      "payable": false,
      "stateMutability": "view",
      "type": "function"
    },
    {
      "constant": false,
      "inputs": [
        {
          "name": "_party",
          "type": "address"
        },
        {
          "name": "_token_add",
          "type": "address"
        }
      ],
      "name": "payToken",
      "outputs": [],
      "payable": false,
      "stateMutability": "nonpayable",
      "type": "function"
    },
    {
      "constant": true,
      "inputs": [],
      "name": "getCount",
      "outputs": [
        {
          "name": "",
          "type": "uint256"
        }
      ],
      "payable": false,
      "stateMutability": "view",
      "type": "function"
    },
    {
      "constant": true,
      "inputs": [],
      "name": "getDateCount",
      "outputs": [
        {
          "name": "",
          "type": "uint256"
        }
      ],
      "payable": false,
      "stateMutability": "view",
      "type": "function"
    }
  ],
  "bytecode": "0x608060405234801561001057600080fd5b506040516020806139f583398101806040528101908080519060200190929190505050336000806101000a81548173ffffffffffffffffffffffffffffffffffffffff021916908373ffffffffffffffffffffffffffffffffffffffff16021790555080600e819055505061396b8061008a6000396000f3006080604052600436106101d8576000357c0100000000000000000000000000000000000000000000000000000000900463ffffffff1680630f90b83a146101da5780630fb5a6b41461020757806313af40351461023257806316bb6c13146102755780631b3ed722146102b85780632a7292d0146102e3578063316b13b4146103b457806331fa76db146103f757806334e1990714610464578063399ae724146104915780633af32abf146104de578063474da79a14610539578063476343ee146105a65780634c69c00f146105bd5780634efb04ff1461060057806351abf0de1461065757806354cf2aeb146106ae5780635c5991d4146106d95780636648c14d1461070457806369fe0e2d146107845780637e0c1792146107b15780638da5cb5b1461080857806393272baf1461085f57806394aef022146108b65780639621473514610955578063a1206d4e14610998578063a55e9370146109db578063a87d942c14610a06578063b266c66114610a31578063c40cf4eb14610a72578063c88b721914610ac9578063d3749a1514610b20578063d3c9cc2614610b77578063dc54d91914610c17578063ddca3f4314610c84578063ecb1451914610caf578063f497463a14610d12578063fc0c546a14610d5d575b005b3480156101e657600080fd5b5061020560048036038101908080359060200190929190505050610db4565b005b34801561021357600080fd5b5061021c6110df565b6040518082815260200191505060405180910390f35b34801561023e57600080fd5b50610273600480360381019080803573ffffffffffffffffffffffffffffffffffffffff1690602001909291905050506110e5565b005b34801561028157600080fd5b506102b6600480360381019080803573ffffffffffffffffffffffffffffffffffffffff169060200190929190505050611183565b005b3480156102c457600080fd5b506102cd611222565b6040518082815260200191505060405180910390f35b3480156102ef57600080fd5b5061033860048036038101908080359060200190929190803573ffffffffffffffffffffffffffffffffffffffff16906020019092919080359060200190929190505050611228565b604051808473ffffffffffffffffffffffffffffffffffffffff1673ffffffffffffffffffffffffffffffffffffffff1681526020018373ffffffffffffffffffffffffffffffffffffffff1673ffffffffffffffffffffffffffffffffffffffff168152602001828152602001935050505060405180910390f35b3480156103c057600080fd5b506103f5600480360381019080803573ffffffffffffffffffffffffffffffffffffffff169060200190929190505050611582565b005b34801561040357600080fd5b5061042260048036038101908080359060200190929190505050611621565b604051808273ffffffffffffffffffffffffffffffffffffffff1673ffffffffffffffffffffffffffffffffffffffff16815260200191505060405180910390f35b34801561047057600080fd5b5061048f60048036038101908080359060200190929190505050611654565b005b34801561049d57600080fd5b506104dc600480360381019080803573ffffffffffffffffffffffffffffffffffffffff169060200190929190803590602001909291905050506116b9565b005b3480156104ea57600080fd5b5061051f600480360381019080803573ffffffffffffffffffffffffffffffffffffffff169060200190929190505050611760565b604051808215151515815260200191505060405180910390f35b34801561054557600080fd5b506105646004803603810190808035906020019092919050505061186b565b604051808273ffffffffffffffffffffffffffffffffffffffff1673ffffffffffffffffffffffffffffffffffffffff16815260200191505060405180910390f35b3480156105b257600080fd5b506105bb6118a9565b005b3480156105c957600080fd5b506105fe600480360381019080803573ffffffffffffffffffffffffffffffffffffffff169060200190929190505050611b18565b005b34801561060c57600080fd5b50610641600480360381019080803573ffffffffffffffffffffffffffffffffffffffff169060200190929190505050611bb7565b6040518082815260200191505060405180910390f35b34801561066357600080fd5b50610698600480360381019080803573ffffffffffffffffffffffffffffffffffffffff169060200190929190505050611bcf565b6040518082815260200191505060405180910390f35b3480156106ba57600080fd5b506106c3611be7565b6040518082815260200191505060405180910390f35b3480156106e557600080fd5b506106ee611bed565b6040518082815260200191505060405180910390f35b61074260048036038101908080359060200190929190803573ffffffffffffffffffffffffffffffffffffffff169060200190929190505050611bf3565b604051808273ffffffffffffffffffffffffffffffffffffffff1673ffffffffffffffffffffffffffffffffffffffff16815260200191505060405180910390f35b34801561079057600080fd5b506107af60048036038101908080359060200190929190505050611ed8565b005b3480156107bd57600080fd5b506107c6611f3d565b604051808273ffffffffffffffffffffffffffffffffffffffff1673ffffffffffffffffffffffffffffffffffffffff16815260200191505060405180910390f35b34801561081457600080fd5b5061081d611f63565b604051808273ffffffffffffffffffffffffffffffffffffffff1673ffffffffffffffffffffffffffffffffffffffff16815260200191505060405180910390f35b34801561086b57600080fd5b506108a0600480360381019080803573ffffffffffffffffffffffffffffffffffffffff169060200190929190505050611f88565b6040518082815260200191505060405180910390f35b3480156108c257600080fd5b506108cb611fd1565b604051808673ffffffffffffffffffffffffffffffffffffffff1673ffffffffffffffffffffffffffffffffffffffff1681526020018581526020018481526020018373ffffffffffffffffffffffffffffffffffffffff1673ffffffffffffffffffffffffffffffffffffffff1681526020018281526020019550505050505060405180910390f35b34801561096157600080fd5b50610996600480360381019080803573ffffffffffffffffffffffffffffffffffffffff169060200190929190505050612039565b005b3480156109a457600080fd5b506109d9600480360381019080803573ffffffffffffffffffffffffffffffffffffffff169060200190929190505050612119565b005b3480156109e757600080fd5b506109f06121b8565b6040518082815260200191505060405180910390f35b348015610a1257600080fd5b50610a1b6121c5565b6040518082815260200191505060405180910390f35b348015610a3d57600080fd5b50610a5c600480360381019080803590602001909291905050506121d2565b6040518082815260200191505060405180910390f35b348015610a7e57600080fd5b50610a876121f5565b604051808273ffffffffffffffffffffffffffffffffffffffff1673ffffffffffffffffffffffffffffffffffffffff16815260200191505060405180910390f35b348015610ad557600080fd5b50610b0a600480360381019080803573ffffffffffffffffffffffffffffffffffffffff16906020019092919050505061221b565b6040518082815260200191505060405180910390f35b348015610b2c57600080fd5b50610b35612233565b604051808273ffffffffffffffffffffffffffffffffffffffff1673ffffffffffffffffffffffffffffffffffffffff16815260200191505060405180910390f35b348015610b8357600080fd5b50610ba260048036038101908080359060200190929190505050612259565b604051808373ffffffffffffffffffffffffffffffffffffffff1673ffffffffffffffffffffffffffffffffffffffff1681526020018273ffffffffffffffffffffffffffffffffffffffff1673ffffffffffffffffffffffffffffffffffffffff1681526020019250505060405180910390f35b348015610c2357600080fd5b50610c42600480360381019080803590602001909291905050506122cd565b604051808273ffffffffffffffffffffffffffffffffffffffff1673ffffffffffffffffffffffffffffffffffffffff16815260200191505060405180910390f35b348015610c9057600080fd5b50610c99612300565b6040518082815260200191505060405180910390f35b348015610cbb57600080fd5b50610d10600480360381019080803573ffffffffffffffffffffffffffffffffffffffff169060200190929190803573ffffffffffffffffffffffffffffffffffffffff169060200190929190505050612306565b005b348015610d1e57600080fd5b50610d5b60048036038101908080359060200190929190803590602001909291908035906020019092919080359060200190929190505050612444565b005b348015610d6957600080fd5b50610d726124d1565b604051808273ffffffffffffffffffffffffffffffffffffffff1673ffffffffffffffffffffffffffffffffffffffff16815260200191505060405180910390f35b6000806201518083811515610dc557fe5b06141515610dd257600080fd5b600073ffffffffffffffffffffffffffffffffffffffff166011600084815260200190815260200160002060009054906101000a900473ffffffffffffffffffffffffffffffffffffffff1673ffffffffffffffffffffffffffffffffffffffff16148015610ea05750600073ffffffffffffffffffffffffffffffffffffffff166012600084815260200190815260200160002060009054906101000a900473ffffffffffffffffffffffffffffffffffffffff1673ffffffffffffffffffffffffffffffffffffffff16145b1515610eab57600080fd5b610eb3612512565b604051809103906000f080158015610ecf573d6000803e3d6000fd5b50905081601060008373ffffffffffffffffffffffffffffffffffffffff1673ffffffffffffffffffffffffffffffffffffffff16815260200190815260200160002081905550806011600084815260200190815260200160002060006101000a81548173ffffffffffffffffffffffffffffffffffffffff021916908373ffffffffffffffffffffffffffffffffffffffff1602179055506002601360008373ffffffffffffffffffffffffffffffffffffffff1673ffffffffffffffffffffffffffffffffffffffff16815260200190815260200160002081905550610fb5612512565b604051809103906000f080158015610fd1573d6000803e3d6000fd5b5090506001601360008373ffffffffffffffffffffffffffffffffffffffff1673ffffffffffffffffffffffffffffffffffffffff16815260200190815260200160002081905550806012600084815260200190815260200160002060006101000a81548173ffffffffffffffffffffffffffffffffffffffff021916908373ffffffffffffffffffffffffffffffffffffffff16021790555081601060008373ffffffffffffffffffffffffffffffffffffffff1673ffffffffffffffffffffffffffffffffffffffff16815260200190815260200160002081905550600c8290806001815401808255809150509060018203906000526020600020016000909192909190915055505050565b60085481565b6000809054906101000a900473ffffffffffffffffffffffffffffffffffffffff1673ffffffffffffffffffffffffffffffffffffffff163373ffffffffffffffffffffffffffffffffffffffff1614151561114057600080fd5b806000806101000a81548173ffffffffffffffffffffffffffffffffffffffff021916908373ffffffffffffffffffffffffffffffffffffffff16021790555050565b6000809054906101000a900473ffffffffffffffffffffffffffffffffffffffff1673ffffffffffffffffffffffffffffffffffffffff163373ffffffffffffffffffffffffffffffffffffffff161415156111de57600080fd5b80600560006101000a81548173ffffffffffffffffffffffffffffffffffffffff021916908373ffffffffffffffffffffffffffffffffffffffff16021790555050565b60095481565b60008060008060008086600f60003373ffffffffffffffffffffffffffffffffffffffff1673ffffffffffffffffffffffffffffffffffffffff1681526020019081526020016000205414151561127e57600080fd5b6011600088815260200190815260200160002060009054906101000a900473ffffffffffffffffffffffffffffffffffffffff1692506012600088815260200190815260200160002060009054906101000a900473ffffffffffffffffffffffffffffffffffffffff169150600073ffffffffffffffffffffffffffffffffffffffff168373ffffffffffffffffffffffffffffffffffffffff16141580156113545750600073ffffffffffffffffffffffffffffffffffffffff168273ffffffffffffffffffffffffffffffffffffffff1614155b151561135f57600080fd5b8290508073ffffffffffffffffffffffffffffffffffffffff1663e6ed51b7611393600a548c6124f790919063ffffffff16565b8a336040518463ffffffff167c0100000000000000000000000000000000000000000000000000000000028152600401808481526020018373ffffffffffffffffffffffffffffffffffffffff1673ffffffffffffffffffffffffffffffffffffffff1681526020018273ffffffffffffffffffffffffffffffffffffffff1673ffffffffffffffffffffffffffffffffffffffff1681526020019350505050600060405180830381600087803b15801561144d57600080fd5b505af1158015611461573d6000803e3d6000fd5b505050508190508073ffffffffffffffffffffffffffffffffffffffff1663e6ed51b7611499600a548c6124f790919063ffffffff16565b8a336040518463ffffffff167c0100000000000000000000000000000000000000000000000000000000028152600401808481526020018373ffffffffffffffffffffffffffffffffffffffff1673ffffffffffffffffffffffffffffffffffffffff1681526020018273ffffffffffffffffffffffffffffffffffffffff1673ffffffffffffffffffffffffffffffffffffffff1681526020019350505050600060405180830381600087803b15801561155357600080fd5b505af1158015611567573d6000803e3d6000fd5b505050508282600a5495509550955050505093509350939050565b6000809054906101000a900473ffffffffffffffffffffffffffffffffffffffff1673ffffffffffffffffffffffffffffffffffffffff163373ffffffffffffffffffffffffffffffffffffffff161415156115dd57600080fd5b80600d60006101000a81548173ffffffffffffffffffffffffffffffffffffffff021916908373ffffffffffffffffffffffffffffffffffffffff16021790555050565b60126020528060005260406000206000915054906101000a900473ffffffffffffffffffffffffffffffffffffffff1681565b6000809054906101000a900473ffffffffffffffffffffffffffffffffffffffff1673ffffffffffffffffffffffffffffffffffffffff163373ffffffffffffffffffffffffffffffffffffffff161415156116af57600080fd5b8060078190555050565b600073ffffffffffffffffffffffffffffffffffffffff166000809054906101000a900473ffffffffffffffffffffffffffffffffffffffff1673ffffffffffffffffffffffffffffffffffffffff1614151561171557600080fd5b816000806101000a81548173ffffffffffffffffffffffffffffffffffffffff021916908373ffffffffffffffffffffffffffffffffffffffff16021790555080600e819055505050565b600080600d60009054906101000a900473ffffffffffffffffffffffffffffffffffffffff169050600e548173ffffffffffffffffffffffffffffffffffffffff1663b5b7916b856040518263ffffffff167c0100000000000000000000000000000000000000000000000000000000028152600401808273ffffffffffffffffffffffffffffffffffffffff1673ffffffffffffffffffffffffffffffffffffffff168152602001915050602060405180830381600087803b15801561182657600080fd5b505af115801561183a573d6000803e3d6000fd5b505050506040513d602081101561185057600080fd5b81019080805190602001909291905050501015915050919050565b600b8181548110151561187a57fe5b906000526020600020016000915054906101000a900473ffffffffffffffffffffffffffffffffffffffff1681565b6000806000809054906101000a900473ffffffffffffffffffffffffffffffffffffffff1673ffffffffffffffffffffffffffffffffffffffff163373ffffffffffffffffffffffffffffffffffffffff1614151561190757600080fd5b600560009054906101000a900473ffffffffffffffffffffffffffffffffffffffff1691508173ffffffffffffffffffffffffffffffffffffffff166370a08231306040518263ffffffff167c0100000000000000000000000000000000000000000000000000000000028152600401808273ffffffffffffffffffffffffffffffffffffffff1673ffffffffffffffffffffffffffffffffffffffff168152602001915050602060405180830381600087803b1580156119c757600080fd5b505af11580156119db573d6000803e3d6000fd5b505050506040513d60208110156119f157600080fd5b810190808051906020019092919050505090506000811115611a95578173ffffffffffffffffffffffffffffffffffffffff16632e1a7d4d826040518263ffffffff167c010000000000000000000000000000000000000000000000000000000002815260040180828152602001915050600060405180830381600087803b158015611a7c57600080fd5b505af1158015611a90573d6000803e3d6000fd5b505050505b6000809054906101000a900473ffffffffffffffffffffffffffffffffffffffff1673ffffffffffffffffffffffffffffffffffffffff166108fc3073ffffffffffffffffffffffffffffffffffffffff16319081150290604051600060405180830381858888f19350505050158015611b13573d6000803e3d6000fd5b505050565b6000809054906101000a900473ffffffffffffffffffffffffffffffffffffffff1673ffffffffffffffffffffffffffffffffffffffff163373ffffffffffffffffffffffffffffffffffffffff16141515611b7357600080fd5b80600160006101000a81548173ffffffffffffffffffffffffffffffffffffffff021916908373ffffffffffffffffffffffffffffffffffffffff16021790555050565b600f6020528060005260406000206000915090505481565b60136020528060005260406000206000915090505481565b60075481565b600a5481565b6000806006543410158015611c0d5750611c0c83611760565b5b1515611c1857600080fd5b60006201518085811515611c2857fe5b06141515611c3557600080fd5b600460009054906101000a900473ffffffffffffffffffffffffffffffffffffffff1673ffffffffffffffffffffffffffffffffffffffff1663548dd51e84600260009054906101000a900473ffffffffffffffffffffffffffffffffffffffff16876040518463ffffffff167c0100000000000000000000000000000000000000000000000000000000028152600401808473ffffffffffffffffffffffffffffffffffffffff1673ffffffffffffffffffffffffffffffffffffffff1681526020018373ffffffffffffffffffffffffffffffffffffffff1673ffffffffffffffffffffffffffffffffffffffff1681526020018281526020019350505050602060405180830381600087803b158015611d5057600080fd5b505af1158015611d64573d6000803e3d6000fd5b505050506040513d6020811015611d7a57600080fd5b81019080805190602001909291905050509050600b8190806001815401808255809150509060018203906000526020600020016000909192909190916101000a81548173ffffffffffffffffffffffffffffffffffffffff021916908373ffffffffffffffffffffffffffffffffffffffff1602179055505083600f60008373ffffffffffffffffffffffffffffffffffffffff1673ffffffffffffffffffffffffffffffffffffffff168152602001908152602001600020819055507fb6c9f70724e4ce6b9bca2eace320dd3164063f0a0b229f8c4705ef05be829c258382604051808373ffffffffffffffffffffffffffffffffffffffff1673ffffffffffffffffffffffffffffffffffffffff1681526020018273ffffffffffffffffffffffffffffffffffffffff1673ffffffffffffffffffffffffffffffffffffffff1681526020019250505060405180910390a18091505092915050565b6000809054906101000a900473ffffffffffffffffffffffffffffffffffffffff1673ffffffffffffffffffffffffffffffffffffffff163373ffffffffffffffffffffffffffffffffffffffff16141515611f3357600080fd5b8060068190555050565b600160009054906101000a900473ffffffffffffffffffffffffffffffffffffffff1681565b6000809054906101000a900473ffffffffffffffffffffffffffffffffffffffff1681565b6000601360008373ffffffffffffffffffffffffffffffffffffffff1673ffffffffffffffffffffffffffffffffffffffff168152602001908152602001600020549050919050565b6000806000806000600160009054906101000a900473ffffffffffffffffffffffffffffffffffffffff16600854600954600560009054906101000a900473ffffffffffffffffffffffffffffffffffffffff16600754945094509450945094509091929394565b6000809054906101000a900473ffffffffffffffffffffffffffffffffffffffff1673ffffffffffffffffffffffffffffffffffffffff163373ffffffffffffffffffffffffffffffffffffffff1614151561209457600080fd5b80600360006101000a81548173ffffffffffffffffffffffffffffffffffffffff021916908373ffffffffffffffffffffffffffffffffffffffff16021790555080600460006101000a81548173ffffffffffffffffffffffffffffffffffffffff021916908373ffffffffffffffffffffffffffffffffffffffff16021790555050565b6000809054906101000a900473ffffffffffffffffffffffffffffffffffffffff1673ffffffffffffffffffffffffffffffffffffffff163373ffffffffffffffffffffffffffffffffffffffff1614151561217457600080fd5b80600260006101000a81548173ffffffffffffffffffffffffffffffffffffffff021916908373ffffffffffffffffffffffffffffffffffffffff16021790555050565b6000600c80549050905090565b6000600b80549050905090565b600c818154811015156121e157fe5b906000526020600020016000915090505481565b600d60009054906101000a900473ffffffffffffffffffffffffffffffffffffffff1681565b60106020528060005260406000206000915090505481565b600260009054906101000a900473ffffffffffffffffffffffffffffffffffffffff1681565b6000806011600084815260200190815260200160002060009054906101000a900473ffffffffffffffffffffffffffffffffffffffff166012600085815260200190815260200160002060009054906101000a900473ffffffffffffffffffffffffffffffffffffffff1691509150915091565b60116020528060005260406000206000915054906101000a900473ffffffffffffffffffffffffffffffffffffffff1681565b60065481565b600080600f60003373ffffffffffffffffffffffffffffffffffffffff1673ffffffffffffffffffffffffffffffffffffffff1681526020019081526020016000205411151561235557600080fd5b8190508073ffffffffffffffffffffffffffffffffffffffff1663bd0af85d84336040518363ffffffff167c0100000000000000000000000000000000000000000000000000000000028152600401808373ffffffffffffffffffffffffffffffffffffffff1673ffffffffffffffffffffffffffffffffffffffff1681526020018273ffffffffffffffffffffffffffffffffffffffff1673ffffffffffffffffffffffffffffffffffffffff16815260200192505050600060405180830381600087803b15801561242757600080fd5b505af115801561243b573d6000803e3d6000fd5b50505050505050565b6000809054906101000a900473ffffffffffffffffffffffffffffffffffffffff1673ffffffffffffffffffffffffffffffffffffffff163373ffffffffffffffffffffffffffffffffffffffff1614151561249f57600080fd5b612710811015156124af57600080fd5b83600a8190555082600881905550816009819055508060078190555050505050565b600560009054906101000a900473ffffffffffffffffffffffffffffffffffffffff1681565b600080828481151561250557fe5b0490508091505092915050565b60405161141d80612523833901905600608060405234801561001057600080fd5b50600073__DRCTLibrary___________________________63ad4848d29091336040518363ffffffff167c0100000000000000000000000000000000000000000000000000000000028152600401808381526020018273ffffffffffffffffffffffffffffffffffffffff1673ffffffffffffffffffffffffffffffffffffffff1681526020019250505060006040518083038186803b1580156100b357600080fd5b505af41580156100c7573d6000803e3d6000fd5b50505050611343806100da6000396000f3006080604052600436106100db576000357c0100000000000000000000000000000000000000000000000000000000900463ffffffff16806306fdde03146100e0578063095ea7b314610170578063174dcea8146101d557806318160ddd1461026957806323b872dd1461029457806370a08231146103195780638811a0ae146103705780638dfda5ae146103c757806395d89b411461043e578063a7c3230a146104ce578063a9059cbb1461052c578063a9c2e36c14610591578063bd0af85d146105e8578063dd62ed3e1461064b578063e6ed51b7146106c2575b600080fd5b3480156100ec57600080fd5b506100f561072f565b6040518080602001828103825283818151815260200191508051906020019080838360005b8381101561013557808201518184015260208101905061011a565b50505050905090810190601f1680156101625780820380516001836020036101000a031916815260200191505b509250505060405180910390f35b34801561017c57600080fd5b506101bb600480360381019080803573ffffffffffffffffffffffffffffffffffffffff16906020019092919080359060200190929190505050610768565b604051808215151515815260200191505060405180910390f35b3480156101e157600080fd5b5061022060048036038101908080359060200190929190803573ffffffffffffffffffffffffffffffffffffffff169060200190929190505050610856565b604051808381526020018273ffffffffffffffffffffffffffffffffffffffff1673ffffffffffffffffffffffffffffffffffffffff1681526020019250505060405180910390f35b34801561027557600080fd5b5061027e610952565b6040518082815260200191505060405180910390f35b3480156102a057600080fd5b506102ff600480360381019080803573ffffffffffffffffffffffffffffffffffffffff169060200190929190803573ffffffffffffffffffffffffffffffffffffffff16906020019092919080359060200190929190505050610a01565b604051808215151515815260200191505060405180910390f35b34801561032557600080fd5b5061035a600480360381019080803573ffffffffffffffffffffffffffffffffffffffff169060200190929190505050610b24565b6040518082815260200191505060405180910390f35b34801561037c57600080fd5b506103b1600480360381019080803573ffffffffffffffffffffffffffffffffffffffff169060200190929190505050610c09565b6040518082815260200191505060405180910390f35b3480156103d357600080fd5b50610428600480360381019080803573ffffffffffffffffffffffffffffffffffffffff169060200190929190803573ffffffffffffffffffffffffffffffffffffffff169060200190929190505050610cee565b6040518082815260200191505060405180910390f35b34801561044a57600080fd5b50610453610e08565b6040518080602001828103825283818151815260200191508051906020019080838360005b83811015610493578082015181840152602081019050610478565b50505050905090810190601f1680156104c05780820380516001836020036101000a031916815260200191505b509250505060405180910390f35b3480156104da57600080fd5b506104e3610e41565b604051808373ffffffffffffffffffffffffffffffffffffffff1673ffffffffffffffffffffffffffffffffffffffff1681526020018281526020019250505060405180910390f35b34801561053857600080fd5b50610577600480360381019080803573ffffffffffffffffffffffffffffffffffffffff16906020019092919080359060200190929190505050610e73565b604051808215151515815260200191505060405180910390f35b34801561059d57600080fd5b506105a6610f61565b604051808273ffffffffffffffffffffffffffffffffffffffff1673ffffffffffffffffffffffffffffffffffffffff16815260200191505060405180910390f35b3480156105f457600080fd5b50610649600480360381019080803573ffffffffffffffffffffffffffffffffffffffff169060200190929190803573ffffffffffffffffffffffffffffffffffffffff169060200190929190505050611010565b005b34801561065757600080fd5b506106ac600480360381019080803573ffffffffffffffffffffffffffffffffffffffff169060200190929190803573ffffffffffffffffffffffffffffffffffffffff169060200190929190505050611102565b6040518082815260200191505060405180910390f35b3480156106ce57600080fd5b5061072d60048036038101908080359060200190929190803573ffffffffffffffffffffffffffffffffffffffff169060200190929190803573ffffffffffffffffffffffffffffffffffffffff16906020019092919050505061121c565b005b6040805190810160405280600a81526020017f4452435420546f6b656e0000000000000000000000000000000000000000000081525081565b60008073__DRCTLibrary___________________________634538d2c6909185856040518463ffffffff167c0100000000000000000000000000000000000000000000000000000000028152600401808481526020018373ffffffffffffffffffffffffffffffffffffffff1673ffffffffffffffffffffffffffffffffffffffff168152602001828152602001935050505060206040518083038186803b15801561081357600080fd5b505af4158015610827573d6000803e3d6000fd5b505050506040513d602081101561083d57600080fd5b8101908080519060200190929190505050905092915050565b600080600073__DRCTLibrary___________________________6334aeb164909186866040518463ffffffff167c0100000000000000000000000000000000000000000000000000000000028152600401808481526020018381526020018273ffffffffffffffffffffffffffffffffffffffff1673ffffffffffffffffffffffffffffffffffffffff1681526020019350505050604080518083038186803b15801561090257600080fd5b505af4158015610916573d6000803e3d6000fd5b505050506040513d604081101561092c57600080fd5b810190808051906020019092919080519060200190929190505050915091509250929050565b60008073__DRCTLibrary___________________________63d973df8690916040518263ffffffff167c01000000000000000000000000000000000000000000000000000000000281526004018082815260200191505060206040518083038186803b1580156109c157600080fd5b505af41580156109d5573d6000803e3d6000fd5b505050506040513d60208110156109eb57600080fd5b8101908080519060200190929190505050905090565b60008073__DRCTLibrary___________________________632eff549c90918686866040518563ffffffff167c0100000000000000000000000000000000000000000000000000000000028152600401808581526020018473ffffffffffffffffffffffffffffffffffffffff1673ffffffffffffffffffffffffffffffffffffffff1681526020018373ffffffffffffffffffffffffffffffffffffffff1673ffffffffffffffffffffffffffffffffffffffff16815260200182815260200194505050505060206040518083038186803b158015610ae057600080fd5b505af4158015610af4573d6000803e3d6000fd5b505050506040513d6020811015610b0a57600080fd5b810190808051906020019092919050505090509392505050565b60008073__DRCTLibrary___________________________63e2d643469091846040518363ffffffff167c0100000000000000000000000000000000000000000000000000000000028152600401808381526020018273ffffffffffffffffffffffffffffffffffffffff1673ffffffffffffffffffffffffffffffffffffffff1681526020019250505060206040518083038186803b158015610bc757600080fd5b505af4158015610bdb573d6000803e3d6000fd5b505050506040513d6020811015610bf157600080fd5b81019080805190602001909291905050509050919050565b60008073__DRCTLibrary___________________________632b545c689091846040518363ffffffff167c0100000000000000000000000000000000000000000000000000000000028152600401808381526020018273ffffffffffffffffffffffffffffffffffffffff1673ffffffffffffffffffffffffffffffffffffffff1681526020019250505060206040518083038186803b158015610cac57600080fd5b505af4158015610cc0573d6000803e3d6000fd5b505050506040513d6020811015610cd657600080fd5b81019080805190602001909291905050509050919050565b60008073__DRCTLibrary___________________________63bf435c37909185856040518463ffffffff167c0100000000000000000000000000000000000000000000000000000000028152600401808481526020018373ffffffffffffffffffffffffffffffffffffffff1673ffffffffffffffffffffffffffffffffffffffff1681526020018273ffffffffffffffffffffffffffffffffffffffff1673ffffffffffffffffffffffffffffffffffffffff168152602001935050505060206040518083038186803b158015610dc557600080fd5b505af4158015610dd9573d6000803e3d6000fd5b505050506040513d6020811015610def57600080fd5b8101908080519060200190929190505050905092915050565b6040805190810160405280600481526020017f445243540000000000000000000000000000000000000000000000000000000081525081565b60008060000160009054906101000a900473ffffffffffffffffffffffffffffffffffffffff16908060010154905082565b60008073__DRCTLibrary___________________________63f2b156db909185856040518463ffffffff167c0100000000000000000000000000000000000000000000000000000000028152600401808481526020018373ffffffffffffffffffffffffffffffffffffffff1673ffffffffffffffffffffffffffffffffffffffff168152602001828152602001935050505060206040518083038186803b158015610f1e57600080fd5b505af4158015610f32573d6000803e3d6000fd5b505050506040513d6020811015610f4857600080fd5b8101908080519060200190929190505050905092915050565b60008073__DRCTLibrary___________________________63a431b53890916040518263ffffffff167c01000000000000000000000000000000000000000000000000000000000281526004018082815260200191505060206040518083038186803b158015610fd057600080fd5b505af4158015610fe4573d6000803e3d6000fd5b505050506040513d6020811015610ffa57600080fd5b8101908080519060200190929190505050905090565b600073__DRCTLibrary___________________________63486e5569909184846040518463ffffffff167c0100000000000000000000000000000000000000000000000000000000028152600401808481526020018373ffffffffffffffffffffffffffffffffffffffff1673ffffffffffffffffffffffffffffffffffffffff1681526020018273ffffffffffffffffffffffffffffffffffffffff1673ffffffffffffffffffffffffffffffffffffffff168152602001935050505060006040518083038186803b1580156110e657600080fd5b505af41580156110fa573d6000803e3d6000fd5b505050505050565b60008073__DRCTLibrary___________________________63b1020f37909185856040518463ffffffff167c0100000000000000000000000000000000000000000000000000000000028152600401808481526020018373ffffffffffffffffffffffffffffffffffffffff1673ffffffffffffffffffffffffffffffffffffffff1681526020018273ffffffffffffffffffffffffffffffffffffffff1673ffffffffffffffffffffffffffffffffffffffff168152602001935050505060206040518083038186803b1580156111d957600080fd5b505af41580156111ed573d6000803e3d6000fd5b505050506040513d602081101561120357600080fd5b8101908080519060200190929190505050905092915050565b600073__DRCTLibrary___________________________6326f0385d90918585856040518563ffffffff167c0100000000000000000000000000000000000000000000000000000000028152600401808581526020018481526020018373ffffffffffffffffffffffffffffffffffffffff1673ffffffffffffffffffffffffffffffffffffffff1681526020018273ffffffffffffffffffffffffffffffffffffffff1673ffffffffffffffffffffffffffffffffffffffff16815260200194505050505060006040518083038186803b1580156112fa57600080fd5b505af415801561130e573d6000803e3d6000fd5b505050505050505600a165627a7a72305820d6aea212f6966aff3d2ac91ce6ff22809b22543c72aa53db73860892d9d4c0d50029a165627a7a7230582022d70e2f31c32ce39cf4368dd358d2e31b47db09902ff98ed3668ea19d90dbaf0029",
  "source": "pragma solidity ^0.4.24;\r\n\r\nimport \"./interfaces/Deployer_Interface.sol\";\r\nimport \"./DRCT_Token.sol\";\r\nimport \"./libraries/SafeMath.sol\";\r\nimport \"./interfaces/Wrapped_Ether_Interface.sol\";\r\nimport \"./interfaces/Membership_Interface.sol\";\r\n\r\n\r\n/**\r\n*The Factory contract sets the standardized variables and also deploys new contracts based on\r\n*these variables for the user.  \r\n*/\r\ncontract Factory {\r\n    using SafeMath for uint256;\r\n    \r\n    /*Variables*/\r\n    //Addresses of the Factory owner and oracle. For oracle information, \r\n    //check www.github.com/DecentralizedDerivatives/Oracles\r\n    address public owner;\r\n    address public oracle_address;\r\n    //Address of the user contract\r\n    address public user_contract;\r\n    //Address of the deployer contract\r\n    address internal deployer_address;\r\n    Deployer_Interface internal deployer;\r\n    address public token;\r\n    //A fee for creating a swap in wei.  Plan is for this to be zero, however can be raised to prevent spam\r\n    uint public fee;\r\n    //swap fee\r\n    uint public swapFee;\r\n    //Duration of swap contract in days\r\n    uint public duration;\r\n    //Multiplier of reference rate.  2x refers to a 50% move generating a 100% move in the contract payout values\r\n    uint public multiplier;\r\n    //Token_ratio refers to the number of DRCT Tokens a party will get based on the number of base tokens.  As an example, 1e15 indicates that a party will get 1000 DRCT Tokens based upon 1 ether of wrapped wei. \r\n    uint public token_ratio;\r\n    //Array of deployed contracts\r\n    address[] public contracts;\r\n    uint[] public startDates;\r\n    address public memberContract;\r\n    uint whitelistedTypes;\r\n    mapping(address => uint) public created_contracts;\r\n    mapping(address => uint) public token_dates;\r\n    mapping(uint => address) public long_tokens;\r\n    mapping(uint => address) public short_tokens;\r\n    mapping(address => uint) public token_type; //1=short 2=long\r\n\r\n    /*Events*/\r\n    //Emitted when a Swap is created\r\n    event ContractCreation(address _sender, address _created);\r\n\r\n    /*Modifiers*/\r\n    modifier onlyOwner() {\r\n        require(msg.sender == owner);\r\n        _;\r\n    }\r\n\r\n    /*Functions*/\r\n    /**\r\n    *@dev Sets the member type/permissions for those whitelisted and owner\r\n    *@param _memberTypes is the list of member types\r\n    */\r\n     constructor(uint _memberTypes) public {\r\n        owner = msg.sender;\r\n        whitelistedTypes=_memberTypes;\r\n    }\r\n\r\n    /**\r\n    *@dev constructor function for cloned factory\r\n    */\r\n    function init(address _owner, uint _memberTypes) public{\r\n        require(owner == address(0));\r\n        owner = _owner;\r\n        whitelistedTypes=_memberTypes;\r\n    }\r\n\r\n    /**\r\n    *@dev Sets the Membership contract address\r\n    *@param _memberContract The new membership address\r\n    */\r\n    function setMemberContract(address _memberContract) public onlyOwner() {\r\n        memberContract = _memberContract;\r\n    }\r\n\r\n\r\n    /**\r\n    *@dev Checks the membership type/permissions for whitelisted members\r\n    *@param _member address to get membership type from\r\n    */\r\n    function isWhitelisted(address _member) public view returns (bool){\r\n        Membership_Interface Member = Membership_Interface(memberContract);\r\n        return Member.getMembershipType(_member)>= whitelistedTypes;\r\n    }\r\n \r\n    /**\r\n    *@dev Gets long and short token addresses based on specified date\r\n    *@param _date \r\n    *@return short and long tokens' addresses\r\n    */\r\n    function getTokens(uint _date) public view returns(address, address){\r\n        return(long_tokens[_date],short_tokens[_date]);\r\n    }\r\n\r\n    /**\r\n    *@dev Gets the type of Token (long and short token) for the specifed \r\n    *token address\r\n    *@param _token address \r\n    *@return token type short = 1 and long = 2\r\n    */\r\n    function getTokenType(address _token) public view returns(uint){\r\n        return(token_type[_token]);\r\n    }\r\n\r\n    /**\r\n    *@dev Updates the fee amount\r\n    *@param _fee is the new fee amount\r\n    */\r\n    function setFee(uint _fee) public onlyOwner() {\r\n        fee = _fee;\r\n    }\r\n\r\n    /**\r\n    *@dev Updates the swap fee amount\r\n    *@param _swapFee is the new swap fee amount\r\n    */\r\n    function setSwapFee(uint _swapFee) public onlyOwner() {\r\n        swapFee = _swapFee;\r\n    }   \r\n\r\n    /**\r\n    *@dev Sets the deployer address\r\n    *@param _deployer is the new deployer address\r\n    */\r\n    function setDeployer(address _deployer) public onlyOwner() {\r\n        deployer_address = _deployer;\r\n        deployer = Deployer_Interface(_deployer);\r\n    }\r\n\r\n    /**\r\n    *@dev Sets the user_contract address\r\n    *@param _userContract is the new userContract address\r\n    */\r\n    function setUserContract(address _userContract) public onlyOwner() {\r\n        user_contract = _userContract;\r\n    }\r\n\r\n    /**\r\n    *@dev Sets token ratio, swap duration, and multiplier variables for a swap.\r\n    *@param _token_ratio the ratio of the tokens\r\n    *@param _duration the duration of the swap, in days\r\n    *@param _multiplier the multiplier used for the swap\r\n    *@param _swapFee the swap fee\r\n    */\r\n    function setVariables(uint _token_ratio, uint _duration, uint _multiplier, uint _swapFee) public onlyOwner() {\r\n        require(_swapFee < 10000);\r\n        token_ratio = _token_ratio;\r\n        duration = _duration;\r\n        multiplier = _multiplier;\r\n        swapFee = _swapFee;\r\n    }\r\n\r\n    /**\r\n    *@dev Sets the address of the base tokens used for the swap\r\n    *@param _token The address of a token to be used  as collateral\r\n    */\r\n    function setBaseToken(address _token) public onlyOwner() {\r\n        token = _token;\r\n    }\r\n\r\n    /**\r\n    *@dev Allows a user to deploy a new swap contract, if they pay the fee\r\n    *@param _start_date the contract start date \r\n    *@pararm _user your address if calling it directly.  Allows you to create on behalf of someone\r\n    *@return new_contract address for he newly created swap address and calls \r\n    *event 'ContractCreation'\r\n    */\r\n    function deployContract(uint _start_date,address _user) public payable returns (address) {\r\n        require(msg.value >= fee && isWhitelisted(_user));\r\n        require(_start_date % 86400 == 0);\r\n        address new_contract = deployer.newContract(_user, user_contract, _start_date);\r\n        contracts.push(new_contract);\r\n        created_contracts[new_contract] = _start_date;\r\n        emit ContractCreation(_user,new_contract);\r\n        return new_contract;\r\n    }\r\n\r\n    /**\r\n    *@dev Deploys DRCT tokens for given start date\r\n    *@param _start_date of contract\r\n    */\r\n    function deployTokenContract(uint _start_date) public{\r\n        address _token;\r\n        require(_start_date % 86400 == 0);\r\n        require(long_tokens[_start_date] == address(0) && short_tokens[_start_date] == address(0));\r\n        _token = new DRCT_Token();\r\n        token_dates[_token] = _start_date;\r\n        long_tokens[_start_date] = _token;\r\n        token_type[_token]=2;\r\n        _token = new DRCT_Token();\r\n        token_type[_token]=1;\r\n        short_tokens[_start_date] = _token;\r\n        token_dates[_token] = _start_date;\r\n        startDates.push(_start_date);\r\n\r\n    }\r\n\r\n    /**\r\n    *@dev Deploys new tokens on a DRCT_Token contract -- called from within a swap\r\n    *@param _supply The number of tokens to create\r\n    *@param _party the address to send the tokens to\r\n    *@param _start_date the start date of the contract      \r\n    *@returns ltoken the address of the created DRCT long tokens\r\n    *@returns stoken the address of the created DRCT short tokens\r\n    *@returns token_ratio The ratio of the created DRCT token\r\n    */\r\n    function createToken(uint _supply, address _party, uint _start_date) public returns (address, address, uint) {\r\n        require(created_contracts[msg.sender] == _start_date);\r\n        address ltoken = long_tokens[_start_date];\r\n        address stoken = short_tokens[_start_date];\r\n        require(ltoken != address(0) && stoken != address(0));\r\n            DRCT_Token drct_interface = DRCT_Token(ltoken);\r\n            drct_interface.createToken(_supply.div(token_ratio), _party,msg.sender);\r\n            drct_interface = DRCT_Token(stoken);\r\n            drct_interface.createToken(_supply.div(token_ratio), _party,msg.sender);\r\n        return (ltoken, stoken, token_ratio);\r\n    }\r\n  \r\n    /**\r\n    *@dev Allows the owner to set a new oracle address\r\n    *@param _new_oracle_address \r\n    */\r\n    function setOracleAddress(address _new_oracle_address) public onlyOwner() {\r\n        oracle_address = _new_oracle_address; \r\n    }\r\n\r\n    /**\r\n    *@dev Allows the owner to set a new owner address\r\n    *@param _new_owner the new owner address\r\n    */\r\n    function setOwner(address _new_owner) public onlyOwner() { \r\n        owner = _new_owner; \r\n    }\r\n\r\n    /**\r\n    *@dev Allows the owner to pull contract creation fees\r\n    *@return the withdrawal fee _val and the balance where is the return function?\r\n    */\r\n    function withdrawFees() public onlyOwner(){\r\n        Wrapped_Ether_Interface token_interface = Wrapped_Ether_Interface(token);\r\n        uint _val = token_interface.balanceOf(address(this));\r\n        if(_val > 0){\r\n            token_interface.withdraw(_val);\r\n        }\r\n        owner.transfer(address(this).balance);\r\n     }\r\n\r\n    /**\r\n    *@dev fallback function\r\n    */ \r\n    function() public payable {\r\n    }\r\n\r\n    /**\r\n    *@dev Returns a tuple of many private variables.\r\n    *The variables from this function are pass through to the TokenLibrary.getVariables function\r\n    *@returns oracle_adress is the address of the oracle\r\n    *@returns duration is the duration of the swap\r\n    *@returns multiplier is the multiplier for the swap\r\n    *@returns token is the address of token\r\n    *@returns _swapFee is the swap fee \r\n    */\r\n    function getVariables() public view returns (address, uint, uint, address,uint){\r\n        return (oracle_address,duration, multiplier, token,swapFee);\r\n    }\r\n\r\n    /**\r\n    *@dev Pays out to a DRCT token\r\n    *@param _party is the address being paid\r\n    *@param _token_add token to pay out\r\n    */\r\n    function payToken(address _party, address _token_add) public {\r\n        require(created_contracts[msg.sender] > 0);\r\n        DRCT_Token drct_interface = DRCT_Token(_token_add);\r\n        drct_interface.pay(_party, msg.sender);\r\n    }\r\n\r\n    /**\r\n    *@dev Counts number of contacts created by this factory\r\n    *@return the number of contracts\r\n    */\r\n    function getCount() public constant returns(uint) {\r\n        return contracts.length;\r\n    }\r\n\r\n    /**\r\n    *@dev Counts number of start dates in this factory\r\n    *@return the number of active start dates\r\n    */\r\n    function getDateCount() public constant returns(uint) {\r\n        return startDates.length;\r\n    }\r\n}\r\n",
  "sourcePath": "C:\\company\\code\\drct_standard\\contracts\\Factory.sol",
  "compiler": {
    "name": "solc",
    "version": "0.4.24+commit.e67f0147.Emscripten.clang"
  },
  "schemaVersion": "2.0.1",
  "updatedAt": "2018-11-07T01:51:07.582Z"
}