{
  "contractName": "Factory",
  "abi": [
    {
      "constant": true,
      "inputs": [],
      "name": "duration",
      "outputs": [
        {
          "name": "",
          "type": "uint256"
        }
      ],
      "payable": false,
      "stateMutability": "view",
      "type": "function"
    },
    {
      "constant": true,
      "inputs": [],
      "name": "multiplier",
      "outputs": [
        {
          "name": "",
          "type": "uint256"
        }
      ],
      "payable": false,
      "stateMutability": "view",
      "type": "function"
    },
    {
      "constant": true,
      "inputs": [
        {
          "name": "",
          "type": "uint256"
        }
      ],
      "name": "short_tokens",
      "outputs": [
        {
          "name": "",
          "type": "address"
        }
      ],
      "payable": false,
      "stateMutability": "view",
      "type": "function"
    },
    {
      "constant": true,
      "inputs": [
        {
          "name": "",
          "type": "uint256"
        }
      ],
      "name": "contracts",
      "outputs": [
        {
          "name": "",
          "type": "address"
        }
      ],
      "payable": false,
      "stateMutability": "view",
      "type": "function"
    },
    {
      "constant": true,
      "inputs": [
        {
          "name": "",
          "type": "address"
        }
      ],
      "name": "created_contracts",
      "outputs": [
        {
          "name": "",
          "type": "uint256"
        }
      ],
      "payable": false,
      "stateMutability": "view",
      "type": "function"
    },
    {
      "constant": true,
      "inputs": [],
      "name": "swapFee",
      "outputs": [
        {
          "name": "",
          "type": "uint256"
        }
      ],
      "payable": false,
      "stateMutability": "view",
      "type": "function"
    },
    {
      "constant": true,
      "inputs": [],
      "name": "token_ratio",
      "outputs": [
        {
          "name": "",
          "type": "uint256"
        }
      ],
      "payable": false,
      "stateMutability": "view",
      "type": "function"
    },
    {
      "constant": true,
      "inputs": [],
      "name": "oracle_address",
      "outputs": [
        {
          "name": "",
          "type": "address"
        }
      ],
      "payable": false,
      "stateMutability": "view",
      "type": "function"
    },
    {
      "constant": true,
      "inputs": [],
      "name": "owner",
      "outputs": [
        {
          "name": "",
          "type": "address"
        }
      ],
      "payable": false,
      "stateMutability": "view",
      "type": "function"
    },
    {
      "constant": true,
      "inputs": [
        {
          "name": "",
          "type": "uint256"
        }
      ],
      "name": "startDates",
      "outputs": [
        {
          "name": "",
          "type": "uint256"
        }
      ],
      "payable": false,
      "stateMutability": "view",
      "type": "function"
    },
    {
      "constant": true,
      "inputs": [],
      "name": "memberContract",
      "outputs": [
        {
          "name": "",
          "type": "address"
        }
      ],
      "payable": false,
      "stateMutability": "view",
      "type": "function"
    },
    {
      "constant": true,
      "inputs": [
        {
          "name": "",
          "type": "address"
        }
      ],
      "name": "token_dates",
      "outputs": [
        {
          "name": "",
          "type": "uint256"
        }
      ],
      "payable": false,
      "stateMutability": "view",
      "type": "function"
    },
    {
      "constant": true,
      "inputs": [],
      "name": "user_contract",
      "outputs": [
        {
          "name": "",
          "type": "address"
        }
      ],
      "payable": false,
      "stateMutability": "view",
      "type": "function"
    },
    {
      "constant": true,
      "inputs": [
        {
          "name": "",
          "type": "uint256"
        }
      ],
      "name": "long_tokens",
      "outputs": [
        {
          "name": "",
          "type": "address"
        }
      ],
      "payable": false,
      "stateMutability": "view",
      "type": "function"
    },
    {
      "constant": true,
      "inputs": [],
      "name": "fee",
      "outputs": [
        {
          "name": "",
          "type": "uint256"
        }
      ],
      "payable": false,
      "stateMutability": "view",
      "type": "function"
    },
    {
      "constant": true,
      "inputs": [],
      "name": "token",
      "outputs": [
        {
          "name": "",
          "type": "address"
        }
      ],
      "payable": false,
      "stateMutability": "view",
      "type": "function"
    },
    {
      "inputs": [],
      "payable": false,
      "stateMutability": "nonpayable",
      "type": "constructor"
    },
    {
      "payable": true,
      "stateMutability": "payable",
      "type": "fallback"
    },
    {
      "anonymous": false,
      "inputs": [
        {
          "indexed": false,
          "name": "_sender",
          "type": "address"
        },
        {
          "indexed": false,
          "name": "_created",
          "type": "address"
        }
      ],
      "name": "ContractCreation",
      "type": "event"
    },
    {
      "constant": false,
      "inputs": [
        {
          "name": "_memberContract",
          "type": "address"
        }
      ],
      "name": "setMemberContract",
      "outputs": [],
      "payable": false,
      "stateMutability": "nonpayable",
      "type": "function"
    },
    {
      "constant": false,
      "inputs": [
        {
          "name": "_memberTypes",
          "type": "uint256[]"
        }
      ],
      "name": "setWhitelistedMemberTypes",
      "outputs": [],
      "payable": false,
      "stateMutability": "nonpayable",
      "type": "function"
    },
    {
      "constant": true,
      "inputs": [
        {
          "name": "_member",
          "type": "address"
        }
      ],
      "name": "isWhitelisted",
      "outputs": [
        {
          "name": "",
          "type": "bool"
        }
      ],
      "payable": false,
      "stateMutability": "view",
      "type": "function"
    },
    {
      "constant": true,
      "inputs": [
        {
          "name": "_date",
          "type": "uint256"
        }
      ],
      "name": "getTokens",
      "outputs": [
        {
          "name": "",
          "type": "address"
        },
        {
          "name": "",
          "type": "address"
        }
      ],
      "payable": false,
      "stateMutability": "view",
      "type": "function"
    },
    {
      "constant": false,
      "inputs": [
        {
          "name": "_fee",
          "type": "uint256"
        },
        {
          "name": "_swapFee",
          "type": "uint256"
        }
      ],
      "name": "setFee",
      "outputs": [],
      "payable": false,
      "stateMutability": "nonpayable",
      "type": "function"
    },
    {
      "constant": false,
      "inputs": [
        {
          "name": "_deployer",
          "type": "address"
        }
      ],
      "name": "setDeployer",
      "outputs": [],
      "payable": false,
      "stateMutability": "nonpayable",
      "type": "function"
    },
    {
      "constant": false,
      "inputs": [
        {
          "name": "_userContract",
          "type": "address"
        }
      ],
      "name": "setUserContract",
      "outputs": [],
      "payable": false,
      "stateMutability": "nonpayable",
      "type": "function"
    },
    {
      "constant": false,
      "inputs": [
        {
          "name": "_token_ratio",
          "type": "uint256"
        },
        {
          "name": "_duration",
          "type": "uint256"
        },
        {
          "name": "_multiplier",
          "type": "uint256"
        }
      ],
      "name": "setVariables",
      "outputs": [],
      "payable": false,
      "stateMutability": "nonpayable",
      "type": "function"
    },
    {
      "constant": false,
      "inputs": [
        {
          "name": "_token",
          "type": "address"
        }
      ],
      "name": "setBaseToken",
      "outputs": [],
      "payable": false,
      "stateMutability": "nonpayable",
      "type": "function"
    },
    {
      "constant": false,
      "inputs": [
        {
          "name": "_start_date",
          "type": "uint256"
        }
      ],
      "name": "deployContract",
      "outputs": [
        {
          "name": "",
          "type": "address"
        }
      ],
      "payable": true,
      "stateMutability": "payable",
      "type": "function"
    },
    {
      "constant": false,
      "inputs": [
        {
          "name": "_start_date",
          "type": "uint256"
        }
      ],
      "name": "deployTokenContract",
      "outputs": [],
      "payable": false,
      "stateMutability": "nonpayable",
      "type": "function"
    },
    {
      "constant": false,
      "inputs": [
        {
          "name": "_supply",
          "type": "uint256"
        },
        {
          "name": "_party",
          "type": "address"
        },
        {
          "name": "_start_date",
          "type": "uint256"
        }
      ],
      "name": "createToken",
      "outputs": [
        {
          "name": "",
          "type": "address"
        },
        {
          "name": "",
          "type": "address"
        },
        {
          "name": "",
          "type": "uint256"
        }
      ],
      "payable": false,
      "stateMutability": "nonpayable",
      "type": "function"
    },
    {
      "constant": false,
      "inputs": [
        {
          "name": "_new_oracle_address",
          "type": "address"
        }
      ],
      "name": "setOracleAddress",
      "outputs": [],
      "payable": false,
      "stateMutability": "nonpayable",
      "type": "function"
    },
    {
      "constant": false,
      "inputs": [
        {
          "name": "_new_owner",
          "type": "address"
        }
      ],
      "name": "setOwner",
      "outputs": [],
      "payable": false,
      "stateMutability": "nonpayable",
      "type": "function"
    },
    {
      "constant": false,
      "inputs": [],
      "name": "withdrawFees",
      "outputs": [],
      "payable": false,
      "stateMutability": "nonpayable",
      "type": "function"
    },
    {
      "constant": true,
      "inputs": [],
      "name": "getVariables",
      "outputs": [
        {
          "name": "",
          "type": "address"
        },
        {
          "name": "",
          "type": "uint256"
        },
        {
          "name": "",
          "type": "uint256"
        },
        {
          "name": "",
          "type": "address"
        },
        {
          "name": "",
          "type": "uint256"
        }
      ],
      "payable": false,
      "stateMutability": "view",
      "type": "function"
    },
    {
      "constant": false,
      "inputs": [
        {
          "name": "_party",
          "type": "address"
        },
        {
          "name": "_token_add",
          "type": "address"
        }
      ],
      "name": "payToken",
      "outputs": [],
      "payable": false,
      "stateMutability": "nonpayable",
      "type": "function"
    },
    {
      "constant": true,
      "inputs": [],
      "name": "getCount",
      "outputs": [
        {
          "name": "",
          "type": "uint256"
        }
      ],
      "payable": false,
      "stateMutability": "view",
      "type": "function"
    },
    {
      "constant": true,
      "inputs": [],
      "name": "getDateCount",
      "outputs": [
        {
          "name": "",
          "type": "uint256"
        }
      ],
      "payable": false,
      "stateMutability": "view",
      "type": "function"
    }
  ],
  "bytecode": "0x608060405234801561001057600080fd5b50336000806101000a81548173ffffffffffffffffffffffffffffffffffffffff021916908373ffffffffffffffffffffffffffffffffffffffff16021790555061354e806100606000396000f3006080604052600436106101b7576000357c0100000000000000000000000000000000000000000000000000000000900463ffffffff1680630e2b75cc146101b95780630f90b83a1461021f5780630fb5a6b41461024c57806313af40351461027757806316bb6c13146102ba5780631b3ed722146102fd5780631cf41a81146103285780632a7292d014610388578063316b13b41461045957806331fa76db1461049c5780633af32abf14610509578063474da79a14610564578063476343ee146105d15780634c69c00f146105e85780634efb04ff1461062b57806352f7c9881461068257806354cf2aeb146106b95780635c5991d4146106e457806362628e661461070f5780637e0c1792146107505780638da5cb5b146107a757806394aef022146107fe578063962147351461089d578063a1206d4e146108e0578063a55e937014610923578063a87d942c1461094e578063b266c66114610979578063c40cf4eb146109ba578063c88b721914610a11578063d3749a1514610a68578063d3c9cc2614610abf578063dc54d91914610b5f578063ddca3f4314610bcc578063ecb1451914610bf7578063fc0c546a14610c5a575b005b3480156101c557600080fd5b5061021d60048036038101908080359060200190820180359060200190808060200260200160405190810160405280939291908181526020018383602002808284378201915050505050509192919290505050610cb1565b005b34801561022b57600080fd5b5061024a60048036038101908080359060200190929190505050610d9c565b005b34801561025857600080fd5b506102616110ab565b6040518082815260200191505060405180910390f35b34801561028357600080fd5b506102b8600480360381019080803573ffffffffffffffffffffffffffffffffffffffff1690602001909291905050506110b1565b005b3480156102c657600080fd5b506102fb600480360381019080803573ffffffffffffffffffffffffffffffffffffffff16906020019092919050505061114f565b005b34801561030957600080fd5b506103126111ee565b6040518082815260200191505060405180910390f35b610346600480360381019080803590602001909291905050506111f4565b604051808273ffffffffffffffffffffffffffffffffffffffff1673ffffffffffffffffffffffffffffffffffffffff16815260200191505060405180910390f35b34801561039457600080fd5b506103dd60048036038101908080359060200190929190803573ffffffffffffffffffffffffffffffffffffffff169060200190929190803590602001909291905050506114d8565b604051808473ffffffffffffffffffffffffffffffffffffffff1673ffffffffffffffffffffffffffffffffffffffff1681526020018373ffffffffffffffffffffffffffffffffffffffff1673ffffffffffffffffffffffffffffffffffffffff168152602001828152602001935050505060405180910390f35b34801561046557600080fd5b5061049a600480360381019080803573ffffffffffffffffffffffffffffffffffffffff169060200190929190505050611832565b005b3480156104a857600080fd5b506104c7600480360381019080803590602001909291905050506118d1565b604051808273ffffffffffffffffffffffffffffffffffffffff1673ffffffffffffffffffffffffffffffffffffffff16815260200191505060405180910390f35b34801561051557600080fd5b5061054a600480360381019080803573ffffffffffffffffffffffffffffffffffffffff169060200190929190505050611904565b604051808215151515815260200191505060405180910390f35b34801561057057600080fd5b5061058f60048036038101908080359060200190929190505050611a2a565b604051808273ffffffffffffffffffffffffffffffffffffffff1673ffffffffffffffffffffffffffffffffffffffff16815260200191505060405180910390f35b3480156105dd57600080fd5b506105e6611a68565b005b3480156105f457600080fd5b50610629600480360381019080803573ffffffffffffffffffffffffffffffffffffffff169060200190929190505050611cd7565b005b34801561063757600080fd5b5061066c600480360381019080803573ffffffffffffffffffffffffffffffffffffffff169060200190929190505050611d76565b6040518082815260200191505060405180910390f35b34801561068e57600080fd5b506106b76004803603810190808035906020019092919080359060200190929190505050611d8e565b005b3480156106c557600080fd5b506106ce611e0b565b6040518082815260200191505060405180910390f35b3480156106f057600080fd5b506106f9611e11565b6040518082815260200191505060405180910390f35b34801561071b57600080fd5b5061074e600480360381019080803590602001909291908035906020019092919080359060200190929190505050611e17565b005b34801561075c57600080fd5b50610765611e8c565b604051808273ffffffffffffffffffffffffffffffffffffffff1673ffffffffffffffffffffffffffffffffffffffff16815260200191505060405180910390f35b3480156107b357600080fd5b506107bc611eb2565b604051808273ffffffffffffffffffffffffffffffffffffffff1673ffffffffffffffffffffffffffffffffffffffff16815260200191505060405180910390f35b34801561080a57600080fd5b50610813611ed7565b604051808673ffffffffffffffffffffffffffffffffffffffff1673ffffffffffffffffffffffffffffffffffffffff1681526020018581526020018481526020018373ffffffffffffffffffffffffffffffffffffffff1673ffffffffffffffffffffffffffffffffffffffff1681526020018281526020019550505050505060405180910390f35b3480156108a957600080fd5b506108de600480360381019080803573ffffffffffffffffffffffffffffffffffffffff169060200190929190505050611f3f565b005b3480156108ec57600080fd5b50610921600480360381019080803573ffffffffffffffffffffffffffffffffffffffff16906020019092919050505061201f565b005b34801561092f57600080fd5b506109386120be565b6040518082815260200191505060405180910390f35b34801561095a57600080fd5b506109636120cb565b6040518082815260200191505060405180910390f35b34801561098557600080fd5b506109a4600480360381019080803590602001909291905050506120d8565b6040518082815260200191505060405180910390f35b3480156109c657600080fd5b506109cf6120fb565b604051808273ffffffffffffffffffffffffffffffffffffffff1673ffffffffffffffffffffffffffffffffffffffff16815260200191505060405180910390f35b348015610a1d57600080fd5b50610a52600480360381019080803573ffffffffffffffffffffffffffffffffffffffff169060200190929190505050612121565b6040518082815260200191505060405180910390f35b348015610a7457600080fd5b50610a7d612139565b604051808273ffffffffffffffffffffffffffffffffffffffff1673ffffffffffffffffffffffffffffffffffffffff16815260200191505060405180910390f35b348015610acb57600080fd5b50610aea6004803603810190808035906020019092919050505061215f565b604051808373ffffffffffffffffffffffffffffffffffffffff1673ffffffffffffffffffffffffffffffffffffffff1681526020018273ffffffffffffffffffffffffffffffffffffffff1673ffffffffffffffffffffffffffffffffffffffff1681526020019250505060405180910390f35b348015610b6b57600080fd5b50610b8a600480360381019080803590602001909291905050506121d3565b604051808273ffffffffffffffffffffffffffffffffffffffff1673ffffffffffffffffffffffffffffffffffffffff16815260200191505060405180910390f35b348015610bd857600080fd5b50610be1612206565b6040518082815260200191505060405180910390f35b348015610c0357600080fd5b50610c58600480360381019080803573ffffffffffffffffffffffffffffffffffffffff169060200190929190803573ffffffffffffffffffffffffffffffffffffffff16906020019092919050505061220c565b005b348015610c6657600080fd5b50610c6f61234a565b604051808273ffffffffffffffffffffffffffffffffffffffff1673ffffffffffffffffffffffffffffffffffffffff16815260200191505060405180910390f35b60008060009054906101000a900473ffffffffffffffffffffffffffffffffffffffff1673ffffffffffffffffffffffffffffffffffffffff163373ffffffffffffffffffffffffffffffffffffffff16141515610d0e57600080fd5b6000600e600080815260200190815260200160002060006101000a81548160ff021916908315150217905550600090505b8151811015610d98576001600e60008484815181101515610d5c57fe5b90602001906020020151815260200190815260200160002060006101000a81548160ff0219169083151502179055508080600101915050610d3f565b5050565b6000806201518083811515610dad57fe5b06141515610dba57600080fd5b600073ffffffffffffffffffffffffffffffffffffffff166011600084815260200190815260200160002060009054906101000a900473ffffffffffffffffffffffffffffffffffffffff1673ffffffffffffffffffffffffffffffffffffffff16148015610e885750600073ffffffffffffffffffffffffffffffffffffffff166012600084815260200190815260200160002060009054906101000a900473ffffffffffffffffffffffffffffffffffffffff1673ffffffffffffffffffffffffffffffffffffffff16145b1515610e9357600080fd5b30610e9c61238b565b808273ffffffffffffffffffffffffffffffffffffffff1673ffffffffffffffffffffffffffffffffffffffff168152602001915050604051809103906000f080158015610eee573d6000803e3d6000fd5b50905081601060008373ffffffffffffffffffffffffffffffffffffffff1673ffffffffffffffffffffffffffffffffffffffff16815260200190815260200160002081905550806011600084815260200190815260200160002060006101000a81548173ffffffffffffffffffffffffffffffffffffffff021916908373ffffffffffffffffffffffffffffffffffffffff16021790555030610f9061238b565b808273ffffffffffffffffffffffffffffffffffffffff1673ffffffffffffffffffffffffffffffffffffffff168152602001915050604051809103906000f080158015610fe2573d6000803e3d6000fd5b509050806012600084815260200190815260200160002060006101000a81548173ffffffffffffffffffffffffffffffffffffffff021916908373ffffffffffffffffffffffffffffffffffffffff16021790555081601060008373ffffffffffffffffffffffffffffffffffffffff1673ffffffffffffffffffffffffffffffffffffffff16815260200190815260200160002081905550600c8290806001815401808255809150509060018203906000526020600020016000909192909190915055505050565b60085481565b6000809054906101000a900473ffffffffffffffffffffffffffffffffffffffff1673ffffffffffffffffffffffffffffffffffffffff163373ffffffffffffffffffffffffffffffffffffffff1614151561110c57600080fd5b806000806101000a81548173ffffffffffffffffffffffffffffffffffffffff021916908373ffffffffffffffffffffffffffffffffffffffff16021790555050565b6000809054906101000a900473ffffffffffffffffffffffffffffffffffffffff1673ffffffffffffffffffffffffffffffffffffffff163373ffffffffffffffffffffffffffffffffffffffff161415156111aa57600080fd5b80600560006101000a81548173ffffffffffffffffffffffffffffffffffffffff021916908373ffffffffffffffffffffffffffffffffffffffff16021790555050565b60095481565b600080600654341015801561120e575061120d33611904565b5b151561121957600080fd5b6000620151808481151561122957fe5b0614151561123657600080fd5b600460009054906101000a900473ffffffffffffffffffffffffffffffffffffffff1673ffffffffffffffffffffffffffffffffffffffff1663548dd51e33600260009054906101000a900473ffffffffffffffffffffffffffffffffffffffff16866040518463ffffffff167c0100000000000000000000000000000000000000000000000000000000028152600401808473ffffffffffffffffffffffffffffffffffffffff1673ffffffffffffffffffffffffffffffffffffffff1681526020018373ffffffffffffffffffffffffffffffffffffffff1673ffffffffffffffffffffffffffffffffffffffff1681526020018281526020019350505050602060405180830381600087803b15801561135157600080fd5b505af1158015611365573d6000803e3d6000fd5b505050506040513d602081101561137b57600080fd5b81019080805190602001909291905050509050600b8190806001815401808255809150509060018203906000526020600020016000909192909190916101000a81548173ffffffffffffffffffffffffffffffffffffffff021916908373ffffffffffffffffffffffffffffffffffffffff1602179055505082600f60008373ffffffffffffffffffffffffffffffffffffffff1673ffffffffffffffffffffffffffffffffffffffff168152602001908152602001600020819055507fb6c9f70724e4ce6b9bca2eace320dd3164063f0a0b229f8c4705ef05be829c253382604051808373ffffffffffffffffffffffffffffffffffffffff1673ffffffffffffffffffffffffffffffffffffffff1681526020018273ffffffffffffffffffffffffffffffffffffffff1673ffffffffffffffffffffffffffffffffffffffff1681526020019250505060405180910390a180915050919050565b60008060008060008086600f60003373ffffffffffffffffffffffffffffffffffffffff1673ffffffffffffffffffffffffffffffffffffffff1681526020019081526020016000205414151561152e57600080fd5b6011600088815260200190815260200160002060009054906101000a900473ffffffffffffffffffffffffffffffffffffffff1692506012600088815260200190815260200160002060009054906101000a900473ffffffffffffffffffffffffffffffffffffffff169150600073ffffffffffffffffffffffffffffffffffffffff168373ffffffffffffffffffffffffffffffffffffffff16141580156116045750600073ffffffffffffffffffffffffffffffffffffffff168273ffffffffffffffffffffffffffffffffffffffff1614155b151561160f57600080fd5b8290508073ffffffffffffffffffffffffffffffffffffffff1663e6ed51b7611643600a548c61237090919063ffffffff16565b8a336040518463ffffffff167c0100000000000000000000000000000000000000000000000000000000028152600401808481526020018373ffffffffffffffffffffffffffffffffffffffff1673ffffffffffffffffffffffffffffffffffffffff1681526020018273ffffffffffffffffffffffffffffffffffffffff1673ffffffffffffffffffffffffffffffffffffffff1681526020019350505050600060405180830381600087803b1580156116fd57600080fd5b505af1158015611711573d6000803e3d6000fd5b505050508190508073ffffffffffffffffffffffffffffffffffffffff1663e6ed51b7611749600a548c61237090919063ffffffff16565b8a336040518463ffffffff167c0100000000000000000000000000000000000000000000000000000000028152600401808481526020018373ffffffffffffffffffffffffffffffffffffffff1673ffffffffffffffffffffffffffffffffffffffff1681526020018273ffffffffffffffffffffffffffffffffffffffff1673ffffffffffffffffffffffffffffffffffffffff1681526020019350505050600060405180830381600087803b15801561180357600080fd5b505af1158015611817573d6000803e3d6000fd5b505050508282600a5495509550955050505093509350939050565b6000809054906101000a900473ffffffffffffffffffffffffffffffffffffffff1673ffffffffffffffffffffffffffffffffffffffff163373ffffffffffffffffffffffffffffffffffffffff1614151561188d57600080fd5b80600d60006101000a81548173ffffffffffffffffffffffffffffffffffffffff021916908373ffffffffffffffffffffffffffffffffffffffff16021790555050565b60126020528060005260406000206000915054906101000a900473ffffffffffffffffffffffffffffffffffffffff1681565b600080600d60009054906101000a900473ffffffffffffffffffffffffffffffffffffffff169050600e60008273ffffffffffffffffffffffffffffffffffffffff1663b5b7916b866040518263ffffffff167c0100000000000000000000000000000000000000000000000000000000028152600401808273ffffffffffffffffffffffffffffffffffffffff1673ffffffffffffffffffffffffffffffffffffffff168152602001915050602060405180830381600087803b1580156119cb57600080fd5b505af11580156119df573d6000803e3d6000fd5b505050506040513d60208110156119f557600080fd5b8101908080519060200190929190505050815260200190815260200160002060009054906101000a900460ff16915050919050565b600b81815481101515611a3957fe5b906000526020600020016000915054906101000a900473ffffffffffffffffffffffffffffffffffffffff1681565b6000806000809054906101000a900473ffffffffffffffffffffffffffffffffffffffff1673ffffffffffffffffffffffffffffffffffffffff163373ffffffffffffffffffffffffffffffffffffffff16141515611ac657600080fd5b600560009054906101000a900473ffffffffffffffffffffffffffffffffffffffff1691508173ffffffffffffffffffffffffffffffffffffffff166370a08231306040518263ffffffff167c0100000000000000000000000000000000000000000000000000000000028152600401808273ffffffffffffffffffffffffffffffffffffffff1673ffffffffffffffffffffffffffffffffffffffff168152602001915050602060405180830381600087803b158015611b8657600080fd5b505af1158015611b9a573d6000803e3d6000fd5b505050506040513d6020811015611bb057600080fd5b810190808051906020019092919050505090506000811115611c54578173ffffffffffffffffffffffffffffffffffffffff16632e1a7d4d826040518263ffffffff167c010000000000000000000000000000000000000000000000000000000002815260040180828152602001915050600060405180830381600087803b158015611c3b57600080fd5b505af1158015611c4f573d6000803e3d6000fd5b505050505b6000809054906101000a900473ffffffffffffffffffffffffffffffffffffffff1673ffffffffffffffffffffffffffffffffffffffff166108fc3073ffffffffffffffffffffffffffffffffffffffff16319081150290604051600060405180830381858888f19350505050158015611cd2573d6000803e3d6000fd5b505050565b6000809054906101000a900473ffffffffffffffffffffffffffffffffffffffff1673ffffffffffffffffffffffffffffffffffffffff163373ffffffffffffffffffffffffffffffffffffffff16141515611d3257600080fd5b80600160006101000a81548173ffffffffffffffffffffffffffffffffffffffff021916908373ffffffffffffffffffffffffffffffffffffffff16021790555050565b600f6020528060005260406000206000915090505481565b6000809054906101000a900473ffffffffffffffffffffffffffffffffffffffff1673ffffffffffffffffffffffffffffffffffffffff163373ffffffffffffffffffffffffffffffffffffffff16141515611de957600080fd5b61271081101515611df957600080fd5b81600681905550806007819055505050565b60075481565b600a5481565b6000809054906101000a900473ffffffffffffffffffffffffffffffffffffffff1673ffffffffffffffffffffffffffffffffffffffff163373ffffffffffffffffffffffffffffffffffffffff16141515611e7257600080fd5b82600a819055508160088190555080600981905550505050565b600160009054906101000a900473ffffffffffffffffffffffffffffffffffffffff1681565b6000809054906101000a900473ffffffffffffffffffffffffffffffffffffffff1681565b6000806000806000600160009054906101000a900473ffffffffffffffffffffffffffffffffffffffff16600854600954600560009054906101000a900473ffffffffffffffffffffffffffffffffffffffff16600754945094509450945094509091929394565b6000809054906101000a900473ffffffffffffffffffffffffffffffffffffffff1673ffffffffffffffffffffffffffffffffffffffff163373ffffffffffffffffffffffffffffffffffffffff16141515611f9a57600080fd5b80600360006101000a81548173ffffffffffffffffffffffffffffffffffffffff021916908373ffffffffffffffffffffffffffffffffffffffff16021790555080600460006101000a81548173ffffffffffffffffffffffffffffffffffffffff021916908373ffffffffffffffffffffffffffffffffffffffff16021790555050565b6000809054906101000a900473ffffffffffffffffffffffffffffffffffffffff1673ffffffffffffffffffffffffffffffffffffffff163373ffffffffffffffffffffffffffffffffffffffff1614151561207a57600080fd5b80600260006101000a81548173ffffffffffffffffffffffffffffffffffffffff021916908373ffffffffffffffffffffffffffffffffffffffff16021790555050565b6000600c80549050905090565b6000600b80549050905090565b600c818154811015156120e757fe5b906000526020600020016000915090505481565b600d60009054906101000a900473ffffffffffffffffffffffffffffffffffffffff1681565b60106020528060005260406000206000915090505481565b600260009054906101000a900473ffffffffffffffffffffffffffffffffffffffff1681565b6000806011600084815260200190815260200160002060009054906101000a900473ffffffffffffffffffffffffffffffffffffffff166012600085815260200190815260200160002060009054906101000a900473ffffffffffffffffffffffffffffffffffffffff1691509150915091565b60116020528060005260406000206000915054906101000a900473ffffffffffffffffffffffffffffffffffffffff1681565b60065481565b600080600f60003373ffffffffffffffffffffffffffffffffffffffff1673ffffffffffffffffffffffffffffffffffffffff1681526020019081526020016000205411151561225b57600080fd5b8190508073ffffffffffffffffffffffffffffffffffffffff1663bd0af85d84336040518363ffffffff167c0100000000000000000000000000000000000000000000000000000000028152600401808373ffffffffffffffffffffffffffffffffffffffff1673ffffffffffffffffffffffffffffffffffffffff1681526020018273ffffffffffffffffffffffffffffffffffffffff1673ffffffffffffffffffffffffffffffffffffffff16815260200192505050600060405180830381600087803b15801561232d57600080fd5b505af1158015612341573d6000803e3d6000fd5b50505050505050565b600560009054906101000a900473ffffffffffffffffffffffffffffffffffffffff1681565b600080828481151561237e57fe5b0490508091505092915050565b6040516111878061239c833901905600608060405234801561001057600080fd5b5060405160208061118783398101806040528101908080519060200190929190505050600073__DRCTLibrary___________________________63ad4848d29091836040518363ffffffff167c0100000000000000000000000000000000000000000000000000000000028152600401808381526020018273ffffffffffffffffffffffffffffffffffffffff1673ffffffffffffffffffffffffffffffffffffffff1681526020019250505060006040518083038186803b1580156100d557600080fd5b505af41580156100e9573d6000803e3d6000fd5b505050505061108a806100fd6000396000f3006080604052600436106100ba576000357c0100000000000000000000000000000000000000000000000000000000900463ffffffff168063095ea7b3146100bf578063174dcea81461012457806318160ddd146101b857806323b872dd146101e357806370a08231146102685780638811a0ae146102bf5780638dfda5ae14610316578063a7c3230a1461038d578063a9059cbb146103eb578063bd0af85d14610450578063dd62ed3e146104b3578063e6ed51b71461052a575b600080fd5b3480156100cb57600080fd5b5061010a600480360381019080803573ffffffffffffffffffffffffffffffffffffffff16906020019092919080359060200190929190505050610597565b604051808215151515815260200191505060405180910390f35b34801561013057600080fd5b5061016f60048036038101908080359060200190929190803573ffffffffffffffffffffffffffffffffffffffff169060200190929190505050610685565b604051808381526020018273ffffffffffffffffffffffffffffffffffffffff1673ffffffffffffffffffffffffffffffffffffffff1681526020019250505060405180910390f35b3480156101c457600080fd5b506101cd610781565b6040518082815260200191505060405180910390f35b3480156101ef57600080fd5b5061024e600480360381019080803573ffffffffffffffffffffffffffffffffffffffff169060200190929190803573ffffffffffffffffffffffffffffffffffffffff16906020019092919080359060200190929190505050610830565b604051808215151515815260200191505060405180910390f35b34801561027457600080fd5b506102a9600480360381019080803573ffffffffffffffffffffffffffffffffffffffff169060200190929190505050610953565b6040518082815260200191505060405180910390f35b3480156102cb57600080fd5b50610300600480360381019080803573ffffffffffffffffffffffffffffffffffffffff169060200190929190505050610a38565b6040518082815260200191505060405180910390f35b34801561032257600080fd5b50610377600480360381019080803573ffffffffffffffffffffffffffffffffffffffff169060200190929190803573ffffffffffffffffffffffffffffffffffffffff169060200190929190505050610b1d565b6040518082815260200191505060405180910390f35b34801561039957600080fd5b506103a2610c37565b604051808373ffffffffffffffffffffffffffffffffffffffff1673ffffffffffffffffffffffffffffffffffffffff1681526020018281526020019250505060405180910390f35b3480156103f757600080fd5b50610436600480360381019080803573ffffffffffffffffffffffffffffffffffffffff16906020019092919080359060200190929190505050610c69565b604051808215151515815260200191505060405180910390f35b34801561045c57600080fd5b506104b1600480360381019080803573ffffffffffffffffffffffffffffffffffffffff169060200190929190803573ffffffffffffffffffffffffffffffffffffffff169060200190929190505050610d57565b005b3480156104bf57600080fd5b50610514600480360381019080803573ffffffffffffffffffffffffffffffffffffffff169060200190929190803573ffffffffffffffffffffffffffffffffffffffff169060200190929190505050610e49565b6040518082815260200191505060405180910390f35b34801561053657600080fd5b5061059560048036038101908080359060200190929190803573ffffffffffffffffffffffffffffffffffffffff169060200190929190803573ffffffffffffffffffffffffffffffffffffffff169060200190929190505050610f63565b005b60008073__DRCTLibrary___________________________634538d2c6909185856040518463ffffffff167c0100000000000000000000000000000000000000000000000000000000028152600401808481526020018373ffffffffffffffffffffffffffffffffffffffff1673ffffffffffffffffffffffffffffffffffffffff168152602001828152602001935050505060206040518083038186803b15801561064257600080fd5b505af4158015610656573d6000803e3d6000fd5b505050506040513d602081101561066c57600080fd5b8101908080519060200190929190505050905092915050565b600080600073__DRCTLibrary___________________________6334aeb164909186866040518463ffffffff167c0100000000000000000000000000000000000000000000000000000000028152600401808481526020018381526020018273ffffffffffffffffffffffffffffffffffffffff1673ffffffffffffffffffffffffffffffffffffffff1681526020019350505050604080518083038186803b15801561073157600080fd5b505af4158015610745573d6000803e3d6000fd5b505050506040513d604081101561075b57600080fd5b810190808051906020019092919080519060200190929190505050915091509250929050565b60008073__DRCTLibrary___________________________63d973df8690916040518263ffffffff167c01000000000000000000000000000000000000000000000000000000000281526004018082815260200191505060206040518083038186803b1580156107f057600080fd5b505af4158015610804573d6000803e3d6000fd5b505050506040513d602081101561081a57600080fd5b8101908080519060200190929190505050905090565b60008073__DRCTLibrary___________________________632eff549c90918686866040518563ffffffff167c0100000000000000000000000000000000000000000000000000000000028152600401808581526020018473ffffffffffffffffffffffffffffffffffffffff1673ffffffffffffffffffffffffffffffffffffffff1681526020018373ffffffffffffffffffffffffffffffffffffffff1673ffffffffffffffffffffffffffffffffffffffff16815260200182815260200194505050505060206040518083038186803b15801561090f57600080fd5b505af4158015610923573d6000803e3d6000fd5b505050506040513d602081101561093957600080fd5b810190808051906020019092919050505090509392505050565b60008073__DRCTLibrary___________________________63e2d643469091846040518363ffffffff167c0100000000000000000000000000000000000000000000000000000000028152600401808381526020018273ffffffffffffffffffffffffffffffffffffffff1673ffffffffffffffffffffffffffffffffffffffff1681526020019250505060206040518083038186803b1580156109f657600080fd5b505af4158015610a0a573d6000803e3d6000fd5b505050506040513d6020811015610a2057600080fd5b81019080805190602001909291905050509050919050565b60008073__DRCTLibrary___________________________632b545c689091846040518363ffffffff167c0100000000000000000000000000000000000000000000000000000000028152600401808381526020018273ffffffffffffffffffffffffffffffffffffffff1673ffffffffffffffffffffffffffffffffffffffff1681526020019250505060206040518083038186803b158015610adb57600080fd5b505af4158015610aef573d6000803e3d6000fd5b505050506040513d6020811015610b0557600080fd5b81019080805190602001909291905050509050919050565b60008073__DRCTLibrary___________________________63bf435c37909185856040518463ffffffff167c0100000000000000000000000000000000000000000000000000000000028152600401808481526020018373ffffffffffffffffffffffffffffffffffffffff1673ffffffffffffffffffffffffffffffffffffffff1681526020018273ffffffffffffffffffffffffffffffffffffffff1673ffffffffffffffffffffffffffffffffffffffff168152602001935050505060206040518083038186803b158015610bf457600080fd5b505af4158015610c08573d6000803e3d6000fd5b505050506040513d6020811015610c1e57600080fd5b8101908080519060200190929190505050905092915050565b60008060000160009054906101000a900473ffffffffffffffffffffffffffffffffffffffff16908060010154905082565b60008073__DRCTLibrary___________________________63f2b156db909185856040518463ffffffff167c0100000000000000000000000000000000000000000000000000000000028152600401808481526020018373ffffffffffffffffffffffffffffffffffffffff1673ffffffffffffffffffffffffffffffffffffffff168152602001828152602001935050505060206040518083038186803b158015610d1457600080fd5b505af4158015610d28573d6000803e3d6000fd5b505050506040513d6020811015610d3e57600080fd5b8101908080519060200190929190505050905092915050565b600073__DRCTLibrary___________________________63486e5569909184846040518463ffffffff167c0100000000000000000000000000000000000000000000000000000000028152600401808481526020018373ffffffffffffffffffffffffffffffffffffffff1673ffffffffffffffffffffffffffffffffffffffff1681526020018273ffffffffffffffffffffffffffffffffffffffff1673ffffffffffffffffffffffffffffffffffffffff168152602001935050505060006040518083038186803b158015610e2d57600080fd5b505af4158015610e41573d6000803e3d6000fd5b505050505050565b60008073__DRCTLibrary___________________________63b1020f37909185856040518463ffffffff167c0100000000000000000000000000000000000000000000000000000000028152600401808481526020018373ffffffffffffffffffffffffffffffffffffffff1673ffffffffffffffffffffffffffffffffffffffff1681526020018273ffffffffffffffffffffffffffffffffffffffff1673ffffffffffffffffffffffffffffffffffffffff168152602001935050505060206040518083038186803b158015610f2057600080fd5b505af4158015610f34573d6000803e3d6000fd5b505050506040513d6020811015610f4a57600080fd5b8101908080519060200190929190505050905092915050565b600073__DRCTLibrary___________________________6326f0385d90918585856040518563ffffffff167c0100000000000000000000000000000000000000000000000000000000028152600401808581526020018481526020018373ffffffffffffffffffffffffffffffffffffffff1673ffffffffffffffffffffffffffffffffffffffff1681526020018273ffffffffffffffffffffffffffffffffffffffff1673ffffffffffffffffffffffffffffffffffffffff16815260200194505050505060006040518083038186803b15801561104157600080fd5b505af4158015611055573d6000803e3d6000fd5b505050505050505600a165627a7a723058201cd8a9d4a6aa1d0d7d785f22b447bdab56b535454a698694e6ae8b06fd5204910029a165627a7a7230582083053a4a2d579b13c313fd0870d66e2b15aefb9c8308192711a620476bb168ca0029",
  "source": "pragma solidity ^0.4.21;\r\n\r\nimport \"./interfaces/Deployer_Interface.sol\";\r\nimport \"./DRCT_Token.sol\";\r\nimport \"./libraries/SafeMath.sol\";\r\nimport \"./interfaces/Wrapped_Ether_Interface.sol\";\r\nimport \"./interfaces/Membership_Interface.sol\";\r\n\r\n\r\n/**\r\n*The Factory contract sets the standardized variables and also deploys new contracts based on\r\n*these variables for the user.  \r\n*/\r\ncontract Factory {\r\n    using SafeMath for uint256;\r\n    \r\n    /*Variables*/\r\n    //Addresses of the Factory owner and oracle. For oracle information, \r\n    //check www.github.com/DecentralizedDerivatives/Oracles\r\n    address public owner;\r\n    address public oracle_address;\r\n    //Address of the user contract\r\n    address public user_contract;\r\n    //Address of the deployer contract\r\n    address internal deployer_address;\r\n    Deployer_Interface internal deployer;\r\n    address public token;\r\n    //A fee for creating a swap in wei.  Plan is for this to be zero, however can be raised to prevent spam\r\n    uint public fee;\r\n    uint public swapFee;\r\n    //Duration of swap contract in days\r\n    uint public duration;\r\n    //Multiplier of reference rate.  2x refers to a 50% move generating a 100% move in the contract payout values\r\n    uint public multiplier;\r\n    //Token_ratio refers to the number of DRCT Tokens a party will get based on the number of base tokens.  As an example, 1e15 indicates that a party will get 1000 DRCT Tokens based upon 1 ether of wrapped wei. \r\n    uint public token_ratio;\r\n    //Array of deployed contracts\r\n    address[] public contracts;\r\n    uint[] public startDates;\r\n    address public memberContract;\r\n    mapping(uint => bool) whitelistedTypes;\r\n    mapping(address => uint) public created_contracts;\r\n    mapping(address => uint) public token_dates;\r\n    mapping(uint => address) public long_tokens;\r\n    mapping(uint => address) public short_tokens;\r\n\r\n    /*Events*/\r\n    //Emitted when a Swap is created\r\n    event ContractCreation(address _sender, address _created);\r\n\r\n    /*Modifiers*/\r\n    modifier onlyOwner() {\r\n        require(msg.sender == owner);\r\n        _;\r\n    }\r\n\r\n    /*Functions*/\r\n    /**\r\n    *@dev Constructor - Sets owner\r\n    */\r\n    function Factory() public {\r\n        owner = msg.sender;\r\n    }\r\n\r\n    /**\r\n    @param _memberContract address\r\n    */\r\n    function setMemberContract(address _memberContract) public onlyOwner() {\r\n        memberContract = _memberContract;\r\n    }\r\n    \r\n    /**\r\n    @dev assigns member types\r\n    @param _memberTypes member types\r\n    */\r\n    function setWhitelistedMemberTypes(uint[] _memberTypes) public onlyOwner(){\r\n        whitelistedTypes[0] = false;\r\n        for(uint i = 0; i<_memberTypes.length;i++){\r\n            whitelistedTypes[_memberTypes[i]] = true;\r\n        }\r\n    }\r\n\r\n    /**\r\n    *@dev checks if member is whitelisted\r\n    *@param _member address\r\n    *@return true if member is whitelited\r\n    */\r\n    function isWhitelisted(address _member) public view returns (bool){\r\n        Membership_Interface Member = Membership_Interface(memberContract);\r\n        return whitelistedTypes[Member.getMembershipType(_member)];\r\n    }\r\n    \r\n\r\n    /**\r\n    *@dev Gets long and short token addresses based on specified date\r\n    *@param _date\r\n    *@return short and long tokens' addresses for the date specified\r\n    */\r\n    function getTokens(uint _date) public view returns(address, address){\r\n        return(long_tokens[_date],short_tokens[_date]);\r\n    }\r\n\r\n    /**\r\n    *Updates the fee amount\r\n    *@param _fee The new fee amount(in wei) / cost to deploy contract\r\n    *@param _swapFee The new swap fee amount ( self.token_amount = self.token_amount.mul(10000-fee).div(10000);)\r\n    *@Note 1 for the swap fee is .01% \r\n    */\r\n    function setFee(uint _fee,uint _swapFee) public onlyOwner() {\r\n        require (_swapFee < 10000);\r\n        fee = _fee;\r\n        swapFee = _swapFee;\r\n    }\r\n\r\n    /**\r\n    *Sets the deployer address\r\n    *@param _deployer The new deployer address\r\n    */\r\n    function setDeployer(address _deployer) public onlyOwner() {\r\n        deployer_address = _deployer;\r\n        deployer = Deployer_Interface(_deployer);\r\n    }\r\n\r\n    /**\r\n    *Sets the user_contract address\r\n    *@param _userContract The new userContract address\r\n    */\r\n    function setUserContract(address _userContract) public onlyOwner() {\r\n        user_contract = _userContract;\r\n    }\r\n\r\n    /**\r\n    *@dev Sets token ratio, swap duration, and multiplier variables for a swap\r\n    *@param _token_ratio the ratio of the tokens\r\n    *@param _duration the duration of the swap, in days\r\n    *@param _multiplier the multiplier used for the swap\r\n    */\r\n    function setVariables(uint _token_ratio, uint _duration, uint _multiplier) public onlyOwner() {\r\n        token_ratio = _token_ratio;\r\n        duration = _duration;\r\n        multiplier = _multiplier;\r\n    }\r\n\r\n    /**\r\n    *@dev Sets the addresses of the tokens used for the swap\r\n    *@param _token The address of a token to be used  as collateral\r\n    */\r\n    function setBaseToken(address _token) public onlyOwner() {\r\n        token = _token;\r\n    }\r\n\r\n    /**\r\n    *@dev Allows a user to deploy a new swap contract, if they pay the fee\r\n    *@param _start_date the contract start date or date contract was created?\r\n    *@return returns the newly created swap address and calls event 'ContractCreation'\r\n    */\r\n    function deployContract(uint _start_date) public payable returns (address) {\r\n        require(msg.value >= fee && isWhitelisted(msg.sender));\r\n        require(_start_date % 86400 == 0);\r\n        address new_contract = deployer.newContract(msg.sender, user_contract, _start_date);\r\n        contracts.push(new_contract);\r\n        created_contracts[new_contract] = _start_date;\r\n        emit ContractCreation(msg.sender,new_contract);\r\n        return new_contract;\r\n    }\r\n\r\n    /**\r\n    *@dev Deploys DRCT tokens for given start date\r\n    *@param _start_date of contract\r\n    */\r\n    function deployTokenContract(uint _start_date) public{\r\n        address _token;\r\n        require(_start_date % 86400 == 0);\r\n        require(long_tokens[_start_date] == address(0) && short_tokens[_start_date] == address(0));\r\n        _token = new DRCT_Token(address(this));\r\n        token_dates[_token] = _start_date;\r\n        long_tokens[_start_date] = _token;\r\n        _token = new DRCT_Token(address(this));\r\n        short_tokens[_start_date] = _token;\r\n        token_dates[_token] = _start_date;\r\n        startDates.push(_start_date);\r\n    }\r\n\r\n    /*\r\n    *@dev Deploys new tokens on a DRCT_Token contract -- called from within a swap\r\n    *@param _supply The number of tokens to create\r\n    *@param _party the address to send the tokens to\r\n    *@param _start_date the start date of the contract?       \r\n    *@return token_ratio The addresses for the long and shor tokens and the ratio of the created DRCT token\r\n    */\r\n    function createToken(uint _supply, address _party, uint _start_date) public returns (address, address, uint) {\r\n        require(created_contracts[msg.sender] == _start_date);\r\n        address ltoken = long_tokens[_start_date];\r\n        address stoken = short_tokens[_start_date];\r\n        require(ltoken != address(0) && stoken != address(0));\r\n            DRCT_Token drct_interface = DRCT_Token(ltoken);\r\n            drct_interface.createToken(_supply.div(token_ratio), _party,msg.sender);\r\n            drct_interface = DRCT_Token(stoken);\r\n            drct_interface.createToken(_supply.div(token_ratio), _party,msg.sender);\r\n        return (ltoken, stoken, token_ratio);\r\n    }\r\n  \r\n    /**\r\n    *@dev Allows the owner to set a new oracle address\r\n    *@param _new_oracle_address \r\n    */\r\n    function setOracleAddress(address _new_oracle_address) public onlyOwner() {\r\n        oracle_address = _new_oracle_address; \r\n    }\r\n\r\n    /**\r\n    *@dev Allows the owner to set a new owner address\r\n    *@param _new_owner the new owner address\r\n    */\r\n    function setOwner(address _new_owner) public onlyOwner() { \r\n        owner = _new_owner; \r\n    }\r\n\r\n    /**\r\n    *@dev Allows the owner to pull contract creation fees\r\n    *@return the withdrawal fee _val and the balance\r\n    */\r\n    function withdrawFees() public onlyOwner(){\r\n        Wrapped_Ether_Interface token_interface = Wrapped_Ether_Interface(token);\r\n        uint _val = token_interface.balanceOf(address(this));\r\n        if(_val > 0){\r\n            token_interface.withdraw(_val);\r\n        }\r\n        owner.transfer(address(this).balance);\r\n     }\r\n\r\n    /**\r\n    *@dev fallback function\r\n    */ \r\n    function() public payable {\r\n    }\r\n\r\n    /**\r\n    *@dev Returns a tuple of many private variables\r\n    *@return oracle_adress The address of the oracle\r\n    *@return duration The duration of the swap\r\n    *@return multiplier The multiplier for the swap\r\n    *@return token The address of token \r\n    */\r\n    function getVariables() public view returns (address, uint, uint, address,uint){\r\n        return (oracle_address,duration, multiplier, token,swapFee);\r\n    }\r\n\r\n    /**\r\n    *Pays out to a DRCT token\r\n    *@param _party The address being paid\r\n    *@param _long Whether the _party is long or not\r\n    */\r\n    function payToken(address _party, address _token_add) public {\r\n        require(created_contracts[msg.sender] > 0);\r\n        DRCT_Token drct_interface = DRCT_Token(_token_add);\r\n        drct_interface.pay(_party, msg.sender);\r\n    }\r\n\r\n    /**\r\n    *@dev Counts number of contacts created by this factory\r\n    *@return the number of contracts\r\n    */\r\n    function getCount() public constant returns(uint) {\r\n        return contracts.length;\r\n    }\r\n\r\n    /**\r\n    *@dev Counts number of start dates in this factory\r\n    *@return the number of active start dates\r\n    */\r\n    function getDateCount() public constant returns(uint) {\r\n        return startDates.length;\r\n    }\r\n}\r\n",
  "sourcePath": "C:\\users\\brenda\\documents\\dapp\\drct_standard\\contracts\\Factory.sol",
  "compiler": {
    "name": "solc",
    "version": "0.4.23+commit.124ca40d.Emscripten.clang"
  },
  "schemaVersion": "2.0.0",
  "updatedAt": "2018-05-23T19:33:23.322Z"
}