{
  "contractName": "MasterDeployer",
  "abi": [
    {
      "constant": false,
      "inputs": [
        {
          "name": "_owner",
          "type": "address"
        }
      ],
      "name": "setOwner",
      "outputs": [],
      "payable": false,
      "stateMutability": "nonpayable",
      "type": "function"
    },
    {
      "constant": true,
      "inputs": [
        {
          "name": "",
          "type": "address"
        }
      ],
      "name": "factory_index",
      "outputs": [
        {
          "name": "",
          "type": "uint256"
        }
      ],
      "payable": false,
      "stateMutability": "view",
      "type": "function"
    },
    {
      "inputs": [],
      "payable": false,
      "stateMutability": "nonpayable",
      "type": "constructor"
    },
    {
      "anonymous": false,
      "inputs": [
        {
          "indexed": false,
          "name": "_factory",
          "type": "address"
        }
      ],
      "name": "NewFactory",
      "type": "event"
    },
    {
      "anonymous": false,
      "inputs": [
        {
          "indexed": true,
          "name": "target",
          "type": "address"
        },
        {
          "indexed": false,
          "name": "clone",
          "type": "address"
        }
      ],
      "name": "CloneCreated",
      "type": "event"
    },
    {
      "constant": false,
      "inputs": [
        {
          "name": "_factory",
          "type": "address"
        }
      ],
      "name": "setFactory",
      "outputs": [],
      "payable": false,
      "stateMutability": "nonpayable",
      "type": "function"
    },
    {
      "constant": false,
      "inputs": [],
      "name": "deployFactory",
      "outputs": [
        {
          "name": "",
          "type": "address"
        }
      ],
      "payable": false,
      "stateMutability": "nonpayable",
      "type": "function"
    },
    {
      "constant": false,
      "inputs": [
        {
          "name": "_factory",
          "type": "address"
        }
      ],
      "name": "removeFactory",
      "outputs": [],
      "payable": false,
      "stateMutability": "nonpayable",
      "type": "function"
    },
    {
      "constant": true,
      "inputs": [],
      "name": "getFactoryCount",
      "outputs": [
        {
          "name": "",
          "type": "uint256"
        }
      ],
      "payable": false,
      "stateMutability": "view",
      "type": "function"
    },
    {
      "constant": true,
      "inputs": [
        {
          "name": "_index",
          "type": "uint256"
        }
      ],
      "name": "getFactorybyIndex",
      "outputs": [
        {
          "name": "",
          "type": "address"
        }
      ],
      "payable": false,
      "stateMutability": "view",
      "type": "function"
    }
  ],
  "bytecode": "0x608060405234801561001057600080fd5b50336000806101000a81548173ffffffffffffffffffffffffffffffffffffffff021916908373ffffffffffffffffffffffffffffffffffffffff1602179055506001600090806001815401808255809150509060018203906000526020600020016000909192909190916101000a81548173ffffffffffffffffffffffffffffffffffffffff021916908373ffffffffffffffffffffffffffffffffffffffff16021790555050610a39806100c76000396000f300608060405260043610610083576000357c0100000000000000000000000000000000000000000000000000000000900463ffffffff16806313af4035146100885780632e6ccbf6146100cb5780634b37c73f146101385780635bb478081461017b5780637ff25bbb146101be578063bff18c7814610215578063d10474341461026c575b600080fd5b34801561009457600080fd5b506100c9600480360381019080803573ffffffffffffffffffffffffffffffffffffffff169060200190929190505050610297565b005b3480156100d757600080fd5b506100f660048036038101908080359060200190929190505050610335565b604051808273ffffffffffffffffffffffffffffffffffffffff1673ffffffffffffffffffffffffffffffffffffffff16815260200191505060405180910390f35b34801561014457600080fd5b50610179600480360381019080803573ffffffffffffffffffffffffffffffffffffffff169060200190929190505050610378565b005b34801561018757600080fd5b506101bc600480360381019080803573ffffffffffffffffffffffffffffffffffffffff16906020019092919050505061056d565b005b3480156101ca57600080fd5b506101ff600480360381019080803573ffffffffffffffffffffffffffffffffffffffff16906020019092919050505061060c565b6040518082815260200191505060405180910390f35b34801561022157600080fd5b5061022a610624565b604051808273ffffffffffffffffffffffffffffffffffffffff1673ffffffffffffffffffffffffffffffffffffffff16815260200191505060405180910390f35b34801561027857600080fd5b50610281610878565b6040518082815260200191505060405180910390f35b6000809054906101000a900473ffffffffffffffffffffffffffffffffffffffff1673ffffffffffffffffffffffffffffffffffffffff163373ffffffffffffffffffffffffffffffffffffffff161415156102f257600080fd5b806000806101000a81548173ffffffffffffffffffffffffffffffffffffffff021916908373ffffffffffffffffffffffffffffffffffffffff16021790555050565b600060018281548110151561034657fe5b9060005260206000200160009054906101000a900473ffffffffffffffffffffffffffffffffffffffff169050919050565b60008060008060009054906101000a900473ffffffffffffffffffffffffffffffffffffffff1673ffffffffffffffffffffffffffffffffffffffff163373ffffffffffffffffffffffffffffffffffffffff161415156103d857600080fd5b600360008573ffffffffffffffffffffffffffffffffffffffff1673ffffffffffffffffffffffffffffffffffffffff1681526020019081526020016000205492506104326001808054905061088790919063ffffffff16565b915060018281548110151561044357fe5b9060005260206000200160009054906101000a900473ffffffffffffffffffffffffffffffffffffffff1690508060018481548110151561048057fe5b9060005260206000200160006101000a81548173ffffffffffffffffffffffffffffffffffffffff021916908373ffffffffffffffffffffffffffffffffffffffff16021790555082600360008373ffffffffffffffffffffffffffffffffffffffff1673ffffffffffffffffffffffffffffffffffffffff16815260200190815260200160002081905550600180548091906001900361052191906109bc565b506000600360008673ffffffffffffffffffffffffffffffffffffffff1673ffffffffffffffffffffffffffffffffffffffff1681526020019081526020016000208190555050505050565b6000809054906101000a900473ffffffffffffffffffffffffffffffffffffffff1673ffffffffffffffffffffffffffffffffffffffff163373ffffffffffffffffffffffffffffffffffffffff161415156105c857600080fd5b80600260006101000a81548173ffffffffffffffffffffffffffffffffffffffff021916908373ffffffffffffffffffffffffffffffffffffffff16021790555050565b60036020528060005260406000206000915090505481565b6000806000809054906101000a900473ffffffffffffffffffffffffffffffffffffffff1673ffffffffffffffffffffffffffffffffffffffff163373ffffffffffffffffffffffffffffffffffffffff1614151561068257600080fd5b6106ad600260009054906101000a900473ffffffffffffffffffffffffffffffffffffffff166108a0565b9050600180549050600360008373ffffffffffffffffffffffffffffffffffffffff1673ffffffffffffffffffffffffffffffffffffffff1681526020019081526020016000208190555060018190806001815401808255809150509060018203906000526020600020016000909192909190916101000a81548173ffffffffffffffffffffffffffffffffffffffff021916908373ffffffffffffffffffffffffffffffffffffffff160217905550508073ffffffffffffffffffffffffffffffffffffffff166319ab453c336040518263ffffffff167c0100000000000000000000000000000000000000000000000000000000028152600401808273ffffffffffffffffffffffffffffffffffffffff1673ffffffffffffffffffffffffffffffffffffffff168152602001915050600060405180830381600087803b1580156107f957600080fd5b505af115801561080d573d6000803e3d6000fd5b505050507fa9a8b2f8fb6763e00282add661bca3f2b49006e30222824c36a47a3de1f6b25881604051808273ffffffffffffffffffffffffffffffffffffffff1673ffffffffffffffffffffffffffffffffffffffff16815260200191505060405180910390a15090565b60006001808054905003905090565b600082821115151561089557fe5b818303905092915050565b60006060600080606060405190810160405280603f81526020017f600034603b57603080600f833981f36000368180378080368173bebebebebebe81526020017fbebebebebebebebebebebebebebe5af43d82803e15602c573d90f35b3d90fd008152509250846c01000000000000000000000000029150600090505b60148110156109a557818160148110151561093457fe5b1a7f0100000000000000000000000000000000000000000000000000000000000000028382601a0181518110151561096857fe5b9060200101907effffffffffffffffffffffffffffffffffffffffffffffffffffffffffffff1916908160001a905350808060010191505061091d565b82516020840181816000f095505050505050919050565b8154818355818111156109e3578183600052602060002091820191016109e291906109e8565b5b505050565b610a0a91905b80821115610a065760008160009055506001016109ee565b5090565b905600a165627a7a723058209257aed6906d45692b80e9e7482a48893095ea3db1246326db3ba984825b2d2b0029",
  "source": "pragma solidity ^0.4.23;\r\n\r\nimport \"./libraries/SafeMath.sol\";\r\nimport './Factory.sol';\r\nimport \"./CloneFactory.sol\";\r\n\r\n/*This contract deploys a factory contract*/\r\n\r\ncontract MasterDeployer is CloneFactory{\r\n    /*Variables*/\r\n    using SafeMath for uint256;\r\n\taddress[] factory_contracts;\r\n\taddress private factory;\r\n\tmapping(address => uint) public factory_index;\r\n\r\n    /*Events*/\r\n\tevent NewFactory(address _factory);\r\n\r\n    /*Functions*/\r\n\tconstructor() public {\r\n\t\tfactory_contracts.push(address(0));\r\n\t}\r\n\t\r\n\tfunction setFactory(address _factory) public onlyOwner(){\r\n\t\tfactory = _factory;\r\n\t}\r\n\r\n\tfunction deployFactory() public onlyOwner() returns(address){\r\n\t\taddress _new_fac = createClone(factory);\r\n\t\tfactory_index[_new_fac] = factory_contracts.length;\r\n\t\tfactory_contracts.push(_new_fac);\r\n\t\tFactory(_new_fac).init(msg.sender);\r\n\t\temit NewFactory(_new_fac);\r\n\t}\r\n\r\n\tfunction removeFactory(address _factory) public onlyOwner(){\r\n\t\tuint256 fIndex = factory_index[_factory];\r\n        uint256 lastFactoryIndex = factory_contracts.length.sub(1);\r\n        address lastFactory = factory_contracts[lastFactoryIndex];\r\n        factory_contracts[fIndex] = lastFactory;\r\n        factory_index[lastFactory] = fIndex;\r\n        factory_contracts.length--;\r\n        factory_index[_factory] = 0;\r\n\t}\r\n\r\n\tfunction getFactoryCount() public constant returns(uint){\r\n\t\treturn factory_contracts.length - 1;\r\n\t}\r\n\r\n\tfunction getFactorybyIndex(uint _index) public constant returns(address){\r\n\t\treturn factory_contracts[_index];\r\n\t}\r\n}",
  "sourcePath": "C:\\company\\code\\drct_standard\\contracts\\MasterDeployer.sol",
  "compiler": {
    "name": "solc",
    "version": "0.4.24+commit.e67f0147.Emscripten.clang"
  },
  "schemaVersion": "2.0.0",
  "updatedAt": "2018-06-06T00:29:24.477Z"
}