{
  "contractName": "MasterDeployer",
  "abi": [
    {
      "constant": false,
      "inputs": [
        {
          "name": "_owner",
          "type": "address"
        }
      ],
      "name": "setOwner",
      "outputs": [],
      "payable": false,
      "stateMutability": "nonpayable",
      "type": "function"
    },
    {
      "constant": true,
      "inputs": [
        {
          "name": "",
          "type": "address"
        }
      ],
      "name": "factory_index",
      "outputs": [
        {
          "name": "",
          "type": "uint256"
        }
      ],
      "payable": false,
      "stateMutability": "view",
      "type": "function"
    },
    {
      "inputs": [],
      "payable": false,
      "stateMutability": "nonpayable",
      "type": "constructor"
    },
    {
      "anonymous": false,
      "inputs": [
        {
          "indexed": false,
          "name": "_factory",
          "type": "address"
        }
      ],
      "name": "NewFactory",
      "type": "event"
    },
    {
      "anonymous": false,
      "inputs": [
        {
          "indexed": true,
          "name": "target",
          "type": "address"
        },
        {
          "indexed": false,
          "name": "clone",
          "type": "address"
        }
      ],
      "name": "CloneCreated",
      "type": "event"
    },
    {
      "constant": false,
      "inputs": [
        {
          "name": "_factory",
          "type": "address"
        }
      ],
      "name": "setFactory",
      "outputs": [],
      "payable": false,
      "stateMutability": "nonpayable",
      "type": "function"
    },
    {
      "constant": false,
      "inputs": [
        {
          "name": "_memberTypes",
          "type": "uint256"
        }
      ],
      "name": "deployFactory",
      "outputs": [
        {
          "name": "",
          "type": "address"
        }
      ],
      "payable": false,
      "stateMutability": "nonpayable",
      "type": "function"
    },
    {
      "constant": false,
      "inputs": [
        {
          "name": "_factory",
          "type": "address"
        }
      ],
      "name": "removeFactory",
      "outputs": [],
      "payable": false,
      "stateMutability": "nonpayable",
      "type": "function"
    },
    {
      "constant": true,
      "inputs": [],
      "name": "getFactoryCount",
      "outputs": [
        {
          "name": "",
          "type": "uint256"
        }
      ],
      "payable": false,
      "stateMutability": "view",
      "type": "function"
    },
    {
      "constant": true,
      "inputs": [
        {
          "name": "_index",
          "type": "uint256"
        }
      ],
      "name": "getFactorybyIndex",
      "outputs": [
        {
          "name": "",
          "type": "address"
        }
      ],
      "payable": false,
      "stateMutability": "view",
      "type": "function"
    }
  ],
  "bytecode": "0x608060405234801561001057600080fd5b50336000806101000a81548173ffffffffffffffffffffffffffffffffffffffff021916908373ffffffffffffffffffffffffffffffffffffffff1602179055506001600090806001815401808255809150509060018203906000526020600020016000909192909190916101000a81548173ffffffffffffffffffffffffffffffffffffffff021916908373ffffffffffffffffffffffffffffffffffffffff16021790555050610ae4806100c76000396000f300608060405260043610610083576000357c0100000000000000000000000000000000000000000000000000000000900463ffffffff16806313af4035146100885780632e6ccbf6146100cb5780634b37c73f146101385780635bb478081461017b5780637ff25bbb146101be578063d104743414610215578063f8af366d14610240575b600080fd5b34801561009457600080fd5b506100c9600480360381019080803573ffffffffffffffffffffffffffffffffffffffff1690602001909291905050506102ad565b005b3480156100d757600080fd5b506100f66004803603810190808035906020019092919050505061034b565b604051808273ffffffffffffffffffffffffffffffffffffffff1673ffffffffffffffffffffffffffffffffffffffff16815260200191505060405180910390f35b34801561014457600080fd5b50610179600480360381019080803573ffffffffffffffffffffffffffffffffffffffff16906020019092919050505061038e565b005b34801561018757600080fd5b506101bc600480360381019080803573ffffffffffffffffffffffffffffffffffffffff16906020019092919050505061060b565b005b3480156101ca57600080fd5b506101ff600480360381019080803573ffffffffffffffffffffffffffffffffffffffff1690602001909291905050506106aa565b6040518082815260200191505060405180910390f35b34801561022157600080fd5b5061022a6106c2565b6040518082815260200191505060405180910390f35b34801561024c57600080fd5b5061026b600480360381019080803590602001909291905050506106d1565b604051808273ffffffffffffffffffffffffffffffffffffffff1673ffffffffffffffffffffffffffffffffffffffff16815260200191505060405180910390f35b6000809054906101000a900473ffffffffffffffffffffffffffffffffffffffff1673ffffffffffffffffffffffffffffffffffffffff163373ffffffffffffffffffffffffffffffffffffffff1614151561030857600080fd5b806000806101000a81548173ffffffffffffffffffffffffffffffffffffffff021916908373ffffffffffffffffffffffffffffffffffffffff16021790555050565b600060018281548110151561035c57fe5b9060005260206000200160009054906101000a900473ffffffffffffffffffffffffffffffffffffffff169050919050565b60008060008060009054906101000a900473ffffffffffffffffffffffffffffffffffffffff1673ffffffffffffffffffffffffffffffffffffffff163373ffffffffffffffffffffffffffffffffffffffff161415156103ee57600080fd5b600073ffffffffffffffffffffffffffffffffffffffff168473ffffffffffffffffffffffffffffffffffffffff161415801561046b57506000600360008673ffffffffffffffffffffffffffffffffffffffff1673ffffffffffffffffffffffffffffffffffffffff1681526020019081526020016000205414155b151561047657600080fd5b600360008573ffffffffffffffffffffffffffffffffffffffff1673ffffffffffffffffffffffffffffffffffffffff1681526020019081526020016000205492506104d06001808054905061093290919063ffffffff16565b91506001828154811015156104e157fe5b9060005260206000200160009054906101000a900473ffffffffffffffffffffffffffffffffffffffff1690508060018481548110151561051e57fe5b9060005260206000200160006101000a81548173ffffffffffffffffffffffffffffffffffffffff021916908373ffffffffffffffffffffffffffffffffffffffff16021790555082600360008373ffffffffffffffffffffffffffffffffffffffff1673ffffffffffffffffffffffffffffffffffffffff1681526020019081526020016000208190555060018054809190600190036105bf9190610a67565b506000600360008673ffffffffffffffffffffffffffffffffffffffff1673ffffffffffffffffffffffffffffffffffffffff1681526020019081526020016000208190555050505050565b6000809054906101000a900473ffffffffffffffffffffffffffffffffffffffff1673ffffffffffffffffffffffffffffffffffffffff163373ffffffffffffffffffffffffffffffffffffffff1614151561066657600080fd5b80600260006101000a81548173ffffffffffffffffffffffffffffffffffffffff021916908373ffffffffffffffffffffffffffffffffffffffff16021790555050565b60036020528060005260406000206000915090505481565b60006001808054905003905090565b6000806000809054906101000a900473ffffffffffffffffffffffffffffffffffffffff1673ffffffffffffffffffffffffffffffffffffffff163373ffffffffffffffffffffffffffffffffffffffff1614151561072f57600080fd5b61075a600260009054906101000a900473ffffffffffffffffffffffffffffffffffffffff1661094b565b9050600180549050600360008373ffffffffffffffffffffffffffffffffffffffff1673ffffffffffffffffffffffffffffffffffffffff1681526020019081526020016000208190555060018190806001815401808255809150509060018203906000526020600020016000909192909190916101000a81548173ffffffffffffffffffffffffffffffffffffffff021916908373ffffffffffffffffffffffffffffffffffffffff160217905550508073ffffffffffffffffffffffffffffffffffffffff1663399ae72433856040518363ffffffff167c0100000000000000000000000000000000000000000000000000000000028152600401808373ffffffffffffffffffffffffffffffffffffffff1673ffffffffffffffffffffffffffffffffffffffff16815260200182815260200192505050600060405180830381600087803b1580156108ae57600080fd5b505af11580156108c2573d6000803e3d6000fd5b505050507fa9a8b2f8fb6763e00282add661bca3f2b49006e30222824c36a47a3de1f6b25881604051808273ffffffffffffffffffffffffffffffffffffffff1673ffffffffffffffffffffffffffffffffffffffff16815260200191505060405180910390a180915050919050565b600082821115151561094057fe5b818303905092915050565b60006060600080606060405190810160405280603f81526020017f600034603b57603080600f833981f36000368180378080368173bebebebebebe81526020017fbebebebebebebebebebebebebebe5af43d82803e15602c573d90f35b3d90fd008152509250846c01000000000000000000000000029150600090505b6014811015610a505781816014811015156109df57fe5b1a7f0100000000000000000000000000000000000000000000000000000000000000028382601a01815181101515610a1357fe5b9060200101907effffffffffffffffffffffffffffffffffffffffffffffffffffffffffffff1916908160001a90535080806001019150506109c8565b82516020840181816000f095505050505050919050565b815481835581811115610a8e57818360005260206000209182019101610a8d9190610a93565b5b505050565b610ab591905b80821115610ab1576000816000905550600101610a99565b5090565b905600a165627a7a723058208b6e1ba949d5b0854a8bf2464ca1d1ca3d8bd5543fa81c2bacbe2ca0249a24000029",
  "source": "pragma solidity ^0.4.24;\r\n\r\nimport \"./libraries/SafeMath.sol\";\r\nimport './Factory.sol';\r\nimport \"./CloneFactory.sol\";\r\n\r\n/**\r\n*This contract deploys a factory contract and uses CloneFactory to clone the factory\r\n*specified.\r\n*/\r\n\r\ncontract MasterDeployer is CloneFactory{\r\n    \r\n    using SafeMath for uint256;\r\n\r\n    /*Variables*/\r\n\taddress[] factory_contracts;\r\n\taddress private factory;\r\n\tmapping(address => uint) public factory_index;\r\n\r\n    /*Events*/\r\n\tevent NewFactory(address _factory);\r\n\r\n    /*Functions*/\r\n    /**\r\n    *@dev Initiates the factory_contract array with address(0)\r\n    */\r\n\tconstructor() public {\r\n\t\tfactory_contracts.push(address(0));\r\n\t}\r\n\r\n    /**\r\n    *@dev Set factory address to clone\r\n    *@param _factory address to clone\r\n    */\t\r\n\tfunction setFactory(address _factory) public onlyOwner(){\r\n\t\tfactory = _factory;\r\n\t}\r\n\r\n    /**\r\n    *@dev creates a new factory by cloning the factory specified in setFactory.\r\n    *@return _new_fac which is the new factory address\r\n    */\r\n\tfunction deployFactory(uint _memberTypes) public onlyOwner() returns(address){\r\n\t\taddress _new_fac = createClone(factory);\r\n\t\tfactory_index[_new_fac] = factory_contracts.length;\r\n\t\tfactory_contracts.push(_new_fac);\r\n\t\tFactory(_new_fac).init(msg.sender,_memberTypes);\r\n\t\temit NewFactory(_new_fac);\r\n\t\treturn _new_fac;\r\n\t}\r\n\r\n    /**\r\n    *@dev Removes the factory specified\r\n    *@param _factory address to remove\r\n    */\r\n\tfunction removeFactory(address _factory) public onlyOwner(){\r\n\t\trequire(_factory != address(0) && factory_index[_factory] != 0);\r\n\t\tuint256 fIndex = factory_index[_factory];\r\n        uint256 lastFactoryIndex = factory_contracts.length.sub(1);\r\n        address lastFactory = factory_contracts[lastFactoryIndex];\r\n        factory_contracts[fIndex] = lastFactory;\r\n        factory_index[lastFactory] = fIndex;\r\n        factory_contracts.length--;\r\n        factory_index[_factory] = 0;\r\n\t}\r\n\r\n    /**\r\n    *@dev Counts the number of factories\r\n    *@returns the number of active factories\r\n    */\r\n\tfunction getFactoryCount() public constant returns(uint){\r\n\t\treturn factory_contracts.length - 1;\r\n\t}\r\n\r\n    /**\r\n    *@dev Returns the factory address for the specified index\r\n    *@param _index for factory to look up in the factory_contracts array\r\n    *@return factory address for the index specified\r\n    */\r\n\tfunction getFactorybyIndex(uint _index) public constant returns(address){\r\n\t\treturn factory_contracts[_index];\r\n\t}\r\n}\r\n",
  "sourcePath": "C:\\company\\code\\drct_standard\\contracts\\MasterDeployer.sol",
  "compiler": {
    "name": "solc",
    "version": "0.4.24+commit.e67f0147.Emscripten.clang"
  },
  "schemaVersion": "2.0.1",
  "updatedAt": "2018-11-07T01:51:07.585Z"
}