{
  "contractName": "Membership",
  "abi": [
    {
      "constant": true,
      "inputs": [
        {
          "name": "",
          "type": "address"
        }
      ],
      "name": "members",
      "outputs": [
        {
          "name": "memberId",
          "type": "uint256"
        },
        {
          "name": "membershipType",
          "type": "uint256"
        }
      ],
      "payable": false,
      "stateMutability": "view",
      "type": "function"
    },
    {
      "constant": true,
      "inputs": [
        {
          "name": "",
          "type": "uint256"
        }
      ],
      "name": "membersAccts",
      "outputs": [
        {
          "name": "",
          "type": "address"
        }
      ],
      "payable": false,
      "stateMutability": "view",
      "type": "function"
    },
    {
      "constant": true,
      "inputs": [],
      "name": "owner",
      "outputs": [
        {
          "name": "",
          "type": "address"
        }
      ],
      "payable": false,
      "stateMutability": "view",
      "type": "function"
    },
    {
      "constant": true,
      "inputs": [],
      "name": "memberFee",
      "outputs": [
        {
          "name": "",
          "type": "uint256"
        }
      ],
      "payable": false,
      "stateMutability": "view",
      "type": "function"
    },
    {
      "inputs": [],
      "payable": false,
      "stateMutability": "nonpayable",
      "type": "constructor"
    },
    {
      "anonymous": false,
      "inputs": [
        {
          "indexed": false,
          "name": "_from",
          "type": "address"
        },
        {
          "indexed": false,
          "name": "_to",
          "type": "address"
        }
      ],
      "name": "UpdateMemberAddress",
      "type": "event"
    },
    {
      "anonymous": false,
      "inputs": [
        {
          "indexed": false,
          "name": "_address",
          "type": "address"
        },
        {
          "indexed": false,
          "name": "_memberId",
          "type": "uint256"
        },
        {
          "indexed": false,
          "name": "_membershipType",
          "type": "uint256"
        }
      ],
      "name": "NewMember",
      "type": "event"
    },
    {
      "constant": false,
      "inputs": [
        {
          "name": "_memberFee",
          "type": "uint256"
        }
      ],
      "name": "setFee",
      "outputs": [],
      "payable": false,
      "stateMutability": "nonpayable",
      "type": "function"
    },
    {
      "constant": false,
      "inputs": [],
      "name": "requestMembership",
      "outputs": [],
      "payable": true,
      "stateMutability": "payable",
      "type": "function"
    },
    {
      "constant": false,
      "inputs": [
        {
          "name": "_from",
          "type": "address"
        },
        {
          "name": "_to",
          "type": "address"
        }
      ],
      "name": "updateMemberAddress",
      "outputs": [],
      "payable": false,
      "stateMutability": "nonpayable",
      "type": "function"
    },
    {
      "constant": false,
      "inputs": [
        {
          "name": "_memberAddress",
          "type": "address"
        },
        {
          "name": "_membershipType",
          "type": "uint256"
        }
      ],
      "name": "setMembershipType",
      "outputs": [],
      "payable": false,
      "stateMutability": "nonpayable",
      "type": "function"
    },
    {
      "constant": true,
      "inputs": [],
      "name": "getMembers",
      "outputs": [
        {
          "name": "",
          "type": "address[]"
        }
      ],
      "payable": false,
      "stateMutability": "view",
      "type": "function"
    },
    {
      "constant": true,
      "inputs": [
        {
          "name": "_memberAddress",
          "type": "address"
        }
      ],
      "name": "getMember",
      "outputs": [
        {
          "name": "",
          "type": "uint256"
        },
        {
          "name": "",
          "type": "uint256"
        }
      ],
      "payable": false,
      "stateMutability": "view",
      "type": "function"
    },
    {
      "constant": true,
      "inputs": [],
      "name": "countMembers",
      "outputs": [
        {
          "name": "",
          "type": "uint256"
        }
      ],
      "payable": false,
      "stateMutability": "view",
      "type": "function"
    },
    {
      "constant": true,
      "inputs": [
        {
          "name": "_memberAddress",
          "type": "address"
        }
      ],
      "name": "getMembershipType",
      "outputs": [
        {
          "name": "",
          "type": "uint256"
        }
      ],
      "payable": false,
      "stateMutability": "view",
      "type": "function"
    },
    {
      "constant": false,
      "inputs": [
        {
          "name": "_new_owner",
          "type": "address"
        }
      ],
      "name": "setOwner",
      "outputs": [],
      "payable": false,
      "stateMutability": "nonpayable",
      "type": "function"
    }
  ],
  "bytecode": "0x6060604052341561000f57600080fd5b336000806101000a81548173ffffffffffffffffffffffffffffffffffffffff021916908373ffffffffffffffffffffffffffffffffffffffff160217905550610c248061005e6000396000f3006060604052600436106100c5576000357c0100000000000000000000000000000000000000000000000000000000900463ffffffff16806308ae4b0c146100ca57806313af40351461011e5780632ada2596146101575780632cd046eb146101ab57806364d92f59146101d457806369fe0e2d1461023757806378b226c41461025a5780637b10b293146102b25780638da5cb5b146102bc5780639eab525314610311578063b5b7916b1461037b578063d3098883146103c8578063eafb2b7a146103f1575b600080fd5b34156100d557600080fd5b610101600480803573ffffffffffffffffffffffffffffffffffffffff16906020019091905050610433565b604051808381526020018281526020019250505060405180910390f35b341561012957600080fd5b610155600480803573ffffffffffffffffffffffffffffffffffffffff16906020019091905050610457565b005b341561016257600080fd5b61018e600480803573ffffffffffffffffffffffffffffffffffffffff169060200190919050506104f5565b604051808381526020018281526020019250505060405180910390f35b34156101b657600080fd5b6101be610587565b6040518082815260200191505060405180910390f35b34156101df57600080fd5b6101f56004808035906020019091905050610594565b604051808273ffffffffffffffffffffffffffffffffffffffff1673ffffffffffffffffffffffffffffffffffffffff16815260200191505060405180910390f35b341561024257600080fd5b61025860048080359060200190919050506105d3565b005b341561026557600080fd5b6102b0600480803573ffffffffffffffffffffffffffffffffffffffff1690602001909190803573ffffffffffffffffffffffffffffffffffffffff16906020019091905050610638565b005b6102ba61087f565b005b34156102c757600080fd5b6102cf6109dc565b604051808273ffffffffffffffffffffffffffffffffffffffff1673ffffffffffffffffffffffffffffffffffffffff16815260200191505060405180910390f35b341561031c57600080fd5b610324610a01565b6040518080602001828103825283818151815260200191508051906020019060200280838360005b8381101561036757808201518184015260208101905061034c565b505050509050019250505060405180910390f35b341561038657600080fd5b6103b2600480803573ffffffffffffffffffffffffffffffffffffffff16906020019091905050610a95565b6040518082815260200191505060405180910390f35b34156103d357600080fd5b6103db610ae1565b6040518082815260200191505060405180910390f35b34156103fc57600080fd5b610431600480803573ffffffffffffffffffffffffffffffffffffffff16906020019091908035906020019091905050610ae7565b005b60026020528060005260406000206000915090508060000154908060010154905082565b6000809054906101000a900473ffffffffffffffffffffffffffffffffffffffff1673ffffffffffffffffffffffffffffffffffffffff163373ffffffffffffffffffffffffffffffffffffffff161415156104b257600080fd5b806000806101000a81548173ffffffffffffffffffffffffffffffffffffffff021916908373ffffffffffffffffffffffffffffffffffffffff16021790555050565b600080600260008473ffffffffffffffffffffffffffffffffffffffff1673ffffffffffffffffffffffffffffffffffffffff16815260200190815260200160002060000154600260008573ffffffffffffffffffffffffffffffffffffffff1673ffffffffffffffffffffffffffffffffffffffff1681526020019081526020016000206001015491509150915091565b6000600380549050905090565b6003818154811015156105a357fe5b90600052602060002090016000915054906101000a900473ffffffffffffffffffffffffffffffffffffffff1681565b6000809054906101000a900473ffffffffffffffffffffffffffffffffffffffff1673ffffffffffffffffffffffffffffffffffffffff163373ffffffffffffffffffffffffffffffffffffffff1614151561062e57600080fd5b8060018190555050565b6000806000809054906101000a900473ffffffffffffffffffffffffffffffffffffffff1673ffffffffffffffffffffffffffffffffffffffff163373ffffffffffffffffffffffffffffffffffffffff1614151561069657600080fd5b600073ffffffffffffffffffffffffffffffffffffffff168373ffffffffffffffffffffffffffffffffffffffff16141515156106d257600080fd5b600260008573ffffffffffffffffffffffffffffffffffffffff1673ffffffffffffffffffffffffffffffffffffffff1681526020019081526020016000209150600260008473ffffffffffffffffffffffffffffffffffffffff1673ffffffffffffffffffffffffffffffffffffffff16815260200190815260200160002090508160000154816000018190555081600101548160010181905550826003600184600001540381548110151561078557fe5b906000526020600020900160006101000a81548173ffffffffffffffffffffffffffffffffffffffff021916908373ffffffffffffffffffffffffffffffffffffffff16021790555060008260000181905550600082600101819055507fbdfe571e1a80dbaccacacb54ca665e418fbc172eeaab2ebfa235385cdc4591fc8484604051808373ffffffffffffffffffffffffffffffffffffffff1673ffffffffffffffffffffffffffffffffffffffff1681526020018273ffffffffffffffffffffffffffffffffffffffff1673ffffffffffffffffffffffffffffffffffffffff1681526020019250505060405180910390a150505050565b6000600260003373ffffffffffffffffffffffffffffffffffffffff1673ffffffffffffffffffffffffffffffffffffffff168152602001908152602001600020905060015434101580156108d8575060008160010154145b15156108e357600080fd5b600380548060010182816108f79190610b93565b9160005260206000209001600033909190916101000a81548173ffffffffffffffffffffffffffffffffffffffff021916908373ffffffffffffffffffffffffffffffffffffffff160217905550506003805490508160000181905550600181600101819055507f64c0a7725c138cdfade4dd197629de852807f220b1d1e01f3b3ade43b600fd703382600001548360010154604051808473ffffffffffffffffffffffffffffffffffffffff1673ffffffffffffffffffffffffffffffffffffffff168152602001838152602001828152602001935050505060405180910390a150565b6000809054906101000a900473ffffffffffffffffffffffffffffffffffffffff1681565b610a09610bbf565b6003805480602002602001604051908101604052809291908181526020018280548015610a8b57602002820191906000526020600020905b8160009054906101000a900473ffffffffffffffffffffffffffffffffffffffff1673ffffffffffffffffffffffffffffffffffffffff1681526020019060010190808311610a41575b5050505050905090565b6000600260008373ffffffffffffffffffffffffffffffffffffffff1673ffffffffffffffffffffffffffffffffffffffff168152602001908152602001600020600101549050919050565b60015481565b60008060009054906101000a900473ffffffffffffffffffffffffffffffffffffffff1673ffffffffffffffffffffffffffffffffffffffff163373ffffffffffffffffffffffffffffffffffffffff16141515610b4457600080fd5b600260008473ffffffffffffffffffffffffffffffffffffffff1673ffffffffffffffffffffffffffffffffffffffff1681526020019081526020016000209050818160010181905550505050565b815481835581811511610bba57818360005260206000209182019101610bb99190610bd3565b5b505050565b602060405190810160405280600081525090565b610bf591905b80821115610bf1576000816000905550600101610bd9565b5090565b905600a165627a7a723058200480d38ab15bb289ce24cd8ffff050180a200bb747bebb0523f0f9952a3f90fc0029",
  "source": "pragma solidity ^0.4.21;\r\nimport \"./libraries/SafeMath.sol\";\r\n\r\ncontract Membership {\r\n    using SafeMath for uint256;\r\n    \r\n    /*Variables*/\r\n    address public owner;\r\n    \r\n    //Memebership fees\r\n    uint public memberFee;\r\n\r\n    /*Structs*/\r\n    /**\r\n    *@dev Keeps member information \r\n    */\r\n    struct Member {\r\n        uint memberId;\r\n        uint membershipType;\r\n    }\r\n    \r\n    /*Mappings*/\r\n    //Members information\r\n    mapping(address => Member) public members;\r\n    address[] public membersAccts;\r\n\r\n    /*Events*/\r\n    event UpdateMemberAddress(address _from, address _to);\r\n    event NewMember(address _address, uint _memberId, uint _membershipType);\r\n\r\n    /*Modifiers*/\r\n    modifier onlyOwner() {\r\n        require(msg.sender == owner);\r\n    _;\r\n    }\r\n    \r\n    /*Functions*/\r\n    /**\r\n    *@dev Constructor - Sets owner\r\n    */\r\n    function Membership() public {\r\n        owner = msg.sender;\r\n    }\r\n\r\n    /*\r\n    *@dev Updates the fee amount\r\n    *@param _memberFee fee amount for member\r\n    */\r\n    function setFee(uint _memberFee) public onlyOwner() {\r\n        //define fee structure for the three membership types\r\n        memberFee = _memberFee;\r\n    }\r\n    \r\n    /**\r\n    *@notice Allows a user to become DDA members if they pay the fee. However, they still have to complete\r\n    complete KYC/AML verification off line\r\n    *@dev this creates and transfers the token to the msg.sender\r\n    */\r\n    function requestMembership() public payable {\r\n        Member storage sender = members[msg.sender];\r\n        require(msg.value >= memberFee && sender.membershipType == 0 );\r\n        membersAccts.push(msg.sender);\r\n        sender.memberId = membersAccts.length;\r\n        sender.membershipType = 1;\r\n        emit NewMember(msg.sender, sender.memberId, sender.membershipType);\r\n    }\r\n    \r\n    /**\r\n    *@dev This overload transferFrom function is required on ERC721.org\r\n    *@param _from is the current member address\r\n    *@param _to is the address the member would like to update their current address with\r\n    */\r\n    function updateMemberAddress(address _from, address _to) public onlyOwner {\r\n        require (_to != address(0));\r\n        Member storage currentAddress = members[_from];\r\n        Member storage newAddress = members[_to];\r\n        newAddress.memberId = currentAddress.memberId;\r\n        newAddress.membershipType = currentAddress.membershipType;\r\n\t\tmembersAccts[currentAddress.memberId - 1] = _to;\r\n        currentAddress.memberId = 0;\r\n        currentAddress.membershipType = 0;\r\n        emit UpdateMemberAddress(_from, _to);\r\n    }\r\n\r\n    /**\r\n    *@dev Use this function to set membershipType for the member\r\n    *@param _memberAddress address of member that we need to update membershipType\r\n    *@param _membershipType type of membership to assign to member\r\n    **/\r\n    function setMembershipType(address _memberAddress,  uint _membershipType) public onlyOwner{\r\n        Member storage memberAddress = members[_memberAddress];\r\n        memberAddress.membershipType = _membershipType;\r\n    }\r\n\r\n    /**\r\n    *@dev getter function to get all membersAccts\r\n    **/\r\n    function getMembers() view public returns (address[]){\r\n        return membersAccts;\r\n    }\r\n    \r\n    /**\r\n    *@dev Get member information. could be the ownerOf funciton\r\n    *@param _memberAddress address to pull the memberId, membershipType and membership\r\n    **/\r\n    function getMember(address _memberAddress) view public returns(uint, uint) {\r\n        return(members[_memberAddress].memberId, members[_memberAddress].membershipType);\r\n    }\r\n\r\n    /**\r\n    @dev gets length of array containing all member accounts or total supply\r\n    **/\r\n    function countMembers() view public returns(uint) {\r\n        return membersAccts.length;\r\n    }\r\n\r\n    /**\r\n    *@dev gets membership type\r\n    *@param _memberAddress address to view the membershipType\r\n    **/\r\n    function getMembershipType(address _memberAddress) public constant returns(uint){\r\n        return members[_memberAddress].membershipType;\r\n    }\r\n    \r\n    /**\r\n    *@dev Allows the owner to set a new owner address\r\n    *@param _new_owner the new owner address\r\n    */\r\n    function setOwner(address _new_owner) public onlyOwner() { \r\n        owner = _new_owner; \r\n    }\r\n}",
  "sourcePath": "C:\\Company\\code\\drct_standard\\contracts\\Membership.sol",
  "compiler": {
    "name": "solc",
    "version": "0.4.21+commit.dfe3193c.Emscripten.clang"
  },
  "schemaVersion": "2.0.0",
  "updatedAt": "2018-05-19T19:15:35.862Z"
}