{
  "contractName": "Membership",
  "abi": [
    {
      "constant": true,
      "inputs": [
        {
          "name": "",
          "type": "address"
        }
      ],
      "name": "members",
      "outputs": [
        {
          "name": "memberId",
          "type": "uint256"
        },
        {
          "name": "membershipType",
          "type": "uint256"
        }
      ],
      "payable": false,
      "stateMutability": "view",
      "type": "function"
    },
    {
      "constant": true,
      "inputs": [
        {
          "name": "",
          "type": "uint256"
        }
      ],
      "name": "membersAccts",
      "outputs": [
        {
          "name": "",
          "type": "address"
        }
      ],
      "payable": false,
      "stateMutability": "view",
      "type": "function"
    },
    {
      "constant": true,
      "inputs": [],
      "name": "owner",
      "outputs": [
        {
          "name": "",
          "type": "address"
        }
      ],
      "payable": false,
      "stateMutability": "view",
      "type": "function"
    },
    {
      "constant": true,
      "inputs": [],
      "name": "memberFee",
      "outputs": [
        {
          "name": "",
          "type": "uint256"
        }
      ],
      "payable": false,
      "stateMutability": "view",
      "type": "function"
    },
    {
      "inputs": [],
      "payable": false,
      "stateMutability": "nonpayable",
      "type": "constructor"
    },
    {
      "anonymous": false,
      "inputs": [
        {
          "indexed": false,
          "name": "_from",
          "type": "address"
        },
        {
          "indexed": false,
          "name": "_to",
          "type": "address"
        }
      ],
      "name": "UpdateMemberAddress",
      "type": "event"
    },
    {
      "anonymous": false,
      "inputs": [
        {
          "indexed": false,
          "name": "_address",
          "type": "address"
        },
        {
          "indexed": false,
          "name": "_memberId",
          "type": "uint256"
        },
        {
          "indexed": false,
          "name": "_membershipType",
          "type": "uint256"
        }
      ],
      "name": "NewMember",
      "type": "event"
    },
    {
      "anonymous": false,
      "inputs": [
        {
          "indexed": false,
          "name": "_address",
          "type": "address"
        },
        {
          "indexed": false,
          "name": "_amount",
          "type": "uint256"
        }
      ],
      "name": "Refund",
      "type": "event"
    },
    {
      "constant": false,
      "inputs": [
        {
          "name": "_memberFee",
          "type": "uint256"
        }
      ],
      "name": "setFee",
      "outputs": [],
      "payable": false,
      "stateMutability": "nonpayable",
      "type": "function"
    },
    {
      "constant": false,
      "inputs": [],
      "name": "requestMembership",
      "outputs": [],
      "payable": true,
      "stateMutability": "payable",
      "type": "function"
    },
    {
      "constant": false,
      "inputs": [
        {
          "name": "_from",
          "type": "address"
        },
        {
          "name": "_to",
          "type": "address"
        }
      ],
      "name": "updateMemberAddress",
      "outputs": [],
      "payable": false,
      "stateMutability": "nonpayable",
      "type": "function"
    },
    {
      "constant": false,
      "inputs": [
        {
          "name": "_memberAddress",
          "type": "address"
        },
        {
          "name": "_membershipType",
          "type": "uint256"
        }
      ],
      "name": "setMembershipType",
      "outputs": [],
      "payable": false,
      "stateMutability": "nonpayable",
      "type": "function"
    },
    {
      "constant": true,
      "inputs": [],
      "name": "getMembers",
      "outputs": [
        {
          "name": "",
          "type": "address[]"
        }
      ],
      "payable": false,
      "stateMutability": "view",
      "type": "function"
    },
    {
      "constant": true,
      "inputs": [
        {
          "name": "_memberAddress",
          "type": "address"
        }
      ],
      "name": "getMember",
      "outputs": [
        {
          "name": "",
          "type": "uint256"
        },
        {
          "name": "",
          "type": "uint256"
        }
      ],
      "payable": false,
      "stateMutability": "view",
      "type": "function"
    },
    {
      "constant": true,
      "inputs": [],
      "name": "countMembers",
      "outputs": [
        {
          "name": "",
          "type": "uint256"
        }
      ],
      "payable": false,
      "stateMutability": "view",
      "type": "function"
    },
    {
      "constant": true,
      "inputs": [
        {
          "name": "_memberAddress",
          "type": "address"
        }
      ],
      "name": "getMembershipType",
      "outputs": [
        {
          "name": "",
          "type": "uint256"
        }
      ],
      "payable": false,
      "stateMutability": "view",
      "type": "function"
    },
    {
      "constant": false,
      "inputs": [
        {
          "name": "_new_owner",
          "type": "address"
        }
      ],
      "name": "setOwner",
      "outputs": [],
      "payable": false,
      "stateMutability": "nonpayable",
      "type": "function"
    },
    {
      "constant": false,
      "inputs": [
        {
          "name": "_to",
          "type": "address"
        },
        {
          "name": "_amount",
          "type": "uint256"
        }
      ],
      "name": "refund",
      "outputs": [],
      "payable": false,
      "stateMutability": "nonpayable",
      "type": "function"
    },
    {
      "constant": false,
      "inputs": [
        {
          "name": "_to",
          "type": "address"
        },
        {
          "name": "_amount",
          "type": "uint256"
        }
      ],
      "name": "withdraw",
      "outputs": [],
      "payable": false,
      "stateMutability": "nonpayable",
      "type": "function"
    }
  ],
  "bytecode": "0x608060405234801561001057600080fd5b50336000806101000a81548173ffffffffffffffffffffffffffffffffffffffff021916908373ffffffffffffffffffffffffffffffffffffffff160217905550610f91806100606000396000f3006080604052600436106100db576000357c0100000000000000000000000000000000000000000000000000000000900463ffffffff16806308ae4b0c146100e057806313af40351461013e5780632ada2596146101815780632cd046eb146101df578063410085df1461020a57806364d92f591461025757806369fe0e2d146102c457806378b226c4146102f15780637b10b293146103545780638da5cb5b1461035e5780639eab5253146103b5578063b5b7916b14610421578063d309888314610478578063eafb2b7a146104a3578063f3fef3a3146104f0575b600080fd5b3480156100ec57600080fd5b50610121600480360381019080803573ffffffffffffffffffffffffffffffffffffffff16906020019092919050505061053d565b604051808381526020018281526020019250505060405180910390f35b34801561014a57600080fd5b5061017f600480360381019080803573ffffffffffffffffffffffffffffffffffffffff169060200190929190505050610561565b005b34801561018d57600080fd5b506101c2600480360381019080803573ffffffffffffffffffffffffffffffffffffffff1690602001909291905050506105ff565b604051808381526020018281526020019250505060405180910390f35b3480156101eb57600080fd5b506101f4610691565b6040518082815260200191505060405180910390f35b34801561021657600080fd5b50610255600480360381019080803573ffffffffffffffffffffffffffffffffffffffff1690602001909291908035906020019092919050505061069e565b005b34801561026357600080fd5b50610282600480360381019080803590602001909291905050506108b2565b604051808273ffffffffffffffffffffffffffffffffffffffff1673ffffffffffffffffffffffffffffffffffffffff16815260200191505060405180910390f35b3480156102d057600080fd5b506102ef600480360381019080803590602001909291905050506108f0565b005b3480156102fd57600080fd5b50610352600480360381019080803573ffffffffffffffffffffffffffffffffffffffff169060200190929190803573ffffffffffffffffffffffffffffffffffffffff169060200190929190505050610955565b005b61035c610bae565b005b34801561036a57600080fd5b50610373610d0e565b604051808273ffffffffffffffffffffffffffffffffffffffff1673ffffffffffffffffffffffffffffffffffffffff16815260200191505060405180910390f35b3480156103c157600080fd5b506103ca610d33565b6040518080602001828103825283818151815260200191508051906020019060200280838360005b8381101561040d5780820151818401526020810190506103f2565b505050509050019250505060405180910390f35b34801561042d57600080fd5b50610462600480360381019080803573ffffffffffffffffffffffffffffffffffffffff169060200190929190505050610dc1565b6040518082815260200191505060405180910390f35b34801561048457600080fd5b5061048d610e0d565b6040518082815260200191505060405180910390f35b3480156104af57600080fd5b506104ee600480360381019080803573ffffffffffffffffffffffffffffffffffffffff16906020019092919080359060200190929190505050610e13565b005b3480156104fc57600080fd5b5061053b600480360381019080803573ffffffffffffffffffffffffffffffffffffffff16906020019092919080359060200190929190505050610ebf565b005b60026020528060005260406000206000915090508060000154908060010154905082565b6000809054906101000a900473ffffffffffffffffffffffffffffffffffffffff1673ffffffffffffffffffffffffffffffffffffffff163373ffffffffffffffffffffffffffffffffffffffff161415156105bc57600080fd5b806000806101000a81548173ffffffffffffffffffffffffffffffffffffffff021916908373ffffffffffffffffffffffffffffffffffffffff16021790555050565b600080600260008473ffffffffffffffffffffffffffffffffffffffff1673ffffffffffffffffffffffffffffffffffffffff16815260200190815260200160002060000154600260008573ffffffffffffffffffffffffffffffffffffffff1673ffffffffffffffffffffffffffffffffffffffff1681526020019081526020016000206001015491509150915091565b6000600380549050905090565b60008060009054906101000a900473ffffffffffffffffffffffffffffffffffffffff1673ffffffffffffffffffffffffffffffffffffffff163373ffffffffffffffffffffffffffffffffffffffff161415156106fb57600080fd5b600073ffffffffffffffffffffffffffffffffffffffff168373ffffffffffffffffffffffffffffffffffffffff161415151561073757600080fd5b60008214156107465760015491505b600260008473ffffffffffffffffffffffffffffffffffffffff1673ffffffffffffffffffffffffffffffffffffffff168152602001908152602001600020905060006003600183600001540381548110151561079f57fe5b9060005260206000200160006101000a81548173ffffffffffffffffffffffffffffffffffffffff021916908373ffffffffffffffffffffffffffffffffffffffff16021790555060008160000181905550600081600101819055508273ffffffffffffffffffffffffffffffffffffffff166108fc839081150290604051600060405180830381858888f19350505050158015610841573d6000803e3d6000fd5b507fbb28353e4598c3b9199101a66e0989549b659a59a54d2c27fbb183f1932c8e6d8383604051808373ffffffffffffffffffffffffffffffffffffffff1673ffffffffffffffffffffffffffffffffffffffff1681526020018281526020019250505060405180910390a1505050565b6003818154811015156108c157fe5b906000526020600020016000915054906101000a900473ffffffffffffffffffffffffffffffffffffffff1681565b6000809054906101000a900473ffffffffffffffffffffffffffffffffffffffff1673ffffffffffffffffffffffffffffffffffffffff163373ffffffffffffffffffffffffffffffffffffffff1614151561094b57600080fd5b8060018190555050565b6000806000809054906101000a900473ffffffffffffffffffffffffffffffffffffffff1673ffffffffffffffffffffffffffffffffffffffff163373ffffffffffffffffffffffffffffffffffffffff161415156109b357600080fd5b600073ffffffffffffffffffffffffffffffffffffffff168373ffffffffffffffffffffffffffffffffffffffff16141515156109ef57600080fd5b600260008573ffffffffffffffffffffffffffffffffffffffff1673ffffffffffffffffffffffffffffffffffffffff1681526020019081526020016000209150600260008473ffffffffffffffffffffffffffffffffffffffff1673ffffffffffffffffffffffffffffffffffffffff168152602001908152602001600020905060008160000154141515610a8457600080fd5b81600001548160000181905550816001015481600101819055508260036001846000015403815481101515610ab557fe5b9060005260206000200160006101000a81548173ffffffffffffffffffffffffffffffffffffffff021916908373ffffffffffffffffffffffffffffffffffffffff16021790555060008260000181905550600082600101819055507fbdfe571e1a80dbaccacacb54ca665e418fbc172eeaab2ebfa235385cdc4591fc8484604051808373ffffffffffffffffffffffffffffffffffffffff1673ffffffffffffffffffffffffffffffffffffffff1681526020018273ffffffffffffffffffffffffffffffffffffffff1673ffffffffffffffffffffffffffffffffffffffff1681526020019250505060405180910390a150505050565b6000600260003373ffffffffffffffffffffffffffffffffffffffff1673ffffffffffffffffffffffffffffffffffffffff16815260200190815260200160002090506001543410158015610c07575060008160010154145b1515610c1257600080fd5b60033390806001815401808255809150509060018203906000526020600020016000909192909190916101000a81548173ffffffffffffffffffffffffffffffffffffffff021916908373ffffffffffffffffffffffffffffffffffffffff160217905550506003805490508160000181905550600181600101819055507f64c0a7725c138cdfade4dd197629de852807f220b1d1e01f3b3ade43b600fd703382600001548360010154604051808473ffffffffffffffffffffffffffffffffffffffff1673ffffffffffffffffffffffffffffffffffffffff168152602001838152602001828152602001935050505060405180910390a150565b6000809054906101000a900473ffffffffffffffffffffffffffffffffffffffff1681565b60606003805480602002602001604051908101604052809291908181526020018280548015610db757602002820191906000526020600020905b8160009054906101000a900473ffffffffffffffffffffffffffffffffffffffff1673ffffffffffffffffffffffffffffffffffffffff1681526020019060010190808311610d6d575b5050505050905090565b6000600260008373ffffffffffffffffffffffffffffffffffffffff1673ffffffffffffffffffffffffffffffffffffffff168152602001908152602001600020600101549050919050565b60015481565b60008060009054906101000a900473ffffffffffffffffffffffffffffffffffffffff1673ffffffffffffffffffffffffffffffffffffffff163373ffffffffffffffffffffffffffffffffffffffff16141515610e7057600080fd5b600260008473ffffffffffffffffffffffffffffffffffffffff1673ffffffffffffffffffffffffffffffffffffffff1681526020019081526020016000209050818160010181905550505050565b6000809054906101000a900473ffffffffffffffffffffffffffffffffffffffff1673ffffffffffffffffffffffffffffffffffffffff163373ffffffffffffffffffffffffffffffffffffffff16141515610f1a57600080fd5b8173ffffffffffffffffffffffffffffffffffffffff166108fc829081150290604051600060405180830381858888f19350505050158015610f60573d6000803e3d6000fd5b5050505600a165627a7a723058204c83d38759f2eaa52469520690c15455d6fcd577cd58b80f3ee98b62506325f10029",
  "source": "pragma solidity ^0.4.24;\r\nimport \"./libraries/SafeMath.sol\";\r\n\r\n/**\r\n*This contract allows users to sign up for the DDA Cooperative Membership.\r\n*To complete membership DDA will provide instructions to complete KYC/AML verification\r\n*through a system external to this contract.\r\n*/\r\ncontract Membership {\r\n    using SafeMath for uint256;\r\n    \r\n    /*Variables*/\r\n    address public owner;\r\n    //Memebership fees\r\n    uint public memberFee;\r\n\r\n    /*Structs*/\r\n    /**\r\n    *@dev Keeps member information \r\n    */\r\n    struct Member {\r\n        uint memberId;\r\n        uint membershipType;\r\n    }\r\n    \r\n    /*Mappings*/\r\n    //Members information\r\n    mapping(address => Member) public members;\r\n    address[] public membersAccts;\r\n\r\n    /*Events*/\r\n    event UpdateMemberAddress(address _from, address _to);\r\n    event NewMember(address _address, uint _memberId, uint _membershipType);\r\n    event Refund(address _address, uint _amount);\r\n\r\n    /*Modifiers*/\r\n    modifier onlyOwner() {\r\n        require(msg.sender == owner);\r\n        _;\r\n    }\r\n    \r\n    /*Functions*/\r\n    /**\r\n    *@dev Constructor - Sets owner\r\n    */\r\n     constructor() public {\r\n        owner = msg.sender;\r\n    }\r\n\r\n    /*\r\n    *@dev Updates the fee amount\r\n    *@param _memberFee fee amount for member\r\n    */\r\n    function setFee(uint _memberFee) public onlyOwner() {\r\n        //define fee structure for the three membership types\r\n        memberFee = _memberFee;\r\n    }\r\n    \r\n    /**\r\n    *@notice Allows a user to become DDA members if they pay the fee. However, they still have to complete\r\n    *complete KYC/AML verification off line\r\n    *@dev This creates and transfers the token to the msg.sender\r\n    */\r\n    function requestMembership() public payable {\r\n        Member storage sender = members[msg.sender];\r\n        require(msg.value >= memberFee && sender.membershipType == 0 );\r\n        membersAccts.push(msg.sender);\r\n        sender.memberId = membersAccts.length;\r\n        sender.membershipType = 1;\r\n        emit NewMember(msg.sender, sender.memberId, sender.membershipType);\r\n    }\r\n    \r\n    /**\r\n    *@dev This updates/transfers the member address \r\n    *@param _from is the current member address\r\n    *@param _to is the address the member would like to update their current address with\r\n    */\r\n    function updateMemberAddress(address _from, address _to) public onlyOwner {\r\n        require(_to != address(0));\r\n        Member storage currentAddress = members[_from];\r\n        Member storage newAddress = members[_to];\r\n        require(newAddress.memberId == 0);\r\n        newAddress.memberId = currentAddress.memberId;\r\n        newAddress.membershipType = currentAddress.membershipType;\r\n\t\tmembersAccts[currentAddress.memberId - 1] = _to;\r\n        currentAddress.memberId = 0;\r\n        currentAddress.membershipType = 0;\r\n        emit UpdateMemberAddress(_from, _to);\r\n    }\r\n\r\n    /**\r\n    *@dev Use this function to set membershipType for the member\r\n    *@param _memberAddress address of member that we need to update membershipType\r\n    *@param _membershipType type of membership to assign to member\r\n    */\r\n    function setMembershipType(address _memberAddress,  uint _membershipType) public onlyOwner{\r\n        Member storage memberAddress = members[_memberAddress];\r\n        memberAddress.membershipType = _membershipType;\r\n    }\r\n\r\n    /**\r\n    *@dev getter function to get all membersAccts\r\n    */\r\n    function getMembers() view public returns (address[]){\r\n        return membersAccts;\r\n    }\r\n    \r\n    /**\r\n    *@dev Get member information\r\n    *@param _memberAddress address to pull the memberId, membershipType and membership\r\n    */\r\n    function getMember(address _memberAddress) view public returns(uint, uint) {\r\n        return(members[_memberAddress].memberId, members[_memberAddress].membershipType);\r\n    }\r\n\r\n    /**\r\n    *@dev Gets length of array containing all member accounts or total supply\r\n    */\r\n    function countMembers() view public returns(uint) {\r\n        return membersAccts.length;\r\n    }\r\n\r\n    /**\r\n    *@dev Gets membership type\r\n    *@param _memberAddress address to view the membershipType\r\n    */\r\n    function getMembershipType(address _memberAddress) public constant returns(uint){\r\n        return members[_memberAddress].membershipType;\r\n    }\r\n    \r\n    /**\r\n    *@dev Allows the owner to set a new owner address\r\n    *@param _new_owner the new owner address\r\n    */\r\n    function setOwner(address _new_owner) public onlyOwner() { \r\n        owner = _new_owner; \r\n    }\r\n\r\n    /**\r\n    *@dev Refund money if KYC/AML fails\r\n    *@param _to address to send refund\r\n    *@param _amount to refund. If no amount  is specified the current memberFee is refunded\r\n    */\r\n    function refund(address _to, uint _amount) public onlyOwner {\r\n        require (_to != address(0));\r\n        if (_amount == 0) {_amount = memberFee;}\r\n        Member storage currentAddress = members[_to];\r\n        membersAccts[currentAddress.memberId-1] = 0;\r\n        currentAddress.memberId = 0;\r\n        currentAddress.membershipType = 0;\r\n        _to.transfer(_amount);\r\n        emit Refund(_to, _amount);\r\n    }\r\n\r\n    /**\r\n    *@dev Allow owner to withdraw funds\r\n    *@param _to address to send funds\r\n    *@param _amount to send\r\n    */\r\n    function withdraw(address _to, uint _amount) public onlyOwner {\r\n        _to.transfer(_amount);\r\n    }    \r\n}\r\n",
  "sourcePath": "C:\\company\\code\\drct_standard\\contracts\\Membership.sol",
  "compiler": {
    "name": "solc",
    "version": "0.4.24+commit.e67f0147.Emscripten.clang"
  },
  "schemaVersion": "2.0.1",
  "updatedAt": "2018-07-16T18:24:58.406Z"
}