{
  "contractName": "Membership",
  "abi": [
    {
      "constant": true,
      "inputs": [
        {
          "name": "",
          "type": "address"
        }
      ],
      "name": "members",
      "outputs": [
        {
          "name": "memberId",
          "type": "uint256"
        },
        {
          "name": "membershipType",
          "type": "uint256"
        }
      ],
      "payable": false,
      "stateMutability": "view",
      "type": "function"
    },
    {
      "constant": true,
      "inputs": [
        {
          "name": "",
          "type": "uint256"
        }
      ],
      "name": "membersAccts",
      "outputs": [
        {
          "name": "",
          "type": "address"
        }
      ],
      "payable": false,
      "stateMutability": "view",
      "type": "function"
    },
    {
      "constant": true,
      "inputs": [],
      "name": "owner",
      "outputs": [
        {
          "name": "",
          "type": "address"
        }
      ],
      "payable": false,
      "stateMutability": "view",
      "type": "function"
    },
    {
      "constant": true,
      "inputs": [],
      "name": "memberFee",
      "outputs": [
        {
          "name": "",
          "type": "uint256"
        }
      ],
      "payable": false,
      "stateMutability": "view",
      "type": "function"
    },
    {
      "constant": true,
      "inputs": [
        {
          "name": "",
          "type": "address"
        }
      ],
      "name": "membersAcctsIndex",
      "outputs": [
        {
          "name": "",
          "type": "uint256"
        }
      ],
      "payable": false,
      "stateMutability": "view",
      "type": "function"
    },
    {
      "inputs": [],
      "payable": false,
      "stateMutability": "nonpayable",
      "type": "constructor"
    },
    {
      "anonymous": false,
      "inputs": [
        {
          "indexed": false,
          "name": "_from",
          "type": "address"
        },
        {
          "indexed": false,
          "name": "_to",
          "type": "address"
        }
      ],
      "name": "UpdateMemberAddress",
      "type": "event"
    },
    {
      "anonymous": false,
      "inputs": [
        {
          "indexed": false,
          "name": "_address",
          "type": "address"
        },
        {
          "indexed": false,
          "name": "_memberId",
          "type": "uint256"
        },
        {
          "indexed": false,
          "name": "_membershipType",
          "type": "uint256"
        }
      ],
      "name": "NewMember",
      "type": "event"
    },
    {
      "anonymous": false,
      "inputs": [
        {
          "indexed": false,
          "name": "_address",
          "type": "address"
        },
        {
          "indexed": false,
          "name": "_amount",
          "type": "uint256"
        }
      ],
      "name": "Refund",
      "type": "event"
    },
    {
      "constant": false,
      "inputs": [
        {
          "name": "_memberFee",
          "type": "uint256"
        }
      ],
      "name": "setFee",
      "outputs": [],
      "payable": false,
      "stateMutability": "nonpayable",
      "type": "function"
    },
    {
      "constant": false,
      "inputs": [],
      "name": "requestMembership",
      "outputs": [],
      "payable": true,
      "stateMutability": "payable",
      "type": "function"
    },
    {
      "constant": false,
      "inputs": [
        {
          "name": "_from",
          "type": "address"
        },
        {
          "name": "_to",
          "type": "address"
        }
      ],
      "name": "updateMemberAddress",
      "outputs": [],
      "payable": false,
      "stateMutability": "nonpayable",
      "type": "function"
    },
    {
      "constant": false,
      "inputs": [
        {
          "name": "_memberAddress",
          "type": "address"
        },
        {
          "name": "_membershipType",
          "type": "uint256"
        }
      ],
      "name": "setMembershipType",
      "outputs": [],
      "payable": false,
      "stateMutability": "nonpayable",
      "type": "function"
    },
    {
      "constant": false,
      "inputs": [
        {
          "name": "_memberAddress",
          "type": "address"
        },
        {
          "name": "_memberId",
          "type": "uint256"
        }
      ],
      "name": "setMemberId",
      "outputs": [],
      "payable": false,
      "stateMutability": "nonpayable",
      "type": "function"
    },
    {
      "constant": false,
      "inputs": [
        {
          "name": "_memberAddress",
          "type": "address"
        }
      ],
      "name": "removeMemberAcct",
      "outputs": [],
      "payable": false,
      "stateMutability": "nonpayable",
      "type": "function"
    },
    {
      "constant": false,
      "inputs": [
        {
          "name": "_memberAddress",
          "type": "address"
        }
      ],
      "name": "addMemberAcct",
      "outputs": [],
      "payable": false,
      "stateMutability": "nonpayable",
      "type": "function"
    },
    {
      "constant": true,
      "inputs": [],
      "name": "getMembers",
      "outputs": [
        {
          "name": "",
          "type": "address[]"
        }
      ],
      "payable": false,
      "stateMutability": "view",
      "type": "function"
    },
    {
      "constant": true,
      "inputs": [
        {
          "name": "_memberAddress",
          "type": "address"
        }
      ],
      "name": "getMember",
      "outputs": [
        {
          "name": "",
          "type": "uint256"
        },
        {
          "name": "",
          "type": "uint256"
        }
      ],
      "payable": false,
      "stateMutability": "view",
      "type": "function"
    },
    {
      "constant": true,
      "inputs": [],
      "name": "countMembers",
      "outputs": [
        {
          "name": "",
          "type": "uint256"
        }
      ],
      "payable": false,
      "stateMutability": "view",
      "type": "function"
    },
    {
      "constant": true,
      "inputs": [
        {
          "name": "_memberAddress",
          "type": "address"
        }
      ],
      "name": "getMembershipType",
      "outputs": [
        {
          "name": "",
          "type": "uint256"
        }
      ],
      "payable": false,
      "stateMutability": "view",
      "type": "function"
    },
    {
      "constant": false,
      "inputs": [
        {
          "name": "_new_owner",
          "type": "address"
        }
      ],
      "name": "setOwner",
      "outputs": [],
      "payable": false,
      "stateMutability": "nonpayable",
      "type": "function"
    },
    {
      "constant": false,
      "inputs": [
        {
          "name": "_to",
          "type": "address"
        },
        {
          "name": "_amount",
          "type": "uint256"
        }
      ],
      "name": "refund",
      "outputs": [],
      "payable": false,
      "stateMutability": "nonpayable",
      "type": "function"
    },
    {
      "constant": false,
      "inputs": [
        {
          "name": "_to",
          "type": "address"
        },
        {
          "name": "_amount",
          "type": "uint256"
        }
      ],
      "name": "withdraw",
      "outputs": [],
      "payable": false,
      "stateMutability": "nonpayable",
      "type": "function"
    }
  ],
  "bytecode": "0x608060405234801561001057600080fd5b50336000806101000a81548173ffffffffffffffffffffffffffffffffffffffff021916908373ffffffffffffffffffffffffffffffffffffffff160217905550611658806100606000396000f300608060405260043610610107576000357c0100000000000000000000000000000000000000000000000000000000900463ffffffff16806308ae4b0c1461010c57806313af40351461016a5780631b6bc433146101ad5780632ada2596146101f05780632cd046eb1461024e578063410085df1461027957806364d92f59146102c657806369fe0e2d1461033357806378b226c4146103605780637b10b293146103c35780638da5cb5b146103cd5780639eab525314610424578063b2a1c54014610490578063b5b7916b146104dd578063d309888314610534578063dfb154cf1461055f578063e2d2dcca146105b6578063eafb2b7a146105f9578063f3fef3a314610646575b600080fd5b34801561011857600080fd5b5061014d600480360381019080803573ffffffffffffffffffffffffffffffffffffffff169060200190929190505050610693565b604051808381526020018281526020019250505060405180910390f35b34801561017657600080fd5b506101ab600480360381019080803573ffffffffffffffffffffffffffffffffffffffff1690602001909291905050506106b7565b005b3480156101b957600080fd5b506101ee600480360381019080803573ffffffffffffffffffffffffffffffffffffffff169060200190929190505050610755565b005b3480156101fc57600080fd5b50610231600480360381019080803573ffffffffffffffffffffffffffffffffffffffff169060200190929190505050610975565b604051808381526020018281526020019250505060405180910390f35b34801561025a57600080fd5b50610263610a07565b6040518082815260200191505060405180910390f35b34801561028557600080fd5b506102c4600480360381019080803573ffffffffffffffffffffffffffffffffffffffff16906020019092919080359060200190929190505050610a14565b005b3480156102d257600080fd5b506102f160048036038101908080359060200190929190505050610b79565b604051808273ffffffffffffffffffffffffffffffffffffffff1673ffffffffffffffffffffffffffffffffffffffff16815260200191505060405180910390f35b34801561033f57600080fd5b5061035e60048036038101908080359060200190929190505050610bb7565b005b34801561036c57600080fd5b506103c1600480360381019080803573ffffffffffffffffffffffffffffffffffffffff169060200190929190803573ffffffffffffffffffffffffffffffffffffffff169060200190929190505050610c1c565b005b6103cb610e75565b005b3480156103d957600080fd5b506103e261101e565b604051808273ffffffffffffffffffffffffffffffffffffffff1673ffffffffffffffffffffffffffffffffffffffff16815260200191505060405180910390f35b34801561043057600080fd5b50610439611043565b6040518080602001828103825283818151815260200191508051906020019060200280838360005b8381101561047c578082015181840152602081019050610461565b505050509050019250505060405180910390f35b34801561049c57600080fd5b506104db600480360381019080803573ffffffffffffffffffffffffffffffffffffffff169060200190929190803590602001909291905050506110d1565b005b3480156104e957600080fd5b5061051e600480360381019080803573ffffffffffffffffffffffffffffffffffffffff16906020019092919050505061117d565b6040518082815260200191505060405180910390f35b34801561054057600080fd5b506105496111c9565b6040518082815260200191505060405180910390f35b34801561056b57600080fd5b506105a0600480360381019080803573ffffffffffffffffffffffffffffffffffffffff1690602001909291905050506111cf565b6040518082815260200191505060405180910390f35b3480156105c257600080fd5b506105f7600480360381019080803573ffffffffffffffffffffffffffffffffffffffff1690602001909291905050506111e7565b005b34801561060557600080fd5b50610644600480360381019080803573ffffffffffffffffffffffffffffffffffffffff16906020019092919080359060200190929190505050611470565b005b34801561065257600080fd5b50610691600480360381019080803573ffffffffffffffffffffffffffffffffffffffff1690602001909291908035906020019092919050505061151c565b005b60026020528060005260406000206000915090508060000154908060010154905082565b6000809054906101000a900473ffffffffffffffffffffffffffffffffffffffff1673ffffffffffffffffffffffffffffffffffffffff163373ffffffffffffffffffffffffffffffffffffffff1614151561071257600080fd5b806000806101000a81548173ffffffffffffffffffffffffffffffffffffffff021916908373ffffffffffffffffffffffffffffffffffffffff16021790555050565b60008060009054906101000a900473ffffffffffffffffffffffffffffffffffffffff1673ffffffffffffffffffffffffffffffffffffffff163373ffffffffffffffffffffffffffffffffffffffff161415156107b257600080fd5b600073ffffffffffffffffffffffffffffffffffffffff168273ffffffffffffffffffffffffffffffffffffffff16141515156107ee57600080fd5b600260008373ffffffffffffffffffffffffffffffffffffffff1673ffffffffffffffffffffffffffffffffffffffff1681526020019081526020016000209050600380549050600460008473ffffffffffffffffffffffffffffffffffffffff1673ffffffffffffffffffffffffffffffffffffffff1681526020019081526020016000208190555060038290806001815401808255809150509060018203906000526020600020016000909192909190916101000a81548173ffffffffffffffffffffffffffffffffffffffff021916908373ffffffffffffffffffffffffffffffffffffffff160217905550506003805490508160000181905550600181600101819055507f64c0a7725c138cdfade4dd197629de852807f220b1d1e01f3b3ade43b600fd708282600001548360010154604051808473ffffffffffffffffffffffffffffffffffffffff1673ffffffffffffffffffffffffffffffffffffffff168152602001838152602001828152602001935050505060405180910390a15050565b600080600260008473ffffffffffffffffffffffffffffffffffffffff1673ffffffffffffffffffffffffffffffffffffffff16815260200190815260200160002060000154600260008573ffffffffffffffffffffffffffffffffffffffff1673ffffffffffffffffffffffffffffffffffffffff1681526020019081526020016000206001015491509150915091565b6000600380549050905090565b6000809054906101000a900473ffffffffffffffffffffffffffffffffffffffff1673ffffffffffffffffffffffffffffffffffffffff163373ffffffffffffffffffffffffffffffffffffffff16141515610a6f57600080fd5b600073ffffffffffffffffffffffffffffffffffffffff168273ffffffffffffffffffffffffffffffffffffffff1614151515610aab57600080fd5b6000811415610aba5760015490505b610ac3826111e7565b8173ffffffffffffffffffffffffffffffffffffffff166108fc829081150290604051600060405180830381858888f19350505050158015610b09573d6000803e3d6000fd5b507fbb28353e4598c3b9199101a66e0989549b659a59a54d2c27fbb183f1932c8e6d8282604051808373ffffffffffffffffffffffffffffffffffffffff1673ffffffffffffffffffffffffffffffffffffffff1681526020018281526020019250505060405180910390a15050565b600381815481101515610b8857fe5b906000526020600020016000915054906101000a900473ffffffffffffffffffffffffffffffffffffffff1681565b6000809054906101000a900473ffffffffffffffffffffffffffffffffffffffff1673ffffffffffffffffffffffffffffffffffffffff163373ffffffffffffffffffffffffffffffffffffffff16141515610c1257600080fd5b8060018190555050565b6000806000809054906101000a900473ffffffffffffffffffffffffffffffffffffffff1673ffffffffffffffffffffffffffffffffffffffff163373ffffffffffffffffffffffffffffffffffffffff16141515610c7a57600080fd5b600073ffffffffffffffffffffffffffffffffffffffff168373ffffffffffffffffffffffffffffffffffffffff1614151515610cb657600080fd5b600260008573ffffffffffffffffffffffffffffffffffffffff1673ffffffffffffffffffffffffffffffffffffffff1681526020019081526020016000209150600260008473ffffffffffffffffffffffffffffffffffffffff1673ffffffffffffffffffffffffffffffffffffffff168152602001908152602001600020905060008160000154141515610d4b57600080fd5b81600001548160000181905550816001015481600101819055508260036001846000015403815481101515610d7c57fe5b9060005260206000200160006101000a81548173ffffffffffffffffffffffffffffffffffffffff021916908373ffffffffffffffffffffffffffffffffffffffff16021790555060008260000181905550600082600101819055507fbdfe571e1a80dbaccacacb54ca665e418fbc172eeaab2ebfa235385cdc4591fc8484604051808373ffffffffffffffffffffffffffffffffffffffff1673ffffffffffffffffffffffffffffffffffffffff1681526020018273ffffffffffffffffffffffffffffffffffffffff1673ffffffffffffffffffffffffffffffffffffffff1681526020019250505060405180910390a150505050565b6000600260003373ffffffffffffffffffffffffffffffffffffffff1673ffffffffffffffffffffffffffffffffffffffff16815260200190815260200160002090506001543410158015610ece575060008160010154145b1515610ed957600080fd5b600380549050600460003373ffffffffffffffffffffffffffffffffffffffff1673ffffffffffffffffffffffffffffffffffffffff1681526020019081526020016000208190555060033390806001815401808255809150509060018203906000526020600020016000909192909190916101000a81548173ffffffffffffffffffffffffffffffffffffffff021916908373ffffffffffffffffffffffffffffffffffffffff160217905550506003805490508160000181905550600181600101819055507f64c0a7725c138cdfade4dd197629de852807f220b1d1e01f3b3ade43b600fd703382600001548360010154604051808473ffffffffffffffffffffffffffffffffffffffff1673ffffffffffffffffffffffffffffffffffffffff168152602001838152602001828152602001935050505060405180910390a150565b6000809054906101000a900473ffffffffffffffffffffffffffffffffffffffff1681565b606060038054806020026020016040519081016040528092919081815260200182805480156110c757602002820191906000526020600020905b8160009054906101000a900473ffffffffffffffffffffffffffffffffffffffff1673ffffffffffffffffffffffffffffffffffffffff168152602001906001019080831161107d575b5050505050905090565b60008060009054906101000a900473ffffffffffffffffffffffffffffffffffffffff1673ffffffffffffffffffffffffffffffffffffffff163373ffffffffffffffffffffffffffffffffffffffff1614151561112e57600080fd5b600260008473ffffffffffffffffffffffffffffffffffffffff1673ffffffffffffffffffffffffffffffffffffffff1681526020019081526020016000209050818160000181905550505050565b6000600260008373ffffffffffffffffffffffffffffffffffffffff1673ffffffffffffffffffffffffffffffffffffffff168152602001908152602001600020600101549050919050565b60015481565b60046020528060005260406000206000915090505481565b6000806000806000809054906101000a900473ffffffffffffffffffffffffffffffffffffffff1673ffffffffffffffffffffffffffffffffffffffff163373ffffffffffffffffffffffffffffffffffffffff1614151561124857600080fd5b600073ffffffffffffffffffffffffffffffffffffffff168573ffffffffffffffffffffffffffffffffffffffff161415151561128457600080fd5b600260008673ffffffffffffffffffffffffffffffffffffffff1673ffffffffffffffffffffffffffffffffffffffff16815260200190815260200160002090506000816000018190555060008160010181905550600460008673ffffffffffffffffffffffffffffffffffffffff1673ffffffffffffffffffffffffffffffffffffffff16815260200190815260200160002054935061133460016003805490506115c290919063ffffffff16565b925060038381548110151561134557fe5b9060005260206000200160009054906101000a900473ffffffffffffffffffffffffffffffffffffffff1691508160038581548110151561138257fe5b9060005260206000200160006101000a81548173ffffffffffffffffffffffffffffffffffffffff021916908373ffffffffffffffffffffffffffffffffffffffff16021790555083600460008473ffffffffffffffffffffffffffffffffffffffff1673ffffffffffffffffffffffffffffffffffffffff16815260200190815260200160002081905550600380548091906001900361142391906115db565b506000600460008773ffffffffffffffffffffffffffffffffffffffff1673ffffffffffffffffffffffffffffffffffffffff168152602001908152602001600020819055505050505050565b60008060009054906101000a900473ffffffffffffffffffffffffffffffffffffffff1673ffffffffffffffffffffffffffffffffffffffff163373ffffffffffffffffffffffffffffffffffffffff161415156114cd57600080fd5b600260008473ffffffffffffffffffffffffffffffffffffffff1673ffffffffffffffffffffffffffffffffffffffff1681526020019081526020016000209050818160010181905550505050565b6000809054906101000a900473ffffffffffffffffffffffffffffffffffffffff1673ffffffffffffffffffffffffffffffffffffffff163373ffffffffffffffffffffffffffffffffffffffff1614151561157757600080fd5b8173ffffffffffffffffffffffffffffffffffffffff166108fc829081150290604051600060405180830381858888f193505050501580156115bd573d6000803e3d6000fd5b505050565b60008282111515156115d057fe5b818303905092915050565b815481835581811115611602578183600052602060002091820191016116019190611607565b5b505050565b61162991905b8082111561162557600081600090555060010161160d565b5090565b905600a165627a7a72305820cebc0c42c0844162b97443a9e5b7db160a52e21f7bf3e404318add414eb0057c0029",
  "source": "pragma solidity ^0.4.24;\r\nimport \"./libraries/SafeMath.sol\";\r\n\r\n/**\r\n*This contract allows users to sign up for the DDA Cooperative Membership.\r\n*To complete membership DDA will provide instructions to complete KYC/AML verification\r\n*through a system external to this contract.\r\n*/\r\ncontract Membership {\r\n    using SafeMath for uint256;\r\n    \r\n    /*Variables*/\r\n    address public owner;\r\n    //Memebership fees\r\n    uint public memberFee;\r\n\r\n    /*Structs*/\r\n    /**\r\n    *@dev Keeps member information \r\n    */\r\n    struct Member {\r\n        uint memberId;\r\n        uint membershipType;\r\n    }\r\n    \r\n    /*Mappings*/\r\n    //Members information\r\n    mapping(address => Member) public members;\r\n    address[] public membersAccts;\r\n    mapping (address => uint) public membersAcctsIndex;\r\n\r\n    /*Events*/\r\n    event UpdateMemberAddress(address _from, address _to);\r\n    event NewMember(address _address, uint _memberId, uint _membershipType);\r\n    event Refund(address _address, uint _amount);\r\n\r\n    /*Modifiers*/\r\n    modifier onlyOwner() {\r\n        require(msg.sender == owner);\r\n        _;\r\n    }\r\n    \r\n    /*Functions*/\r\n    /**\r\n    *@dev Constructor - Sets owner\r\n    */\r\n     constructor() public {\r\n        owner = msg.sender;\r\n    }\r\n\r\n    /*\r\n    *@dev Updates the fee amount\r\n    *@param _memberFee fee amount for member\r\n    */\r\n    function setFee(uint _memberFee) public onlyOwner() {\r\n        //define fee structure for the three membership types\r\n        memberFee = _memberFee;\r\n    }\r\n    \r\n    /**\r\n    *@notice Allows a user to become DDA members if they pay the fee. However, they still have to complete\r\n    *complete KYC/AML verification off line\r\n    *@dev This creates and transfers the token to the msg.sender\r\n    */\r\n    function requestMembership() public payable {\r\n        Member storage sender = members[msg.sender];\r\n        require(msg.value >= memberFee && sender.membershipType == 0 );\r\n        membersAcctsIndex[msg.sender] = membersAccts.length;\r\n        membersAccts.push(msg.sender);\r\n        sender.memberId = membersAccts.length;\r\n        sender.membershipType = 1;\r\n        emit NewMember(msg.sender, sender.memberId, sender.membershipType);\r\n    }\r\n    \r\n    /**\r\n    *@dev This updates/transfers the member address \r\n    *@param _from is the current member address\r\n    *@param _to is the address the member would like to update their current address with\r\n    */\r\n    function updateMemberAddress(address _from, address _to) public onlyOwner {\r\n        require(_to != address(0));\r\n        Member storage currentAddress = members[_from];\r\n        Member storage newAddress = members[_to];\r\n        require(newAddress.memberId == 0);\r\n        newAddress.memberId = currentAddress.memberId;\r\n        newAddress.membershipType = currentAddress.membershipType;\r\n\t\tmembersAccts[currentAddress.memberId - 1] = _to;\r\n        currentAddress.memberId = 0;\r\n        currentAddress.membershipType = 0;\r\n        emit UpdateMemberAddress(_from, _to);\r\n    }\r\n\r\n    /**\r\n    *@dev Use this function to set membershipType for the member\r\n    *@param _memberAddress address of member that we need to update membershipType\r\n    *@param _membershipType type of membership to assign to member\r\n    */\r\n    function setMembershipType(address _memberAddress,  uint _membershipType) public onlyOwner{\r\n        Member storage memberAddress = members[_memberAddress];\r\n        memberAddress.membershipType = _membershipType;\r\n    }\r\n\r\n    /**\r\n    *@dev Use this function to set memberId for the member\r\n    *@param _memberAddress address of member that we need to update membershipType\r\n    *@param _memberId is the manually assigned memberId\r\n    */\r\n    function setMemberId(address _memberAddress,  uint _memberId) public onlyOwner{\r\n        Member storage memberAddress = members[_memberAddress];\r\n        memberAddress.memberId = _memberId;\r\n    }\r\n\r\n    /**\r\n    *@dev Use this function to remove member acct from array memberAcct\r\n    *@param _memberAddress address of member to remove\r\n    */\r\n    function removeMemberAcct(address _memberAddress) public onlyOwner{\r\n        require(_memberAddress != address(0));\r\n        uint256 indexToDelete;\r\n        uint256 lastAcctIndex;\r\n        address lastAdd;\r\n        Member storage memberAddress = members[_memberAddress];\r\n        memberAddress.memberId = 0;\r\n        memberAddress.membershipType = 0;\r\n        indexToDelete = membersAcctsIndex[_memberAddress];\r\n        lastAcctIndex = membersAccts.length.sub(1);\r\n        lastAdd = membersAccts[lastAcctIndex];\r\n        membersAccts[indexToDelete]=lastAdd;\r\n        membersAcctsIndex[lastAdd] = indexToDelete;   \r\n        membersAccts.length--;\r\n        membersAcctsIndex[_memberAddress]=0; \r\n    }\r\n\r\n\r\n    /**\r\n    *@dev Use this function to member acct from array memberAcct\r\n    *@param _memberAddress address of member to add\r\n    */\r\n    function addMemberAcct(address _memberAddress) public onlyOwner{\r\n        require(_memberAddress != address(0));\r\n        Member storage memberAddress = members[_memberAddress];\r\n        membersAcctsIndex[_memberAddress] = membersAccts.length; \r\n        membersAccts.push(_memberAddress);\r\n        memberAddress.memberId = membersAccts.length;\r\n        memberAddress.membershipType = 1;\r\n        emit NewMember(_memberAddress, memberAddress.memberId, memberAddress.membershipType);\r\n    }\r\n\r\n    /**\r\n    *@dev getter function to get all membersAccts\r\n    */\r\n    function getMembers() view public returns (address[]){\r\n        return membersAccts;\r\n    }\r\n    \r\n    /**\r\n    *@dev Get member information\r\n    *@param _memberAddress address to pull the memberId, membershipType and membership\r\n    */\r\n    function getMember(address _memberAddress) view public returns(uint, uint) {\r\n        return(members[_memberAddress].memberId, members[_memberAddress].membershipType);\r\n    }\r\n\r\n    /**\r\n    *@dev Gets length of array containing all member accounts or total supply\r\n    */\r\n    function countMembers() view public returns(uint) {\r\n        return membersAccts.length;\r\n    }\r\n\r\n    /**\r\n    *@dev Gets membership type\r\n    *@param _memberAddress address to view the membershipType\r\n    */\r\n    function getMembershipType(address _memberAddress) public constant returns(uint){\r\n        return members[_memberAddress].membershipType;\r\n    }\r\n    \r\n    /**\r\n    *@dev Allows the owner to set a new owner address\r\n    *@param _new_owner the new owner address\r\n    */\r\n    function setOwner(address _new_owner) public onlyOwner() { \r\n        owner = _new_owner; \r\n    }\r\n\r\n    /**\r\n    *@dev Refund money if KYC/AML fails\r\n    *@param _to address to send refund\r\n    *@param _amount to refund. If no amount  is specified the current memberFee is refunded\r\n    */\r\n    function refund(address _to, uint _amount) public onlyOwner {\r\n        require (_to != address(0));\r\n        if (_amount == 0) {_amount = memberFee;}\r\n        removeMemberAcct(_to);\r\n        _to.transfer(_amount);\r\n        emit Refund(_to, _amount);\r\n    }\r\n\r\n    /**\r\n    *@dev Allow owner to withdraw funds\r\n    *@param _to address to send funds\r\n    *@param _amount to send\r\n    */\r\n    function withdraw(address _to, uint _amount) public onlyOwner {\r\n        _to.transfer(_amount);\r\n    }    \r\n}\r\n",
  "sourcePath": "C:\\company\\code\\drct_standard\\contracts\\Membership.sol",
  "compiler": {
    "name": "solc",
    "version": "0.4.24+commit.e67f0147.Emscripten.clang"
  },
  "schemaVersion": "2.0.1",
  "updatedAt": "2018-09-04T16:48:50.149Z"
}