{
  "contractName": "Oracle",
  "abi": [
    {
      "constant": true,
      "inputs": [],
      "name": "API",
      "outputs": [
        {
          "name": "",
          "type": "string"
        }
      ],
      "payable": false,
      "stateMutability": "view",
      "type": "function"
    },
    {
      "constant": true,
      "inputs": [],
      "name": "API2",
      "outputs": [
        {
          "name": "",
          "type": "string"
        }
      ],
      "payable": false,
      "stateMutability": "view",
      "type": "function"
    },
    {
      "constant": true,
      "inputs": [
        {
          "name": "",
          "type": "bytes32"
        }
      ],
      "name": "info",
      "outputs": [
        {
          "name": "value",
          "type": "uint256"
        },
        {
          "name": "queried",
          "type": "bool"
        },
        {
          "name": "date",
          "type": "uint256"
        },
        {
          "name": "calledTime",
          "type": "uint256"
        },
        {
          "name": "called",
          "type": "bool"
        }
      ],
      "payable": false,
      "stateMutability": "view",
      "type": "function"
    },
    {
      "constant": true,
      "inputs": [
        {
          "name": "",
          "type": "uint256"
        }
      ],
      "name": "queryIds",
      "outputs": [
        {
          "name": "",
          "type": "bytes32"
        }
      ],
      "payable": false,
      "stateMutability": "view",
      "type": "function"
    },
    {
      "constant": true,
      "inputs": [],
      "name": "usedAPI",
      "outputs": [
        {
          "name": "",
          "type": "string"
        }
      ],
      "payable": false,
      "stateMutability": "view",
      "type": "function"
    },
    {
      "inputs": [
        {
          "name": "_api",
          "type": "string"
        },
        {
          "name": "_api2",
          "type": "string"
        }
      ],
      "payable": false,
      "stateMutability": "nonpayable",
      "type": "constructor"
    },
    {
      "anonymous": false,
      "inputs": [
        {
          "indexed": false,
          "name": "_key",
          "type": "uint256"
        },
        {
          "indexed": false,
          "name": "_value",
          "type": "uint256"
        }
      ],
      "name": "DocumentStored",
      "type": "event"
    },
    {
      "anonymous": false,
      "inputs": [
        {
          "indexed": false,
          "name": "description",
          "type": "string"
        }
      ],
      "name": "newOraclizeQuery",
      "type": "event"
    },
    {
      "constant": true,
      "inputs": [
        {
          "name": "_date",
          "type": "uint256"
        }
      ],
      "name": "retrieveData",
      "outputs": [
        {
          "name": "",
          "type": "uint256"
        }
      ],
      "payable": false,
      "stateMutability": "view",
      "type": "function"
    },
    {
      "constant": false,
      "inputs": [],
      "name": "pushData",
      "outputs": [],
      "payable": true,
      "stateMutability": "payable",
      "type": "function"
    },
    {
      "constant": true,
      "inputs": [],
      "name": "getusedAPI",
      "outputs": [
        {
          "name": "",
          "type": "string"
        }
      ],
      "payable": false,
      "stateMutability": "view",
      "type": "function"
    },
    {
      "constant": false,
      "inputs": [
        {
          "name": "_oraclizeID",
          "type": "bytes32"
        },
        {
          "name": "_result",
          "type": "string"
        }
      ],
      "name": "__callback",
      "outputs": [],
      "payable": false,
      "stateMutability": "nonpayable",
      "type": "function"
    },
    {
      "constant": false,
      "inputs": [
        {
          "name": "myid",
          "type": "bytes32"
        },
        {
          "name": "result",
          "type": "string"
        },
        {
          "name": "proof",
          "type": "bytes"
        }
      ],
      "name": "__callback",
      "outputs": [],
      "payable": false,
      "stateMutability": "nonpayable",
      "type": "function"
    },
    {
      "constant": false,
      "inputs": [],
      "name": "fund",
      "outputs": [],
      "payable": true,
      "stateMutability": "payable",
      "type": "function"
    },
    {
      "constant": true,
      "inputs": [
        {
          "name": "_date",
          "type": "uint256"
        }
      ],
      "name": "getQuery",
      "outputs": [
        {
          "name": "",
          "type": "bool"
        }
      ],
      "payable": false,
      "stateMutability": "view",
      "type": "function"
    }
  ],
  "bytecode": "0x60806040523480156200001157600080fd5b506040516200264c3803806200264c83398101806040528101908080518201929190602001805182019291905050508160069080519060200190620000589291906200007a565b508060079080519060200190620000719291906200007a565b50505062000129565b828054600181600116156101000203166002900490600052602060002090601f016020900481019282601f10620000bd57805160ff1916838001178555620000ee565b82800160010185558215620000ee579182015b82811115620000ed578251825591602001919060010190620000d0565b5b509050620000fd919062000101565b5090565b6200012691905b808211156200012257600081600090555060010162000108565b5090565b90565b61251380620001396000396000f3006080604052600436106100ba576000357c0100000000000000000000000000000000000000000000000000000000900463ffffffff16806327dc297e146100bf57806338bbfa50146101365780635bee29b7146101f3578063665b51ce146102345780637d7b0099146102c45780639932fa2814610354578063aeb2ffc1146103e4578063b60d428814610429578063b64a097e14610433578063c692c0491461049c578063c8521df1146104a6578063db5f5d7c146104ef575b600080fd5b3480156100cb57600080fd5b506101346004803603810190808035600019169060200190929190803590602001908201803590602001908080601f016020809104026020016040519081016040528093929190818152602001838380828437820191505050505050919291929050505061057f565b005b34801561014257600080fd5b506101f16004803603810190808035600019169060200190929190803590602001908201803590602001908080601f0160208091040260200160405190810160405280939291908181526020018383808284378201915050505050509192919290803590602001908201803590602001908080601f0160208091040260200160405190810160405280939291908181526020018383808284378201915050505050509192919290505050610688565b005b3480156101ff57600080fd5b5061021e6004803603810190808035906020019092919050505061068d565b6040518082815260200191505060405180910390f35b34801561024057600080fd5b506102496106cd565b6040518080602001828103825283818151815260200191508051906020019080838360005b8381101561028957808201518184015260208101905061026e565b50505050905090810190601f1680156102b65780820380516001836020036101000a031916815260200191505b509250505060405180910390f35b3480156102d057600080fd5b506102d961076f565b6040518080602001828103825283818151815260200191508051906020019080838360005b838110156103195780820151818401526020810190506102fe565b50505050905090810190601f1680156103465780820380516001836020036101000a031916815260200191505b509250505060405180910390f35b34801561036057600080fd5b5061036961080d565b6040518080602001828103825283818151815260200191508051906020019080838360005b838110156103a957808201518184015260208101905061038e565b50505050905090810190601f1680156103d65780820380516001836020036101000a031916815260200191505b509250505060405180910390f35b3480156103f057600080fd5b5061040f600480360381019080803590602001909291905050506108ab565b604051808215151515815260200191505060405180910390f35b6104316108f8565b005b34801561043f57600080fd5b5061046260048036038101908080356000191690602001909291905050506108fa565b6040518086815260200185151515158152602001848152602001838152602001821515151581526020019550505050505060405180910390f35b6104a461094a565b005b3480156104b257600080fd5b506104d160048036038101908080359060200190929190505050610e7c565b60405180826000191660001916815260200191505060405180910390f35b3480156104fb57600080fd5b50610504610e94565b6040518080602001828103825283818151815260200191508051906020019080838360005b83811015610544578082015181840152602081019050610529565b50505050905090810190601f1680156105715780820380516001836020036101000a031916815260200191505b509250505060405180910390f35b6000600a6000846000191660001916815260200190815260200160002090506105a6610f32565b73ffffffffffffffffffffffffffffffffffffffff163373ffffffffffffffffffffffffffffffffffffffff161480156105e95750600554600019168360001916145b15156105f457600080fd5b6105ff826003611290565b816000018190555060008160040160006101000a81548160ff02191690831515021790555060008160000154141561063c57600181600001819055505b7f25dac5e3ce09d66cb5ac7099effd09f1ee5b500d16d2e7c966f0ae75f89985f281600201548260000154604051808381526020018281526020019250505060405180910390a1505050565b505050565b600080600a600060096000868152602001908152602001600020546000191660001916815260200190815260200160002090508060000154915050919050565b606060088054600181600116156101000203166002900480601f0160208091040260200160405190810160405280929190818152602001828054600181600116156101000203166002900480156107655780601f1061073a57610100808354040283529160200191610765565b820191906000526020600020905b81548152906001019060200180831161074857829003601f168201915b5050505050905090565b60068054600181600116156101000203166002900480601f0160208091040260200160405190810160405280929190818152602001828054600181600116156101000203166002900480156108055780601f106107da57610100808354040283529160200191610805565b820191906000526020600020905b8154815290600101906020018083116107e857829003601f168201915b505050505081565b60078054600181600116156101000203166002900480601f0160208091040260200160405190810160405280929190818152602001828054600181600116156101000203166002900480156108a35780601f10610878576101008083540402835291602001916108a3565b820191906000526020600020905b81548152906001019060200180831161088657829003601f168201915b505050505081565b600080600a600060096000868152602001908152602001600020546000191660001916815260200190815260200160002090508060010160009054906101000a900460ff16915050919050565b565b600a6020528060005260406000206000915090508060000154908060010160009054906101000a900460ff16908060020154908060030154908060040160009054906101000a900460ff16905085565b6000806000620151804281151561095d57fe5b0642039250429150600a60006009600086815260200190815260200160002054600019166000191681526020019081526020016000209050600015158160010160009054906101000a900460ff1615151480156109be575060008160030154145b806109f2575060008160030154141580156109e15750610e108160030154018210155b80156109f1575060008160000154145b5b15156109fd57600080fd5b3073ffffffffffffffffffffffffffffffffffffffff1631610a536040805190810160405280600381526020017f55524c0000000000000000000000000000000000000000000000000000000000815250611584565b1115610b12577f46cb989ef9cef13e930e3b7f286225a086e716a90d63e0b7da85d310a9db0c9a60405180806020018281038252604b8152602001807f4f7261636c697a6520717565727920776173204e4f542073656e742c20706c6581526020017f6173652061646420736f6d652045544820746f20636f76657220666f7220746881526020017f652071756572792066656500000000000000000000000000000000000000000081525060600191505060405180910390a1610e77565b7f46cb989ef9cef13e930e3b7f286225a086e716a90d63e0b7da85d310a9db0c9a6040518080602001828103825260158152602001807f4f7261636c697a6520717565726965732073656e74000000000000000000000081525060200191505060405180910390a1600015158160040160009054906101000a900460ff1615151415610ca457610c716040805190810160405280600381526020017f55524c000000000000000000000000000000000000000000000000000000000081525060068054600181600116156101000203166002900480601f016020809104026020016040519081016040528092919081815260200182805460018160011615610100020316600290048015610c675780601f10610c3c57610100808354040283529160200191610c67565b820191906000526020600020905b815481529060010190602001808311610c4a57829003601f168201915b5050505050611954565b60058160001916905550600660089080546001816001161561010002031660029004610c9e9291906123bb565b50610dcb565b600115158160040160009054906101000a900460ff1615151415610dca57610d9b6040805190810160405280600381526020017f55524c000000000000000000000000000000000000000000000000000000000081525060078054600181600116156101000203166002900480601f016020809104026020016040519081016040528092919081815260200182805460018160011615610100020316600290048015610d915780601f10610d6657610100808354040283529160200191610d91565b820191906000526020600020905b815481529060010190602001808311610d7457829003601f168201915b5050505050611954565b60058160001916905550600760089080546001816001161561010002031660029004610dc89291906123bb565b505b5b600554600960008581526020019081526020016000208160001916905550600a6000600960008681526020019081526020016000205460001916600019168152602001908152602001600020905060018160010160006101000a81548160ff0219169083151502179055508281600201819055508181600301819055508060040160009054906101000a900460ff16158160040160006101000a81548160ff0219169083151502179055505b505050565b60096020528060005260406000206000915090505481565b60088054600181600116156101000203166002900480601f016020809104026020016040519081016040528092919081815260200182805460018160011615610100020316600290048015610f2a5780601f10610eff57610100808354040283529160200191610f2a565b820191906000526020600020905b815481529060010190602001808311610f0d57829003601f168201915b505050505081565b6000806000809054906101000a900473ffffffffffffffffffffffffffffffffffffffff1673ffffffffffffffffffffffffffffffffffffffff161480610fa257506000610fa06000809054906101000a900473ffffffffffffffffffffffffffffffffffffffff16611ef6565b145b15610fb357610fb16000611f01565b505b6000809054906101000a900473ffffffffffffffffffffffffffffffffffffffff1673ffffffffffffffffffffffffffffffffffffffff166338cc48316040518163ffffffff167c0100000000000000000000000000000000000000000000000000000000028152600401602060405180830381600087803b15801561103857600080fd5b505af115801561104c573d6000803e3d6000fd5b505050506040513d602081101561106257600080fd5b810190808051906020019092919050505073ffffffffffffffffffffffffffffffffffffffff16600160009054906101000a900473ffffffffffffffffffffffffffffffffffffffff1673ffffffffffffffffffffffffffffffffffffffff161415156111ca576000809054906101000a900473ffffffffffffffffffffffffffffffffffffffff1673ffffffffffffffffffffffffffffffffffffffff166338cc48316040518163ffffffff167c0100000000000000000000000000000000000000000000000000000000028152600401602060405180830381600087803b15801561114e57600080fd5b505af1158015611162573d6000803e3d6000fd5b505050506040513d602081101561117857600080fd5b8101908080519060200190929190505050600160006101000a81548173ffffffffffffffffffffffffffffffffffffffff021916908373ffffffffffffffffffffffffffffffffffffffff1602179055505b600160009054906101000a900473ffffffffffffffffffffffffffffffffffffffff1673ffffffffffffffffffffffffffffffffffffffff1663c281d19e6040518163ffffffff167c0100000000000000000000000000000000000000000000000000000000028152600401602060405180830381600087803b15801561125057600080fd5b505af1158015611264573d6000803e3d6000fd5b505050506040513d602081101561127a57600080fd5b8101908080519060200190929190505050905090565b6000606060008060008693506000925060009150600090505b83518110156115655760307f01000000000000000000000000000000000000000000000000000000000000000284828151811015156112e457fe5b9060200101517f010000000000000000000000000000000000000000000000000000000000000090047f0100000000000000000000000000000000000000000000000000000000000000027effffffffffffffffffffffffffffffffffffffffffffffffffffffffffffff1916101580156113fc575060397f010000000000000000000000000000000000000000000000000000000000000002848281518110151561138c57fe5b9060200101517f010000000000000000000000000000000000000000000000000000000000000090047f0100000000000000000000000000000000000000000000000000000000000000027effffffffffffffffffffffffffffffffffffffffffffffffffffffffffffff191611155b156114ad57811561141f57600086141561141557611565565b8580600190039650505b600a830292506030848281518110151561143557fe5b9060200101517f010000000000000000000000000000000000000000000000000000000000000090047f0100000000000000000000000000000000000000000000000000000000000000027f010000000000000000000000000000000000000000000000000000000000000090040383019250611558565b602e7f01000000000000000000000000000000000000000000000000000000000000000284828151811015156114df57fe5b9060200101517f010000000000000000000000000000000000000000000000000000000000000090047f0100000000000000000000000000000000000000000000000000000000000000027effffffffffffffffffffffffffffffffffffffffffffffffffffffffffffff1916141561155757600191505b5b80806001019150506112a9565b60008611156115775785600a0a830292505b8294505050505092915050565b6000806000809054906101000a900473ffffffffffffffffffffffffffffffffffffffff1673ffffffffffffffffffffffffffffffffffffffff1614806115f4575060006115f26000809054906101000a900473ffffffffffffffffffffffffffffffffffffffff16611ef6565b145b15611605576116036000611f01565b505b6000809054906101000a900473ffffffffffffffffffffffffffffffffffffffff1673ffffffffffffffffffffffffffffffffffffffff166338cc48316040518163ffffffff167c0100000000000000000000000000000000000000000000000000000000028152600401602060405180830381600087803b15801561168a57600080fd5b505af115801561169e573d6000803e3d6000fd5b505050506040513d60208110156116b457600080fd5b810190808051906020019092919050505073ffffffffffffffffffffffffffffffffffffffff16600160009054906101000a900473ffffffffffffffffffffffffffffffffffffffff1673ffffffffffffffffffffffffffffffffffffffff1614151561181c576000809054906101000a900473ffffffffffffffffffffffffffffffffffffffff1673ffffffffffffffffffffffffffffffffffffffff166338cc48316040518163ffffffff167c0100000000000000000000000000000000000000000000000000000000028152600401602060405180830381600087803b1580156117a057600080fd5b505af11580156117b4573d6000803e3d6000fd5b505050506040513d60208110156117ca57600080fd5b8101908080519060200190929190505050600160006101000a81548173ffffffffffffffffffffffffffffffffffffffff021916908373ffffffffffffffffffffffffffffffffffffffff1602179055505b600160009054906101000a900473ffffffffffffffffffffffffffffffffffffffff1673ffffffffffffffffffffffffffffffffffffffff1663524f3889836040518263ffffffff167c01000000000000000000000000000000000000000000000000000000000281526004018080602001828103825283818151815260200191508051906020019080838360005b838110156118c65780820151818401526020810190506118ab565b50505050905090810190601f1680156118f35780820380516001836020036101000a031916815260200191505b5092505050602060405180830381600087803b15801561191257600080fd5b505af1158015611926573d6000803e3d6000fd5b505050506040513d602081101561193c57600080fd5b81019080805190602001909291905050509050919050565b60008060008060009054906101000a900473ffffffffffffffffffffffffffffffffffffffff1673ffffffffffffffffffffffffffffffffffffffff1614806119c6575060006119c46000809054906101000a900473ffffffffffffffffffffffffffffffffffffffff16611ef6565b145b156119d7576119d56000611f01565b505b6000809054906101000a900473ffffffffffffffffffffffffffffffffffffffff1673ffffffffffffffffffffffffffffffffffffffff166338cc48316040518163ffffffff167c0100000000000000000000000000000000000000000000000000000000028152600401602060405180830381600087803b158015611a5c57600080fd5b505af1158015611a70573d6000803e3d6000fd5b505050506040513d6020811015611a8657600080fd5b810190808051906020019092919050505073ffffffffffffffffffffffffffffffffffffffff16600160009054906101000a900473ffffffffffffffffffffffffffffffffffffffff1673ffffffffffffffffffffffffffffffffffffffff16141515611bee576000809054906101000a900473ffffffffffffffffffffffffffffffffffffffff1673ffffffffffffffffffffffffffffffffffffffff166338cc48316040518163ffffffff167c0100000000000000000000000000000000000000000000000000000000028152600401602060405180830381600087803b158015611b7257600080fd5b505af1158015611b86573d6000803e3d6000fd5b505050506040513d6020811015611b9c57600080fd5b8101908080519060200190929190505050600160006101000a81548173ffffffffffffffffffffffffffffffffffffffff021916908373ffffffffffffffffffffffffffffffffffffffff1602179055505b600160009054906101000a900473ffffffffffffffffffffffffffffffffffffffff1673ffffffffffffffffffffffffffffffffffffffff1663524f3889856040518263ffffffff167c01000000000000000000000000000000000000000000000000000000000281526004018080602001828103825283818151815260200191508051906020019080838360005b83811015611c98578082015181840152602081019050611c7d565b50505050905090810190601f168015611cc55780820380516001836020036101000a031916815260200191505b5092505050602060405180830381600087803b158015611ce457600080fd5b505af1158015611cf8573d6000803e3d6000fd5b505050506040513d6020811015611d0e57600080fd5b8101908080519060200190929190505050905062030d403a02670de0b6b3a764000001811115611d445760006001029150611eef565b600160009054906101000a900473ffffffffffffffffffffffffffffffffffffffff1673ffffffffffffffffffffffffffffffffffffffff1663adf59f9982600087876040518563ffffffff167c0100000000000000000000000000000000000000000000000000000000028152600401808481526020018060200180602001838103835285818151815260200191508051906020019080838360005b83811015611dfc578082015181840152602081019050611de1565b50505050905090810190601f168015611e295780820380516001836020036101000a031916815260200191505b50838103825284818151815260200191508051906020019080838360005b83811015611e62578082015181840152602081019050611e47565b50505050905090810190601f168015611e8f5780820380516001836020036101000a031916815260200191505b50955050505050506020604051808303818588803b158015611eb057600080fd5b505af1158015611ec4573d6000803e3d6000fd5b50505050506040513d6020811015611edb57600080fd5b810190808051906020019092919050505091505b5092915050565b6000813b9050919050565b6000611f0b611f12565b9050919050565b600080611f32731d3b2638a7cc9f2cb3d298a3da7a90b67e5506ed611ef6565b1115611fd357731d3b2638a7cc9f2cb3d298a3da7a90b67e5506ed6000806101000a81548173ffffffffffffffffffffffffffffffffffffffff021916908373ffffffffffffffffffffffffffffffffffffffff160217905550611fca6040805190810160405280600b81526020017f6574685f6d61696e6e65740000000000000000000000000000000000000000008152506123a1565b6001905061239e565b6000611ff273c03a2615d5efaf5f49f60b7bb6583eaec212fdf1611ef6565b11156120935773c03a2615d5efaf5f49f60b7bb6583eaec212fdf16000806101000a81548173ffffffffffffffffffffffffffffffffffffffff021916908373ffffffffffffffffffffffffffffffffffffffff16021790555061208a6040805190810160405280600c81526020017f6574685f726f707374656e3300000000000000000000000000000000000000008152506123a1565b6001905061239e565b60006120b273b7a07bcf2ba2f2703b24c0691b5278999c59ac7e611ef6565b11156121535773b7a07bcf2ba2f2703b24c0691b5278999c59ac7e6000806101000a81548173ffffffffffffffffffffffffffffffffffffffff021916908373ffffffffffffffffffffffffffffffffffffffff16021790555061214a6040805190810160405280600981526020017f6574685f6b6f76616e00000000000000000000000000000000000000000000008152506123a1565b6001905061239e565b600061217273146500cfd35b22e4a392fe0adc06de1a1368ed48611ef6565b11156122135773146500cfd35b22e4a392fe0adc06de1a1368ed486000806101000a81548173ffffffffffffffffffffffffffffffffffffffff021916908373ffffffffffffffffffffffffffffffffffffffff16021790555061220a6040805190810160405280600b81526020017f6574685f72696e6b6562790000000000000000000000000000000000000000008152506123a1565b6001905061239e565b6000612232736f485c8bf6fc43ea212e93bbf8ce046c7f1cb475611ef6565b111561229557736f485c8bf6fc43ea212e93bbf8ce046c7f1cb4756000806101000a81548173ffffffffffffffffffffffffffffffffffffffff021916908373ffffffffffffffffffffffffffffffffffffffff1602179055506001905061239e565b60006122b47320e12a1f859b3feae5fb2a0a32c18f5a65555bbf611ef6565b1115612317577320e12a1f859b3feae5fb2a0a32c18f5a65555bbf6000806101000a81548173ffffffffffffffffffffffffffffffffffffffff021916908373ffffffffffffffffffffffffffffffffffffffff1602179055506001905061239e565b60006123367351efaf4c8b3c9afbd5ab9f4bbc82784ab6ef8faa611ef6565b1115612399577351efaf4c8b3c9afbd5ab9f4bbc82784ab6ef8faa6000806101000a81548173ffffffffffffffffffffffffffffffffffffffff021916908373ffffffffffffffffffffffffffffffffffffffff1602179055506001905061239e565b600090505b90565b80600290805190602001906123b7929190612442565b5050565b828054600181600116156101000203166002900490600052602060002090601f016020900481019282601f106123f45780548555612431565b8280016001018555821561243157600052602060002091601f016020900482015b82811115612430578254825591600101919060010190612415565b5b50905061243e91906124c2565b5090565b828054600181600116156101000203166002900490600052602060002090601f016020900481019282601f1061248357805160ff19168380011785556124b1565b828001600101855582156124b1579182015b828111156124b0578251825591602001919060010190612495565b5b5090506124be91906124c2565b5090565b6124e491905b808211156124e05760008160009055506001016124c8565b5090565b905600a165627a7a723058207d4eec5d003444dfb37fb7eae879ab8513a5820f80beeab8a3740b94e7abd2ea0029",
  "source": "pragma solidity ^0.4.24;\r\n\r\nimport \"oraclize-api/usingOraclize.sol\";\r\n\r\n/**\r\n*The Oracle contract provides the reference prices for the contracts.  Currently the Oracle is \r\n*updated by an off chain calculation by DDA.  Methodology can be found at \r\n*www.github.com/DecentralizedDerivatives/Oracles\r\n*/\r\n\r\ncontract Oracle is usingOraclize{\r\n    /*Variables*/\r\n    //Private queryId for Oraclize callback\r\n    bytes32 private queryID;\r\n    string public API;\r\n    string public API2;\r\n    string public usedAPI;\r\n\r\n    /*Structs*/\r\n    struct QueryInfo {\r\n        uint value;\r\n        bool queried;\r\n        uint date;\r\n        uint calledTime;\r\n        bool called;\r\n    }  \r\n    //Mapping of documents stored in the oracle\r\n    mapping(uint => bytes32) public queryIds;\r\n    mapping(bytes32 => QueryInfo ) public info;\r\n\r\n    /*Events*/\r\n    event DocumentStored(uint _key, uint _value);\r\n    event newOraclizeQuery(string description);\r\n\r\n    /*Functions*/\r\n    /**\r\n    *@dev Constructor, sets two public api strings\r\n    *e.g. \"json(https://api.gdax.com/products/BTC-USD/ticker).price\"\r\n    * \"json(https://api.binance.com/api/v3/ticker/price?symbol=BTCUSDT).price\"\r\n    * or \"json(https://api.gdax.com/products/ETH-USD/ticker).price\"\r\n    * \"json(https://api.binance.com/api/v3/ticker/price?symbol=ETHUSDT).price\"\r\n    */\r\n     constructor(string _api, string _api2) public{\r\n        API = _api;\r\n        API2 = _api2;\r\n    }\r\n\r\n    /**\r\n    *@dev RetrieveData - Returns stored value by given key\r\n    *@param _date Daily unix timestamp of key storing value (GMT 00:00:00)\r\n    */\r\n    function retrieveData(uint _date) public constant returns (uint) {\r\n        QueryInfo storage currentQuery = info[queryIds[_date]];\r\n        return currentQuery.value;\r\n    }\r\n\r\n    /**\r\n    *@dev PushData - Sends an Oraclize query for entered API\r\n    */\r\n    function pushData() public payable{\r\n        uint _key = now - (now % 86400);\r\n        uint _calledTime = now;\r\n        QueryInfo storage currentQuery = info[queryIds[_key]];\r\n        require(currentQuery.queried == false  && currentQuery.calledTime == 0 || \r\n            currentQuery.calledTime != 0 && _calledTime >= (currentQuery.calledTime + 3600) &&\r\n            currentQuery.value == 0);\r\n        if (oraclize_getPrice(\"URL\") > address(this).balance) {\r\n            emit newOraclizeQuery(\"Oraclize query was NOT sent, please add some ETH to cover for the query fee\");\r\n        } else {\r\n            emit newOraclizeQuery(\"Oraclize queries sent\");\r\n            if (currentQuery.called == false){\r\n                queryID = oraclize_query(\"URL\", API);\r\n                usedAPI=API;\r\n            } else if (currentQuery.called == true ){\r\n                queryID = oraclize_query(\"URL\", API2);\r\n                usedAPI=API2;  \r\n            }\r\n\r\n            queryIds[_key] = queryID;\r\n            currentQuery = info[queryIds[_key]];\r\n            currentQuery.queried = true;\r\n            currentQuery.date = _key;\r\n            currentQuery.calledTime = _calledTime;\r\n            currentQuery.called = !currentQuery.called;\r\n        }\r\n    }\r\n\r\n    /*\r\n    * gets API used for tests\r\n    */\r\n    function getusedAPI() public view returns(string){\r\n        return usedAPI;\r\n    }\r\n    \r\n    /**\r\n    *@dev Used by Oraclize to return value of PushData API call\r\n    *@param _oraclizeID unique oraclize identifier of call\r\n    *@param _result Result of API call in string format\r\n    */\r\n    function __callback(bytes32 _oraclizeID, string _result) public {\r\n        QueryInfo storage currentQuery = info[_oraclizeID];\r\n        require(msg.sender == oraclize_cbAddress() && _oraclizeID == queryID);\r\n        currentQuery.value = parseInt(_result,3);\r\n        currentQuery.called = false; \r\n        if(currentQuery.value == 0){\r\n            currentQuery.value = 1;\r\n        }\r\n        emit DocumentStored(currentQuery.date, currentQuery.value);\r\n    }\r\n\r\n    /**\r\n    *@dev Allows the contract to be funded in order to pay for oraclize calls\r\n    */\r\n    function fund() public payable {\r\n      \r\n    }\r\n\r\n    /**\r\n    *@dev Determine if the Oracle was queried\r\n    *@param _date Daily unix timestamp of key storing value (GMT 00:00:00)\r\n    *@return true or false based upon whether an API query has been \r\n    *initialized (or completed) for given date\r\n    */\r\n    function getQuery(uint _date) public view returns(bool){\r\n        QueryInfo storage currentQuery = info[queryIds[_date]];\r\n        return currentQuery.queried;\r\n    }\r\n}",
  "sourcePath": "C:\\company\\code\\drct_standard\\contracts\\Oracle.sol",
  "compiler": {
    "name": "solc",
    "version": "0.4.24+commit.e67f0147.Emscripten.clang"
  },
  "schemaVersion": "2.0.1",
  "updatedAt": "2018-09-03T02:20:33.463Z"
}