{
  "contractName": "Oracle",
  "abi": [
    {
      "constant": true,
      "inputs": [
        {
          "name": "",
          "type": "uint256"
        }
      ],
      "name": "queried",
      "outputs": [
        {
          "name": "",
          "type": "bool"
        }
      ],
      "payable": false,
      "stateMutability": "view",
      "type": "function"
    },
    {
      "constant": true,
      "inputs": [],
      "name": "API",
      "outputs": [
        {
          "name": "",
          "type": "string"
        }
      ],
      "payable": false,
      "stateMutability": "view",
      "type": "function"
    },
    {
      "constant": true,
      "inputs": [
        {
          "name": "",
          "type": "uint256"
        }
      ],
      "name": "oracle_values",
      "outputs": [
        {
          "name": "",
          "type": "uint256"
        }
      ],
      "payable": false,
      "stateMutability": "view",
      "type": "function"
    },
    {
      "inputs": [],
      "payable": false,
      "stateMutability": "nonpayable",
      "type": "constructor"
    },
    {
      "anonymous": false,
      "inputs": [
        {
          "indexed": false,
          "name": "_key",
          "type": "uint256"
        },
        {
          "indexed": false,
          "name": "_value",
          "type": "uint256"
        }
      ],
      "name": "DocumentStored",
      "type": "event"
    },
    {
      "anonymous": false,
      "inputs": [
        {
          "indexed": false,
          "name": "description",
          "type": "string"
        }
      ],
      "name": "newOraclizeQuery",
      "type": "event"
    },
    {
      "constant": true,
      "inputs": [
        {
          "name": "_date",
          "type": "uint256"
        }
      ],
      "name": "retrieveData",
      "outputs": [
        {
          "name": "",
          "type": "uint256"
        }
      ],
      "payable": false,
      "stateMutability": "view",
      "type": "function"
    },
    {
      "constant": false,
      "inputs": [],
      "name": "pushData",
      "outputs": [],
      "payable": true,
      "stateMutability": "payable",
      "type": "function"
    },
    {
      "constant": false,
      "inputs": [
        {
          "name": "_oraclizeID",
          "type": "bytes32"
        },
        {
          "name": "_result",
          "type": "string"
        }
      ],
      "name": "__callback",
      "outputs": [],
      "payable": false,
      "stateMutability": "nonpayable",
      "type": "function"
    },
    {
      "constant": false,
      "inputs": [
        {
          "name": "myid",
          "type": "bytes32"
        },
        {
          "name": "result",
          "type": "string"
        },
        {
          "name": "proof",
          "type": "bytes"
        }
      ],
      "name": "__callback",
      "outputs": [],
      "payable": false,
      "stateMutability": "nonpayable",
      "type": "function"
    },
    {
      "constant": false,
      "inputs": [],
      "name": "fund",
      "outputs": [],
      "payable": true,
      "stateMutability": "payable",
      "type": "function"
    },
    {
      "constant": true,
      "inputs": [
        {
          "name": "_date",
          "type": "uint256"
        }
      ],
      "name": "getQuery",
      "outputs": [
        {
          "name": "",
          "type": "bool"
        }
      ],
      "payable": false,
      "stateMutability": "view",
      "type": "function"
    }
  ],
  "bytecode": "0x606060405234156200001057600080fd5b606060405190810160405280603381526020017f68747470733a2f2f6170692e676461782e636f6d2f70726f64756374732f425481526020017f432d5553442f7469636b6572292e70726963650000000000000000000000000081525060069080519060200190620000849291906200008b565b506200013a565b828054600181600116156101000203166002900490600052602060002090601f016020900481019282601f10620000ce57805160ff1916838001178555620000ff565b82800160010185558215620000ff579182015b82811115620000fe578251825591602001919060010190620000e1565b5b5090506200010e919062000112565b5090565b6200013791905b808211156200013357600081600090555060010162000119565b5090565b90565b6118f1806200014a6000396000f300606060405260043610610099576000357c0100000000000000000000000000000000000000000000000000000000900463ffffffff16806318e857ab1461009e57806327dc297e146100d957806338bbfa50146101435780635bee29b7146101f05780637d7b0099146102275780638aed434a146102b5578063aeb2ffc1146102ec578063b60d428814610327578063c692c04914610331575b600080fd5b34156100a957600080fd5b6100bf600480803590602001909190505061033b565b604051808215151515815260200191505060405180910390f35b34156100e457600080fd5b61014160048080356000191690602001909190803590602001908201803590602001908080601f0160208091040260200160405190810160405280939291908181526020018383808284378201915050505050509190505061035b565b005b341561014e57600080fd5b6101ee60048080356000191690602001909190803590602001908201803590602001908080601f0160208091040260200160405190810160405280939291908181526020018383808284378201915050505050509190803590602001908201803590602001908080601f01602080910402602001604051908101604052809392919081815260200183838082843782019150505050505091905050610431565b005b34156101fb57600080fd5b6102116004808035906020019091905050610436565b6040518082815260200191505060405180910390f35b341561023257600080fd5b61023a610458565b6040518080602001828103825283818151815260200191508051906020019080838360005b8381101561027a57808201518184015260208101905061025f565b50505050905090810190601f1680156102a75780820380516001836020036101000a031916815260200191505b509250505060405180910390f35b34156102c057600080fd5b6102d660048080359060200190919050506104f6565b6040518082815260200191505060405180910390f35b34156102f757600080fd5b61030d600480803590602001909190505061050e565b604051808215151515815260200191505060405180910390f35b61032f610538565b005b61033961053a565b005b60086020528060005260406000206000915054906101000a900460ff1681565b6000806103666107d4565b73ffffffffffffffffffffffffffffffffffffffff163373ffffffffffffffffffffffffffffffffffffffff161480156103a95750600554600019168460001916145b15156103b457600080fd5b6103bf8360036109d1565b915062015180428115156103cf57fe5b06420390508160076000838152602001908152602001600020819055507f25dac5e3ce09d66cb5ac7099effd09f1ee5b500d16d2e7c966f0ae75f89985f28183604051808381526020018281526020019250505060405180910390a150505050565b505050565b6000806007600084815260200190815260200160002054905080915050919050565b60068054600181600116156101000203166002900480601f0160208091040260200160405190810160405280929190818152602001828054600181600116156101000203166002900480156104ee5780601f106104c3576101008083540402835291602001916104ee565b820191906000526020600020905b8154815290600101906020018083116104d157829003601f168201915b505050505081565b60076020528060005260406000206000915090505481565b60006008600083815260200190815260200160002060009054906101000a900460ff169050919050565b565b6000620151804281151561054a57fe5b0642039050600015156008600083815260200190815260200160002060009054906101000a900460ff16151514151561058257600080fd5b3073ffffffffffffffffffffffffffffffffffffffff16316105d86040805190810160405280600381526020017f55524c0000000000000000000000000000000000000000000000000000000000815250610ccb565b1115610697577f46cb989ef9cef13e930e3b7f286225a086e716a90d63e0b7da85d310a9db0c9a60405180806020018281038252604b8152602001807f4f7261636c697a6520717565727920776173204e4f542073656e742c20706c6581526020017f6173652061646420736f6d652045544820746f20636f76657220666f7220746881526020017f652071756572792066656500000000000000000000000000000000000000000081525060600191505060405180910390a16107d1565b7f46cb989ef9cef13e930e3b7f286225a086e716a90d63e0b7da85d310a9db0c9a6040518080602001828103825260158152602001807f4f7261636c697a6520717565726965732073656e74000000000000000000000081525060200191505060405180910390a161079a6040805190810160405280600381526020017f55524c0000000000000000000000000000000000000000000000000000000000815250606060405190810160405280603881526020017f6a736f6e2868747470733a2f2f6170692e676461782e636f6d2f70726f64756381526020017f74732f4254432d5553442f7469636b6572292e70726963650000000000000000815250610f3a565b6005816000191690555060016008600083815260200190815260200160002060006101000a81548160ff0219169083151502179055505b50565b6000806000809054906101000a900473ffffffffffffffffffffffffffffffffffffffff1673ffffffffffffffffffffffffffffffffffffffff161480610844575060006108426000809054906101000a900473ffffffffffffffffffffffffffffffffffffffff16611356565b145b15610855576108536000611361565b505b6000809054906101000a900473ffffffffffffffffffffffffffffffffffffffff1673ffffffffffffffffffffffffffffffffffffffff166338cc48316040518163ffffffff167c0100000000000000000000000000000000000000000000000000000000028152600401602060405180830381600087803b15156108d957600080fd5b5af115156108e657600080fd5b50505060405180519050600160006101000a81548173ffffffffffffffffffffffffffffffffffffffff021916908373ffffffffffffffffffffffffffffffffffffffff160217905550600160009054906101000a900473ffffffffffffffffffffffffffffffffffffffff1673ffffffffffffffffffffffffffffffffffffffff1663c281d19e6040518163ffffffff167c0100000000000000000000000000000000000000000000000000000000028152600401602060405180830381600087803b15156109b557600080fd5b5af115156109c257600080fd5b50505060405180519050905090565b60006109db61180c565b60008060008693506000925060009150600090505b8351811015610cac5760307f0100000000000000000000000000000000000000000000000000000000000000028482815181101515610a2b57fe5b9060200101517f010000000000000000000000000000000000000000000000000000000000000090047f0100000000000000000000000000000000000000000000000000000000000000027effffffffffffffffffffffffffffffffffffffffffffffffffffffffffffff191610158015610b43575060397f0100000000000000000000000000000000000000000000000000000000000000028482815181101515610ad357fe5b9060200101517f010000000000000000000000000000000000000000000000000000000000000090047f0100000000000000000000000000000000000000000000000000000000000000027effffffffffffffffffffffffffffffffffffffffffffffffffffffffffffff191611155b15610bf4578115610b66576000861415610b5c57610cac565b8580600190039650505b600a8302925060308482815181101515610b7c57fe5b9060200101517f010000000000000000000000000000000000000000000000000000000000000090047f0100000000000000000000000000000000000000000000000000000000000000027f010000000000000000000000000000000000000000000000000000000000000090040383019250610c9f565b602e7f0100000000000000000000000000000000000000000000000000000000000000028482815181101515610c2657fe5b9060200101517f010000000000000000000000000000000000000000000000000000000000000090047f0100000000000000000000000000000000000000000000000000000000000000027effffffffffffffffffffffffffffffffffffffffffffffffffffffffffffff19161415610c9e57600191505b5b80806001019150506109f0565b6000861115610cbe5785600a0a830292505b8294505050505092915050565b6000806000809054906101000a900473ffffffffffffffffffffffffffffffffffffffff1673ffffffffffffffffffffffffffffffffffffffff161480610d3b57506000610d396000809054906101000a900473ffffffffffffffffffffffffffffffffffffffff16611356565b145b15610d4c57610d4a6000611361565b505b6000809054906101000a900473ffffffffffffffffffffffffffffffffffffffff1673ffffffffffffffffffffffffffffffffffffffff166338cc48316040518163ffffffff167c0100000000000000000000000000000000000000000000000000000000028152600401602060405180830381600087803b1515610dd057600080fd5b5af11515610ddd57600080fd5b50505060405180519050600160006101000a81548173ffffffffffffffffffffffffffffffffffffffff021916908373ffffffffffffffffffffffffffffffffffffffff160217905550600160009054906101000a900473ffffffffffffffffffffffffffffffffffffffff1673ffffffffffffffffffffffffffffffffffffffff1663524f3889836040518263ffffffff167c01000000000000000000000000000000000000000000000000000000000281526004018080602001828103825283818151815260200191508051906020019080838360005b83811015610ed1578082015181840152602081019050610eb6565b50505050905090810190601f168015610efe5780820380516001836020036101000a031916815260200191505b5092505050602060405180830381600087803b1515610f1c57600080fd5b5af11515610f2957600080fd5b505050604051805190509050919050565b60008060008060009054906101000a900473ffffffffffffffffffffffffffffffffffffffff1673ffffffffffffffffffffffffffffffffffffffff161480610fac57506000610faa6000809054906101000a900473ffffffffffffffffffffffffffffffffffffffff16611356565b145b15610fbd57610fbb6000611361565b505b6000809054906101000a900473ffffffffffffffffffffffffffffffffffffffff1673ffffffffffffffffffffffffffffffffffffffff166338cc48316040518163ffffffff167c0100000000000000000000000000000000000000000000000000000000028152600401602060405180830381600087803b151561104157600080fd5b5af1151561104e57600080fd5b50505060405180519050600160006101000a81548173ffffffffffffffffffffffffffffffffffffffff021916908373ffffffffffffffffffffffffffffffffffffffff160217905550600160009054906101000a900473ffffffffffffffffffffffffffffffffffffffff1673ffffffffffffffffffffffffffffffffffffffff1663524f3889856040518263ffffffff167c01000000000000000000000000000000000000000000000000000000000281526004018080602001828103825283818151815260200191508051906020019080838360005b83811015611142578082015181840152602081019050611127565b50505050905090810190601f16801561116f5780820380516001836020036101000a031916815260200191505b5092505050602060405180830381600087803b151561118d57600080fd5b5af1151561119a57600080fd5b50505060405180519050905062030d403a02670de0b6b3a7640000018111156111c9576000600102915061134f565b600160009054906101000a900473ffffffffffffffffffffffffffffffffffffffff1673ffffffffffffffffffffffffffffffffffffffff1663adf59f9982600087876040518563ffffffff167c0100000000000000000000000000000000000000000000000000000000028152600401808481526020018060200180602001838103835285818151815260200191508051906020019080838360005b83811015611281578082015181840152602081019050611266565b50505050905090810190601f1680156112ae5780820380516001836020036101000a031916815260200191505b50838103825284818151815260200191508051906020019080838360005b838110156112e75780820151818401526020810190506112cc565b50505050905090810190601f1680156113145780820380516001836020036101000a031916815260200191505b50955050505050506020604051808303818588803b151561133457600080fd5b5af1151561134157600080fd5b505050506040518051905091505b5092915050565b6000813b9050919050565b600080611381731d3b2638a7cc9f2cb3d298a3da7a90b67e5506ed611356565b111561142257731d3b2638a7cc9f2cb3d298a3da7a90b67e5506ed6000806101000a81548173ffffffffffffffffffffffffffffffffffffffff021916908373ffffffffffffffffffffffffffffffffffffffff1602179055506114196040805190810160405280600b81526020017f6574685f6d61696e6e65740000000000000000000000000000000000000000008152506117f2565b600190506117ed565b600061144173c03a2615d5efaf5f49f60b7bb6583eaec212fdf1611356565b11156114e25773c03a2615d5efaf5f49f60b7bb6583eaec212fdf16000806101000a81548173ffffffffffffffffffffffffffffffffffffffff021916908373ffffffffffffffffffffffffffffffffffffffff1602179055506114d96040805190810160405280600c81526020017f6574685f726f707374656e3300000000000000000000000000000000000000008152506117f2565b600190506117ed565b600061150173b7a07bcf2ba2f2703b24c0691b5278999c59ac7e611356565b11156115a25773b7a07bcf2ba2f2703b24c0691b5278999c59ac7e6000806101000a81548173ffffffffffffffffffffffffffffffffffffffff021916908373ffffffffffffffffffffffffffffffffffffffff1602179055506115996040805190810160405280600981526020017f6574685f6b6f76616e00000000000000000000000000000000000000000000008152506117f2565b600190506117ed565b60006115c173146500cfd35b22e4a392fe0adc06de1a1368ed48611356565b11156116625773146500cfd35b22e4a392fe0adc06de1a1368ed486000806101000a81548173ffffffffffffffffffffffffffffffffffffffff021916908373ffffffffffffffffffffffffffffffffffffffff1602179055506116596040805190810160405280600b81526020017f6574685f72696e6b6562790000000000000000000000000000000000000000008152506117f2565b600190506117ed565b6000611681736f485c8bf6fc43ea212e93bbf8ce046c7f1cb475611356565b11156116e457736f485c8bf6fc43ea212e93bbf8ce046c7f1cb4756000806101000a81548173ffffffffffffffffffffffffffffffffffffffff021916908373ffffffffffffffffffffffffffffffffffffffff160217905550600190506117ed565b60006117037320e12a1f859b3feae5fb2a0a32c18f5a65555bbf611356565b1115611766577320e12a1f859b3feae5fb2a0a32c18f5a65555bbf6000806101000a81548173ffffffffffffffffffffffffffffffffffffffff021916908373ffffffffffffffffffffffffffffffffffffffff160217905550600190506117ed565b60006117857351efaf4c8b3c9afbd5ab9f4bbc82784ab6ef8faa611356565b11156117e8577351efaf4c8b3c9afbd5ab9f4bbc82784ab6ef8faa6000806101000a81548173ffffffffffffffffffffffffffffffffffffffff021916908373ffffffffffffffffffffffffffffffffffffffff160217905550600190506117ed565b600090505b919050565b8060029080519060200190611808929190611820565b5050565b602060405190810160405280600081525090565b828054600181600116156101000203166002900490600052602060002090601f016020900481019282601f1061186157805160ff191683800117855561188f565b8280016001018555821561188f579182015b8281111561188e578251825591602001919060010190611873565b5b50905061189c91906118a0565b5090565b6118c291905b808211156118be5760008160009055506001016118a6565b5090565b905600a165627a7a72305820e13e98057a4292da2ba6de93f7a835218a23128a28c37ede444908a07eabb14b0029",
  "source": "pragma solidity ^0.4.17;\r\n\r\nimport \"oraclize/usingOraclize.sol\";\r\n\r\n/**\r\n*The Oracle contract provides the reference prices for the contracts.  Currently the Oracle is \r\n*updated by an off chain calculation by DDA.  Methodology can be found at \r\n*www.github.com/DecentralizedDerivatives/Oracles\r\n*/\r\n\r\ncontract Oracle is usingOraclize{\r\n    /*Variables*/\r\n    //Private queryId for Oraclize callback\r\n    bytes32 private queryID;\r\n    string public API;\r\n\r\n\r\n    //Mapping of documents stored in the oracle\r\n    mapping(uint => uint) public oracle_values;\r\n    mapping(uint => bool) public queried;\r\n\r\n    /*Events*/\r\n    event DocumentStored(uint _key, uint _value);\r\n    event newOraclizeQuery(string description);\r\n\r\n    /*Functions*/\r\n    /*\r\n    *@dev - Constructor, sets public api string\r\n    */\r\n    function Oracle() public{\r\n        API = \"https://api.gdax.com/products/BTC-USD/ticker).price\";\r\n    }\r\n\r\n    /*\r\n    *@dev RetrieveData - Returns stored value by given key\r\n    *@param \"_date\": Daily unix timestamp of key storing value (GMT 00:00:00)\r\n    */\r\n    function retrieveData(uint _date) public constant returns (uint) {\r\n        uint value = oracle_values[_date];\r\n        return value;\r\n    }\r\n\r\n    /**\r\n    *@dev PushData - Sends an Oraclize query for entered API\r\n    */\r\n    function pushData() public payable{\r\n        uint _key = now - (now % 86400);\r\n        require(queried[_key] == false);\r\n        if (oraclize_getPrice(\"URL\") > address(this).balance) {\r\n            emit newOraclizeQuery(\"Oraclize query was NOT sent, please add some ETH to cover for the query fee\");\r\n        } else {\r\n            emit newOraclizeQuery(\"Oraclize queries sent\");\r\n            queryID = oraclize_query(\"URL\", \"json(https://api.gdax.com/products/BTC-USD/ticker).price\");\r\n            queried[_key] = true;\r\n        }\r\n    }\r\n\r\n    /**\r\n    *@dev Used by Oraclize to return value of PushData API call\r\n    *@param _oraclizeID unique oraclize identifier of call\r\n    *@param _result Result of API call in string format\r\n    */\r\n    function __callback(bytes32 _oraclizeID, string _result) public {\r\n        require(msg.sender == oraclize_cbAddress() && _oraclizeID == queryID);\r\n        uint _value = parseInt(_result,3);\r\n        uint _key = now - (now % 86400);\r\n        oracle_values[_key] = _value;\r\n        emit DocumentStored(_key, _value);\r\n    }\r\n\r\n    /**\r\n    *@dev Allows the contract to be funded in order to pay for oraclize calls\r\n    */\r\n    function fund() public payable {\r\n      \r\n    }\r\n\r\n    /**\r\n    *@dev Determine if the Oracle was queried\r\n    *@param _date Daily unix timestamp of key storing value (GMT 00:00:00)\r\n    *@return Returns true or false based upon whether an API query has been \r\n    *initialized (or completed) for given date\r\n    */\r\n    function getQuery(uint _date) public view returns(bool){\r\n        return queried[_date];\r\n    }\r\n}",
  "sourcePath": "C:\\company\\code\\drct_standard\\contracts\\Oracle.sol",
  "compiler": {
    "name": "solc",
    "version": "0.4.21+commit.dfe3193c.Emscripten.clang"
  },
  "schemaVersion": "2.0.0",
  "updatedAt": "2018-05-05T23:57:59.421Z"
}