{
  "contractName": "Oracle",
  "abi": [
    {
      "constant": true,
      "inputs": [],
      "name": "API",
      "outputs": [
        {
          "name": "",
          "type": "string"
        }
      ],
      "payable": false,
      "stateMutability": "view",
      "type": "function"
    },
    {
      "constant": true,
      "inputs": [],
      "name": "API2",
      "outputs": [
        {
          "name": "",
          "type": "string"
        }
      ],
      "payable": false,
      "stateMutability": "view",
      "type": "function"
    },
    {
      "constant": true,
      "inputs": [
        {
          "name": "",
          "type": "bytes32"
        }
      ],
      "name": "info",
      "outputs": [
        {
          "name": "value",
          "type": "uint256"
        },
        {
          "name": "queried",
          "type": "bool"
        },
        {
          "name": "date",
          "type": "uint256"
        },
        {
          "name": "calledTime",
          "type": "uint256"
        },
        {
          "name": "countCalls",
          "type": "uint256"
        }
      ],
      "payable": false,
      "stateMutability": "view",
      "type": "function"
    },
    {
      "constant": true,
      "inputs": [
        {
          "name": "",
          "type": "uint256"
        }
      ],
      "name": "queryIds",
      "outputs": [
        {
          "name": "",
          "type": "bytes32"
        }
      ],
      "payable": false,
      "stateMutability": "view",
      "type": "function"
    },
    {
      "inputs": [
        {
          "name": "_api",
          "type": "string"
        },
        {
          "name": "_api2",
          "type": "string"
        }
      ],
      "payable": false,
      "stateMutability": "nonpayable",
      "type": "constructor"
    },
    {
      "anonymous": false,
      "inputs": [
        {
          "indexed": false,
          "name": "_key",
          "type": "uint256"
        },
        {
          "indexed": false,
          "name": "_value",
          "type": "uint256"
        }
      ],
      "name": "DocumentStored",
      "type": "event"
    },
    {
      "anonymous": false,
      "inputs": [
        {
          "indexed": false,
          "name": "description",
          "type": "string"
        }
      ],
      "name": "newOraclizeQuery",
      "type": "event"
    },
    {
      "constant": true,
      "inputs": [
        {
          "name": "_date",
          "type": "uint256"
        }
      ],
      "name": "retrieveData",
      "outputs": [
        {
          "name": "",
          "type": "uint256"
        }
      ],
      "payable": false,
      "stateMutability": "view",
      "type": "function"
    },
    {
      "constant": false,
      "inputs": [],
      "name": "pushData",
      "outputs": [],
      "payable": true,
      "stateMutability": "payable",
      "type": "function"
    },
    {
      "constant": false,
      "inputs": [
        {
          "name": "_oraclizeID",
          "type": "bytes32"
        },
        {
          "name": "_result",
          "type": "string"
        }
      ],
      "name": "__callback",
      "outputs": [],
      "payable": false,
      "stateMutability": "nonpayable",
      "type": "function"
    },
    {
      "constant": false,
      "inputs": [
        {
          "name": "myid",
          "type": "bytes32"
        },
        {
          "name": "result",
          "type": "string"
        },
        {
          "name": "proof",
          "type": "bytes"
        }
      ],
      "name": "__callback",
      "outputs": [],
      "payable": false,
      "stateMutability": "nonpayable",
      "type": "function"
    },
    {
      "constant": false,
      "inputs": [],
      "name": "fund",
      "outputs": [],
      "payable": true,
      "stateMutability": "payable",
      "type": "function"
    },
    {
      "constant": true,
      "inputs": [
        {
          "name": "_date",
          "type": "uint256"
        }
      ],
      "name": "getQuery",
      "outputs": [
        {
          "name": "",
          "type": "bool"
        }
      ],
      "payable": false,
      "stateMutability": "view",
      "type": "function"
    }
  ],
  "bytecode": "0x60806040523480156200001157600080fd5b506040516200226b3803806200226b83398101806040528101908080518201929190602001805182019291905050508160069080519060200190620000589291906200007a565b508060079080519060200190620000719291906200007a565b50505062000129565b828054600181600116156101000203166002900490600052602060002090601f016020900481019282601f10620000bd57805160ff1916838001178555620000ee565b82800160010185558215620000ee579182015b82811115620000ed578251825591602001919060010190620000d0565b5b509050620000fd919062000101565b5090565b6200012691905b808211156200012257600081600090555060010162000108565b5090565b90565b61213280620001396000396000f3006080604052600436106100a4576000357c0100000000000000000000000000000000000000000000000000000000900463ffffffff16806327dc297e146100a957806338bbfa50146101205780635bee29b7146101dd5780637d7b00991461021e5780639932fa28146102ae578063aeb2ffc11461033e578063b60d428814610383578063b64a097e1461038d578063c692c049146103f2578063c8521df1146103fc575b600080fd5b3480156100b557600080fd5b5061011e6004803603810190808035600019169060200190929190803590602001908201803590602001908080601f0160208091040260200160405190810160405280939291908181526020018383808284378201915050505050509192919290505050610445565b005b34801561012c57600080fd5b506101db6004803603810190808035600019169060200190929190803590602001908201803590602001908080601f0160208091040260200160405190810160405280939291908181526020018383808284378201915050505050509192919290803590602001908201803590602001908080601f0160208091040260200160405190810160405280939291908181526020018383808284378201915050505050509192919290505050610531565b005b3480156101e957600080fd5b5061020860048036038101908080359060200190929190505050610536565b6040518082815260200191505060405180910390f35b34801561022a57600080fd5b50610233610576565b6040518080602001828103825283818151815260200191508051906020019080838360005b83811015610273578082015181840152602081019050610258565b50505050905090810190601f1680156102a05780820380516001836020036101000a031916815260200191505b509250505060405180910390f35b3480156102ba57600080fd5b506102c3610614565b6040518080602001828103825283818151815260200191508051906020019080838360005b838110156103035780820151818401526020810190506102e8565b50505050905090810190601f1680156103305780820380516001836020036101000a031916815260200191505b509250505060405180910390f35b34801561034a57600080fd5b50610369600480360381019080803590602001909291905050506106b2565b604051808215151515815260200191505060405180910390f35b61038b6106ff565b005b34801561039957600080fd5b506103bc6004803603810190808035600019169060200190929190505050610701565b60405180868152602001851515151581526020018481526020018381526020018281526020019550505050505060405180910390f35b6103fa610744565b005b34801561040857600080fd5b5061042760048036038101908080359060200190929190505050610bc0565b60405180826000191660001916815260200191505060405180910390f35b6000600960008460001916600019168152602001908152602001600020905061046c610bd8565b73ffffffffffffffffffffffffffffffffffffffff163373ffffffffffffffffffffffffffffffffffffffff161480156104af5750600554600019168360001916145b15156104ba57600080fd5b6104c5826003610f36565b81600001819055506000816000015414156104e557600181600001819055505b7f25dac5e3ce09d66cb5ac7099effd09f1ee5b500d16d2e7c966f0ae75f89985f281600201548260000154604051808381526020018281526020019250505060405180910390a1505050565b505050565b6000806009600060086000868152602001908152602001600020546000191660001916815260200190815260200160002090508060000154915050919050565b60068054600181600116156101000203166002900480601f01602080910402602001604051908101604052809291908181526020018280546001816001161561010002031660029004801561060c5780601f106105e15761010080835404028352916020019161060c565b820191906000526020600020905b8154815290600101906020018083116105ef57829003601f168201915b505050505081565b60078054600181600116156101000203166002900480601f0160208091040260200160405190810160405280929190818152602001828054600181600116156101000203166002900480156106aa5780601f1061067f576101008083540402835291602001916106aa565b820191906000526020600020905b81548152906001019060200180831161068d57829003601f168201915b505050505081565b6000806009600060086000868152602001908152602001600020546000191660001916815260200190815260200160002090508060010160009054906101000a900460ff16915050919050565b565b60096020528060005260406000206000915090508060000154908060010160009054906101000a900460ff16908060020154908060030154908060040154905085565b6000806000620151804281151561075757fe5b0642039250429150600960006008600086815260200190815260200160002054600019166000191681526020019081526020016000209050600015158160010160009054906101000a900460ff1615151480156107b8575060008160030154145b806107ec575060008160030154141580156107db5750610e108160030154018210155b80156107eb575060008160000154145b5b15156107f757600080fd5b3073ffffffffffffffffffffffffffffffffffffffff163161084d6040805190810160405280600381526020017f55524c000000000000000000000000000000000000000000000000000000000081525061122a565b111561090c577f46cb989ef9cef13e930e3b7f286225a086e716a90d63e0b7da85d310a9db0c9a60405180806020018281038252604b8152602001807f4f7261636c697a6520717565727920776173204e4f542073656e742c20706c6581526020017f6173652061646420736f6d652045544820746f20636f76657220666f7220746881526020017f652071756572792066656500000000000000000000000000000000000000000081525060600191505060405180910390a1610bbb565b7f46cb989ef9cef13e930e3b7f286225a086e716a90d63e0b7da85d310a9db0c9a6040518080602001828103825260158152602001807f4f7261636c697a6520717565726965732073656e74000000000000000000000081525060200191505060405180910390a160006002826004015481151561098657fe5b061415610a7557610a666040805190810160405280600381526020017f55524c000000000000000000000000000000000000000000000000000000000081525060068054600181600116156101000203166002900480601f016020809104026020016040519081016040528092919081815260200182805460018160011615610100020316600290048015610a5c5780601f10610a3157610100808354040283529160200191610a5c565b820191906000526020600020905b815481529060010190602001808311610a3f57829003601f168201915b50505050506115fa565b60058160001916905550610b59565b610b4e6040805190810160405280600381526020017f55524c000000000000000000000000000000000000000000000000000000000081525060078054600181600116156101000203166002900480601f016020809104026020016040519081016040528092919081815260200182805460018160011615610100020316600290048015610b445780601f10610b1957610100808354040283529160200191610b44565b820191906000526020600020905b815481529060010190602001808311610b2757829003601f168201915b50505050506115fa565b600581600019169055505b60055460086000858152602001908152602001600020816000191690555060018160010160006101000a81548160ff02191690831515021790555082816002018190555081816003018190555080600401600081548092919060010191905055505b505050565b60086020528060005260406000206000915090505481565b6000806000809054906101000a900473ffffffffffffffffffffffffffffffffffffffff1673ffffffffffffffffffffffffffffffffffffffff161480610c4857506000610c466000809054906101000a900473ffffffffffffffffffffffffffffffffffffffff16611b9c565b145b15610c5957610c576000611ba7565b505b6000809054906101000a900473ffffffffffffffffffffffffffffffffffffffff1673ffffffffffffffffffffffffffffffffffffffff166338cc48316040518163ffffffff167c0100000000000000000000000000000000000000000000000000000000028152600401602060405180830381600087803b158015610cde57600080fd5b505af1158015610cf2573d6000803e3d6000fd5b505050506040513d6020811015610d0857600080fd5b810190808051906020019092919050505073ffffffffffffffffffffffffffffffffffffffff16600160009054906101000a900473ffffffffffffffffffffffffffffffffffffffff1673ffffffffffffffffffffffffffffffffffffffff16141515610e70576000809054906101000a900473ffffffffffffffffffffffffffffffffffffffff1673ffffffffffffffffffffffffffffffffffffffff166338cc48316040518163ffffffff167c0100000000000000000000000000000000000000000000000000000000028152600401602060405180830381600087803b158015610df457600080fd5b505af1158015610e08573d6000803e3d6000fd5b505050506040513d6020811015610e1e57600080fd5b8101908080519060200190929190505050600160006101000a81548173ffffffffffffffffffffffffffffffffffffffff021916908373ffffffffffffffffffffffffffffffffffffffff1602179055505b600160009054906101000a900473ffffffffffffffffffffffffffffffffffffffff1673ffffffffffffffffffffffffffffffffffffffff1663c281d19e6040518163ffffffff167c0100000000000000000000000000000000000000000000000000000000028152600401602060405180830381600087803b158015610ef657600080fd5b505af1158015610f0a573d6000803e3d6000fd5b505050506040513d6020811015610f2057600080fd5b8101908080519060200190929190505050905090565b6000606060008060008693506000925060009150600090505b835181101561120b5760307f0100000000000000000000000000000000000000000000000000000000000000028482815181101515610f8a57fe5b9060200101517f010000000000000000000000000000000000000000000000000000000000000090047f0100000000000000000000000000000000000000000000000000000000000000027effffffffffffffffffffffffffffffffffffffffffffffffffffffffffffff1916101580156110a2575060397f010000000000000000000000000000000000000000000000000000000000000002848281518110151561103257fe5b9060200101517f010000000000000000000000000000000000000000000000000000000000000090047f0100000000000000000000000000000000000000000000000000000000000000027effffffffffffffffffffffffffffffffffffffffffffffffffffffffffffff191611155b156111535781156110c55760008614156110bb5761120b565b8580600190039650505b600a83029250603084828151811015156110db57fe5b9060200101517f010000000000000000000000000000000000000000000000000000000000000090047f0100000000000000000000000000000000000000000000000000000000000000027f0100000000000000000000000000000000000000000000000000000000000000900403830192506111fe565b602e7f010000000000000000000000000000000000000000000000000000000000000002848281518110151561118557fe5b9060200101517f010000000000000000000000000000000000000000000000000000000000000090047f0100000000000000000000000000000000000000000000000000000000000000027effffffffffffffffffffffffffffffffffffffffffffffffffffffffffffff191614156111fd57600191505b5b8080600101915050610f4f565b600086111561121d5785600a0a830292505b8294505050505092915050565b6000806000809054906101000a900473ffffffffffffffffffffffffffffffffffffffff1673ffffffffffffffffffffffffffffffffffffffff16148061129a575060006112986000809054906101000a900473ffffffffffffffffffffffffffffffffffffffff16611b9c565b145b156112ab576112a96000611ba7565b505b6000809054906101000a900473ffffffffffffffffffffffffffffffffffffffff1673ffffffffffffffffffffffffffffffffffffffff166338cc48316040518163ffffffff167c0100000000000000000000000000000000000000000000000000000000028152600401602060405180830381600087803b15801561133057600080fd5b505af1158015611344573d6000803e3d6000fd5b505050506040513d602081101561135a57600080fd5b810190808051906020019092919050505073ffffffffffffffffffffffffffffffffffffffff16600160009054906101000a900473ffffffffffffffffffffffffffffffffffffffff1673ffffffffffffffffffffffffffffffffffffffff161415156114c2576000809054906101000a900473ffffffffffffffffffffffffffffffffffffffff1673ffffffffffffffffffffffffffffffffffffffff166338cc48316040518163ffffffff167c0100000000000000000000000000000000000000000000000000000000028152600401602060405180830381600087803b15801561144657600080fd5b505af115801561145a573d6000803e3d6000fd5b505050506040513d602081101561147057600080fd5b8101908080519060200190929190505050600160006101000a81548173ffffffffffffffffffffffffffffffffffffffff021916908373ffffffffffffffffffffffffffffffffffffffff1602179055505b600160009054906101000a900473ffffffffffffffffffffffffffffffffffffffff1673ffffffffffffffffffffffffffffffffffffffff1663524f3889836040518263ffffffff167c01000000000000000000000000000000000000000000000000000000000281526004018080602001828103825283818151815260200191508051906020019080838360005b8381101561156c578082015181840152602081019050611551565b50505050905090810190601f1680156115995780820380516001836020036101000a031916815260200191505b5092505050602060405180830381600087803b1580156115b857600080fd5b505af11580156115cc573d6000803e3d6000fd5b505050506040513d60208110156115e257600080fd5b81019080805190602001909291905050509050919050565b60008060008060009054906101000a900473ffffffffffffffffffffffffffffffffffffffff1673ffffffffffffffffffffffffffffffffffffffff16148061166c5750600061166a6000809054906101000a900473ffffffffffffffffffffffffffffffffffffffff16611b9c565b145b1561167d5761167b6000611ba7565b505b6000809054906101000a900473ffffffffffffffffffffffffffffffffffffffff1673ffffffffffffffffffffffffffffffffffffffff166338cc48316040518163ffffffff167c0100000000000000000000000000000000000000000000000000000000028152600401602060405180830381600087803b15801561170257600080fd5b505af1158015611716573d6000803e3d6000fd5b505050506040513d602081101561172c57600080fd5b810190808051906020019092919050505073ffffffffffffffffffffffffffffffffffffffff16600160009054906101000a900473ffffffffffffffffffffffffffffffffffffffff1673ffffffffffffffffffffffffffffffffffffffff16141515611894576000809054906101000a900473ffffffffffffffffffffffffffffffffffffffff1673ffffffffffffffffffffffffffffffffffffffff166338cc48316040518163ffffffff167c0100000000000000000000000000000000000000000000000000000000028152600401602060405180830381600087803b15801561181857600080fd5b505af115801561182c573d6000803e3d6000fd5b505050506040513d602081101561184257600080fd5b8101908080519060200190929190505050600160006101000a81548173ffffffffffffffffffffffffffffffffffffffff021916908373ffffffffffffffffffffffffffffffffffffffff1602179055505b600160009054906101000a900473ffffffffffffffffffffffffffffffffffffffff1673ffffffffffffffffffffffffffffffffffffffff1663524f3889856040518263ffffffff167c01000000000000000000000000000000000000000000000000000000000281526004018080602001828103825283818151815260200191508051906020019080838360005b8381101561193e578082015181840152602081019050611923565b50505050905090810190601f16801561196b5780820380516001836020036101000a031916815260200191505b5092505050602060405180830381600087803b15801561198a57600080fd5b505af115801561199e573d6000803e3d6000fd5b505050506040513d60208110156119b457600080fd5b8101908080519060200190929190505050905062030d403a02670de0b6b3a7640000018111156119ea5760006001029150611b95565b600160009054906101000a900473ffffffffffffffffffffffffffffffffffffffff1673ffffffffffffffffffffffffffffffffffffffff1663adf59f9982600087876040518563ffffffff167c0100000000000000000000000000000000000000000000000000000000028152600401808481526020018060200180602001838103835285818151815260200191508051906020019080838360005b83811015611aa2578082015181840152602081019050611a87565b50505050905090810190601f168015611acf5780820380516001836020036101000a031916815260200191505b50838103825284818151815260200191508051906020019080838360005b83811015611b08578082015181840152602081019050611aed565b50505050905090810190601f168015611b355780820380516001836020036101000a031916815260200191505b50955050505050506020604051808303818588803b158015611b5657600080fd5b505af1158015611b6a573d6000803e3d6000fd5b50505050506040513d6020811015611b8157600080fd5b810190808051906020019092919050505091505b5092915050565b6000813b9050919050565b6000611bb1611bb8565b9050919050565b600080611bd8731d3b2638a7cc9f2cb3d298a3da7a90b67e5506ed611b9c565b1115611c7957731d3b2638a7cc9f2cb3d298a3da7a90b67e5506ed6000806101000a81548173ffffffffffffffffffffffffffffffffffffffff021916908373ffffffffffffffffffffffffffffffffffffffff160217905550611c706040805190810160405280600b81526020017f6574685f6d61696e6e6574000000000000000000000000000000000000000000815250612047565b60019050612044565b6000611c9873c03a2615d5efaf5f49f60b7bb6583eaec212fdf1611b9c565b1115611d395773c03a2615d5efaf5f49f60b7bb6583eaec212fdf16000806101000a81548173ffffffffffffffffffffffffffffffffffffffff021916908373ffffffffffffffffffffffffffffffffffffffff160217905550611d306040805190810160405280600c81526020017f6574685f726f707374656e330000000000000000000000000000000000000000815250612047565b60019050612044565b6000611d5873b7a07bcf2ba2f2703b24c0691b5278999c59ac7e611b9c565b1115611df95773b7a07bcf2ba2f2703b24c0691b5278999c59ac7e6000806101000a81548173ffffffffffffffffffffffffffffffffffffffff021916908373ffffffffffffffffffffffffffffffffffffffff160217905550611df06040805190810160405280600981526020017f6574685f6b6f76616e0000000000000000000000000000000000000000000000815250612047565b60019050612044565b6000611e1873146500cfd35b22e4a392fe0adc06de1a1368ed48611b9c565b1115611eb95773146500cfd35b22e4a392fe0adc06de1a1368ed486000806101000a81548173ffffffffffffffffffffffffffffffffffffffff021916908373ffffffffffffffffffffffffffffffffffffffff160217905550611eb06040805190810160405280600b81526020017f6574685f72696e6b656279000000000000000000000000000000000000000000815250612047565b60019050612044565b6000611ed8736f485c8bf6fc43ea212e93bbf8ce046c7f1cb475611b9c565b1115611f3b57736f485c8bf6fc43ea212e93bbf8ce046c7f1cb4756000806101000a81548173ffffffffffffffffffffffffffffffffffffffff021916908373ffffffffffffffffffffffffffffffffffffffff16021790555060019050612044565b6000611f5a7320e12a1f859b3feae5fb2a0a32c18f5a65555bbf611b9c565b1115611fbd577320e12a1f859b3feae5fb2a0a32c18f5a65555bbf6000806101000a81548173ffffffffffffffffffffffffffffffffffffffff021916908373ffffffffffffffffffffffffffffffffffffffff16021790555060019050612044565b6000611fdc7351efaf4c8b3c9afbd5ab9f4bbc82784ab6ef8faa611b9c565b111561203f577351efaf4c8b3c9afbd5ab9f4bbc82784ab6ef8faa6000806101000a81548173ffffffffffffffffffffffffffffffffffffffff021916908373ffffffffffffffffffffffffffffffffffffffff16021790555060019050612044565b600090505b90565b806002908051906020019061205d929190612061565b5050565b828054600181600116156101000203166002900490600052602060002090601f016020900481019282601f106120a257805160ff19168380011785556120d0565b828001600101855582156120d0579182015b828111156120cf5782518255916020019190600101906120b4565b5b5090506120dd91906120e1565b5090565b61210391905b808211156120ff5760008160009055506001016120e7565b5090565b905600a165627a7a7230582042214dc4fecc7052a983e842d9ece5e1a644a6dc7a0f3fd0aeab0544d68d77240029",
  "source": "pragma solidity ^0.4.24;\r\n\r\nimport \"oraclize-api/usingOraclize.sol\";\r\n\r\n/**\r\n*The Oracle contract provides the reference prices for the contracts.  Currently the Oracle is \r\n*updated by an off chain calculation by DDA.  Methodology can be found at \r\n*www.github.com/DecentralizedDerivatives/Oracles\r\n*/\r\n\r\ncontract Oracle is usingOraclize{\r\n    /*Variables*/\r\n    //Private queryId for Oraclize callback\r\n    bytes32 private queryID;\r\n    string public API;\r\n    string public API2;\r\n\r\n    /*Structs*/\r\n    struct QueryInfo {\r\n        uint value;\r\n        bool queried;\r\n        uint date;\r\n        uint calledTime;\r\n        uint countCalls;\r\n    }  \r\n    //Mapping of documents stored in the oracle\r\n    mapping(uint => bytes32) public queryIds;\r\n    mapping(bytes32 => QueryInfo ) public info;\r\n\r\n    /*Events*/\r\n    event DocumentStored(uint _key, uint _value);\r\n    event newOraclizeQuery(string description);\r\n\r\n    /*Functions*/\r\n    /**\r\n    *@dev Constructor, sets two public api strings\r\n    *e.g. \"json(https://api.gdax.com/products/BTC-USD/ticker).price\"\r\n    * \"json(https://api.binance.com/api/v3/ticker/price?symbol=BTCUSDT).price\"\r\n    * or \"json(https://api.gdax.com/products/ETH-USD/ticker).price\"\r\n    * \"json(https://api.binance.com/api/v3/ticker/price?symbol=ETHUSDT).price\"\r\n    */\r\n     constructor(string _api, string _api2) public{\r\n        API = _api;\r\n        API2 = _api2;\r\n    }\r\n\r\n    /**\r\n    *@dev RetrieveData - Returns stored value by given key\r\n    *@param _date Daily unix timestamp of key storing value (GMT 00:00:00)\r\n    */\r\n    function retrieveData(uint _date) public constant returns (uint) {\r\n        QueryInfo storage currentQuery = info[queryIds[_date]];\r\n        return currentQuery.value;\r\n    }\r\n\r\n    /**\r\n    *@dev PushData - Sends an Oraclize query for entered API\r\n    */\r\n    function pushData() public payable{\r\n        uint _key = now - (now % 86400);\r\n        uint _calledTime = now;\r\n        QueryInfo storage currentQuery = info[queryIds[_key]];\r\n        require(currentQuery.queried == false  && currentQuery.calledTime == 0 || \r\n            currentQuery.calledTime != 0 && _calledTime >= (currentQuery.calledTime + 3600) &&\r\n            currentQuery.value == 0);\r\n        if (oraclize_getPrice(\"URL\") > address(this).balance) {\r\n            emit newOraclizeQuery(\"Oraclize query was NOT sent, please add some ETH to cover for the query fee\");\r\n        } else {\r\n            emit newOraclizeQuery(\"Oraclize queries sent\");\r\n           if (currentQuery.countCalls % 2 == 0 ){\r\n                queryID = oraclize_query(\"URL\", API);\r\n            } else {\r\n                queryID = oraclize_query(\"URL\", API2);\r\n            }\r\n            queryIds[_key] = queryID;\r\n            currentQuery.queried = true;\r\n            currentQuery.date = _key;\r\n            currentQuery.calledTime = _calledTime;\r\n            currentQuery.countCalls++;\r\n        }\r\n    }\r\n\r\n    /**\r\n    *@dev Used by Oraclize to return value of PushData API call\r\n    *@param _oraclizeID unique oraclize identifier of call\r\n    *@param _result Result of API call in string format\r\n    */\r\n    function __callback(bytes32 _oraclizeID, string _result) public {\r\n        QueryInfo storage currentQuery = info[_oraclizeID];\r\n        require(msg.sender == oraclize_cbAddress() && _oraclizeID == queryID);\r\n        currentQuery.value = parseInt(_result,3);\r\n        if(currentQuery.value == 0){\r\n            currentQuery.value = 1;\r\n        }\r\n        emit DocumentStored(currentQuery.date, currentQuery.value);\r\n    }\r\n\r\n    /**\r\n    *@dev Allows the contract to be funded in order to pay for oraclize calls\r\n    */\r\n    function fund() public payable {\r\n      \r\n    }\r\n\r\n    /**\r\n    *@dev Determine if the Oracle was queried\r\n    *@param _date Daily unix timestamp of key storing value (GMT 00:00:00)\r\n    *@return true or false based upon whether an API query has been \r\n    *initialized (or completed) for given date\r\n    */\r\n    function getQuery(uint _date) public view returns(bool){\r\n        QueryInfo storage currentQuery = info[queryIds[_date]];\r\n        return currentQuery.queried;\r\n    }\r\n}",
  "sourcePath": "C:\\company\\code\\drct_standard\\contracts\\Oracle.sol",
  "compiler": {
    "name": "solc",
    "version": "0.4.24+commit.e67f0147.Emscripten.clang"
  },
  "schemaVersion": "2.0.0",
  "updatedAt": "2018-07-16T15:23:55.413Z"
}