{
  "contractName": "Test_Oracle2",
  "abi": [
    {
      "constant": true,
      "inputs": [
        {
          "name": "",
          "type": "uint256"
        }
      ],
      "name": "queried",
      "outputs": [
        {
          "name": "",
          "type": "bool"
        }
      ],
      "payable": false,
      "stateMutability": "view",
      "type": "function"
    },
    {
      "constant": true,
      "inputs": [],
      "name": "API",
      "outputs": [
        {
          "name": "",
          "type": "string"
        }
      ],
      "payable": false,
      "stateMutability": "view",
      "type": "function"
    },
    {
      "constant": true,
      "inputs": [],
      "name": "API2",
      "outputs": [
        {
          "name": "",
          "type": "string"
        }
      ],
      "payable": false,
      "stateMutability": "view",
      "type": "function"
    },
    {
      "constant": true,
      "inputs": [
        {
          "name": "",
          "type": "bytes32"
        }
      ],
      "name": "info",
      "outputs": [
        {
          "name": "value",
          "type": "uint256"
        },
        {
          "name": "queried",
          "type": "bool"
        },
        {
          "name": "date",
          "type": "uint256"
        },
        {
          "name": "calledTime",
          "type": "uint256"
        },
        {
          "name": "called",
          "type": "bool"
        }
      ],
      "payable": false,
      "stateMutability": "view",
      "type": "function"
    },
    {
      "constant": true,
      "inputs": [
        {
          "name": "",
          "type": "uint256"
        }
      ],
      "name": "queryIds",
      "outputs": [
        {
          "name": "",
          "type": "bytes32"
        }
      ],
      "payable": false,
      "stateMutability": "view",
      "type": "function"
    },
    {
      "constant": true,
      "inputs": [],
      "name": "usedAPI",
      "outputs": [
        {
          "name": "",
          "type": "string"
        }
      ],
      "payable": false,
      "stateMutability": "view",
      "type": "function"
    },
    {
      "inputs": [
        {
          "name": "_api",
          "type": "string"
        },
        {
          "name": "_api2",
          "type": "string"
        }
      ],
      "payable": false,
      "stateMutability": "nonpayable",
      "type": "constructor"
    },
    {
      "anonymous": false,
      "inputs": [
        {
          "indexed": false,
          "name": "_key",
          "type": "uint256"
        },
        {
          "indexed": false,
          "name": "_value",
          "type": "uint256"
        }
      ],
      "name": "DocumentStored",
      "type": "event"
    },
    {
      "anonymous": false,
      "inputs": [
        {
          "indexed": false,
          "name": "description",
          "type": "string"
        }
      ],
      "name": "newOraclizeQuery",
      "type": "event"
    },
    {
      "anonymous": false,
      "inputs": [
        {
          "indexed": false,
          "name": "_wascalled",
          "type": "bool"
        }
      ],
      "name": "called",
      "type": "event"
    },
    {
      "constant": false,
      "inputs": [
        {
          "name": "_key",
          "type": "uint256"
        },
        {
          "name": "_value",
          "type": "uint256"
        }
      ],
      "name": "StoreDocument",
      "outputs": [],
      "payable": false,
      "stateMutability": "nonpayable",
      "type": "function"
    },
    {
      "constant": false,
      "inputs": [
        {
          "name": "_key",
          "type": "uint256"
        },
        {
          "name": "_bal",
          "type": "uint256"
        },
        {
          "name": "_cost",
          "type": "uint256"
        },
        {
          "name": "_queryID",
          "type": "bytes32"
        }
      ],
      "name": "pushData",
      "outputs": [],
      "payable": true,
      "stateMutability": "payable",
      "type": "function"
    },
    {
      "constant": false,
      "inputs": [
        {
          "name": "_result",
          "type": "uint256"
        },
        {
          "name": "_oraclizeID",
          "type": "bytes32"
        }
      ],
      "name": "callback",
      "outputs": [],
      "payable": false,
      "stateMutability": "nonpayable",
      "type": "function"
    },
    {
      "constant": true,
      "inputs": [],
      "name": "getusedAPI",
      "outputs": [
        {
          "name": "",
          "type": "string"
        }
      ],
      "payable": false,
      "stateMutability": "view",
      "type": "function"
    },
    {
      "constant": true,
      "inputs": [
        {
          "name": "_date",
          "type": "uint256"
        }
      ],
      "name": "getQuery",
      "outputs": [
        {
          "name": "",
          "type": "bool"
        }
      ],
      "payable": false,
      "stateMutability": "view",
      "type": "function"
    },
    {
      "constant": true,
      "inputs": [
        {
          "name": "_date",
          "type": "uint256"
        }
      ],
      "name": "retrieveData",
      "outputs": [
        {
          "name": "",
          "type": "uint256"
        }
      ],
      "payable": false,
      "stateMutability": "view",
      "type": "function"
    },
    {
      "constant": false,
      "inputs": [
        {
          "name": "_new_owner",
          "type": "address"
        }
      ],
      "name": "setOwner",
      "outputs": [],
      "payable": false,
      "stateMutability": "nonpayable",
      "type": "function"
    }
  ],
  "bytecode": "0x60806040523480156200001157600080fd5b50604051620010d2380380620010d28339810180604052810190808051820192919060200180518201929190505050336000806101000a81548173ffffffffffffffffffffffffffffffffffffffff021916908373ffffffffffffffffffffffffffffffffffffffff160217905550816003908051906020019062000098929190620000ba565b508060049080519060200190620000b1929190620000ba565b50505062000169565b828054600181600116156101000203166002900490600052602060002090601f016020900481019282601f10620000fd57805160ff19168380011785556200012e565b828001600101855582156200012e579182015b828111156200012d57825182559160200191906001019062000110565b5b5090506200013d919062000141565b5090565b6200016691905b808211156200016257600081600090555060010162000148565b5090565b90565b610f5980620001796000396000f3006080604052600436106100c5576000357c0100000000000000000000000000000000000000000000000000000000900463ffffffff16806313af4035146100ca57806318e857ab1461010d5780634c0d0cf3146101525780635bee29b714610194578063665b51ce146101d55780636f32d7e2146102655780637d7b0099146102a05780639932fa2814610330578063aeb2ffc1146103c0578063b64a097e14610405578063c8521df11461046e578063cccaf5f8146104b7578063db5f5d7c146104ee575b600080fd5b3480156100d657600080fd5b5061010b600480360381019080803573ffffffffffffffffffffffffffffffffffffffff16906020019092919050505061057e565b005b34801561011957600080fd5b506101386004803603810190808035906020019092919050505061061c565b604051808215151515815260200191505060405180910390f35b610192600480360381019080803590602001909291908035906020019092919080359060200190929190803560001916906020019092919050505061063c565b005b3480156101a057600080fd5b506101bf6004803603810190808035906020019092919050505061095f565b6040518082815260200191505060405180910390f35b3480156101e157600080fd5b506101ea61099f565b6040518080602001828103825283818151815260200191508051906020019080838360005b8381101561022a57808201518184015260208101905061020f565b50505050905090810190601f1680156102575780820380516001836020036101000a031916815260200191505b509250505060405180910390f35b34801561027157600080fd5b5061029e600480360381019080803590602001909291908035600019169060200190929190505050610a41565b005b3480156102ac57600080fd5b506102b5610b02565b6040518080602001828103825283818151815260200191508051906020019080838360005b838110156102f55780820151818401526020810190506102da565b50505050905090810190601f1680156103225780820380516001836020036101000a031916815260200191505b509250505060405180910390f35b34801561033c57600080fd5b50610345610ba0565b6040518080602001828103825283818151815260200191508051906020019080838360005b8381101561038557808201518184015260208101905061036a565b50505050905090810190601f1680156103b25780820380516001836020036101000a031916815260200191505b509250505060405180910390f35b3480156103cc57600080fd5b506103eb60048036038101908080359060200190929190505050610c3e565b604051808215151515815260200191505060405180910390f35b34801561041157600080fd5b506104346004803603810190808035600019169060200190929190505050610c8b565b6040518086815260200185151515158152602001848152602001838152602001821515151581526020019550505050505060405180910390f35b34801561047a57600080fd5b5061049960048036038101908080359060200190929190505050610cdb565b60405180826000191660001916815260200191505060405180910390f35b3480156104c357600080fd5b506104ec6004803603810190808035906020019092919080359060200190929190505050610cf3565b005b3480156104fa57600080fd5b50610503610de3565b6040518080602001828103825283818151815260200191508051906020019080838360005b83811015610543578082015181840152602081019050610528565b50505050905090810190601f1680156105705780820380516001836020036101000a031916815260200191505b509250505060405180910390f35b6000809054906101000a900473ffffffffffffffffffffffffffffffffffffffff1673ffffffffffffffffffffffffffffffffffffffff163373ffffffffffffffffffffffffffffffffffffffff161415156105d957600080fd5b806000806101000a81548173ffffffffffffffffffffffffffffffffffffffff021916908373ffffffffffffffffffffffffffffffffffffffff16021790555050565b60086020528060005260406000206000915054906101000a900460ff1681565b600080429150600660006005600089815260200190815260200160002054600019166000191681526020019081526020016000209050600015158160010160009054906101000a900460ff16151514801561069b575060008160030154145b806106bb575060008160030154141580156106ba575060008160000154145b5b15156106c657600080fd5b84841115610761577f46cb989ef9cef13e930e3b7f286225a086e716a90d63e0b7da85d310a9db0c9a6040518080602001828103825260308152602001807f4f7261636c697a6520717565727920776173204e4f542073656e742c20706c6581526020017f6173652061646420736f6d65204554480000000000000000000000000000000081525060400191505060405180910390a1610957565b7f46cb989ef9cef13e930e3b7f286225a086e716a90d63e0b7da85d310a9db0c9a6040518080602001828103825260158152602001807f4f7261636c697a6520717565726965732073656e74000000000000000000000081525060200191505060405180910390a17ff8d5e8a93542372656f248d0760b19ca22af7213f7b56bd65a1c67c27c35e10a8160040160009054906101000a900460ff16604051808215151515815260200191505060405180910390a1600015158160040160009054906101000a900460ff161515141561085c57600360029080546001816001161561010002031660029004610856929190610e81565b506108a0565b600115158160040160009054906101000a900460ff161515141561089f5760046002908054600181600116156101000203166002900461089d929190610e81565b505b5b826001816000191690555060015460056000888152602001908152602001600020816000191690555060066000600560008981526020019081526020016000205460001916600019168152602001908152602001600020905060018160010160006101000a81548160ff0219169083151502179055508581600201819055508181600301819055508060040160009054906101000a900460ff16158160040160006101000a81548160ff0219169083151502179055505b505050505050565b6000806006600060056000868152602001908152602001600020546000191660001916815260200190815260200160002090508060000154915050919050565b606060028054600181600116156101000203166002900480601f016020809104026020016040519081016040528092919081815260200182805460018160011615610100020316600290048015610a375780601f10610a0c57610100808354040283529160200191610a37565b820191906000526020600020905b815481529060010190602001808311610a1a57829003601f168201915b5050505050905090565b60006006600083600019166000191681526020019081526020016000209050600154600019168260001916141515610a7857600080fd5b82816000018190555060008160040160006101000a81548160ff021916908315150217905550600081600001541415610ab657600181600001819055505b7f25dac5e3ce09d66cb5ac7099effd09f1ee5b500d16d2e7c966f0ae75f89985f281600201548260000154604051808381526020018281526020019250505060405180910390a1505050565b60038054600181600116156101000203166002900480601f016020809104026020016040519081016040528092919081815260200182805460018160011615610100020316600290048015610b985780601f10610b6d57610100808354040283529160200191610b98565b820191906000526020600020905b815481529060010190602001808311610b7b57829003601f168201915b505050505081565b60048054600181600116156101000203166002900480601f016020809104026020016040519081016040528092919081815260200182805460018160011615610100020316600290048015610c365780601f10610c0b57610100808354040283529160200191610c36565b820191906000526020600020905b815481529060010190602001808311610c1957829003601f168201915b505050505081565b6000806006600060056000868152602001908152602001600020546000191660001916815260200190815260200160002090508060010160009054906101000a900460ff16915050919050565b60066020528060005260406000206000915090508060000154908060010160009054906101000a900460ff16908060020154908060030154908060040160009054906101000a900460ff16905085565b60056020528060005260406000206000915090505481565b6000809054906101000a900473ffffffffffffffffffffffffffffffffffffffff1673ffffffffffffffffffffffffffffffffffffffff163373ffffffffffffffffffffffffffffffffffffffff16141515610d4e57600080fd5b6000811415610d5c57600190505b8060076000848152602001908152602001600020819055507f25dac5e3ce09d66cb5ac7099effd09f1ee5b500d16d2e7c966f0ae75f89985f28282604051808381526020018281526020019250505060405180910390a160016008600084815260200190815260200160002060006101000a81548160ff0219169083151502179055505050565b60028054600181600116156101000203166002900480601f016020809104026020016040519081016040528092919081815260200182805460018160011615610100020316600290048015610e795780601f10610e4e57610100808354040283529160200191610e79565b820191906000526020600020905b815481529060010190602001808311610e5c57829003601f168201915b505050505081565b828054600181600116156101000203166002900490600052602060002090601f016020900481019282601f10610eba5780548555610ef7565b82800160010185558215610ef757600052602060002091601f016020900482015b82811115610ef6578254825591600101919060010190610edb565b5b509050610f049190610f08565b5090565b610f2a91905b80821115610f26576000816000905550600101610f0e565b5090565b905600a165627a7a723058205d93c240d3b5ad1885dc10a33208ecb63e8183624418c043430f86c371d45c420029",
  "source": "pragma solidity ^0.4.24;\r\n\r\n/**\r\n*The Test Oracle contract for testing the push and callback functions\r\n*/\r\ncontract Test_Oracle2 {\r\n\r\n    /*Variables*/\r\n    \r\n    address private owner;\r\n    bytes32 private queryID;\r\n    string public usedAPI;\r\n    string public API;\r\n    string public API2;\r\n\r\n    /*Structs*/\r\n    struct QueryInfo {\r\n        uint value;\r\n        bool queried;\r\n        uint date;\r\n        uint calledTime;\r\n        bool called;\r\n    }  \r\n    //Mapping of documents stored in the oracle\r\n    mapping(uint => bytes32) public queryIds;\r\n    mapping(bytes32 => QueryInfo ) public info;\r\n\r\n    //Mapping of documents stored in the oracle\r\n    mapping(uint => uint) internal oracle_values;\r\n    mapping(uint => bool) public queried;\r\n\r\n    /*Events*/\r\n    event DocumentStored(uint _key, uint _value);\r\n    event newOraclizeQuery(string description);\r\n    event called(bool _wascalled);\r\n\r\n    /*Modifiers*/\r\n    modifier onlyOwner {\r\n        require(msg.sender == owner);\r\n        _;\r\n    }\r\n\r\n\r\n    /**\r\n    *@dev Constructor, sets two public api strings\r\n    *e.g. \"json(https://api.gdax.com/products/BTC-USD/ticker).price\"\r\n    * \"json(https://api.binance.com/api/v3/ticker/price?symbol=BTCUSDT).price\"\r\n    * or \"json(https://api.gdax.com/products/ETH-USD/ticker).price\"\r\n    * \"json(https://api.binance.com/api/v3/ticker/price?symbol=ETHUSDT).price\"\r\n    */\r\n     constructor(string _api, string _api2) public{\r\n        owner = msg.sender;\r\n        API = _api;\r\n        API2 = _api2;\r\n    }\r\n\r\n    /**\r\n    *@dev Allows the owner of the Oracle to store a document in the oracle_values mapping. Documents\r\n    *represent underlying values at a specified date (key).\r\n    */\r\n    function StoreDocument(uint _key, uint _value) public onlyOwner() {\r\n        if(_value == 0){\r\n            _value = 1;\r\n        }\r\n        oracle_values[_key] = _value;\r\n        emit DocumentStored(_key, _value);\r\n        queried[_key] = true;\r\n    }\r\n\r\n    /**\r\n    *@dev PushData - Sends an Oraclize query for entered API\r\n    */\r\n    function pushData(uint _key, uint _bal, uint _cost, bytes32 _queryID) public payable {\r\n        uint _calledTime = now;\r\n        QueryInfo storage currentQuery = info[queryIds[_key]];\r\n        require(currentQuery.queried == false  && currentQuery.calledTime == 0 || \r\n            currentQuery.calledTime != 0  &&\r\n            currentQuery.value == 0);\r\n\r\n        if ( _cost > _bal) {\r\n            emit newOraclizeQuery(\"Oraclize query was NOT sent, please add some ETH\");\r\n        } else {\r\n            emit newOraclizeQuery(\"Oraclize queries sent\");\r\n            emit called(currentQuery.called); \r\n            if (currentQuery.called == false){\r\n                usedAPI=API;\r\n            //    currentQuery.called = true;\r\n            } else if (currentQuery.called == true ){\r\n                usedAPI=API2;   \r\n            //    currentQuery.called = false;          \r\n            }\r\n            queryID = _queryID;\r\n            queryIds[_key] = queryID;\r\n            currentQuery = info[queryIds[_key]];\r\n            currentQuery.queried = true;\r\n            currentQuery.date = _key;\r\n            currentQuery.calledTime = _calledTime;\r\n            currentQuery.called = !currentQuery.called;\r\n        }\r\n    }\r\n    \r\n\r\n    /**\r\n    *@dev Used to test callback\r\n    *@param _oraclizeID unique oraclize identifier of call\r\n    *@param _result Result of API call in string format\r\n    */\r\n     function callback(uint _result, bytes32 _oraclizeID) public {\r\n        QueryInfo storage currentQuery = info[_oraclizeID];\r\n        require(_oraclizeID == queryID);\r\n        currentQuery.value = _result;\r\n        currentQuery.called = false; \r\n        if(currentQuery.value == 0){\r\n            currentQuery.value = 1;\r\n        }\r\n        emit DocumentStored(currentQuery.date, currentQuery.value);\r\n    } \r\n\r\n    /*\r\n    * gets API used for tests\r\n    */\r\n    function getusedAPI() public view returns(string){\r\n        return usedAPI;\r\n    }\r\n\r\n    /**\r\n    *@dev Determine if the Oracle was queried\r\n    *@param _date Daily unix timestamp of key storing value (GMT 00:00:00)\r\n    *@return true or false based upon whether an API query has been \r\n    *initialized (or completed) for given date\r\n    */\r\n    function getQuery(uint _date) public view returns(bool){\r\n        QueryInfo storage currentQuery = info[queryIds[_date]];\r\n        return currentQuery.queried;\r\n    }\r\n\r\n    /**\r\n    *@dev RetrieveData - Returns stored value by given key\r\n    *@param _date Daily unix timestamp of key storing value (GMT 00:00:00)\r\n    *@return oracle_values for the date\r\n    */\r\n    function retrieveData(uint _date) public constant returns (uint) {\r\n        QueryInfo storage currentQuery = info[queryIds[_date]];\r\n        return currentQuery.value;\r\n    }\r\n\r\n\r\n    /**\r\n    *@dev Set the new owner of the contract or test oracle?\r\n    *@param _new_owner for the oracle? \r\n    */\r\n    function setOwner(address _new_owner) public onlyOwner() {\r\n        owner = _new_owner; \r\n    }\r\n}",
  "sourcePath": "C:\\company\\code\\drct_standard\\contracts\\Test_Oracle2.sol",
  "compiler": {
    "name": "solc",
    "version": "0.4.24+commit.e67f0147.Emscripten.clang"
  },
  "schemaVersion": "2.0.1",
  "updatedAt": "2018-09-03T02:20:33.463Z"
}