{
  "contractName": "Test_Oracle",
  "abi": [
    {
      "constant": true,
      "inputs": [
        {
          "name": "",
          "type": "uint256"
        }
      ],
      "name": "queried",
      "outputs": [
        {
          "name": "",
          "type": "bool"
        }
      ],
      "payable": false,
      "stateMutability": "view",
      "type": "function"
    },
    {
      "constant": true,
      "inputs": [],
      "name": "API",
      "outputs": [
        {
          "name": "",
          "type": "string"
        }
      ],
      "payable": false,
      "stateMutability": "view",
      "type": "function"
    },
    {
      "inputs": [
        {
          "name": "_api",
          "type": "string"
        }
      ],
      "payable": false,
      "stateMutability": "nonpayable",
      "type": "constructor"
    },
    {
      "anonymous": false,
      "inputs": [
        {
          "indexed": false,
          "name": "_key",
          "type": "uint256"
        },
        {
          "indexed": false,
          "name": "_value",
          "type": "uint256"
        }
      ],
      "name": "DocumentStored",
      "type": "event"
    },
    {
      "constant": false,
      "inputs": [
        {
          "name": "_key",
          "type": "uint256"
        },
        {
          "name": "_value",
          "type": "uint256"
        }
      ],
      "name": "StoreDocument",
      "outputs": [],
      "payable": false,
      "stateMutability": "nonpayable",
      "type": "function"
    },
    {
      "constant": true,
      "inputs": [],
      "name": "pushData",
      "outputs": [],
      "payable": false,
      "stateMutability": "pure",
      "type": "function"
    },
    {
      "constant": true,
      "inputs": [
        {
          "name": "_date",
          "type": "uint256"
        }
      ],
      "name": "getQuery",
      "outputs": [
        {
          "name": "",
          "type": "bool"
        }
      ],
      "payable": false,
      "stateMutability": "view",
      "type": "function"
    },
    {
      "constant": true,
      "inputs": [
        {
          "name": "_date",
          "type": "uint256"
        }
      ],
      "name": "retrieveData",
      "outputs": [
        {
          "name": "",
          "type": "uint256"
        }
      ],
      "payable": false,
      "stateMutability": "view",
      "type": "function"
    },
    {
      "constant": false,
      "inputs": [
        {
          "name": "_new_owner",
          "type": "address"
        }
      ],
      "name": "setOwner",
      "outputs": [],
      "payable": false,
      "stateMutability": "nonpayable",
      "type": "function"
    }
  ],
  "bytecode": "0x608060405234801561001057600080fd5b5060405161067938038061067983398101806040528101908080518201929190505050336000806101000a81548173ffffffffffffffffffffffffffffffffffffffff021916908373ffffffffffffffffffffffffffffffffffffffff1602179055508060019080519060200190610089929190610090565b5050610135565b828054600181600116156101000203166002900490600052602060002090601f016020900481019282601f106100d157805160ff19168380011785556100ff565b828001600101855582156100ff579182015b828111156100fe5782518255916020019190600101906100e3565b5b50905061010c9190610110565b5090565b61013291905b8082111561012e576000816000905550600101610116565b5090565b90565b610535806101446000396000f300608060405260043610610083576000357c0100000000000000000000000000000000000000000000000000000000900463ffffffff16806313af40351461008857806318e857ab146100cb5780635bee29b7146101105780637d7b009914610151578063aeb2ffc1146101e1578063c692c04914610226578063cccaf5f81461023d575b600080fd5b34801561009457600080fd5b506100c9600480360381019080803573ffffffffffffffffffffffffffffffffffffffff169060200190929190505050610274565b005b3480156100d757600080fd5b506100f660048036038101908080359060200190929190505050610312565b604051808215151515815260200191505060405180910390f35b34801561011c57600080fd5b5061013b60048036038101908080359060200190929190505050610332565b6040518082815260200191505060405180910390f35b34801561015d57600080fd5b5061016661034f565b6040518080602001828103825283818151815260200191508051906020019080838360005b838110156101a657808201518184015260208101905061018b565b50505050905090810190601f1680156101d35780820380516001836020036101000a031916815260200191505b509250505060405180910390f35b3480156101ed57600080fd5b5061020c600480360381019080803590602001909291905050506103ed565b604051808215151515815260200191505060405180910390f35b34801561023257600080fd5b5061023b610417565b005b34801561024957600080fd5b506102726004803603810190808035906020019092919080359060200190929190505050610419565b005b6000809054906101000a900473ffffffffffffffffffffffffffffffffffffffff1673ffffffffffffffffffffffffffffffffffffffff163373ffffffffffffffffffffffffffffffffffffffff161415156102cf57600080fd5b806000806101000a81548173ffffffffffffffffffffffffffffffffffffffff021916908373ffffffffffffffffffffffffffffffffffffffff16021790555050565b60036020528060005260406000206000915054906101000a900460ff1681565b600060026000838152602001908152602001600020549050919050565b60018054600181600116156101000203166002900480601f0160208091040260200160405190810160405280929190818152602001828054600181600116156101000203166002900480156103e55780601f106103ba576101008083540402835291602001916103e5565b820191906000526020600020905b8154815290600101906020018083116103c857829003601f168201915b505050505081565b60006003600083815260200190815260200160002060009054906101000a900460ff169050919050565b565b6000809054906101000a900473ffffffffffffffffffffffffffffffffffffffff1673ffffffffffffffffffffffffffffffffffffffff163373ffffffffffffffffffffffffffffffffffffffff1614151561047457600080fd5b600081141561048257600190505b8060026000848152602001908152602001600020819055507f25dac5e3ce09d66cb5ac7099effd09f1ee5b500d16d2e7c966f0ae75f89985f28282604051808381526020018281526020019250505060405180910390a160016003600084815260200190815260200160002060006101000a81548160ff02191690831515021790555050505600a165627a7a72305820240fe9e22f160d6ceb624e35f15cd9dde3a81f3fb08862990e2bf5bc502d07da0029",
  "source": "pragma solidity ^0.4.24;\r\n\r\n/**\r\n*The Oracle contract provides the reference prices for the contracts.  Currently the Oracle is \r\n*updated by an off chain calculation by DDA.  Methodology can be found at \r\n*www.github.com/DecentralizedDerivatives/Oracles\r\n*/\r\ncontract Test_Oracle {\r\n\r\n    /*Variables*/\r\n    //Owner of the oracle\r\n    address private owner;\r\n    string public API;\r\n    //Mapping of documents stored in the oracle\r\n    mapping(uint => uint) internal oracle_values;\r\n    mapping(uint => bool) public queried;\r\n\r\n    /*Events*/\r\n    event DocumentStored(uint _key, uint _value);\r\n\r\n    /*Modifiers*/\r\n    modifier onlyOwner {\r\n        require(msg.sender == owner);\r\n        _;\r\n    }\r\n\r\n    /**\r\n    *@dev Constructor - Sets owner\r\n    */\r\n     constructor(string _api) public {\r\n        owner = msg.sender;\r\n        API = _api;\r\n    }\r\n\r\n    /**\r\n    *@dev Allows the owner of the Oracle to store a document in the oracle_values mapping. Documents\r\n    *represent underlying values at a specified date (key).\r\n    */\r\n    function StoreDocument(uint _key, uint _value) public onlyOwner() {\r\n        if(_value == 0){\r\n            _value = 1;\r\n        }\r\n        oracle_values[_key] = _value;\r\n        emit DocumentStored(_key, _value);\r\n        queried[_key] = true;\r\n    }\r\n\r\n    function pushData() public pure {\r\n        //here for testing purposes\r\n    }\r\n\r\n    /**\r\n    *@dev Determine if the Oracle was queried\r\n    *@param _date a specified date\r\n    *@return whether or not the Oracle was queried on the specified date\r\n    */    \r\n    function getQuery(uint _date) public view returns(bool){\r\n        return queried[_date];\r\n    }\r\n\r\n    /**\r\n    *@dev Allows for the viewing of Oracle data\r\n    *@param _date specified date being queried from the Oracle data\r\n    *@return oracle_values for the date\r\n    */\r\n    function retrieveData(uint _date) public constant returns (uint) {\r\n        return oracle_values[_date];\r\n    }\r\n\r\n    /**\r\n    *@dev Set the new owner of the contract or test oracle?\r\n    *@param _new_owner for the oracle? \r\n    */\r\n    function setOwner(address _new_owner) public onlyOwner() {\r\n        owner = _new_owner; \r\n    }\r\n}",
  "sourcePath": "C:\\company\\code\\drct_standard\\contracts\\Test_Oracle.sol",
  "compiler": {
    "name": "solc",
    "version": "0.4.24+commit.e67f0147.Emscripten.clang"
  },
  "schemaVersion": "2.0.1",
  "updatedAt": "2018-07-16T18:24:58.406Z"
}