{
  "contractName": "TokenToTokenSwap",
  "abi": [
    {
      "constant": true,
      "inputs": [],
      "name": "swap",
      "outputs": [
        {
          "name": "oracle_address",
          "type": "address"
        },
        {
          "name": "factory_address",
          "type": "address"
        },
        {
          "name": "factory",
          "type": "address"
        },
        {
          "name": "creator",
          "type": "address"
        },
        {
          "name": "token_address",
          "type": "address"
        },
        {
          "name": "token",
          "type": "address"
        },
        {
          "name": "current_state",
          "type": "uint8"
        },
        {
          "name": "pay_to_long",
          "type": "uint256"
        },
        {
          "name": "pay_to_short",
          "type": "uint256"
        },
        {
          "name": "long_token_address",
          "type": "address"
        },
        {
          "name": "short_token_address",
          "type": "address"
        },
        {
          "name": "num_DRCT_tokens",
          "type": "uint256"
        },
        {
          "name": "token_amount",
          "type": "uint256"
        },
        {
          "name": "userContract",
          "type": "address"
        }
      ],
      "payable": false,
      "stateMutability": "view",
      "type": "function"
    },
    {
      "inputs": [
        {
          "name": "_factory_address",
          "type": "address"
        },
        {
          "name": "_creator",
          "type": "address"
        },
        {
          "name": "_userContract",
          "type": "address"
        },
        {
          "name": "_start_date",
          "type": "uint256"
        }
      ],
      "payable": false,
      "stateMutability": "nonpayable",
      "type": "constructor"
    },
    {
      "constant": false,
      "inputs": [
        {
          "name": "_factory_address",
          "type": "address"
        },
        {
          "name": "_creator",
          "type": "address"
        },
        {
          "name": "_userContract",
          "type": "address"
        },
        {
          "name": "_start_date",
          "type": "uint256"
        }
      ],
      "name": "init",
      "outputs": [],
      "payable": false,
      "stateMutability": "nonpayable",
      "type": "function"
    },
    {
      "constant": true,
      "inputs": [],
      "name": "showPrivateVars",
      "outputs": [
        {
          "name": "",
          "type": "address[5]"
        },
        {
          "name": "",
          "type": "uint256"
        },
        {
          "name": "",
          "type": "uint256"
        },
        {
          "name": "",
          "type": "uint256"
        },
        {
          "name": "",
          "type": "uint256"
        },
        {
          "name": "",
          "type": "uint256"
        }
      ],
      "payable": false,
      "stateMutability": "view",
      "type": "function"
    },
    {
      "constant": true,
      "inputs": [],
      "name": "currentState",
      "outputs": [
        {
          "name": "",
          "type": "uint256"
        }
      ],
      "payable": false,
      "stateMutability": "view",
      "type": "function"
    },
    {
      "constant": false,
      "inputs": [
        {
          "name": "_amount",
          "type": "uint256"
        },
        {
          "name": "_senderAdd",
          "type": "address"
        }
      ],
      "name": "createSwap",
      "outputs": [],
      "payable": false,
      "stateMutability": "nonpayable",
      "type": "function"
    },
    {
      "constant": false,
      "inputs": [
        {
          "name": "_begin",
          "type": "uint256"
        },
        {
          "name": "_end",
          "type": "uint256"
        }
      ],
      "name": "forcePay",
      "outputs": [
        {
          "name": "",
          "type": "bool"
        }
      ],
      "payable": false,
      "stateMutability": "nonpayable",
      "type": "function"
    }
  ],
  "bytecode": "0x60806040523480156200001157600080fd5b5060405160808062002af9833981018060405281019080805190602001909291908051906020019092919080519060200190929190805190602001909291905050506200007d8484848460006200008764010000000002620006be179094939291906401000000009004565b50505050620001f7565b600073ffffffffffffffffffffffffffffffffffffffff168560030160009054906101000a900473ffffffffffffffffffffffffffffffffffffffff1673ffffffffffffffffffffffffffffffffffffffff16141515620000e757600080fd5b828560030160006101000a81548173ffffffffffffffffffffffffffffffffffffffff021916908373ffffffffffffffffffffffffffffffffffffffff160217905550838560010160006101000a81548173ffffffffffffffffffffffffffffffffffffffff021916908373ffffffffffffffffffffffffffffffffffffffff160217905550818560130160006101000a81548173ffffffffffffffffffffffffffffffffffffffff021916908373ffffffffffffffffffffffffffffffffffffffff16021790555080856006016000600781101515620001c457fe5b018190555060008560050160146101000a81548160ff02191690836002811115620001eb57fe5b02179055505050505050565b6128f280620002076000396000f300608060405260043610610078576000357c0100000000000000000000000000000000000000000000000000000000900463ffffffff1680630c3f6acf1461007d57806346639dba146100a857806370f9c0211461013557806379eba0b6146101845780637a3d4b1a146101fa5780638119c06514610247575b600080fd5b34801561008957600080fd5b50610092610467565b6040518082815260200191505060405180910390f35b3480156100b457600080fd5b50610133600480360381019080803573ffffffffffffffffffffffffffffffffffffffff169060200190929190803573ffffffffffffffffffffffffffffffffffffffff169060200190929190803573ffffffffffffffffffffffffffffffffffffffff16906020019092919080359060200190929190505050610478565b005b34801561014157600080fd5b5061016a6004803603810190808035906020019092919080359060200190929190505050610498565b604051808215151515815260200191505060405180910390f35b34801561019057600080fd5b506101996104c9565b6040518087600560200280838360005b838110156101c45780820151818401526020810190506101a9565b50505050905001868152602001858152602001848152602001838152602001828152602001965050505050505060405180910390f35b34801561020657600080fd5b5061024560048036038101908080359060200190929190803573ffffffffffffffffffffffffffffffffffffffff1690602001909291905050506104f7565b005b34801561025357600080fd5b5061025c610511565b604051808f73ffffffffffffffffffffffffffffffffffffffff1673ffffffffffffffffffffffffffffffffffffffff1681526020018e73ffffffffffffffffffffffffffffffffffffffff1673ffffffffffffffffffffffffffffffffffffffff1681526020018d73ffffffffffffffffffffffffffffffffffffffff1673ffffffffffffffffffffffffffffffffffffffff1681526020018c73ffffffffffffffffffffffffffffffffffffffff1673ffffffffffffffffffffffffffffffffffffffff1681526020018b73ffffffffffffffffffffffffffffffffffffffff1673ffffffffffffffffffffffffffffffffffffffff1681526020018a73ffffffffffffffffffffffffffffffffffffffff1673ffffffffffffffffffffffffffffffffffffffff16815260200189600281111561039857fe5b60ff1681526020018881526020018781526020018673ffffffffffffffffffffffffffffffffffffffff1673ffffffffffffffffffffffffffffffffffffffff1681526020018573ffffffffffffffffffffffffffffffffffffffff1673ffffffffffffffffffffffffffffffffffffffff1681526020018481526020018381526020018273ffffffffffffffffffffffffffffffffffffffff1673ffffffffffffffffffffffffffffffffffffffff1681526020019e50505050505050505050505050505060405180910390f35b60006104736000610698565b905090565b6104928484848460006106be90949392919063ffffffff16565b50505050565b60006104c2604080519081016040528085815260200184815250600061082b90919063ffffffff16565b5092915050565b6104d16128a3565b60008060008060006104e3600061101b565b955095509550955095509550909192939495565b61050d8282600061124d9092919063ffffffff16565b5050565b60008060000160009054906101000a900473ffffffffffffffffffffffffffffffffffffffff16908060010160009054906101000a900473ffffffffffffffffffffffffffffffffffffffff16908060020160009054906101000a900473ffffffffffffffffffffffffffffffffffffffff16908060030160009054906101000a900473ffffffffffffffffffffffffffffffffffffffff16908060040160009054906101000a900473ffffffffffffffffffffffffffffffffffffffff16908060050160009054906101000a900473ffffffffffffffffffffffffffffffffffffffff16908060050160149054906101000a900460ff169080600d01549080600e01549080600f0160009054906101000a900473ffffffffffffffffffffffffffffffffffffffff16908060100160009054906101000a900473ffffffffffffffffffffffffffffffffffffffff16908060110154908060120154908060130160009054906101000a900473ffffffffffffffffffffffffffffffffffffffff1690508e565b60008160050160149054906101000a900460ff1660028111156106b757fe5b9050919050565b600073ffffffffffffffffffffffffffffffffffffffff168560030160009054906101000a900473ffffffffffffffffffffffffffffffffffffffff1673ffffffffffffffffffffffffffffffffffffffff1614151561071d57600080fd5b828560030160006101000a81548173ffffffffffffffffffffffffffffffffffffffff021916908373ffffffffffffffffffffffffffffffffffffffff160217905550838560010160006101000a81548173ffffffffffffffffffffffffffffffffffffffff021916908373ffffffffffffffffffffffffffffffffffffffff160217905550818560130160006101000a81548173ffffffffffffffffffffffffffffffffffffffff021916908373ffffffffffffffffffffffffffffffffffffffff160217905550808560060160006007811015156107f957fe5b018190555060008560050160146101000a81548160ff0219169083600281111561081f57fe5b02179055505050505050565b60008060008060008060008060008060006001600281111561084957fe5b8d60050160149054906101000a900460ff16600281111561086657fe5b14801561088657508c600601600160078110151561088057fe5b01544210155b151561089157600080fd5b61089a8d611940565b99508915611008576108ab8d611f1b565b8c600f0160009054906101000a900473ffffffffffffffffffffffffffffffffffffffff1698508873ffffffffffffffffffffffffffffffffffffffff16638811a0ae306040518263ffffffff167c0100000000000000000000000000000000000000000000000000000000028152600401808273ffffffffffffffffffffffffffffffffffffffff1673ffffffffffffffffffffffffffffffffffffffff168152602001915050602060405180830381600087803b15801561096d57600080fd5b505af1158015610981573d6000803e3d6000fd5b505050506040513d602081101561099757600080fd5b810190808051906020019092919050505097508b60016002811015156109b957fe5b602002015188106109dd578b60016002811015156109d357fe5b60200201516109df565b875b96506001870395505b8b60006002811015156109f757fe5b602002015186101515610b0e578873ffffffffffffffffffffffffffffffffffffffff1663174dcea887306040518363ffffffff167c0100000000000000000000000000000000000000000000000000000000028152600401808381526020018273ffffffffffffffffffffffffffffffffffffffff1673ffffffffffffffffffffffffffffffffffffffff168152602001925050506040805180830381600087803b158015610aa657600080fd5b505af1158015610aba573d6000803e3d6000fd5b505050506040513d6040811015610ad057600080fd5b8101908080519060200190929190805190602001909291905050508096508195505050610b008d868660016121a1565b8580600190039650506109e8565b8c60100160009054906101000a900473ffffffffffffffffffffffffffffffffffffffff1698508873ffffffffffffffffffffffffffffffffffffffff16638811a0ae306040518263ffffffff167c0100000000000000000000000000000000000000000000000000000000028152600401808273ffffffffffffffffffffffffffffffffffffffff1673ffffffffffffffffffffffffffffffffffffffff168152602001915050602060405180830381600087803b158015610bd057600080fd5b505af1158015610be4573d6000803e3d6000fd5b505050506040513d6020811015610bfa57600080fd5b810190808051906020019092919050505097508b6001600281101515610c1c57fe5b60200201518810610c40578b6001600281101515610c3657fe5b6020020151610c42565b875b96506001870392505b8b6000600281101515610c5a57fe5b602002015183101515610d71578873ffffffffffffffffffffffffffffffffffffffff1663174dcea884306040518363ffffffff167c0100000000000000000000000000000000000000000000000000000000028152600401808381526020018273ffffffffffffffffffffffffffffffffffffffff1673ffffffffffffffffffffffffffffffffffffffff168152602001925050506040805180830381600087803b158015610d0957600080fd5b505af1158015610d1d573d6000803e3d6000fd5b505050506040513d6040811015610d3357600080fd5b8101908080519060200190929190805190602001909291905050508093508192505050610d638d838360006121a1565b828060019003935050610c4b565b87871415611007578c60050160009054906101000a900473ffffffffffffffffffffffffffffffffffffffff1673ffffffffffffffffffffffffffffffffffffffff1663a9059cbb8e60010160009054906101000a900473ffffffffffffffffffffffffffffffffffffffff168f60050160009054906101000a900473ffffffffffffffffffffffffffffffffffffffff1673ffffffffffffffffffffffffffffffffffffffff166370a08231306040518263ffffffff167c0100000000000000000000000000000000000000000000000000000000028152600401808273ffffffffffffffffffffffffffffffffffffffff1673ffffffffffffffffffffffffffffffffffffffff168152602001915050602060405180830381600087803b158015610e9d57600080fd5b505af1158015610eb1573d6000803e3d6000fd5b505050506040513d6020811015610ec757600080fd5b81019080805190602001909291905050506040518363ffffffff167c0100000000000000000000000000000000000000000000000000000000028152600401808373ffffffffffffffffffffffffffffffffffffffff1673ffffffffffffffffffffffffffffffffffffffff16815260200182815260200192505050602060405180830381600087803b158015610f5d57600080fd5b505af1158015610f71573d6000803e3d6000fd5b505050506040513d6020811015610f8757600080fd5b8101908080519060200190929190505050507fbc6c94b90850c7cd9f35740bb9b9cbce0e00c88e8ddeaace095f1d45bfd740108d600d01548e600e0154604051808381526020018281526020019250505060405180910390a160028d60050160146101000a81548160ff0219169083600281111561100157fe5b02179055505b5b899a505050505050505050505092915050565b6110236128a3565b600080600080600060a0604051908101604052808860130160009054906101000a900473ffffffffffffffffffffffffffffffffffffffff1673ffffffffffffffffffffffffffffffffffffffff1673ffffffffffffffffffffffffffffffffffffffff16815260200188600f0160009054906101000a900473ffffffffffffffffffffffffffffffffffffffff1673ffffffffffffffffffffffffffffffffffffffff1673ffffffffffffffffffffffffffffffffffffffff1681526020018860100160009054906101000a900473ffffffffffffffffffffffffffffffffffffffff1673ffffffffffffffffffffffffffffffffffffffff1673ffffffffffffffffffffffffffffffffffffffff1681526020018860000160009054906101000a900473ffffffffffffffffffffffffffffffffffffffff1673ffffffffffffffffffffffffffffffffffffffff1673ffffffffffffffffffffffffffffffffffffffff1681526020018860040160009054906101000a900473ffffffffffffffffffffffffffffffffffffffff1673ffffffffffffffffffffffffffffffffffffffff1673ffffffffffffffffffffffffffffffffffffffff1681525087601101548860060160026007811015156111fa57fe5b015489600601600360078110151561120e57fe5b01548a600601600060078110151561122257fe5b01548b600601600160078110151561123657fe5b015495509550955095509550955091939550919395565b600080600281111561125b57fe5b8460050160149054906101000a900460ff16600281111561127857fe5b1480156112d457508360030160009054906101000a900473ffffffffffffffffffffffffffffffffffffffff1673ffffffffffffffffffffffffffffffffffffffff163373ffffffffffffffffffffffffffffffffffffffff16145b80156112e05750600083115b806113a157508360130160009054906101000a900473ffffffffffffffffffffffffffffffffffffffff1673ffffffffffffffffffffffffffffffffffffffff163373ffffffffffffffffffffffffffffffffffffffff1614801561139457508360030160009054906101000a900473ffffffffffffffffffffffffffffffffffffffff1673ffffffffffffffffffffffffffffffffffffffff168273ffffffffffffffffffffffffffffffffffffffff16145b80156113a05750600083115b5b15156113ac57600080fd5b8360010160009054906101000a900473ffffffffffffffffffffffffffffffffffffffff168460020160006101000a81548173ffffffffffffffffffffffffffffffffffffffff021916908373ffffffffffffffffffffffffffffffffffffffff16021790555061141c8461265f565b61146a6114486201518086600601600360078110151561143857fe5b015461280590919063ffffffff16565b85600601600060078110151561145a57fe5b015461283890919063ffffffff16565b84600601600160078110151561147c57fe5b01819055506224ea0084600601600060078110151561149757fe5b01548560060160016007811015156114ab57fe5b0154031015156114b757fe5b8284601201819055508360040160009054906101000a900473ffffffffffffffffffffffffffffffffffffffff168460050160006101000a81548173ffffffffffffffffffffffffffffffffffffffff021916908373ffffffffffffffffffffffffffffffffffffffff160217905550611532836002612805565b8460050160009054906101000a900473ffffffffffffffffffffffffffffffffffffffff1673ffffffffffffffffffffffffffffffffffffffff166370a08231306040518263ffffffff167c0100000000000000000000000000000000000000000000000000000000028152600401808273ffffffffffffffffffffffffffffffffffffffff1673ffffffffffffffffffffffffffffffffffffffff168152602001915050602060405180830381600087803b1580156115f157600080fd5b505af1158015611605573d6000803e3d6000fd5b505050506040513d602081101561161b57600080fd5b810190808051906020019092919050505014151561163557fe5b600190508360020160009054906101000a900473ffffffffffffffffffffffffffffffffffffffff1673ffffffffffffffffffffffffffffffffffffffff16632a7292d085601201548660030160009054906101000a900473ffffffffffffffffffffffffffffffffffffffff168760060160006007811015156116b557fe5b01546040518463ffffffff167c0100000000000000000000000000000000000000000000000000000000028152600401808481526020018373ffffffffffffffffffffffffffffffffffffffff1673ffffffffffffffffffffffffffffffffffffffff1681526020018281526020019350505050606060405180830381600087803b15801561174357600080fd5b505af1158015611757573d6000803e3d6000fd5b505050506040513d606081101561176d57600080fd5b8101908080519060200190929190805190602001909291908051906020019092919050505086600f0160008860100160008497508591906101000a81548173ffffffffffffffffffffffffffffffffffffffff021916908373ffffffffffffffffffffffffffffffffffffffff1602179055508491906101000a81548173ffffffffffffffffffffffffffffffffffffffff021916908373ffffffffffffffffffffffffffffffffffffffff16021790555050505061183981856012015461285690919063ffffffff16565b846011018190555061184a84611940565b507f4bd82ea3087db5766e0b0ac766426889c709d48bfa239b6e5de07f5f57f561df8460040160009054906101000a900473ffffffffffffffffffffffffffffffffffffffff168560060160006007811015156118a357fe5b01548660060160016007811015156118b757fe5b01548760120154604051808573ffffffffffffffffffffffffffffffffffffffff1673ffffffffffffffffffffffffffffffffffffffff16815260200184815260200183815260200182815260200194505050505060405180910390a160018460050160146101000a81548160ff0219169083600281111561193557fe5b021790555050505050565b6000806000808460000160009054906101000a900473ffffffffffffffffffffffffffffffffffffffff169250620151804281151561197b57fe5b064203915084600601600060078110151561199257fe5b015482101580156119b6575060008560060160046007811015156119b257fe5b0154145b15611c4757600090505b620151808560060160006007811015156119d657fe5b015483038115156119e357fe5b04811015611ba5578273ffffffffffffffffffffffffffffffffffffffff1663aeb2ffc1620151808302876006016000600781101515611a1f57fe5b0154016040518263ffffffff167c010000000000000000000000000000000000000000000000000000000002815260040180828152602001915050602060405180830381600087803b158015611a7457600080fd5b505af1158015611a88573d6000803e3d6000fd5b505050506040513d6020811015611a9e57600080fd5b810190808051906020019092919050505015611b98578273ffffffffffffffffffffffffffffffffffffffff16635bee29b7620151808302876006016000600781101515611ae857fe5b0154016040518263ffffffff167c010000000000000000000000000000000000000000000000000000000002815260040180828152602001915050602060405180830381600087803b158015611b3d57600080fd5b505af1158015611b51573d6000803e3d6000fd5b505050506040513d6020811015611b6757600080fd5b8101908080519060200190929190505050856006016004600781101515611b8a57fe5b018190555060019350611f13565b80806001019150506119c0565b6000856006016004600781101515611bb957fe5b01541415611c46578273ffffffffffffffffffffffffffffffffffffffff1663c692c0496040518163ffffffff167c0100000000000000000000000000000000000000000000000000000000028152600401600060405180830381600087803b158015611c2557600080fd5b505af1158015611c39573d6000803e3d6000fd5b5050505060009350611f13565b5b846006016001600781101515611c5957fe5b01548210158015611c7d57506000856006016005600781101515611c7957fe5b0154145b15611f0e57600090505b62015180856006016001600781101515611c9d57fe5b01548303811515611caa57fe5b04811015611e6c578273ffffffffffffffffffffffffffffffffffffffff1663aeb2ffc1620151808302876006016001600781101515611ce657fe5b0154016040518263ffffffff167c010000000000000000000000000000000000000000000000000000000002815260040180828152602001915050602060405180830381600087803b158015611d3b57600080fd5b505af1158015611d4f573d6000803e3d6000fd5b505050506040513d6020811015611d6557600080fd5b810190808051906020019092919050505015611e5f578273ffffffffffffffffffffffffffffffffffffffff16635bee29b7620151808302876006016001600781101515611daf57fe5b0154016040518263ffffffff167c010000000000000000000000000000000000000000000000000000000002815260040180828152602001915050602060405180830381600087803b158015611e0457600080fd5b505af1158015611e18573d6000803e3d6000fd5b505050506040513d6020811015611e2e57600080fd5b8101908080519060200190929190505050856006016005600781101515611e5157fe5b018190555060019350611f13565b8080600101915050611c87565b6000856006016005600781101515611e8057fe5b01541415611f0d578273ffffffffffffffffffffffffffffffffffffffff1663c692c0496040518163ffffffff167c0100000000000000000000000000000000000000000000000000000000028152600401600060405180830381600087803b158015611eec57600080fd5b505af1158015611f00573d6000803e3d6000fd5b5050505060009350611f13565b5b600193505b505050919050565b6000611f5f612710611f51846006016006600781101515611f3857fe5b015461271003856012015461280590919063ffffffff16565b61285690919063ffffffff16565b82601201819055506000826006016004600781101515611f7b57fe5b0154118015611f9d57506000826006016005600781101515611f9957fe5b0154115b15611ff357611ff0826006016004600781101515611fb757fe5b0154611fe2620186a0856006016005600781101515611fd257fe5b015461280590919063ffffffff16565b61285690919063ffffffff16565b90505b620186a08111156120455761203e620186a0612030620186a0840385600601600260078110151561202057fe5b015461280590919063ffffffff16565b61283890919063ffffffff16565b90506120ee565b620186a081101561209657612087620186a061208283620186a00385600601600260078110151561207257fe5b015461280590919063ffffffff16565b612871565b905080620186a00390506120ed565b60008260060160056007811015156120aa57fe5b015411156120bf5764174876e80090506120ec565b60008260060160046007811015156120d357fe5b015411156120e457600090506120eb565b620186a090505b5b5b5b6120fb62030d4082612871565b905061213f620186a0612131846011015461212386601201548661280590919063ffffffff16565b61285690919063ffffffff16565b61285690919063ffffffff16565b82600d0181905550612195620186a06121878460110154612179866012015461216b62030d408861288a565b61280590919063ffffffff16565b61285690919063ffffffff16565b61285690919063ffffffff16565b82600e01819055505050565b801561240257600084600d015411156123fd578360050160009054906101000a900473ffffffffffffffffffffffffffffffffffffffff1673ffffffffffffffffffffffffffffffffffffffff1663a9059cbb8461220c87600d01548661280590919063ffffffff16565b6040518363ffffffff167c0100000000000000000000000000000000000000000000000000000000028152600401808373ffffffffffffffffffffffffffffffffffffffff1673ffffffffffffffffffffffffffffffffffffffff16815260200182815260200192505050602060405180830381600087803b15801561229157600080fd5b505af11580156122a5573d6000803e3d6000fd5b505050506040513d60208110156122bb57600080fd5b8101908080519060200190929190505050508360020160009054906101000a900473ffffffffffffffffffffffffffffffffffffffff1673ffffffffffffffffffffffffffffffffffffffff1663ecb145198486600f0160009054906101000a900473ffffffffffffffffffffffffffffffffffffffff166040518363ffffffff167c0100000000000000000000000000000000000000000000000000000000028152600401808373ffffffffffffffffffffffffffffffffffffffff1673ffffffffffffffffffffffffffffffffffffffff1681526020018273ffffffffffffffffffffffffffffffffffffffff1673ffffffffffffffffffffffffffffffffffffffff16815260200192505050600060405180830381600087803b1580156123e457600080fd5b505af11580156123f8573d6000803e3d6000fd5b505050505b612659565b600084600e01541115612658578360050160009054906101000a900473ffffffffffffffffffffffffffffffffffffffff1673ffffffffffffffffffffffffffffffffffffffff1663a9059cbb8461246787600e01548661280590919063ffffffff16565b6040518363ffffffff167c0100000000000000000000000000000000000000000000000000000000028152600401808373ffffffffffffffffffffffffffffffffffffffff1673ffffffffffffffffffffffffffffffffffffffff16815260200182815260200192505050602060405180830381600087803b1580156124ec57600080fd5b505af1158015612500573d6000803e3d6000fd5b505050506040513d602081101561251657600080fd5b8101908080519060200190929190505050508360020160009054906101000a900473ffffffffffffffffffffffffffffffffffffffff1673ffffffffffffffffffffffffffffffffffffffff1663ecb14519848660100160009054906101000a900473ffffffffffffffffffffffffffffffffffffffff166040518363ffffffff167c0100000000000000000000000000000000000000000000000000000000028152600401808373ffffffffffffffffffffffffffffffffffffffff1673ffffffffffffffffffffffffffffffffffffffff1681526020018273ffffffffffffffffffffffffffffffffffffffff1673ffffffffffffffffffffffffffffffffffffffff16815260200192505050600060405180830381600087803b15801561263f57600080fd5b505af1158015612653573d6000803e3d6000fd5b505050505b5b50505050565b8060020160009054906101000a900473ffffffffffffffffffffffffffffffffffffffff1673ffffffffffffffffffffffffffffffffffffffff166394aef0226040518163ffffffff167c0100000000000000000000000000000000000000000000000000000000028152600401608060405180830381600087803b1580156126e757600080fd5b505af11580156126fb573d6000803e3d6000fd5b505050506040513d608081101561271157600080fd5b810190808051906020019092919080519060200190929190805190602001909291908051906020019092919050505084600001600086600601600360078110151561275857fe5b01600088600601600260078110151561276d57fe5b0160008a60040160008891906101000a81548173ffffffffffffffffffffffffffffffffffffffff021916908373ffffffffffffffffffffffffffffffffffffffff160217905550879190505586919050558591906101000a81548173ffffffffffffffffffffffffffffffffffffffff021916908373ffffffffffffffffffffffffffffffffffffffff1602179055505050505050565b60008082840290506000841480612826575082848281151561282357fe5b04145b151561282e57fe5b8091505092915050565b600080828401905083811015151561284c57fe5b8091505092915050565b600080828481151561286457fe5b0490508091505092915050565b60008183106128805781612882565b825b905092915050565b600082821115151561289857fe5b818303905092915050565b60a0604051908101604052806005906020820280388339808201915050905050905600a165627a7a72305820fe138ce522a2834494ba17574d1528aa7a38f1d1c54bbce2329c16d4fcf7c36b0029",
  "source": "pragma solidity ^0.4.23;\r\n\r\nimport \"./libraries/TokenLibrary.sol\";\r\n\r\n/**\r\n*This contract is the specific DRCT base contract that holds the funds of the contract and\r\n*redistributes them based upon the change in the underlying values\r\n*/\r\n\r\ncontract TokenToTokenSwap {\r\n\r\n    using TokenLibrary for TokenLibrary.SwapStorage;\r\n\r\n    /*Variables*/\r\n    TokenLibrary.SwapStorage public swap;\r\n\r\n    /*Functions*/\r\n    /**\r\n    *@dev Constructor - Run by the factory at contract creation\r\n    *@param _factory_address address of the factory that created this contract\r\n    *@param _creator address of the person who created the contract\r\n    *@param _userContract address of the _userContract that is authorized to interact with this contract\r\n    *@param _start_date start date of the contract\r\n    */\r\n    constructor (address _factory_address, address _creator, address _userContract, uint _start_date) public {\r\n        swap.startSwap(_factory_address,_creator,_userContract,_start_date);\r\n    }\r\n    \r\n    function init (address _factory_address, address _creator, address _userContract, uint _start_date) public {\r\n        swap.startSwap(_factory_address,_creator,_userContract,_start_date);\r\n    }\r\n\r\n     /**\r\n    @dev A getter function for retriving standardized variables from the factory contract\r\n    */\r\n    function showPrivateVars() public view returns (address[5],uint, uint, uint, uint, uint){\r\n        return swap.showPrivateVars();\r\n    }\r\n\r\n    /**\r\n    @dev A getter function for retriving standardized variables from the factory contract\r\n    */\r\n    function currentState() public view returns(uint){\r\n        return swap.showCurrentState();\r\n    }\r\n\r\n    /**\r\n    *@dev Allows the sender to create the terms for the swap\r\n    *@param _amount Amount of Token that should be deposited for the notional\r\n    *@param _senderAdd States the owner of this side of the contract (does not have to be msg.sender)\r\n    */\r\n    function createSwap(uint _amount, address _senderAdd) public {\r\n        swap.createSwap(_amount,_senderAdd);\r\n    }\r\n\r\n    /**\r\n    *@dev This function can be called after the swap is tokenized or after the Calculate function is called.\r\n    *If the Calculate function has not yet been called, this function will call it.\r\n    *The function then pays every token holder of both the long and short DRCT tokens\r\n    *@param _begin start date of swap\r\n    *@param _end end date of swap\r\n    */\r\n    function forcePay(uint _begin, uint _end) public returns (bool) {\r\n       swap.forcePay([_begin,_end]);\r\n    }\r\n}",
  "sourcePath": "C:\\company\\code\\drct_standard\\contracts\\TokenToTokenSwap.sol",
  "compiler": {
    "name": "solc",
    "version": "0.4.24+commit.e67f0147.Emscripten.clang"
  },
  "schemaVersion": "2.0.0",
  "updatedAt": "2018-06-06T00:18:20.275Z"
}