{
  "contractName": "TokenToTokenSwap",
  "abi": [
    {
      "constant": true,
      "inputs": [],
      "name": "token_amount",
      "outputs": [
        {
          "name": "",
          "type": "uint256"
        }
      ],
      "payable": false,
      "stateMutability": "view",
      "type": "function"
    },
    {
      "constant": true,
      "inputs": [],
      "name": "current_state",
      "outputs": [
        {
          "name": "",
          "type": "uint8"
        }
      ],
      "payable": false,
      "stateMutability": "view",
      "type": "function"
    },
    {
      "constant": true,
      "inputs": [],
      "name": "factory_address",
      "outputs": [
        {
          "name": "",
          "type": "address"
        }
      ],
      "payable": false,
      "stateMutability": "view",
      "type": "function"
    },
    {
      "inputs": [
        {
          "name": "_factory_address",
          "type": "address"
        },
        {
          "name": "_creator",
          "type": "address"
        },
        {
          "name": "_userContract",
          "type": "address"
        },
        {
          "name": "_start_date",
          "type": "uint256"
        }
      ],
      "payable": false,
      "stateMutability": "nonpayable",
      "type": "constructor"
    },
    {
      "anonymous": false,
      "inputs": [
        {
          "indexed": false,
          "name": "_token_address",
          "type": "address"
        },
        {
          "indexed": false,
          "name": "_start_date",
          "type": "uint256"
        },
        {
          "indexed": false,
          "name": "_end_date",
          "type": "uint256"
        },
        {
          "indexed": false,
          "name": "_token_amount",
          "type": "uint256"
        }
      ],
      "name": "SwapCreation",
      "type": "event"
    },
    {
      "anonymous": false,
      "inputs": [
        {
          "indexed": false,
          "name": "pay_to_long",
          "type": "uint256"
        },
        {
          "indexed": false,
          "name": "pay_to_short",
          "type": "uint256"
        }
      ],
      "name": "PaidOut",
      "type": "event"
    },
    {
      "constant": true,
      "inputs": [],
      "name": "showPrivateVars",
      "outputs": [
        {
          "name": "",
          "type": "address"
        },
        {
          "name": "",
          "type": "uint256"
        },
        {
          "name": "",
          "type": "address"
        },
        {
          "name": "",
          "type": "address"
        },
        {
          "name": "",
          "type": "address"
        },
        {
          "name": "",
          "type": "address"
        },
        {
          "name": "",
          "type": "uint256"
        },
        {
          "name": "",
          "type": "uint256"
        },
        {
          "name": "",
          "type": "uint256"
        },
        {
          "name": "",
          "type": "uint256"
        }
      ],
      "payable": false,
      "stateMutability": "view",
      "type": "function"
    },
    {
      "constant": false,
      "inputs": [
        {
          "name": "_amount",
          "type": "uint256"
        },
        {
          "name": "_senderAdd",
          "type": "address"
        }
      ],
      "name": "CreateSwap",
      "outputs": [],
      "payable": false,
      "stateMutability": "nonpayable",
      "type": "function"
    },
    {
      "constant": false,
      "inputs": [
        {
          "name": "_begin",
          "type": "uint256"
        },
        {
          "name": "_end",
          "type": "uint256"
        }
      ],
      "name": "forcePay",
      "outputs": [
        {
          "name": "",
          "type": "bool"
        }
      ],
      "payable": false,
      "stateMutability": "nonpayable",
      "type": "function"
    }
  ],
  "bytecode": "0x6060604052341561000f57600080fd5b6040516080806121708339810160405280805190602001909190805190602001909190805190602001909190805190602001909190505082600460006101000a81548173ffffffffffffffffffffffffffffffffffffffff021916908373ffffffffffffffffffffffffffffffffffffffff16021790555083600260006101000a81548173ffffffffffffffffffffffffffffffffffffffff021916908373ffffffffffffffffffffffffffffffffffffffff16021790555081601460006101000a81548173ffffffffffffffffffffffffffffffffffffffff021916908373ffffffffffffffffffffffffffffffffffffffff160217905550806007819055506000600660146101000a81548160ff0219169083600281111561012f57fe5b021790555050505050612029806101476000396000f300606060405260043610610078576000357c0100000000000000000000000000000000000000000000000000000000900463ffffffff16806354f6c0db1461007d5780635b04cbb5146100a657806370f9c021146100dd57806379eba0b614610121578063ba92d38214610265578063dec5472a146102ba575b600080fd5b341561008857600080fd5b6100906102fc565b6040518082815260200191505060405180910390f35b34156100b157600080fd5b6100b9610302565b604051808260028111156100c957fe5b60ff16815260200191505060405180910390f35b34156100e857600080fd5b6101076004808035906020019091908035906020019091905050610315565b604051808215151515815260200191505060405180910390f35b341561012c57600080fd5b610134610c30565b604051808b73ffffffffffffffffffffffffffffffffffffffff1673ffffffffffffffffffffffffffffffffffffffff1681526020018a81526020018973ffffffffffffffffffffffffffffffffffffffff1673ffffffffffffffffffffffffffffffffffffffff1681526020018873ffffffffffffffffffffffffffffffffffffffff1673ffffffffffffffffffffffffffffffffffffffff1681526020018773ffffffffffffffffffffffffffffffffffffffff1673ffffffffffffffffffffffffffffffffffffffff1681526020018673ffffffffffffffffffffffffffffffffffffffff1673ffffffffffffffffffffffffffffffffffffffff1681526020018581526020018481526020018381526020018281526020019a505050505050505050505060405180910390f35b341561027057600080fd5b610278610d1c565b604051808273ffffffffffffffffffffffffffffffffffffffff1673ffffffffffffffffffffffffffffffffffffffff16815260200191505060405180910390f35b34156102c557600080fd5b6102fa600480803590602001909190803573ffffffffffffffffffffffffffffffffffffffff16906020019091905050610d42565b005b60125481565b600660149054906101000a900460ff1681565b6000806000806000806000806000806001600660149054906101000a900460ff16600281111561034157fe5b81600281111561034d57fe5b14151561035957600080fd5b600854421015151561036a57600080fd5b610372611176565b99508915610c1d576103826116c0565b600f60009054906101000a900473ffffffffffffffffffffffffffffffffffffffff16601360006101000a81548173ffffffffffffffffffffffffffffffffffffffff021916908373ffffffffffffffffffffffffffffffffffffffff160217905550601360009054906101000a900473ffffffffffffffffffffffffffffffffffffffff1673ffffffffffffffffffffffffffffffffffffffff16638811a0ae306040518263ffffffff167c0100000000000000000000000000000000000000000000000000000000028152600401808273ffffffffffffffffffffffffffffffffffffffff1673ffffffffffffffffffffffffffffffffffffffff168152602001915050602060405180830381600087803b15156104a157600080fd5b5af115156104ae57600080fd5b5050506040518051905098508b89106104c7578b6104c9565b885b97506001880396505b8c871015156106af57601360009054906101000a900473ffffffffffffffffffffffffffffffffffffffff1673ffffffffffffffffffffffffffffffffffffffff1663b85ed17d88306040518363ffffffff167c0100000000000000000000000000000000000000000000000000000000028152600401808381526020018273ffffffffffffffffffffffffffffffffffffffff1673ffffffffffffffffffffffffffffffffffffffff16815260200192505050602060405180830381600087803b151561059f57600080fd5b5af115156105ac57600080fd5b505050604051805190509550601360009054906101000a900473ffffffffffffffffffffffffffffffffffffffff1673ffffffffffffffffffffffffffffffffffffffff1663637dda3f88306040518363ffffffff167c0100000000000000000000000000000000000000000000000000000000028152600401808381526020018273ffffffffffffffffffffffffffffffffffffffff1673ffffffffffffffffffffffffffffffffffffffff16815260200192505050602060405180830381600087803b151561067c57600080fd5b5af1151561068957600080fd5b5050506040518051905094506106a18686600161181a565b8680600190039750506104d2565b601060009054906101000a900473ffffffffffffffffffffffffffffffffffffffff16601360006101000a81548173ffffffffffffffffffffffffffffffffffffffff021916908373ffffffffffffffffffffffffffffffffffffffff160217905550601360009054906101000a900473ffffffffffffffffffffffffffffffffffffffff1673ffffffffffffffffffffffffffffffffffffffff16638811a0ae306040518263ffffffff167c0100000000000000000000000000000000000000000000000000000000028152600401808273ffffffffffffffffffffffffffffffffffffffff1673ffffffffffffffffffffffffffffffffffffffff168152602001915050602060405180830381600087803b15156107ce57600080fd5b5af115156107db57600080fd5b5050506040518051905098508b89106107f4578b6107f6565b885b97506001880393505b8c841015156109dc57601360009054906101000a900473ffffffffffffffffffffffffffffffffffffffff1673ffffffffffffffffffffffffffffffffffffffff1663b85ed17d85306040518363ffffffff167c0100000000000000000000000000000000000000000000000000000000028152600401808381526020018273ffffffffffffffffffffffffffffffffffffffff1673ffffffffffffffffffffffffffffffffffffffff16815260200192505050602060405180830381600087803b15156108cc57600080fd5b5af115156108d957600080fd5b505050604051805190509250601360009054906101000a900473ffffffffffffffffffffffffffffffffffffffff1673ffffffffffffffffffffffffffffffffffffffff1663637dda3f85306040518363ffffffff167c0100000000000000000000000000000000000000000000000000000000028152600401808381526020018273ffffffffffffffffffffffffffffffffffffffff1673ffffffffffffffffffffffffffffffffffffffff16815260200192505050602060405180830381600087803b15156109a957600080fd5b5af115156109b657600080fd5b5050506040518051905091506109ce8383600061181a565b8380600190039450506107ff565b88881415610c1c57600660009054906101000a900473ffffffffffffffffffffffffffffffffffffffff1673ffffffffffffffffffffffffffffffffffffffff1663a9059cbb600260009054906101000a900473ffffffffffffffffffffffffffffffffffffffff16600660009054906101000a900473ffffffffffffffffffffffffffffffffffffffff1673ffffffffffffffffffffffffffffffffffffffff166370a08231306040518263ffffffff167c0100000000000000000000000000000000000000000000000000000000028152600401808273ffffffffffffffffffffffffffffffffffffffff1673ffffffffffffffffffffffffffffffffffffffff168152602001915050602060405180830381600087803b1515610b0157600080fd5b5af11515610b0e57600080fd5b505050604051805190506040518363ffffffff167c0100000000000000000000000000000000000000000000000000000000028152600401808373ffffffffffffffffffffffffffffffffffffffff1673ffffffffffffffffffffffffffffffffffffffff16815260200182815260200192505050602060405180830381600087803b1515610b9c57600080fd5b5af11515610ba957600080fd5b50505060405180519050507fbc6c94b90850c7cd9f35740bb9b9cbce0e00c88e8ddeaace095f1d45bfd74010600b54600c54604051808381526020018281526020019250505060405180910390a16002600660146101000a81548160ff02191690836002811115610c1657fe5b02179055505b5b899a505050505050505050505092915050565b600080600080600080600080600080601460009054906101000a900473ffffffffffffffffffffffffffffffffffffffff16601154600f60009054906101000a900473ffffffffffffffffffffffffffffffffffffffff16601060009054906101000a900473ffffffffffffffffffffffffffffffffffffffff166000809054906101000a900473ffffffffffffffffffffffffffffffffffffffff16600560009054906101000a900473ffffffffffffffffffffffffffffffffffffffff16600954600a54600754600854995099509950995099509950995099509950995090919293949596979899565b600260009054906101000a900473ffffffffffffffffffffffffffffffffffffffff1681565b6000600660149054906101000a900460ff166002811115610d5f57fe5b816002811115610d6b57fe5b141515610d7757600080fd5b600460009054906101000a900473ffffffffffffffffffffffffffffffffffffffff1673ffffffffffffffffffffffffffffffffffffffff163373ffffffffffffffffffffffffffffffffffffffff161480610e795750601460009054906101000a900473ffffffffffffffffffffffffffffffffffffffff1673ffffffffffffffffffffffffffffffffffffffff163373ffffffffffffffffffffffffffffffffffffffff16148015610e785750600460009054906101000a900473ffffffffffffffffffffffffffffffffffffffff1673ffffffffffffffffffffffffffffffffffffffff168273ffffffffffffffffffffffffffffffffffffffff16145b5b1515610e8457600080fd5b600260009054906101000a900473ffffffffffffffffffffffffffffffffffffffff16600360006101000a81548173ffffffffffffffffffffffffffffffffffffffff021916908373ffffffffffffffffffffffffffffffffffffffff160217905550610eef611c67565b610f1b610f0a62015180600a54611db290919063ffffffff16565b600754611de590919063ffffffff16565b6008819055506224ea0060075460085403101515610f3557fe5b82601281905550600560009054906101000a900473ffffffffffffffffffffffffffffffffffffffff16600660006101000a81548173ffffffffffffffffffffffffffffffffffffffff021916908373ffffffffffffffffffffffffffffffffffffffff16021790555060028302600660009054906101000a900473ffffffffffffffffffffffffffffffffffffffff1673ffffffffffffffffffffffffffffffffffffffff166370a08231306040518263ffffffff167c0100000000000000000000000000000000000000000000000000000000028152600401808273ffffffffffffffffffffffffffffffffffffffff1673ffffffffffffffffffffffffffffffffffffffff168152602001915050602060405180830381600087803b151561105f57600080fd5b5af1151561106c57600080fd5b5050506040518051905014151561107f57fe5b6110aa600460009054906101000a900473ffffffffffffffffffffffffffffffffffffffff16611e03565b7f4bd82ea3087db5766e0b0ac766426889c709d48bfa239b6e5de07f5f57f561df600560009054906101000a900473ffffffffffffffffffffffffffffffffffffffff16600754600854601254604051808573ffffffffffffffffffffffffffffffffffffffff1673ffffffffffffffffffffffffffffffffffffffff16815260200184815260200183815260200182815260200194505050505060405180910390a16001600660146101000a81548160ff0219169083600281111561116c57fe5b0217905550505050565b60008060008060009054906101000a900473ffffffffffffffffffffffffffffffffffffffff16600160006101000a81548173ffffffffffffffffffffffffffffffffffffffff021916908373ffffffffffffffffffffffffffffffffffffffff16021790555062015180428115156111eb57fe5b0642039150600754821015801561120457506000600d54145b1561145357600090505b62015180600754830381151561122057fe5b048110156113a957600160009054906101000a900473ffffffffffffffffffffffffffffffffffffffff1673ffffffffffffffffffffffffffffffffffffffff1663aeb2ffc1620151808302600754016040518263ffffffff167c010000000000000000000000000000000000000000000000000000000002815260040180828152602001915050602060405180830381600087803b15156112c157600080fd5b5af115156112ce57600080fd5b505050604051805190501561139c57600160009054906101000a900473ffffffffffffffffffffffffffffffffffffffff1673ffffffffffffffffffffffffffffffffffffffff16635bee29b7620151808302600754016040518263ffffffff167c010000000000000000000000000000000000000000000000000000000002815260040180828152602001915050602060405180830381600087803b151561137657600080fd5b5af1151561138357600080fd5b50505060405180519050600d81905550600192506116bb565b808060010191505061120e565b6000600d54141561145257600160009054906101000a900473ffffffffffffffffffffffffffffffffffffffff1673ffffffffffffffffffffffffffffffffffffffff1663c692c0496040518163ffffffff167c0100000000000000000000000000000000000000000000000000000000028152600401600060405180830381600087803b151561143957600080fd5b5af1151561144657600080fd5b505050600092506116bb565b5b600854821015801561146757506000600e54145b156116b657600090505b62015180600854830381151561148357fe5b0481101561160c57600160009054906101000a900473ffffffffffffffffffffffffffffffffffffffff1673ffffffffffffffffffffffffffffffffffffffff1663aeb2ffc1620151808302600854016040518263ffffffff167c010000000000000000000000000000000000000000000000000000000002815260040180828152602001915050602060405180830381600087803b151561152457600080fd5b5af1151561153157600080fd5b50505060405180519050156115ff57600160009054906101000a900473ffffffffffffffffffffffffffffffffffffffff1673ffffffffffffffffffffffffffffffffffffffff16635bee29b7620151808302600854016040518263ffffffff167c010000000000000000000000000000000000000000000000000000000002815260040180828152602001915050602060405180830381600087803b15156115d957600080fd5b5af115156115e657600080fd5b50505060405180519050600e81905550600192506116bb565b8080600101915050611471565b6000600e5414156116b557600160009054906101000a900473ffffffffffffffffffffffffffffffffffffffff1673ffffffffffffffffffffffffffffffffffffffff1663c692c0496040518163ffffffff167c0100000000000000000000000000000000000000000000000000000000028152600401600060405180830381600087803b151561169c57600080fd5b5af115156116a957600080fd5b505050600092506116bb565b5b600192505b505090565b60006116ed6103e86116df6103e3601254611db290919063ffffffff16565b611fb090919063ffffffff16565b6012819055506000600d5411801561170757506000600e54115b1561173f57611738600d5461172a620186a0600e54611db290919063ffffffff16565b611fb090919063ffffffff16565b9050611774565b6000600e5411156117575764174876e8009050611773565b6000600d54111561176b5760009050611772565b620186a090505b5b5b61178162030d4082611fcb565b90506117c1620186a06117b36011546117a560125486611db290919063ffffffff16565b611fb090919063ffffffff16565b611fb090919063ffffffff16565b600b81905550611811620186a06118036011546117f56012546117e762030d4088611fe4565b611db290919063ffffffff16565b611fb090919063ffffffff16565b611fb090919063ffffffff16565b600c8190555050565b8015611a43576000600b541115611a3e57600660009054906101000a900473ffffffffffffffffffffffffffffffffffffffff1673ffffffffffffffffffffffffffffffffffffffff1663a9059cbb8461187f600b5486611db290919063ffffffff16565b6040518363ffffffff167c0100000000000000000000000000000000000000000000000000000000028152600401808373ffffffffffffffffffffffffffffffffffffffff1673ffffffffffffffffffffffffffffffffffffffff16815260200182815260200192505050602060405180830381600087803b151561190357600080fd5b5af1151561191057600080fd5b5050506040518051905050600360009054906101000a900473ffffffffffffffffffffffffffffffffffffffff1673ffffffffffffffffffffffffffffffffffffffff1663ecb1451984600f60009054906101000a900473ffffffffffffffffffffffffffffffffffffffff166040518363ffffffff167c0100000000000000000000000000000000000000000000000000000000028152600401808373ffffffffffffffffffffffffffffffffffffffff1673ffffffffffffffffffffffffffffffffffffffff1681526020018273ffffffffffffffffffffffffffffffffffffffff1673ffffffffffffffffffffffffffffffffffffffff16815260200192505050600060405180830381600087803b1515611a2d57600080fd5b5af11515611a3a57600080fd5b5050505b611c62565b6000600c541115611c6157600660009054906101000a900473ffffffffffffffffffffffffffffffffffffffff1673ffffffffffffffffffffffffffffffffffffffff1663a9059cbb84611aa2600c5486611db290919063ffffffff16565b6040518363ffffffff167c0100000000000000000000000000000000000000000000000000000000028152600401808373ffffffffffffffffffffffffffffffffffffffff1673ffffffffffffffffffffffffffffffffffffffff16815260200182815260200192505050602060405180830381600087803b1515611b2657600080fd5b5af11515611b3357600080fd5b5050506040518051905050600360009054906101000a900473ffffffffffffffffffffffffffffffffffffffff1673ffffffffffffffffffffffffffffffffffffffff1663ecb1451984601060009054906101000a900473ffffffffffffffffffffffffffffffffffffffff166040518363ffffffff167c0100000000000000000000000000000000000000000000000000000000028152600401808373ffffffffffffffffffffffffffffffffffffffff1673ffffffffffffffffffffffffffffffffffffffff1681526020018273ffffffffffffffffffffffffffffffffffffffff1673ffffffffffffffffffffffffffffffffffffffff16815260200192505050600060405180830381600087803b1515611c5057600080fd5b5af11515611c5d57600080fd5b5050505b5b505050565b600360009054906101000a900473ffffffffffffffffffffffffffffffffffffffff1673ffffffffffffffffffffffffffffffffffffffff166394aef0226040518163ffffffff167c0100000000000000000000000000000000000000000000000000000000028152600401608060405180830381600087803b1515611cec57600080fd5b5af11515611cf957600080fd5b50505060405180519060200180519060200180519060200180519050600080600a600060096000600560008891906101000a81548173ffffffffffffffffffffffffffffffffffffffff021916908373ffffffffffffffffffffffffffffffffffffffff160217905550879190505586919050558591906101000a81548173ffffffffffffffffffffffffffffffffffffffff021916908373ffffffffffffffffffffffffffffffffffffffff16021790555050505050565b60008082840290506000841480611dd35750828482811515611dd057fe5b04145b1515611ddb57fe5b8091505092915050565b6000808284019050838110151515611df957fe5b8091505092915050565b600060019050600360009054906101000a900473ffffffffffffffffffffffffffffffffffffffff1673ffffffffffffffffffffffffffffffffffffffff16632a7292d0601254846007546040518463ffffffff167c0100000000000000000000000000000000000000000000000000000000028152600401808481526020018373ffffffffffffffffffffffffffffffffffffffff1673ffffffffffffffffffffffffffffffffffffffff1681526020018281526020019350505050606060405180830381600087803b1515611ed957600080fd5b5af11515611ee657600080fd5b50505060405180519060200180519060200180519050600f6000601060008497508591906101000a81548173ffffffffffffffffffffffffffffffffffffffff021916908373ffffffffffffffffffffffffffffffffffffffff1602179055508491906101000a81548173ffffffffffffffffffffffffffffffffffffffff021916908373ffffffffffffffffffffffffffffffffffffffff160217905550505050611f9d81601254611fb090919063ffffffff16565b601181905550611fab611176565b505050565b6000808284811515611fbe57fe5b0490508091505092915050565b6000818310611fda5781611fdc565b825b905092915050565b6000828211151515611ff257fe5b8183039050929150505600a165627a7a72305820447f780554d9abfd85ca98d5a24c833408de7b2df490cd764515336aedfa269a0029",
  "source": "pragma solidity ^0.4.17;\n\nimport \"./interfaces/Oracle_Interface.sol\";\nimport \"./interfaces/DRCT_Token_Interface.sol\";\nimport \"./interfaces/Factory_Interface.sol\";\nimport \"./interfaces/ERC20_Interface.sol\";\nimport \"./libraries/SafeMath.sol\";\n\n\n//This contract is the specific DRCT base contract that holds the funds of the contract and redistributes them based upon the change in the underlying values\ncontract TokenToTokenSwap {\n\n  using SafeMath for uint256;\n\n\n\n  /*Enums*/\n  //Describes various states of the Swap\n  enum SwapState {\n    created,\n    started,\n    ended\n  }\n  /*Variables*/\n  //The Oracle address (check for list at www.github.com/DecentralizedDerivatives/Oracles)\n  address oracle_address;\n  Oracle_Interface oracle;\n  //Address of the Factory that created this contract\n  address public factory_address;\n  Factory_Interface factory;\n  address creator;\n  //Addresses of ERC20 token\n  address token_address;\n  ERC20_Interface token;\n  //Enum state of the swap\n  SwapState public current_state;\n  //Start and end dates of the swaps - format is the same as block.timestamp\n  uint start_date;\n  uint end_date;\n  uint multiplier;\n  uint duration;\n  // pay_to_x refers to the amount of the base token (a or b) to pay to the long or short side based upon the share_long and share_short\n  uint pay_to_long;\n  uint pay_to_short;\n\n  uint start_value;\n  uint end_value;\n  //Address of created long and short DRCT tokens\n  address long_token_address;\n  address short_token_address;\n  //Number of DRCT Tokens distributed to both parties\n  uint num_DRCT_tokens;\n  //The notional that the payment is calculated on from the change in the reference rate\n  uint public token_amount;\n  DRCT_Token_Interface drct;\n  address userContract;\n\n  /*Events*/\n  //Emitted when a Swap is created\n  event SwapCreation(address _token_address, uint _start_date, uint _end_date, uint _token_amount);\n  //Emitted when the swap has been paid out\n  event PaidOut(uint pay_to_long, uint pay_to_short);\n  /*Functions*/\n  modifier onlyState(SwapState expected_state) {\n    require(expected_state == current_state);\n    _;\n  }\n\n  /*\n  * Constructor - Run by the factory at contract creation\n  * @param \"_factory_address\": Address of the factory that created this contract\n  * @param \"_creator\": Address of the person who created the contract\n  * @param \"_userContract\": Address of the _userContract that is authorized to interact with this contract\n  */\n  function TokenToTokenSwap (address _factory_address, address _creator, address _userContract, uint _start_date) public {\n    creator = _creator;\n    factory_address = _factory_address;\n    userContract = _userContract;\n    start_date = _start_date;\n    current_state = SwapState.created;\n  }\n\n\n  //A getter function for retriving standardized variables from the factory contract\n  function showPrivateVars() public view returns (address, uint, address, address, address, address,  uint, uint, uint, uint){\n    return (userContract, num_DRCT_tokens,long_token_address,short_token_address, oracle_address, token_address, multiplier, duration, start_date, end_date);\n  }\n\n  /*\n  * Allows the sender to create the terms for the swap\n  * @param \"_amount_a\": Amount of notional\n  * @param \"_sender_is_long\": Denotes whether the sender is set as the short or long party\n  * @param \"_senderAdd\": States the owner of this side of the contract (does not have to be msg.sender)\n  */\n  function CreateSwap(\n    uint _amount,\n    address _senderAdd\n    ) public onlyState(SwapState.created) {\n    require(\n      msg.sender == creator || (msg.sender == userContract && _senderAdd == creator)\n    );\n    factory = Factory_Interface(factory_address);\n    setVars();\n    end_date = start_date.add(duration.mul(86400));\n    assert(end_date-start_date < 28*86400);\n    token_amount = _amount;\n    token = ERC20_Interface(token_address);\n    assert(token.balanceOf(address(this)) == _amount*2);\n    createTokens(creator);\n    emit SwapCreation(token_address,start_date,end_date,token_amount);\n    current_state = SwapState.started;\n  }\n\n  function setVars() internal{\n      (oracle_address,duration,multiplier,token_address) = factory.getVariables();\n  }\n\n  /*\n  * This function is for those entering the swap. The details of the swap are re-entered and checked\n  * to ensure the entering party is entering the correct swap. Note that the tokens you are entering with\n  * do not need to be entered as a variable, but you should ensure that the contract is funded.\n  * This function creates the DRCT tokens for the short and long parties, and ensures the short and long parties\n  * have funded the contract with the correct amount of the ERC20 tokens A and B\n  *\n  */\n  function createTokens(address _party) internal {\n    uint tokenratio = 1;\n    (long_token_address,short_token_address,tokenratio) = factory.createToken(token_amount,_party,start_date);\n    num_DRCT_tokens = token_amount.div(tokenratio);\n    oracleQuery();\n  }\n\n  function oracleQuery() internal returns(bool){\n    oracle = Oracle_Interface(oracle_address);\n    uint _today = now - (now % 86400);\n    uint i;\n    if(_today >= start_date && start_value == 0){\n        for(i=0;i < (_today- start_date)/86400;i++){\n           if(oracle.getQuery(start_date+i*86400)){\n              start_value = oracle.retrieveData(start_date+i*86400);\n              return true;\n           }\n        }\n        if(start_value ==0){\n          oracle.pushData();\n          return false;\n        }\n    }\n    if(_today >= end_date && end_value == 0){\n        for(i=0;i < (_today- end_date)/86400;i++){\n           if(oracle.getQuery(end_date+i*86400)){\n              end_value = oracle.retrieveData(end_date+i*86400);\n              return true;\n           }\n        }\n        if(end_value ==0){\n          oracle.pushData();\n          return false;\n        }\n    }\n    return true;\n  }\n\n  /*\n  * This function calculates the payout of the swap. It can be called after the Swap has been tokenized.\n  * The value of the underlying cannot reach zero, but rather can only get within 0.001 * the precision\n  * of the Oracle.\n  */\n  function Calculate() internal {\n    uint ratio;\n    token_amount = token_amount.mul(995).div(1000);\n    if (start_value > 0 && end_value > 0)\n      ratio = (end_value).mul(100000).div(start_value);\n    else if (end_value > 0)\n      ratio = 10e10;\n    else if (start_value > 0)\n      ratio = 0;\n    else\n      ratio = 100000;\n    ratio = SafeMath.min(200000,ratio);\n    pay_to_long = (ratio.mul(token_amount)).div(num_DRCT_tokens).div(100000);\n    pay_to_short = (SafeMath.sub(200000,ratio).mul(token_amount)).div(num_DRCT_tokens).div(100000);\n  }\n\n\n  /*\n  * This function can be called after the swap is tokenized or after the Calculate function is called.\n  * If the Calculate function has not yet been called, this function will call it.\n  * The function then pays every token holder of both the long and short DRCT tokens\n  //What should we do about zeroed out values? \n  */\n  function forcePay(uint _begin, uint _end) public onlyState(SwapState.started) returns (bool) {\n    //Calls the Calculate function first to calculate short and long shares\n    require(now >= end_date);\n    bool ready = oracleQuery();\n    if(ready){\n      Calculate();\n      //Loop through the owners of long and short DRCT tokens and pay them\n      drct = DRCT_Token_Interface(long_token_address);\n      uint count = drct.addressCount(address(this));\n      uint loop_count = count < _end ? count : _end;\n      //Indexing begins at 1 for DRCT_Token balances\n      for(uint i = loop_count-1; i >= _begin ; i--) {\n        address long_owner = drct.getHolderByIndex(i, address(this));\n        uint to_pay_long = drct.getBalanceByIndex(i, address(this));\n        paySwap(long_owner, to_pay_long, true);\n      }\n\n      drct = DRCT_Token_Interface(short_token_address);\n      count = drct.addressCount(address(this));\n      loop_count = count < _end ? count : _end;\n      for(uint j = loop_count-1; j >= _begin ; j--) {\n        address short_owner = drct.getHolderByIndex(j, address(this));\n        uint to_pay_short = drct.getBalanceByIndex(j, address(this));\n        paySwap(short_owner, to_pay_short, false);\n      }\n      if (loop_count == count){\n          token.transfer(factory_address, token.balanceOf(address(this)));\n          emit PaidOut(pay_to_long,pay_to_short);\n          current_state = SwapState.ended;\n        }\n    }\n    return ready;\n  }\n\n  /*\n  * This function pays the receiver an amount determined by the Calculate function\n  * @param \"_receiver\": The recipient of the payout\n  * @param \"_amount\": The amount of token the recipient holds\n  * @param \"_is_long\": Whether or not the reciever holds a long or short token\n  */\n  function paySwap(address _receiver, uint _amount, bool _is_long) internal {\n    if (_is_long) {\n      if (pay_to_long > 0){\n        token.transfer(_receiver, _amount.mul(pay_to_long));\n        factory.payToken(_receiver,long_token_address);\n      }\n    } else {\n      if (pay_to_short > 0){\n       token.transfer(_receiver, _amount.mul(pay_to_short));\n       factory.payToken(_receiver,short_token_address);\n     }\n    }\n  }\n}",
  "sourcePath": "/Users/daniel/Desktop/drct/DRCT_standard/contracts/TokenToTokenSwap.sol",
  "compiler": {
    "name": "solc",
    "version": "0.4.21+commit.dfe3193c.Emscripten.clang"
  },
  "schemaVersion": "2.0.0",
  "updatedAt": "2018-04-30T01:35:49.105Z"
}