{
  "contractName": "TokenToTokenSwap",
  "abi": [
    {
      "constant": true,
      "inputs": [],
      "name": "swap",
      "outputs": [
        {
          "name": "oracle_address",
          "type": "address"
        },
        {
          "name": "factory_address",
          "type": "address"
        },
        {
          "name": "factory",
          "type": "address"
        },
        {
          "name": "creator",
          "type": "address"
        },
        {
          "name": "token_address",
          "type": "address"
        },
        {
          "name": "token",
          "type": "address"
        },
        {
          "name": "current_state",
          "type": "uint8"
        },
        {
          "name": "pay_to_long",
          "type": "uint256"
        },
        {
          "name": "pay_to_short",
          "type": "uint256"
        },
        {
          "name": "long_token_address",
          "type": "address"
        },
        {
          "name": "short_token_address",
          "type": "address"
        },
        {
          "name": "num_DRCT_tokens",
          "type": "uint256"
        },
        {
          "name": "token_amount",
          "type": "uint256"
        },
        {
          "name": "userContract",
          "type": "address"
        }
      ],
      "payable": false,
      "stateMutability": "view",
      "type": "function"
    },
    {
      "inputs": [
        {
          "name": "_factory_address",
          "type": "address"
        },
        {
          "name": "_creator",
          "type": "address"
        },
        {
          "name": "_userContract",
          "type": "address"
        },
        {
          "name": "_start_date",
          "type": "uint256"
        }
      ],
      "payable": false,
      "stateMutability": "nonpayable",
      "type": "constructor"
    },
    {
      "constant": false,
      "inputs": [
        {
          "name": "_factory_address",
          "type": "address"
        },
        {
          "name": "_creator",
          "type": "address"
        },
        {
          "name": "_userContract",
          "type": "address"
        },
        {
          "name": "_start_date",
          "type": "uint256"
        }
      ],
      "name": "init",
      "outputs": [],
      "payable": false,
      "stateMutability": "nonpayable",
      "type": "function"
    },
    {
      "constant": true,
      "inputs": [],
      "name": "showPrivateVars",
      "outputs": [
        {
          "name": "",
          "type": "address[5]"
        },
        {
          "name": "",
          "type": "uint256"
        },
        {
          "name": "",
          "type": "uint256"
        },
        {
          "name": "",
          "type": "uint256"
        },
        {
          "name": "",
          "type": "uint256"
        },
        {
          "name": "",
          "type": "uint256"
        }
      ],
      "payable": false,
      "stateMutability": "view",
      "type": "function"
    },
    {
      "constant": true,
      "inputs": [],
      "name": "currentState",
      "outputs": [
        {
          "name": "",
          "type": "uint256"
        }
      ],
      "payable": false,
      "stateMutability": "view",
      "type": "function"
    },
    {
      "constant": false,
      "inputs": [
        {
          "name": "_amount",
          "type": "uint256"
        },
        {
          "name": "_senderAdd",
          "type": "address"
        }
      ],
      "name": "createSwap",
      "outputs": [],
      "payable": false,
      "stateMutability": "nonpayable",
      "type": "function"
    },
    {
      "constant": false,
      "inputs": [
        {
          "name": "_topay",
          "type": "uint256"
        }
      ],
      "name": "forcePay",
      "outputs": [
        {
          "name": "",
          "type": "bool"
        }
      ],
      "payable": false,
      "stateMutability": "nonpayable",
      "type": "function"
    }
  ],
  "bytecode": "0x60806040523480156200001157600080fd5b5060405160808062002cb6833981018060405281019080805190602001909291908051906020019092919080519060200190929190805190602001909291905050506200007d848484846000620000876401000000000262001104179094939291906401000000009004565b5050505062000211565b600073ffffffffffffffffffffffffffffffffffffffff168560030160009054906101000a900473ffffffffffffffffffffffffffffffffffffffff1673ffffffffffffffffffffffffffffffffffffffff16141515620000e757600080fd5b828560030160006101000a81548173ffffffffffffffffffffffffffffffffffffffff021916908373ffffffffffffffffffffffffffffffffffffffff160217905550838560010160006101000a81548173ffffffffffffffffffffffffffffffffffffffff021916908373ffffffffffffffffffffffffffffffffffffffff160217905550818560140160006101000a81548173ffffffffffffffffffffffffffffffffffffffff021916908373ffffffffffffffffffffffffffffffffffffffff16021790555080856006016000600881101515620001c457fe5b018190555060008560050160146101000a81548160ff02191690836002811115620001eb57fe5b021790555060008560060160076008811015156200020557fe5b01819055505050505050565b612a9580620002216000396000f300608060405260043610610078576000357c0100000000000000000000000000000000000000000000000000000000900463ffffffff1680630c3f6acf1461007d5780632e6c7ee0146100a857806346639dba146100ed57806379eba0b61461017a5780637a3d4b1a146101f05780638119c0651461023d575b600080fd5b34801561008957600080fd5b5061009261045d565b6040518082815260200191505060405180910390f35b3480156100b457600080fd5b506100d36004803603810190808035906020019092919050505061046e565b604051808215151515815260200191505060405180910390f35b3480156100f957600080fd5b50610178600480360381019080803573ffffffffffffffffffffffffffffffffffffffff169060200190929190803573ffffffffffffffffffffffffffffffffffffffff169060200190929190803573ffffffffffffffffffffffffffffffffffffffff1690602001909291908035906020019092919050505061048a565b005b34801561018657600080fd5b5061018f6104aa565b6040518087600560200280838360005b838110156101ba57808201518184015260208101905061019f565b50505050905001868152602001858152602001848152602001838152602001828152602001965050505050505060405180910390f35b3480156101fc57600080fd5b5061023b60048036038101908080359060200190929190803573ffffffffffffffffffffffffffffffffffffffff1690602001909291905050506104d8565b005b34801561024957600080fd5b506102526104f2565b604051808f73ffffffffffffffffffffffffffffffffffffffff1673ffffffffffffffffffffffffffffffffffffffff1681526020018e73ffffffffffffffffffffffffffffffffffffffff1673ffffffffffffffffffffffffffffffffffffffff1681526020018d73ffffffffffffffffffffffffffffffffffffffff1673ffffffffffffffffffffffffffffffffffffffff1681526020018c73ffffffffffffffffffffffffffffffffffffffff1673ffffffffffffffffffffffffffffffffffffffff1681526020018b73ffffffffffffffffffffffffffffffffffffffff1673ffffffffffffffffffffffffffffffffffffffff1681526020018a73ffffffffffffffffffffffffffffffffffffffff1673ffffffffffffffffffffffffffffffffffffffff16815260200189600281111561038e57fe5b60ff1681526020018881526020018781526020018673ffffffffffffffffffffffffffffffffffffffff1673ffffffffffffffffffffffffffffffffffffffff1681526020018573ffffffffffffffffffffffffffffffffffffffff1673ffffffffffffffffffffffffffffffffffffffff1681526020018481526020018381526020018273ffffffffffffffffffffffffffffffffffffffff1673ffffffffffffffffffffffffffffffffffffffff1681526020019e50505050505050505050505050505060405180910390f35b60006104696000610679565b905090565b600061048482600061069f90919063ffffffff16565b50919050565b6104a484848484600061110490949392919063ffffffff16565b50505050565b6104b2612a23565b60008060008060006104c4600061128a565b955095509550955095509550909192939495565b6104ee828260006114bc9092919063ffffffff16565b5050565b60008060000160009054906101000a900473ffffffffffffffffffffffffffffffffffffffff16908060010160009054906101000a900473ffffffffffffffffffffffffffffffffffffffff16908060020160009054906101000a900473ffffffffffffffffffffffffffffffffffffffff16908060030160009054906101000a900473ffffffffffffffffffffffffffffffffffffffff16908060040160009054906101000a900473ffffffffffffffffffffffffffffffffffffffff16908060050160009054906101000a900473ffffffffffffffffffffffffffffffffffffffff16908060050160149054906101000a900460ff169080600e01549080600f0154908060100160009054906101000a900473ffffffffffffffffffffffffffffffffffffffff16908060110160009054906101000a900473ffffffffffffffffffffffffffffffffffffffff16908060120154908060130154908060140160009054906101000a900473ffffffffffffffffffffffffffffffffffffffff1690508e565b60008160050160149054906101000a900460ff16600281111561069857fe5b9050919050565b60008060006106ac612a46565b6000806000600160028111156106be57fe5b8960050160149054906101000a900460ff1660028111156106db57fe5b1480156106fb57508860060160016008811015156106f557fe5b01544210155b151561070657600080fd5b61070f89611ba5565b955085156110f55761072089612076565b8860100160009054906101000a900473ffffffffffffffffffffffffffffffffffffffff1694508473ffffffffffffffffffffffffffffffffffffffff16638811a0ae306040518263ffffffff167c0100000000000000000000000000000000000000000000000000000000028152600401808273ffffffffffffffffffffffffffffffffffffffff1673ffffffffffffffffffffffffffffffffffffffff168152602001915050602060405180830381600087803b1580156107e257600080fd5b505af11580156107f6573d6000803e3d6000fd5b505050506040513d602081101561080c57600080fd5b810190808051906020019092919050505084600060068110151561082c57fe5b60200201818152505061085b888a600601600760088110151561084b57fe5b01546122fc90919063ffffffff16565b84600060068110151561086a57fe5b602002015111156108b3576108ae60016108a08a8c600601600760088110151561089057fe5b01546122fc90919063ffffffff16565b6122fc90919063ffffffff16565b6108c8565b8360006006811015156108c257fe5b60200201515b8460016006811015156108d757fe5b6020020181815250508360016006811015156108ef57fe5b602002015189600601600760088110151561090657fe5b01541015610a7557600184600160068110151561091f57fe5b60200201510391505b88600601600760088110151561093a57fe5b0154821115610a74578473ffffffffffffffffffffffffffffffffffffffff1663174dcea883306040518363ffffffff167c0100000000000000000000000000000000000000000000000000000000028152600401808381526020018273ffffffffffffffffffffffffffffffffffffffff1673ffffffffffffffffffffffffffffffffffffffff168152602001925050506040805180830381600087803b1580156109e557600080fd5b505af11580156109f9573d6000803e3d6000fd5b505050506040513d6040811015610a0f57600080fd5b810190808051906020019092919080519060200190929190505050856004600681101515610a3957fe5b60200201819550828152505050610a668984866004600681101515610a5a57fe5b6020020151600161231a565b818060019003925050610928565b5b8860110160009054906101000a900473ffffffffffffffffffffffffffffffffffffffff1694508473ffffffffffffffffffffffffffffffffffffffff16638811a0ae306040518263ffffffff167c0100000000000000000000000000000000000000000000000000000000028152600401808273ffffffffffffffffffffffffffffffffffffffff1673ffffffffffffffffffffffffffffffffffffffff168152602001915050602060405180830381600087803b158015610b3757600080fd5b505af1158015610b4b573d6000803e3d6000fd5b505050506040513d6020811015610b6157600080fd5b8101908080519060200190929190505050846002600681101515610b8157fe5b602002018181525050610bb0888a6006016007600881101515610ba057fe5b01546122fc90919063ffffffff16565b846002600681101515610bbf57fe5b60200201511115610c0857610c036001610bf58a8c6006016007600881101515610be557fe5b01546122fc90919063ffffffff16565b6122fc90919063ffffffff16565b610c1d565b836002600681101515610c1757fe5b60200201515b846003600681101515610c2c57fe5b602002018181525050836003600681101515610c4457fe5b6020020151896006016007600881101515610c5b57fe5b01541015610dca576001846003600681101515610c7457fe5b60200201510390505b886006016007600881101515610c8f57fe5b0154811115610dc9578473ffffffffffffffffffffffffffffffffffffffff1663174dcea882306040518363ffffffff167c0100000000000000000000000000000000000000000000000000000000028152600401808381526020018273ffffffffffffffffffffffffffffffffffffffff1673ffffffffffffffffffffffffffffffffffffffff168152602001925050506040805180830381600087803b158015610d3a57600080fd5b505af1158015610d4e573d6000803e3d6000fd5b505050506040513d6040811015610d6457600080fd5b810190808051906020019092919080519060200190929190505050856005600681101515610d8e57fe5b60200201819550828152505050610dbb8984866005600681101515610daf57fe5b6020020151600061231a565b808060019003915050610c7d565b5b836001600681101515610dd957fe5b6020020151846000600681101515610ded57fe5b6020020151148015610e245750836003600681101515610e0957fe5b6020020151846002600681101515610e1d57fe5b6020020151145b156110b7578860050160009054906101000a900473ffffffffffffffffffffffffffffffffffffffff1673ffffffffffffffffffffffffffffffffffffffff1663a9059cbb8a60010160009054906101000a900473ffffffffffffffffffffffffffffffffffffffff168b60050160009054906101000a900473ffffffffffffffffffffffffffffffffffffffff1673ffffffffffffffffffffffffffffffffffffffff166370a08231306040518263ffffffff167c0100000000000000000000000000000000000000000000000000000000028152600401808273ffffffffffffffffffffffffffffffffffffffff1673ffffffffffffffffffffffffffffffffffffffff168152602001915050602060405180830381600087803b158015610f4d57600080fd5b505af1158015610f61573d6000803e3d6000fd5b505050506040513d6020811015610f7757600080fd5b81019080805190602001909291905050506040518363ffffffff167c0100000000000000000000000000000000000000000000000000000000028152600401808373ffffffffffffffffffffffffffffffffffffffff1673ffffffffffffffffffffffffffffffffffffffff16815260200182815260200192505050602060405180830381600087803b15801561100d57600080fd5b505af1158015611021573d6000803e3d6000fd5b505050506040513d602081101561103757600080fd5b8101908080519060200190929190505050507fbc6c94b90850c7cd9f35740bb9b9cbce0e00c88e8ddeaace095f1d45bfd7401089600e01548a600f0154604051808381526020018281526020019250505060405180910390a160028960050160146101000a81548160ff021916908360028111156110b157fe5b02179055505b6110dd888a60060160076008811015156110cd57fe5b01546122fc90919063ffffffff16565b8960060160076008811015156110ef57fe5b01819055505b85965050505050505092915050565b600073ffffffffffffffffffffffffffffffffffffffff168560030160009054906101000a900473ffffffffffffffffffffffffffffffffffffffff1673ffffffffffffffffffffffffffffffffffffffff1614151561116357600080fd5b828560030160006101000a81548173ffffffffffffffffffffffffffffffffffffffff021916908373ffffffffffffffffffffffffffffffffffffffff160217905550838560010160006101000a81548173ffffffffffffffffffffffffffffffffffffffff021916908373ffffffffffffffffffffffffffffffffffffffff160217905550818560140160006101000a81548173ffffffffffffffffffffffffffffffffffffffff021916908373ffffffffffffffffffffffffffffffffffffffff1602179055508085600601600060088110151561123f57fe5b018190555060008560050160146101000a81548160ff0219169083600281111561126557fe5b0217905550600085600601600760088110151561127e57fe5b01819055505050505050565b611292612a23565b600080600080600060a0604051908101604052808860140160009054906101000a900473ffffffffffffffffffffffffffffffffffffffff1673ffffffffffffffffffffffffffffffffffffffff1673ffffffffffffffffffffffffffffffffffffffff1681526020018860100160009054906101000a900473ffffffffffffffffffffffffffffffffffffffff1673ffffffffffffffffffffffffffffffffffffffff1673ffffffffffffffffffffffffffffffffffffffff1681526020018860110160009054906101000a900473ffffffffffffffffffffffffffffffffffffffff1673ffffffffffffffffffffffffffffffffffffffff1673ffffffffffffffffffffffffffffffffffffffff1681526020018860000160009054906101000a900473ffffffffffffffffffffffffffffffffffffffff1673ffffffffffffffffffffffffffffffffffffffff1673ffffffffffffffffffffffffffffffffffffffff1681526020018860040160009054906101000a900473ffffffffffffffffffffffffffffffffffffffff1673ffffffffffffffffffffffffffffffffffffffff1673ffffffffffffffffffffffffffffffffffffffff16815250876012015488600601600260088110151561146957fe5b015489600601600360088110151561147d57fe5b01548a600601600060088110151561149157fe5b01548b60060160016008811015156114a557fe5b015495509550955095509550955091939550919395565b60008060028111156114ca57fe5b8460050160149054906101000a900460ff1660028111156114e757fe5b14801561154357508360030160009054906101000a900473ffffffffffffffffffffffffffffffffffffffff1673ffffffffffffffffffffffffffffffffffffffff163373ffffffffffffffffffffffffffffffffffffffff16145b801561154f5750600083115b8061161057508360140160009054906101000a900473ffffffffffffffffffffffffffffffffffffffff1673ffffffffffffffffffffffffffffffffffffffff163373ffffffffffffffffffffffffffffffffffffffff1614801561160357508360030160009054906101000a900473ffffffffffffffffffffffffffffffffffffffff1673ffffffffffffffffffffffffffffffffffffffff168273ffffffffffffffffffffffffffffffffffffffff16145b801561160f5750600083115b5b151561161b57600080fd5b8360010160009054906101000a900473ffffffffffffffffffffffffffffffffffffffff168460020160006101000a81548173ffffffffffffffffffffffffffffffffffffffff021916908373ffffffffffffffffffffffffffffffffffffffff16021790555061168b846127d8565b6116d96116b7620151808660060160036008811015156116a757fe5b01546129a390919063ffffffff16565b8560060160006008811015156116c957fe5b01546122fc90919063ffffffff16565b8460060160016008811015156116eb57fe5b01819055506224ea0084600601600060088110151561170657fe5b015485600601600160088110151561171a57fe5b01540310151561172657fe5b8284601301819055508360040160009054906101000a900473ffffffffffffffffffffffffffffffffffffffff168460050160006101000a81548173ffffffffffffffffffffffffffffffffffffffff021916908373ffffffffffffffffffffffffffffffffffffffff1602179055506117a18360026129a3565b8460050160009054906101000a900473ffffffffffffffffffffffffffffffffffffffff1673ffffffffffffffffffffffffffffffffffffffff166370a08231306040518263ffffffff167c0100000000000000000000000000000000000000000000000000000000028152600401808273ffffffffffffffffffffffffffffffffffffffff1673ffffffffffffffffffffffffffffffffffffffff168152602001915050602060405180830381600087803b15801561186057600080fd5b505af1158015611874573d6000803e3d6000fd5b505050506040513d602081101561188a57600080fd5b81019080805190602001909291905050501415156118a457fe5b600190508360020160009054906101000a900473ffffffffffffffffffffffffffffffffffffffff1673ffffffffffffffffffffffffffffffffffffffff16632a7292d085601301548660030160009054906101000a900473ffffffffffffffffffffffffffffffffffffffff1687600601600060088110151561192457fe5b01546040518463ffffffff167c0100000000000000000000000000000000000000000000000000000000028152600401808481526020018373ffffffffffffffffffffffffffffffffffffffff1673ffffffffffffffffffffffffffffffffffffffff1681526020018281526020019350505050606060405180830381600087803b1580156119b257600080fd5b505af11580156119c6573d6000803e3d6000fd5b505050506040513d60608110156119dc57600080fd5b810190808051906020019092919080519060200190929190805190602001909291905050508660100160008860110160008497508591906101000a81548173ffffffffffffffffffffffffffffffffffffffff021916908373ffffffffffffffffffffffffffffffffffffffff1602179055508491906101000a81548173ffffffffffffffffffffffffffffffffffffffff021916908373ffffffffffffffffffffffffffffffffffffffff160217905550505050611aa88185601301546129d690919063ffffffff16565b84601201819055507f4bd82ea3087db5766e0b0ac766426889c709d48bfa239b6e5de07f5f57f561df8460040160009054906101000a900473ffffffffffffffffffffffffffffffffffffffff16856006016000600881101515611b0857fe5b0154866006016001600881101515611b1c57fe5b01548760130154604051808573ffffffffffffffffffffffffffffffffffffffff1673ffffffffffffffffffffffffffffffffffffffff16815260200184815260200183815260200182815260200194505050505060405180910390a160018460050160146101000a81548160ff02191690836002811115611b9a57fe5b021790555050505050565b6000806000808460000160009054906101000a900473ffffffffffffffffffffffffffffffffffffffff1692506201518042811515611be057fe5b064203915060009050846006016000600881101515611bfb57fe5b015482101515611e04575b62015180856006016000600881101515611c1c57fe5b01548303811515611c2957fe5b048111158015611c4c57506000856006016004600881101515611c4857fe5b0154145b15611e03578273ffffffffffffffffffffffffffffffffffffffff1663aeb2ffc1620151808302876006016000600881101515611c8557fe5b0154016040518263ffffffff167c010000000000000000000000000000000000000000000000000000000002815260040180828152602001915050602060405180830381600087803b158015611cda57600080fd5b505af1158015611cee573d6000803e3d6000fd5b505050506040513d6020811015611d0457600080fd5b810190808051906020019092919050505015611df6578273ffffffffffffffffffffffffffffffffffffffff16635bee29b7620151808302876006016000600881101515611d4e57fe5b0154016040518263ffffffff167c010000000000000000000000000000000000000000000000000000000002815260040180828152602001915050602060405180830381600087803b158015611da357600080fd5b505af1158015611db7573d6000803e3d6000fd5b505050506040513d6020811015611dcd57600080fd5b8101908080519060200190929190505050856006016004600881101515611df057fe5b01819055505b8080600101915050611c06565b5b60009050846006016001600881101515611e1a57fe5b015482101515612023575b62015180856006016001600881101515611e3b57fe5b01548303811515611e4857fe5b048111158015611e6b57506000856006016005600881101515611e6757fe5b0154145b15612022578273ffffffffffffffffffffffffffffffffffffffff1663aeb2ffc1620151808302876006016001600881101515611ea457fe5b0154016040518263ffffffff167c010000000000000000000000000000000000000000000000000000000002815260040180828152602001915050602060405180830381600087803b158015611ef957600080fd5b505af1158015611f0d573d6000803e3d6000fd5b505050506040513d6020811015611f2357600080fd5b810190808051906020019092919050505015612015578273ffffffffffffffffffffffffffffffffffffffff16635bee29b7620151808302876006016001600881101515611f6d57fe5b0154016040518263ffffffff167c010000000000000000000000000000000000000000000000000000000002815260040180828152602001915050602060405180830381600087803b158015611fc257600080fd5b505af1158015611fd6573d6000803e3d6000fd5b505050506040513d6020811015611fec57600080fd5b810190808051906020019092919050505085600601600560088110151561200f57fe5b01819055505b8080600101915050611e25565b5b600085600601600460088110151561203757fe5b01541415801561205b5750600085600601600560088110151561205657fe5b015414155b15612069576001935061206e565b600093505b505050919050565b60006120ba6127106120ac84600601600660088110151561209357fe5b01546127100385601301546129a390919063ffffffff16565b6129d690919063ffffffff16565b826013018190555060008260060160046008811015156120d657fe5b01541180156120f8575060008260060160056008811015156120f457fe5b0154115b1561214e5761214b82600601600460088110151561211257fe5b015461213d620186a085600601600560088110151561212d57fe5b01546129a390919063ffffffff16565b6129d690919063ffffffff16565b90505b620186a08111156121a057612199620186a061218b620186a0840385600601600260088110151561217b57fe5b01546129a390919063ffffffff16565b6122fc90919063ffffffff16565b9050612249565b620186a08110156121f1576121e2620186a06121dd83620186a0038560060160026008811015156121cd57fe5b01546129a390919063ffffffff16565b6129f1565b905080620186a0039050612248565b600082600601600560088110151561220557fe5b0154111561221a5764174876e8009050612247565b600082600601600460088110151561222e57fe5b0154111561223f5760009050612246565b620186a090505b5b5b5b61225662030d40826129f1565b905061229a620186a061228c846012015461227e8660130154866129a390919063ffffffff16565b6129d690919063ffffffff16565b6129d690919063ffffffff16565b82600e01819055506122f0620186a06122e284601201546122d486601301546122c662030d4088612a0a565b6129a390919063ffffffff16565b6129d690919063ffffffff16565b6129d690919063ffffffff16565b82600f01819055505050565b600080828401905083811015151561231057fe5b8091505092915050565b801561257b57600084600e01541115612576578360050160009054906101000a900473ffffffffffffffffffffffffffffffffffffffff1673ffffffffffffffffffffffffffffffffffffffff1663a9059cbb8461238587600e0154866129a390919063ffffffff16565b6040518363ffffffff167c0100000000000000000000000000000000000000000000000000000000028152600401808373ffffffffffffffffffffffffffffffffffffffff1673ffffffffffffffffffffffffffffffffffffffff16815260200182815260200192505050602060405180830381600087803b15801561240a57600080fd5b505af115801561241e573d6000803e3d6000fd5b505050506040513d602081101561243457600080fd5b8101908080519060200190929190505050508360020160009054906101000a900473ffffffffffffffffffffffffffffffffffffffff1673ffffffffffffffffffffffffffffffffffffffff1663ecb14519848660100160009054906101000a900473ffffffffffffffffffffffffffffffffffffffff166040518363ffffffff167c0100000000000000000000000000000000000000000000000000000000028152600401808373ffffffffffffffffffffffffffffffffffffffff1673ffffffffffffffffffffffffffffffffffffffff1681526020018273ffffffffffffffffffffffffffffffffffffffff1673ffffffffffffffffffffffffffffffffffffffff16815260200192505050600060405180830381600087803b15801561255d57600080fd5b505af1158015612571573d6000803e3d6000fd5b505050505b6127d2565b600084600f015411156127d1578360050160009054906101000a900473ffffffffffffffffffffffffffffffffffffffff1673ffffffffffffffffffffffffffffffffffffffff1663a9059cbb846125e087600f0154866129a390919063ffffffff16565b6040518363ffffffff167c0100000000000000000000000000000000000000000000000000000000028152600401808373ffffffffffffffffffffffffffffffffffffffff1673ffffffffffffffffffffffffffffffffffffffff16815260200182815260200192505050602060405180830381600087803b15801561266557600080fd5b505af1158015612679573d6000803e3d6000fd5b505050506040513d602081101561268f57600080fd5b8101908080519060200190929190505050508360020160009054906101000a900473ffffffffffffffffffffffffffffffffffffffff1673ffffffffffffffffffffffffffffffffffffffff1663ecb14519848660110160009054906101000a900473ffffffffffffffffffffffffffffffffffffffff166040518363ffffffff167c0100000000000000000000000000000000000000000000000000000000028152600401808373ffffffffffffffffffffffffffffffffffffffff1673ffffffffffffffffffffffffffffffffffffffff1681526020018273ffffffffffffffffffffffffffffffffffffffff1673ffffffffffffffffffffffffffffffffffffffff16815260200192505050600060405180830381600087803b1580156127b857600080fd5b505af11580156127cc573d6000803e3d6000fd5b505050505b5b50505050565b8060020160009054906101000a900473ffffffffffffffffffffffffffffffffffffffff1673ffffffffffffffffffffffffffffffffffffffff166394aef0226040518163ffffffff167c010000000000000000000000000000000000000000000000000000000002815260040160a060405180830381600087803b15801561286057600080fd5b505af1158015612874573d6000803e3d6000fd5b505050506040513d60a081101561288a57600080fd5b8101908080519060200190929190805190602001909291908051906020019092919080519060200190929190805190602001909291905050508560000160008760060160036008811015156128db57fe5b0160008960060160026008811015156128f057fe5b0160008b60040160008d600601600660088110151561290b57fe5b0160008a919050558991906101000a81548173ffffffffffffffffffffffffffffffffffffffff021916908373ffffffffffffffffffffffffffffffffffffffff160217905550889190505587919050558691906101000a81548173ffffffffffffffffffffffffffffffffffffffff021916908373ffffffffffffffffffffffffffffffffffffffff160217905550505050505050565b600080828402905060008414806129c457508284828115156129c157fe5b04145b15156129cc57fe5b8091505092915050565b60008082848115156129e457fe5b0490508091505092915050565b6000818310612a005781612a02565b825b905092915050565b6000828211151515612a1857fe5b818303905092915050565b60a060405190810160405280600590602082028038833980820191505090505090565b60c0604051908101604052806006906020820280388339808201915050905050905600a165627a7a7230582005a0ddcb053fd77178265fc1c4aa11a58046f8234cde5c86770f5ab31c2719ce0029",
  "source": "pragma solidity ^0.4.24;\r\n\r\nimport \"./libraries/TokenLibrary.sol\";\r\n\r\n/**\r\n*This contract is the specific DRCT base contract that holds the funds of the contract and\r\n*redistributes them based upon the change in the underlying values\r\n*/\r\n\r\ncontract TokenToTokenSwap {\r\n\r\n    using TokenLibrary for TokenLibrary.SwapStorage;\r\n\r\n    /*Variables*/\r\n    TokenLibrary.SwapStorage public swap;\r\n\r\n\r\n    /*Functions*/\r\n    /**\r\n    *@dev Constructor - Run by the factory at contract creation\r\n    *@param _factory_address address of the factory that created this contract\r\n    *@param _creator address of the person who created the contract\r\n    *@param _userContract address of the _userContract that is authorized to interact with this contract\r\n    *@param _start_date start date of the contract\r\n    */\r\n    constructor (address _factory_address, address _creator, address _userContract, uint _start_date) public {\r\n        swap.startSwap(_factory_address,_creator,_userContract,_start_date);\r\n    }\r\n    \r\n    /**\r\n    *@dev Acts as a constructor when cloning the swap\r\n    *@param _factory_address address of the factory that created this contract\r\n    *@param _creator address of the person who created the contract\r\n    *@param _userContract address of the _userContract that is authorized to interact with this contract\r\n    *@param _start_date start date of the contract\r\n    */\r\n    function init (address _factory_address, address _creator, address _userContract, uint _start_date) public {\r\n        swap.startSwap(_factory_address,_creator,_userContract,_start_date);\r\n    }\r\n\r\n    /**\r\n    *@dev A getter function for retriving standardized variables from the factory contract\r\n    *@return \r\n    *[userContract, Long Token addresss, short token address, oracle address, base token address], number DRCT tokens, , multiplier, duration, Start date, end_date\r\n    */\r\n    function showPrivateVars() public view returns (address[5],uint, uint, uint, uint, uint){\r\n        return swap.showPrivateVars();\r\n    }\r\n\r\n    /**\r\n    *@dev A getter function for retriving current swap state from the factory contract\r\n    *@return current state (References swapState Enum: 1=created, 2=started, 3=ended)\r\n    */\r\n    function currentState() public view returns(uint){\r\n        return swap.showCurrentState();\r\n    }\r\n\r\n    /**\r\n    *@dev Allows the sender to create the terms for the swap\r\n    *@param _amount Amount of Token that should be deposited for the notional\r\n    *@param _senderAdd States the owner of this side of the contract (does not have to be msg.sender)\r\n    */\r\n    function createSwap(uint _amount, address _senderAdd) public {\r\n        swap.createSwap(_amount,_senderAdd);\r\n    }\r\n\r\n    /**\r\n    *@dev This function can be called after the swap is tokenized or after the Calculate function is called.\r\n    *If the Calculate function has not yet been called, this function will call it.\r\n    *The function then pays every token holder of both the long and short DRCT tokens\r\n    *@param _topay number of contracts to try and pay (run it again if its not enough)\r\n    *@return true if the oracle was called and all contracts were paid out or false once ?\r\n    */\r\n    function forcePay(uint _topay) public returns (bool) {\r\n       swap.forcePay(_topay);\r\n    }\r\n\r\n\r\n}",
  "sourcePath": "C:\\company\\code\\drct_standard\\contracts\\TokenToTokenSwap.sol",
  "compiler": {
    "name": "solc",
    "version": "0.4.24+commit.e67f0147.Emscripten.clang"
  },
  "schemaVersion": "2.0.1",
  "updatedAt": "2018-09-03T02:20:33.463Z"
}