{
  "contractName": "TokenToTokenSwap",
  "abi": [
    {
      "constant": true,
      "inputs": [],
      "name": "swap",
      "outputs": [
        {
          "name": "oracle_address",
          "type": "address"
        },
        {
          "name": "factory_address",
          "type": "address"
        },
        {
          "name": "factory",
          "type": "address"
        },
        {
          "name": "creator",
          "type": "address"
        },
        {
          "name": "token_address",
          "type": "address"
        },
        {
          "name": "token",
          "type": "address"
        },
        {
          "name": "current_state",
          "type": "uint8"
        },
        {
          "name": "pay_to_long",
          "type": "uint256"
        },
        {
          "name": "pay_to_short",
          "type": "uint256"
        },
        {
          "name": "long_token_address",
          "type": "address"
        },
        {
          "name": "short_token_address",
          "type": "address"
        },
        {
          "name": "num_DRCT_tokens",
          "type": "uint256"
        },
        {
          "name": "token_amount",
          "type": "uint256"
        },
        {
          "name": "userContract",
          "type": "address"
        }
      ],
      "payable": false,
      "stateMutability": "view",
      "type": "function"
    },
    {
      "inputs": [
        {
          "name": "_factory_address",
          "type": "address"
        },
        {
          "name": "_creator",
          "type": "address"
        },
        {
          "name": "_userContract",
          "type": "address"
        },
        {
          "name": "_start_date",
          "type": "uint256"
        }
      ],
      "payable": false,
      "stateMutability": "nonpayable",
      "type": "constructor"
    },
    {
      "constant": true,
      "inputs": [],
      "name": "showPrivateVars",
      "outputs": [
        {
          "name": "",
          "type": "address[5]"
        },
        {
          "name": "",
          "type": "uint256"
        },
        {
          "name": "",
          "type": "uint256"
        },
        {
          "name": "",
          "type": "uint256"
        },
        {
          "name": "",
          "type": "uint256"
        },
        {
          "name": "",
          "type": "uint256"
        }
      ],
      "payable": false,
      "stateMutability": "view",
      "type": "function"
    },
    {
      "constant": true,
      "inputs": [],
      "name": "currentState",
      "outputs": [
        {
          "name": "",
          "type": "uint256"
        }
      ],
      "payable": false,
      "stateMutability": "view",
      "type": "function"
    },
    {
      "constant": false,
      "inputs": [
        {
          "name": "_amount",
          "type": "uint256"
        },
        {
          "name": "_senderAdd",
          "type": "address"
        }
      ],
      "name": "createSwap",
      "outputs": [],
      "payable": false,
      "stateMutability": "nonpayable",
      "type": "function"
    },
    {
      "constant": false,
      "inputs": [
        {
          "name": "_begin",
          "type": "uint256"
        },
        {
          "name": "_end",
          "type": "uint256"
        }
      ],
      "name": "forcePay",
      "outputs": [
        {
          "name": "",
          "type": "bool"
        }
      ],
      "payable": false,
      "stateMutability": "nonpayable",
      "type": "function"
    }
  ],
  "bytecode": "0x606060405234156200001057600080fd5b6040516080806200264a83398101604052808051906020019091908051906020019091908051906020019091908051906020019091905050620000728484848460006200007c6401000000000262002374179094939291906401000000009004565b505050506200018c565b828560030160006101000a81548173ffffffffffffffffffffffffffffffffffffffff021916908373ffffffffffffffffffffffffffffffffffffffff160217905550838560010160006101000a81548173ffffffffffffffffffffffffffffffffffffffff021916908373ffffffffffffffffffffffffffffffffffffffff160217905550818560120160006101000a81548173ffffffffffffffffffffffffffffffffffffffff021916908373ffffffffffffffffffffffffffffffffffffffff160217905550808560060160006006811015156200015957fe5b018190555060008560050160146101000a81548160ff021916908360028111156200018057fe5b02179055505050505050565b6124ae806200019c6000396000f30060606040526004361061006d576000357c0100000000000000000000000000000000000000000000000000000000900463ffffffff1680630c3f6acf1461007257806370f9c0211461009b57806379eba0b6146100df5780637a3d4b1a146101535780638119c06514610195575b600080fd5b341561007d57600080fd5b6100856103b3565b6040518082815260200191505060405180910390f35b34156100a657600080fd5b6100c560048080359060200190919080359060200190919050506103c4565b604051808215151515815260200191505060405180910390f35b34156100ea57600080fd5b6100f26103f5565b6040518087600560200280838360005b8381101561011d578082015181840152602081019050610102565b50505050905001868152602001858152602001848152602001838152602001828152602001965050505050505060405180910390f35b341561015e57600080fd5b610193600480803590602001909190803573ffffffffffffffffffffffffffffffffffffffff16906020019091905050610423565b005b34156101a057600080fd5b6101a861043d565b604051808f73ffffffffffffffffffffffffffffffffffffffff1673ffffffffffffffffffffffffffffffffffffffff1681526020018e73ffffffffffffffffffffffffffffffffffffffff1673ffffffffffffffffffffffffffffffffffffffff1681526020018d73ffffffffffffffffffffffffffffffffffffffff1673ffffffffffffffffffffffffffffffffffffffff1681526020018c73ffffffffffffffffffffffffffffffffffffffff1673ffffffffffffffffffffffffffffffffffffffff1681526020018b73ffffffffffffffffffffffffffffffffffffffff1673ffffffffffffffffffffffffffffffffffffffff1681526020018a73ffffffffffffffffffffffffffffffffffffffff1673ffffffffffffffffffffffffffffffffffffffff1681526020018960028111156102e457fe5b60ff1681526020018881526020018781526020018673ffffffffffffffffffffffffffffffffffffffff1673ffffffffffffffffffffffffffffffffffffffff1681526020018573ffffffffffffffffffffffffffffffffffffffff1673ffffffffffffffffffffffffffffffffffffffff1681526020018481526020018381526020018273ffffffffffffffffffffffffffffffffffffffff1673ffffffffffffffffffffffffffffffffffffffff1681526020019e50505050505050505050505050505060405180910390f35b60006103bf60006105c4565b905090565b60006103ee60408051908101604052808581526020018481525060006105ea90919063ffffffff16565b5092915050565b6103fd612336565b600080600080600061040f6000610cf4565b955095509550955095509550909192939495565b61043982826000610f269092919063ffffffff16565b5050565b60008060000160009054906101000a900473ffffffffffffffffffffffffffffffffffffffff16908060010160009054906101000a900473ffffffffffffffffffffffffffffffffffffffff16908060020160009054906101000a900473ffffffffffffffffffffffffffffffffffffffff16908060030160009054906101000a900473ffffffffffffffffffffffffffffffffffffffff16908060040160009054906101000a900473ffffffffffffffffffffffffffffffffffffffff16908060050160009054906101000a900473ffffffffffffffffffffffffffffffffffffffff16908060050160149054906101000a900460ff169080600c01549080600d01549080600e0160009054906101000a900473ffffffffffffffffffffffffffffffffffffffff169080600f0160009054906101000a900473ffffffffffffffffffffffffffffffffffffffff16908060100154908060110154908060120160009054906101000a900473ffffffffffffffffffffffffffffffffffffffff1690508e565b60008160050160149054906101000a900460ff1660028111156105e357fe5b9050919050565b60008060008060008060008060008060006001600281111561060857fe5b8d60050160149054906101000a900460ff16600281111561062557fe5b14801561064557508c600601600160068110151561063f57fe5b01544210155b151561065057600080fd5b6106598d611730565b99508915610ce15761066a8d611c65565b8c600e0160009054906101000a900473ffffffffffffffffffffffffffffffffffffffff1698508873ffffffffffffffffffffffffffffffffffffffff16638811a0ae306040518263ffffffff167c0100000000000000000000000000000000000000000000000000000000028152600401808273ffffffffffffffffffffffffffffffffffffffff1673ffffffffffffffffffffffffffffffffffffffff168152602001915050602060405180830381600087803b151561072b57600080fd5b5af1151561073857600080fd5b5050506040518051905097508b600160028110151561075357fe5b60200201518810610777578b600160028110151561076d57fe5b6020020151610779565b875b96506001870395505b8b600060028110151561079157fe5b60200201518610151561087f578873ffffffffffffffffffffffffffffffffffffffff1663174dcea887306040518363ffffffff167c0100000000000000000000000000000000000000000000000000000000028152600401808381526020018273ffffffffffffffffffffffffffffffffffffffff1673ffffffffffffffffffffffffffffffffffffffff168152602001925050506040805180830381600087803b151561083f57600080fd5b5af1151561084c57600080fd5b5050506040518051906020018051905080965081955050506108718d86866001611e36565b858060019003965050610782565b8c600f0160009054906101000a900473ffffffffffffffffffffffffffffffffffffffff1698508873ffffffffffffffffffffffffffffffffffffffff16638811a0ae306040518263ffffffff167c0100000000000000000000000000000000000000000000000000000000028152600401808273ffffffffffffffffffffffffffffffffffffffff1673ffffffffffffffffffffffffffffffffffffffff168152602001915050602060405180830381600087803b151561094057600080fd5b5af1151561094d57600080fd5b5050506040518051905097508b600160028110151561096857fe5b6020020151881061098c578b600160028110151561098257fe5b602002015161098e565b875b96506001870392505b8b60006002811015156109a657fe5b602002015183101515610a94578873ffffffffffffffffffffffffffffffffffffffff1663174dcea884306040518363ffffffff167c0100000000000000000000000000000000000000000000000000000000028152600401808381526020018273ffffffffffffffffffffffffffffffffffffffff1673ffffffffffffffffffffffffffffffffffffffff168152602001925050506040805180830381600087803b1515610a5457600080fd5b5af11515610a6157600080fd5b505050604051805190602001805190508093508192505050610a868d83836000611e36565b828060019003935050610997565b87871415610ce0578c60050160009054906101000a900473ffffffffffffffffffffffffffffffffffffffff1673ffffffffffffffffffffffffffffffffffffffff1663a9059cbb8e60010160009054906101000a900473ffffffffffffffffffffffffffffffffffffffff168f60050160009054906101000a900473ffffffffffffffffffffffffffffffffffffffff1673ffffffffffffffffffffffffffffffffffffffff166370a08231306040518263ffffffff167c0100000000000000000000000000000000000000000000000000000000028152600401808273ffffffffffffffffffffffffffffffffffffffff1673ffffffffffffffffffffffffffffffffffffffff168152602001915050602060405180830381600087803b1515610bbf57600080fd5b5af11515610bcc57600080fd5b505050604051805190506040518363ffffffff167c0100000000000000000000000000000000000000000000000000000000028152600401808373ffffffffffffffffffffffffffffffffffffffff1673ffffffffffffffffffffffffffffffffffffffff16815260200182815260200192505050602060405180830381600087803b1515610c5a57600080fd5b5af11515610c6757600080fd5b50505060405180519050507fbc6c94b90850c7cd9f35740bb9b9cbce0e00c88e8ddeaace095f1d45bfd740108d600c01548e600d0154604051808381526020018281526020019250505060405180910390a160028d60050160146101000a81548160ff02191690836002811115610cda57fe5b02179055505b5b899a505050505050505050505092915050565b610cfc612336565b600080600080600060a0604051908101604052808860120160009054906101000a900473ffffffffffffffffffffffffffffffffffffffff1673ffffffffffffffffffffffffffffffffffffffff1673ffffffffffffffffffffffffffffffffffffffff16815260200188600e0160009054906101000a900473ffffffffffffffffffffffffffffffffffffffff1673ffffffffffffffffffffffffffffffffffffffff1673ffffffffffffffffffffffffffffffffffffffff16815260200188600f0160009054906101000a900473ffffffffffffffffffffffffffffffffffffffff1673ffffffffffffffffffffffffffffffffffffffff1673ffffffffffffffffffffffffffffffffffffffff1681526020018860000160009054906101000a900473ffffffffffffffffffffffffffffffffffffffff1673ffffffffffffffffffffffffffffffffffffffff1673ffffffffffffffffffffffffffffffffffffffff1681526020018860040160009054906101000a900473ffffffffffffffffffffffffffffffffffffffff1673ffffffffffffffffffffffffffffffffffffffff1673ffffffffffffffffffffffffffffffffffffffff168152508760100154886006016002600681101515610ed357fe5b0154896006016003600681101515610ee757fe5b01548a6006016000600681101515610efb57fe5b01548b6006016001600681101515610f0f57fe5b015495509550955095509550955091939550919395565b6000806002811115610f3457fe5b8460050160149054906101000a900460ff166002811115610f5157fe5b148015610fad57508360030160009054906101000a900473ffffffffffffffffffffffffffffffffffffffff1673ffffffffffffffffffffffffffffffffffffffff163373ffffffffffffffffffffffffffffffffffffffff16145b8015610fb95750600083115b8061107a57508360120160009054906101000a900473ffffffffffffffffffffffffffffffffffffffff1673ffffffffffffffffffffffffffffffffffffffff163373ffffffffffffffffffffffffffffffffffffffff1614801561106d57508360030160009054906101000a900473ffffffffffffffffffffffffffffffffffffffff1673ffffffffffffffffffffffffffffffffffffffff168273ffffffffffffffffffffffffffffffffffffffff16145b80156110795750600083115b5b151561108557600080fd5b8360010160009054906101000a900473ffffffffffffffffffffffffffffffffffffffff168460020160006101000a81548173ffffffffffffffffffffffffffffffffffffffff021916908373ffffffffffffffffffffffffffffffffffffffff1602179055508360020160009054906101000a900473ffffffffffffffffffffffffffffffffffffffff1673ffffffffffffffffffffffffffffffffffffffff166394aef0226040518163ffffffff167c0100000000000000000000000000000000000000000000000000000000028152600401608060405180830381600087803b151561117357600080fd5b5af1151561118057600080fd5b505050604051805190602001805190602001805190602001805190508760000160008960060160036006811015156111b457fe5b0160008b60060160026006811015156111c957fe5b0160008d60040160008891906101000a81548173ffffffffffffffffffffffffffffffffffffffff021916908373ffffffffffffffffffffffffffffffffffffffff160217905550879190505586919050558591906101000a81548173ffffffffffffffffffffffffffffffffffffffff021916908373ffffffffffffffffffffffffffffffffffffffff160217905550505050506112ac61128a6201518086600601600360068110151561127a57fe5b015461229890919063ffffffff16565b85600601600060068110151561129c57fe5b01546122cb90919063ffffffff16565b8460060160016006811015156112be57fe5b01819055506224ea008460060160006006811015156112d957fe5b01548560060160016006811015156112ed57fe5b0154031015156112f957fe5b8284601101819055508360040160009054906101000a900473ffffffffffffffffffffffffffffffffffffffff168460050160006101000a81548173ffffffffffffffffffffffffffffffffffffffff021916908373ffffffffffffffffffffffffffffffffffffffff160217905550611374836002612298565b8460050160009054906101000a900473ffffffffffffffffffffffffffffffffffffffff1673ffffffffffffffffffffffffffffffffffffffff166370a08231306040518263ffffffff167c0100000000000000000000000000000000000000000000000000000000028152600401808273ffffffffffffffffffffffffffffffffffffffff1673ffffffffffffffffffffffffffffffffffffffff168152602001915050602060405180830381600087803b151561143257600080fd5b5af1151561143f57600080fd5b5050506040518051905014151561145257fe5b600190508360020160009054906101000a900473ffffffffffffffffffffffffffffffffffffffff1673ffffffffffffffffffffffffffffffffffffffff16632a7292d085601101548660030160009054906101000a900473ffffffffffffffffffffffffffffffffffffffff168760060160006006811015156114d257fe5b01546040518463ffffffff167c0100000000000000000000000000000000000000000000000000000000028152600401808481526020018373ffffffffffffffffffffffffffffffffffffffff1673ffffffffffffffffffffffffffffffffffffffff1681526020018281526020019350505050606060405180830381600087803b151561155f57600080fd5b5af1151561156c57600080fd5b5050506040518051906020018051906020018051905086600e01600088600f0160008497508591906101000a81548173ffffffffffffffffffffffffffffffffffffffff021916908373ffffffffffffffffffffffffffffffffffffffff1602179055508491906101000a81548173ffffffffffffffffffffffffffffffffffffffff021916908373ffffffffffffffffffffffffffffffffffffffff1602179055505050506116298185601101546122e990919063ffffffff16565b846010018190555061163a84611730565b507f4bd82ea3087db5766e0b0ac766426889c709d48bfa239b6e5de07f5f57f561df8460040160009054906101000a900473ffffffffffffffffffffffffffffffffffffffff1685600601600060068110151561169357fe5b01548660060160016006811015156116a757fe5b01548760110154604051808573ffffffffffffffffffffffffffffffffffffffff1673ffffffffffffffffffffffffffffffffffffffff16815260200184815260200183815260200182815260200194505050505060405180910390a160018460050160146101000a81548160ff0219169083600281111561172557fe5b021790555050505050565b6000806000808460000160009054906101000a900473ffffffffffffffffffffffffffffffffffffffff169250620151804281151561176b57fe5b064203915084600601600060068110151561178257fe5b015482101580156117a6575060008560060160046006811015156117a257fe5b0154145b156119e457600090505b620151808560060160006006811015156117c657fe5b015483038115156117d357fe5b0481101561194b578273ffffffffffffffffffffffffffffffffffffffff1663aeb2ffc162015180830287600601600060068110151561180f57fe5b0154016040518263ffffffff167c010000000000000000000000000000000000000000000000000000000002815260040180828152602001915050602060405180830381600087803b151561186357600080fd5b5af1151561187057600080fd5b505050604051805190501561193e578273ffffffffffffffffffffffffffffffffffffffff16635bee29b76201518083028760060160006006811015156118b357fe5b0154016040518263ffffffff167c010000000000000000000000000000000000000000000000000000000002815260040180828152602001915050602060405180830381600087803b151561190757600080fd5b5af1151561191457600080fd5b5050506040518051905085600601600460068110151561193057fe5b018190555060019350611c5d565b80806001019150506117b0565b600085600601600460068110151561195f57fe5b015414156119e3578273ffffffffffffffffffffffffffffffffffffffff1663c692c0496040518163ffffffff167c0100000000000000000000000000000000000000000000000000000000028152600401600060405180830381600087803b15156119ca57600080fd5b5af115156119d757600080fd5b50505060009350611c5d565b5b8460060160016006811015156119f657fe5b01548210158015611a1a57506000856006016005600681101515611a1657fe5b0154145b15611c5857600090505b62015180856006016001600681101515611a3a57fe5b01548303811515611a4757fe5b04811015611bbf578273ffffffffffffffffffffffffffffffffffffffff1663aeb2ffc1620151808302876006016001600681101515611a8357fe5b0154016040518263ffffffff167c010000000000000000000000000000000000000000000000000000000002815260040180828152602001915050602060405180830381600087803b1515611ad757600080fd5b5af11515611ae457600080fd5b5050506040518051905015611bb2578273ffffffffffffffffffffffffffffffffffffffff16635bee29b7620151808302876006016001600681101515611b2757fe5b0154016040518263ffffffff167c010000000000000000000000000000000000000000000000000000000002815260040180828152602001915050602060405180830381600087803b1515611b7b57600080fd5b5af11515611b8857600080fd5b50505060405180519050856006016005600681101515611ba457fe5b018190555060019350611c5d565b8080600101915050611a24565b6000856006016005600681101515611bd357fe5b01541415611c57578273ffffffffffffffffffffffffffffffffffffffff1663c692c0496040518163ffffffff167c0100000000000000000000000000000000000000000000000000000000028152600401600060405180830381600087803b1515611c3e57600080fd5b5af11515611c4b57600080fd5b50505060009350611c5d565b5b600193505b505050919050565b6000611c946103e8611c866103e3856011015461229890919063ffffffff16565b6122e990919063ffffffff16565b82601101819055506000826006016004600681101515611cb057fe5b0154118015611cd257506000826006016005600681101515611cce57fe5b0154115b15611d2c57611d25826006016004600681101515611cec57fe5b0154611d17620186a0856006016005600681101515611d0757fe5b015461229890919063ffffffff16565b6122e990919063ffffffff16565b9050611d83565b6000826006016005600681101515611d4057fe5b01541115611d555764174876e8009050611d82565b6000826006016004600681101515611d6957fe5b01541115611d7a5760009050611d81565b620186a090505b5b5b611d9062030d4082612304565b9050611dd4620186a0611dc68460100154611db886601101548661229890919063ffffffff16565b6122e990919063ffffffff16565b6122e990919063ffffffff16565b82600c0181905550611e2a620186a0611e1c8460100154611e0e8660110154611e0062030d408861231d565b61229890919063ffffffff16565b6122e990919063ffffffff16565b6122e990919063ffffffff16565b82600d01819055505050565b801561206957600084600c01541115612064578360050160009054906101000a900473ffffffffffffffffffffffffffffffffffffffff1673ffffffffffffffffffffffffffffffffffffffff1663a9059cbb84611ea187600c01548661229890919063ffffffff16565b6040518363ffffffff167c0100000000000000000000000000000000000000000000000000000000028152600401808373ffffffffffffffffffffffffffffffffffffffff1673ffffffffffffffffffffffffffffffffffffffff16815260200182815260200192505050602060405180830381600087803b1515611f2557600080fd5b5af11515611f3257600080fd5b50505060405180519050508360020160009054906101000a900473ffffffffffffffffffffffffffffffffffffffff1673ffffffffffffffffffffffffffffffffffffffff1663ecb145198486600e0160009054906101000a900473ffffffffffffffffffffffffffffffffffffffff166040518363ffffffff167c0100000000000000000000000000000000000000000000000000000000028152600401808373ffffffffffffffffffffffffffffffffffffffff1673ffffffffffffffffffffffffffffffffffffffff1681526020018273ffffffffffffffffffffffffffffffffffffffff1673ffffffffffffffffffffffffffffffffffffffff16815260200192505050600060405180830381600087803b151561205357600080fd5b5af1151561206057600080fd5b5050505b612292565b600084600d01541115612291578360050160009054906101000a900473ffffffffffffffffffffffffffffffffffffffff1673ffffffffffffffffffffffffffffffffffffffff1663a9059cbb846120ce87600d01548661229890919063ffffffff16565b6040518363ffffffff167c0100000000000000000000000000000000000000000000000000000000028152600401808373ffffffffffffffffffffffffffffffffffffffff1673ffffffffffffffffffffffffffffffffffffffff16815260200182815260200192505050602060405180830381600087803b151561215257600080fd5b5af1151561215f57600080fd5b50505060405180519050508360020160009054906101000a900473ffffffffffffffffffffffffffffffffffffffff1673ffffffffffffffffffffffffffffffffffffffff1663ecb145198486600f0160009054906101000a900473ffffffffffffffffffffffffffffffffffffffff166040518363ffffffff167c0100000000000000000000000000000000000000000000000000000000028152600401808373ffffffffffffffffffffffffffffffffffffffff1673ffffffffffffffffffffffffffffffffffffffff1681526020018273ffffffffffffffffffffffffffffffffffffffff1673ffffffffffffffffffffffffffffffffffffffff16815260200192505050600060405180830381600087803b151561228057600080fd5b5af1151561228d57600080fd5b5050505b5b50505050565b600080828402905060008414806122b957508284828115156122b657fe5b04145b15156122c157fe5b8091505092915050565b60008082840190508381101515156122df57fe5b8091505092915050565b60008082848115156122f757fe5b0490508091505092915050565b60008183106123135781612315565b825b905092915050565b600082821115151561232b57fe5b818303905092915050565b60a0604051908101604052806005905b600073ffffffffffffffffffffffffffffffffffffffff168152602001906001900390816123465790505090565b828560030160006101000a81548173ffffffffffffffffffffffffffffffffffffffff021916908373ffffffffffffffffffffffffffffffffffffffff160217905550838560010160006101000a81548173ffffffffffffffffffffffffffffffffffffffff021916908373ffffffffffffffffffffffffffffffffffffffff160217905550818560120160006101000a81548173ffffffffffffffffffffffffffffffffffffffff021916908373ffffffffffffffffffffffffffffffffffffffff1602179055508085600601600060068110151561245057fe5b018190555060008560050160146101000a81548160ff0219169083600281111561247657fe5b021790555050505050505600a165627a7a723058208a086b39e766ce50fa4ee41612b4ccceab879e360cf4ce4084ab2fc271bbc93c0029",
  "source": "pragma solidity ^0.4.17;\r\n\r\nimport \"./libraries/TokenLibrary.sol\";\r\n\r\n/**\r\n*This contract is the specific DRCT base contract that holds the funds of the contract and\r\n*redistributes them based upon the change in the underlying values\r\n*/\r\ncontract TokenToTokenSwap {\r\n\r\n    using TokenLibrary for TokenLibrary.SwapStorage;\r\n\r\n    TokenLibrary.SwapStorage public swap;\r\n\r\n    /*Functions*/\r\n    /**\r\n    *@dev Constructor - Run by the factory at contract creation\r\n    *@param _factory_address address of the factory that created this contract\r\n    *@param _creator address of the person who created the contract\r\n    *@param _userContract address of the _userContract that is authorized to interact with this contract\r\n    *@param _start_date start date of the contract\r\n    */\r\n    function TokenToTokenSwap (address _factory_address, address _creator, address _userContract, uint _start_date) public {\r\n        swap.startSwap(_factory_address,_creator,_userContract,_start_date);\r\n    }\r\n     /*\r\n    @dev A getter function for retriving standardized variables from the factory contract\r\n    */\r\n    function showPrivateVars() public view returns (address[5],uint, uint, uint, uint, uint){\r\n        return swap.showPrivateVars();\r\n    }\r\n\r\n    /*\r\n    @dev A getter function for retriving standardized variables from the factory contract\r\n    */\r\n    function currentState() public view returns(uint){\r\n        return swap.showCurrentState();\r\n    }\r\n\r\n    /**\r\n    *@dev Allows the sender to create the terms for the swap\r\n    *@param _amount Amount of Token that should be deposited for the notional\r\n    *@param _senderAdd States the owner of this side of the contract (does not have to be msg.sender)\r\n    */\r\n    function createSwap(uint _amount, address _senderAdd) public {\r\n        swap.createSwap(_amount,_senderAdd);\r\n    }\r\n\r\n    /*\r\n    *@dev This function can be called after the swap is tokenized or after the Calculate function is called.\r\n    *If the Calculate function has not yet been called, this function will call it.\r\n    *The function then pays every token holder of both the long and short DRCT tokens\r\n    *What should we do about zeroed out values? \r\n    */\r\n    function forcePay(uint _begin, uint _end) public returns (bool) {\r\n       swap.forcePay([_begin,_end]);\r\n    }\r\n}",
  "sourcePath": "C:\\company\\code\\drct_standard\\contracts\\TokenToTokenSwap.sol",
  "compiler": {
    "name": "solc",
    "version": "0.4.21+commit.dfe3193c.Emscripten.clang"
  },
  "schemaVersion": "2.0.0",
  "updatedAt": "2018-05-05T01:52:37.337Z"
}