{
  "contractName": "UserContract",
  "abi": [
    {
      "constant": true,
      "inputs": [],
      "name": "factory_address",
      "outputs": [
        {
          "name": "",
          "type": "address"
        }
      ],
      "payable": false,
      "stateMutability": "view",
      "type": "function"
    },
    {
      "inputs": [],
      "payable": false,
      "stateMutability": "nonpayable",
      "type": "constructor"
    },
    {
      "anonymous": false,
      "inputs": [
        {
          "indexed": false,
          "name": "_newswap",
          "type": "address"
        },
        {
          "indexed": false,
          "name": "_amount",
          "type": "uint256"
        }
      ],
      "name": "StartContract",
      "type": "event"
    },
    {
      "constant": false,
      "inputs": [
        {
          "name": "_startDate",
          "type": "uint256"
        },
        {
          "name": "_amount",
          "type": "uint256"
        }
      ],
      "name": "Initiate",
      "outputs": [],
      "payable": true,
      "stateMutability": "payable",
      "type": "function"
    },
    {
      "constant": false,
      "inputs": [
        {
          "name": "_factory_address",
          "type": "address"
        }
      ],
      "name": "setFactory",
      "outputs": [],
      "payable": false,
      "stateMutability": "nonpayable",
      "type": "function"
    }
  ],
  "bytecode": "0x608060405234801561001057600080fd5b5033600460006101000a81548173ffffffffffffffffffffffffffffffffffffffff021916908373ffffffffffffffffffffffffffffffffffffffff1602179055506108ee806100616000396000f300608060405260043610610057576000357c0100000000000000000000000000000000000000000000000000000000900463ffffffff16806350970bd51461005c5780635bb4780814610086578063ba92d382146100c9575b600080fd5b6100846004803603810190808035906020019092919080359060200190929190505050610120565b005b34801561009257600080fd5b506100c7600480360381019080803573ffffffffffffffffffffffffffffffffffffffff169060200190929190505050610766565b005b3480156100d557600080fd5b506100de610869565b604051808273ffffffffffffffffffffffffffffffffffffffff1673ffffffffffffffffffffffffffffffffffffffff16815260200191505060405180910390f35b6000806000600260009054906101000a900473ffffffffffffffffffffffffffffffffffffffff1673ffffffffffffffffffffffffffffffffffffffff1663ddca3f436040518163ffffffff167c0100000000000000000000000000000000000000000000000000000000028152600401602060405180830381600087803b1580156101ab57600080fd5b505af11580156101bf573d6000803e3d6000fd5b505050506040513d60208110156101d557600080fd5b81019080805190602001909291905050509250826101fd60028661088f90919063ffffffff16565b013414151561020b57600080fd5b600260009054906101000a900473ffffffffffffffffffffffffffffffffffffffff1673ffffffffffffffffffffffffffffffffffffffff16636648c14d8487336040518463ffffffff167c0100000000000000000000000000000000000000000000000000000000028152600401808381526020018273ffffffffffffffffffffffffffffffffffffffff1673ffffffffffffffffffffffffffffffffffffffff168152602001925050506020604051808303818588803b1580156102d057600080fd5b505af11580156102e4573d6000803e3d6000fd5b50505050506040513d60208110156102fb57600080fd5b81019080805190602001909291905050509150816000806101000a81548173ffffffffffffffffffffffffffffffffffffffff021916908373ffffffffffffffffffffffffffffffffffffffff160217905550600260009054906101000a900473ffffffffffffffffffffffffffffffffffffffff1673ffffffffffffffffffffffffffffffffffffffff1663fc0c546a6040518163ffffffff167c0100000000000000000000000000000000000000000000000000000000028152600401602060405180830381600087803b1580156103d457600080fd5b505af11580156103e8573d6000803e3d6000fd5b505050506040513d60208110156103fe57600080fd5b8101908080519060200190929190505050905080600160006101000a81548173ffffffffffffffffffffffffffffffffffffffff021916908373ffffffffffffffffffffffffffffffffffffffff160217905550600160009054906101000a900473ffffffffffffffffffffffffffffffffffffffff1673ffffffffffffffffffffffffffffffffffffffff16639cbf9e366104a460028761088f90919063ffffffff16565b6040518263ffffffff167c01000000000000000000000000000000000000000000000000000000000281526004016000604051808303818588803b1580156104eb57600080fd5b505af11580156104ff573d6000803e3d6000fd5b5050505050600160009054906101000a900473ffffffffffffffffffffffffffffffffffffffff1673ffffffffffffffffffffffffffffffffffffffff1663a9059cbb8361055760028861088f90919063ffffffff16565b6040518363ffffffff167c0100000000000000000000000000000000000000000000000000000000028152600401808373ffffffffffffffffffffffffffffffffffffffff1673ffffffffffffffffffffffffffffffffffffffff16815260200182815260200192505050602060405180830381600087803b1580156105dc57600080fd5b505af11580156105f0573d6000803e3d6000fd5b505050506040513d602081101561060657600080fd5b8101908080519060200190929190505050506000809054906101000a900473ffffffffffffffffffffffffffffffffffffffff1673ffffffffffffffffffffffffffffffffffffffff16637a3d4b1a85336040518363ffffffff167c0100000000000000000000000000000000000000000000000000000000028152600401808381526020018273ffffffffffffffffffffffffffffffffffffffff1673ffffffffffffffffffffffffffffffffffffffff16815260200192505050600060405180830381600087803b1580156106dc57600080fd5b505af11580156106f0573d6000803e3d6000fd5b505050507f9a9cc22405c05e320f607daa1b31c765bb90d5455d32e5b699e3c77172bb19938285604051808373ffffffffffffffffffffffffffffffffffffffff1673ffffffffffffffffffffffffffffffffffffffff1681526020018281526020019250505060405180910390a15050505050565b600460009054906101000a900473ffffffffffffffffffffffffffffffffffffffff1673ffffffffffffffffffffffffffffffffffffffff163373ffffffffffffffffffffffffffffffffffffffff161415156107c257600080fd5b80600360006101000a81548173ffffffffffffffffffffffffffffffffffffffff021916908373ffffffffffffffffffffffffffffffffffffffff160217905550600360009054906101000a900473ffffffffffffffffffffffffffffffffffffffff16600260006101000a81548173ffffffffffffffffffffffffffffffffffffffff021916908373ffffffffffffffffffffffffffffffffffffffff16021790555050565b600360009054906101000a900473ffffffffffffffffffffffffffffffffffffffff1681565b600080828402905060008414806108b057508284828115156108ad57fe5b04145b15156108b857fe5b80915050929150505600a165627a7a72305820d2588ccb76af5ca6b4fc4065fcb8a99f582807ad7ef72671808d5dbc169567c10029",
  "source": "pragma solidity ^0.4.24;\r\n\r\n\r\nimport \"./interfaces/TokenToTokenSwap_Interface.sol\";\r\nimport \"./Factory.sol\";\r\nimport \"./Wrapped_Ether.sol\";\r\nimport \"./libraries/SafeMath.sol\";\r\n\r\n/**\r\n*The User Contract enables the entering of a deployed swap along with the wrapping of Ether.  This\r\n*contract was specifically made for drct.decentralizedderivatives.org to simplify user metamask \r\n*calls\r\n*/\r\ncontract UserContract{\r\n\r\n    using SafeMath for uint256;\r\n\r\n    /*Variables*/\r\n    TokenToTokenSwap_Interface internal swap;\r\n    Wrapped_Ether internal baseToken;\r\n    Factory internal factory; \r\n    address public factory_address;\r\n    address internal owner;\r\n    event StartContract(address _newswap, uint _amount);\r\n\r\n\r\n    /*Functions*/\r\n    constructor() public {\r\n        owner = msg.sender;\r\n    }\r\n\r\n    /**\r\n    *@dev Value must be sent with Initiate and enter the _amount(in wei) \r\n    *@param _startDate is the startDate of the contract you want to deploy\r\n    *@param _amount is the amount of Ether on each side of the contract initially\r\n    */\r\n    function Initiate(uint _startDate, uint _amount) payable public{\r\n        uint _fee = factory.fee();\r\n        require(msg.value == _amount.mul(2) + _fee);\r\n        address _swapadd = factory.deployContract.value(_fee)(_startDate,msg.sender);\r\n        swap = TokenToTokenSwap_Interface(_swapadd);\r\n        address token_address = factory.token();\r\n        baseToken = Wrapped_Ether(token_address);\r\n        baseToken.createToken.value(_amount.mul(2))();\r\n        baseToken.transfer(_swapadd,_amount.mul(2));\r\n        swap.createSwap(_amount, msg.sender);\r\n        emit StartContract(_swapadd,_amount);\r\n    }\r\n\r\n\r\n    /**\r\n    *@dev Set factory address \r\n    *@param _factory_address is the factory address to clone?\r\n    */\r\n    function setFactory(address _factory_address) public {\r\n        require (msg.sender == owner);\r\n        factory_address = _factory_address;\r\n        factory = Factory(factory_address);\r\n    }\r\n}\r\n",
  "sourcePath": "C:\\company\\code\\drct_standard\\contracts\\UserContract.sol",
  "compiler": {
    "name": "solc",
    "version": "0.4.24+commit.e67f0147.Emscripten.clang"
  },
  "schemaVersion": "2.0.1",
  "updatedAt": "2018-11-07T01:51:07.591Z"
}