{
  "contractName": "UserContract",
  "abi": [
    {
      "constant": true,
      "inputs": [],
      "name": "factory_address",
      "outputs": [
        {
          "name": "",
          "type": "address"
        }
      ],
      "payable": false,
      "stateMutability": "view",
      "type": "function"
    },
    {
      "inputs": [],
      "payable": false,
      "stateMutability": "nonpayable",
      "type": "constructor"
    },
    {
      "constant": false,
      "inputs": [
        {
          "name": "_swapadd",
          "type": "address"
        },
        {
          "name": "_amount",
          "type": "uint256"
        }
      ],
      "name": "Initiate",
      "outputs": [],
      "payable": true,
      "stateMutability": "payable",
      "type": "function"
    },
    {
      "constant": false,
      "inputs": [
        {
          "name": "_factory_address",
          "type": "address"
        }
      ],
      "name": "setFactory",
      "outputs": [],
      "payable": false,
      "stateMutability": "nonpayable",
      "type": "function"
    }
  ],
  "bytecode": "0x6060604052341561000f57600080fd5b33600460006101000a81548173ffffffffffffffffffffffffffffffffffffffff021916908373ffffffffffffffffffffffffffffffffffffffff1602179055506105f88061005f6000396000f300606060405260043610610057576000357c0100000000000000000000000000000000000000000000000000000000900463ffffffff16806328b597821461005c5780635bb4780814610093578063ba92d382146100cc575b600080fd5b610091600480803573ffffffffffffffffffffffffffffffffffffffff16906020019091908035906020019091905050610121565b005b341561009e57600080fd5b6100ca600480803573ffffffffffffffffffffffffffffffffffffffff169060200190919050506104a3565b005b34156100d757600080fd5b6100df6105a6565b604051808273ffffffffffffffffffffffffffffffffffffffff1673ffffffffffffffffffffffffffffffffffffffff16815260200191505060405180910390f35b6000600282023414151561013457600080fd5b826000806101000a81548173ffffffffffffffffffffffffffffffffffffffff021916908373ffffffffffffffffffffffffffffffffffffffff160217905550600260009054906101000a900473ffffffffffffffffffffffffffffffffffffffff1673ffffffffffffffffffffffffffffffffffffffff1663d104a1366040518163ffffffff167c0100000000000000000000000000000000000000000000000000000000028152600401602060405180830381600087803b15156101f957600080fd5b5af1151561020657600080fd5b50505060405180519050905080600160006101000a81548173ffffffffffffffffffffffffffffffffffffffff021916908373ffffffffffffffffffffffffffffffffffffffff160217905550600160009054906101000a900473ffffffffffffffffffffffffffffffffffffffff1673ffffffffffffffffffffffffffffffffffffffff1663a2ea2aaf600284026040518263ffffffff167c01000000000000000000000000000000000000000000000000000000000281526004016000604051808303818588803b15156102db57600080fd5b5af115156102e857600080fd5b50505050600160009054906101000a900473ffffffffffffffffffffffffffffffffffffffff1673ffffffffffffffffffffffffffffffffffffffff1663a9059cbb84600285026040518363ffffffff167c0100000000000000000000000000000000000000000000000000000000028152600401808373ffffffffffffffffffffffffffffffffffffffff1673ffffffffffffffffffffffffffffffffffffffff16815260200182815260200192505050602060405180830381600087803b15156103b357600080fd5b5af115156103c057600080fd5b50505060405180519050506000809054906101000a900473ffffffffffffffffffffffffffffffffffffffff1673ffffffffffffffffffffffffffffffffffffffff1663dec5472a83336040518363ffffffff167c0100000000000000000000000000000000000000000000000000000000028152600401808381526020018273ffffffffffffffffffffffffffffffffffffffff1673ffffffffffffffffffffffffffffffffffffffff16815260200192505050600060405180830381600087803b151561048e57600080fd5b5af1151561049b57600080fd5b505050505050565b600460009054906101000a900473ffffffffffffffffffffffffffffffffffffffff1673ffffffffffffffffffffffffffffffffffffffff163373ffffffffffffffffffffffffffffffffffffffff161415156104ff57600080fd5b80600360006101000a81548173ffffffffffffffffffffffffffffffffffffffff021916908373ffffffffffffffffffffffffffffffffffffffff160217905550600360009054906101000a900473ffffffffffffffffffffffffffffffffffffffff16600260006101000a81548173ffffffffffffffffffffffffffffffffffffffff021916908373ffffffffffffffffffffffffffffffffffffffff16021790555050565b600360009054906101000a900473ffffffffffffffffffffffffffffffffffffffff16815600a165627a7a723058206dcede0ff8c000f57a2c60346ae421ee0d2b1c1183a7765638b07a63d70ee20b0029",
  "source": "pragma solidity ^0.4.17;\n\n\nimport \"./interfaces/TokenToTokenSwap_Interface.sol\";\nimport \"./interfaces/Factory_Interface.sol\";\nimport \"./Wrapped_Ether.sol\";\nimport \"./libraries/SafeMath.sol\";\n\n//The User Contract enables the entering of a deployed swap along with the wrapping of Ether.  This contract was specifically made for drct.decentralizedderivatives.org to simplify user metamask calls\ncontract UserContract{\n  TokenToTokenSwap_Interface swap;\n  Wrapped_Ether token;\n  Factory_Interface factory;\n\n  address public factory_address;\n  address owner;\n\n  function UserContract() public {\n      owner = msg.sender;\n  }\n\n  //The _swapAdd is the address of the deployed contract created from the Factory contract.\n  //_amounta and _amountb are the amounts of token_a and token_b (the base tokens) in the swap.  For wrapped Ether, this is wei.\n  //_premium is a base payment to the other party for taking the other side of the swap\n  // _isLong refers to whether the sender is long or short the reference rate\n  //Value must be sent with Initiate and Enter equivalent to the _amounta(in wei) and the premium, and _amountb respectively\n\n  function Initiate(address _swapadd, uint _amount) payable public{\n    require(msg.value == _amount * 2);\n    swap = TokenToTokenSwap_Interface(_swapadd);\n    address token_address = factory.getBase();\n    token = Wrapped_Ether(token_address);\n    token.CreateToken.value(_amount * 2)();\n    token.transfer(_swapadd,_amount* 2);\n    swap.CreateSwap(_amount, msg.sender);\n  }\n\n  function setFactory(address _factory_address) public {\n    require (msg.sender == owner);\n    factory_address = _factory_address;\n    factory = Factory_Interface(factory_address);\n  }\n}\n",
  "sourcePath": "/Users/daniel/Desktop/drct/DRCT_standard/contracts/User_Contract.sol",
  "compiler": {
    "name": "solc",
    "version": "0.4.21+commit.dfe3193c.Emscripten.clang"
  },
  "schemaVersion": "2.0.0",
  "updatedAt": "2018-04-30T22:33:36.414Z"
}