{
  "contractName": "UserContract",
  "abi": [
    {
      "constant": true,
      "inputs": [],
      "name": "factory_address",
      "outputs": [
        {
          "name": "",
          "type": "address"
        }
      ],
      "payable": false,
      "stateMutability": "view",
      "type": "function"
    },
    {
      "inputs": [],
      "payable": false,
      "stateMutability": "nonpayable",
      "type": "constructor"
    },
    {
      "constant": false,
      "inputs": [
        {
          "name": "_swapadd",
          "type": "address"
        },
        {
          "name": "_amount",
          "type": "uint256"
        }
      ],
      "name": "Initiate",
      "outputs": [],
      "payable": true,
      "stateMutability": "payable",
      "type": "function"
    },
    {
      "constant": false,
      "inputs": [
        {
          "name": "_factory_address",
          "type": "address"
        }
      ],
      "name": "setFactory",
      "outputs": [],
      "payable": false,
      "stateMutability": "nonpayable",
      "type": "function"
    }
  ],
  "bytecode": "0x6060604052341561000f57600080fd5b33600460006101000a81548173ffffffffffffffffffffffffffffffffffffffff021916908373ffffffffffffffffffffffffffffffffffffffff1602179055506105f88061005f6000396000f300606060405260043610610057576000357c0100000000000000000000000000000000000000000000000000000000900463ffffffff16806328b597821461005c5780635bb4780814610093578063ba92d382146100cc575b600080fd5b610091600480803573ffffffffffffffffffffffffffffffffffffffff16906020019091908035906020019091905050610121565b005b341561009e57600080fd5b6100ca600480803573ffffffffffffffffffffffffffffffffffffffff169060200190919050506104a3565b005b34156100d757600080fd5b6100df6105a6565b604051808273ffffffffffffffffffffffffffffffffffffffff1673ffffffffffffffffffffffffffffffffffffffff16815260200191505060405180910390f35b6000600282023414151561013457600080fd5b826000806101000a81548173ffffffffffffffffffffffffffffffffffffffff021916908373ffffffffffffffffffffffffffffffffffffffff160217905550600260009054906101000a900473ffffffffffffffffffffffffffffffffffffffff1673ffffffffffffffffffffffffffffffffffffffff1663fc0c546a6040518163ffffffff167c0100000000000000000000000000000000000000000000000000000000028152600401602060405180830381600087803b15156101f957600080fd5b5af1151561020657600080fd5b50505060405180519050905080600160006101000a81548173ffffffffffffffffffffffffffffffffffffffff021916908373ffffffffffffffffffffffffffffffffffffffff160217905550600160009054906101000a900473ffffffffffffffffffffffffffffffffffffffff1673ffffffffffffffffffffffffffffffffffffffff16639cbf9e36600284026040518263ffffffff167c01000000000000000000000000000000000000000000000000000000000281526004016000604051808303818588803b15156102db57600080fd5b5af115156102e857600080fd5b50505050600160009054906101000a900473ffffffffffffffffffffffffffffffffffffffff1673ffffffffffffffffffffffffffffffffffffffff1663a9059cbb84600285026040518363ffffffff167c0100000000000000000000000000000000000000000000000000000000028152600401808373ffffffffffffffffffffffffffffffffffffffff1673ffffffffffffffffffffffffffffffffffffffff16815260200182815260200192505050602060405180830381600087803b15156103b357600080fd5b5af115156103c057600080fd5b50505060405180519050506000809054906101000a900473ffffffffffffffffffffffffffffffffffffffff1673ffffffffffffffffffffffffffffffffffffffff16637a3d4b1a83336040518363ffffffff167c0100000000000000000000000000000000000000000000000000000000028152600401808381526020018273ffffffffffffffffffffffffffffffffffffffff1673ffffffffffffffffffffffffffffffffffffffff16815260200192505050600060405180830381600087803b151561048e57600080fd5b5af1151561049b57600080fd5b505050505050565b600460009054906101000a900473ffffffffffffffffffffffffffffffffffffffff1673ffffffffffffffffffffffffffffffffffffffff163373ffffffffffffffffffffffffffffffffffffffff161415156104ff57600080fd5b80600360006101000a81548173ffffffffffffffffffffffffffffffffffffffff021916908373ffffffffffffffffffffffffffffffffffffffff160217905550600360009054906101000a900473ffffffffffffffffffffffffffffffffffffffff16600260006101000a81548173ffffffffffffffffffffffffffffffffffffffff021916908373ffffffffffffffffffffffffffffffffffffffff16021790555050565b600360009054906101000a900473ffffffffffffffffffffffffffffffffffffffff16815600a165627a7a7230582029cbdab5a9149dc8865f29ad721ec8f90b45e68aae1feb0fb290edcb31a5d38e0029",
  "source": "pragma solidity ^0.4.17;\r\n\r\n\r\nimport \"./interfaces/TokenToTokenSwap_Interface.sol\";\r\nimport \"./Factory.sol\";\r\nimport \"./Wrapped_Ether.sol\";\r\nimport \"./libraries/SafeMath.sol\";\r\n\r\n/**\r\n*The User Contract enables the entering of a deployed swap along with the wrapping of Ether.  This\r\n*contract was specifically made for drct.decentralizedderivatives.org to simplify user metamask \r\n*calls\r\n*/\r\ncontract UserContract{\r\n    TokenToTokenSwap_Interface internal swap;\r\n    Wrapped_Ether internal baseToken;\r\n    Factory internal factory;\r\n\r\n    address public factory_address;\r\n    address internal owner;\r\n\r\n    function UserContract() public {\r\n        owner = msg.sender;\r\n    }\r\n\r\n    /**\r\n    *@dev Value must be sent with Initiate and enter the _amount(in wei) ?\r\n    *@param _swapAdd is the address of the deployed contract created from the Factory contract\r\n    *@param _amount is the amount of the base tokens(short or long) in the ?\r\n    *swap. For wrapped Ether, this is wei.\r\n    */\r\n    function Initiate(address _swapadd, uint _amount) payable public{\r\n        require(msg.value == _amount * 2);\r\n        swap = TokenToTokenSwap_Interface(_swapadd);\r\n        address token_address = factory.token();\r\n        baseToken = Wrapped_Ether(token_address);\r\n        baseToken.createToken.value(_amount * 2)();\r\n        baseToken.transfer(_swapadd,_amount* 2);\r\n        swap.createSwap(_amount, msg.sender);\r\n    }\r\n\r\n    function setFactory(address _factory_address) public {\r\n        require (msg.sender == owner);\r\n        factory_address = _factory_address;\r\n        factory = Factory(factory_address);\r\n    }\r\n}\r\n",
  "sourcePath": "C:\\company\\code\\drct_standard\\contracts\\User_Contract.sol",
  "compiler": {
    "name": "solc",
    "version": "0.4.21+commit.dfe3193c.Emscripten.clang"
  },
  "schemaVersion": "2.0.0",
  "updatedAt": "2018-05-06T00:00:33.271Z"
}