{
  "contractName": "UserContract",
  "abi": [
    {
      "constant": true,
      "inputs": [],
      "name": "factory_address",
      "outputs": [
        {
          "name": "",
          "type": "address"
        }
      ],
      "payable": false,
      "stateMutability": "view",
      "type": "function"
    },
    {
      "inputs": [],
      "payable": false,
      "stateMutability": "nonpayable",
      "type": "constructor"
    },
    {
      "constant": false,
      "inputs": [
        {
          "name": "_swapadd",
          "type": "address"
        },
        {
          "name": "_amount",
          "type": "uint256"
        }
      ],
      "name": "Initiate",
      "outputs": [],
      "payable": true,
      "stateMutability": "payable",
      "type": "function"
    },
    {
      "constant": false,
      "inputs": [
        {
          "name": "_factory_address",
          "type": "address"
        }
      ],
      "name": "setFactory",
      "outputs": [],
      "payable": false,
      "stateMutability": "nonpayable",
      "type": "function"
    }
  ],
  "bytecode": "0x608060405234801561001057600080fd5b5033600460006101000a81548173ffffffffffffffffffffffffffffffffffffffff021916908373ffffffffffffffffffffffffffffffffffffffff1602179055506106cc806100616000396000f300608060405260043610610057576000357c0100000000000000000000000000000000000000000000000000000000900463ffffffff16806328b597821461005c5780635bb478081461009c578063ba92d382146100df575b600080fd5b61009a600480360381019080803573ffffffffffffffffffffffffffffffffffffffff16906020019092919080359060200190929190505050610136565b005b3480156100a857600080fd5b506100dd600480360381019080803573ffffffffffffffffffffffffffffffffffffffff169060200190929190505050610544565b005b3480156100eb57600080fd5b506100f4610647565b604051808273ffffffffffffffffffffffffffffffffffffffff1673ffffffffffffffffffffffffffffffffffffffff16815260200191505060405180910390f35b600061014c60028361066d90919063ffffffff16565b3414151561015957600080fd5b826000806101000a81548173ffffffffffffffffffffffffffffffffffffffff021916908373ffffffffffffffffffffffffffffffffffffffff160217905550600260009054906101000a900473ffffffffffffffffffffffffffffffffffffffff1673ffffffffffffffffffffffffffffffffffffffff1663fc0c546a6040518163ffffffff167c0100000000000000000000000000000000000000000000000000000000028152600401602060405180830381600087803b15801561021f57600080fd5b505af1158015610233573d6000803e3d6000fd5b505050506040513d602081101561024957600080fd5b8101908080519060200190929190505050905080600160006101000a81548173ffffffffffffffffffffffffffffffffffffffff021916908373ffffffffffffffffffffffffffffffffffffffff160217905550600160009054906101000a900473ffffffffffffffffffffffffffffffffffffffff1673ffffffffffffffffffffffffffffffffffffffff16639cbf9e366102ef60028561066d90919063ffffffff16565b6040518263ffffffff167c01000000000000000000000000000000000000000000000000000000000281526004016000604051808303818588803b15801561033657600080fd5b505af115801561034a573d6000803e3d6000fd5b5050505050600160009054906101000a900473ffffffffffffffffffffffffffffffffffffffff1673ffffffffffffffffffffffffffffffffffffffff1663a9059cbb846103a260028661066d90919063ffffffff16565b6040518363ffffffff167c0100000000000000000000000000000000000000000000000000000000028152600401808373ffffffffffffffffffffffffffffffffffffffff1673ffffffffffffffffffffffffffffffffffffffff16815260200182815260200192505050602060405180830381600087803b15801561042757600080fd5b505af115801561043b573d6000803e3d6000fd5b505050506040513d602081101561045157600080fd5b8101908080519060200190929190505050506000809054906101000a900473ffffffffffffffffffffffffffffffffffffffff1673ffffffffffffffffffffffffffffffffffffffff16637a3d4b1a83336040518363ffffffff167c0100000000000000000000000000000000000000000000000000000000028152600401808381526020018273ffffffffffffffffffffffffffffffffffffffff1673ffffffffffffffffffffffffffffffffffffffff16815260200192505050600060405180830381600087803b15801561052757600080fd5b505af115801561053b573d6000803e3d6000fd5b50505050505050565b600460009054906101000a900473ffffffffffffffffffffffffffffffffffffffff1673ffffffffffffffffffffffffffffffffffffffff163373ffffffffffffffffffffffffffffffffffffffff161415156105a057600080fd5b80600360006101000a81548173ffffffffffffffffffffffffffffffffffffffff021916908373ffffffffffffffffffffffffffffffffffffffff160217905550600360009054906101000a900473ffffffffffffffffffffffffffffffffffffffff16600260006101000a81548173ffffffffffffffffffffffffffffffffffffffff021916908373ffffffffffffffffffffffffffffffffffffffff16021790555050565b600360009054906101000a900473ffffffffffffffffffffffffffffffffffffffff1681565b6000808284029050600084148061068e575082848281151561068b57fe5b04145b151561069657fe5b80915050929150505600a165627a7a7230582009a6cb4e4b9b47e62059e6fa0a5a6812bad573109eb4415b20e0dd5102e0fe3c0029",
  "source": "pragma solidity ^0.4.24;\r\n\r\n\r\nimport \"./interfaces/TokenToTokenSwap_Interface.sol\";\r\nimport \"./Factory.sol\";\r\nimport \"./Wrapped_Ether.sol\";\r\nimport \"./libraries/SafeMath.sol\";\r\n\r\n/**\r\n*The User Contract enables the entering of a deployed swap along with the wrapping of Ether.  This\r\n*contract was specifically made for drct.decentralizedderivatives.org to simplify user metamask \r\n*calls\r\n*/\r\ncontract UserContract{\r\n\r\n    using SafeMath for uint256;\r\n\r\n    /*Variables*/\r\n    TokenToTokenSwap_Interface internal swap;\r\n    Wrapped_Ether internal baseToken;\r\n    Factory internal factory; \r\n    address public factory_address;\r\n    address internal owner;\r\n\r\n    /*Functions*/\r\n    constructor() public {\r\n        owner = msg.sender;\r\n    }\r\n\r\n    /**\r\n    *@dev Value must be sent with Initiate and enter the _amount(in wei) \r\n    *@param _swapadd is the address of the deployed contract created from the Factory contract\r\n    *@param _amount is the amount of the base tokens(short or long) in the\r\n    *swap. For wrapped Ether, this is wei.\r\n    */\r\n    function Initiate(address _swapadd, uint _amount) payable public{\r\n        require(msg.value == _amount.mul(2));\r\n        swap = TokenToTokenSwap_Interface(_swapadd);\r\n        address token_address = factory.token();\r\n        baseToken = Wrapped_Ether(token_address);\r\n        baseToken.createToken.value(_amount.mul(2))();\r\n        baseToken.transfer(_swapadd,_amount.mul(2));\r\n        swap.createSwap(_amount, msg.sender);\r\n    }\r\n\r\n    /**\r\n    *@dev Set factory address \r\n    *@param _factory_address is the factory address to clone?\r\n    */\r\n    function setFactory(address _factory_address) public {\r\n        require (msg.sender == owner);\r\n        factory_address = _factory_address;\r\n        factory = Factory(factory_address);\r\n    }\r\n}\r\n",
  "sourcePath": "C:\\company\\code\\drct_standard\\contracts\\UserContract.sol",
  "compiler": {
    "name": "solc",
    "version": "0.4.24+commit.e67f0147.Emscripten.clang"
  },
  "schemaVersion": "2.0.1",
  "updatedAt": "2018-09-03T02:20:33.463Z"
}